{
	"contracts_new/TaskInfo.sol": {
		"TaskInfo": {
			"abi": [
				{
					"inputs": [
						{
							"internalType": "address",
							"name": "customer_",
							"type": "address"
						},
						{
							"components": [
								{
									"internalType": "uint256",
									"name": "id",
									"type": "uint256"
								},
								{
									"internalType": "bytes32",
									"name": "sha256hashsum",
									"type": "bytes32"
								},
								{
									"internalType": "uint256",
									"name": "timestamp",
									"type": "uint256"
								}
							],
							"internalType": "struct utils.TaskData",
							"name": "task_data",
							"type": "tuple"
						},
						{
							"internalType": "uint256",
							"name": "task_execution_time",
							"type": "uint256"
						},
						{
							"internalType": "uint256",
							"name": "price_",
							"type": "uint256"
						},
						{
							"internalType": "uint256",
							"name": "security_deposit",
							"type": "uint256"
						}
					],
					"stateMutability": "nonpayable",
					"type": "constructor"
				},
				{
					"inputs": [
						{
							"components": [
								{
									"internalType": "uint256",
									"name": "id",
									"type": "uint256"
								},
								{
									"internalType": "bytes32",
									"name": "sha256hashsum",
									"type": "bytes32"
								},
								{
									"internalType": "uint256",
									"name": "timestamp",
									"type": "uint256"
								}
							],
							"internalType": "struct utils.SolutionData",
							"name": "solution_data",
							"type": "tuple"
						}
					],
					"name": "addSolution",
					"outputs": [],
					"stateMutability": "nonpayable",
					"type": "function"
				},
				{
					"inputs": [
						{
							"internalType": "uint256",
							"name": "additional_time",
							"type": "uint256"
						}
					],
					"name": "addTaskExecutionTime",
					"outputs": [],
					"stateMutability": "nonpayable",
					"type": "function"
				},
				{
					"inputs": [],
					"name": "getCustomer",
					"outputs": [
						{
							"internalType": "address",
							"name": "",
							"type": "address"
						}
					],
					"stateMutability": "view",
					"type": "function"
				},
				{
					"inputs": [],
					"name": "getExecutor",
					"outputs": [
						{
							"internalType": "address",
							"name": "",
							"type": "address"
						}
					],
					"stateMutability": "view",
					"type": "function"
				},
				{
					"inputs": [],
					"name": "getPrice",
					"outputs": [
						{
							"internalType": "uint256",
							"name": "",
							"type": "uint256"
						}
					],
					"stateMutability": "view",
					"type": "function"
				},
				{
					"inputs": [],
					"name": "getSecurityDeposit",
					"outputs": [
						{
							"internalType": "uint256",
							"name": "",
							"type": "uint256"
						}
					],
					"stateMutability": "view",
					"type": "function"
				},
				{
					"inputs": [],
					"name": "getSolution",
					"outputs": [
						{
							"components": [
								{
									"internalType": "uint256",
									"name": "id",
									"type": "uint256"
								},
								{
									"internalType": "bytes32",
									"name": "sha256hashsum",
									"type": "bytes32"
								},
								{
									"internalType": "uint256",
									"name": "timestamp",
									"type": "uint256"
								}
							],
							"internalType": "struct utils.SolutionData[]",
							"name": "",
							"type": "tuple[]"
						}
					],
					"stateMutability": "view",
					"type": "function"
				},
				{
					"inputs": [],
					"name": "getTaskData",
					"outputs": [
						{
							"components": [
								{
									"internalType": "uint256",
									"name": "id",
									"type": "uint256"
								},
								{
									"internalType": "bytes32",
									"name": "sha256hashsum",
									"type": "bytes32"
								},
								{
									"internalType": "uint256",
									"name": "timestamp",
									"type": "uint256"
								}
							],
							"internalType": "struct utils.TaskData",
							"name": "",
							"type": "tuple"
						}
					],
					"stateMutability": "view",
					"type": "function"
				},
				{
					"inputs": [],
					"name": "getTaskExecutionTime",
					"outputs": [
						{
							"internalType": "uint256",
							"name": "",
							"type": "uint256"
						}
					],
					"stateMutability": "view",
					"type": "function"
				},
				{
					"inputs": [],
					"name": "grantPublicAccess",
					"outputs": [],
					"stateMutability": "nonpayable",
					"type": "function"
				},
				{
					"inputs": [
						{
							"internalType": "address",
							"name": "executor_",
							"type": "address"
						}
					],
					"name": "setExecutor",
					"outputs": [],
					"stateMutability": "nonpayable",
					"type": "function"
				},
				{
					"inputs": [
						{
							"internalType": "address",
							"name": "new_master",
							"type": "address"
						}
					],
					"name": "setNewMasterSmartContract",
					"outputs": [],
					"stateMutability": "nonpayable",
					"type": "function"
				}
			],
			"devdoc": {
				"kind": "dev",
				"methods": {},
				"version": 1
			},
			"evm": {
				"assembly": "    /* \"contracts_new/TaskInfo.sol\":248:3266  contract TaskInfo is ITaskInfo {\r... */\n  mstore(0x40, 0x80)\n    /* \"contracts_new/TaskInfo.sol\":684:687  0x0 */\n  0x00\n    /* \"contracts_new/TaskInfo.sol\":657:688  address executor = address(0x0) */\n  0x08\n  exp(0x0100, 0x00)\n  dup2\n  sload\n  dup2\n  0xffffffffffffffffffffffffffffffffffffffff\n  mul\n  not\n  and\n  swap1\n  dup4\n  0xffffffffffffffffffffffffffffffffffffffff\n  and\n  mul\n  or\n  swap1\n  sstore\n  pop\n    /* \"contracts_new/TaskInfo.sol\":755:760  false */\n  0x00\n    /* \"contracts_new/TaskInfo.sol\":735:760  bool publicAccess = false */\n  0x0a\n  exp(0x0100, 0x00)\n  dup2\n  sload\n  dup2\n  0xff\n  mul\n  not\n  and\n  swap1\n  dup4\n  iszero\n  iszero\n  mul\n  or\n  swap1\n  sstore\n  pop\n    /* \"contracts_new/TaskInfo.sol\":769:1193  constructor(\r... */\n  callvalue\n  dup1\n  iszero\n  tag_1\n  jumpi\n  0x00\n  dup1\n  revert\ntag_1:\n  pop\n  mload(0x40)\n  sub(codesize, bytecodeSize)\n  dup1\n  bytecodeSize\n  dup4\n  codecopy\n  dup2\n  dup2\n  add\n  0x40\n  mstore\n  dup2\n  add\n  swap1\n  tag_2\n  swap2\n  swap1\n  tag_3\n  jump\t// in\ntag_2:\n    /* \"contracts_new/TaskInfo.sol\":993:1003  msg.sender */\n  caller\n    /* \"contracts_new/TaskInfo.sol\":964:990  masterSmartContractAddress */\n  0x00\n  dup1\n    /* \"contracts_new/TaskInfo.sol\":964:1003  masterSmartContractAddress = msg.sender */\n  0x0100\n  exp\n  dup2\n  sload\n  dup2\n  0xffffffffffffffffffffffffffffffffffffffff\n  mul\n  not\n  and\n  swap1\n  dup4\n  0xffffffffffffffffffffffffffffffffffffffff\n  and\n  mul\n  or\n  swap1\n  sstore\n  pop\n    /* \"contracts_new/TaskInfo.sol\":1025:1034  customer_ */\n  dup5\n    /* \"contracts_new/TaskInfo.sol\":1014:1022  customer */\n  0x01\n  0x00\n    /* \"contracts_new/TaskInfo.sol\":1014:1034  customer = customer_ */\n  0x0100\n  exp\n  dup2\n  sload\n  dup2\n  0xffffffffffffffffffffffffffffffffffffffff\n  mul\n  not\n  and\n  swap1\n  dup4\n  0xffffffffffffffffffffffffffffffffffffffff\n  and\n  mul\n  or\n  swap1\n  sstore\n  pop\n    /* \"contracts_new/TaskInfo.sol\":1056:1065  task_data */\n  dup4\n    /* \"contracts_new/TaskInfo.sol\":1045:1053  taskData */\n  0x02\n    /* \"contracts_new/TaskInfo.sol\":1045:1065  taskData = task_data */\n  0x00\n  dup3\n  add\n  mload\n  dup2\n  0x00\n  add\n  sstore\n  0x20\n  dup3\n  add\n  mload\n  dup2\n  0x01\n  add\n  sstore\n  0x40\n  dup3\n  add\n  mload\n  dup2\n  0x02\n  add\n  sstore\n  swap1\n  pop\n  pop\n    /* \"contracts_new/TaskInfo.sol\":1096:1115  task_execution_time */\n  dup3\n    /* \"contracts_new/TaskInfo.sol\":1076:1093  taskExecutionTime */\n  0x05\n    /* \"contracts_new/TaskInfo.sol\":1076:1115  taskExecutionTime = task_execution_time */\n  dup2\n  swap1\n  sstore\n  pop\n    /* \"contracts_new/TaskInfo.sol\":1134:1140  price_ */\n  dup2\n    /* \"contracts_new/TaskInfo.sol\":1126:1131  price */\n  0x06\n    /* \"contracts_new/TaskInfo.sol\":1126:1140  price = price_ */\n  dup2\n  swap1\n  sstore\n  pop\n    /* \"contracts_new/TaskInfo.sol\":1169:1185  security_deposit */\n  dup1\n    /* \"contracts_new/TaskInfo.sol\":1151:1166  securityDeposit */\n  0x07\n    /* \"contracts_new/TaskInfo.sol\":1151:1185  securityDeposit = security_deposit */\n  dup2\n  swap1\n  sstore\n  pop\n    /* \"contracts_new/TaskInfo.sol\":769:1193  constructor(\r... */\n  pop\n  pop\n  pop\n  pop\n  pop\n    /* \"contracts_new/TaskInfo.sol\":248:3266  contract TaskInfo is ITaskInfo {\r... */\n  jump(tag_6)\n    /* \"#utility.yul\":7:150   */\ntag_8:\n    /* \"#utility.yul\":64:69   */\n  0x00\n    /* \"#utility.yul\":95:101   */\n  dup2\n    /* \"#utility.yul\":89:102   */\n  mload\n    /* \"#utility.yul\":80:102   */\n  swap1\n  pop\n    /* \"#utility.yul\":111:144   */\n  tag_10\n    /* \"#utility.yul\":138:143   */\n  dup2\n    /* \"#utility.yul\":111:144   */\n  tag_11\n  jump\t// in\ntag_10:\n    /* \"#utility.yul\":7:150   */\n  swap3\n  swap2\n  pop\n  pop\n  jump\t// out\n    /* \"#utility.yul\":156:299   */\ntag_12:\n    /* \"#utility.yul\":213:218   */\n  0x00\n    /* \"#utility.yul\":244:250   */\n  dup2\n    /* \"#utility.yul\":238:251   */\n  mload\n    /* \"#utility.yul\":229:251   */\n  swap1\n  pop\n    /* \"#utility.yul\":260:293   */\n  tag_14\n    /* \"#utility.yul\":287:292   */\n  dup2\n    /* \"#utility.yul\":260:293   */\n  tag_15\n  jump\t// in\ntag_14:\n    /* \"#utility.yul\":156:299   */\n  swap3\n  swap2\n  pop\n  pop\n  jump\t// out\n    /* \"#utility.yul\":334:1125   */\ntag_16:\n    /* \"#utility.yul\":419:424   */\n  0x00\n    /* \"#utility.yul\":463:467   */\n  0x60\n    /* \"#utility.yul\":451:460   */\n  dup3\n    /* \"#utility.yul\":446:449   */\n  dup5\n    /* \"#utility.yul\":442:461   */\n  sub\n    /* \"#utility.yul\":438:468   */\n  slt\n    /* \"#utility.yul\":435:552   */\n  iszero\n  tag_18\n  jumpi\n    /* \"#utility.yul\":471:550   */\n  tag_19\n  tag_20\n  jump\t// in\ntag_19:\n    /* \"#utility.yul\":435:552   */\ntag_18:\n    /* \"#utility.yul\":570:591   */\n  tag_21\n    /* \"#utility.yul\":586:590   */\n  0x60\n    /* \"#utility.yul\":570:591   */\n  tag_22\n  jump\t// in\ntag_21:\n    /* \"#utility.yul\":561:591   */\n  swap1\n  pop\n    /* \"#utility.yul\":648:649   */\n  0x00\n    /* \"#utility.yul\":688:748   */\n  tag_23\n    /* \"#utility.yul\":744:747   */\n  dup5\n    /* \"#utility.yul\":735:741   */\n  dup3\n    /* \"#utility.yul\":724:733   */\n  dup6\n    /* \"#utility.yul\":720:742   */\n  add\n    /* \"#utility.yul\":688:748   */\n  tag_24\n  jump\t// in\ntag_23:\n    /* \"#utility.yul\":681:685   */\n  0x00\n    /* \"#utility.yul\":674:679   */\n  dup4\n    /* \"#utility.yul\":670:686   */\n  add\n    /* \"#utility.yul\":663:749   */\n  mstore\n    /* \"#utility.yul\":601:760   */\n  pop\n    /* \"#utility.yul\":828:830   */\n  0x20\n    /* \"#utility.yul\":869:929   */\n  tag_25\n    /* \"#utility.yul\":925:928   */\n  dup5\n    /* \"#utility.yul\":916:922   */\n  dup3\n    /* \"#utility.yul\":905:914   */\n  dup6\n    /* \"#utility.yul\":901:923   */\n  add\n    /* \"#utility.yul\":869:929   */\n  tag_12\n  jump\t// in\ntag_25:\n    /* \"#utility.yul\":862:866   */\n  0x20\n    /* \"#utility.yul\":855:860   */\n  dup4\n    /* \"#utility.yul\":851:867   */\n  add\n    /* \"#utility.yul\":844:930   */\n  mstore\n    /* \"#utility.yul\":770:941   */\n  pop\n    /* \"#utility.yul\":1005:1007   */\n  0x40\n    /* \"#utility.yul\":1046:1106   */\n  tag_26\n    /* \"#utility.yul\":1102:1105   */\n  dup5\n    /* \"#utility.yul\":1093:1099   */\n  dup3\n    /* \"#utility.yul\":1082:1091   */\n  dup6\n    /* \"#utility.yul\":1078:1100   */\n  add\n    /* \"#utility.yul\":1046:1106   */\n  tag_24\n  jump\t// in\ntag_26:\n    /* \"#utility.yul\":1039:1043   */\n  0x40\n    /* \"#utility.yul\":1032:1037   */\n  dup4\n    /* \"#utility.yul\":1028:1044   */\n  add\n    /* \"#utility.yul\":1021:1107   */\n  mstore\n    /* \"#utility.yul\":951:1118   */\n  pop\n    /* \"#utility.yul\":334:1125   */\n  swap3\n  swap2\n  pop\n  pop\n  jump\t// out\n    /* \"#utility.yul\":1131:1274   */\ntag_24:\n    /* \"#utility.yul\":1188:1193   */\n  0x00\n    /* \"#utility.yul\":1219:1225   */\n  dup2\n    /* \"#utility.yul\":1213:1226   */\n  mload\n    /* \"#utility.yul\":1204:1226   */\n  swap1\n  pop\n    /* \"#utility.yul\":1235:1268   */\n  tag_28\n    /* \"#utility.yul\":1262:1267   */\n  dup2\n    /* \"#utility.yul\":1235:1268   */\n  tag_29\n  jump\t// in\ntag_28:\n    /* \"#utility.yul\":1131:1274   */\n  swap3\n  swap2\n  pop\n  pop\n  jump\t// out\n    /* \"#utility.yul\":1280:2309   */\ntag_3:\n    /* \"#utility.yul\":1411:1417   */\n  0x00\n    /* \"#utility.yul\":1419:1425   */\n  dup1\n    /* \"#utility.yul\":1427:1433   */\n  0x00\n    /* \"#utility.yul\":1435:1441   */\n  dup1\n    /* \"#utility.yul\":1443:1449   */\n  0x00\n    /* \"#utility.yul\":1492:1495   */\n  0xe0\n    /* \"#utility.yul\":1480:1489   */\n  dup7\n    /* \"#utility.yul\":1471:1478   */\n  dup9\n    /* \"#utility.yul\":1467:1490   */\n  sub\n    /* \"#utility.yul\":1463:1496   */\n  slt\n    /* \"#utility.yul\":1460:1580   */\n  iszero\n  tag_31\n  jumpi\n    /* \"#utility.yul\":1499:1578   */\n  tag_32\n  tag_33\n  jump\t// in\ntag_32:\n    /* \"#utility.yul\":1460:1580   */\ntag_31:\n    /* \"#utility.yul\":1619:1620   */\n  0x00\n    /* \"#utility.yul\":1644:1708   */\n  tag_34\n    /* \"#utility.yul\":1700:1707   */\n  dup9\n    /* \"#utility.yul\":1691:1697   */\n  dup3\n    /* \"#utility.yul\":1680:1689   */\n  dup10\n    /* \"#utility.yul\":1676:1698   */\n  add\n    /* \"#utility.yul\":1644:1708   */\n  tag_8\n  jump\t// in\ntag_34:\n    /* \"#utility.yul\":1634:1708   */\n  swap6\n  pop\n    /* \"#utility.yul\":1590:1718   */\n  pop\n    /* \"#utility.yul\":1757:1759   */\n  0x20\n    /* \"#utility.yul\":1783:1872   */\n  tag_35\n    /* \"#utility.yul\":1864:1871   */\n  dup9\n    /* \"#utility.yul\":1855:1861   */\n  dup3\n    /* \"#utility.yul\":1844:1853   */\n  dup10\n    /* \"#utility.yul\":1840:1862   */\n  add\n    /* \"#utility.yul\":1783:1872   */\n  tag_16\n  jump\t// in\ntag_35:\n    /* \"#utility.yul\":1773:1872   */\n  swap5\n  pop\n    /* \"#utility.yul\":1728:1882   */\n  pop\n    /* \"#utility.yul\":1921:1924   */\n  0x80\n    /* \"#utility.yul\":1948:2012   */\n  tag_36\n    /* \"#utility.yul\":2004:2011   */\n  dup9\n    /* \"#utility.yul\":1995:2001   */\n  dup3\n    /* \"#utility.yul\":1984:1993   */\n  dup10\n    /* \"#utility.yul\":1980:2002   */\n  add\n    /* \"#utility.yul\":1948:2012   */\n  tag_24\n  jump\t// in\ntag_36:\n    /* \"#utility.yul\":1938:2012   */\n  swap4\n  pop\n    /* \"#utility.yul\":1892:2022   */\n  pop\n    /* \"#utility.yul\":2061:2064   */\n  0xa0\n    /* \"#utility.yul\":2088:2152   */\n  tag_37\n    /* \"#utility.yul\":2144:2151   */\n  dup9\n    /* \"#utility.yul\":2135:2141   */\n  dup3\n    /* \"#utility.yul\":2124:2133   */\n  dup10\n    /* \"#utility.yul\":2120:2142   */\n  add\n    /* \"#utility.yul\":2088:2152   */\n  tag_24\n  jump\t// in\ntag_37:\n    /* \"#utility.yul\":2078:2152   */\n  swap3\n  pop\n    /* \"#utility.yul\":2032:2162   */\n  pop\n    /* \"#utility.yul\":2201:2204   */\n  0xc0\n    /* \"#utility.yul\":2228:2292   */\n  tag_38\n    /* \"#utility.yul\":2284:2291   */\n  dup9\n    /* \"#utility.yul\":2275:2281   */\n  dup3\n    /* \"#utility.yul\":2264:2273   */\n  dup10\n    /* \"#utility.yul\":2260:2282   */\n  add\n    /* \"#utility.yul\":2228:2292   */\n  tag_24\n  jump\t// in\ntag_38:\n    /* \"#utility.yul\":2218:2292   */\n  swap2\n  pop\n    /* \"#utility.yul\":2172:2302   */\n  pop\n    /* \"#utility.yul\":1280:2309   */\n  swap3\n  swap6\n  pop\n  swap3\n  swap6\n  swap1\n  swap4\n  pop\n  jump\t// out\n    /* \"#utility.yul\":2315:2444   */\ntag_22:\n    /* \"#utility.yul\":2349:2355   */\n  0x00\n    /* \"#utility.yul\":2376:2396   */\n  tag_40\n  tag_41\n  jump\t// in\ntag_40:\n    /* \"#utility.yul\":2366:2396   */\n  swap1\n  pop\n    /* \"#utility.yul\":2405:2438   */\n  tag_42\n    /* \"#utility.yul\":2433:2437   */\n  dup3\n    /* \"#utility.yul\":2425:2431   */\n  dup3\n    /* \"#utility.yul\":2405:2438   */\n  tag_43\n  jump\t// in\ntag_42:\n    /* \"#utility.yul\":2315:2444   */\n  swap2\n  swap1\n  pop\n  jump\t// out\n    /* \"#utility.yul\":2450:2525   */\ntag_41:\n    /* \"#utility.yul\":2483:2489   */\n  0x00\n    /* \"#utility.yul\":2516:2518   */\n  0x40\n    /* \"#utility.yul\":2510:2519   */\n  mload\n    /* \"#utility.yul\":2500:2519   */\n  swap1\n  pop\n    /* \"#utility.yul\":2450:2525   */\n  swap1\n  jump\t// out\n    /* \"#utility.yul\":2531:2627   */\ntag_45:\n    /* \"#utility.yul\":2568:2575   */\n  0x00\n    /* \"#utility.yul\":2597:2621   */\n  tag_47\n    /* \"#utility.yul\":2615:2620   */\n  dup3\n    /* \"#utility.yul\":2597:2621   */\n  tag_48\n  jump\t// in\ntag_47:\n    /* \"#utility.yul\":2586:2621   */\n  swap1\n  pop\n    /* \"#utility.yul\":2531:2627   */\n  swap2\n  swap1\n  pop\n  jump\t// out\n    /* \"#utility.yul\":2633:2710   */\ntag_49:\n    /* \"#utility.yul\":2670:2677   */\n  0x00\n    /* \"#utility.yul\":2699:2704   */\n  dup2\n    /* \"#utility.yul\":2688:2704   */\n  swap1\n  pop\n    /* \"#utility.yul\":2633:2710   */\n  swap2\n  swap1\n  pop\n  jump\t// out\n    /* \"#utility.yul\":2716:2842   */\ntag_48:\n    /* \"#utility.yul\":2753:2760   */\n  0x00\n    /* \"#utility.yul\":2793:2835   */\n  0xffffffffffffffffffffffffffffffffffffffff\n    /* \"#utility.yul\":2786:2791   */\n  dup3\n    /* \"#utility.yul\":2782:2836   */\n  and\n    /* \"#utility.yul\":2771:2836   */\n  swap1\n  pop\n    /* \"#utility.yul\":2716:2842   */\n  swap2\n  swap1\n  pop\n  jump\t// out\n    /* \"#utility.yul\":2848:2925   */\ntag_52:\n    /* \"#utility.yul\":2885:2892   */\n  0x00\n    /* \"#utility.yul\":2914:2919   */\n  dup2\n    /* \"#utility.yul\":2903:2919   */\n  swap1\n  pop\n    /* \"#utility.yul\":2848:2925   */\n  swap2\n  swap1\n  pop\n  jump\t// out\n    /* \"#utility.yul\":2931:3212   */\ntag_43:\n    /* \"#utility.yul\":3014:3041   */\n  tag_55\n    /* \"#utility.yul\":3036:3040   */\n  dup3\n    /* \"#utility.yul\":3014:3041   */\n  tag_56\n  jump\t// in\ntag_55:\n    /* \"#utility.yul\":3006:3012   */\n  dup2\n    /* \"#utility.yul\":3002:3042   */\n  add\n    /* \"#utility.yul\":3144:3150   */\n  dup2\n    /* \"#utility.yul\":3132:3142   */\n  dup2\n    /* \"#utility.yul\":3129:3151   */\n  lt\n    /* \"#utility.yul\":3108:3126   */\n  0xffffffffffffffff\n    /* \"#utility.yul\":3096:3106   */\n  dup3\n    /* \"#utility.yul\":3093:3127   */\n  gt\n    /* \"#utility.yul\":3090:3152   */\n  or\n    /* \"#utility.yul\":3087:3175   */\n  iszero\n  tag_57\n  jumpi\n    /* \"#utility.yul\":3155:3173   */\n  tag_58\n  tag_59\n  jump\t// in\ntag_58:\n    /* \"#utility.yul\":3087:3175   */\ntag_57:\n    /* \"#utility.yul\":3195:3205   */\n  dup1\n    /* \"#utility.yul\":3191:3193   */\n  0x40\n    /* \"#utility.yul\":3184:3206   */\n  mstore\n    /* \"#utility.yul\":2974:3212   */\n  pop\n    /* \"#utility.yul\":2931:3212   */\n  pop\n  pop\n  jump\t// out\n    /* \"#utility.yul\":3218:3398   */\ntag_59:\n    /* \"#utility.yul\":3266:3343   */\n  0x4e487b7100000000000000000000000000000000000000000000000000000000\n    /* \"#utility.yul\":3263:3264   */\n  0x00\n    /* \"#utility.yul\":3256:3344   */\n  mstore\n    /* \"#utility.yul\":3363:3367   */\n  0x41\n    /* \"#utility.yul\":3360:3361   */\n  0x04\n    /* \"#utility.yul\":3353:3368   */\n  mstore\n    /* \"#utility.yul\":3387:3391   */\n  0x24\n    /* \"#utility.yul\":3384:3385   */\n  0x00\n    /* \"#utility.yul\":3377:3392   */\n  revert\n    /* \"#utility.yul\":3404:3521   */\ntag_20:\n    /* \"#utility.yul\":3513:3514   */\n  0x00\n    /* \"#utility.yul\":3510:3511   */\n  dup1\n    /* \"#utility.yul\":3503:3515   */\n  revert\n    /* \"#utility.yul\":3773:3890   */\ntag_33:\n    /* \"#utility.yul\":3882:3883   */\n  0x00\n    /* \"#utility.yul\":3879:3880   */\n  dup1\n    /* \"#utility.yul\":3872:3884   */\n  revert\n    /* \"#utility.yul\":3896:3998   */\ntag_56:\n    /* \"#utility.yul\":3937:3943   */\n  0x00\n    /* \"#utility.yul\":3988:3990   */\n  0x1f\n    /* \"#utility.yul\":3984:3991   */\n  not\n    /* \"#utility.yul\":3979:3981   */\n  0x1f\n    /* \"#utility.yul\":3972:3977   */\n  dup4\n    /* \"#utility.yul\":3968:3982   */\n  add\n    /* \"#utility.yul\":3964:3992   */\n  and\n    /* \"#utility.yul\":3954:3992   */\n  swap1\n  pop\n    /* \"#utility.yul\":3896:3998   */\n  swap2\n  swap1\n  pop\n  jump\t// out\n    /* \"#utility.yul\":4004:4126   */\ntag_11:\n    /* \"#utility.yul\":4077:4101   */\n  tag_69\n    /* \"#utility.yul\":4095:4100   */\n  dup2\n    /* \"#utility.yul\":4077:4101   */\n  tag_45\n  jump\t// in\ntag_69:\n    /* \"#utility.yul\":4070:4075   */\n  dup2\n    /* \"#utility.yul\":4067:4102   */\n  eq\n    /* \"#utility.yul\":4057:4120   */\n  tag_70\n  jumpi\n    /* \"#utility.yul\":4116:4117   */\n  0x00\n    /* \"#utility.yul\":4113:4114   */\n  dup1\n    /* \"#utility.yul\":4106:4118   */\n  revert\n    /* \"#utility.yul\":4057:4120   */\ntag_70:\n    /* \"#utility.yul\":4004:4126   */\n  pop\n  jump\t// out\n    /* \"#utility.yul\":4132:4254   */\ntag_15:\n    /* \"#utility.yul\":4205:4229   */\n  tag_72\n    /* \"#utility.yul\":4223:4228   */\n  dup2\n    /* \"#utility.yul\":4205:4229   */\n  tag_49\n  jump\t// in\ntag_72:\n    /* \"#utility.yul\":4198:4203   */\n  dup2\n    /* \"#utility.yul\":4195:4230   */\n  eq\n    /* \"#utility.yul\":4185:4248   */\n  tag_73\n  jumpi\n    /* \"#utility.yul\":4244:4245   */\n  0x00\n    /* \"#utility.yul\":4241:4242   */\n  dup1\n    /* \"#utility.yul\":4234:4246   */\n  revert\n    /* \"#utility.yul\":4185:4248   */\ntag_73:\n    /* \"#utility.yul\":4132:4254   */\n  pop\n  jump\t// out\n    /* \"#utility.yul\":4260:4382   */\ntag_29:\n    /* \"#utility.yul\":4333:4357   */\n  tag_75\n    /* \"#utility.yul\":4351:4356   */\n  dup2\n    /* \"#utility.yul\":4333:4357   */\n  tag_52\n  jump\t// in\ntag_75:\n    /* \"#utility.yul\":4326:4331   */\n  dup2\n    /* \"#utility.yul\":4323:4358   */\n  eq\n    /* \"#utility.yul\":4313:4376   */\n  tag_76\n  jumpi\n    /* \"#utility.yul\":4372:4373   */\n  0x00\n    /* \"#utility.yul\":4369:4370   */\n  dup1\n    /* \"#utility.yul\":4362:4374   */\n  revert\n    /* \"#utility.yul\":4313:4376   */\ntag_76:\n    /* \"#utility.yul\":4260:4382   */\n  pop\n  jump\t// out\n    /* \"contracts_new/TaskInfo.sol\":248:3266  contract TaskInfo is ITaskInfo {\r... */\ntag_6:\n  dataSize(sub_0)\n  dup1\n  dataOffset(sub_0)\n  0x00\n  codecopy\n  0x00\n  return\nstop\n\nsub_0: assembly {\n        /* \"contracts_new/TaskInfo.sol\":248:3266  contract TaskInfo is ITaskInfo {\r... */\n      mstore(0x40, 0x80)\n      callvalue\n      dup1\n      iszero\n      tag_1\n      jumpi\n      0x00\n      dup1\n      revert\n    tag_1:\n      pop\n      jumpi(tag_2, lt(calldatasize, 0x04))\n      shr(0xe0, calldataload(0x00))\n      dup1\n      0x73b0eb75\n      gt\n      tag_15\n      jumpi\n      dup1\n      0x73b0eb75\n      eq\n      tag_9\n      jumpi\n      dup1\n      0x91051e80\n      eq\n      tag_10\n      jumpi\n      dup1\n      0x98d5fdca\n      eq\n      tag_11\n      jumpi\n      dup1\n      0xa5bfa746\n      eq\n      tag_12\n      jumpi\n      dup1\n      0xdb48ce0b\n      eq\n      tag_13\n      jumpi\n      dup1\n      0xffea0ef4\n      eq\n      tag_14\n      jumpi\n      jump(tag_2)\n    tag_15:\n      dup1\n      0x1c3c0ea8\n      eq\n      tag_3\n      jumpi\n      dup1\n      0x3d5e0515\n      eq\n      tag_4\n      jumpi\n      dup1\n      0x50592adf\n      eq\n      tag_5\n      jumpi\n      dup1\n      0x64a40642\n      eq\n      tag_6\n      jumpi\n      dup1\n      0x650d993b\n      eq\n      tag_7\n      jumpi\n      dup1\n      0x6c1032af\n      eq\n      tag_8\n      jumpi\n    tag_2:\n      0x00\n      dup1\n      revert\n        /* \"contracts_new/TaskInfo.sol\":2549:2799  function setExecutor(address executor_) external override {\r... */\n    tag_3:\n      tag_16\n      0x04\n      dup1\n      calldatasize\n      sub\n      dup2\n      add\n      swap1\n      tag_17\n      swap2\n      swap1\n      tag_18\n      jump\t// in\n    tag_17:\n      tag_19\n      jump\t// in\n    tag_16:\n      stop\n        /* \"contracts_new/TaskInfo.sol\":2807:2958  function addSolution(utils.SolutionData memory solution_data) external override {\r... */\n    tag_4:\n      tag_20\n      0x04\n      dup1\n      calldatasize\n      sub\n      dup2\n      add\n      swap1\n      tag_21\n      swap2\n      swap1\n      tag_22\n      jump\t// in\n    tag_21:\n      tag_23\n      jump\t// in\n    tag_20:\n      stop\n        /* \"contracts_new/TaskInfo.sol\":1987:2221  function getSolution() public view override returns (utils.SolutionData[] memory) {\r... */\n    tag_5:\n      tag_24\n      tag_25\n      jump\t// in\n    tag_24:\n      mload(0x40)\n      tag_26\n      swap2\n      swap1\n      tag_27\n      jump\t// in\n    tag_26:\n      mload(0x40)\n      dup1\n      swap2\n      sub\n      swap1\n      return\n        /* \"contracts_new/TaskInfo.sol\":1640:1750  function getSecurityDeposit() public view override returns (uint256) {\r... */\n    tag_6:\n      tag_28\n      tag_29\n      jump\t// in\n    tag_28:\n      mload(0x40)\n      tag_30\n      swap2\n      swap1\n      tag_31\n      jump\t// in\n    tag_30:\n      mload(0x40)\n      dup1\n      swap2\n      sub\n      swap1\n      return\n        /* \"contracts_new/TaskInfo.sol\":1201:1297  function getCustomer() public view override returns (address) {\r... */\n    tag_7:\n      tag_32\n      tag_33\n      jump\t// in\n    tag_32:\n      mload(0x40)\n      tag_34\n      swap2\n      swap1\n      tag_35\n      jump\t// in\n    tag_34:\n      mload(0x40)\n      dup1\n      swap2\n      sub\n      swap1\n      return\n        /* \"contracts_new/TaskInfo.sol\":1758:1979  function getExecutor() public view override returns (address) {\r... */\n    tag_8:\n      tag_36\n      tag_37\n      jump\t// in\n    tag_36:\n      mload(0x40)\n      tag_38\n      swap2\n      swap1\n      tag_35\n      jump\t// in\n    tag_38:\n      mload(0x40)\n      dup1\n      swap2\n      sub\n      swap1\n      return\n        /* \"contracts_new/TaskInfo.sol\":2229:2384  function setNewMasterSmartContract(address new_master) external override {\r... */\n    tag_9:\n      tag_39\n      0x04\n      dup1\n      calldatasize\n      sub\n      dup2\n      add\n      swap1\n      tag_40\n      swap2\n      swap1\n      tag_18\n      jump\t// in\n    tag_40:\n      tag_41\n      jump\t// in\n    tag_39:\n      stop\n        /* \"contracts_new/TaskInfo.sol\":1423:1534  function getTaskExecutionTime() public view override returns (uint) {\r... */\n    tag_10:\n      tag_42\n      tag_43\n      jump\t// in\n    tag_42:\n      mload(0x40)\n      tag_44\n      swap2\n      swap1\n      tag_31\n      jump\t// in\n    tag_44:\n      mload(0x40)\n      dup1\n      swap2\n      sub\n      swap1\n      return\n        /* \"contracts_new/TaskInfo.sol\":1542:1632  function getPrice() public view override returns (uint256) {\r... */\n    tag_11:\n      tag_45\n      tag_46\n      jump\t// in\n    tag_45:\n      mload(0x40)\n      tag_47\n      swap2\n      swap1\n      tag_31\n      jump\t// in\n    tag_47:\n      mload(0x40)\n      dup1\n      swap2\n      sub\n      swap1\n      return\n        /* \"contracts_new/TaskInfo.sol\":2966:3075  function grantPublicAccess() external override {\r... */\n    tag_12:\n      tag_48\n      tag_49\n      jump\t// in\n    tag_48:\n      stop\n        /* \"contracts_new/TaskInfo.sol\":1305:1415  function getTaskData() public view override returns (utils.TaskData memory) {\r... */\n    tag_13:\n      tag_50\n      tag_51\n      jump\t// in\n    tag_50:\n      mload(0x40)\n      tag_52\n      swap2\n      swap1\n      tag_53\n      jump\t// in\n    tag_52:\n      mload(0x40)\n      dup1\n      swap2\n      sub\n      swap1\n      return\n        /* \"contracts_new/TaskInfo.sol\":2392:2541  function addTaskExecutionTime(uint additional_time) external override {\r... */\n    tag_14:\n      tag_54\n      0x04\n      dup1\n      calldatasize\n      sub\n      dup2\n      add\n      swap1\n      tag_55\n      swap2\n      swap1\n      tag_56\n      jump\t// in\n    tag_55:\n      tag_57\n      jump\t// in\n    tag_54:\n      stop\n        /* \"contracts_new/TaskInfo.sol\":2549:2799  function setExecutor(address executor_) external override {\r... */\n    tag_19:\n        /* \"contracts_new/TaskInfo.sol\":2618:2631  checkSender() */\n      tag_59\n        /* \"contracts_new/TaskInfo.sol\":2618:2629  checkSender */\n      tag_60\n        /* \"contracts_new/TaskInfo.sol\":2618:2631  checkSender() */\n      jump\t// in\n    tag_59:\n        /* \"contracts_new/TaskInfo.sol\":2666:2669  0x0 */\n      0x00\n        /* \"contracts_new/TaskInfo.sol\":2646:2670  executor != address(0x0) */\n      0xffffffffffffffffffffffffffffffffffffffff\n      and\n        /* \"contracts_new/TaskInfo.sol\":2646:2654  executor */\n      0x08\n      0x00\n      swap1\n      sload\n      swap1\n      0x0100\n      exp\n      swap1\n      div\n      0xffffffffffffffffffffffffffffffffffffffff\n      and\n        /* \"contracts_new/TaskInfo.sol\":2646:2670  executor != address(0x0) */\n      0xffffffffffffffffffffffffffffffffffffffff\n      and\n      eq\n        /* \"contracts_new/TaskInfo.sol\":2642:2761  if (executor != address(0x0)) {\r... */\n      tag_61\n      jumpi\n        /* \"contracts_new/TaskInfo.sol\":2736:2749  revert(\"0x3\") */\n      mload(0x40)\n      0x08c379a000000000000000000000000000000000000000000000000000000000\n      dup2\n      mstore\n      0x04\n      add\n      tag_62\n      swap1\n      tag_63\n      jump\t// in\n    tag_62:\n      mload(0x40)\n      dup1\n      swap2\n      sub\n      swap1\n      revert\n        /* \"contracts_new/TaskInfo.sol\":2642:2761  if (executor != address(0x0)) {\r... */\n    tag_61:\n        /* \"contracts_new/TaskInfo.sol\":2782:2791  executor_ */\n      dup1\n        /* \"contracts_new/TaskInfo.sol\":2771:2779  executor */\n      0x08\n      0x00\n        /* \"contracts_new/TaskInfo.sol\":2771:2791  executor = executor_ */\n      0x0100\n      exp\n      dup2\n      sload\n      dup2\n      0xffffffffffffffffffffffffffffffffffffffff\n      mul\n      not\n      and\n      swap1\n      dup4\n      0xffffffffffffffffffffffffffffffffffffffff\n      and\n      mul\n      or\n      swap1\n      sstore\n      pop\n        /* \"contracts_new/TaskInfo.sol\":2549:2799  function setExecutor(address executor_) external override {\r... */\n      pop\n      jump\t// out\n        /* \"contracts_new/TaskInfo.sol\":2807:2958  function addSolution(utils.SolutionData memory solution_data) external override {\r... */\n    tag_23:\n        /* \"contracts_new/TaskInfo.sol\":2898:2911  checkSender() */\n      tag_65\n        /* \"contracts_new/TaskInfo.sol\":2898:2909  checkSender */\n      tag_60\n        /* \"contracts_new/TaskInfo.sol\":2898:2911  checkSender() */\n      jump\t// in\n    tag_65:\n        /* \"contracts_new/TaskInfo.sol\":2922:2930  solution */\n      0x09\n        /* \"contracts_new/TaskInfo.sol\":2936:2949  solution_data */\n      dup2\n        /* \"contracts_new/TaskInfo.sol\":2922:2950  solution.push(solution_data) */\n      swap1\n      dup1\n      0x01\n      dup2\n      sload\n      add\n      dup1\n      dup3\n      sstore\n      dup1\n      swap2\n      pop\n      pop\n      0x01\n      swap1\n      sub\n      swap1\n      0x00\n      mstore\n      keccak256(0x00, 0x20)\n      swap1\n      0x03\n      mul\n      add\n      0x00\n      swap1\n      swap2\n      swap1\n      swap2\n      swap1\n      swap2\n      pop\n      0x00\n      dup3\n      add\n      mload\n      dup2\n      0x00\n      add\n      sstore\n      0x20\n      dup3\n      add\n      mload\n      dup2\n      0x01\n      add\n      sstore\n      0x40\n      dup3\n      add\n      mload\n      dup2\n      0x02\n      add\n      sstore\n      pop\n      pop\n        /* \"contracts_new/TaskInfo.sol\":2807:2958  function addSolution(utils.SolutionData memory solution_data) external override {\r... */\n      pop\n      jump\t// out\n        /* \"contracts_new/TaskInfo.sol\":1987:2221  function getSolution() public view override returns (utils.SolutionData[] memory) {\r... */\n    tag_25:\n        /* \"contracts_new/TaskInfo.sol\":2040:2067  utils.SolutionData[] memory */\n      0x60\n        /* \"contracts_new/TaskInfo.sol\":2101:2109  customer */\n      0x01\n      0x00\n      swap1\n      sload\n      swap1\n      0x0100\n      exp\n      swap1\n      div\n      0xffffffffffffffffffffffffffffffffffffffff\n      and\n        /* \"contracts_new/TaskInfo.sol\":2088:2109  tx.origin == customer */\n      0xffffffffffffffffffffffffffffffffffffffff\n      and\n        /* \"contracts_new/TaskInfo.sol\":2088:2097  tx.origin */\n      origin\n        /* \"contracts_new/TaskInfo.sol\":2088:2109  tx.origin == customer */\n      0xffffffffffffffffffffffffffffffffffffffff\n      and\n      eq\n        /* \"contracts_new/TaskInfo.sol\":2088:2134  tx.origin == customer || tx.origin == executor */\n      dup1\n      tag_68\n      jumpi\n      pop\n        /* \"contracts_new/TaskInfo.sol\":2126:2134  executor */\n      0x08\n      0x00\n      swap1\n      sload\n      swap1\n      0x0100\n      exp\n      swap1\n      div\n      0xffffffffffffffffffffffffffffffffffffffff\n      and\n        /* \"contracts_new/TaskInfo.sol\":2113:2134  tx.origin == executor */\n      0xffffffffffffffffffffffffffffffffffffffff\n      and\n        /* \"contracts_new/TaskInfo.sol\":2113:2122  tx.origin */\n      origin\n        /* \"contracts_new/TaskInfo.sol\":2113:2134  tx.origin == executor */\n      0xffffffffffffffffffffffffffffffffffffffff\n      and\n      eq\n        /* \"contracts_new/TaskInfo.sol\":2088:2134  tx.origin == customer || tx.origin == executor */\n    tag_68:\n        /* \"contracts_new/TaskInfo.sol\":2080:2142  require(tx.origin == customer || tx.origin == executor, \"0x2\") */\n      tag_69\n      jumpi\n      mload(0x40)\n      0x08c379a000000000000000000000000000000000000000000000000000000000\n      dup2\n      mstore\n      0x04\n      add\n      tag_70\n      swap1\n      tag_71\n      jump\t// in\n    tag_70:\n      mload(0x40)\n      dup1\n      swap2\n      sub\n      swap1\n      revert\n    tag_69:\n        /* \"contracts_new/TaskInfo.sol\":2205:2213  solution */\n      0x09\n        /* \"contracts_new/TaskInfo.sol\":2198:2213  return solution */\n      dup1\n      sload\n      dup1\n      0x20\n      mul\n      0x20\n      add\n      mload(0x40)\n      swap1\n      dup2\n      add\n      0x40\n      mstore\n      dup1\n      swap3\n      swap2\n      swap1\n      dup2\n      dup2\n      mstore\n      0x20\n      add\n      0x00\n      swap1\n    tag_72:\n      dup3\n      dup3\n      lt\n      iszero\n      tag_73\n      jumpi\n      dup4\n      dup3\n      swap1\n      0x00\n      mstore\n      keccak256(0x00, 0x20)\n      swap1\n      0x03\n      mul\n      add\n      mload(0x40)\n      dup1\n      0x60\n      add\n      0x40\n      mstore\n      swap1\n      dup2\n      0x00\n      dup3\n      add\n      sload\n      dup2\n      mstore\n      0x20\n      add\n      0x01\n      dup3\n      add\n      sload\n      dup2\n      mstore\n      0x20\n      add\n      0x02\n      dup3\n      add\n      sload\n      dup2\n      mstore\n      pop\n      pop\n      dup2\n      mstore\n      0x20\n      add\n      swap1\n      0x01\n      add\n      swap1\n      jump(tag_72)\n    tag_73:\n      pop\n      pop\n      pop\n      pop\n      swap1\n      pop\n        /* \"contracts_new/TaskInfo.sol\":1987:2221  function getSolution() public view override returns (utils.SolutionData[] memory) {\r... */\n      swap1\n      jump\t// out\n        /* \"contracts_new/TaskInfo.sol\":1640:1750  function getSecurityDeposit() public view override returns (uint256) {\r... */\n    tag_29:\n        /* \"contracts_new/TaskInfo.sol\":1700:1707  uint256 */\n      0x00\n        /* \"contracts_new/TaskInfo.sol\":1727:1742  securityDeposit */\n      sload(0x07)\n        /* \"contracts_new/TaskInfo.sol\":1720:1742  return securityDeposit */\n      swap1\n      pop\n        /* \"contracts_new/TaskInfo.sol\":1640:1750  function getSecurityDeposit() public view override returns (uint256) {\r... */\n      swap1\n      jump\t// out\n        /* \"contracts_new/TaskInfo.sol\":1201:1297  function getCustomer() public view override returns (address) {\r... */\n    tag_33:\n        /* \"contracts_new/TaskInfo.sol\":1254:1261  address */\n      0x00\n        /* \"contracts_new/TaskInfo.sol\":1281:1289  customer */\n      0x01\n      0x00\n      swap1\n      sload\n      swap1\n      0x0100\n      exp\n      swap1\n      div\n      0xffffffffffffffffffffffffffffffffffffffff\n      and\n        /* \"contracts_new/TaskInfo.sol\":1274:1289  return customer */\n      swap1\n      pop\n        /* \"contracts_new/TaskInfo.sol\":1201:1297  function getCustomer() public view override returns (address) {\r... */\n      swap1\n      jump\t// out\n        /* \"contracts_new/TaskInfo.sol\":1758:1979  function getExecutor() public view override returns (address) {\r... */\n    tag_37:\n        /* \"contracts_new/TaskInfo.sol\":1811:1818  address */\n      0x00\n        /* \"contracts_new/TaskInfo.sol\":1855:1858  0x0 */\n      dup1\n        /* \"contracts_new/TaskInfo.sol\":1835:1859  executor == address(0x0) */\n      0xffffffffffffffffffffffffffffffffffffffff\n      and\n        /* \"contracts_new/TaskInfo.sol\":1835:1843  executor */\n      0x08\n      0x00\n      swap1\n      sload\n      swap1\n      0x0100\n      exp\n      swap1\n      div\n      0xffffffffffffffffffffffffffffffffffffffff\n      and\n        /* \"contracts_new/TaskInfo.sol\":1835:1859  executor == address(0x0) */\n      0xffffffffffffffffffffffffffffffffffffffff\n      and\n      eq\n        /* \"contracts_new/TaskInfo.sol\":1831:1946  if (executor == address(0x0)) {\r... */\n      iszero\n      tag_78\n      jumpi\n        /* \"contracts_new/TaskInfo.sol\":1921:1934  revert(\"0x1\") */\n      mload(0x40)\n      0x08c379a000000000000000000000000000000000000000000000000000000000\n      dup2\n      mstore\n      0x04\n      add\n      tag_79\n      swap1\n      tag_80\n      jump\t// in\n    tag_79:\n      mload(0x40)\n      dup1\n      swap2\n      sub\n      swap1\n      revert\n        /* \"contracts_new/TaskInfo.sol\":1831:1946  if (executor == address(0x0)) {\r... */\n    tag_78:\n        /* \"contracts_new/TaskInfo.sol\":1963:1971  executor */\n      0x08\n      0x00\n      swap1\n      sload\n      swap1\n      0x0100\n      exp\n      swap1\n      div\n      0xffffffffffffffffffffffffffffffffffffffff\n      and\n        /* \"contracts_new/TaskInfo.sol\":1956:1971  return executor */\n      swap1\n      pop\n        /* \"contracts_new/TaskInfo.sol\":1758:1979  function getExecutor() public view override returns (address) {\r... */\n      swap1\n      jump\t// out\n        /* \"contracts_new/TaskInfo.sol\":2229:2384  function setNewMasterSmartContract(address new_master) external override {\r... */\n    tag_41:\n        /* \"contracts_new/TaskInfo.sol\":2313:2326  checkSender() */\n      tag_82\n        /* \"contracts_new/TaskInfo.sol\":2313:2324  checkSender */\n      tag_60\n        /* \"contracts_new/TaskInfo.sol\":2313:2326  checkSender() */\n      jump\t// in\n    tag_82:\n        /* \"contracts_new/TaskInfo.sol\":2366:2376  new_master */\n      dup1\n        /* \"contracts_new/TaskInfo.sol\":2337:2363  masterSmartContractAddress */\n      0x00\n      dup1\n        /* \"contracts_new/TaskInfo.sol\":2337:2376  masterSmartContractAddress = new_master */\n      0x0100\n      exp\n      dup2\n      sload\n      dup2\n      0xffffffffffffffffffffffffffffffffffffffff\n      mul\n      not\n      and\n      swap1\n      dup4\n      0xffffffffffffffffffffffffffffffffffffffff\n      and\n      mul\n      or\n      swap1\n      sstore\n      pop\n        /* \"contracts_new/TaskInfo.sol\":2229:2384  function setNewMasterSmartContract(address new_master) external override {\r... */\n      pop\n      jump\t// out\n        /* \"contracts_new/TaskInfo.sol\":1423:1534  function getTaskExecutionTime() public view override returns (uint) {\r... */\n    tag_43:\n        /* \"contracts_new/TaskInfo.sol\":1485:1489  uint */\n      0x00\n        /* \"contracts_new/TaskInfo.sol\":1509:1526  taskExecutionTime */\n      sload(0x05)\n        /* \"contracts_new/TaskInfo.sol\":1502:1526  return taskExecutionTime */\n      swap1\n      pop\n        /* \"contracts_new/TaskInfo.sol\":1423:1534  function getTaskExecutionTime() public view override returns (uint) {\r... */\n      swap1\n      jump\t// out\n        /* \"contracts_new/TaskInfo.sol\":1542:1632  function getPrice() public view override returns (uint256) {\r... */\n    tag_46:\n        /* \"contracts_new/TaskInfo.sol\":1592:1599  uint256 */\n      0x00\n        /* \"contracts_new/TaskInfo.sol\":1619:1624  price */\n      sload(0x06)\n        /* \"contracts_new/TaskInfo.sol\":1612:1624  return price */\n      swap1\n      pop\n        /* \"contracts_new/TaskInfo.sol\":1542:1632  function getPrice() public view override returns (uint256) {\r... */\n      swap1\n      jump\t// out\n        /* \"contracts_new/TaskInfo.sol\":2966:3075  function grantPublicAccess() external override {\r... */\n    tag_49:\n        /* \"contracts_new/TaskInfo.sol\":3024:3037  checkSender() */\n      tag_86\n        /* \"contracts_new/TaskInfo.sol\":3024:3035  checkSender */\n      tag_60\n        /* \"contracts_new/TaskInfo.sol\":3024:3037  checkSender() */\n      jump\t// in\n    tag_86:\n        /* \"contracts_new/TaskInfo.sol\":3063:3067  true */\n      0x01\n        /* \"contracts_new/TaskInfo.sol\":3048:3060  publicAccess */\n      0x0a\n      0x00\n        /* \"contracts_new/TaskInfo.sol\":3048:3067  publicAccess = true */\n      0x0100\n      exp\n      dup2\n      sload\n      dup2\n      0xff\n      mul\n      not\n      and\n      swap1\n      dup4\n      iszero\n      iszero\n      mul\n      or\n      swap1\n      sstore\n      pop\n        /* \"contracts_new/TaskInfo.sol\":2966:3075  function grantPublicAccess() external override {\r... */\n      jump\t// out\n        /* \"contracts_new/TaskInfo.sol\":1305:1415  function getTaskData() public view override returns (utils.TaskData memory) {\r... */\n    tag_51:\n        /* \"contracts_new/TaskInfo.sol\":1358:1379  utils.TaskData memory */\n      tag_87\n      tag_88\n      jump\t// in\n    tag_87:\n        /* \"contracts_new/TaskInfo.sol\":1399:1407  taskData */\n      0x02\n        /* \"contracts_new/TaskInfo.sol\":1392:1407  return taskData */\n      mload(0x40)\n      dup1\n      0x60\n      add\n      0x40\n      mstore\n      swap1\n      dup2\n      0x00\n      dup3\n      add\n      sload\n      dup2\n      mstore\n      0x20\n      add\n      0x01\n      dup3\n      add\n      sload\n      dup2\n      mstore\n      0x20\n      add\n      0x02\n      dup3\n      add\n      sload\n      dup2\n      mstore\n      pop\n      pop\n      swap1\n      pop\n        /* \"contracts_new/TaskInfo.sol\":1305:1415  function getTaskData() public view override returns (utils.TaskData memory) {\r... */\n      swap1\n      jump\t// out\n        /* \"contracts_new/TaskInfo.sol\":2392:2541  function addTaskExecutionTime(uint additional_time) external override {\r... */\n    tag_57:\n        /* \"contracts_new/TaskInfo.sol\":2473:2486  checkSender() */\n      tag_91\n        /* \"contracts_new/TaskInfo.sol\":2473:2484  checkSender */\n      tag_60\n        /* \"contracts_new/TaskInfo.sol\":2473:2486  checkSender() */\n      jump\t// in\n    tag_91:\n        /* \"contracts_new/TaskInfo.sol\":2518:2533  additional_time */\n      dup1\n        /* \"contracts_new/TaskInfo.sol\":2497:2514  taskExecutionTime */\n      0x05\n      0x00\n        /* \"contracts_new/TaskInfo.sol\":2497:2533  taskExecutionTime += additional_time */\n      dup3\n      dup3\n      sload\n      tag_92\n      swap2\n      swap1\n      tag_93\n      jump\t// in\n    tag_92:\n      swap3\n      pop\n      pop\n      dup2\n      swap1\n      sstore\n      pop\n        /* \"contracts_new/TaskInfo.sol\":2392:2541  function addTaskExecutionTime(uint additional_time) external override {\r... */\n      pop\n      jump\t// out\n        /* \"contracts_new/TaskInfo.sol\":3083:3263  function checkSender() private view {\r... */\n    tag_60:\n        /* \"contracts_new/TaskInfo.sol\":3152:3178  masterSmartContractAddress */\n      0x00\n      dup1\n      sload\n      swap1\n      0x0100\n      exp\n      swap1\n      div\n      0xffffffffffffffffffffffffffffffffffffffff\n      and\n        /* \"contracts_new/TaskInfo.sol\":3138:3178  msg.sender == masterSmartContractAddress */\n      0xffffffffffffffffffffffffffffffffffffffff\n      and\n        /* \"contracts_new/TaskInfo.sol\":3138:3148  msg.sender */\n      caller\n        /* \"contracts_new/TaskInfo.sol\":3138:3178  msg.sender == masterSmartContractAddress */\n      0xffffffffffffffffffffffffffffffffffffffff\n      and\n      eq\n        /* \"contracts_new/TaskInfo.sol\":3138:3194  msg.sender == masterSmartContractAddress || publicAccess */\n      dup1\n      tag_95\n      jumpi\n      pop\n        /* \"contracts_new/TaskInfo.sol\":3182:3194  publicAccess */\n      0x0a\n      0x00\n      swap1\n      sload\n      swap1\n      0x0100\n      exp\n      swap1\n      div\n      0xff\n      and\n        /* \"contracts_new/TaskInfo.sol\":3138:3194  msg.sender == masterSmartContractAddress || publicAccess */\n    tag_95:\n        /* \"contracts_new/TaskInfo.sol\":3130:3202  require(msg.sender == masterSmartContractAddress || publicAccess, \"0x4\") */\n      tag_96\n      jumpi\n      mload(0x40)\n      0x08c379a000000000000000000000000000000000000000000000000000000000\n      dup2\n      mstore\n      0x04\n      add\n      tag_97\n      swap1\n      tag_98\n      jump\t// in\n    tag_97:\n      mload(0x40)\n      dup1\n      swap2\n      sub\n      swap1\n      revert\n    tag_96:\n        /* \"contracts_new/TaskInfo.sol\":3083:3263  function checkSender() private view {\r... */\n      jump\t// out\n    tag_88:\n      mload(0x40)\n      dup1\n      0x60\n      add\n      0x40\n      mstore\n      dup1\n      0x00\n      dup2\n      mstore\n      0x20\n      add\n      0x00\n      dup1\n      not\n      and\n      dup2\n      mstore\n      0x20\n      add\n      0x00\n      dup2\n      mstore\n      pop\n      swap1\n      jump\t// out\n        /* \"#utility.yul\":7:146   */\n    tag_100:\n        /* \"#utility.yul\":53:58   */\n      0x00\n        /* \"#utility.yul\":91:97   */\n      dup2\n        /* \"#utility.yul\":78:98   */\n      calldataload\n        /* \"#utility.yul\":69:98   */\n      swap1\n      pop\n        /* \"#utility.yul\":107:140   */\n      tag_102\n        /* \"#utility.yul\":134:139   */\n      dup2\n        /* \"#utility.yul\":107:140   */\n      tag_103\n      jump\t// in\n    tag_102:\n        /* \"#utility.yul\":7:146   */\n      swap3\n      swap2\n      pop\n      pop\n      jump\t// out\n        /* \"#utility.yul\":152:291   */\n    tag_104:\n        /* \"#utility.yul\":198:203   */\n      0x00\n        /* \"#utility.yul\":236:242   */\n      dup2\n        /* \"#utility.yul\":223:243   */\n      calldataload\n        /* \"#utility.yul\":214:243   */\n      swap1\n      pop\n        /* \"#utility.yul\":252:285   */\n      tag_106\n        /* \"#utility.yul\":279:284   */\n      dup2\n        /* \"#utility.yul\":252:285   */\n      tag_107\n      jump\t// in\n    tag_106:\n        /* \"#utility.yul\":152:291   */\n      swap3\n      swap2\n      pop\n      pop\n      jump\t// out\n        /* \"#utility.yul\":330:1081   */\n    tag_108:\n        /* \"#utility.yul\":408:413   */\n      0x00\n        /* \"#utility.yul\":452:456   */\n      0x60\n        /* \"#utility.yul\":440:449   */\n      dup3\n        /* \"#utility.yul\":435:438   */\n      dup5\n        /* \"#utility.yul\":431:450   */\n      sub\n        /* \"#utility.yul\":427:457   */\n      slt\n        /* \"#utility.yul\":424:541   */\n      iszero\n      tag_110\n      jumpi\n        /* \"#utility.yul\":460:539   */\n      tag_111\n      tag_112\n      jump\t// in\n    tag_111:\n        /* \"#utility.yul\":424:541   */\n    tag_110:\n        /* \"#utility.yul\":559:580   */\n      tag_113\n        /* \"#utility.yul\":575:579   */\n      0x60\n        /* \"#utility.yul\":559:580   */\n      tag_114\n      jump\t// in\n    tag_113:\n        /* \"#utility.yul\":550:580   */\n      swap1\n      pop\n        /* \"#utility.yul\":637:638   */\n      0x00\n        /* \"#utility.yul\":677:726   */\n      tag_115\n        /* \"#utility.yul\":722:725   */\n      dup5\n        /* \"#utility.yul\":713:719   */\n      dup3\n        /* \"#utility.yul\":702:711   */\n      dup6\n        /* \"#utility.yul\":698:720   */\n      add\n        /* \"#utility.yul\":677:726   */\n      tag_116\n      jump\t// in\n    tag_115:\n        /* \"#utility.yul\":670:674   */\n      0x00\n        /* \"#utility.yul\":663:668   */\n      dup4\n        /* \"#utility.yul\":659:675   */\n      add\n        /* \"#utility.yul\":652:727   */\n      mstore\n        /* \"#utility.yul\":590:738   */\n      pop\n        /* \"#utility.yul\":806:808   */\n      0x20\n        /* \"#utility.yul\":847:896   */\n      tag_117\n        /* \"#utility.yul\":892:895   */\n      dup5\n        /* \"#utility.yul\":883:889   */\n      dup3\n        /* \"#utility.yul\":872:881   */\n      dup6\n        /* \"#utility.yul\":868:890   */\n      add\n        /* \"#utility.yul\":847:896   */\n      tag_104\n      jump\t// in\n    tag_117:\n        /* \"#utility.yul\":840:844   */\n      0x20\n        /* \"#utility.yul\":833:838   */\n      dup4\n        /* \"#utility.yul\":829:845   */\n      add\n        /* \"#utility.yul\":822:897   */\n      mstore\n        /* \"#utility.yul\":748:908   */\n      pop\n        /* \"#utility.yul\":972:974   */\n      0x40\n        /* \"#utility.yul\":1013:1062   */\n      tag_118\n        /* \"#utility.yul\":1058:1061   */\n      dup5\n        /* \"#utility.yul\":1049:1055   */\n      dup3\n        /* \"#utility.yul\":1038:1047   */\n      dup6\n        /* \"#utility.yul\":1034:1056   */\n      add\n        /* \"#utility.yul\":1013:1062   */\n      tag_116\n      jump\t// in\n    tag_118:\n        /* \"#utility.yul\":1006:1010   */\n      0x40\n        /* \"#utility.yul\":999:1004   */\n      dup4\n        /* \"#utility.yul\":995:1011   */\n      add\n        /* \"#utility.yul\":988:1063   */\n      mstore\n        /* \"#utility.yul\":918:1074   */\n      pop\n        /* \"#utility.yul\":330:1081   */\n      swap3\n      swap2\n      pop\n      pop\n      jump\t// out\n        /* \"#utility.yul\":1087:1226   */\n    tag_116:\n        /* \"#utility.yul\":1133:1138   */\n      0x00\n        /* \"#utility.yul\":1171:1177   */\n      dup2\n        /* \"#utility.yul\":1158:1178   */\n      calldataload\n        /* \"#utility.yul\":1149:1178   */\n      swap1\n      pop\n        /* \"#utility.yul\":1187:1220   */\n      tag_120\n        /* \"#utility.yul\":1214:1219   */\n      dup2\n        /* \"#utility.yul\":1187:1220   */\n      tag_121\n      jump\t// in\n    tag_120:\n        /* \"#utility.yul\":1087:1226   */\n      swap3\n      swap2\n      pop\n      pop\n      jump\t// out\n        /* \"#utility.yul\":1232:1561   */\n    tag_18:\n        /* \"#utility.yul\":1291:1297   */\n      0x00\n        /* \"#utility.yul\":1340:1342   */\n      0x20\n        /* \"#utility.yul\":1328:1337   */\n      dup3\n        /* \"#utility.yul\":1319:1326   */\n      dup5\n        /* \"#utility.yul\":1315:1338   */\n      sub\n        /* \"#utility.yul\":1311:1343   */\n      slt\n        /* \"#utility.yul\":1308:1427   */\n      iszero\n      tag_123\n      jumpi\n        /* \"#utility.yul\":1346:1425   */\n      tag_124\n      tag_125\n      jump\t// in\n    tag_124:\n        /* \"#utility.yul\":1308:1427   */\n    tag_123:\n        /* \"#utility.yul\":1466:1467   */\n      0x00\n        /* \"#utility.yul\":1491:1544   */\n      tag_126\n        /* \"#utility.yul\":1536:1543   */\n      dup5\n        /* \"#utility.yul\":1527:1533   */\n      dup3\n        /* \"#utility.yul\":1516:1525   */\n      dup6\n        /* \"#utility.yul\":1512:1534   */\n      add\n        /* \"#utility.yul\":1491:1544   */\n      tag_100\n      jump\t// in\n    tag_126:\n        /* \"#utility.yul\":1481:1544   */\n      swap2\n      pop\n        /* \"#utility.yul\":1437:1554   */\n      pop\n        /* \"#utility.yul\":1232:1561   */\n      swap3\n      swap2\n      pop\n      pop\n      jump\t// out\n        /* \"#utility.yul\":1567:1954   */\n    tag_22:\n        /* \"#utility.yul\":1655:1661   */\n      0x00\n        /* \"#utility.yul\":1704:1706   */\n      0x60\n        /* \"#utility.yul\":1692:1701   */\n      dup3\n        /* \"#utility.yul\":1683:1690   */\n      dup5\n        /* \"#utility.yul\":1679:1702   */\n      sub\n        /* \"#utility.yul\":1675:1707   */\n      slt\n        /* \"#utility.yul\":1672:1791   */\n      iszero\n      tag_128\n      jumpi\n        /* \"#utility.yul\":1710:1789   */\n      tag_129\n      tag_125\n      jump\t// in\n    tag_129:\n        /* \"#utility.yul\":1672:1791   */\n    tag_128:\n        /* \"#utility.yul\":1830:1831   */\n      0x00\n        /* \"#utility.yul\":1855:1937   */\n      tag_130\n        /* \"#utility.yul\":1929:1936   */\n      dup5\n        /* \"#utility.yul\":1920:1926   */\n      dup3\n        /* \"#utility.yul\":1909:1918   */\n      dup6\n        /* \"#utility.yul\":1905:1927   */\n      add\n        /* \"#utility.yul\":1855:1937   */\n      tag_108\n      jump\t// in\n    tag_130:\n        /* \"#utility.yul\":1845:1937   */\n      swap2\n      pop\n        /* \"#utility.yul\":1801:1947   */\n      pop\n        /* \"#utility.yul\":1567:1954   */\n      swap3\n      swap2\n      pop\n      pop\n      jump\t// out\n        /* \"#utility.yul\":1960:2289   */\n    tag_56:\n        /* \"#utility.yul\":2019:2025   */\n      0x00\n        /* \"#utility.yul\":2068:2070   */\n      0x20\n        /* \"#utility.yul\":2056:2065   */\n      dup3\n        /* \"#utility.yul\":2047:2054   */\n      dup5\n        /* \"#utility.yul\":2043:2066   */\n      sub\n        /* \"#utility.yul\":2039:2071   */\n      slt\n        /* \"#utility.yul\":2036:2155   */\n      iszero\n      tag_132\n      jumpi\n        /* \"#utility.yul\":2074:2153   */\n      tag_133\n      tag_125\n      jump\t// in\n    tag_133:\n        /* \"#utility.yul\":2036:2155   */\n    tag_132:\n        /* \"#utility.yul\":2194:2195   */\n      0x00\n        /* \"#utility.yul\":2219:2272   */\n      tag_134\n        /* \"#utility.yul\":2264:2271   */\n      dup5\n        /* \"#utility.yul\":2255:2261   */\n      dup3\n        /* \"#utility.yul\":2244:2253   */\n      dup6\n        /* \"#utility.yul\":2240:2262   */\n      add\n        /* \"#utility.yul\":2219:2272   */\n      tag_116\n      jump\t// in\n    tag_134:\n        /* \"#utility.yul\":2209:2272   */\n      swap2\n      pop\n        /* \"#utility.yul\":2165:2282   */\n      pop\n        /* \"#utility.yul\":1960:2289   */\n      swap3\n      swap2\n      pop\n      pop\n      jump\t// out\n        /* \"#utility.yul\":2295:2590   */\n    tag_135:\n        /* \"#utility.yul\":2422:2432   */\n      0x00\n        /* \"#utility.yul\":2443:2547   */\n      tag_137\n        /* \"#utility.yul\":2543:2546   */\n      dup4\n        /* \"#utility.yul\":2535:2541   */\n      dup4\n        /* \"#utility.yul\":2443:2547   */\n      tag_138\n      jump\t// in\n    tag_137:\n        /* \"#utility.yul\":2579:2583   */\n      0x60\n        /* \"#utility.yul\":2574:2577   */\n      dup4\n        /* \"#utility.yul\":2570:2584   */\n      add\n        /* \"#utility.yul\":2556:2584   */\n      swap1\n      pop\n        /* \"#utility.yul\":2295:2590   */\n      swap3\n      swap2\n      pop\n      pop\n      jump\t// out\n        /* \"#utility.yul\":2596:2714   */\n    tag_139:\n        /* \"#utility.yul\":2683:2707   */\n      tag_141\n        /* \"#utility.yul\":2701:2706   */\n      dup2\n        /* \"#utility.yul\":2683:2707   */\n      tag_142\n      jump\t// in\n    tag_141:\n        /* \"#utility.yul\":2678:2681   */\n      dup3\n        /* \"#utility.yul\":2671:2708   */\n      mstore\n        /* \"#utility.yul\":2596:2714   */\n      pop\n      pop\n      jump\t// out\n        /* \"#utility.yul\":2786:3750   */\n    tag_143:\n        /* \"#utility.yul\":2963:2966   */\n      0x00\n        /* \"#utility.yul\":2992:3075   */\n      tag_145\n        /* \"#utility.yul\":3069:3074   */\n      dup3\n        /* \"#utility.yul\":2992:3075   */\n      tag_146\n      jump\t// in\n    tag_145:\n        /* \"#utility.yul\":3091:3206   */\n      tag_147\n        /* \"#utility.yul\":3199:3205   */\n      dup2\n        /* \"#utility.yul\":3194:3197   */\n      dup6\n        /* \"#utility.yul\":3091:3206   */\n      tag_148\n      jump\t// in\n    tag_147:\n        /* \"#utility.yul\":3084:3206   */\n      swap4\n      pop\n        /* \"#utility.yul\":3230:3315   */\n      tag_149\n        /* \"#utility.yul\":3309:3314   */\n      dup4\n        /* \"#utility.yul\":3230:3315   */\n      tag_150\n      jump\t// in\n    tag_149:\n        /* \"#utility.yul\":3338:3345   */\n      dup1\n        /* \"#utility.yul\":3369:3370   */\n      0x00\n        /* \"#utility.yul\":3354:3725   */\n    tag_151:\n        /* \"#utility.yul\":3379:3385   */\n      dup4\n        /* \"#utility.yul\":3376:3377   */\n      dup2\n        /* \"#utility.yul\":3373:3386   */\n      lt\n        /* \"#utility.yul\":3354:3725   */\n      iszero\n      tag_153\n      jumpi\n        /* \"#utility.yul\":3455:3461   */\n      dup2\n        /* \"#utility.yul\":3449:3462   */\n      mload\n        /* \"#utility.yul\":3482:3603   */\n      tag_154\n        /* \"#utility.yul\":3599:3602   */\n      dup9\n        /* \"#utility.yul\":3584:3597   */\n      dup3\n        /* \"#utility.yul\":3482:3603   */\n      tag_135\n      jump\t// in\n    tag_154:\n        /* \"#utility.yul\":3475:3603   */\n      swap8\n      pop\n        /* \"#utility.yul\":3626:3715   */\n      tag_155\n        /* \"#utility.yul\":3708:3714   */\n      dup4\n        /* \"#utility.yul\":3626:3715   */\n      tag_156\n      jump\t// in\n    tag_155:\n        /* \"#utility.yul\":3616:3715   */\n      swap3\n      pop\n        /* \"#utility.yul\":3414:3725   */\n      pop\n        /* \"#utility.yul\":3401:3402   */\n      0x01\n        /* \"#utility.yul\":3398:3399   */\n      dup2\n        /* \"#utility.yul\":3394:3403   */\n      add\n        /* \"#utility.yul\":3389:3403   */\n      swap1\n      pop\n        /* \"#utility.yul\":3354:3725   */\n      jump(tag_151)\n    tag_153:\n        /* \"#utility.yul\":3358:3372   */\n      pop\n        /* \"#utility.yul\":3741:3744   */\n      dup6\n        /* \"#utility.yul\":3734:3744   */\n      swap4\n      pop\n        /* \"#utility.yul\":2968:3750   */\n      pop\n      pop\n      pop\n        /* \"#utility.yul\":2786:3750   */\n      swap3\n      swap2\n      pop\n      pop\n      jump\t// out\n        /* \"#utility.yul\":3756:3864   */\n    tag_157:\n        /* \"#utility.yul\":3833:3857   */\n      tag_159\n        /* \"#utility.yul\":3851:3856   */\n      dup2\n        /* \"#utility.yul\":3833:3857   */\n      tag_160\n      jump\t// in\n    tag_159:\n        /* \"#utility.yul\":3828:3831   */\n      dup3\n        /* \"#utility.yul\":3821:3858   */\n      mstore\n        /* \"#utility.yul\":3756:3864   */\n      pop\n      pop\n      jump\t// out\n        /* \"#utility.yul\":3870:4235   */\n    tag_161:\n        /* \"#utility.yul\":4012:4015   */\n      0x00\n        /* \"#utility.yul\":4033:4099   */\n      tag_163\n        /* \"#utility.yul\":4097:4098   */\n      0x03\n        /* \"#utility.yul\":4092:4095   */\n      dup4\n        /* \"#utility.yul\":4033:4099   */\n      tag_164\n      jump\t// in\n    tag_163:\n        /* \"#utility.yul\":4026:4099   */\n      swap2\n      pop\n        /* \"#utility.yul\":4108:4201   */\n      tag_165\n        /* \"#utility.yul\":4197:4200   */\n      dup3\n        /* \"#utility.yul\":4108:4201   */\n      tag_166\n      jump\t// in\n    tag_165:\n        /* \"#utility.yul\":4226:4228   */\n      0x20\n        /* \"#utility.yul\":4221:4224   */\n      dup3\n        /* \"#utility.yul\":4217:4229   */\n      add\n        /* \"#utility.yul\":4210:4229   */\n      swap1\n      pop\n        /* \"#utility.yul\":3870:4235   */\n      swap2\n      swap1\n      pop\n      jump\t// out\n        /* \"#utility.yul\":4241:4606   */\n    tag_167:\n        /* \"#utility.yul\":4383:4386   */\n      0x00\n        /* \"#utility.yul\":4404:4470   */\n      tag_169\n        /* \"#utility.yul\":4468:4469   */\n      0x03\n        /* \"#utility.yul\":4463:4466   */\n      dup4\n        /* \"#utility.yul\":4404:4470   */\n      tag_164\n      jump\t// in\n    tag_169:\n        /* \"#utility.yul\":4397:4470   */\n      swap2\n      pop\n        /* \"#utility.yul\":4479:4572   */\n      tag_170\n        /* \"#utility.yul\":4568:4571   */\n      dup3\n        /* \"#utility.yul\":4479:4572   */\n      tag_171\n      jump\t// in\n    tag_170:\n        /* \"#utility.yul\":4597:4599   */\n      0x20\n        /* \"#utility.yul\":4592:4595   */\n      dup3\n        /* \"#utility.yul\":4588:4600   */\n      add\n        /* \"#utility.yul\":4581:4600   */\n      swap1\n      pop\n        /* \"#utility.yul\":4241:4606   */\n      swap2\n      swap1\n      pop\n      jump\t// out\n        /* \"#utility.yul\":4612:4977   */\n    tag_172:\n        /* \"#utility.yul\":4754:4757   */\n      0x00\n        /* \"#utility.yul\":4775:4841   */\n      tag_174\n        /* \"#utility.yul\":4839:4840   */\n      0x03\n        /* \"#utility.yul\":4834:4837   */\n      dup4\n        /* \"#utility.yul\":4775:4841   */\n      tag_164\n      jump\t// in\n    tag_174:\n        /* \"#utility.yul\":4768:4841   */\n      swap2\n      pop\n        /* \"#utility.yul\":4850:4943   */\n      tag_175\n        /* \"#utility.yul\":4939:4942   */\n      dup3\n        /* \"#utility.yul\":4850:4943   */\n      tag_176\n      jump\t// in\n    tag_175:\n        /* \"#utility.yul\":4968:4970   */\n      0x20\n        /* \"#utility.yul\":4963:4966   */\n      dup3\n        /* \"#utility.yul\":4959:4971   */\n      add\n        /* \"#utility.yul\":4952:4971   */\n      swap1\n      pop\n        /* \"#utility.yul\":4612:4977   */\n      swap2\n      swap1\n      pop\n      jump\t// out\n        /* \"#utility.yul\":4983:5348   */\n    tag_177:\n        /* \"#utility.yul\":5125:5128   */\n      0x00\n        /* \"#utility.yul\":5146:5212   */\n      tag_179\n        /* \"#utility.yul\":5210:5211   */\n      0x03\n        /* \"#utility.yul\":5205:5208   */\n      dup4\n        /* \"#utility.yul\":5146:5212   */\n      tag_164\n      jump\t// in\n    tag_179:\n        /* \"#utility.yul\":5139:5212   */\n      swap2\n      pop\n        /* \"#utility.yul\":5221:5314   */\n      tag_180\n        /* \"#utility.yul\":5310:5313   */\n      dup3\n        /* \"#utility.yul\":5221:5314   */\n      tag_181\n      jump\t// in\n    tag_180:\n        /* \"#utility.yul\":5339:5341   */\n      0x20\n        /* \"#utility.yul\":5334:5337   */\n      dup3\n        /* \"#utility.yul\":5330:5342   */\n      add\n        /* \"#utility.yul\":5323:5342   */\n      swap1\n      pop\n        /* \"#utility.yul\":4983:5348   */\n      swap2\n      swap1\n      pop\n      jump\t// out\n        /* \"#utility.yul\":5416:6107   */\n    tag_138:\n        /* \"#utility.yul\":5561:5565   */\n      0x60\n        /* \"#utility.yul\":5556:5559   */\n      dup3\n        /* \"#utility.yul\":5552:5566   */\n      add\n        /* \"#utility.yul\":5646:5650   */\n      0x00\n        /* \"#utility.yul\":5639:5644   */\n      dup3\n        /* \"#utility.yul\":5635:5651   */\n      add\n        /* \"#utility.yul\":5629:5652   */\n      mload\n        /* \"#utility.yul\":5665:5728   */\n      tag_183\n        /* \"#utility.yul\":5722:5726   */\n      0x00\n        /* \"#utility.yul\":5717:5720   */\n      dup6\n        /* \"#utility.yul\":5713:5727   */\n      add\n        /* \"#utility.yul\":5699:5711   */\n      dup3\n        /* \"#utility.yul\":5665:5728   */\n      tag_184\n      jump\t// in\n    tag_183:\n        /* \"#utility.yul\":5576:5738   */\n      pop\n        /* \"#utility.yul\":5829:5833   */\n      0x20\n        /* \"#utility.yul\":5822:5827   */\n      dup3\n        /* \"#utility.yul\":5818:5834   */\n      add\n        /* \"#utility.yul\":5812:5835   */\n      mload\n        /* \"#utility.yul\":5848:5911   */\n      tag_185\n        /* \"#utility.yul\":5905:5909   */\n      0x20\n        /* \"#utility.yul\":5900:5903   */\n      dup6\n        /* \"#utility.yul\":5896:5910   */\n      add\n        /* \"#utility.yul\":5882:5894   */\n      dup3\n        /* \"#utility.yul\":5848:5911   */\n      tag_157\n      jump\t// in\n    tag_185:\n        /* \"#utility.yul\":5748:5921   */\n      pop\n        /* \"#utility.yul\":6008:6012   */\n      0x40\n        /* \"#utility.yul\":6001:6006   */\n      dup3\n        /* \"#utility.yul\":5997:6013   */\n      add\n        /* \"#utility.yul\":5991:6014   */\n      mload\n        /* \"#utility.yul\":6027:6090   */\n      tag_186\n        /* \"#utility.yul\":6084:6088   */\n      0x40\n        /* \"#utility.yul\":6079:6082   */\n      dup6\n        /* \"#utility.yul\":6075:6089   */\n      add\n        /* \"#utility.yul\":6061:6073   */\n      dup3\n        /* \"#utility.yul\":6027:6090   */\n      tag_184\n      jump\t// in\n    tag_186:\n        /* \"#utility.yul\":5931:6100   */\n      pop\n        /* \"#utility.yul\":5530:6107   */\n      pop\n        /* \"#utility.yul\":5416:6107   */\n      pop\n      pop\n      jump\t// out\n        /* \"#utility.yul\":6167:6860   */\n    tag_187:\n        /* \"#utility.yul\":6314:6318   */\n      0x60\n        /* \"#utility.yul\":6309:6312   */\n      dup3\n        /* \"#utility.yul\":6305:6319   */\n      add\n        /* \"#utility.yul\":6399:6403   */\n      0x00\n        /* \"#utility.yul\":6392:6397   */\n      dup3\n        /* \"#utility.yul\":6388:6404   */\n      add\n        /* \"#utility.yul\":6382:6405   */\n      mload\n        /* \"#utility.yul\":6418:6481   */\n      tag_189\n        /* \"#utility.yul\":6475:6479   */\n      0x00\n        /* \"#utility.yul\":6470:6473   */\n      dup6\n        /* \"#utility.yul\":6466:6480   */\n      add\n        /* \"#utility.yul\":6452:6464   */\n      dup3\n        /* \"#utility.yul\":6418:6481   */\n      tag_184\n      jump\t// in\n    tag_189:\n        /* \"#utility.yul\":6329:6491   */\n      pop\n        /* \"#utility.yul\":6582:6586   */\n      0x20\n        /* \"#utility.yul\":6575:6580   */\n      dup3\n        /* \"#utility.yul\":6571:6587   */\n      add\n        /* \"#utility.yul\":6565:6588   */\n      mload\n        /* \"#utility.yul\":6601:6664   */\n      tag_190\n        /* \"#utility.yul\":6658:6662   */\n      0x20\n        /* \"#utility.yul\":6653:6656   */\n      dup6\n        /* \"#utility.yul\":6649:6663   */\n      add\n        /* \"#utility.yul\":6635:6647   */\n      dup3\n        /* \"#utility.yul\":6601:6664   */\n      tag_157\n      jump\t// in\n    tag_190:\n        /* \"#utility.yul\":6501:6674   */\n      pop\n        /* \"#utility.yul\":6761:6765   */\n      0x40\n        /* \"#utility.yul\":6754:6759   */\n      dup3\n        /* \"#utility.yul\":6750:6766   */\n      add\n        /* \"#utility.yul\":6744:6767   */\n      mload\n        /* \"#utility.yul\":6780:6843   */\n      tag_191\n        /* \"#utility.yul\":6837:6841   */\n      0x40\n        /* \"#utility.yul\":6832:6835   */\n      dup6\n        /* \"#utility.yul\":6828:6842   */\n      add\n        /* \"#utility.yul\":6814:6826   */\n      dup3\n        /* \"#utility.yul\":6780:6843   */\n      tag_184\n      jump\t// in\n    tag_191:\n        /* \"#utility.yul\":6684:6853   */\n      pop\n        /* \"#utility.yul\":6283:6860   */\n      pop\n        /* \"#utility.yul\":6167:6860   */\n      pop\n      pop\n      jump\t// out\n        /* \"#utility.yul\":6866:6974   */\n    tag_184:\n        /* \"#utility.yul\":6943:6967   */\n      tag_193\n        /* \"#utility.yul\":6961:6966   */\n      dup2\n        /* \"#utility.yul\":6943:6967   */\n      tag_194\n      jump\t// in\n    tag_193:\n        /* \"#utility.yul\":6938:6941   */\n      dup3\n        /* \"#utility.yul\":6931:6968   */\n      mstore\n        /* \"#utility.yul\":6866:6974   */\n      pop\n      pop\n      jump\t// out\n        /* \"#utility.yul\":6980:7098   */\n    tag_195:\n        /* \"#utility.yul\":7067:7091   */\n      tag_197\n        /* \"#utility.yul\":7085:7090   */\n      dup2\n        /* \"#utility.yul\":7067:7091   */\n      tag_194\n      jump\t// in\n    tag_197:\n        /* \"#utility.yul\":7062:7065   */\n      dup3\n        /* \"#utility.yul\":7055:7092   */\n      mstore\n        /* \"#utility.yul\":6980:7098   */\n      pop\n      pop\n      jump\t// out\n        /* \"#utility.yul\":7104:7326   */\n    tag_35:\n        /* \"#utility.yul\":7197:7201   */\n      0x00\n        /* \"#utility.yul\":7235:7237   */\n      0x20\n        /* \"#utility.yul\":7224:7233   */\n      dup3\n        /* \"#utility.yul\":7220:7238   */\n      add\n        /* \"#utility.yul\":7212:7238   */\n      swap1\n      pop\n        /* \"#utility.yul\":7248:7319   */\n      tag_199\n        /* \"#utility.yul\":7316:7317   */\n      0x00\n        /* \"#utility.yul\":7305:7314   */\n      dup4\n        /* \"#utility.yul\":7301:7318   */\n      add\n        /* \"#utility.yul\":7292:7298   */\n      dup5\n        /* \"#utility.yul\":7248:7319   */\n      tag_139\n      jump\t// in\n    tag_199:\n        /* \"#utility.yul\":7104:7326   */\n      swap3\n      swap2\n      pop\n      pop\n      jump\t// out\n        /* \"#utility.yul\":7332:7821   */\n    tag_27:\n        /* \"#utility.yul\":7533:7537   */\n      0x00\n        /* \"#utility.yul\":7571:7573   */\n      0x20\n        /* \"#utility.yul\":7560:7569   */\n      dup3\n        /* \"#utility.yul\":7556:7574   */\n      add\n        /* \"#utility.yul\":7548:7574   */\n      swap1\n      pop\n        /* \"#utility.yul\":7620:7629   */\n      dup2\n        /* \"#utility.yul\":7614:7618   */\n      dup2\n        /* \"#utility.yul\":7610:7630   */\n      sub\n        /* \"#utility.yul\":7606:7607   */\n      0x00\n        /* \"#utility.yul\":7595:7604   */\n      dup4\n        /* \"#utility.yul\":7591:7608   */\n      add\n        /* \"#utility.yul\":7584:7631   */\n      mstore\n        /* \"#utility.yul\":7648:7814   */\n      tag_201\n        /* \"#utility.yul\":7809:7813   */\n      dup2\n        /* \"#utility.yul\":7800:7806   */\n      dup5\n        /* \"#utility.yul\":7648:7814   */\n      tag_143\n      jump\t// in\n    tag_201:\n        /* \"#utility.yul\":7640:7814   */\n      swap1\n      pop\n        /* \"#utility.yul\":7332:7821   */\n      swap3\n      swap2\n      pop\n      pop\n      jump\t// out\n        /* \"#utility.yul\":7827:8246   */\n    tag_63:\n        /* \"#utility.yul\":7993:7997   */\n      0x00\n        /* \"#utility.yul\":8031:8033   */\n      0x20\n        /* \"#utility.yul\":8020:8029   */\n      dup3\n        /* \"#utility.yul\":8016:8034   */\n      add\n        /* \"#utility.yul\":8008:8034   */\n      swap1\n      pop\n        /* \"#utility.yul\":8080:8089   */\n      dup2\n        /* \"#utility.yul\":8074:8078   */\n      dup2\n        /* \"#utility.yul\":8070:8090   */\n      sub\n        /* \"#utility.yul\":8066:8067   */\n      0x00\n        /* \"#utility.yul\":8055:8064   */\n      dup4\n        /* \"#utility.yul\":8051:8068   */\n      add\n        /* \"#utility.yul\":8044:8091   */\n      mstore\n        /* \"#utility.yul\":8108:8239   */\n      tag_203\n        /* \"#utility.yul\":8234:8238   */\n      dup2\n        /* \"#utility.yul\":8108:8239   */\n      tag_161\n      jump\t// in\n    tag_203:\n        /* \"#utility.yul\":8100:8239   */\n      swap1\n      pop\n        /* \"#utility.yul\":7827:8246   */\n      swap2\n      swap1\n      pop\n      jump\t// out\n        /* \"#utility.yul\":8252:8671   */\n    tag_98:\n        /* \"#utility.yul\":8418:8422   */\n      0x00\n        /* \"#utility.yul\":8456:8458   */\n      0x20\n        /* \"#utility.yul\":8445:8454   */\n      dup3\n        /* \"#utility.yul\":8441:8459   */\n      add\n        /* \"#utility.yul\":8433:8459   */\n      swap1\n      pop\n        /* \"#utility.yul\":8505:8514   */\n      dup2\n        /* \"#utility.yul\":8499:8503   */\n      dup2\n        /* \"#utility.yul\":8495:8515   */\n      sub\n        /* \"#utility.yul\":8491:8492   */\n      0x00\n        /* \"#utility.yul\":8480:8489   */\n      dup4\n        /* \"#utility.yul\":8476:8493   */\n      add\n        /* \"#utility.yul\":8469:8516   */\n      mstore\n        /* \"#utility.yul\":8533:8664   */\n      tag_205\n        /* \"#utility.yul\":8659:8663   */\n      dup2\n        /* \"#utility.yul\":8533:8664   */\n      tag_167\n      jump\t// in\n    tag_205:\n        /* \"#utility.yul\":8525:8664   */\n      swap1\n      pop\n        /* \"#utility.yul\":8252:8671   */\n      swap2\n      swap1\n      pop\n      jump\t// out\n        /* \"#utility.yul\":8677:9096   */\n    tag_80:\n        /* \"#utility.yul\":8843:8847   */\n      0x00\n        /* \"#utility.yul\":8881:8883   */\n      0x20\n        /* \"#utility.yul\":8870:8879   */\n      dup3\n        /* \"#utility.yul\":8866:8884   */\n      add\n        /* \"#utility.yul\":8858:8884   */\n      swap1\n      pop\n        /* \"#utility.yul\":8930:8939   */\n      dup2\n        /* \"#utility.yul\":8924:8928   */\n      dup2\n        /* \"#utility.yul\":8920:8940   */\n      sub\n        /* \"#utility.yul\":8916:8917   */\n      0x00\n        /* \"#utility.yul\":8905:8914   */\n      dup4\n        /* \"#utility.yul\":8901:8918   */\n      add\n        /* \"#utility.yul\":8894:8941   */\n      mstore\n        /* \"#utility.yul\":8958:9089   */\n      tag_207\n        /* \"#utility.yul\":9084:9088   */\n      dup2\n        /* \"#utility.yul\":8958:9089   */\n      tag_172\n      jump\t// in\n    tag_207:\n        /* \"#utility.yul\":8950:9089   */\n      swap1\n      pop\n        /* \"#utility.yul\":8677:9096   */\n      swap2\n      swap1\n      pop\n      jump\t// out\n        /* \"#utility.yul\":9102:9521   */\n    tag_71:\n        /* \"#utility.yul\":9268:9272   */\n      0x00\n        /* \"#utility.yul\":9306:9308   */\n      0x20\n        /* \"#utility.yul\":9295:9304   */\n      dup3\n        /* \"#utility.yul\":9291:9309   */\n      add\n        /* \"#utility.yul\":9283:9309   */\n      swap1\n      pop\n        /* \"#utility.yul\":9355:9364   */\n      dup2\n        /* \"#utility.yul\":9349:9353   */\n      dup2\n        /* \"#utility.yul\":9345:9365   */\n      sub\n        /* \"#utility.yul\":9341:9342   */\n      0x00\n        /* \"#utility.yul\":9330:9339   */\n      dup4\n        /* \"#utility.yul\":9326:9343   */\n      add\n        /* \"#utility.yul\":9319:9366   */\n      mstore\n        /* \"#utility.yul\":9383:9514   */\n      tag_209\n        /* \"#utility.yul\":9509:9513   */\n      dup2\n        /* \"#utility.yul\":9383:9514   */\n      tag_177\n      jump\t// in\n    tag_209:\n        /* \"#utility.yul\":9375:9514   */\n      swap1\n      pop\n        /* \"#utility.yul\":9102:9521   */\n      swap2\n      swap1\n      pop\n      jump\t// out\n        /* \"#utility.yul\":9527:9849   */\n    tag_53:\n        /* \"#utility.yul\":9670:9674   */\n      0x00\n        /* \"#utility.yul\":9708:9710   */\n      0x60\n        /* \"#utility.yul\":9697:9706   */\n      dup3\n        /* \"#utility.yul\":9693:9711   */\n      add\n        /* \"#utility.yul\":9685:9711   */\n      swap1\n      pop\n        /* \"#utility.yul\":9721:9842   */\n      tag_211\n        /* \"#utility.yul\":9839:9840   */\n      0x00\n        /* \"#utility.yul\":9828:9837   */\n      dup4\n        /* \"#utility.yul\":9824:9841   */\n      add\n        /* \"#utility.yul\":9815:9821   */\n      dup5\n        /* \"#utility.yul\":9721:9842   */\n      tag_187\n      jump\t// in\n    tag_211:\n        /* \"#utility.yul\":9527:9849   */\n      swap3\n      swap2\n      pop\n      pop\n      jump\t// out\n        /* \"#utility.yul\":9855:10077   */\n    tag_31:\n        /* \"#utility.yul\":9948:9952   */\n      0x00\n        /* \"#utility.yul\":9986:9988   */\n      0x20\n        /* \"#utility.yul\":9975:9984   */\n      dup3\n        /* \"#utility.yul\":9971:9989   */\n      add\n        /* \"#utility.yul\":9963:9989   */\n      swap1\n      pop\n        /* \"#utility.yul\":9999:10070   */\n      tag_213\n        /* \"#utility.yul\":10067:10068   */\n      0x00\n        /* \"#utility.yul\":10056:10065   */\n      dup4\n        /* \"#utility.yul\":10052:10069   */\n      add\n        /* \"#utility.yul\":10043:10049   */\n      dup5\n        /* \"#utility.yul\":9999:10070   */\n      tag_195\n      jump\t// in\n    tag_213:\n        /* \"#utility.yul\":9855:10077   */\n      swap3\n      swap2\n      pop\n      pop\n      jump\t// out\n        /* \"#utility.yul\":10083:10212   */\n    tag_114:\n        /* \"#utility.yul\":10117:10123   */\n      0x00\n        /* \"#utility.yul\":10144:10164   */\n      tag_215\n      tag_216\n      jump\t// in\n    tag_215:\n        /* \"#utility.yul\":10134:10164   */\n      swap1\n      pop\n        /* \"#utility.yul\":10173:10206   */\n      tag_217\n        /* \"#utility.yul\":10201:10205   */\n      dup3\n        /* \"#utility.yul\":10193:10199   */\n      dup3\n        /* \"#utility.yul\":10173:10206   */\n      tag_218\n      jump\t// in\n    tag_217:\n        /* \"#utility.yul\":10083:10212   */\n      swap2\n      swap1\n      pop\n      jump\t// out\n        /* \"#utility.yul\":10218:10293   */\n    tag_216:\n        /* \"#utility.yul\":10251:10257   */\n      0x00\n        /* \"#utility.yul\":10284:10286   */\n      0x40\n        /* \"#utility.yul\":10278:10287   */\n      mload\n        /* \"#utility.yul\":10268:10287   */\n      swap1\n      pop\n        /* \"#utility.yul\":10218:10293   */\n      swap1\n      jump\t// out\n        /* \"#utility.yul\":10299:10460   */\n    tag_150:\n        /* \"#utility.yul\":10395:10399   */\n      0x00\n        /* \"#utility.yul\":10418:10421   */\n      dup2\n        /* \"#utility.yul\":10410:10421   */\n      swap1\n      pop\n        /* \"#utility.yul\":10448:10452   */\n      0x20\n        /* \"#utility.yul\":10443:10446   */\n      dup3\n        /* \"#utility.yul\":10439:10453   */\n      add\n        /* \"#utility.yul\":10431:10453   */\n      swap1\n      pop\n        /* \"#utility.yul\":10299:10460   */\n      swap2\n      swap1\n      pop\n      jump\t// out\n        /* \"#utility.yul\":10466:10609   */\n    tag_146:\n        /* \"#utility.yul\":10562:10568   */\n      0x00\n        /* \"#utility.yul\":10596:10601   */\n      dup2\n        /* \"#utility.yul\":10590:10602   */\n      mload\n        /* \"#utility.yul\":10580:10602   */\n      swap1\n      pop\n        /* \"#utility.yul\":10466:10609   */\n      swap2\n      swap1\n      pop\n      jump\t// out\n        /* \"#utility.yul\":10615:10757   */\n    tag_156:\n        /* \"#utility.yul\":10714:10718   */\n      0x00\n        /* \"#utility.yul\":10746:10750   */\n      0x20\n        /* \"#utility.yul\":10741:10744   */\n      dup3\n        /* \"#utility.yul\":10737:10751   */\n      add\n        /* \"#utility.yul\":10729:10751   */\n      swap1\n      pop\n        /* \"#utility.yul\":10615:10757   */\n      swap2\n      swap1\n      pop\n      jump\t// out\n        /* \"#utility.yul\":10763:10976   */\n    tag_148:\n        /* \"#utility.yul\":10891:10902   */\n      0x00\n        /* \"#utility.yul\":10925:10931   */\n      dup3\n        /* \"#utility.yul\":10920:10923   */\n      dup3\n        /* \"#utility.yul\":10913:10932   */\n      mstore\n        /* \"#utility.yul\":10965:10969   */\n      0x20\n        /* \"#utility.yul\":10960:10963   */\n      dup3\n        /* \"#utility.yul\":10956:10970   */\n      add\n        /* \"#utility.yul\":10941:10970   */\n      swap1\n      pop\n        /* \"#utility.yul\":10763:10976   */\n      swap3\n      swap2\n      pop\n      pop\n      jump\t// out\n        /* \"#utility.yul\":10982:11151   */\n    tag_164:\n        /* \"#utility.yul\":11066:11077   */\n      0x00\n        /* \"#utility.yul\":11100:11106   */\n      dup3\n        /* \"#utility.yul\":11095:11098   */\n      dup3\n        /* \"#utility.yul\":11088:11107   */\n      mstore\n        /* \"#utility.yul\":11140:11144   */\n      0x20\n        /* \"#utility.yul\":11135:11138   */\n      dup3\n        /* \"#utility.yul\":11131:11145   */\n      add\n        /* \"#utility.yul\":11116:11145   */\n      swap1\n      pop\n        /* \"#utility.yul\":10982:11151   */\n      swap3\n      swap2\n      pop\n      pop\n      jump\t// out\n        /* \"#utility.yul\":11157:11462   */\n    tag_93:\n        /* \"#utility.yul\":11197:11200   */\n      0x00\n        /* \"#utility.yul\":11216:11236   */\n      tag_226\n        /* \"#utility.yul\":11234:11235   */\n      dup3\n        /* \"#utility.yul\":11216:11236   */\n      tag_194\n      jump\t// in\n    tag_226:\n        /* \"#utility.yul\":11211:11236   */\n      swap2\n      pop\n        /* \"#utility.yul\":11250:11270   */\n      tag_227\n        /* \"#utility.yul\":11268:11269   */\n      dup4\n        /* \"#utility.yul\":11250:11270   */\n      tag_194\n      jump\t// in\n    tag_227:\n        /* \"#utility.yul\":11245:11270   */\n      swap3\n      pop\n        /* \"#utility.yul\":11404:11405   */\n      dup3\n        /* \"#utility.yul\":11336:11402   */\n      0xffffffffffffffffffffffffffffffffffffffffffffffffffffffffffffffff\n        /* \"#utility.yul\":11332:11406   */\n      sub\n        /* \"#utility.yul\":11329:11330   */\n      dup3\n        /* \"#utility.yul\":11326:11407   */\n      gt\n        /* \"#utility.yul\":11323:11430   */\n      iszero\n      tag_228\n      jumpi\n        /* \"#utility.yul\":11410:11428   */\n      tag_229\n      tag_230\n      jump\t// in\n    tag_229:\n        /* \"#utility.yul\":11323:11430   */\n    tag_228:\n        /* \"#utility.yul\":11454:11455   */\n      dup3\n        /* \"#utility.yul\":11451:11452   */\n      dup3\n        /* \"#utility.yul\":11447:11456   */\n      add\n        /* \"#utility.yul\":11440:11456   */\n      swap1\n      pop\n        /* \"#utility.yul\":11157:11462   */\n      swap3\n      swap2\n      pop\n      pop\n      jump\t// out\n        /* \"#utility.yul\":11468:11564   */\n    tag_142:\n        /* \"#utility.yul\":11505:11512   */\n      0x00\n        /* \"#utility.yul\":11534:11558   */\n      tag_232\n        /* \"#utility.yul\":11552:11557   */\n      dup3\n        /* \"#utility.yul\":11534:11558   */\n      tag_233\n      jump\t// in\n    tag_232:\n        /* \"#utility.yul\":11523:11558   */\n      swap1\n      pop\n        /* \"#utility.yul\":11468:11564   */\n      swap2\n      swap1\n      pop\n      jump\t// out\n        /* \"#utility.yul\":11570:11647   */\n    tag_160:\n        /* \"#utility.yul\":11607:11614   */\n      0x00\n        /* \"#utility.yul\":11636:11641   */\n      dup2\n        /* \"#utility.yul\":11625:11641   */\n      swap1\n      pop\n        /* \"#utility.yul\":11570:11647   */\n      swap2\n      swap1\n      pop\n      jump\t// out\n        /* \"#utility.yul\":11653:11779   */\n    tag_233:\n        /* \"#utility.yul\":11690:11697   */\n      0x00\n        /* \"#utility.yul\":11730:11772   */\n      0xffffffffffffffffffffffffffffffffffffffff\n        /* \"#utility.yul\":11723:11728   */\n      dup3\n        /* \"#utility.yul\":11719:11773   */\n      and\n        /* \"#utility.yul\":11708:11773   */\n      swap1\n      pop\n        /* \"#utility.yul\":11653:11779   */\n      swap2\n      swap1\n      pop\n      jump\t// out\n        /* \"#utility.yul\":11785:11862   */\n    tag_194:\n        /* \"#utility.yul\":11822:11829   */\n      0x00\n        /* \"#utility.yul\":11851:11856   */\n      dup2\n        /* \"#utility.yul\":11840:11856   */\n      swap1\n      pop\n        /* \"#utility.yul\":11785:11862   */\n      swap2\n      swap1\n      pop\n      jump\t// out\n        /* \"#utility.yul\":11868:12149   */\n    tag_218:\n        /* \"#utility.yul\":11951:11978   */\n      tag_238\n        /* \"#utility.yul\":11973:11977   */\n      dup3\n        /* \"#utility.yul\":11951:11978   */\n      tag_239\n      jump\t// in\n    tag_238:\n        /* \"#utility.yul\":11943:11949   */\n      dup2\n        /* \"#utility.yul\":11939:11979   */\n      add\n        /* \"#utility.yul\":12081:12087   */\n      dup2\n        /* \"#utility.yul\":12069:12079   */\n      dup2\n        /* \"#utility.yul\":12066:12088   */\n      lt\n        /* \"#utility.yul\":12045:12063   */\n      0xffffffffffffffff\n        /* \"#utility.yul\":12033:12043   */\n      dup3\n        /* \"#utility.yul\":12030:12064   */\n      gt\n        /* \"#utility.yul\":12027:12089   */\n      or\n        /* \"#utility.yul\":12024:12112   */\n      iszero\n      tag_240\n      jumpi\n        /* \"#utility.yul\":12092:12110   */\n      tag_241\n      tag_242\n      jump\t// in\n    tag_241:\n        /* \"#utility.yul\":12024:12112   */\n    tag_240:\n        /* \"#utility.yul\":12132:12142   */\n      dup1\n        /* \"#utility.yul\":12128:12130   */\n      0x40\n        /* \"#utility.yul\":12121:12143   */\n      mstore\n        /* \"#utility.yul\":11911:12149   */\n      pop\n        /* \"#utility.yul\":11868:12149   */\n      pop\n      pop\n      jump\t// out\n        /* \"#utility.yul\":12155:12335   */\n    tag_230:\n        /* \"#utility.yul\":12203:12280   */\n      0x4e487b7100000000000000000000000000000000000000000000000000000000\n        /* \"#utility.yul\":12200:12201   */\n      0x00\n        /* \"#utility.yul\":12193:12281   */\n      mstore\n        /* \"#utility.yul\":12300:12304   */\n      0x11\n        /* \"#utility.yul\":12297:12298   */\n      0x04\n        /* \"#utility.yul\":12290:12305   */\n      mstore\n        /* \"#utility.yul\":12324:12328   */\n      0x24\n        /* \"#utility.yul\":12321:12322   */\n      0x00\n        /* \"#utility.yul\":12314:12329   */\n      revert\n        /* \"#utility.yul\":12341:12521   */\n    tag_242:\n        /* \"#utility.yul\":12389:12466   */\n      0x4e487b7100000000000000000000000000000000000000000000000000000000\n        /* \"#utility.yul\":12386:12387   */\n      0x00\n        /* \"#utility.yul\":12379:12467   */\n      mstore\n        /* \"#utility.yul\":12486:12490   */\n      0x41\n        /* \"#utility.yul\":12483:12484   */\n      0x04\n        /* \"#utility.yul\":12476:12491   */\n      mstore\n        /* \"#utility.yul\":12510:12514   */\n      0x24\n        /* \"#utility.yul\":12507:12508   */\n      0x00\n        /* \"#utility.yul\":12500:12515   */\n      revert\n        /* \"#utility.yul\":12527:12644   */\n    tag_112:\n        /* \"#utility.yul\":12636:12637   */\n      0x00\n        /* \"#utility.yul\":12633:12634   */\n      dup1\n        /* \"#utility.yul\":12626:12638   */\n      revert\n        /* \"#utility.yul\":12896:13013   */\n    tag_125:\n        /* \"#utility.yul\":13005:13006   */\n      0x00\n        /* \"#utility.yul\":13002:13003   */\n      dup1\n        /* \"#utility.yul\":12995:13007   */\n      revert\n        /* \"#utility.yul\":13019:13121   */\n    tag_239:\n        /* \"#utility.yul\":13060:13066   */\n      0x00\n        /* \"#utility.yul\":13111:13113   */\n      0x1f\n        /* \"#utility.yul\":13107:13114   */\n      not\n        /* \"#utility.yul\":13102:13104   */\n      0x1f\n        /* \"#utility.yul\":13095:13100   */\n      dup4\n        /* \"#utility.yul\":13091:13105   */\n      add\n        /* \"#utility.yul\":13087:13115   */\n      and\n        /* \"#utility.yul\":13077:13115   */\n      swap1\n      pop\n        /* \"#utility.yul\":13019:13121   */\n      swap2\n      swap1\n      pop\n      jump\t// out\n        /* \"#utility.yul\":13127:13280   */\n    tag_166:\n        /* \"#utility.yul\":13267:13272   */\n      0x3078330000000000000000000000000000000000000000000000000000000000\n        /* \"#utility.yul\":13263:13264   */\n      0x00\n        /* \"#utility.yul\":13255:13261   */\n      dup3\n        /* \"#utility.yul\":13251:13265   */\n      add\n        /* \"#utility.yul\":13244:13273   */\n      mstore\n        /* \"#utility.yul\":13127:13280   */\n      pop\n      jump\t// out\n        /* \"#utility.yul\":13286:13439   */\n    tag_171:\n        /* \"#utility.yul\":13426:13431   */\n      0x3078340000000000000000000000000000000000000000000000000000000000\n        /* \"#utility.yul\":13422:13423   */\n      0x00\n        /* \"#utility.yul\":13414:13420   */\n      dup3\n        /* \"#utility.yul\":13410:13424   */\n      add\n        /* \"#utility.yul\":13403:13432   */\n      mstore\n        /* \"#utility.yul\":13286:13439   */\n      pop\n      jump\t// out\n        /* \"#utility.yul\":13445:13598   */\n    tag_176:\n        /* \"#utility.yul\":13585:13590   */\n      0x3078310000000000000000000000000000000000000000000000000000000000\n        /* \"#utility.yul\":13581:13582   */\n      0x00\n        /* \"#utility.yul\":13573:13579   */\n      dup3\n        /* \"#utility.yul\":13569:13583   */\n      add\n        /* \"#utility.yul\":13562:13591   */\n      mstore\n        /* \"#utility.yul\":13445:13598   */\n      pop\n      jump\t// out\n        /* \"#utility.yul\":13604:13757   */\n    tag_181:\n        /* \"#utility.yul\":13744:13749   */\n      0x3078320000000000000000000000000000000000000000000000000000000000\n        /* \"#utility.yul\":13740:13741   */\n      0x00\n        /* \"#utility.yul\":13732:13738   */\n      dup3\n        /* \"#utility.yul\":13728:13742   */\n      add\n        /* \"#utility.yul\":13721:13750   */\n      mstore\n        /* \"#utility.yul\":13604:13757   */\n      pop\n      jump\t// out\n        /* \"#utility.yul\":13763:13885   */\n    tag_103:\n        /* \"#utility.yul\":13836:13860   */\n      tag_257\n        /* \"#utility.yul\":13854:13859   */\n      dup2\n        /* \"#utility.yul\":13836:13860   */\n      tag_142\n      jump\t// in\n    tag_257:\n        /* \"#utility.yul\":13829:13834   */\n      dup2\n        /* \"#utility.yul\":13826:13861   */\n      eq\n        /* \"#utility.yul\":13816:13879   */\n      tag_258\n      jumpi\n        /* \"#utility.yul\":13875:13876   */\n      0x00\n        /* \"#utility.yul\":13872:13873   */\n      dup1\n        /* \"#utility.yul\":13865:13877   */\n      revert\n        /* \"#utility.yul\":13816:13879   */\n    tag_258:\n        /* \"#utility.yul\":13763:13885   */\n      pop\n      jump\t// out\n        /* \"#utility.yul\":13891:14013   */\n    tag_107:\n        /* \"#utility.yul\":13964:13988   */\n      tag_260\n        /* \"#utility.yul\":13982:13987   */\n      dup2\n        /* \"#utility.yul\":13964:13988   */\n      tag_160\n      jump\t// in\n    tag_260:\n        /* \"#utility.yul\":13957:13962   */\n      dup2\n        /* \"#utility.yul\":13954:13989   */\n      eq\n        /* \"#utility.yul\":13944:14007   */\n      tag_261\n      jumpi\n        /* \"#utility.yul\":14003:14004   */\n      0x00\n        /* \"#utility.yul\":14000:14001   */\n      dup1\n        /* \"#utility.yul\":13993:14005   */\n      revert\n        /* \"#utility.yul\":13944:14007   */\n    tag_261:\n        /* \"#utility.yul\":13891:14013   */\n      pop\n      jump\t// out\n        /* \"#utility.yul\":14019:14141   */\n    tag_121:\n        /* \"#utility.yul\":14092:14116   */\n      tag_263\n        /* \"#utility.yul\":14110:14115   */\n      dup2\n        /* \"#utility.yul\":14092:14116   */\n      tag_194\n      jump\t// in\n    tag_263:\n        /* \"#utility.yul\":14085:14090   */\n      dup2\n        /* \"#utility.yul\":14082:14117   */\n      eq\n        /* \"#utility.yul\":14072:14135   */\n      tag_264\n      jumpi\n        /* \"#utility.yul\":14131:14132   */\n      0x00\n        /* \"#utility.yul\":14128:14129   */\n      dup1\n        /* \"#utility.yul\":14121:14133   */\n      revert\n        /* \"#utility.yul\":14072:14135   */\n    tag_264:\n        /* \"#utility.yul\":14019:14141   */\n      pop\n      jump\t// out\n\n    auxdata: 0xa2646970667358221220677b7b492a23b01918c8a363a5645b0bac0d3948524d5f350fa6a59058f0f79164736f6c63430008070033\n}\n",
				"bytecode": {
					"linkReferences": {},
					"object": "60806040526000600860006101000a81548173ffffffffffffffffffffffffffffffffffffffff021916908373ffffffffffffffffffffffffffffffffffffffff1602179055506000600a60006101000a81548160ff0219169083151502179055503480156200006e57600080fd5b50604051620011cf380380620011cf83398181016040528101906200009491906200020d565b336000806101000a81548173ffffffffffffffffffffffffffffffffffffffff021916908373ffffffffffffffffffffffffffffffffffffffff16021790555084600160006101000a81548173ffffffffffffffffffffffffffffffffffffffff021916908373ffffffffffffffffffffffffffffffffffffffff1602179055508360026000820151816000015560208201518160010155604082015181600201559050508260058190555081600681905550806007819055505050505050620003d4565b6000815190506200016a8162000386565b92915050565b6000815190506200018181620003a0565b92915050565b600060608284031215620001a0576200019f6200036b565b5b620001ac606062000295565b90506000620001be84828501620001f6565b6000830152506020620001d48482850162000170565b6020830152506040620001ea84828501620001f6565b60408301525092915050565b6000815190506200020781620003ba565b92915050565b600080600080600060e086880312156200022c576200022b62000370565b5b60006200023c8882890162000159565b95505060206200024f8882890162000187565b94505060806200026288828901620001f6565b93505060a06200027588828901620001f6565b92505060c06200028888828901620001f6565b9150509295509295909350565b6000620002a1620002b4565b9050620002af828262000306565b919050565b6000604051905090565b6000620002cb82620002dc565b9050919050565b6000819050919050565b600073ffffffffffffffffffffffffffffffffffffffff82169050919050565b6000819050919050565b620003118262000375565b810181811067ffffffffffffffff821117156200033357620003326200033c565b5b80604052505050565b7f4e487b7100000000000000000000000000000000000000000000000000000000600052604160045260246000fd5b600080fd5b600080fd5b6000601f19601f8301169050919050565b6200039181620002be565b81146200039d57600080fd5b50565b620003ab81620002d2565b8114620003b757600080fd5b50565b620003c581620002fc565b8114620003d157600080fd5b50565b610deb80620003e46000396000f3fe608060405234801561001057600080fd5b50600436106100b45760003560e01c806373b0eb751161007157806373b0eb751461016957806391051e801461018557806398d5fdca146101a3578063a5bfa746146101c1578063db48ce0b146101cb578063ffea0ef4146101e9576100b4565b80631c3c0ea8146100b95780633d5e0515146100d557806350592adf146100f157806364a406421461010f578063650d993b1461012d5780636c1032af1461014b575b600080fd5b6100d360048036038101906100ce91906107db565b610205565b005b6100ef60048036038101906100ea9190610808565b6102e2565b005b6100f9610339565b6040516101069190610a3f565b60405180910390f35b61011761049e565b6040516101249190610afc565b60405180910390f35b6101356104a8565b6040516101429190610a24565b60405180910390f35b6101536104d2565b6040516101609190610a24565b60405180910390f35b610183600480360381019061017e91906107db565b61058d565b005b61018d6105d8565b60405161019a9190610afc565b60405180910390f35b6101ab6105e2565b6040516101b89190610afc565b60405180910390f35b6101c96105ec565b005b6101d3610611565b6040516101e09190610ae1565b60405180910390f35b61020360048036038101906101fe9190610835565b610649565b005b61020d61066d565b600073ffffffffffffffffffffffffffffffffffffffff16600860009054906101000a900473ffffffffffffffffffffffffffffffffffffffff1673ffffffffffffffffffffffffffffffffffffffff161461029e576040517f08c379a000000000000000000000000000000000000000000000000000000000815260040161029590610a61565b60405180910390fd5b80600860006101000a81548173ffffffffffffffffffffffffffffffffffffffff021916908373ffffffffffffffffffffffffffffffffffffffff16021790555050565b6102ea61066d565b6009819080600181540180825580915050600190039060005260206000209060030201600090919091909150600082015181600001556020820151816001015560408201518160020155505050565b6060600160009054906101000a900473ffffffffffffffffffffffffffffffffffffffff1673ffffffffffffffffffffffffffffffffffffffff163273ffffffffffffffffffffffffffffffffffffffff1614806103e45750600860009054906101000a900473ffffffffffffffffffffffffffffffffffffffff1673ffffffffffffffffffffffffffffffffffffffff163273ffffffffffffffffffffffffffffffffffffffff16145b610423576040517f08c379a000000000000000000000000000000000000000000000000000000000815260040161041a90610ac1565b60405180910390fd5b6009805480602002602001604051908101604052809291908181526020016000905b828210156104955783829060005260206000209060030201604051806060016040529081600082015481526020016001820154815260200160028201548152505081526020019060010190610445565b50505050905090565b6000600754905090565b6000600160009054906101000a900473ffffffffffffffffffffffffffffffffffffffff16905090565b60008073ffffffffffffffffffffffffffffffffffffffff16600860009054906101000a900473ffffffffffffffffffffffffffffffffffffffff1673ffffffffffffffffffffffffffffffffffffffff161415610565576040517f08c379a000000000000000000000000000000000000000000000000000000000815260040161055c90610aa1565b60405180910390fd5b600860009054906101000a900473ffffffffffffffffffffffffffffffffffffffff16905090565b61059561066d565b806000806101000a81548173ffffffffffffffffffffffffffffffffffffffff021916908373ffffffffffffffffffffffffffffffffffffffff16021790555050565b6000600554905090565b6000600654905090565b6105f461066d565b6001600a60006101000a81548160ff021916908315150217905550565b610619610714565b60026040518060600160405290816000820154815260200160018201548152602001600282015481525050905090565b61065161066d565b80600560008282546106639190610b86565b9250508190555050565b60008054906101000a900473ffffffffffffffffffffffffffffffffffffffff1673ffffffffffffffffffffffffffffffffffffffff163373ffffffffffffffffffffffffffffffffffffffff1614806106d35750600a60009054906101000a900460ff165b610712576040517f08c379a000000000000000000000000000000000000000000000000000000000815260040161070990610a81565b60405180910390fd5b565b60405180606001604052806000815260200160008019168152602001600081525090565b60008135905061074781610d70565b92915050565b60008135905061075c81610d87565b92915050565b60006060828403121561077857610777610cb1565b5b6107826060610b17565b90506000610792848285016107c6565b60008301525060206107a68482850161074d565b60208301525060406107ba848285016107c6565b60408301525092915050565b6000813590506107d581610d9e565b92915050565b6000602082840312156107f1576107f0610cb6565b5b60006107ff84828501610738565b91505092915050565b60006060828403121561081e5761081d610cb6565b5b600061082c84828501610762565b91505092915050565b60006020828403121561084b5761084a610cb6565b5b6000610859848285016107c6565b91505092915050565b600061086e8383610982565b60608301905092915050565b61088381610bdc565b82525050565b600061089482610b4c565b61089e8185610b64565b93506108a983610b3c565b8060005b838110156108da5781516108c18882610862565b97506108cc83610b57565b9250506001810190506108ad565b5085935050505092915050565b6108f081610bee565b82525050565b6000610903600383610b75565b915061090e82610ccc565b602082019050919050565b6000610926600383610b75565b915061093182610cf5565b602082019050919050565b6000610949600383610b75565b915061095482610d1e565b602082019050919050565b600061096c600383610b75565b915061097782610d47565b602082019050919050565b6060820160008201516109986000850182610a06565b5060208201516109ab60208501826108e7565b5060408201516109be6040850182610a06565b50505050565b6060820160008201516109da6000850182610a06565b5060208201516109ed60208501826108e7565b506040820151610a006040850182610a06565b50505050565b610a0f81610c18565b82525050565b610a1e81610c18565b82525050565b6000602082019050610a39600083018461087a565b92915050565b60006020820190508181036000830152610a598184610889565b905092915050565b60006020820190508181036000830152610a7a816108f6565b9050919050565b60006020820190508181036000830152610a9a81610919565b9050919050565b60006020820190508181036000830152610aba8161093c565b9050919050565b60006020820190508181036000830152610ada8161095f565b9050919050565b6000606082019050610af660008301846109c4565b92915050565b6000602082019050610b116000830184610a15565b92915050565b6000610b21610b32565b9050610b2d8282610c22565b919050565b6000604051905090565b6000819050602082019050919050565b600081519050919050565b6000602082019050919050565b600082825260208201905092915050565b600082825260208201905092915050565b6000610b9182610c18565b9150610b9c83610c18565b9250827fffffffffffffffffffffffffffffffffffffffffffffffffffffffffffffffff03821115610bd157610bd0610c53565b5b828201905092915050565b6000610be782610bf8565b9050919050565b6000819050919050565b600073ffffffffffffffffffffffffffffffffffffffff82169050919050565b6000819050919050565b610c2b82610cbb565b810181811067ffffffffffffffff82111715610c4a57610c49610c82565b5b80604052505050565b7f4e487b7100000000000000000000000000000000000000000000000000000000600052601160045260246000fd5b7f4e487b7100000000000000000000000000000000000000000000000000000000600052604160045260246000fd5b600080fd5b600080fd5b6000601f19601f8301169050919050565b7f3078330000000000000000000000000000000000000000000000000000000000600082015250565b7f3078340000000000000000000000000000000000000000000000000000000000600082015250565b7f3078310000000000000000000000000000000000000000000000000000000000600082015250565b7f3078320000000000000000000000000000000000000000000000000000000000600082015250565b610d7981610bdc565b8114610d8457600080fd5b50565b610d9081610bee565b8114610d9b57600080fd5b50565b610da781610c18565b8114610db257600080fd5b5056fea2646970667358221220677b7b492a23b01918c8a363a5645b0bac0d3948524d5f350fa6a59058f0f79164736f6c63430008070033",
					"opcodes": "PUSH1 0x80 PUSH1 0x40 MSTORE PUSH1 0x0 PUSH1 0x8 PUSH1 0x0 PUSH2 0x100 EXP DUP2 SLOAD DUP2 PUSH20 0xFFFFFFFFFFFFFFFFFFFFFFFFFFFFFFFFFFFFFFFF MUL NOT AND SWAP1 DUP4 PUSH20 0xFFFFFFFFFFFFFFFFFFFFFFFFFFFFFFFFFFFFFFFF AND MUL OR SWAP1 SSTORE POP PUSH1 0x0 PUSH1 0xA PUSH1 0x0 PUSH2 0x100 EXP DUP2 SLOAD DUP2 PUSH1 0xFF MUL NOT AND SWAP1 DUP4 ISZERO ISZERO MUL OR SWAP1 SSTORE POP CALLVALUE DUP1 ISZERO PUSH3 0x6E JUMPI PUSH1 0x0 DUP1 REVERT JUMPDEST POP PUSH1 0x40 MLOAD PUSH3 0x11CF CODESIZE SUB DUP1 PUSH3 0x11CF DUP4 CODECOPY DUP2 DUP2 ADD PUSH1 0x40 MSTORE DUP2 ADD SWAP1 PUSH3 0x94 SWAP2 SWAP1 PUSH3 0x20D JUMP JUMPDEST CALLER PUSH1 0x0 DUP1 PUSH2 0x100 EXP DUP2 SLOAD DUP2 PUSH20 0xFFFFFFFFFFFFFFFFFFFFFFFFFFFFFFFFFFFFFFFF MUL NOT AND SWAP1 DUP4 PUSH20 0xFFFFFFFFFFFFFFFFFFFFFFFFFFFFFFFFFFFFFFFF AND MUL OR SWAP1 SSTORE POP DUP5 PUSH1 0x1 PUSH1 0x0 PUSH2 0x100 EXP DUP2 SLOAD DUP2 PUSH20 0xFFFFFFFFFFFFFFFFFFFFFFFFFFFFFFFFFFFFFFFF MUL NOT AND SWAP1 DUP4 PUSH20 0xFFFFFFFFFFFFFFFFFFFFFFFFFFFFFFFFFFFFFFFF AND MUL OR SWAP1 SSTORE POP DUP4 PUSH1 0x2 PUSH1 0x0 DUP3 ADD MLOAD DUP2 PUSH1 0x0 ADD SSTORE PUSH1 0x20 DUP3 ADD MLOAD DUP2 PUSH1 0x1 ADD SSTORE PUSH1 0x40 DUP3 ADD MLOAD DUP2 PUSH1 0x2 ADD SSTORE SWAP1 POP POP DUP3 PUSH1 0x5 DUP2 SWAP1 SSTORE POP DUP2 PUSH1 0x6 DUP2 SWAP1 SSTORE POP DUP1 PUSH1 0x7 DUP2 SWAP1 SSTORE POP POP POP POP POP POP PUSH3 0x3D4 JUMP JUMPDEST PUSH1 0x0 DUP2 MLOAD SWAP1 POP PUSH3 0x16A DUP2 PUSH3 0x386 JUMP JUMPDEST SWAP3 SWAP2 POP POP JUMP JUMPDEST PUSH1 0x0 DUP2 MLOAD SWAP1 POP PUSH3 0x181 DUP2 PUSH3 0x3A0 JUMP JUMPDEST SWAP3 SWAP2 POP POP JUMP JUMPDEST PUSH1 0x0 PUSH1 0x60 DUP3 DUP5 SUB SLT ISZERO PUSH3 0x1A0 JUMPI PUSH3 0x19F PUSH3 0x36B JUMP JUMPDEST JUMPDEST PUSH3 0x1AC PUSH1 0x60 PUSH3 0x295 JUMP JUMPDEST SWAP1 POP PUSH1 0x0 PUSH3 0x1BE DUP5 DUP3 DUP6 ADD PUSH3 0x1F6 JUMP JUMPDEST PUSH1 0x0 DUP4 ADD MSTORE POP PUSH1 0x20 PUSH3 0x1D4 DUP5 DUP3 DUP6 ADD PUSH3 0x170 JUMP JUMPDEST PUSH1 0x20 DUP4 ADD MSTORE POP PUSH1 0x40 PUSH3 0x1EA DUP5 DUP3 DUP6 ADD PUSH3 0x1F6 JUMP JUMPDEST PUSH1 0x40 DUP4 ADD MSTORE POP SWAP3 SWAP2 POP POP JUMP JUMPDEST PUSH1 0x0 DUP2 MLOAD SWAP1 POP PUSH3 0x207 DUP2 PUSH3 0x3BA JUMP JUMPDEST SWAP3 SWAP2 POP POP JUMP JUMPDEST PUSH1 0x0 DUP1 PUSH1 0x0 DUP1 PUSH1 0x0 PUSH1 0xE0 DUP7 DUP9 SUB SLT ISZERO PUSH3 0x22C JUMPI PUSH3 0x22B PUSH3 0x370 JUMP JUMPDEST JUMPDEST PUSH1 0x0 PUSH3 0x23C DUP9 DUP3 DUP10 ADD PUSH3 0x159 JUMP JUMPDEST SWAP6 POP POP PUSH1 0x20 PUSH3 0x24F DUP9 DUP3 DUP10 ADD PUSH3 0x187 JUMP JUMPDEST SWAP5 POP POP PUSH1 0x80 PUSH3 0x262 DUP9 DUP3 DUP10 ADD PUSH3 0x1F6 JUMP JUMPDEST SWAP4 POP POP PUSH1 0xA0 PUSH3 0x275 DUP9 DUP3 DUP10 ADD PUSH3 0x1F6 JUMP JUMPDEST SWAP3 POP POP PUSH1 0xC0 PUSH3 0x288 DUP9 DUP3 DUP10 ADD PUSH3 0x1F6 JUMP JUMPDEST SWAP2 POP POP SWAP3 SWAP6 POP SWAP3 SWAP6 SWAP1 SWAP4 POP JUMP JUMPDEST PUSH1 0x0 PUSH3 0x2A1 PUSH3 0x2B4 JUMP JUMPDEST SWAP1 POP PUSH3 0x2AF DUP3 DUP3 PUSH3 0x306 JUMP JUMPDEST SWAP2 SWAP1 POP JUMP JUMPDEST PUSH1 0x0 PUSH1 0x40 MLOAD SWAP1 POP SWAP1 JUMP JUMPDEST PUSH1 0x0 PUSH3 0x2CB DUP3 PUSH3 0x2DC JUMP JUMPDEST SWAP1 POP SWAP2 SWAP1 POP JUMP JUMPDEST PUSH1 0x0 DUP2 SWAP1 POP SWAP2 SWAP1 POP JUMP JUMPDEST PUSH1 0x0 PUSH20 0xFFFFFFFFFFFFFFFFFFFFFFFFFFFFFFFFFFFFFFFF DUP3 AND SWAP1 POP SWAP2 SWAP1 POP JUMP JUMPDEST PUSH1 0x0 DUP2 SWAP1 POP SWAP2 SWAP1 POP JUMP JUMPDEST PUSH3 0x311 DUP3 PUSH3 0x375 JUMP JUMPDEST DUP2 ADD DUP2 DUP2 LT PUSH8 0xFFFFFFFFFFFFFFFF DUP3 GT OR ISZERO PUSH3 0x333 JUMPI PUSH3 0x332 PUSH3 0x33C JUMP JUMPDEST JUMPDEST DUP1 PUSH1 0x40 MSTORE POP POP POP JUMP JUMPDEST PUSH32 0x4E487B7100000000000000000000000000000000000000000000000000000000 PUSH1 0x0 MSTORE PUSH1 0x41 PUSH1 0x4 MSTORE PUSH1 0x24 PUSH1 0x0 REVERT JUMPDEST PUSH1 0x0 DUP1 REVERT JUMPDEST PUSH1 0x0 DUP1 REVERT JUMPDEST PUSH1 0x0 PUSH1 0x1F NOT PUSH1 0x1F DUP4 ADD AND SWAP1 POP SWAP2 SWAP1 POP JUMP JUMPDEST PUSH3 0x391 DUP2 PUSH3 0x2BE JUMP JUMPDEST DUP2 EQ PUSH3 0x39D JUMPI PUSH1 0x0 DUP1 REVERT JUMPDEST POP JUMP JUMPDEST PUSH3 0x3AB DUP2 PUSH3 0x2D2 JUMP JUMPDEST DUP2 EQ PUSH3 0x3B7 JUMPI PUSH1 0x0 DUP1 REVERT JUMPDEST POP JUMP JUMPDEST PUSH3 0x3C5 DUP2 PUSH3 0x2FC JUMP JUMPDEST DUP2 EQ PUSH3 0x3D1 JUMPI PUSH1 0x0 DUP1 REVERT JUMPDEST POP JUMP JUMPDEST PUSH2 0xDEB DUP1 PUSH3 0x3E4 PUSH1 0x0 CODECOPY PUSH1 0x0 RETURN INVALID PUSH1 0x80 PUSH1 0x40 MSTORE CALLVALUE DUP1 ISZERO PUSH2 0x10 JUMPI PUSH1 0x0 DUP1 REVERT JUMPDEST POP PUSH1 0x4 CALLDATASIZE LT PUSH2 0xB4 JUMPI PUSH1 0x0 CALLDATALOAD PUSH1 0xE0 SHR DUP1 PUSH4 0x73B0EB75 GT PUSH2 0x71 JUMPI DUP1 PUSH4 0x73B0EB75 EQ PUSH2 0x169 JUMPI DUP1 PUSH4 0x91051E80 EQ PUSH2 0x185 JUMPI DUP1 PUSH4 0x98D5FDCA EQ PUSH2 0x1A3 JUMPI DUP1 PUSH4 0xA5BFA746 EQ PUSH2 0x1C1 JUMPI DUP1 PUSH4 0xDB48CE0B EQ PUSH2 0x1CB JUMPI DUP1 PUSH4 0xFFEA0EF4 EQ PUSH2 0x1E9 JUMPI PUSH2 0xB4 JUMP JUMPDEST DUP1 PUSH4 0x1C3C0EA8 EQ PUSH2 0xB9 JUMPI DUP1 PUSH4 0x3D5E0515 EQ PUSH2 0xD5 JUMPI DUP1 PUSH4 0x50592ADF EQ PUSH2 0xF1 JUMPI DUP1 PUSH4 0x64A40642 EQ PUSH2 0x10F JUMPI DUP1 PUSH4 0x650D993B EQ PUSH2 0x12D JUMPI DUP1 PUSH4 0x6C1032AF EQ PUSH2 0x14B JUMPI JUMPDEST PUSH1 0x0 DUP1 REVERT JUMPDEST PUSH2 0xD3 PUSH1 0x4 DUP1 CALLDATASIZE SUB DUP2 ADD SWAP1 PUSH2 0xCE SWAP2 SWAP1 PUSH2 0x7DB JUMP JUMPDEST PUSH2 0x205 JUMP JUMPDEST STOP JUMPDEST PUSH2 0xEF PUSH1 0x4 DUP1 CALLDATASIZE SUB DUP2 ADD SWAP1 PUSH2 0xEA SWAP2 SWAP1 PUSH2 0x808 JUMP JUMPDEST PUSH2 0x2E2 JUMP JUMPDEST STOP JUMPDEST PUSH2 0xF9 PUSH2 0x339 JUMP JUMPDEST PUSH1 0x40 MLOAD PUSH2 0x106 SWAP2 SWAP1 PUSH2 0xA3F JUMP JUMPDEST PUSH1 0x40 MLOAD DUP1 SWAP2 SUB SWAP1 RETURN JUMPDEST PUSH2 0x117 PUSH2 0x49E JUMP JUMPDEST PUSH1 0x40 MLOAD PUSH2 0x124 SWAP2 SWAP1 PUSH2 0xAFC JUMP JUMPDEST PUSH1 0x40 MLOAD DUP1 SWAP2 SUB SWAP1 RETURN JUMPDEST PUSH2 0x135 PUSH2 0x4A8 JUMP JUMPDEST PUSH1 0x40 MLOAD PUSH2 0x142 SWAP2 SWAP1 PUSH2 0xA24 JUMP JUMPDEST PUSH1 0x40 MLOAD DUP1 SWAP2 SUB SWAP1 RETURN JUMPDEST PUSH2 0x153 PUSH2 0x4D2 JUMP JUMPDEST PUSH1 0x40 MLOAD PUSH2 0x160 SWAP2 SWAP1 PUSH2 0xA24 JUMP JUMPDEST PUSH1 0x40 MLOAD DUP1 SWAP2 SUB SWAP1 RETURN JUMPDEST PUSH2 0x183 PUSH1 0x4 DUP1 CALLDATASIZE SUB DUP2 ADD SWAP1 PUSH2 0x17E SWAP2 SWAP1 PUSH2 0x7DB JUMP JUMPDEST PUSH2 0x58D JUMP JUMPDEST STOP JUMPDEST PUSH2 0x18D PUSH2 0x5D8 JUMP JUMPDEST PUSH1 0x40 MLOAD PUSH2 0x19A SWAP2 SWAP1 PUSH2 0xAFC JUMP JUMPDEST PUSH1 0x40 MLOAD DUP1 SWAP2 SUB SWAP1 RETURN JUMPDEST PUSH2 0x1AB PUSH2 0x5E2 JUMP JUMPDEST PUSH1 0x40 MLOAD PUSH2 0x1B8 SWAP2 SWAP1 PUSH2 0xAFC JUMP JUMPDEST PUSH1 0x40 MLOAD DUP1 SWAP2 SUB SWAP1 RETURN JUMPDEST PUSH2 0x1C9 PUSH2 0x5EC JUMP JUMPDEST STOP JUMPDEST PUSH2 0x1D3 PUSH2 0x611 JUMP JUMPDEST PUSH1 0x40 MLOAD PUSH2 0x1E0 SWAP2 SWAP1 PUSH2 0xAE1 JUMP JUMPDEST PUSH1 0x40 MLOAD DUP1 SWAP2 SUB SWAP1 RETURN JUMPDEST PUSH2 0x203 PUSH1 0x4 DUP1 CALLDATASIZE SUB DUP2 ADD SWAP1 PUSH2 0x1FE SWAP2 SWAP1 PUSH2 0x835 JUMP JUMPDEST PUSH2 0x649 JUMP JUMPDEST STOP JUMPDEST PUSH2 0x20D PUSH2 0x66D JUMP JUMPDEST PUSH1 0x0 PUSH20 0xFFFFFFFFFFFFFFFFFFFFFFFFFFFFFFFFFFFFFFFF AND PUSH1 0x8 PUSH1 0x0 SWAP1 SLOAD SWAP1 PUSH2 0x100 EXP SWAP1 DIV PUSH20 0xFFFFFFFFFFFFFFFFFFFFFFFFFFFFFFFFFFFFFFFF AND PUSH20 0xFFFFFFFFFFFFFFFFFFFFFFFFFFFFFFFFFFFFFFFF AND EQ PUSH2 0x29E JUMPI PUSH1 0x40 MLOAD PUSH32 0x8C379A000000000000000000000000000000000000000000000000000000000 DUP2 MSTORE PUSH1 0x4 ADD PUSH2 0x295 SWAP1 PUSH2 0xA61 JUMP JUMPDEST PUSH1 0x40 MLOAD DUP1 SWAP2 SUB SWAP1 REVERT JUMPDEST DUP1 PUSH1 0x8 PUSH1 0x0 PUSH2 0x100 EXP DUP2 SLOAD DUP2 PUSH20 0xFFFFFFFFFFFFFFFFFFFFFFFFFFFFFFFFFFFFFFFF MUL NOT AND SWAP1 DUP4 PUSH20 0xFFFFFFFFFFFFFFFFFFFFFFFFFFFFFFFFFFFFFFFF AND MUL OR SWAP1 SSTORE POP POP JUMP JUMPDEST PUSH2 0x2EA PUSH2 0x66D JUMP JUMPDEST PUSH1 0x9 DUP2 SWAP1 DUP1 PUSH1 0x1 DUP2 SLOAD ADD DUP1 DUP3 SSTORE DUP1 SWAP2 POP POP PUSH1 0x1 SWAP1 SUB SWAP1 PUSH1 0x0 MSTORE PUSH1 0x20 PUSH1 0x0 KECCAK256 SWAP1 PUSH1 0x3 MUL ADD PUSH1 0x0 SWAP1 SWAP2 SWAP1 SWAP2 SWAP1 SWAP2 POP PUSH1 0x0 DUP3 ADD MLOAD DUP2 PUSH1 0x0 ADD SSTORE PUSH1 0x20 DUP3 ADD MLOAD DUP2 PUSH1 0x1 ADD SSTORE PUSH1 0x40 DUP3 ADD MLOAD DUP2 PUSH1 0x2 ADD SSTORE POP POP POP JUMP JUMPDEST PUSH1 0x60 PUSH1 0x1 PUSH1 0x0 SWAP1 SLOAD SWAP1 PUSH2 0x100 EXP SWAP1 DIV PUSH20 0xFFFFFFFFFFFFFFFFFFFFFFFFFFFFFFFFFFFFFFFF AND PUSH20 0xFFFFFFFFFFFFFFFFFFFFFFFFFFFFFFFFFFFFFFFF AND ORIGIN PUSH20 0xFFFFFFFFFFFFFFFFFFFFFFFFFFFFFFFFFFFFFFFF AND EQ DUP1 PUSH2 0x3E4 JUMPI POP PUSH1 0x8 PUSH1 0x0 SWAP1 SLOAD SWAP1 PUSH2 0x100 EXP SWAP1 DIV PUSH20 0xFFFFFFFFFFFFFFFFFFFFFFFFFFFFFFFFFFFFFFFF AND PUSH20 0xFFFFFFFFFFFFFFFFFFFFFFFFFFFFFFFFFFFFFFFF AND ORIGIN PUSH20 0xFFFFFFFFFFFFFFFFFFFFFFFFFFFFFFFFFFFFFFFF AND EQ JUMPDEST PUSH2 0x423 JUMPI PUSH1 0x40 MLOAD PUSH32 0x8C379A000000000000000000000000000000000000000000000000000000000 DUP2 MSTORE PUSH1 0x4 ADD PUSH2 0x41A SWAP1 PUSH2 0xAC1 JUMP JUMPDEST PUSH1 0x40 MLOAD DUP1 SWAP2 SUB SWAP1 REVERT JUMPDEST PUSH1 0x9 DUP1 SLOAD DUP1 PUSH1 0x20 MUL PUSH1 0x20 ADD PUSH1 0x40 MLOAD SWAP1 DUP2 ADD PUSH1 0x40 MSTORE DUP1 SWAP3 SWAP2 SWAP1 DUP2 DUP2 MSTORE PUSH1 0x20 ADD PUSH1 0x0 SWAP1 JUMPDEST DUP3 DUP3 LT ISZERO PUSH2 0x495 JUMPI DUP4 DUP3 SWAP1 PUSH1 0x0 MSTORE PUSH1 0x20 PUSH1 0x0 KECCAK256 SWAP1 PUSH1 0x3 MUL ADD PUSH1 0x40 MLOAD DUP1 PUSH1 0x60 ADD PUSH1 0x40 MSTORE SWAP1 DUP2 PUSH1 0x0 DUP3 ADD SLOAD DUP2 MSTORE PUSH1 0x20 ADD PUSH1 0x1 DUP3 ADD SLOAD DUP2 MSTORE PUSH1 0x20 ADD PUSH1 0x2 DUP3 ADD SLOAD DUP2 MSTORE POP POP DUP2 MSTORE PUSH1 0x20 ADD SWAP1 PUSH1 0x1 ADD SWAP1 PUSH2 0x445 JUMP JUMPDEST POP POP POP POP SWAP1 POP SWAP1 JUMP JUMPDEST PUSH1 0x0 PUSH1 0x7 SLOAD SWAP1 POP SWAP1 JUMP JUMPDEST PUSH1 0x0 PUSH1 0x1 PUSH1 0x0 SWAP1 SLOAD SWAP1 PUSH2 0x100 EXP SWAP1 DIV PUSH20 0xFFFFFFFFFFFFFFFFFFFFFFFFFFFFFFFFFFFFFFFF AND SWAP1 POP SWAP1 JUMP JUMPDEST PUSH1 0x0 DUP1 PUSH20 0xFFFFFFFFFFFFFFFFFFFFFFFFFFFFFFFFFFFFFFFF AND PUSH1 0x8 PUSH1 0x0 SWAP1 SLOAD SWAP1 PUSH2 0x100 EXP SWAP1 DIV PUSH20 0xFFFFFFFFFFFFFFFFFFFFFFFFFFFFFFFFFFFFFFFF AND PUSH20 0xFFFFFFFFFFFFFFFFFFFFFFFFFFFFFFFFFFFFFFFF AND EQ ISZERO PUSH2 0x565 JUMPI PUSH1 0x40 MLOAD PUSH32 0x8C379A000000000000000000000000000000000000000000000000000000000 DUP2 MSTORE PUSH1 0x4 ADD PUSH2 0x55C SWAP1 PUSH2 0xAA1 JUMP JUMPDEST PUSH1 0x40 MLOAD DUP1 SWAP2 SUB SWAP1 REVERT JUMPDEST PUSH1 0x8 PUSH1 0x0 SWAP1 SLOAD SWAP1 PUSH2 0x100 EXP SWAP1 DIV PUSH20 0xFFFFFFFFFFFFFFFFFFFFFFFFFFFFFFFFFFFFFFFF AND SWAP1 POP SWAP1 JUMP JUMPDEST PUSH2 0x595 PUSH2 0x66D JUMP JUMPDEST DUP1 PUSH1 0x0 DUP1 PUSH2 0x100 EXP DUP2 SLOAD DUP2 PUSH20 0xFFFFFFFFFFFFFFFFFFFFFFFFFFFFFFFFFFFFFFFF MUL NOT AND SWAP1 DUP4 PUSH20 0xFFFFFFFFFFFFFFFFFFFFFFFFFFFFFFFFFFFFFFFF AND MUL OR SWAP1 SSTORE POP POP JUMP JUMPDEST PUSH1 0x0 PUSH1 0x5 SLOAD SWAP1 POP SWAP1 JUMP JUMPDEST PUSH1 0x0 PUSH1 0x6 SLOAD SWAP1 POP SWAP1 JUMP JUMPDEST PUSH2 0x5F4 PUSH2 0x66D JUMP JUMPDEST PUSH1 0x1 PUSH1 0xA PUSH1 0x0 PUSH2 0x100 EXP DUP2 SLOAD DUP2 PUSH1 0xFF MUL NOT AND SWAP1 DUP4 ISZERO ISZERO MUL OR SWAP1 SSTORE POP JUMP JUMPDEST PUSH2 0x619 PUSH2 0x714 JUMP JUMPDEST PUSH1 0x2 PUSH1 0x40 MLOAD DUP1 PUSH1 0x60 ADD PUSH1 0x40 MSTORE SWAP1 DUP2 PUSH1 0x0 DUP3 ADD SLOAD DUP2 MSTORE PUSH1 0x20 ADD PUSH1 0x1 DUP3 ADD SLOAD DUP2 MSTORE PUSH1 0x20 ADD PUSH1 0x2 DUP3 ADD SLOAD DUP2 MSTORE POP POP SWAP1 POP SWAP1 JUMP JUMPDEST PUSH2 0x651 PUSH2 0x66D JUMP JUMPDEST DUP1 PUSH1 0x5 PUSH1 0x0 DUP3 DUP3 SLOAD PUSH2 0x663 SWAP2 SWAP1 PUSH2 0xB86 JUMP JUMPDEST SWAP3 POP POP DUP2 SWAP1 SSTORE POP POP JUMP JUMPDEST PUSH1 0x0 DUP1 SLOAD SWAP1 PUSH2 0x100 EXP SWAP1 DIV PUSH20 0xFFFFFFFFFFFFFFFFFFFFFFFFFFFFFFFFFFFFFFFF AND PUSH20 0xFFFFFFFFFFFFFFFFFFFFFFFFFFFFFFFFFFFFFFFF AND CALLER PUSH20 0xFFFFFFFFFFFFFFFFFFFFFFFFFFFFFFFFFFFFFFFF AND EQ DUP1 PUSH2 0x6D3 JUMPI POP PUSH1 0xA PUSH1 0x0 SWAP1 SLOAD SWAP1 PUSH2 0x100 EXP SWAP1 DIV PUSH1 0xFF AND JUMPDEST PUSH2 0x712 JUMPI PUSH1 0x40 MLOAD PUSH32 0x8C379A000000000000000000000000000000000000000000000000000000000 DUP2 MSTORE PUSH1 0x4 ADD PUSH2 0x709 SWAP1 PUSH2 0xA81 JUMP JUMPDEST PUSH1 0x40 MLOAD DUP1 SWAP2 SUB SWAP1 REVERT JUMPDEST JUMP JUMPDEST PUSH1 0x40 MLOAD DUP1 PUSH1 0x60 ADD PUSH1 0x40 MSTORE DUP1 PUSH1 0x0 DUP2 MSTORE PUSH1 0x20 ADD PUSH1 0x0 DUP1 NOT AND DUP2 MSTORE PUSH1 0x20 ADD PUSH1 0x0 DUP2 MSTORE POP SWAP1 JUMP JUMPDEST PUSH1 0x0 DUP2 CALLDATALOAD SWAP1 POP PUSH2 0x747 DUP2 PUSH2 0xD70 JUMP JUMPDEST SWAP3 SWAP2 POP POP JUMP JUMPDEST PUSH1 0x0 DUP2 CALLDATALOAD SWAP1 POP PUSH2 0x75C DUP2 PUSH2 0xD87 JUMP JUMPDEST SWAP3 SWAP2 POP POP JUMP JUMPDEST PUSH1 0x0 PUSH1 0x60 DUP3 DUP5 SUB SLT ISZERO PUSH2 0x778 JUMPI PUSH2 0x777 PUSH2 0xCB1 JUMP JUMPDEST JUMPDEST PUSH2 0x782 PUSH1 0x60 PUSH2 0xB17 JUMP JUMPDEST SWAP1 POP PUSH1 0x0 PUSH2 0x792 DUP5 DUP3 DUP6 ADD PUSH2 0x7C6 JUMP JUMPDEST PUSH1 0x0 DUP4 ADD MSTORE POP PUSH1 0x20 PUSH2 0x7A6 DUP5 DUP3 DUP6 ADD PUSH2 0x74D JUMP JUMPDEST PUSH1 0x20 DUP4 ADD MSTORE POP PUSH1 0x40 PUSH2 0x7BA DUP5 DUP3 DUP6 ADD PUSH2 0x7C6 JUMP JUMPDEST PUSH1 0x40 DUP4 ADD MSTORE POP SWAP3 SWAP2 POP POP JUMP JUMPDEST PUSH1 0x0 DUP2 CALLDATALOAD SWAP1 POP PUSH2 0x7D5 DUP2 PUSH2 0xD9E JUMP JUMPDEST SWAP3 SWAP2 POP POP JUMP JUMPDEST PUSH1 0x0 PUSH1 0x20 DUP3 DUP5 SUB SLT ISZERO PUSH2 0x7F1 JUMPI PUSH2 0x7F0 PUSH2 0xCB6 JUMP JUMPDEST JUMPDEST PUSH1 0x0 PUSH2 0x7FF DUP5 DUP3 DUP6 ADD PUSH2 0x738 JUMP JUMPDEST SWAP2 POP POP SWAP3 SWAP2 POP POP JUMP JUMPDEST PUSH1 0x0 PUSH1 0x60 DUP3 DUP5 SUB SLT ISZERO PUSH2 0x81E JUMPI PUSH2 0x81D PUSH2 0xCB6 JUMP JUMPDEST JUMPDEST PUSH1 0x0 PUSH2 0x82C DUP5 DUP3 DUP6 ADD PUSH2 0x762 JUMP JUMPDEST SWAP2 POP POP SWAP3 SWAP2 POP POP JUMP JUMPDEST PUSH1 0x0 PUSH1 0x20 DUP3 DUP5 SUB SLT ISZERO PUSH2 0x84B JUMPI PUSH2 0x84A PUSH2 0xCB6 JUMP JUMPDEST JUMPDEST PUSH1 0x0 PUSH2 0x859 DUP5 DUP3 DUP6 ADD PUSH2 0x7C6 JUMP JUMPDEST SWAP2 POP POP SWAP3 SWAP2 POP POP JUMP JUMPDEST PUSH1 0x0 PUSH2 0x86E DUP4 DUP4 PUSH2 0x982 JUMP JUMPDEST PUSH1 0x60 DUP4 ADD SWAP1 POP SWAP3 SWAP2 POP POP JUMP JUMPDEST PUSH2 0x883 DUP2 PUSH2 0xBDC JUMP JUMPDEST DUP3 MSTORE POP POP JUMP JUMPDEST PUSH1 0x0 PUSH2 0x894 DUP3 PUSH2 0xB4C JUMP JUMPDEST PUSH2 0x89E DUP2 DUP6 PUSH2 0xB64 JUMP JUMPDEST SWAP4 POP PUSH2 0x8A9 DUP4 PUSH2 0xB3C JUMP JUMPDEST DUP1 PUSH1 0x0 JUMPDEST DUP4 DUP2 LT ISZERO PUSH2 0x8DA JUMPI DUP2 MLOAD PUSH2 0x8C1 DUP9 DUP3 PUSH2 0x862 JUMP JUMPDEST SWAP8 POP PUSH2 0x8CC DUP4 PUSH2 0xB57 JUMP JUMPDEST SWAP3 POP POP PUSH1 0x1 DUP2 ADD SWAP1 POP PUSH2 0x8AD JUMP JUMPDEST POP DUP6 SWAP4 POP POP POP POP SWAP3 SWAP2 POP POP JUMP JUMPDEST PUSH2 0x8F0 DUP2 PUSH2 0xBEE JUMP JUMPDEST DUP3 MSTORE POP POP JUMP JUMPDEST PUSH1 0x0 PUSH2 0x903 PUSH1 0x3 DUP4 PUSH2 0xB75 JUMP JUMPDEST SWAP2 POP PUSH2 0x90E DUP3 PUSH2 0xCCC JUMP JUMPDEST PUSH1 0x20 DUP3 ADD SWAP1 POP SWAP2 SWAP1 POP JUMP JUMPDEST PUSH1 0x0 PUSH2 0x926 PUSH1 0x3 DUP4 PUSH2 0xB75 JUMP JUMPDEST SWAP2 POP PUSH2 0x931 DUP3 PUSH2 0xCF5 JUMP JUMPDEST PUSH1 0x20 DUP3 ADD SWAP1 POP SWAP2 SWAP1 POP JUMP JUMPDEST PUSH1 0x0 PUSH2 0x949 PUSH1 0x3 DUP4 PUSH2 0xB75 JUMP JUMPDEST SWAP2 POP PUSH2 0x954 DUP3 PUSH2 0xD1E JUMP JUMPDEST PUSH1 0x20 DUP3 ADD SWAP1 POP SWAP2 SWAP1 POP JUMP JUMPDEST PUSH1 0x0 PUSH2 0x96C PUSH1 0x3 DUP4 PUSH2 0xB75 JUMP JUMPDEST SWAP2 POP PUSH2 0x977 DUP3 PUSH2 0xD47 JUMP JUMPDEST PUSH1 0x20 DUP3 ADD SWAP1 POP SWAP2 SWAP1 POP JUMP JUMPDEST PUSH1 0x60 DUP3 ADD PUSH1 0x0 DUP3 ADD MLOAD PUSH2 0x998 PUSH1 0x0 DUP6 ADD DUP3 PUSH2 0xA06 JUMP JUMPDEST POP PUSH1 0x20 DUP3 ADD MLOAD PUSH2 0x9AB PUSH1 0x20 DUP6 ADD DUP3 PUSH2 0x8E7 JUMP JUMPDEST POP PUSH1 0x40 DUP3 ADD MLOAD PUSH2 0x9BE PUSH1 0x40 DUP6 ADD DUP3 PUSH2 0xA06 JUMP JUMPDEST POP POP POP POP JUMP JUMPDEST PUSH1 0x60 DUP3 ADD PUSH1 0x0 DUP3 ADD MLOAD PUSH2 0x9DA PUSH1 0x0 DUP6 ADD DUP3 PUSH2 0xA06 JUMP JUMPDEST POP PUSH1 0x20 DUP3 ADD MLOAD PUSH2 0x9ED PUSH1 0x20 DUP6 ADD DUP3 PUSH2 0x8E7 JUMP JUMPDEST POP PUSH1 0x40 DUP3 ADD MLOAD PUSH2 0xA00 PUSH1 0x40 DUP6 ADD DUP3 PUSH2 0xA06 JUMP JUMPDEST POP POP POP POP JUMP JUMPDEST PUSH2 0xA0F DUP2 PUSH2 0xC18 JUMP JUMPDEST DUP3 MSTORE POP POP JUMP JUMPDEST PUSH2 0xA1E DUP2 PUSH2 0xC18 JUMP JUMPDEST DUP3 MSTORE POP POP JUMP JUMPDEST PUSH1 0x0 PUSH1 0x20 DUP3 ADD SWAP1 POP PUSH2 0xA39 PUSH1 0x0 DUP4 ADD DUP5 PUSH2 0x87A JUMP JUMPDEST SWAP3 SWAP2 POP POP JUMP JUMPDEST PUSH1 0x0 PUSH1 0x20 DUP3 ADD SWAP1 POP DUP2 DUP2 SUB PUSH1 0x0 DUP4 ADD MSTORE PUSH2 0xA59 DUP2 DUP5 PUSH2 0x889 JUMP JUMPDEST SWAP1 POP SWAP3 SWAP2 POP POP JUMP JUMPDEST PUSH1 0x0 PUSH1 0x20 DUP3 ADD SWAP1 POP DUP2 DUP2 SUB PUSH1 0x0 DUP4 ADD MSTORE PUSH2 0xA7A DUP2 PUSH2 0x8F6 JUMP JUMPDEST SWAP1 POP SWAP2 SWAP1 POP JUMP JUMPDEST PUSH1 0x0 PUSH1 0x20 DUP3 ADD SWAP1 POP DUP2 DUP2 SUB PUSH1 0x0 DUP4 ADD MSTORE PUSH2 0xA9A DUP2 PUSH2 0x919 JUMP JUMPDEST SWAP1 POP SWAP2 SWAP1 POP JUMP JUMPDEST PUSH1 0x0 PUSH1 0x20 DUP3 ADD SWAP1 POP DUP2 DUP2 SUB PUSH1 0x0 DUP4 ADD MSTORE PUSH2 0xABA DUP2 PUSH2 0x93C JUMP JUMPDEST SWAP1 POP SWAP2 SWAP1 POP JUMP JUMPDEST PUSH1 0x0 PUSH1 0x20 DUP3 ADD SWAP1 POP DUP2 DUP2 SUB PUSH1 0x0 DUP4 ADD MSTORE PUSH2 0xADA DUP2 PUSH2 0x95F JUMP JUMPDEST SWAP1 POP SWAP2 SWAP1 POP JUMP JUMPDEST PUSH1 0x0 PUSH1 0x60 DUP3 ADD SWAP1 POP PUSH2 0xAF6 PUSH1 0x0 DUP4 ADD DUP5 PUSH2 0x9C4 JUMP JUMPDEST SWAP3 SWAP2 POP POP JUMP JUMPDEST PUSH1 0x0 PUSH1 0x20 DUP3 ADD SWAP1 POP PUSH2 0xB11 PUSH1 0x0 DUP4 ADD DUP5 PUSH2 0xA15 JUMP JUMPDEST SWAP3 SWAP2 POP POP JUMP JUMPDEST PUSH1 0x0 PUSH2 0xB21 PUSH2 0xB32 JUMP JUMPDEST SWAP1 POP PUSH2 0xB2D DUP3 DUP3 PUSH2 0xC22 JUMP JUMPDEST SWAP2 SWAP1 POP JUMP JUMPDEST PUSH1 0x0 PUSH1 0x40 MLOAD SWAP1 POP SWAP1 JUMP JUMPDEST PUSH1 0x0 DUP2 SWAP1 POP PUSH1 0x20 DUP3 ADD SWAP1 POP SWAP2 SWAP1 POP JUMP JUMPDEST PUSH1 0x0 DUP2 MLOAD SWAP1 POP SWAP2 SWAP1 POP JUMP JUMPDEST PUSH1 0x0 PUSH1 0x20 DUP3 ADD SWAP1 POP SWAP2 SWAP1 POP JUMP JUMPDEST PUSH1 0x0 DUP3 DUP3 MSTORE PUSH1 0x20 DUP3 ADD SWAP1 POP SWAP3 SWAP2 POP POP JUMP JUMPDEST PUSH1 0x0 DUP3 DUP3 MSTORE PUSH1 0x20 DUP3 ADD SWAP1 POP SWAP3 SWAP2 POP POP JUMP JUMPDEST PUSH1 0x0 PUSH2 0xB91 DUP3 PUSH2 0xC18 JUMP JUMPDEST SWAP2 POP PUSH2 0xB9C DUP4 PUSH2 0xC18 JUMP JUMPDEST SWAP3 POP DUP3 PUSH32 0xFFFFFFFFFFFFFFFFFFFFFFFFFFFFFFFFFFFFFFFFFFFFFFFFFFFFFFFFFFFFFFFF SUB DUP3 GT ISZERO PUSH2 0xBD1 JUMPI PUSH2 0xBD0 PUSH2 0xC53 JUMP JUMPDEST JUMPDEST DUP3 DUP3 ADD SWAP1 POP SWAP3 SWAP2 POP POP JUMP JUMPDEST PUSH1 0x0 PUSH2 0xBE7 DUP3 PUSH2 0xBF8 JUMP JUMPDEST SWAP1 POP SWAP2 SWAP1 POP JUMP JUMPDEST PUSH1 0x0 DUP2 SWAP1 POP SWAP2 SWAP1 POP JUMP JUMPDEST PUSH1 0x0 PUSH20 0xFFFFFFFFFFFFFFFFFFFFFFFFFFFFFFFFFFFFFFFF DUP3 AND SWAP1 POP SWAP2 SWAP1 POP JUMP JUMPDEST PUSH1 0x0 DUP2 SWAP1 POP SWAP2 SWAP1 POP JUMP JUMPDEST PUSH2 0xC2B DUP3 PUSH2 0xCBB JUMP JUMPDEST DUP2 ADD DUP2 DUP2 LT PUSH8 0xFFFFFFFFFFFFFFFF DUP3 GT OR ISZERO PUSH2 0xC4A JUMPI PUSH2 0xC49 PUSH2 0xC82 JUMP JUMPDEST JUMPDEST DUP1 PUSH1 0x40 MSTORE POP POP POP JUMP JUMPDEST PUSH32 0x4E487B7100000000000000000000000000000000000000000000000000000000 PUSH1 0x0 MSTORE PUSH1 0x11 PUSH1 0x4 MSTORE PUSH1 0x24 PUSH1 0x0 REVERT JUMPDEST PUSH32 0x4E487B7100000000000000000000000000000000000000000000000000000000 PUSH1 0x0 MSTORE PUSH1 0x41 PUSH1 0x4 MSTORE PUSH1 0x24 PUSH1 0x0 REVERT JUMPDEST PUSH1 0x0 DUP1 REVERT JUMPDEST PUSH1 0x0 DUP1 REVERT JUMPDEST PUSH1 0x0 PUSH1 0x1F NOT PUSH1 0x1F DUP4 ADD AND SWAP1 POP SWAP2 SWAP1 POP JUMP JUMPDEST PUSH32 0x3078330000000000000000000000000000000000000000000000000000000000 PUSH1 0x0 DUP3 ADD MSTORE POP JUMP JUMPDEST PUSH32 0x3078340000000000000000000000000000000000000000000000000000000000 PUSH1 0x0 DUP3 ADD MSTORE POP JUMP JUMPDEST PUSH32 0x3078310000000000000000000000000000000000000000000000000000000000 PUSH1 0x0 DUP3 ADD MSTORE POP JUMP JUMPDEST PUSH32 0x3078320000000000000000000000000000000000000000000000000000000000 PUSH1 0x0 DUP3 ADD MSTORE POP JUMP JUMPDEST PUSH2 0xD79 DUP2 PUSH2 0xBDC JUMP JUMPDEST DUP2 EQ PUSH2 0xD84 JUMPI PUSH1 0x0 DUP1 REVERT JUMPDEST POP JUMP JUMPDEST PUSH2 0xD90 DUP2 PUSH2 0xBEE JUMP JUMPDEST DUP2 EQ PUSH2 0xD9B JUMPI PUSH1 0x0 DUP1 REVERT JUMPDEST POP JUMP JUMPDEST PUSH2 0xDA7 DUP2 PUSH2 0xC18 JUMP JUMPDEST DUP2 EQ PUSH2 0xDB2 JUMPI PUSH1 0x0 DUP1 REVERT JUMPDEST POP JUMP INVALID LOG2 PUSH5 0x6970667358 0x22 SLT KECCAK256 PUSH8 0x7B7B492A23B01918 0xC8 LOG3 PUSH4 0xA5645B0B 0xAC 0xD CODECOPY BASEFEE MSTORE 0x4D 0x5F CALLDATALOAD 0xF 0xA6 0xA5 SWAP1 PC CREATE 0xF7 SWAP2 PUSH5 0x736F6C6343 STOP ADDMOD SMOD STOP CALLER "
				},
				"gasEstimates": {
					"creation": {
						"codeDepositCost": "712600",
						"executionCost": "infinite",
						"totalCost": "infinite"
					},
					"external": {
						"addSolution((uint256,bytes32,uint256))": "infinite",
						"addTaskExecutionTime(uint256)": "infinite",
						"getCustomer()": "2611",
						"getExecutor()": "4807",
						"getPrice()": "2481",
						"getSecurityDeposit()": "2504",
						"getSolution()": "infinite",
						"getTaskData()": "infinite",
						"getTaskExecutionTime()": "2459",
						"grantPublicAccess()": "28826",
						"setExecutor(address)": "31243",
						"setNewMasterSmartContract(address)": "29071"
					},
					"internal": {
						"checkSender()": "infinite"
					}
				},
				"methodIdentifiers": {
					"addSolution((uint256,bytes32,uint256))": "3d5e0515",
					"addTaskExecutionTime(uint256)": "ffea0ef4",
					"getCustomer()": "650d993b",
					"getExecutor()": "6c1032af",
					"getPrice()": "98d5fdca",
					"getSecurityDeposit()": "64a40642",
					"getSolution()": "50592adf",
					"getTaskData()": "db48ce0b",
					"getTaskExecutionTime()": "91051e80",
					"grantPublicAccess()": "a5bfa746",
					"setExecutor(address)": "1c3c0ea8",
					"setNewMasterSmartContract(address)": "73b0eb75"
				}
			},
			"storageLayout": {
				"storage": [
					{
						"astId": 150,
						"contract": "contracts_new/TaskInfo.sol:TaskInfo",
						"label": "masterSmartContractAddress",
						"offset": 0,
						"slot": "0",
						"type": "t_address"
					},
					{
						"astId": 152,
						"contract": "contracts_new/TaskInfo.sol:TaskInfo",
						"label": "customer",
						"offset": 0,
						"slot": "1",
						"type": "t_address"
					},
					{
						"astId": 155,
						"contract": "contracts_new/TaskInfo.sol:TaskInfo",
						"label": "taskData",
						"offset": 0,
						"slot": "2",
						"type": "t_struct(TaskData)444_storage"
					},
					{
						"astId": 157,
						"contract": "contracts_new/TaskInfo.sol:TaskInfo",
						"label": "taskExecutionTime",
						"offset": 0,
						"slot": "5",
						"type": "t_uint256"
					},
					{
						"astId": 159,
						"contract": "contracts_new/TaskInfo.sol:TaskInfo",
						"label": "price",
						"offset": 0,
						"slot": "6",
						"type": "t_uint256"
					},
					{
						"astId": 161,
						"contract": "contracts_new/TaskInfo.sol:TaskInfo",
						"label": "securityDeposit",
						"offset": 0,
						"slot": "7",
						"type": "t_uint256"
					},
					{
						"astId": 167,
						"contract": "contracts_new/TaskInfo.sol:TaskInfo",
						"label": "executor",
						"offset": 0,
						"slot": "8",
						"type": "t_address"
					},
					{
						"astId": 171,
						"contract": "contracts_new/TaskInfo.sol:TaskInfo",
						"label": "solution",
						"offset": 0,
						"slot": "9",
						"type": "t_array(t_struct(SolutionData)451_storage)dyn_storage"
					},
					{
						"astId": 174,
						"contract": "contracts_new/TaskInfo.sol:TaskInfo",
						"label": "publicAccess",
						"offset": 0,
						"slot": "10",
						"type": "t_bool"
					}
				],
				"types": {
					"t_address": {
						"encoding": "inplace",
						"label": "address",
						"numberOfBytes": "20"
					},
					"t_array(t_struct(SolutionData)451_storage)dyn_storage": {
						"base": "t_struct(SolutionData)451_storage",
						"encoding": "dynamic_array",
						"label": "struct utils.SolutionData[]",
						"numberOfBytes": "32"
					},
					"t_bool": {
						"encoding": "inplace",
						"label": "bool",
						"numberOfBytes": "1"
					},
					"t_bytes32": {
						"encoding": "inplace",
						"label": "bytes32",
						"numberOfBytes": "32"
					},
					"t_struct(SolutionData)451_storage": {
						"encoding": "inplace",
						"label": "struct utils.SolutionData",
						"members": [
							{
								"astId": 446,
								"contract": "contracts_new/TaskInfo.sol:TaskInfo",
								"label": "id",
								"offset": 0,
								"slot": "0",
								"type": "t_uint256"
							},
							{
								"astId": 448,
								"contract": "contracts_new/TaskInfo.sol:TaskInfo",
								"label": "sha256hashsum",
								"offset": 0,
								"slot": "1",
								"type": "t_bytes32"
							},
							{
								"astId": 450,
								"contract": "contracts_new/TaskInfo.sol:TaskInfo",
								"label": "timestamp",
								"offset": 0,
								"slot": "2",
								"type": "t_uint256"
							}
						],
						"numberOfBytes": "96"
					},
					"t_struct(TaskData)444_storage": {
						"encoding": "inplace",
						"label": "struct utils.TaskData",
						"members": [
							{
								"astId": 439,
								"contract": "contracts_new/TaskInfo.sol:TaskInfo",
								"label": "id",
								"offset": 0,
								"slot": "0",
								"type": "t_uint256"
							},
							{
								"astId": 441,
								"contract": "contracts_new/TaskInfo.sol:TaskInfo",
								"label": "sha256hashsum",
								"offset": 0,
								"slot": "1",
								"type": "t_bytes32"
							},
							{
								"astId": 443,
								"contract": "contracts_new/TaskInfo.sol:TaskInfo",
								"label": "timestamp",
								"offset": 0,
								"slot": "2",
								"type": "t_uint256"
							}
						],
						"numberOfBytes": "96"
					},
					"t_uint256": {
						"encoding": "inplace",
						"label": "uint256",
						"numberOfBytes": "32"
					}
				}
			},
			"userdoc": {
				"kind": "user",
				"methods": {},
				"version": 1
			}
		}
	}
}