{
	"contracts_new/utils.sol": {
		"utils": {
			"abi": [
				{
					"inputs": [],
					"name": "COMPANY_ADDRESS",
					"outputs": [
						{
							"internalType": "address",
							"name": "",
							"type": "address"
						}
					],
					"stateMutability": "view",
					"type": "function"
				},
				{
					"inputs": [],
					"name": "COMPANY_FEE_PERCENT",
					"outputs": [
						{
							"internalType": "uint8",
							"name": "",
							"type": "uint8"
						}
					],
					"stateMutability": "view",
					"type": "function"
				},
				{
					"inputs": [],
					"name": "MIN_JUDGMENT_TIME",
					"outputs": [
						{
							"internalType": "uint256",
							"name": "",
							"type": "uint256"
						}
					],
					"stateMutability": "view",
					"type": "function"
				},
				{
					"inputs": [],
					"name": "PRICE_THRESHOLD",
					"outputs": [
						{
							"internalType": "uint256",
							"name": "",
							"type": "uint256"
						}
					],
					"stateMutability": "view",
					"type": "function"
				},
				{
					"inputs": [],
					"name": "TOKEN",
					"outputs": [
						{
							"internalType": "contract IERC20",
							"name": "",
							"type": "IERC20"
						}
					],
					"stateMutability": "view",
					"type": "function"
				}
			],
			"devdoc": {
				"kind": "dev",
				"methods": {},
				"version": 1
			},
			"evm": {
				"assembly": "    /* \"contracts_new/utils.sol\":122:1146  library utils {\r... */\n  dataSize(sub_0)\n  dataOffset(sub_0)\n  0x0b\n  dup3\n  dup3\n  dup3\n  codecopy\n  dup1\n  mload\n  0x00\n  byte\n  0x73\n  eq\n  tag_1\n  jumpi\n  mstore(0x00, 0x4e487b7100000000000000000000000000000000000000000000000000000000)\n  mstore(0x04, 0x00)\n  revert(0x00, 0x24)\ntag_1:\n  mstore(0x00, address)\n  0x73\n  dup2\n  mstore8\n  dup3\n  dup2\n  return\nstop\n\nsub_0: assembly {\n        /* \"contracts_new/utils.sol\":122:1146  library utils {\r... */\n      eq(address, deployTimeAddress())\n      mstore(0x40, 0x80)\n      jumpi(tag_1, lt(calldatasize, 0x04))\n      shr(0xe0, calldataload(0x00))\n      dup1\n      0x34379814\n      eq\n      tag_2\n      jumpi\n      dup1\n      0x4258c880\n      eq\n      tag_3\n      jumpi\n      dup1\n      0x5ed4c4dd\n      eq\n      tag_4\n      jumpi\n      dup1\n      0x82bfefc8\n      eq\n      tag_5\n      jumpi\n      dup1\n      0xbb8e5012\n      eq\n      tag_6\n      jumpi\n    tag_1:\n      0x00\n      dup1\n      revert\n        /* \"contracts_new/utils.sol\":416:470  uint constant public MIN_JUDGMENT_TIME = 1 minutes - 1 */\n    tag_2:\n      tag_7\n      tag_8\n      jump\t// in\n    tag_7:\n      mload(0x40)\n      tag_9\n      swap2\n      swap1\n      tag_10\n      jump\t// in\n    tag_9:\n      mload(0x40)\n      dup1\n      swap2\n      sub\n      swap1\n      return\n        /* \"contracts_new/utils.sol\":299:344  uint8 constant public COMPANY_FEE_PERCENT = 1 */\n    tag_3:\n      tag_11\n      tag_12\n      jump\t// in\n    tag_11:\n      mload(0x40)\n      tag_13\n      swap2\n      swap1\n      tag_14\n      jump\t// in\n    tag_13:\n      mload(0x40)\n      dup1\n      swap2\n      sub\n      swap1\n      return\n        /* \"contracts_new/utils.sol\":351:398  uint256 constant public PRICE_THRESHOLD = 10000 */\n    tag_4:\n      tag_15\n      tag_16\n      jump\t// in\n    tag_15:\n      mload(0x40)\n      tag_17\n      swap2\n      swap1\n      tag_10\n      jump\t// in\n    tag_17:\n      mload(0x40)\n      dup1\n      swap2\n      sub\n      swap1\n      return\n        /* \"contracts_new/utils.sol\":143:192  IERC20 constant public TOKEN = IERC20(address(0)) */\n    tag_5:\n      tag_18\n      tag_19\n      jump\t// in\n    tag_18:\n      mload(0x40)\n      tag_20\n      swap2\n      swap1\n      tag_21\n      jump\t// in\n    tag_20:\n      mload(0x40)\n      dup1\n      swap2\n      sub\n      swap1\n      return\n        /* \"contracts_new/utils.sol\":199:292  address constant public COMPANY_ADDRESS = address(0x604e7E66c0C2897325375dC85Aa7686e432236a1) */\n    tag_6:\n      tag_22\n      tag_23\n      jump\t// in\n    tag_22:\n      mload(0x40)\n      tag_24\n      swap2\n      swap1\n      tag_25\n      jump\t// in\n    tag_24:\n      mload(0x40)\n      dup1\n      swap2\n      sub\n      swap1\n      return\n        /* \"contracts_new/utils.sol\":416:470  uint constant public MIN_JUDGMENT_TIME = 1 minutes - 1 */\n    tag_8:\n        /* \"contracts_new/utils.sol\":457:470  1 minutes - 1 */\n      0x3b\n        /* \"contracts_new/utils.sol\":416:470  uint constant public MIN_JUDGMENT_TIME = 1 minutes - 1 */\n      dup2\n      jump\t// out\n        /* \"contracts_new/utils.sol\":299:344  uint8 constant public COMPANY_FEE_PERCENT = 1 */\n    tag_12:\n        /* \"contracts_new/utils.sol\":343:344  1 */\n      0x01\n        /* \"contracts_new/utils.sol\":299:344  uint8 constant public COMPANY_FEE_PERCENT = 1 */\n      dup2\n      jump\t// out\n        /* \"contracts_new/utils.sol\":351:398  uint256 constant public PRICE_THRESHOLD = 10000 */\n    tag_16:\n        /* \"contracts_new/utils.sol\":393:398  10000 */\n      0x2710\n        /* \"contracts_new/utils.sol\":351:398  uint256 constant public PRICE_THRESHOLD = 10000 */\n      dup2\n      jump\t// out\n        /* \"contracts_new/utils.sol\":143:192  IERC20 constant public TOKEN = IERC20(address(0)) */\n    tag_19:\n        /* \"contracts_new/utils.sol\":189:190  0 */\n      0x00\n        /* \"contracts_new/utils.sol\":143:192  IERC20 constant public TOKEN = IERC20(address(0)) */\n      dup2\n      jump\t// out\n        /* \"contracts_new/utils.sol\":199:292  address constant public COMPANY_ADDRESS = address(0x604e7E66c0C2897325375dC85Aa7686e432236a1) */\n    tag_23:\n        /* \"contracts_new/utils.sol\":249:291  0x604e7E66c0C2897325375dC85Aa7686e432236a1 */\n      0x604e7e66c0c2897325375dc85aa7686e432236a1\n        /* \"contracts_new/utils.sol\":199:292  address constant public COMPANY_ADDRESS = address(0x604e7E66c0C2897325375dC85Aa7686e432236a1) */\n      dup2\n      jump\t// out\n        /* \"#utility.yul\":7:133   */\n    tag_27:\n        /* \"#utility.yul\":102:126   */\n      tag_29\n        /* \"#utility.yul\":120:125   */\n      dup2\n        /* \"#utility.yul\":102:126   */\n      tag_30\n      jump\t// in\n    tag_29:\n        /* \"#utility.yul\":97:100   */\n      dup3\n        /* \"#utility.yul\":90:127   */\n      mstore\n        /* \"#utility.yul\":7:133   */\n      pop\n      pop\n      jump\t// out\n        /* \"#utility.yul\":139:304   */\n    tag_31:\n        /* \"#utility.yul\":247:297   */\n      tag_33\n        /* \"#utility.yul\":291:296   */\n      dup2\n        /* \"#utility.yul\":247:297   */\n      tag_34\n      jump\t// in\n    tag_33:\n        /* \"#utility.yul\":242:245   */\n      dup3\n        /* \"#utility.yul\":235:298   */\n      mstore\n        /* \"#utility.yul\":139:304   */\n      pop\n      pop\n      jump\t// out\n        /* \"#utility.yul\":310:436   */\n    tag_35:\n        /* \"#utility.yul\":405:429   */\n      tag_37\n        /* \"#utility.yul\":423:428   */\n      dup2\n        /* \"#utility.yul\":405:429   */\n      tag_38\n      jump\t// in\n    tag_37:\n        /* \"#utility.yul\":400:403   */\n      dup3\n        /* \"#utility.yul\":393:430   */\n      mstore\n        /* \"#utility.yul\":310:436   */\n      pop\n      pop\n      jump\t// out\n        /* \"#utility.yul\":442:562   */\n    tag_39:\n        /* \"#utility.yul\":533:555   */\n      tag_41\n        /* \"#utility.yul\":549:554   */\n      dup2\n        /* \"#utility.yul\":533:555   */\n      tag_42\n      jump\t// in\n    tag_41:\n        /* \"#utility.yul\":528:531   */\n      dup3\n        /* \"#utility.yul\":521:556   */\n      mstore\n        /* \"#utility.yul\":442:562   */\n      pop\n      pop\n      jump\t// out\n        /* \"#utility.yul\":568:806   */\n    tag_25:\n        /* \"#utility.yul\":669:673   */\n      0x00\n        /* \"#utility.yul\":707:709   */\n      0x20\n        /* \"#utility.yul\":696:705   */\n      dup3\n        /* \"#utility.yul\":692:710   */\n      add\n        /* \"#utility.yul\":684:710   */\n      swap1\n      pop\n        /* \"#utility.yul\":720:799   */\n      tag_44\n        /* \"#utility.yul\":796:797   */\n      0x00\n        /* \"#utility.yul\":785:794   */\n      dup4\n        /* \"#utility.yul\":781:798   */\n      add\n        /* \"#utility.yul\":772:778   */\n      dup5\n        /* \"#utility.yul\":720:799   */\n      tag_27\n      jump\t// in\n    tag_44:\n        /* \"#utility.yul\":568:806   */\n      swap3\n      swap2\n      pop\n      pop\n      jump\t// out\n        /* \"#utility.yul\":812:1076   */\n    tag_21:\n        /* \"#utility.yul\":926:930   */\n      0x00\n        /* \"#utility.yul\":964:966   */\n      0x20\n        /* \"#utility.yul\":953:962   */\n      dup3\n        /* \"#utility.yul\":949:967   */\n      add\n        /* \"#utility.yul\":941:967   */\n      swap1\n      pop\n        /* \"#utility.yul\":977:1069   */\n      tag_46\n        /* \"#utility.yul\":1066:1067   */\n      0x00\n        /* \"#utility.yul\":1055:1064   */\n      dup4\n        /* \"#utility.yul\":1051:1068   */\n      add\n        /* \"#utility.yul\":1042:1048   */\n      dup5\n        /* \"#utility.yul\":977:1069   */\n      tag_31\n      jump\t// in\n    tag_46:\n        /* \"#utility.yul\":812:1076   */\n      swap3\n      swap2\n      pop\n      pop\n      jump\t// out\n        /* \"#utility.yul\":1082:1320   */\n    tag_10:\n        /* \"#utility.yul\":1183:1187   */\n      0x00\n        /* \"#utility.yul\":1221:1223   */\n      0x20\n        /* \"#utility.yul\":1210:1219   */\n      dup3\n        /* \"#utility.yul\":1206:1224   */\n      add\n        /* \"#utility.yul\":1198:1224   */\n      swap1\n      pop\n        /* \"#utility.yul\":1234:1313   */\n      tag_48\n        /* \"#utility.yul\":1310:1311   */\n      0x00\n        /* \"#utility.yul\":1299:1308   */\n      dup4\n        /* \"#utility.yul\":1295:1312   */\n      add\n        /* \"#utility.yul\":1286:1292   */\n      dup5\n        /* \"#utility.yul\":1234:1313   */\n      tag_35\n      jump\t// in\n    tag_48:\n        /* \"#utility.yul\":1082:1320   */\n      swap3\n      swap2\n      pop\n      pop\n      jump\t// out\n        /* \"#utility.yul\":1326:1556   */\n    tag_14:\n        /* \"#utility.yul\":1423:1427   */\n      0x00\n        /* \"#utility.yul\":1461:1463   */\n      0x20\n        /* \"#utility.yul\":1450:1459   */\n      dup3\n        /* \"#utility.yul\":1446:1464   */\n      add\n        /* \"#utility.yul\":1438:1464   */\n      swap1\n      pop\n        /* \"#utility.yul\":1474:1549   */\n      tag_50\n        /* \"#utility.yul\":1546:1547   */\n      0x00\n        /* \"#utility.yul\":1535:1544   */\n      dup4\n        /* \"#utility.yul\":1531:1548   */\n      add\n        /* \"#utility.yul\":1522:1528   */\n      dup5\n        /* \"#utility.yul\":1474:1549   */\n      tag_39\n      jump\t// in\n    tag_50:\n        /* \"#utility.yul\":1326:1556   */\n      swap3\n      swap2\n      pop\n      pop\n      jump\t// out\n        /* \"#utility.yul\":1562:1658   */\n    tag_30:\n        /* \"#utility.yul\":1599:1606   */\n      0x00\n        /* \"#utility.yul\":1628:1652   */\n      tag_52\n        /* \"#utility.yul\":1646:1651   */\n      dup3\n        /* \"#utility.yul\":1628:1652   */\n      tag_53\n      jump\t// in\n    tag_52:\n        /* \"#utility.yul\":1617:1652   */\n      swap1\n      pop\n        /* \"#utility.yul\":1562:1658   */\n      swap2\n      swap1\n      pop\n      jump\t// out\n        /* \"#utility.yul\":1664:1790   */\n    tag_53:\n        /* \"#utility.yul\":1701:1708   */\n      0x00\n        /* \"#utility.yul\":1741:1783   */\n      0xffffffffffffffffffffffffffffffffffffffff\n        /* \"#utility.yul\":1734:1739   */\n      dup3\n        /* \"#utility.yul\":1730:1784   */\n      and\n        /* \"#utility.yul\":1719:1784   */\n      swap1\n      pop\n        /* \"#utility.yul\":1664:1790   */\n      swap2\n      swap1\n      pop\n      jump\t// out\n        /* \"#utility.yul\":1796:1873   */\n    tag_38:\n        /* \"#utility.yul\":1833:1840   */\n      0x00\n        /* \"#utility.yul\":1862:1867   */\n      dup2\n        /* \"#utility.yul\":1851:1867   */\n      swap1\n      pop\n        /* \"#utility.yul\":1796:1873   */\n      swap2\n      swap1\n      pop\n      jump\t// out\n        /* \"#utility.yul\":1879:1965   */\n    tag_42:\n        /* \"#utility.yul\":1914:1921   */\n      0x00\n        /* \"#utility.yul\":1954:1958   */\n      0xff\n        /* \"#utility.yul\":1947:1952   */\n      dup3\n        /* \"#utility.yul\":1943:1959   */\n      and\n        /* \"#utility.yul\":1932:1959   */\n      swap1\n      pop\n        /* \"#utility.yul\":1879:1965   */\n      swap2\n      swap1\n      pop\n      jump\t// out\n        /* \"#utility.yul\":1971:2110   */\n    tag_34:\n        /* \"#utility.yul\":2034:2043   */\n      0x00\n        /* \"#utility.yul\":2067:2104   */\n      tag_58\n        /* \"#utility.yul\":2098:2103   */\n      dup3\n        /* \"#utility.yul\":2067:2104   */\n      tag_59\n      jump\t// in\n    tag_58:\n        /* \"#utility.yul\":2054:2104   */\n      swap1\n      pop\n        /* \"#utility.yul\":1971:2110   */\n      swap2\n      swap1\n      pop\n      jump\t// out\n        /* \"#utility.yul\":2116:2242   */\n    tag_59:\n        /* \"#utility.yul\":2166:2175   */\n      0x00\n        /* \"#utility.yul\":2199:2236   */\n      tag_61\n        /* \"#utility.yul\":2230:2235   */\n      dup3\n        /* \"#utility.yul\":2199:2236   */\n      tag_62\n      jump\t// in\n    tag_61:\n        /* \"#utility.yul\":2186:2236   */\n      swap1\n      pop\n        /* \"#utility.yul\":2116:2242   */\n      swap2\n      swap1\n      pop\n      jump\t// out\n        /* \"#utility.yul\":2248:2361   */\n    tag_62:\n        /* \"#utility.yul\":2298:2307   */\n      0x00\n        /* \"#utility.yul\":2331:2355   */\n      tag_64\n        /* \"#utility.yul\":2349:2354   */\n      dup3\n        /* \"#utility.yul\":2331:2355   */\n      tag_53\n      jump\t// in\n    tag_64:\n        /* \"#utility.yul\":2318:2355   */\n      swap1\n      pop\n        /* \"#utility.yul\":2248:2361   */\n      swap2\n      swap1\n      pop\n      jump\t// out\n\n    auxdata: 0xa26469706673582212205256700e27681752fc42decdb093e4bf04b4aa4678c2f50c665491ccecf3092064736f6c63430008070033\n}\n",
				"bytecode": {
					"linkReferences": {},
					"object": "610286610053600b82828239805160001a607314610046577f4e487b7100000000000000000000000000000000000000000000000000000000600052600060045260246000fd5b30600052607381538281f3fe73000000000000000000000000000000000000000030146080604052600436106100615760003560e01c806334379814146100665780634258c880146100845780635ed4c4dd146100a257806382bfefc8146100c0578063bb8e5012146100de575b600080fd5b61006e6100fc565b60405161007b919061019b565b60405180910390f35b61008c610101565b60405161009991906101b6565b60405180910390f35b6100aa610106565b6040516100b7919061019b565b60405180910390f35b6100c861010c565b6040516100d59190610180565b60405180910390f35b6100e6610111565b6040516100f39190610165565b60405180910390f35b603b81565b600181565b61271081565b600081565b73604e7e66c0c2897325375dc85aa7686e432236a181565b610132816101d1565b82525050565b6101418161021a565b82525050565b61015081610203565b82525050565b61015f8161020d565b82525050565b600060208201905061017a6000830184610129565b92915050565b60006020820190506101956000830184610138565b92915050565b60006020820190506101b06000830184610147565b92915050565b60006020820190506101cb6000830184610156565b92915050565b60006101dc826101e3565b9050919050565b600073ffffffffffffffffffffffffffffffffffffffff82169050919050565b6000819050919050565b600060ff82169050919050565b60006102258261022c565b9050919050565b60006102378261023e565b9050919050565b6000610249826101e3565b905091905056fea26469706673582212205256700e27681752fc42decdb093e4bf04b4aa4678c2f50c665491ccecf3092064736f6c63430008070033",
					"opcodes": "PUSH2 0x286 PUSH2 0x53 PUSH1 0xB DUP3 DUP3 DUP3 CODECOPY DUP1 MLOAD PUSH1 0x0 BYTE PUSH1 0x73 EQ PUSH2 0x46 JUMPI PUSH32 0x4E487B7100000000000000000000000000000000000000000000000000000000 PUSH1 0x0 MSTORE PUSH1 0x0 PUSH1 0x4 MSTORE PUSH1 0x24 PUSH1 0x0 REVERT JUMPDEST ADDRESS PUSH1 0x0 MSTORE PUSH1 0x73 DUP2 MSTORE8 DUP3 DUP2 RETURN INVALID PUSH20 0x0 ADDRESS EQ PUSH1 0x80 PUSH1 0x40 MSTORE PUSH1 0x4 CALLDATASIZE LT PUSH2 0x61 JUMPI PUSH1 0x0 CALLDATALOAD PUSH1 0xE0 SHR DUP1 PUSH4 0x34379814 EQ PUSH2 0x66 JUMPI DUP1 PUSH4 0x4258C880 EQ PUSH2 0x84 JUMPI DUP1 PUSH4 0x5ED4C4DD EQ PUSH2 0xA2 JUMPI DUP1 PUSH4 0x82BFEFC8 EQ PUSH2 0xC0 JUMPI DUP1 PUSH4 0xBB8E5012 EQ PUSH2 0xDE JUMPI JUMPDEST PUSH1 0x0 DUP1 REVERT JUMPDEST PUSH2 0x6E PUSH2 0xFC JUMP JUMPDEST PUSH1 0x40 MLOAD PUSH2 0x7B SWAP2 SWAP1 PUSH2 0x19B JUMP JUMPDEST PUSH1 0x40 MLOAD DUP1 SWAP2 SUB SWAP1 RETURN JUMPDEST PUSH2 0x8C PUSH2 0x101 JUMP JUMPDEST PUSH1 0x40 MLOAD PUSH2 0x99 SWAP2 SWAP1 PUSH2 0x1B6 JUMP JUMPDEST PUSH1 0x40 MLOAD DUP1 SWAP2 SUB SWAP1 RETURN JUMPDEST PUSH2 0xAA PUSH2 0x106 JUMP JUMPDEST PUSH1 0x40 MLOAD PUSH2 0xB7 SWAP2 SWAP1 PUSH2 0x19B JUMP JUMPDEST PUSH1 0x40 MLOAD DUP1 SWAP2 SUB SWAP1 RETURN JUMPDEST PUSH2 0xC8 PUSH2 0x10C JUMP JUMPDEST PUSH1 0x40 MLOAD PUSH2 0xD5 SWAP2 SWAP1 PUSH2 0x180 JUMP JUMPDEST PUSH1 0x40 MLOAD DUP1 SWAP2 SUB SWAP1 RETURN JUMPDEST PUSH2 0xE6 PUSH2 0x111 JUMP JUMPDEST PUSH1 0x40 MLOAD PUSH2 0xF3 SWAP2 SWAP1 PUSH2 0x165 JUMP JUMPDEST PUSH1 0x40 MLOAD DUP1 SWAP2 SUB SWAP1 RETURN JUMPDEST PUSH1 0x3B DUP2 JUMP JUMPDEST PUSH1 0x1 DUP2 JUMP JUMPDEST PUSH2 0x2710 DUP2 JUMP JUMPDEST PUSH1 0x0 DUP2 JUMP JUMPDEST PUSH20 0x604E7E66C0C2897325375DC85AA7686E432236A1 DUP2 JUMP JUMPDEST PUSH2 0x132 DUP2 PUSH2 0x1D1 JUMP JUMPDEST DUP3 MSTORE POP POP JUMP JUMPDEST PUSH2 0x141 DUP2 PUSH2 0x21A JUMP JUMPDEST DUP3 MSTORE POP POP JUMP JUMPDEST PUSH2 0x150 DUP2 PUSH2 0x203 JUMP JUMPDEST DUP3 MSTORE POP POP JUMP JUMPDEST PUSH2 0x15F DUP2 PUSH2 0x20D JUMP JUMPDEST DUP3 MSTORE POP POP JUMP JUMPDEST PUSH1 0x0 PUSH1 0x20 DUP3 ADD SWAP1 POP PUSH2 0x17A PUSH1 0x0 DUP4 ADD DUP5 PUSH2 0x129 JUMP JUMPDEST SWAP3 SWAP2 POP POP JUMP JUMPDEST PUSH1 0x0 PUSH1 0x20 DUP3 ADD SWAP1 POP PUSH2 0x195 PUSH1 0x0 DUP4 ADD DUP5 PUSH2 0x138 JUMP JUMPDEST SWAP3 SWAP2 POP POP JUMP JUMPDEST PUSH1 0x0 PUSH1 0x20 DUP3 ADD SWAP1 POP PUSH2 0x1B0 PUSH1 0x0 DUP4 ADD DUP5 PUSH2 0x147 JUMP JUMPDEST SWAP3 SWAP2 POP POP JUMP JUMPDEST PUSH1 0x0 PUSH1 0x20 DUP3 ADD SWAP1 POP PUSH2 0x1CB PUSH1 0x0 DUP4 ADD DUP5 PUSH2 0x156 JUMP JUMPDEST SWAP3 SWAP2 POP POP JUMP JUMPDEST PUSH1 0x0 PUSH2 0x1DC DUP3 PUSH2 0x1E3 JUMP JUMPDEST SWAP1 POP SWAP2 SWAP1 POP JUMP JUMPDEST PUSH1 0x0 PUSH20 0xFFFFFFFFFFFFFFFFFFFFFFFFFFFFFFFFFFFFFFFF DUP3 AND SWAP1 POP SWAP2 SWAP1 POP JUMP JUMPDEST PUSH1 0x0 DUP2 SWAP1 POP SWAP2 SWAP1 POP JUMP JUMPDEST PUSH1 0x0 PUSH1 0xFF DUP3 AND SWAP1 POP SWAP2 SWAP1 POP JUMP JUMPDEST PUSH1 0x0 PUSH2 0x225 DUP3 PUSH2 0x22C JUMP JUMPDEST SWAP1 POP SWAP2 SWAP1 POP JUMP JUMPDEST PUSH1 0x0 PUSH2 0x237 DUP3 PUSH2 0x23E JUMP JUMPDEST SWAP1 POP SWAP2 SWAP1 POP JUMP JUMPDEST PUSH1 0x0 PUSH2 0x249 DUP3 PUSH2 0x1E3 JUMP JUMPDEST SWAP1 POP SWAP2 SWAP1 POP JUMP INVALID LOG2 PUSH5 0x6970667358 0x22 SLT KECCAK256 MSTORE JUMP PUSH17 0xE27681752FC42DECDB093E4BF04B4AA46 PUSH25 0xC2F50C665491CCECF3092064736F6C63430008070033000000 "
				},
				"gasEstimates": {
					"creation": {
						"codeDepositCost": "129200",
						"executionCost": "202",
						"totalCost": "129402"
					},
					"external": {
						"COMPANY_ADDRESS()": "428",
						"COMPANY_FEE_PERCENT()": "319",
						"MIN_JUDGMENT_TIME()": "291",
						"PRICE_THRESHOLD()": "335",
						"TOKEN()": "492"
					}
				},
				"methodIdentifiers": {
					"COMPANY_ADDRESS()": "bb8e5012",
					"COMPANY_FEE_PERCENT()": "4258c880",
					"MIN_JUDGMENT_TIME()": "34379814",
					"PRICE_THRESHOLD()": "5ed4c4dd",
					"TOKEN()": "82bfefc8"
				}
			},
			"storageLayout": {
				"storage": [],
				"types": null
			},
			"userdoc": {
				"kind": "user",
				"methods": {},
				"version": 1
			}
		}
	}
}