{
	"utils.sol": {
		"utils": {
			"abi": [
				{
					"inputs": [],
					"name": "COMPANY_ADDRESS",
					"outputs": [
						{
							"internalType": "address",
							"name": "",
							"type": "address"
						}
					],
					"stateMutability": "view",
					"type": "function"
				},
				{
					"inputs": [],
					"name": "COMPANY_FEE_PERCENT",
					"outputs": [
						{
							"internalType": "uint8",
							"name": "",
							"type": "uint8"
						}
					],
					"stateMutability": "view",
					"type": "function"
				},
				{
					"inputs": [],
					"name": "MIN_JUDGMENT_TIME",
					"outputs": [
						{
							"internalType": "uint256",
							"name": "",
							"type": "uint256"
						}
					],
					"stateMutability": "view",
					"type": "function"
				},
				{
					"inputs": [],
					"name": "PRICE_THRESHOLD",
					"outputs": [
						{
							"internalType": "uint256",
							"name": "",
							"type": "uint256"
						}
					],
					"stateMutability": "view",
					"type": "function"
				}
			],
			"devdoc": {
				"kind": "dev",
				"methods": {},
				"version": 1
			},
			"evm": {
				"assembly": "    /* \"utils.sol\":116:1147  library utils {... */\n  dataSize(sub_0)\n  dataOffset(sub_0)\n  0x0b\n  dup3\n  dup3\n  dup3\n  codecopy\n  dup1\n  mload\n  0x00\n  byte\n  0x73\n  eq\n  tag_1\n  jumpi\n  mstore(0x00, 0x4e487b7100000000000000000000000000000000000000000000000000000000)\n  mstore(0x04, 0x00)\n  revert(0x00, 0x24)\ntag_1:\n  mstore(0x00, address)\n  0x73\n  dup2\n  mstore8\n  dup3\n  dup2\n  return\nstop\n\nsub_0: assembly {\n        /* \"utils.sol\":116:1147  library utils {... */\n      eq(address, deployTimeAddress())\n      mstore(0x40, 0x80)\n      jumpi(tag_1, lt(calldatasize, 0x04))\n      shr(0xe0, calldataload(0x00))\n      dup1\n      0x34379814\n      eq\n      tag_2\n      jumpi\n      dup1\n      0x4258c880\n      eq\n      tag_3\n      jumpi\n      dup1\n      0x5ed4c4dd\n      eq\n      tag_4\n      jumpi\n      dup1\n      0xbb8e5012\n      eq\n      tag_5\n      jumpi\n    tag_1:\n      0x00\n      dup1\n      revert\n        /* \"utils.sol\":449:503  uint constant public MIN_JUDGMENT_TIME = 1 minutes - 1 */\n    tag_2:\n      tag_6\n      tag_7\n      jump\t// in\n    tag_6:\n      mload(0x40)\n      tag_8\n      swap2\n      swap1\n      tag_9\n      jump\t// in\n    tag_8:\n      mload(0x40)\n      dup1\n      swap2\n      sub\n      swap1\n      return\n        /* \"utils.sol\":333:378  uint8 constant public COMPANY_FEE_PERCENT = 1 */\n    tag_3:\n      tag_10\n      tag_11\n      jump\t// in\n    tag_10:\n      mload(0x40)\n      tag_12\n      swap2\n      swap1\n      tag_13\n      jump\t// in\n    tag_12:\n      mload(0x40)\n      dup1\n      swap2\n      sub\n      swap1\n      return\n        /* \"utils.sol\":384:431  uint256 constant public PRICE_THRESHOLD = 10000 */\n    tag_4:\n      tag_14\n      tag_15\n      jump\t// in\n    tag_14:\n      mload(0x40)\n      tag_16\n      swap2\n      swap1\n      tag_9\n      jump\t// in\n    tag_16:\n      mload(0x40)\n      dup1\n      swap2\n      sub\n      swap1\n      return\n        /* \"utils.sol\":234:327  address constant public COMPANY_ADDRESS = address(0x1dF62f291b2E969fB0849d99D9Ce41e2F137006e) */\n    tag_5:\n      tag_17\n      tag_18\n      jump\t// in\n    tag_17:\n      mload(0x40)\n      tag_19\n      swap2\n      swap1\n      tag_20\n      jump\t// in\n    tag_19:\n      mload(0x40)\n      dup1\n      swap2\n      sub\n      swap1\n      return\n        /* \"utils.sol\":449:503  uint constant public MIN_JUDGMENT_TIME = 1 minutes - 1 */\n    tag_7:\n        /* \"utils.sol\":490:503  1 minutes - 1 */\n      0x3b\n        /* \"utils.sol\":449:503  uint constant public MIN_JUDGMENT_TIME = 1 minutes - 1 */\n      dup2\n      jump\t// out\n        /* \"utils.sol\":333:378  uint8 constant public COMPANY_FEE_PERCENT = 1 */\n    tag_11:\n        /* \"utils.sol\":377:378  1 */\n      0x01\n        /* \"utils.sol\":333:378  uint8 constant public COMPANY_FEE_PERCENT = 1 */\n      dup2\n      jump\t// out\n        /* \"utils.sol\":384:431  uint256 constant public PRICE_THRESHOLD = 10000 */\n    tag_15:\n        /* \"utils.sol\":426:431  10000 */\n      0x2710\n        /* \"utils.sol\":384:431  uint256 constant public PRICE_THRESHOLD = 10000 */\n      dup2\n      jump\t// out\n        /* \"utils.sol\":234:327  address constant public COMPANY_ADDRESS = address(0x1dF62f291b2E969fB0849d99D9Ce41e2F137006e) */\n    tag_18:\n        /* \"utils.sol\":284:326  0x1dF62f291b2E969fB0849d99D9Ce41e2F137006e */\n      0x1df62f291b2e969fb0849d99d9ce41e2f137006e\n        /* \"utils.sol\":234:327  address constant public COMPANY_ADDRESS = address(0x1dF62f291b2E969fB0849d99D9Ce41e2F137006e) */\n      dup2\n      jump\t// out\n        /* \"#utility.yul\":7:84   */\n    tag_21:\n        /* \"#utility.yul\":44:51   */\n      0x00\n        /* \"#utility.yul\":73:78   */\n      dup2\n        /* \"#utility.yul\":62:78   */\n      swap1\n      pop\n        /* \"#utility.yul\":7:84   */\n      swap2\n      swap1\n      pop\n      jump\t// out\n        /* \"#utility.yul\":90:216   */\n    tag_22:\n        /* \"#utility.yul\":185:209   */\n      tag_31\n        /* \"#utility.yul\":203:208   */\n      dup2\n        /* \"#utility.yul\":185:209   */\n      tag_21\n      jump\t// in\n    tag_31:\n        /* \"#utility.yul\":180:183   */\n      dup3\n        /* \"#utility.yul\":173:210   */\n      mstore\n        /* \"#utility.yul\":90:216   */\n      pop\n      pop\n      jump\t// out\n        /* \"#utility.yul\":222:460   */\n    tag_9:\n        /* \"#utility.yul\":323:327   */\n      0x00\n        /* \"#utility.yul\":361:363   */\n      0x20\n        /* \"#utility.yul\":350:359   */\n      dup3\n        /* \"#utility.yul\":346:364   */\n      add\n        /* \"#utility.yul\":338:364   */\n      swap1\n      pop\n        /* \"#utility.yul\":374:453   */\n      tag_33\n        /* \"#utility.yul\":450:451   */\n      0x00\n        /* \"#utility.yul\":439:448   */\n      dup4\n        /* \"#utility.yul\":435:452   */\n      add\n        /* \"#utility.yul\":426:432   */\n      dup5\n        /* \"#utility.yul\":374:453   */\n      tag_22\n      jump\t// in\n    tag_33:\n        /* \"#utility.yul\":222:460   */\n      swap3\n      swap2\n      pop\n      pop\n      jump\t// out\n        /* \"#utility.yul\":466:552   */\n    tag_23:\n        /* \"#utility.yul\":501:508   */\n      0x00\n        /* \"#utility.yul\":541:545   */\n      0xff\n        /* \"#utility.yul\":534:539   */\n      dup3\n        /* \"#utility.yul\":530:546   */\n      and\n        /* \"#utility.yul\":519:546   */\n      swap1\n      pop\n        /* \"#utility.yul\":466:552   */\n      swap2\n      swap1\n      pop\n      jump\t// out\n        /* \"#utility.yul\":558:678   */\n    tag_24:\n        /* \"#utility.yul\":649:671   */\n      tag_36\n        /* \"#utility.yul\":665:670   */\n      dup2\n        /* \"#utility.yul\":649:671   */\n      tag_23\n      jump\t// in\n    tag_36:\n        /* \"#utility.yul\":644:647   */\n      dup3\n        /* \"#utility.yul\":637:672   */\n      mstore\n        /* \"#utility.yul\":558:678   */\n      pop\n      pop\n      jump\t// out\n        /* \"#utility.yul\":684:914   */\n    tag_13:\n        /* \"#utility.yul\":781:785   */\n      0x00\n        /* \"#utility.yul\":819:821   */\n      0x20\n        /* \"#utility.yul\":808:817   */\n      dup3\n        /* \"#utility.yul\":804:822   */\n      add\n        /* \"#utility.yul\":796:822   */\n      swap1\n      pop\n        /* \"#utility.yul\":832:907   */\n      tag_38\n        /* \"#utility.yul\":904:905   */\n      0x00\n        /* \"#utility.yul\":893:902   */\n      dup4\n        /* \"#utility.yul\":889:906   */\n      add\n        /* \"#utility.yul\":880:886   */\n      dup5\n        /* \"#utility.yul\":832:907   */\n      tag_24\n      jump\t// in\n    tag_38:\n        /* \"#utility.yul\":684:914   */\n      swap3\n      swap2\n      pop\n      pop\n      jump\t// out\n        /* \"#utility.yul\":920:1046   */\n    tag_25:\n        /* \"#utility.yul\":957:964   */\n      0x00\n        /* \"#utility.yul\":997:1039   */\n      0xffffffffffffffffffffffffffffffffffffffff\n        /* \"#utility.yul\":990:995   */\n      dup3\n        /* \"#utility.yul\":986:1040   */\n      and\n        /* \"#utility.yul\":975:1040   */\n      swap1\n      pop\n        /* \"#utility.yul\":920:1046   */\n      swap2\n      swap1\n      pop\n      jump\t// out\n        /* \"#utility.yul\":1052:1148   */\n    tag_26:\n        /* \"#utility.yul\":1089:1096   */\n      0x00\n        /* \"#utility.yul\":1118:1142   */\n      tag_41\n        /* \"#utility.yul\":1136:1141   */\n      dup3\n        /* \"#utility.yul\":1118:1142   */\n      tag_25\n      jump\t// in\n    tag_41:\n        /* \"#utility.yul\":1107:1142   */\n      swap1\n      pop\n        /* \"#utility.yul\":1052:1148   */\n      swap2\n      swap1\n      pop\n      jump\t// out\n        /* \"#utility.yul\":1154:1280   */\n    tag_27:\n        /* \"#utility.yul\":1249:1273   */\n      tag_43\n        /* \"#utility.yul\":1267:1272   */\n      dup2\n        /* \"#utility.yul\":1249:1273   */\n      tag_26\n      jump\t// in\n    tag_43:\n        /* \"#utility.yul\":1244:1247   */\n      dup3\n        /* \"#utility.yul\":1237:1274   */\n      mstore\n        /* \"#utility.yul\":1154:1280   */\n      pop\n      pop\n      jump\t// out\n        /* \"#utility.yul\":1286:1524   */\n    tag_20:\n        /* \"#utility.yul\":1387:1391   */\n      0x00\n        /* \"#utility.yul\":1425:1427   */\n      0x20\n        /* \"#utility.yul\":1414:1423   */\n      dup3\n        /* \"#utility.yul\":1410:1428   */\n      add\n        /* \"#utility.yul\":1402:1428   */\n      swap1\n      pop\n        /* \"#utility.yul\":1438:1517   */\n      tag_45\n        /* \"#utility.yul\":1514:1515   */\n      0x00\n        /* \"#utility.yul\":1503:1512   */\n      dup4\n        /* \"#utility.yul\":1499:1516   */\n      add\n        /* \"#utility.yul\":1490:1496   */\n      dup5\n        /* \"#utility.yul\":1438:1517   */\n      tag_27\n      jump\t// in\n    tag_45:\n        /* \"#utility.yul\":1286:1524   */\n      swap3\n      swap2\n      pop\n      pop\n      jump\t// out\n\n    auxdata: 0xa26469706673582212201526d37c8319a309dcac52f138d8be8a843ab83f6e11b55919dcdbf83567d31364736f6c63430008120033\n}\n",
				"bytecode": {
					"linkReferences": {},
					"object": "6101f8610053600b82828239805160001a607314610046577f4e487b7100000000000000000000000000000000000000000000000000000000600052600060045260246000fd5b30600052607381538281f3fe73000000000000000000000000000000000000000030146080604052600436106100565760003560e01c8063343798141461005b5780634258c880146100795780635ed4c4dd14610097578063bb8e5012146100b5575b600080fd5b6100636100d3565b6040516100709190610114565b60405180910390f35b6100816100d8565b60405161008e919061014b565b60405180910390f35b61009f6100dd565b6040516100ac9190610114565b60405180910390f35b6100bd6100e3565b6040516100ca91906101a7565b60405180910390f35b603b81565b600181565b61271081565b731df62f291b2e969fb0849d99d9ce41e2f137006e81565b6000819050919050565b61010e816100fb565b82525050565b60006020820190506101296000830184610105565b92915050565b600060ff82169050919050565b6101458161012f565b82525050565b6000602082019050610160600083018461013c565b92915050565b600073ffffffffffffffffffffffffffffffffffffffff82169050919050565b600061019182610166565b9050919050565b6101a181610186565b82525050565b60006020820190506101bc6000830184610198565b9291505056fea26469706673582212201526d37c8319a309dcac52f138d8be8a843ab83f6e11b55919dcdbf83567d31364736f6c63430008120033",
					"opcodes": "PUSH2 0x1F8 PUSH2 0x53 PUSH1 0xB DUP3 DUP3 DUP3 CODECOPY DUP1 MLOAD PUSH1 0x0 BYTE PUSH1 0x73 EQ PUSH2 0x46 JUMPI PUSH32 0x4E487B7100000000000000000000000000000000000000000000000000000000 PUSH1 0x0 MSTORE PUSH1 0x0 PUSH1 0x4 MSTORE PUSH1 0x24 PUSH1 0x0 REVERT JUMPDEST ADDRESS PUSH1 0x0 MSTORE PUSH1 0x73 DUP2 MSTORE8 DUP3 DUP2 RETURN INVALID PUSH20 0x0 ADDRESS EQ PUSH1 0x80 PUSH1 0x40 MSTORE PUSH1 0x4 CALLDATASIZE LT PUSH2 0x56 JUMPI PUSH1 0x0 CALLDATALOAD PUSH1 0xE0 SHR DUP1 PUSH4 0x34379814 EQ PUSH2 0x5B JUMPI DUP1 PUSH4 0x4258C880 EQ PUSH2 0x79 JUMPI DUP1 PUSH4 0x5ED4C4DD EQ PUSH2 0x97 JUMPI DUP1 PUSH4 0xBB8E5012 EQ PUSH2 0xB5 JUMPI JUMPDEST PUSH1 0x0 DUP1 REVERT JUMPDEST PUSH2 0x63 PUSH2 0xD3 JUMP JUMPDEST PUSH1 0x40 MLOAD PUSH2 0x70 SWAP2 SWAP1 PUSH2 0x114 JUMP JUMPDEST PUSH1 0x40 MLOAD DUP1 SWAP2 SUB SWAP1 RETURN JUMPDEST PUSH2 0x81 PUSH2 0xD8 JUMP JUMPDEST PUSH1 0x40 MLOAD PUSH2 0x8E SWAP2 SWAP1 PUSH2 0x14B JUMP JUMPDEST PUSH1 0x40 MLOAD DUP1 SWAP2 SUB SWAP1 RETURN JUMPDEST PUSH2 0x9F PUSH2 0xDD JUMP JUMPDEST PUSH1 0x40 MLOAD PUSH2 0xAC SWAP2 SWAP1 PUSH2 0x114 JUMP JUMPDEST PUSH1 0x40 MLOAD DUP1 SWAP2 SUB SWAP1 RETURN JUMPDEST PUSH2 0xBD PUSH2 0xE3 JUMP JUMPDEST PUSH1 0x40 MLOAD PUSH2 0xCA SWAP2 SWAP1 PUSH2 0x1A7 JUMP JUMPDEST PUSH1 0x40 MLOAD DUP1 SWAP2 SUB SWAP1 RETURN JUMPDEST PUSH1 0x3B DUP2 JUMP JUMPDEST PUSH1 0x1 DUP2 JUMP JUMPDEST PUSH2 0x2710 DUP2 JUMP JUMPDEST PUSH20 0x1DF62F291B2E969FB0849D99D9CE41E2F137006E DUP2 JUMP JUMPDEST PUSH1 0x0 DUP2 SWAP1 POP SWAP2 SWAP1 POP JUMP JUMPDEST PUSH2 0x10E DUP2 PUSH2 0xFB JUMP JUMPDEST DUP3 MSTORE POP POP JUMP JUMPDEST PUSH1 0x0 PUSH1 0x20 DUP3 ADD SWAP1 POP PUSH2 0x129 PUSH1 0x0 DUP4 ADD DUP5 PUSH2 0x105 JUMP JUMPDEST SWAP3 SWAP2 POP POP JUMP JUMPDEST PUSH1 0x0 PUSH1 0xFF DUP3 AND SWAP1 POP SWAP2 SWAP1 POP JUMP JUMPDEST PUSH2 0x145 DUP2 PUSH2 0x12F JUMP JUMPDEST DUP3 MSTORE POP POP JUMP JUMPDEST PUSH1 0x0 PUSH1 0x20 DUP3 ADD SWAP1 POP PUSH2 0x160 PUSH1 0x0 DUP4 ADD DUP5 PUSH2 0x13C JUMP JUMPDEST SWAP3 SWAP2 POP POP JUMP JUMPDEST PUSH1 0x0 PUSH20 0xFFFFFFFFFFFFFFFFFFFFFFFFFFFFFFFFFFFFFFFF DUP3 AND SWAP1 POP SWAP2 SWAP1 POP JUMP JUMPDEST PUSH1 0x0 PUSH2 0x191 DUP3 PUSH2 0x166 JUMP JUMPDEST SWAP1 POP SWAP2 SWAP1 POP JUMP JUMPDEST PUSH2 0x1A1 DUP2 PUSH2 0x186 JUMP JUMPDEST DUP3 MSTORE POP POP JUMP JUMPDEST PUSH1 0x0 PUSH1 0x20 DUP3 ADD SWAP1 POP PUSH2 0x1BC PUSH1 0x0 DUP4 ADD DUP5 PUSH2 0x198 JUMP JUMPDEST SWAP3 SWAP2 POP POP JUMP INVALID LOG2 PUSH5 0x6970667358 0x22 SLT KECCAK256 ISZERO 0x26 0xD3 PUSH29 0x8319A309DCAC52F138D8BE8A843AB83F6E11B55919DCDBF83567D31364 PUSH20 0x6F6C634300081200330000000000000000000000 "
				},
				"gasEstimates": {
					"creation": {
						"codeDepositCost": "100800",
						"executionCost": "175",
						"totalCost": "100975"
					},
					"external": {
						"COMPANY_ADDRESS()": "406",
						"COMPANY_FEE_PERCENT()": "319",
						"MIN_JUDGMENT_TIME()": "291",
						"PRICE_THRESHOLD()": "335"
					}
				},
				"methodIdentifiers": {
					"COMPANY_ADDRESS()": "bb8e5012",
					"COMPANY_FEE_PERCENT()": "4258c880",
					"MIN_JUDGMENT_TIME()": "34379814",
					"PRICE_THRESHOLD()": "5ed4c4dd"
				}
			},
			"storageLayout": {
				"storage": [],
				"types": null
			},
			"userdoc": {
				"kind": "user",
				"methods": {},
				"version": 1
			}
		}
	}
}