{
	"contracts_new/TaskInfo.sol": {
		"TaskInfo": {
			"abi": [
				{
					"inputs": [
						{
							"internalType": "address",
							"name": "customer_",
							"type": "address"
						},
						{
							"components": [
								{
									"internalType": "uint256",
									"name": "id",
									"type": "uint256"
								},
								{
									"internalType": "bytes32",
									"name": "sha256hashsum",
									"type": "bytes32"
								},
								{
									"internalType": "uint256",
									"name": "timestamp",
									"type": "uint256"
								}
							],
							"internalType": "struct utils.TaskData",
							"name": "task_data",
							"type": "tuple"
						},
						{
							"internalType": "uint256",
							"name": "task_execution_time",
							"type": "uint256"
						},
						{
							"internalType": "uint256",
							"name": "price_",
							"type": "uint256"
						},
						{
							"internalType": "uint256",
							"name": "security_deposit",
							"type": "uint256"
						}
					],
					"stateMutability": "nonpayable",
					"type": "constructor"
				},
				{
					"inputs": [
						{
							"components": [
								{
									"internalType": "uint256",
									"name": "id",
									"type": "uint256"
								},
								{
									"internalType": "bytes32",
									"name": "sha256hashsum",
									"type": "bytes32"
								},
								{
									"internalType": "uint256",
									"name": "timestamp",
									"type": "uint256"
								}
							],
							"internalType": "struct utils.SolutionData",
							"name": "solution_data",
							"type": "tuple"
						}
					],
					"name": "addSolution",
					"outputs": [],
					"stateMutability": "nonpayable",
					"type": "function"
				},
				{
					"inputs": [
						{
							"internalType": "uint256",
							"name": "additional_time",
							"type": "uint256"
						}
					],
					"name": "addTaskExecutionTime",
					"outputs": [],
					"stateMutability": "nonpayable",
					"type": "function"
				},
				{
					"inputs": [],
					"name": "getCustomer",
					"outputs": [
						{
							"internalType": "address",
							"name": "",
							"type": "address"
						}
					],
					"stateMutability": "view",
					"type": "function"
				},
				{
					"inputs": [],
					"name": "getExecutor",
					"outputs": [
						{
							"internalType": "address",
							"name": "",
							"type": "address"
						}
					],
					"stateMutability": "view",
					"type": "function"
				},
				{
					"inputs": [],
					"name": "getPrice",
					"outputs": [
						{
							"internalType": "uint256",
							"name": "",
							"type": "uint256"
						}
					],
					"stateMutability": "view",
					"type": "function"
				},
				{
					"inputs": [],
					"name": "getSecurityDeposit",
					"outputs": [
						{
							"internalType": "uint256",
							"name": "",
							"type": "uint256"
						}
					],
					"stateMutability": "view",
					"type": "function"
				},
				{
					"inputs": [],
					"name": "getSolution",
					"outputs": [
						{
							"components": [
								{
									"internalType": "uint256",
									"name": "id",
									"type": "uint256"
								},
								{
									"internalType": "bytes32",
									"name": "sha256hashsum",
									"type": "bytes32"
								},
								{
									"internalType": "uint256",
									"name": "timestamp",
									"type": "uint256"
								}
							],
							"internalType": "struct utils.SolutionData[]",
							"name": "",
							"type": "tuple[]"
						}
					],
					"stateMutability": "view",
					"type": "function"
				},
				{
					"inputs": [],
					"name": "getTaskData",
					"outputs": [
						{
							"components": [
								{
									"internalType": "uint256",
									"name": "id",
									"type": "uint256"
								},
								{
									"internalType": "bytes32",
									"name": "sha256hashsum",
									"type": "bytes32"
								},
								{
									"internalType": "uint256",
									"name": "timestamp",
									"type": "uint256"
								}
							],
							"internalType": "struct utils.TaskData",
							"name": "",
							"type": "tuple"
						}
					],
					"stateMutability": "view",
					"type": "function"
				},
				{
					"inputs": [],
					"name": "getTaskExecutionTime",
					"outputs": [
						{
							"internalType": "uint256",
							"name": "",
							"type": "uint256"
						}
					],
					"stateMutability": "view",
					"type": "function"
				},
				{
					"inputs": [],
					"name": "grantPublicAccess",
					"outputs": [],
					"stateMutability": "nonpayable",
					"type": "function"
				},
				{
					"inputs": [
						{
							"internalType": "address",
							"name": "executor_",
							"type": "address"
						}
					],
					"name": "setExecutor",
					"outputs": [],
					"stateMutability": "nonpayable",
					"type": "function"
				},
				{
					"inputs": [
						{
							"internalType": "address",
							"name": "new_master",
							"type": "address"
						}
					],
					"name": "setNewMasterSmartContract",
					"outputs": [],
					"stateMutability": "nonpayable",
					"type": "function"
				}
			],
			"devdoc": {
				"kind": "dev",
				"methods": {},
				"version": 1
			},
			"evm": {
				"assembly": "    /* \"contracts_new/TaskInfo.sol\":921:3835  contract TaskInfo is ITaskInfo {\r... */\n  mstore(0x40, 0x80)\n    /* \"contracts_new/TaskInfo.sol\":1357:1360  0x0 */\n  0x00\n    /* \"contracts_new/TaskInfo.sol\":1330:1361  address executor = address(0x0) */\n  0x08\n  exp(0x0100, 0x00)\n  dup2\n  sload\n  dup2\n  0xffffffffffffffffffffffffffffffffffffffff\n  mul\n  not\n  and\n  swap1\n  dup4\n  0xffffffffffffffffffffffffffffffffffffffff\n  and\n  mul\n  or\n  swap1\n  sstore\n  pop\n    /* \"contracts_new/TaskInfo.sol\":1428:1433  false */\n  0x00\n    /* \"contracts_new/TaskInfo.sol\":1408:1433  bool publicAccess = false */\n  0x0a\n  exp(0x0100, 0x00)\n  dup2\n  sload\n  dup2\n  0xff\n  mul\n  not\n  and\n  swap1\n  dup4\n  iszero\n  iszero\n  mul\n  or\n  swap1\n  sstore\n  pop\n    /* \"contracts_new/TaskInfo.sol\":1442:1866  constructor(\r... */\n  callvalue\n  dup1\n  iszero\n  tag_1\n  jumpi\n  0x00\n  dup1\n  revert\ntag_1:\n  pop\n  mload(0x40)\n  sub(codesize, bytecodeSize)\n  dup1\n  bytecodeSize\n  dup4\n  codecopy\n  dup2\n  dup2\n  add\n  0x40\n  mstore\n  dup2\n  add\n  swap1\n  tag_2\n  swap2\n  swap1\n  tag_3\n  jump\t// in\ntag_2:\n    /* \"contracts_new/TaskInfo.sol\":1666:1676  msg.sender */\n  caller\n    /* \"contracts_new/TaskInfo.sol\":1637:1663  masterSmartContractAddress */\n  0x00\n  dup1\n    /* \"contracts_new/TaskInfo.sol\":1637:1676  masterSmartContractAddress = msg.sender */\n  0x0100\n  exp\n  dup2\n  sload\n  dup2\n  0xffffffffffffffffffffffffffffffffffffffff\n  mul\n  not\n  and\n  swap1\n  dup4\n  0xffffffffffffffffffffffffffffffffffffffff\n  and\n  mul\n  or\n  swap1\n  sstore\n  pop\n    /* \"contracts_new/TaskInfo.sol\":1698:1707  customer_ */\n  dup5\n    /* \"contracts_new/TaskInfo.sol\":1687:1695  customer */\n  0x01\n  0x00\n    /* \"contracts_new/TaskInfo.sol\":1687:1707  customer = customer_ */\n  0x0100\n  exp\n  dup2\n  sload\n  dup2\n  0xffffffffffffffffffffffffffffffffffffffff\n  mul\n  not\n  and\n  swap1\n  dup4\n  0xffffffffffffffffffffffffffffffffffffffff\n  and\n  mul\n  or\n  swap1\n  sstore\n  pop\n    /* \"contracts_new/TaskInfo.sol\":1729:1738  task_data */\n  dup4\n    /* \"contracts_new/TaskInfo.sol\":1718:1726  taskData */\n  0x02\n    /* \"contracts_new/TaskInfo.sol\":1718:1738  taskData = task_data */\n  0x00\n  dup3\n  add\n  mload\n  dup2\n  0x00\n  add\n  sstore\n  0x20\n  dup3\n  add\n  mload\n  dup2\n  0x01\n  add\n  sstore\n  0x40\n  dup3\n  add\n  mload\n  dup2\n  0x02\n  add\n  sstore\n  swap1\n  pop\n  pop\n    /* \"contracts_new/TaskInfo.sol\":1769:1788  task_execution_time */\n  dup3\n    /* \"contracts_new/TaskInfo.sol\":1749:1766  taskExecutionTime */\n  0x05\n    /* \"contracts_new/TaskInfo.sol\":1749:1788  taskExecutionTime = task_execution_time */\n  dup2\n  swap1\n  sstore\n  pop\n    /* \"contracts_new/TaskInfo.sol\":1807:1813  price_ */\n  dup2\n    /* \"contracts_new/TaskInfo.sol\":1799:1804  price */\n  0x06\n    /* \"contracts_new/TaskInfo.sol\":1799:1813  price = price_ */\n  dup2\n  swap1\n  sstore\n  pop\n    /* \"contracts_new/TaskInfo.sol\":1842:1858  security_deposit */\n  dup1\n    /* \"contracts_new/TaskInfo.sol\":1824:1839  securityDeposit */\n  0x07\n    /* \"contracts_new/TaskInfo.sol\":1824:1858  securityDeposit = security_deposit */\n  dup2\n  swap1\n  sstore\n  pop\n    /* \"contracts_new/TaskInfo.sol\":1442:1866  constructor(\r... */\n  pop\n  pop\n  pop\n  pop\n  pop\n    /* \"contracts_new/TaskInfo.sol\":921:3835  contract TaskInfo is ITaskInfo {\r... */\n  jump(tag_6)\n    /* \"#utility.yul\":7:150   */\ntag_8:\n    /* \"#utility.yul\":64:69   */\n  0x00\n    /* \"#utility.yul\":95:101   */\n  dup2\n    /* \"#utility.yul\":89:102   */\n  mload\n    /* \"#utility.yul\":80:102   */\n  swap1\n  pop\n    /* \"#utility.yul\":111:144   */\n  tag_10\n    /* \"#utility.yul\":138:143   */\n  dup2\n    /* \"#utility.yul\":111:144   */\n  tag_11\n  jump\t// in\ntag_10:\n    /* \"#utility.yul\":7:150   */\n  swap3\n  swap2\n  pop\n  pop\n  jump\t// out\n    /* \"#utility.yul\":156:299   */\ntag_12:\n    /* \"#utility.yul\":213:218   */\n  0x00\n    /* \"#utility.yul\":244:250   */\n  dup2\n    /* \"#utility.yul\":238:251   */\n  mload\n    /* \"#utility.yul\":229:251   */\n  swap1\n  pop\n    /* \"#utility.yul\":260:293   */\n  tag_14\n    /* \"#utility.yul\":287:292   */\n  dup2\n    /* \"#utility.yul\":260:293   */\n  tag_15\n  jump\t// in\ntag_14:\n    /* \"#utility.yul\":156:299   */\n  swap3\n  swap2\n  pop\n  pop\n  jump\t// out\n    /* \"#utility.yul\":334:1126   */\ntag_16:\n    /* \"#utility.yul\":420:425   */\n  0x00\n    /* \"#utility.yul\":464:468   */\n  0x60\n    /* \"#utility.yul\":452:461   */\n  dup3\n    /* \"#utility.yul\":447:450   */\n  dup5\n    /* \"#utility.yul\":443:462   */\n  sub\n    /* \"#utility.yul\":439:469   */\n  slt\n    /* \"#utility.yul\":436:553   */\n  iszero\n  tag_18\n  jumpi\n    /* \"#utility.yul\":472:551   */\n  tag_19\n  tag_20\n  jump\t// in\ntag_19:\n    /* \"#utility.yul\":436:553   */\ntag_18:\n    /* \"#utility.yul\":571:592   */\n  tag_21\n    /* \"#utility.yul\":587:591   */\n  0x60\n    /* \"#utility.yul\":571:592   */\n  tag_22\n  jump\t// in\ntag_21:\n    /* \"#utility.yul\":562:592   */\n  swap1\n  pop\n    /* \"#utility.yul\":649:650   */\n  0x00\n    /* \"#utility.yul\":689:749   */\n  tag_23\n    /* \"#utility.yul\":745:748   */\n  dup5\n    /* \"#utility.yul\":736:742   */\n  dup3\n    /* \"#utility.yul\":725:734   */\n  dup6\n    /* \"#utility.yul\":721:743   */\n  add\n    /* \"#utility.yul\":689:749   */\n  tag_24\n  jump\t// in\ntag_23:\n    /* \"#utility.yul\":682:686   */\n  0x00\n    /* \"#utility.yul\":675:680   */\n  dup4\n    /* \"#utility.yul\":671:687   */\n  add\n    /* \"#utility.yul\":664:750   */\n  mstore\n    /* \"#utility.yul\":602:761   */\n  pop\n    /* \"#utility.yul\":829:831   */\n  0x20\n    /* \"#utility.yul\":870:930   */\n  tag_25\n    /* \"#utility.yul\":926:929   */\n  dup5\n    /* \"#utility.yul\":917:923   */\n  dup3\n    /* \"#utility.yul\":906:915   */\n  dup6\n    /* \"#utility.yul\":902:924   */\n  add\n    /* \"#utility.yul\":870:930   */\n  tag_12\n  jump\t// in\ntag_25:\n    /* \"#utility.yul\":863:867   */\n  0x20\n    /* \"#utility.yul\":856:861   */\n  dup4\n    /* \"#utility.yul\":852:868   */\n  add\n    /* \"#utility.yul\":845:931   */\n  mstore\n    /* \"#utility.yul\":771:942   */\n  pop\n    /* \"#utility.yul\":1006:1008   */\n  0x40\n    /* \"#utility.yul\":1047:1107   */\n  tag_26\n    /* \"#utility.yul\":1103:1106   */\n  dup5\n    /* \"#utility.yul\":1094:1100   */\n  dup3\n    /* \"#utility.yul\":1083:1092   */\n  dup6\n    /* \"#utility.yul\":1079:1101   */\n  add\n    /* \"#utility.yul\":1047:1107   */\n  tag_24\n  jump\t// in\ntag_26:\n    /* \"#utility.yul\":1040:1044   */\n  0x40\n    /* \"#utility.yul\":1033:1038   */\n  dup4\n    /* \"#utility.yul\":1029:1045   */\n  add\n    /* \"#utility.yul\":1022:1108   */\n  mstore\n    /* \"#utility.yul\":952:1119   */\n  pop\n    /* \"#utility.yul\":334:1126   */\n  swap3\n  swap2\n  pop\n  pop\n  jump\t// out\n    /* \"#utility.yul\":1132:1275   */\ntag_24:\n    /* \"#utility.yul\":1189:1194   */\n  0x00\n    /* \"#utility.yul\":1220:1226   */\n  dup2\n    /* \"#utility.yul\":1214:1227   */\n  mload\n    /* \"#utility.yul\":1205:1227   */\n  swap1\n  pop\n    /* \"#utility.yul\":1236:1269   */\n  tag_28\n    /* \"#utility.yul\":1263:1268   */\n  dup2\n    /* \"#utility.yul\":1236:1269   */\n  tag_29\n  jump\t// in\ntag_28:\n    /* \"#utility.yul\":1132:1275   */\n  swap3\n  swap2\n  pop\n  pop\n  jump\t// out\n    /* \"#utility.yul\":1281:2312   */\ntag_3:\n    /* \"#utility.yul\":1413:1419   */\n  0x00\n    /* \"#utility.yul\":1421:1427   */\n  dup1\n    /* \"#utility.yul\":1429:1435   */\n  0x00\n    /* \"#utility.yul\":1437:1443   */\n  dup1\n    /* \"#utility.yul\":1445:1451   */\n  0x00\n    /* \"#utility.yul\":1494:1497   */\n  0xe0\n    /* \"#utility.yul\":1482:1491   */\n  dup7\n    /* \"#utility.yul\":1473:1480   */\n  dup9\n    /* \"#utility.yul\":1469:1492   */\n  sub\n    /* \"#utility.yul\":1465:1498   */\n  slt\n    /* \"#utility.yul\":1462:1582   */\n  iszero\n  tag_31\n  jumpi\n    /* \"#utility.yul\":1501:1580   */\n  tag_32\n  tag_33\n  jump\t// in\ntag_32:\n    /* \"#utility.yul\":1462:1582   */\ntag_31:\n    /* \"#utility.yul\":1621:1622   */\n  0x00\n    /* \"#utility.yul\":1646:1710   */\n  tag_34\n    /* \"#utility.yul\":1702:1709   */\n  dup9\n    /* \"#utility.yul\":1693:1699   */\n  dup3\n    /* \"#utility.yul\":1682:1691   */\n  dup10\n    /* \"#utility.yul\":1678:1700   */\n  add\n    /* \"#utility.yul\":1646:1710   */\n  tag_8\n  jump\t// in\ntag_34:\n    /* \"#utility.yul\":1636:1710   */\n  swap6\n  pop\n    /* \"#utility.yul\":1592:1720   */\n  pop\n    /* \"#utility.yul\":1759:1761   */\n  0x20\n    /* \"#utility.yul\":1785:1875   */\n  tag_35\n    /* \"#utility.yul\":1867:1874   */\n  dup9\n    /* \"#utility.yul\":1858:1864   */\n  dup3\n    /* \"#utility.yul\":1847:1856   */\n  dup10\n    /* \"#utility.yul\":1843:1865   */\n  add\n    /* \"#utility.yul\":1785:1875   */\n  tag_16\n  jump\t// in\ntag_35:\n    /* \"#utility.yul\":1775:1875   */\n  swap5\n  pop\n    /* \"#utility.yul\":1730:1885   */\n  pop\n    /* \"#utility.yul\":1924:1927   */\n  0x80\n    /* \"#utility.yul\":1951:2015   */\n  tag_36\n    /* \"#utility.yul\":2007:2014   */\n  dup9\n    /* \"#utility.yul\":1998:2004   */\n  dup3\n    /* \"#utility.yul\":1987:1996   */\n  dup10\n    /* \"#utility.yul\":1983:2005   */\n  add\n    /* \"#utility.yul\":1951:2015   */\n  tag_24\n  jump\t// in\ntag_36:\n    /* \"#utility.yul\":1941:2015   */\n  swap4\n  pop\n    /* \"#utility.yul\":1895:2025   */\n  pop\n    /* \"#utility.yul\":2064:2067   */\n  0xa0\n    /* \"#utility.yul\":2091:2155   */\n  tag_37\n    /* \"#utility.yul\":2147:2154   */\n  dup9\n    /* \"#utility.yul\":2138:2144   */\n  dup3\n    /* \"#utility.yul\":2127:2136   */\n  dup10\n    /* \"#utility.yul\":2123:2145   */\n  add\n    /* \"#utility.yul\":2091:2155   */\n  tag_24\n  jump\t// in\ntag_37:\n    /* \"#utility.yul\":2081:2155   */\n  swap3\n  pop\n    /* \"#utility.yul\":2035:2165   */\n  pop\n    /* \"#utility.yul\":2204:2207   */\n  0xc0\n    /* \"#utility.yul\":2231:2295   */\n  tag_38\n    /* \"#utility.yul\":2287:2294   */\n  dup9\n    /* \"#utility.yul\":2278:2284   */\n  dup3\n    /* \"#utility.yul\":2267:2276   */\n  dup10\n    /* \"#utility.yul\":2263:2285   */\n  add\n    /* \"#utility.yul\":2231:2295   */\n  tag_24\n  jump\t// in\ntag_38:\n    /* \"#utility.yul\":2221:2295   */\n  swap2\n  pop\n    /* \"#utility.yul\":2175:2305   */\n  pop\n    /* \"#utility.yul\":1281:2312   */\n  swap3\n  swap6\n  pop\n  swap3\n  swap6\n  swap1\n  swap4\n  pop\n  jump\t// out\n    /* \"#utility.yul\":2318:2447   */\ntag_22:\n    /* \"#utility.yul\":2352:2358   */\n  0x00\n    /* \"#utility.yul\":2379:2399   */\n  tag_40\n  tag_41\n  jump\t// in\ntag_40:\n    /* \"#utility.yul\":2369:2399   */\n  swap1\n  pop\n    /* \"#utility.yul\":2408:2441   */\n  tag_42\n    /* \"#utility.yul\":2436:2440   */\n  dup3\n    /* \"#utility.yul\":2428:2434   */\n  dup3\n    /* \"#utility.yul\":2408:2441   */\n  tag_43\n  jump\t// in\ntag_42:\n    /* \"#utility.yul\":2318:2447   */\n  swap2\n  swap1\n  pop\n  jump\t// out\n    /* \"#utility.yul\":2453:2528   */\ntag_41:\n    /* \"#utility.yul\":2486:2492   */\n  0x00\n    /* \"#utility.yul\":2519:2521   */\n  0x40\n    /* \"#utility.yul\":2513:2522   */\n  mload\n    /* \"#utility.yul\":2503:2522   */\n  swap1\n  pop\n    /* \"#utility.yul\":2453:2528   */\n  swap1\n  jump\t// out\n    /* \"#utility.yul\":2534:2630   */\ntag_45:\n    /* \"#utility.yul\":2571:2578   */\n  0x00\n    /* \"#utility.yul\":2600:2624   */\n  tag_47\n    /* \"#utility.yul\":2618:2623   */\n  dup3\n    /* \"#utility.yul\":2600:2624   */\n  tag_48\n  jump\t// in\ntag_47:\n    /* \"#utility.yul\":2589:2624   */\n  swap1\n  pop\n    /* \"#utility.yul\":2534:2630   */\n  swap2\n  swap1\n  pop\n  jump\t// out\n    /* \"#utility.yul\":2636:2713   */\ntag_49:\n    /* \"#utility.yul\":2673:2680   */\n  0x00\n    /* \"#utility.yul\":2702:2707   */\n  dup2\n    /* \"#utility.yul\":2691:2707   */\n  swap1\n  pop\n    /* \"#utility.yul\":2636:2713   */\n  swap2\n  swap1\n  pop\n  jump\t// out\n    /* \"#utility.yul\":2719:2845   */\ntag_48:\n    /* \"#utility.yul\":2756:2763   */\n  0x00\n    /* \"#utility.yul\":2796:2838   */\n  0xffffffffffffffffffffffffffffffffffffffff\n    /* \"#utility.yul\":2789:2794   */\n  dup3\n    /* \"#utility.yul\":2785:2839   */\n  and\n    /* \"#utility.yul\":2774:2839   */\n  swap1\n  pop\n    /* \"#utility.yul\":2719:2845   */\n  swap2\n  swap1\n  pop\n  jump\t// out\n    /* \"#utility.yul\":2851:2928   */\ntag_52:\n    /* \"#utility.yul\":2888:2895   */\n  0x00\n    /* \"#utility.yul\":2917:2922   */\n  dup2\n    /* \"#utility.yul\":2906:2922   */\n  swap1\n  pop\n    /* \"#utility.yul\":2851:2928   */\n  swap2\n  swap1\n  pop\n  jump\t// out\n    /* \"#utility.yul\":2934:3215   */\ntag_43:\n    /* \"#utility.yul\":3017:3044   */\n  tag_55\n    /* \"#utility.yul\":3039:3043   */\n  dup3\n    /* \"#utility.yul\":3017:3044   */\n  tag_56\n  jump\t// in\ntag_55:\n    /* \"#utility.yul\":3009:3015   */\n  dup2\n    /* \"#utility.yul\":3005:3045   */\n  add\n    /* \"#utility.yul\":3147:3153   */\n  dup2\n    /* \"#utility.yul\":3135:3145   */\n  dup2\n    /* \"#utility.yul\":3132:3154   */\n  lt\n    /* \"#utility.yul\":3111:3129   */\n  0xffffffffffffffff\n    /* \"#utility.yul\":3099:3109   */\n  dup3\n    /* \"#utility.yul\":3096:3130   */\n  gt\n    /* \"#utility.yul\":3093:3155   */\n  or\n    /* \"#utility.yul\":3090:3178   */\n  iszero\n  tag_57\n  jumpi\n    /* \"#utility.yul\":3158:3176   */\n  tag_58\n  tag_59\n  jump\t// in\ntag_58:\n    /* \"#utility.yul\":3090:3178   */\ntag_57:\n    /* \"#utility.yul\":3198:3208   */\n  dup1\n    /* \"#utility.yul\":3194:3196   */\n  0x40\n    /* \"#utility.yul\":3187:3209   */\n  mstore\n    /* \"#utility.yul\":2977:3215   */\n  pop\n    /* \"#utility.yul\":2934:3215   */\n  pop\n  pop\n  jump\t// out\n    /* \"#utility.yul\":3221:3401   */\ntag_59:\n    /* \"#utility.yul\":3269:3346   */\n  0x4e487b7100000000000000000000000000000000000000000000000000000000\n    /* \"#utility.yul\":3266:3267   */\n  0x00\n    /* \"#utility.yul\":3259:3347   */\n  mstore\n    /* \"#utility.yul\":3366:3370   */\n  0x41\n    /* \"#utility.yul\":3363:3364   */\n  0x04\n    /* \"#utility.yul\":3356:3371   */\n  mstore\n    /* \"#utility.yul\":3390:3394   */\n  0x24\n    /* \"#utility.yul\":3387:3388   */\n  0x00\n    /* \"#utility.yul\":3380:3395   */\n  revert\n    /* \"#utility.yul\":3407:3524   */\ntag_20:\n    /* \"#utility.yul\":3516:3517   */\n  0x00\n    /* \"#utility.yul\":3513:3514   */\n  dup1\n    /* \"#utility.yul\":3506:3518   */\n  revert\n    /* \"#utility.yul\":3776:3893   */\ntag_33:\n    /* \"#utility.yul\":3885:3886   */\n  0x00\n    /* \"#utility.yul\":3882:3883   */\n  dup1\n    /* \"#utility.yul\":3875:3887   */\n  revert\n    /* \"#utility.yul\":3899:4001   */\ntag_56:\n    /* \"#utility.yul\":3940:3946   */\n  0x00\n    /* \"#utility.yul\":3991:3993   */\n  0x1f\n    /* \"#utility.yul\":3987:3994   */\n  not\n    /* \"#utility.yul\":3982:3984   */\n  0x1f\n    /* \"#utility.yul\":3975:3980   */\n  dup4\n    /* \"#utility.yul\":3971:3985   */\n  add\n    /* \"#utility.yul\":3967:3995   */\n  and\n    /* \"#utility.yul\":3957:3995   */\n  swap1\n  pop\n    /* \"#utility.yul\":3899:4001   */\n  swap2\n  swap1\n  pop\n  jump\t// out\n    /* \"#utility.yul\":4007:4129   */\ntag_11:\n    /* \"#utility.yul\":4080:4104   */\n  tag_69\n    /* \"#utility.yul\":4098:4103   */\n  dup2\n    /* \"#utility.yul\":4080:4104   */\n  tag_45\n  jump\t// in\ntag_69:\n    /* \"#utility.yul\":4073:4078   */\n  dup2\n    /* \"#utility.yul\":4070:4105   */\n  eq\n    /* \"#utility.yul\":4060:4123   */\n  tag_70\n  jumpi\n    /* \"#utility.yul\":4119:4120   */\n  0x00\n    /* \"#utility.yul\":4116:4117   */\n  dup1\n    /* \"#utility.yul\":4109:4121   */\n  revert\n    /* \"#utility.yul\":4060:4123   */\ntag_70:\n    /* \"#utility.yul\":4007:4129   */\n  pop\n  jump\t// out\n    /* \"#utility.yul\":4135:4257   */\ntag_15:\n    /* \"#utility.yul\":4208:4232   */\n  tag_72\n    /* \"#utility.yul\":4226:4231   */\n  dup2\n    /* \"#utility.yul\":4208:4232   */\n  tag_49\n  jump\t// in\ntag_72:\n    /* \"#utility.yul\":4201:4206   */\n  dup2\n    /* \"#utility.yul\":4198:4233   */\n  eq\n    /* \"#utility.yul\":4188:4251   */\n  tag_73\n  jumpi\n    /* \"#utility.yul\":4247:4248   */\n  0x00\n    /* \"#utility.yul\":4244:4245   */\n  dup1\n    /* \"#utility.yul\":4237:4249   */\n  revert\n    /* \"#utility.yul\":4188:4251   */\ntag_73:\n    /* \"#utility.yul\":4135:4257   */\n  pop\n  jump\t// out\n    /* \"#utility.yul\":4263:4385   */\ntag_29:\n    /* \"#utility.yul\":4336:4360   */\n  tag_75\n    /* \"#utility.yul\":4354:4359   */\n  dup2\n    /* \"#utility.yul\":4336:4360   */\n  tag_52\n  jump\t// in\ntag_75:\n    /* \"#utility.yul\":4329:4334   */\n  dup2\n    /* \"#utility.yul\":4326:4361   */\n  eq\n    /* \"#utility.yul\":4316:4379   */\n  tag_76\n  jumpi\n    /* \"#utility.yul\":4375:4376   */\n  0x00\n    /* \"#utility.yul\":4372:4373   */\n  dup1\n    /* \"#utility.yul\":4365:4377   */\n  revert\n    /* \"#utility.yul\":4316:4379   */\ntag_76:\n    /* \"#utility.yul\":4263:4385   */\n  pop\n  jump\t// out\n    /* \"contracts_new/TaskInfo.sol\":921:3835  contract TaskInfo is ITaskInfo {\r... */\ntag_6:\n  dataSize(sub_0)\n  dup1\n  dataOffset(sub_0)\n  0x00\n  codecopy\n  0x00\n  return\nstop\n\nsub_0: assembly {\n        /* \"contracts_new/TaskInfo.sol\":921:3835  contract TaskInfo is ITaskInfo {\r... */\n      mstore(0x40, 0x80)\n      callvalue\n      dup1\n      iszero\n      tag_1\n      jumpi\n      0x00\n      dup1\n      revert\n    tag_1:\n      pop\n      jumpi(tag_2, lt(calldatasize, 0x04))\n      shr(0xe0, calldataload(0x00))\n      dup1\n      0x73b0eb75\n      gt\n      tag_15\n      jumpi\n      dup1\n      0x73b0eb75\n      eq\n      tag_9\n      jumpi\n      dup1\n      0x91051e80\n      eq\n      tag_10\n      jumpi\n      dup1\n      0x98d5fdca\n      eq\n      tag_11\n      jumpi\n      dup1\n      0xa5bfa746\n      eq\n      tag_12\n      jumpi\n      dup1\n      0xdb48ce0b\n      eq\n      tag_13\n      jumpi\n      dup1\n      0xffea0ef4\n      eq\n      tag_14\n      jumpi\n      jump(tag_2)\n    tag_15:\n      dup1\n      0x1c3c0ea8\n      eq\n      tag_3\n      jumpi\n      dup1\n      0x3d5e0515\n      eq\n      tag_4\n      jumpi\n      dup1\n      0x50592adf\n      eq\n      tag_5\n      jumpi\n      dup1\n      0x64a40642\n      eq\n      tag_6\n      jumpi\n      dup1\n      0x650d993b\n      eq\n      tag_7\n      jumpi\n      dup1\n      0x6c1032af\n      eq\n      tag_8\n      jumpi\n    tag_2:\n      0x00\n      dup1\n      revert\n        /* \"contracts_new/TaskInfo.sol\":3170:3389  function setExecutor(address executor_) external override {\r... */\n    tag_3:\n      tag_16\n      0x04\n      dup1\n      calldatasize\n      sub\n      dup2\n      add\n      swap1\n      tag_17\n      swap2\n      swap1\n      tag_18\n      jump\t// in\n    tag_17:\n      tag_19\n      jump\t// in\n    tag_16:\n      stop\n        /* \"contracts_new/TaskInfo.sol\":3397:3548  function addSolution(utils.SolutionData memory solution_data) external override {\r... */\n    tag_4:\n      tag_20\n      0x04\n      dup1\n      calldatasize\n      sub\n      dup2\n      add\n      swap1\n      tag_21\n      swap2\n      swap1\n      tag_22\n      jump\t// in\n    tag_21:\n      tag_23\n      jump\t// in\n    tag_20:\n      stop\n        /* \"contracts_new/TaskInfo.sol\":2629:2842  function getSolution() public view override returns (utils.SolutionData[] memory) {\r... */\n    tag_5:\n      tag_24\n      tag_25\n      jump\t// in\n    tag_24:\n      mload(0x40)\n      tag_26\n      swap2\n      swap1\n      tag_27\n      jump\t// in\n    tag_26:\n      mload(0x40)\n      dup1\n      swap2\n      sub\n      swap1\n      return\n        /* \"contracts_new/TaskInfo.sol\":2313:2423  function getSecurityDeposit() public view override returns (uint256) {\r... */\n    tag_6:\n      tag_28\n      tag_29\n      jump\t// in\n    tag_28:\n      mload(0x40)\n      tag_30\n      swap2\n      swap1\n      tag_31\n      jump\t// in\n    tag_30:\n      mload(0x40)\n      dup1\n      swap2\n      sub\n      swap1\n      return\n        /* \"contracts_new/TaskInfo.sol\":1874:1970  function getCustomer() public view override returns (address) {\r... */\n    tag_7:\n      tag_32\n      tag_33\n      jump\t// in\n    tag_32:\n      mload(0x40)\n      tag_34\n      swap2\n      swap1\n      tag_35\n      jump\t// in\n    tag_34:\n      mload(0x40)\n      dup1\n      swap2\n      sub\n      swap1\n      return\n        /* \"contracts_new/TaskInfo.sol\":2431:2621  function getExecutor() public view override returns (address) {\r... */\n    tag_8:\n      tag_36\n      tag_37\n      jump\t// in\n    tag_36:\n      mload(0x40)\n      tag_38\n      swap2\n      swap1\n      tag_35\n      jump\t// in\n    tag_38:\n      mload(0x40)\n      dup1\n      swap2\n      sub\n      swap1\n      return\n        /* \"contracts_new/TaskInfo.sol\":2850:3005  function setNewMasterSmartContract(address new_master) external override {\r... */\n    tag_9:\n      tag_39\n      0x04\n      dup1\n      calldatasize\n      sub\n      dup2\n      add\n      swap1\n      tag_40\n      swap2\n      swap1\n      tag_18\n      jump\t// in\n    tag_40:\n      tag_41\n      jump\t// in\n    tag_39:\n      stop\n        /* \"contracts_new/TaskInfo.sol\":2096:2207  function getTaskExecutionTime() public view override returns (uint) {\r... */\n    tag_10:\n      tag_42\n      tag_43\n      jump\t// in\n    tag_42:\n      mload(0x40)\n      tag_44\n      swap2\n      swap1\n      tag_31\n      jump\t// in\n    tag_44:\n      mload(0x40)\n      dup1\n      swap2\n      sub\n      swap1\n      return\n        /* \"contracts_new/TaskInfo.sol\":2215:2305  function getPrice() public view override returns (uint256) {\r... */\n    tag_11:\n      tag_45\n      tag_46\n      jump\t// in\n    tag_45:\n      mload(0x40)\n      tag_47\n      swap2\n      swap1\n      tag_31\n      jump\t// in\n    tag_47:\n      mload(0x40)\n      dup1\n      swap2\n      sub\n      swap1\n      return\n        /* \"contracts_new/TaskInfo.sol\":3556:3665  function grantPublicAccess() external override {\r... */\n    tag_12:\n      tag_48\n      tag_49\n      jump\t// in\n    tag_48:\n      stop\n        /* \"contracts_new/TaskInfo.sol\":1978:2088  function getTaskData() public view override returns (utils.TaskData memory) {\r... */\n    tag_13:\n      tag_50\n      tag_51\n      jump\t// in\n    tag_50:\n      mload(0x40)\n      tag_52\n      swap2\n      swap1\n      tag_53\n      jump\t// in\n    tag_52:\n      mload(0x40)\n      dup1\n      swap2\n      sub\n      swap1\n      return\n        /* \"contracts_new/TaskInfo.sol\":3013:3162  function addTaskExecutionTime(uint additional_time) external override {\r... */\n    tag_14:\n      tag_54\n      0x04\n      dup1\n      calldatasize\n      sub\n      dup2\n      add\n      swap1\n      tag_55\n      swap2\n      swap1\n      tag_56\n      jump\t// in\n    tag_55:\n      tag_57\n      jump\t// in\n    tag_54:\n      stop\n        /* \"contracts_new/TaskInfo.sol\":3170:3389  function setExecutor(address executor_) external override {\r... */\n    tag_19:\n        /* \"contracts_new/TaskInfo.sol\":3239:3252  checkSender() */\n      tag_59\n        /* \"contracts_new/TaskInfo.sol\":3239:3250  checkSender */\n      tag_60\n        /* \"contracts_new/TaskInfo.sol\":3239:3252  checkSender() */\n      jump\t// in\n    tag_59:\n        /* \"contracts_new/TaskInfo.sol\":3287:3290  0x0 */\n      0x00\n        /* \"contracts_new/TaskInfo.sol\":3267:3291  executor != address(0x0) */\n      0xffffffffffffffffffffffffffffffffffffffff\n      and\n        /* \"contracts_new/TaskInfo.sol\":3267:3275  executor */\n      0x08\n      0x00\n      swap1\n      sload\n      swap1\n      0x0100\n      exp\n      swap1\n      div\n      0xffffffffffffffffffffffffffffffffffffffff\n      and\n        /* \"contracts_new/TaskInfo.sol\":3267:3291  executor != address(0x0) */\n      0xffffffffffffffffffffffffffffffffffffffff\n      and\n      eq\n        /* \"contracts_new/TaskInfo.sol\":3263:3351  if (executor != address(0x0)) {\r... */\n      tag_61\n      jumpi\n        /* \"contracts_new/TaskInfo.sol\":3308:3339  revert(\"Executor already set.\") */\n      mload(0x40)\n      0x08c379a000000000000000000000000000000000000000000000000000000000\n      dup2\n      mstore\n      0x04\n      add\n      tag_62\n      swap1\n      tag_63\n      jump\t// in\n    tag_62:\n      mload(0x40)\n      dup1\n      swap2\n      sub\n      swap1\n      revert\n        /* \"contracts_new/TaskInfo.sol\":3263:3351  if (executor != address(0x0)) {\r... */\n    tag_61:\n        /* \"contracts_new/TaskInfo.sol\":3372:3381  executor_ */\n      dup1\n        /* \"contracts_new/TaskInfo.sol\":3361:3369  executor */\n      0x08\n      0x00\n        /* \"contracts_new/TaskInfo.sol\":3361:3381  executor = executor_ */\n      0x0100\n      exp\n      dup2\n      sload\n      dup2\n      0xffffffffffffffffffffffffffffffffffffffff\n      mul\n      not\n      and\n      swap1\n      dup4\n      0xffffffffffffffffffffffffffffffffffffffff\n      and\n      mul\n      or\n      swap1\n      sstore\n      pop\n        /* \"contracts_new/TaskInfo.sol\":3170:3389  function setExecutor(address executor_) external override {\r... */\n      pop\n      jump\t// out\n        /* \"contracts_new/TaskInfo.sol\":3397:3548  function addSolution(utils.SolutionData memory solution_data) external override {\r... */\n    tag_23:\n        /* \"contracts_new/TaskInfo.sol\":3488:3501  checkSender() */\n      tag_65\n        /* \"contracts_new/TaskInfo.sol\":3488:3499  checkSender */\n      tag_60\n        /* \"contracts_new/TaskInfo.sol\":3488:3501  checkSender() */\n      jump\t// in\n    tag_65:\n        /* \"contracts_new/TaskInfo.sol\":3512:3520  solution */\n      0x09\n        /* \"contracts_new/TaskInfo.sol\":3526:3539  solution_data */\n      dup2\n        /* \"contracts_new/TaskInfo.sol\":3512:3540  solution.push(solution_data) */\n      swap1\n      dup1\n      0x01\n      dup2\n      sload\n      add\n      dup1\n      dup3\n      sstore\n      dup1\n      swap2\n      pop\n      pop\n      0x01\n      swap1\n      sub\n      swap1\n      0x00\n      mstore\n      keccak256(0x00, 0x20)\n      swap1\n      0x03\n      mul\n      add\n      0x00\n      swap1\n      swap2\n      swap1\n      swap2\n      swap1\n      swap2\n      pop\n      0x00\n      dup3\n      add\n      mload\n      dup2\n      0x00\n      add\n      sstore\n      0x20\n      dup3\n      add\n      mload\n      dup2\n      0x01\n      add\n      sstore\n      0x40\n      dup3\n      add\n      mload\n      dup2\n      0x02\n      add\n      sstore\n      pop\n      pop\n        /* \"contracts_new/TaskInfo.sol\":3397:3548  function addSolution(utils.SolutionData memory solution_data) external override {\r... */\n      pop\n      jump\t// out\n        /* \"contracts_new/TaskInfo.sol\":2629:2842  function getSolution() public view override returns (utils.SolutionData[] memory) {\r... */\n    tag_25:\n        /* \"contracts_new/TaskInfo.sol\":2682:2709  utils.SolutionData[] memory */\n      0x60\n        /* \"contracts_new/TaskInfo.sol\":2743:2751  customer */\n      0x01\n      0x00\n      swap1\n      sload\n      swap1\n      0x0100\n      exp\n      swap1\n      div\n      0xffffffffffffffffffffffffffffffffffffffff\n      and\n        /* \"contracts_new/TaskInfo.sol\":2730:2751  tx.origin == customer */\n      0xffffffffffffffffffffffffffffffffffffffff\n      and\n        /* \"contracts_new/TaskInfo.sol\":2730:2739  tx.origin */\n      origin\n        /* \"contracts_new/TaskInfo.sol\":2730:2751  tx.origin == customer */\n      0xffffffffffffffffffffffffffffffffffffffff\n      and\n      eq\n        /* \"contracts_new/TaskInfo.sol\":2730:2776  tx.origin == customer || tx.origin == executor */\n      dup1\n      tag_68\n      jumpi\n      pop\n        /* \"contracts_new/TaskInfo.sol\":2768:2776  executor */\n      0x08\n      0x00\n      swap1\n      sload\n      swap1\n      0x0100\n      exp\n      swap1\n      div\n      0xffffffffffffffffffffffffffffffffffffffff\n      and\n        /* \"contracts_new/TaskInfo.sol\":2755:2776  tx.origin == executor */\n      0xffffffffffffffffffffffffffffffffffffffff\n      and\n        /* \"contracts_new/TaskInfo.sol\":2755:2764  tx.origin */\n      origin\n        /* \"contracts_new/TaskInfo.sol\":2755:2776  tx.origin == executor */\n      0xffffffffffffffffffffffffffffffffffffffff\n      and\n      eq\n        /* \"contracts_new/TaskInfo.sol\":2730:2776  tx.origin == customer || tx.origin == executor */\n    tag_68:\n        /* \"contracts_new/TaskInfo.sol\":2722:2808  require(tx.origin == customer || tx.origin == executor, \"You're not contract member.\") */\n      tag_69\n      jumpi\n      mload(0x40)\n      0x08c379a000000000000000000000000000000000000000000000000000000000\n      dup2\n      mstore\n      0x04\n      add\n      tag_70\n      swap1\n      tag_71\n      jump\t// in\n    tag_70:\n      mload(0x40)\n      dup1\n      swap2\n      sub\n      swap1\n      revert\n    tag_69:\n        /* \"contracts_new/TaskInfo.sol\":2826:2834  solution */\n      0x09\n        /* \"contracts_new/TaskInfo.sol\":2819:2834  return solution */\n      dup1\n      sload\n      dup1\n      0x20\n      mul\n      0x20\n      add\n      mload(0x40)\n      swap1\n      dup2\n      add\n      0x40\n      mstore\n      dup1\n      swap3\n      swap2\n      swap1\n      dup2\n      dup2\n      mstore\n      0x20\n      add\n      0x00\n      swap1\n    tag_72:\n      dup3\n      dup3\n      lt\n      iszero\n      tag_73\n      jumpi\n      dup4\n      dup3\n      swap1\n      0x00\n      mstore\n      keccak256(0x00, 0x20)\n      swap1\n      0x03\n      mul\n      add\n      mload(0x40)\n      dup1\n      0x60\n      add\n      0x40\n      mstore\n      swap1\n      dup2\n      0x00\n      dup3\n      add\n      sload\n      dup2\n      mstore\n      0x20\n      add\n      0x01\n      dup3\n      add\n      sload\n      dup2\n      mstore\n      0x20\n      add\n      0x02\n      dup3\n      add\n      sload\n      dup2\n      mstore\n      pop\n      pop\n      dup2\n      mstore\n      0x20\n      add\n      swap1\n      0x01\n      add\n      swap1\n      jump(tag_72)\n    tag_73:\n      pop\n      pop\n      pop\n      pop\n      swap1\n      pop\n        /* \"contracts_new/TaskInfo.sol\":2629:2842  function getSolution() public view override returns (utils.SolutionData[] memory) {\r... */\n      swap1\n      jump\t// out\n        /* \"contracts_new/TaskInfo.sol\":2313:2423  function getSecurityDeposit() public view override returns (uint256) {\r... */\n    tag_29:\n        /* \"contracts_new/TaskInfo.sol\":2373:2380  uint256 */\n      0x00\n        /* \"contracts_new/TaskInfo.sol\":2400:2415  securityDeposit */\n      sload(0x07)\n        /* \"contracts_new/TaskInfo.sol\":2393:2415  return securityDeposit */\n      swap1\n      pop\n        /* \"contracts_new/TaskInfo.sol\":2313:2423  function getSecurityDeposit() public view override returns (uint256) {\r... */\n      swap1\n      jump\t// out\n        /* \"contracts_new/TaskInfo.sol\":1874:1970  function getCustomer() public view override returns (address) {\r... */\n    tag_33:\n        /* \"contracts_new/TaskInfo.sol\":1927:1934  address */\n      0x00\n        /* \"contracts_new/TaskInfo.sol\":1954:1962  customer */\n      0x01\n      0x00\n      swap1\n      sload\n      swap1\n      0x0100\n      exp\n      swap1\n      div\n      0xffffffffffffffffffffffffffffffffffffffff\n      and\n        /* \"contracts_new/TaskInfo.sol\":1947:1962  return customer */\n      swap1\n      pop\n        /* \"contracts_new/TaskInfo.sol\":1874:1970  function getCustomer() public view override returns (address) {\r... */\n      swap1\n      jump\t// out\n        /* \"contracts_new/TaskInfo.sol\":2431:2621  function getExecutor() public view override returns (address) {\r... */\n    tag_37:\n        /* \"contracts_new/TaskInfo.sol\":2484:2491  address */\n      0x00\n        /* \"contracts_new/TaskInfo.sol\":2528:2531  0x0 */\n      dup1\n        /* \"contracts_new/TaskInfo.sol\":2508:2532  executor == address(0x0) */\n      0xffffffffffffffffffffffffffffffffffffffff\n      and\n        /* \"contracts_new/TaskInfo.sol\":2508:2516  executor */\n      0x08\n      0x00\n      swap1\n      sload\n      swap1\n      0x0100\n      exp\n      swap1\n      div\n      0xffffffffffffffffffffffffffffffffffffffff\n      and\n        /* \"contracts_new/TaskInfo.sol\":2508:2532  executor == address(0x0) */\n      0xffffffffffffffffffffffffffffffffffffffff\n      and\n      eq\n        /* \"contracts_new/TaskInfo.sol\":2504:2588  if (executor == address(0x0)) {\r... */\n      iszero\n      tag_78\n      jumpi\n        /* \"contracts_new/TaskInfo.sol\":2549:2576  revert(\"Executor not set.\") */\n      mload(0x40)\n      0x08c379a000000000000000000000000000000000000000000000000000000000\n      dup2\n      mstore\n      0x04\n      add\n      tag_79\n      swap1\n      tag_80\n      jump\t// in\n    tag_79:\n      mload(0x40)\n      dup1\n      swap2\n      sub\n      swap1\n      revert\n        /* \"contracts_new/TaskInfo.sol\":2504:2588  if (executor == address(0x0)) {\r... */\n    tag_78:\n        /* \"contracts_new/TaskInfo.sol\":2605:2613  executor */\n      0x08\n      0x00\n      swap1\n      sload\n      swap1\n      0x0100\n      exp\n      swap1\n      div\n      0xffffffffffffffffffffffffffffffffffffffff\n      and\n        /* \"contracts_new/TaskInfo.sol\":2598:2613  return executor */\n      swap1\n      pop\n        /* \"contracts_new/TaskInfo.sol\":2431:2621  function getExecutor() public view override returns (address) {\r... */\n      swap1\n      jump\t// out\n        /* \"contracts_new/TaskInfo.sol\":2850:3005  function setNewMasterSmartContract(address new_master) external override {\r... */\n    tag_41:\n        /* \"contracts_new/TaskInfo.sol\":2934:2947  checkSender() */\n      tag_82\n        /* \"contracts_new/TaskInfo.sol\":2934:2945  checkSender */\n      tag_60\n        /* \"contracts_new/TaskInfo.sol\":2934:2947  checkSender() */\n      jump\t// in\n    tag_82:\n        /* \"contracts_new/TaskInfo.sol\":2987:2997  new_master */\n      dup1\n        /* \"contracts_new/TaskInfo.sol\":2958:2984  masterSmartContractAddress */\n      0x00\n      dup1\n        /* \"contracts_new/TaskInfo.sol\":2958:2997  masterSmartContractAddress = new_master */\n      0x0100\n      exp\n      dup2\n      sload\n      dup2\n      0xffffffffffffffffffffffffffffffffffffffff\n      mul\n      not\n      and\n      swap1\n      dup4\n      0xffffffffffffffffffffffffffffffffffffffff\n      and\n      mul\n      or\n      swap1\n      sstore\n      pop\n        /* \"contracts_new/TaskInfo.sol\":2850:3005  function setNewMasterSmartContract(address new_master) external override {\r... */\n      pop\n      jump\t// out\n        /* \"contracts_new/TaskInfo.sol\":2096:2207  function getTaskExecutionTime() public view override returns (uint) {\r... */\n    tag_43:\n        /* \"contracts_new/TaskInfo.sol\":2158:2162  uint */\n      0x00\n        /* \"contracts_new/TaskInfo.sol\":2182:2199  taskExecutionTime */\n      sload(0x05)\n        /* \"contracts_new/TaskInfo.sol\":2175:2199  return taskExecutionTime */\n      swap1\n      pop\n        /* \"contracts_new/TaskInfo.sol\":2096:2207  function getTaskExecutionTime() public view override returns (uint) {\r... */\n      swap1\n      jump\t// out\n        /* \"contracts_new/TaskInfo.sol\":2215:2305  function getPrice() public view override returns (uint256) {\r... */\n    tag_46:\n        /* \"contracts_new/TaskInfo.sol\":2265:2272  uint256 */\n      0x00\n        /* \"contracts_new/TaskInfo.sol\":2292:2297  price */\n      sload(0x06)\n        /* \"contracts_new/TaskInfo.sol\":2285:2297  return price */\n      swap1\n      pop\n        /* \"contracts_new/TaskInfo.sol\":2215:2305  function getPrice() public view override returns (uint256) {\r... */\n      swap1\n      jump\t// out\n        /* \"contracts_new/TaskInfo.sol\":3556:3665  function grantPublicAccess() external override {\r... */\n    tag_49:\n        /* \"contracts_new/TaskInfo.sol\":3614:3627  checkSender() */\n      tag_86\n        /* \"contracts_new/TaskInfo.sol\":3614:3625  checkSender */\n      tag_60\n        /* \"contracts_new/TaskInfo.sol\":3614:3627  checkSender() */\n      jump\t// in\n    tag_86:\n        /* \"contracts_new/TaskInfo.sol\":3653:3657  true */\n      0x01\n        /* \"contracts_new/TaskInfo.sol\":3638:3650  publicAccess */\n      0x0a\n      0x00\n        /* \"contracts_new/TaskInfo.sol\":3638:3657  publicAccess = true */\n      0x0100\n      exp\n      dup2\n      sload\n      dup2\n      0xff\n      mul\n      not\n      and\n      swap1\n      dup4\n      iszero\n      iszero\n      mul\n      or\n      swap1\n      sstore\n      pop\n        /* \"contracts_new/TaskInfo.sol\":3556:3665  function grantPublicAccess() external override {\r... */\n      jump\t// out\n        /* \"contracts_new/TaskInfo.sol\":1978:2088  function getTaskData() public view override returns (utils.TaskData memory) {\r... */\n    tag_51:\n        /* \"contracts_new/TaskInfo.sol\":2031:2052  utils.TaskData memory */\n      tag_87\n      tag_88\n      jump\t// in\n    tag_87:\n        /* \"contracts_new/TaskInfo.sol\":2072:2080  taskData */\n      0x02\n        /* \"contracts_new/TaskInfo.sol\":2065:2080  return taskData */\n      mload(0x40)\n      dup1\n      0x60\n      add\n      0x40\n      mstore\n      swap1\n      dup2\n      0x00\n      dup3\n      add\n      sload\n      dup2\n      mstore\n      0x20\n      add\n      0x01\n      dup3\n      add\n      sload\n      dup2\n      mstore\n      0x20\n      add\n      0x02\n      dup3\n      add\n      sload\n      dup2\n      mstore\n      pop\n      pop\n      swap1\n      pop\n        /* \"contracts_new/TaskInfo.sol\":1978:2088  function getTaskData() public view override returns (utils.TaskData memory) {\r... */\n      swap1\n      jump\t// out\n        /* \"contracts_new/TaskInfo.sol\":3013:3162  function addTaskExecutionTime(uint additional_time) external override {\r... */\n    tag_57:\n        /* \"contracts_new/TaskInfo.sol\":3094:3107  checkSender() */\n      tag_91\n        /* \"contracts_new/TaskInfo.sol\":3094:3105  checkSender */\n      tag_60\n        /* \"contracts_new/TaskInfo.sol\":3094:3107  checkSender() */\n      jump\t// in\n    tag_91:\n        /* \"contracts_new/TaskInfo.sol\":3139:3154  additional_time */\n      dup1\n        /* \"contracts_new/TaskInfo.sol\":3118:3135  taskExecutionTime */\n      0x05\n      0x00\n        /* \"contracts_new/TaskInfo.sol\":3118:3154  taskExecutionTime += additional_time */\n      dup3\n      dup3\n      sload\n      tag_92\n      swap2\n      swap1\n      tag_93\n      jump\t// in\n    tag_92:\n      swap3\n      pop\n      pop\n      dup2\n      swap1\n      sstore\n      pop\n        /* \"contracts_new/TaskInfo.sol\":3013:3162  function addTaskExecutionTime(uint additional_time) external override {\r... */\n      pop\n      jump\t// out\n        /* \"contracts_new/TaskInfo.sol\":3673:3832  function checkSender() private view {\r... */\n    tag_60:\n        /* \"contracts_new/TaskInfo.sol\":3742:3768  masterSmartContractAddress */\n      0x00\n      dup1\n      sload\n      swap1\n      0x0100\n      exp\n      swap1\n      div\n      0xffffffffffffffffffffffffffffffffffffffff\n      and\n        /* \"contracts_new/TaskInfo.sol\":3728:3768  msg.sender == masterSmartContractAddress */\n      0xffffffffffffffffffffffffffffffffffffffff\n      and\n        /* \"contracts_new/TaskInfo.sol\":3728:3738  msg.sender */\n      caller\n        /* \"contracts_new/TaskInfo.sol\":3728:3768  msg.sender == masterSmartContractAddress */\n      0xffffffffffffffffffffffffffffffffffffffff\n      and\n      eq\n        /* \"contracts_new/TaskInfo.sol\":3728:3784  msg.sender == masterSmartContractAddress || publicAccess */\n      dup1\n      tag_95\n      jumpi\n      pop\n        /* \"contracts_new/TaskInfo.sol\":3772:3784  publicAccess */\n      0x0a\n      0x00\n      swap1\n      sload\n      swap1\n      0x0100\n      exp\n      swap1\n      div\n      0xff\n      and\n        /* \"contracts_new/TaskInfo.sol\":3728:3784  msg.sender == masterSmartContractAddress || publicAccess */\n    tag_95:\n        /* \"contracts_new/TaskInfo.sol\":3720:3824  require(msg.sender == masterSmartContractAddress || publicAccess, \"Only master contract can call this.\") */\n      tag_96\n      jumpi\n      mload(0x40)\n      0x08c379a000000000000000000000000000000000000000000000000000000000\n      dup2\n      mstore\n      0x04\n      add\n      tag_97\n      swap1\n      tag_98\n      jump\t// in\n    tag_97:\n      mload(0x40)\n      dup1\n      swap2\n      sub\n      swap1\n      revert\n    tag_96:\n        /* \"contracts_new/TaskInfo.sol\":3673:3832  function checkSender() private view {\r... */\n      jump\t// out\n    tag_88:\n      mload(0x40)\n      dup1\n      0x60\n      add\n      0x40\n      mstore\n      dup1\n      0x00\n      dup2\n      mstore\n      0x20\n      add\n      0x00\n      dup1\n      not\n      and\n      dup2\n      mstore\n      0x20\n      add\n      0x00\n      dup2\n      mstore\n      pop\n      swap1\n      jump\t// out\n        /* \"#utility.yul\":7:146   */\n    tag_100:\n        /* \"#utility.yul\":53:58   */\n      0x00\n        /* \"#utility.yul\":91:97   */\n      dup2\n        /* \"#utility.yul\":78:98   */\n      calldataload\n        /* \"#utility.yul\":69:98   */\n      swap1\n      pop\n        /* \"#utility.yul\":107:140   */\n      tag_102\n        /* \"#utility.yul\":134:139   */\n      dup2\n        /* \"#utility.yul\":107:140   */\n      tag_103\n      jump\t// in\n    tag_102:\n        /* \"#utility.yul\":7:146   */\n      swap3\n      swap2\n      pop\n      pop\n      jump\t// out\n        /* \"#utility.yul\":152:291   */\n    tag_104:\n        /* \"#utility.yul\":198:203   */\n      0x00\n        /* \"#utility.yul\":236:242   */\n      dup2\n        /* \"#utility.yul\":223:243   */\n      calldataload\n        /* \"#utility.yul\":214:243   */\n      swap1\n      pop\n        /* \"#utility.yul\":252:285   */\n      tag_106\n        /* \"#utility.yul\":279:284   */\n      dup2\n        /* \"#utility.yul\":252:285   */\n      tag_107\n      jump\t// in\n    tag_106:\n        /* \"#utility.yul\":152:291   */\n      swap3\n      swap2\n      pop\n      pop\n      jump\t// out\n        /* \"#utility.yul\":330:1082   */\n    tag_108:\n        /* \"#utility.yul\":409:414   */\n      0x00\n        /* \"#utility.yul\":453:457   */\n      0x60\n        /* \"#utility.yul\":441:450   */\n      dup3\n        /* \"#utility.yul\":436:439   */\n      dup5\n        /* \"#utility.yul\":432:451   */\n      sub\n        /* \"#utility.yul\":428:458   */\n      slt\n        /* \"#utility.yul\":425:542   */\n      iszero\n      tag_110\n      jumpi\n        /* \"#utility.yul\":461:540   */\n      tag_111\n      tag_112\n      jump\t// in\n    tag_111:\n        /* \"#utility.yul\":425:542   */\n    tag_110:\n        /* \"#utility.yul\":560:581   */\n      tag_113\n        /* \"#utility.yul\":576:580   */\n      0x60\n        /* \"#utility.yul\":560:581   */\n      tag_114\n      jump\t// in\n    tag_113:\n        /* \"#utility.yul\":551:581   */\n      swap1\n      pop\n        /* \"#utility.yul\":638:639   */\n      0x00\n        /* \"#utility.yul\":678:727   */\n      tag_115\n        /* \"#utility.yul\":723:726   */\n      dup5\n        /* \"#utility.yul\":714:720   */\n      dup3\n        /* \"#utility.yul\":703:712   */\n      dup6\n        /* \"#utility.yul\":699:721   */\n      add\n        /* \"#utility.yul\":678:727   */\n      tag_116\n      jump\t// in\n    tag_115:\n        /* \"#utility.yul\":671:675   */\n      0x00\n        /* \"#utility.yul\":664:669   */\n      dup4\n        /* \"#utility.yul\":660:676   */\n      add\n        /* \"#utility.yul\":653:728   */\n      mstore\n        /* \"#utility.yul\":591:739   */\n      pop\n        /* \"#utility.yul\":807:809   */\n      0x20\n        /* \"#utility.yul\":848:897   */\n      tag_117\n        /* \"#utility.yul\":893:896   */\n      dup5\n        /* \"#utility.yul\":884:890   */\n      dup3\n        /* \"#utility.yul\":873:882   */\n      dup6\n        /* \"#utility.yul\":869:891   */\n      add\n        /* \"#utility.yul\":848:897   */\n      tag_104\n      jump\t// in\n    tag_117:\n        /* \"#utility.yul\":841:845   */\n      0x20\n        /* \"#utility.yul\":834:839   */\n      dup4\n        /* \"#utility.yul\":830:846   */\n      add\n        /* \"#utility.yul\":823:898   */\n      mstore\n        /* \"#utility.yul\":749:909   */\n      pop\n        /* \"#utility.yul\":973:975   */\n      0x40\n        /* \"#utility.yul\":1014:1063   */\n      tag_118\n        /* \"#utility.yul\":1059:1062   */\n      dup5\n        /* \"#utility.yul\":1050:1056   */\n      dup3\n        /* \"#utility.yul\":1039:1048   */\n      dup6\n        /* \"#utility.yul\":1035:1057   */\n      add\n        /* \"#utility.yul\":1014:1063   */\n      tag_116\n      jump\t// in\n    tag_118:\n        /* \"#utility.yul\":1007:1011   */\n      0x40\n        /* \"#utility.yul\":1000:1005   */\n      dup4\n        /* \"#utility.yul\":996:1012   */\n      add\n        /* \"#utility.yul\":989:1064   */\n      mstore\n        /* \"#utility.yul\":919:1075   */\n      pop\n        /* \"#utility.yul\":330:1082   */\n      swap3\n      swap2\n      pop\n      pop\n      jump\t// out\n        /* \"#utility.yul\":1088:1227   */\n    tag_116:\n        /* \"#utility.yul\":1134:1139   */\n      0x00\n        /* \"#utility.yul\":1172:1178   */\n      dup2\n        /* \"#utility.yul\":1159:1179   */\n      calldataload\n        /* \"#utility.yul\":1150:1179   */\n      swap1\n      pop\n        /* \"#utility.yul\":1188:1221   */\n      tag_120\n        /* \"#utility.yul\":1215:1220   */\n      dup2\n        /* \"#utility.yul\":1188:1221   */\n      tag_121\n      jump\t// in\n    tag_120:\n        /* \"#utility.yul\":1088:1227   */\n      swap3\n      swap2\n      pop\n      pop\n      jump\t// out\n        /* \"#utility.yul\":1233:1562   */\n    tag_18:\n        /* \"#utility.yul\":1292:1298   */\n      0x00\n        /* \"#utility.yul\":1341:1343   */\n      0x20\n        /* \"#utility.yul\":1329:1338   */\n      dup3\n        /* \"#utility.yul\":1320:1327   */\n      dup5\n        /* \"#utility.yul\":1316:1339   */\n      sub\n        /* \"#utility.yul\":1312:1344   */\n      slt\n        /* \"#utility.yul\":1309:1428   */\n      iszero\n      tag_123\n      jumpi\n        /* \"#utility.yul\":1347:1426   */\n      tag_124\n      tag_125\n      jump\t// in\n    tag_124:\n        /* \"#utility.yul\":1309:1428   */\n    tag_123:\n        /* \"#utility.yul\":1467:1468   */\n      0x00\n        /* \"#utility.yul\":1492:1545   */\n      tag_126\n        /* \"#utility.yul\":1537:1544   */\n      dup5\n        /* \"#utility.yul\":1528:1534   */\n      dup3\n        /* \"#utility.yul\":1517:1526   */\n      dup6\n        /* \"#utility.yul\":1513:1535   */\n      add\n        /* \"#utility.yul\":1492:1545   */\n      tag_100\n      jump\t// in\n    tag_126:\n        /* \"#utility.yul\":1482:1545   */\n      swap2\n      pop\n        /* \"#utility.yul\":1438:1555   */\n      pop\n        /* \"#utility.yul\":1233:1562   */\n      swap3\n      swap2\n      pop\n      pop\n      jump\t// out\n        /* \"#utility.yul\":1568:1957   */\n    tag_22:\n        /* \"#utility.yul\":1657:1663   */\n      0x00\n        /* \"#utility.yul\":1706:1708   */\n      0x60\n        /* \"#utility.yul\":1694:1703   */\n      dup3\n        /* \"#utility.yul\":1685:1692   */\n      dup5\n        /* \"#utility.yul\":1681:1704   */\n      sub\n        /* \"#utility.yul\":1677:1709   */\n      slt\n        /* \"#utility.yul\":1674:1793   */\n      iszero\n      tag_128\n      jumpi\n        /* \"#utility.yul\":1712:1791   */\n      tag_129\n      tag_125\n      jump\t// in\n    tag_129:\n        /* \"#utility.yul\":1674:1793   */\n    tag_128:\n        /* \"#utility.yul\":1832:1833   */\n      0x00\n        /* \"#utility.yul\":1857:1940   */\n      tag_130\n        /* \"#utility.yul\":1932:1939   */\n      dup5\n        /* \"#utility.yul\":1923:1929   */\n      dup3\n        /* \"#utility.yul\":1912:1921   */\n      dup6\n        /* \"#utility.yul\":1908:1930   */\n      add\n        /* \"#utility.yul\":1857:1940   */\n      tag_108\n      jump\t// in\n    tag_130:\n        /* \"#utility.yul\":1847:1940   */\n      swap2\n      pop\n        /* \"#utility.yul\":1803:1950   */\n      pop\n        /* \"#utility.yul\":1568:1957   */\n      swap3\n      swap2\n      pop\n      pop\n      jump\t// out\n        /* \"#utility.yul\":1963:2292   */\n    tag_56:\n        /* \"#utility.yul\":2022:2028   */\n      0x00\n        /* \"#utility.yul\":2071:2073   */\n      0x20\n        /* \"#utility.yul\":2059:2068   */\n      dup3\n        /* \"#utility.yul\":2050:2057   */\n      dup5\n        /* \"#utility.yul\":2046:2069   */\n      sub\n        /* \"#utility.yul\":2042:2074   */\n      slt\n        /* \"#utility.yul\":2039:2158   */\n      iszero\n      tag_132\n      jumpi\n        /* \"#utility.yul\":2077:2156   */\n      tag_133\n      tag_125\n      jump\t// in\n    tag_133:\n        /* \"#utility.yul\":2039:2158   */\n    tag_132:\n        /* \"#utility.yul\":2197:2198   */\n      0x00\n        /* \"#utility.yul\":2222:2275   */\n      tag_134\n        /* \"#utility.yul\":2267:2274   */\n      dup5\n        /* \"#utility.yul\":2258:2264   */\n      dup3\n        /* \"#utility.yul\":2247:2256   */\n      dup6\n        /* \"#utility.yul\":2243:2265   */\n      add\n        /* \"#utility.yul\":2222:2275   */\n      tag_116\n      jump\t// in\n    tag_134:\n        /* \"#utility.yul\":2212:2275   */\n      swap2\n      pop\n        /* \"#utility.yul\":2168:2285   */\n      pop\n        /* \"#utility.yul\":1963:2292   */\n      swap3\n      swap2\n      pop\n      pop\n      jump\t// out\n        /* \"#utility.yul\":2298:2597   */\n    tag_135:\n        /* \"#utility.yul\":2427:2437   */\n      0x00\n        /* \"#utility.yul\":2448:2554   */\n      tag_137\n        /* \"#utility.yul\":2550:2553   */\n      dup4\n        /* \"#utility.yul\":2542:2548   */\n      dup4\n        /* \"#utility.yul\":2448:2554   */\n      tag_138\n      jump\t// in\n    tag_137:\n        /* \"#utility.yul\":2586:2590   */\n      0x60\n        /* \"#utility.yul\":2581:2584   */\n      dup4\n        /* \"#utility.yul\":2577:2591   */\n      add\n        /* \"#utility.yul\":2563:2591   */\n      swap1\n      pop\n        /* \"#utility.yul\":2298:2597   */\n      swap3\n      swap2\n      pop\n      pop\n      jump\t// out\n        /* \"#utility.yul\":2603:2721   */\n    tag_139:\n        /* \"#utility.yul\":2690:2714   */\n      tag_141\n        /* \"#utility.yul\":2708:2713   */\n      dup2\n        /* \"#utility.yul\":2690:2714   */\n      tag_142\n      jump\t// in\n    tag_141:\n        /* \"#utility.yul\":2685:2688   */\n      dup3\n        /* \"#utility.yul\":2678:2715   */\n      mstore\n        /* \"#utility.yul\":2603:2721   */\n      pop\n      pop\n      jump\t// out\n        /* \"#utility.yul\":2793:3765   */\n    tag_143:\n        /* \"#utility.yul\":2972:2975   */\n      0x00\n        /* \"#utility.yul\":3001:3085   */\n      tag_145\n        /* \"#utility.yul\":3079:3084   */\n      dup3\n        /* \"#utility.yul\":3001:3085   */\n      tag_146\n      jump\t// in\n    tag_145:\n        /* \"#utility.yul\":3101:3217   */\n      tag_147\n        /* \"#utility.yul\":3210:3216   */\n      dup2\n        /* \"#utility.yul\":3205:3208   */\n      dup6\n        /* \"#utility.yul\":3101:3217   */\n      tag_148\n      jump\t// in\n    tag_147:\n        /* \"#utility.yul\":3094:3217   */\n      swap4\n      pop\n        /* \"#utility.yul\":3241:3327   */\n      tag_149\n        /* \"#utility.yul\":3321:3326   */\n      dup4\n        /* \"#utility.yul\":3241:3327   */\n      tag_150\n      jump\t// in\n    tag_149:\n        /* \"#utility.yul\":3350:3357   */\n      dup1\n        /* \"#utility.yul\":3381:3382   */\n      0x00\n        /* \"#utility.yul\":3366:3740   */\n    tag_151:\n        /* \"#utility.yul\":3391:3397   */\n      dup4\n        /* \"#utility.yul\":3388:3389   */\n      dup2\n        /* \"#utility.yul\":3385:3398   */\n      lt\n        /* \"#utility.yul\":3366:3740   */\n      iszero\n      tag_153\n      jumpi\n        /* \"#utility.yul\":3467:3473   */\n      dup2\n        /* \"#utility.yul\":3461:3474   */\n      mload\n        /* \"#utility.yul\":3494:3617   */\n      tag_154\n        /* \"#utility.yul\":3613:3616   */\n      dup9\n        /* \"#utility.yul\":3598:3611   */\n      dup3\n        /* \"#utility.yul\":3494:3617   */\n      tag_135\n      jump\t// in\n    tag_154:\n        /* \"#utility.yul\":3487:3617   */\n      swap8\n      pop\n        /* \"#utility.yul\":3640:3730   */\n      tag_155\n        /* \"#utility.yul\":3723:3729   */\n      dup4\n        /* \"#utility.yul\":3640:3730   */\n      tag_156\n      jump\t// in\n    tag_155:\n        /* \"#utility.yul\":3630:3730   */\n      swap3\n      pop\n        /* \"#utility.yul\":3426:3740   */\n      pop\n        /* \"#utility.yul\":3413:3414   */\n      0x01\n        /* \"#utility.yul\":3410:3411   */\n      dup2\n        /* \"#utility.yul\":3406:3415   */\n      add\n        /* \"#utility.yul\":3401:3415   */\n      swap1\n      pop\n        /* \"#utility.yul\":3366:3740   */\n      jump(tag_151)\n    tag_153:\n        /* \"#utility.yul\":3370:3384   */\n      pop\n        /* \"#utility.yul\":3756:3759   */\n      dup6\n        /* \"#utility.yul\":3749:3759   */\n      swap4\n      pop\n        /* \"#utility.yul\":2977:3765   */\n      pop\n      pop\n      pop\n        /* \"#utility.yul\":2793:3765   */\n      swap3\n      swap2\n      pop\n      pop\n      jump\t// out\n        /* \"#utility.yul\":3771:3879   */\n    tag_157:\n        /* \"#utility.yul\":3848:3872   */\n      tag_159\n        /* \"#utility.yul\":3866:3871   */\n      dup2\n        /* \"#utility.yul\":3848:3872   */\n      tag_160\n      jump\t// in\n    tag_159:\n        /* \"#utility.yul\":3843:3846   */\n      dup3\n        /* \"#utility.yul\":3836:3873   */\n      mstore\n        /* \"#utility.yul\":3771:3879   */\n      pop\n      pop\n      jump\t// out\n        /* \"#utility.yul\":3885:4251   */\n    tag_161:\n        /* \"#utility.yul\":4027:4030   */\n      0x00\n        /* \"#utility.yul\":4048:4115   */\n      tag_163\n        /* \"#utility.yul\":4112:4114   */\n      0x23\n        /* \"#utility.yul\":4107:4110   */\n      dup4\n        /* \"#utility.yul\":4048:4115   */\n      tag_164\n      jump\t// in\n    tag_163:\n        /* \"#utility.yul\":4041:4115   */\n      swap2\n      pop\n        /* \"#utility.yul\":4124:4217   */\n      tag_165\n        /* \"#utility.yul\":4213:4216   */\n      dup3\n        /* \"#utility.yul\":4124:4217   */\n      tag_166\n      jump\t// in\n    tag_165:\n        /* \"#utility.yul\":4242:4244   */\n      0x40\n        /* \"#utility.yul\":4237:4240   */\n      dup3\n        /* \"#utility.yul\":4233:4245   */\n      add\n        /* \"#utility.yul\":4226:4245   */\n      swap1\n      pop\n        /* \"#utility.yul\":3885:4251   */\n      swap2\n      swap1\n      pop\n      jump\t// out\n        /* \"#utility.yul\":4257:4623   */\n    tag_167:\n        /* \"#utility.yul\":4399:4402   */\n      0x00\n        /* \"#utility.yul\":4420:4487   */\n      tag_169\n        /* \"#utility.yul\":4484:4486   */\n      0x11\n        /* \"#utility.yul\":4479:4482   */\n      dup4\n        /* \"#utility.yul\":4420:4487   */\n      tag_164\n      jump\t// in\n    tag_169:\n        /* \"#utility.yul\":4413:4487   */\n      swap2\n      pop\n        /* \"#utility.yul\":4496:4589   */\n      tag_170\n        /* \"#utility.yul\":4585:4588   */\n      dup3\n        /* \"#utility.yul\":4496:4589   */\n      tag_171\n      jump\t// in\n    tag_170:\n        /* \"#utility.yul\":4614:4616   */\n      0x20\n        /* \"#utility.yul\":4609:4612   */\n      dup3\n        /* \"#utility.yul\":4605:4617   */\n      add\n        /* \"#utility.yul\":4598:4617   */\n      swap1\n      pop\n        /* \"#utility.yul\":4257:4623   */\n      swap2\n      swap1\n      pop\n      jump\t// out\n        /* \"#utility.yul\":4629:4995   */\n    tag_172:\n        /* \"#utility.yul\":4771:4774   */\n      0x00\n        /* \"#utility.yul\":4792:4859   */\n      tag_174\n        /* \"#utility.yul\":4856:4858   */\n      0x15\n        /* \"#utility.yul\":4851:4854   */\n      dup4\n        /* \"#utility.yul\":4792:4859   */\n      tag_164\n      jump\t// in\n    tag_174:\n        /* \"#utility.yul\":4785:4859   */\n      swap2\n      pop\n        /* \"#utility.yul\":4868:4961   */\n      tag_175\n        /* \"#utility.yul\":4957:4960   */\n      dup3\n        /* \"#utility.yul\":4868:4961   */\n      tag_176\n      jump\t// in\n    tag_175:\n        /* \"#utility.yul\":4986:4988   */\n      0x20\n        /* \"#utility.yul\":4981:4984   */\n      dup3\n        /* \"#utility.yul\":4977:4989   */\n      add\n        /* \"#utility.yul\":4970:4989   */\n      swap1\n      pop\n        /* \"#utility.yul\":4629:4995   */\n      swap2\n      swap1\n      pop\n      jump\t// out\n        /* \"#utility.yul\":5001:5367   */\n    tag_177:\n        /* \"#utility.yul\":5143:5146   */\n      0x00\n        /* \"#utility.yul\":5164:5231   */\n      tag_179\n        /* \"#utility.yul\":5228:5230   */\n      0x1b\n        /* \"#utility.yul\":5223:5226   */\n      dup4\n        /* \"#utility.yul\":5164:5231   */\n      tag_164\n      jump\t// in\n    tag_179:\n        /* \"#utility.yul\":5157:5231   */\n      swap2\n      pop\n        /* \"#utility.yul\":5240:5333   */\n      tag_180\n        /* \"#utility.yul\":5329:5332   */\n      dup3\n        /* \"#utility.yul\":5240:5333   */\n      tag_181\n      jump\t// in\n    tag_180:\n        /* \"#utility.yul\":5358:5360   */\n      0x20\n        /* \"#utility.yul\":5353:5356   */\n      dup3\n        /* \"#utility.yul\":5349:5361   */\n      add\n        /* \"#utility.yul\":5342:5361   */\n      swap1\n      pop\n        /* \"#utility.yul\":5001:5367   */\n      swap2\n      swap1\n      pop\n      jump\t// out\n        /* \"#utility.yul\":5435:6128   */\n    tag_138:\n        /* \"#utility.yul\":5582:5586   */\n      0x60\n        /* \"#utility.yul\":5577:5580   */\n      dup3\n        /* \"#utility.yul\":5573:5587   */\n      add\n        /* \"#utility.yul\":5667:5671   */\n      0x00\n        /* \"#utility.yul\":5660:5665   */\n      dup3\n        /* \"#utility.yul\":5656:5672   */\n      add\n        /* \"#utility.yul\":5650:5673   */\n      mload\n        /* \"#utility.yul\":5686:5749   */\n      tag_183\n        /* \"#utility.yul\":5743:5747   */\n      0x00\n        /* \"#utility.yul\":5738:5741   */\n      dup6\n        /* \"#utility.yul\":5734:5748   */\n      add\n        /* \"#utility.yul\":5720:5732   */\n      dup3\n        /* \"#utility.yul\":5686:5749   */\n      tag_184\n      jump\t// in\n    tag_183:\n        /* \"#utility.yul\":5597:5759   */\n      pop\n        /* \"#utility.yul\":5850:5854   */\n      0x20\n        /* \"#utility.yul\":5843:5848   */\n      dup3\n        /* \"#utility.yul\":5839:5855   */\n      add\n        /* \"#utility.yul\":5833:5856   */\n      mload\n        /* \"#utility.yul\":5869:5932   */\n      tag_185\n        /* \"#utility.yul\":5926:5930   */\n      0x20\n        /* \"#utility.yul\":5921:5924   */\n      dup6\n        /* \"#utility.yul\":5917:5931   */\n      add\n        /* \"#utility.yul\":5903:5915   */\n      dup3\n        /* \"#utility.yul\":5869:5932   */\n      tag_157\n      jump\t// in\n    tag_185:\n        /* \"#utility.yul\":5769:5942   */\n      pop\n        /* \"#utility.yul\":6029:6033   */\n      0x40\n        /* \"#utility.yul\":6022:6027   */\n      dup3\n        /* \"#utility.yul\":6018:6034   */\n      add\n        /* \"#utility.yul\":6012:6035   */\n      mload\n        /* \"#utility.yul\":6048:6111   */\n      tag_186\n        /* \"#utility.yul\":6105:6109   */\n      0x40\n        /* \"#utility.yul\":6100:6103   */\n      dup6\n        /* \"#utility.yul\":6096:6110   */\n      add\n        /* \"#utility.yul\":6082:6094   */\n      dup3\n        /* \"#utility.yul\":6048:6111   */\n      tag_184\n      jump\t// in\n    tag_186:\n        /* \"#utility.yul\":5952:6121   */\n      pop\n        /* \"#utility.yul\":5551:6128   */\n      pop\n        /* \"#utility.yul\":5435:6128   */\n      pop\n      pop\n      jump\t// out\n        /* \"#utility.yul\":6188:6883   */\n    tag_187:\n        /* \"#utility.yul\":6337:6341   */\n      0x60\n        /* \"#utility.yul\":6332:6335   */\n      dup3\n        /* \"#utility.yul\":6328:6342   */\n      add\n        /* \"#utility.yul\":6422:6426   */\n      0x00\n        /* \"#utility.yul\":6415:6420   */\n      dup3\n        /* \"#utility.yul\":6411:6427   */\n      add\n        /* \"#utility.yul\":6405:6428   */\n      mload\n        /* \"#utility.yul\":6441:6504   */\n      tag_189\n        /* \"#utility.yul\":6498:6502   */\n      0x00\n        /* \"#utility.yul\":6493:6496   */\n      dup6\n        /* \"#utility.yul\":6489:6503   */\n      add\n        /* \"#utility.yul\":6475:6487   */\n      dup3\n        /* \"#utility.yul\":6441:6504   */\n      tag_184\n      jump\t// in\n    tag_189:\n        /* \"#utility.yul\":6352:6514   */\n      pop\n        /* \"#utility.yul\":6605:6609   */\n      0x20\n        /* \"#utility.yul\":6598:6603   */\n      dup3\n        /* \"#utility.yul\":6594:6610   */\n      add\n        /* \"#utility.yul\":6588:6611   */\n      mload\n        /* \"#utility.yul\":6624:6687   */\n      tag_190\n        /* \"#utility.yul\":6681:6685   */\n      0x20\n        /* \"#utility.yul\":6676:6679   */\n      dup6\n        /* \"#utility.yul\":6672:6686   */\n      add\n        /* \"#utility.yul\":6658:6670   */\n      dup3\n        /* \"#utility.yul\":6624:6687   */\n      tag_157\n      jump\t// in\n    tag_190:\n        /* \"#utility.yul\":6524:6697   */\n      pop\n        /* \"#utility.yul\":6784:6788   */\n      0x40\n        /* \"#utility.yul\":6777:6782   */\n      dup3\n        /* \"#utility.yul\":6773:6789   */\n      add\n        /* \"#utility.yul\":6767:6790   */\n      mload\n        /* \"#utility.yul\":6803:6866   */\n      tag_191\n        /* \"#utility.yul\":6860:6864   */\n      0x40\n        /* \"#utility.yul\":6855:6858   */\n      dup6\n        /* \"#utility.yul\":6851:6865   */\n      add\n        /* \"#utility.yul\":6837:6849   */\n      dup3\n        /* \"#utility.yul\":6803:6866   */\n      tag_184\n      jump\t// in\n    tag_191:\n        /* \"#utility.yul\":6707:6876   */\n      pop\n        /* \"#utility.yul\":6306:6883   */\n      pop\n        /* \"#utility.yul\":6188:6883   */\n      pop\n      pop\n      jump\t// out\n        /* \"#utility.yul\":6889:6997   */\n    tag_184:\n        /* \"#utility.yul\":6966:6990   */\n      tag_193\n        /* \"#utility.yul\":6984:6989   */\n      dup2\n        /* \"#utility.yul\":6966:6990   */\n      tag_194\n      jump\t// in\n    tag_193:\n        /* \"#utility.yul\":6961:6964   */\n      dup3\n        /* \"#utility.yul\":6954:6991   */\n      mstore\n        /* \"#utility.yul\":6889:6997   */\n      pop\n      pop\n      jump\t// out\n        /* \"#utility.yul\":7003:7121   */\n    tag_195:\n        /* \"#utility.yul\":7090:7114   */\n      tag_197\n        /* \"#utility.yul\":7108:7113   */\n      dup2\n        /* \"#utility.yul\":7090:7114   */\n      tag_194\n      jump\t// in\n    tag_197:\n        /* \"#utility.yul\":7085:7088   */\n      dup3\n        /* \"#utility.yul\":7078:7115   */\n      mstore\n        /* \"#utility.yul\":7003:7121   */\n      pop\n      pop\n      jump\t// out\n        /* \"#utility.yul\":7127:7349   */\n    tag_35:\n        /* \"#utility.yul\":7220:7224   */\n      0x00\n        /* \"#utility.yul\":7258:7260   */\n      0x20\n        /* \"#utility.yul\":7247:7256   */\n      dup3\n        /* \"#utility.yul\":7243:7261   */\n      add\n        /* \"#utility.yul\":7235:7261   */\n      swap1\n      pop\n        /* \"#utility.yul\":7271:7342   */\n      tag_199\n        /* \"#utility.yul\":7339:7340   */\n      0x00\n        /* \"#utility.yul\":7328:7337   */\n      dup4\n        /* \"#utility.yul\":7324:7341   */\n      add\n        /* \"#utility.yul\":7315:7321   */\n      dup5\n        /* \"#utility.yul\":7271:7342   */\n      tag_139\n      jump\t// in\n    tag_199:\n        /* \"#utility.yul\":7127:7349   */\n      swap3\n      swap2\n      pop\n      pop\n      jump\t// out\n        /* \"#utility.yul\":7355:7848   */\n    tag_27:\n        /* \"#utility.yul\":7558:7562   */\n      0x00\n        /* \"#utility.yul\":7596:7598   */\n      0x20\n        /* \"#utility.yul\":7585:7594   */\n      dup3\n        /* \"#utility.yul\":7581:7599   */\n      add\n        /* \"#utility.yul\":7573:7599   */\n      swap1\n      pop\n        /* \"#utility.yul\":7645:7654   */\n      dup2\n        /* \"#utility.yul\":7639:7643   */\n      dup2\n        /* \"#utility.yul\":7635:7655   */\n      sub\n        /* \"#utility.yul\":7631:7632   */\n      0x00\n        /* \"#utility.yul\":7620:7629   */\n      dup4\n        /* \"#utility.yul\":7616:7633   */\n      add\n        /* \"#utility.yul\":7609:7656   */\n      mstore\n        /* \"#utility.yul\":7673:7841   */\n      tag_201\n        /* \"#utility.yul\":7836:7840   */\n      dup2\n        /* \"#utility.yul\":7827:7833   */\n      dup5\n        /* \"#utility.yul\":7673:7841   */\n      tag_143\n      jump\t// in\n    tag_201:\n        /* \"#utility.yul\":7665:7841   */\n      swap1\n      pop\n        /* \"#utility.yul\":7355:7848   */\n      swap3\n      swap2\n      pop\n      pop\n      jump\t// out\n        /* \"#utility.yul\":7854:8273   */\n    tag_98:\n        /* \"#utility.yul\":8020:8024   */\n      0x00\n        /* \"#utility.yul\":8058:8060   */\n      0x20\n        /* \"#utility.yul\":8047:8056   */\n      dup3\n        /* \"#utility.yul\":8043:8061   */\n      add\n        /* \"#utility.yul\":8035:8061   */\n      swap1\n      pop\n        /* \"#utility.yul\":8107:8116   */\n      dup2\n        /* \"#utility.yul\":8101:8105   */\n      dup2\n        /* \"#utility.yul\":8097:8117   */\n      sub\n        /* \"#utility.yul\":8093:8094   */\n      0x00\n        /* \"#utility.yul\":8082:8091   */\n      dup4\n        /* \"#utility.yul\":8078:8095   */\n      add\n        /* \"#utility.yul\":8071:8118   */\n      mstore\n        /* \"#utility.yul\":8135:8266   */\n      tag_203\n        /* \"#utility.yul\":8261:8265   */\n      dup2\n        /* \"#utility.yul\":8135:8266   */\n      tag_161\n      jump\t// in\n    tag_203:\n        /* \"#utility.yul\":8127:8266   */\n      swap1\n      pop\n        /* \"#utility.yul\":7854:8273   */\n      swap2\n      swap1\n      pop\n      jump\t// out\n        /* \"#utility.yul\":8279:8698   */\n    tag_80:\n        /* \"#utility.yul\":8445:8449   */\n      0x00\n        /* \"#utility.yul\":8483:8485   */\n      0x20\n        /* \"#utility.yul\":8472:8481   */\n      dup3\n        /* \"#utility.yul\":8468:8486   */\n      add\n        /* \"#utility.yul\":8460:8486   */\n      swap1\n      pop\n        /* \"#utility.yul\":8532:8541   */\n      dup2\n        /* \"#utility.yul\":8526:8530   */\n      dup2\n        /* \"#utility.yul\":8522:8542   */\n      sub\n        /* \"#utility.yul\":8518:8519   */\n      0x00\n        /* \"#utility.yul\":8507:8516   */\n      dup4\n        /* \"#utility.yul\":8503:8520   */\n      add\n        /* \"#utility.yul\":8496:8543   */\n      mstore\n        /* \"#utility.yul\":8560:8691   */\n      tag_205\n        /* \"#utility.yul\":8686:8690   */\n      dup2\n        /* \"#utility.yul\":8560:8691   */\n      tag_167\n      jump\t// in\n    tag_205:\n        /* \"#utility.yul\":8552:8691   */\n      swap1\n      pop\n        /* \"#utility.yul\":8279:8698   */\n      swap2\n      swap1\n      pop\n      jump\t// out\n        /* \"#utility.yul\":8704:9123   */\n    tag_63:\n        /* \"#utility.yul\":8870:8874   */\n      0x00\n        /* \"#utility.yul\":8908:8910   */\n      0x20\n        /* \"#utility.yul\":8897:8906   */\n      dup3\n        /* \"#utility.yul\":8893:8911   */\n      add\n        /* \"#utility.yul\":8885:8911   */\n      swap1\n      pop\n        /* \"#utility.yul\":8957:8966   */\n      dup2\n        /* \"#utility.yul\":8951:8955   */\n      dup2\n        /* \"#utility.yul\":8947:8967   */\n      sub\n        /* \"#utility.yul\":8943:8944   */\n      0x00\n        /* \"#utility.yul\":8932:8941   */\n      dup4\n        /* \"#utility.yul\":8928:8945   */\n      add\n        /* \"#utility.yul\":8921:8968   */\n      mstore\n        /* \"#utility.yul\":8985:9116   */\n      tag_207\n        /* \"#utility.yul\":9111:9115   */\n      dup2\n        /* \"#utility.yul\":8985:9116   */\n      tag_172\n      jump\t// in\n    tag_207:\n        /* \"#utility.yul\":8977:9116   */\n      swap1\n      pop\n        /* \"#utility.yul\":8704:9123   */\n      swap2\n      swap1\n      pop\n      jump\t// out\n        /* \"#utility.yul\":9129:9548   */\n    tag_71:\n        /* \"#utility.yul\":9295:9299   */\n      0x00\n        /* \"#utility.yul\":9333:9335   */\n      0x20\n        /* \"#utility.yul\":9322:9331   */\n      dup3\n        /* \"#utility.yul\":9318:9336   */\n      add\n        /* \"#utility.yul\":9310:9336   */\n      swap1\n      pop\n        /* \"#utility.yul\":9382:9391   */\n      dup2\n        /* \"#utility.yul\":9376:9380   */\n      dup2\n        /* \"#utility.yul\":9372:9392   */\n      sub\n        /* \"#utility.yul\":9368:9369   */\n      0x00\n        /* \"#utility.yul\":9357:9366   */\n      dup4\n        /* \"#utility.yul\":9353:9370   */\n      add\n        /* \"#utility.yul\":9346:9393   */\n      mstore\n        /* \"#utility.yul\":9410:9541   */\n      tag_209\n        /* \"#utility.yul\":9536:9540   */\n      dup2\n        /* \"#utility.yul\":9410:9541   */\n      tag_177\n      jump\t// in\n    tag_209:\n        /* \"#utility.yul\":9402:9541   */\n      swap1\n      pop\n        /* \"#utility.yul\":9129:9548   */\n      swap2\n      swap1\n      pop\n      jump\t// out\n        /* \"#utility.yul\":9554:9880   */\n    tag_53:\n        /* \"#utility.yul\":9699:9703   */\n      0x00\n        /* \"#utility.yul\":9737:9739   */\n      0x60\n        /* \"#utility.yul\":9726:9735   */\n      dup3\n        /* \"#utility.yul\":9722:9740   */\n      add\n        /* \"#utility.yul\":9714:9740   */\n      swap1\n      pop\n        /* \"#utility.yul\":9750:9873   */\n      tag_211\n        /* \"#utility.yul\":9870:9871   */\n      0x00\n        /* \"#utility.yul\":9859:9868   */\n      dup4\n        /* \"#utility.yul\":9855:9872   */\n      add\n        /* \"#utility.yul\":9846:9852   */\n      dup5\n        /* \"#utility.yul\":9750:9873   */\n      tag_187\n      jump\t// in\n    tag_211:\n        /* \"#utility.yul\":9554:9880   */\n      swap3\n      swap2\n      pop\n      pop\n      jump\t// out\n        /* \"#utility.yul\":9886:10108   */\n    tag_31:\n        /* \"#utility.yul\":9979:9983   */\n      0x00\n        /* \"#utility.yul\":10017:10019   */\n      0x20\n        /* \"#utility.yul\":10006:10015   */\n      dup3\n        /* \"#utility.yul\":10002:10020   */\n      add\n        /* \"#utility.yul\":9994:10020   */\n      swap1\n      pop\n        /* \"#utility.yul\":10030:10101   */\n      tag_213\n        /* \"#utility.yul\":10098:10099   */\n      0x00\n        /* \"#utility.yul\":10087:10096   */\n      dup4\n        /* \"#utility.yul\":10083:10100   */\n      add\n        /* \"#utility.yul\":10074:10080   */\n      dup5\n        /* \"#utility.yul\":10030:10101   */\n      tag_195\n      jump\t// in\n    tag_213:\n        /* \"#utility.yul\":9886:10108   */\n      swap3\n      swap2\n      pop\n      pop\n      jump\t// out\n        /* \"#utility.yul\":10114:10243   */\n    tag_114:\n        /* \"#utility.yul\":10148:10154   */\n      0x00\n        /* \"#utility.yul\":10175:10195   */\n      tag_215\n      tag_216\n      jump\t// in\n    tag_215:\n        /* \"#utility.yul\":10165:10195   */\n      swap1\n      pop\n        /* \"#utility.yul\":10204:10237   */\n      tag_217\n        /* \"#utility.yul\":10232:10236   */\n      dup3\n        /* \"#utility.yul\":10224:10230   */\n      dup3\n        /* \"#utility.yul\":10204:10237   */\n      tag_218\n      jump\t// in\n    tag_217:\n        /* \"#utility.yul\":10114:10243   */\n      swap2\n      swap1\n      pop\n      jump\t// out\n        /* \"#utility.yul\":10249:10324   */\n    tag_216:\n        /* \"#utility.yul\":10282:10288   */\n      0x00\n        /* \"#utility.yul\":10315:10317   */\n      0x40\n        /* \"#utility.yul\":10309:10318   */\n      mload\n        /* \"#utility.yul\":10299:10318   */\n      swap1\n      pop\n        /* \"#utility.yul\":10249:10324   */\n      swap1\n      jump\t// out\n        /* \"#utility.yul\":10330:10492   */\n    tag_150:\n        /* \"#utility.yul\":10427:10431   */\n      0x00\n        /* \"#utility.yul\":10450:10453   */\n      dup2\n        /* \"#utility.yul\":10442:10453   */\n      swap1\n      pop\n        /* \"#utility.yul\":10480:10484   */\n      0x20\n        /* \"#utility.yul\":10475:10478   */\n      dup3\n        /* \"#utility.yul\":10471:10485   */\n      add\n        /* \"#utility.yul\":10463:10485   */\n      swap1\n      pop\n        /* \"#utility.yul\":10330:10492   */\n      swap2\n      swap1\n      pop\n      jump\t// out\n        /* \"#utility.yul\":10498:10642   */\n    tag_146:\n        /* \"#utility.yul\":10595:10601   */\n      0x00\n        /* \"#utility.yul\":10629:10634   */\n      dup2\n        /* \"#utility.yul\":10623:10635   */\n      mload\n        /* \"#utility.yul\":10613:10635   */\n      swap1\n      pop\n        /* \"#utility.yul\":10498:10642   */\n      swap2\n      swap1\n      pop\n      jump\t// out\n        /* \"#utility.yul\":10648:10791   */\n    tag_156:\n        /* \"#utility.yul\":10748:10752   */\n      0x00\n        /* \"#utility.yul\":10780:10784   */\n      0x20\n        /* \"#utility.yul\":10775:10778   */\n      dup3\n        /* \"#utility.yul\":10771:10785   */\n      add\n        /* \"#utility.yul\":10763:10785   */\n      swap1\n      pop\n        /* \"#utility.yul\":10648:10791   */\n      swap2\n      swap1\n      pop\n      jump\t// out\n        /* \"#utility.yul\":10797:11011   */\n    tag_148:\n        /* \"#utility.yul\":10926:10937   */\n      0x00\n        /* \"#utility.yul\":10960:10966   */\n      dup3\n        /* \"#utility.yul\":10955:10958   */\n      dup3\n        /* \"#utility.yul\":10948:10967   */\n      mstore\n        /* \"#utility.yul\":11000:11004   */\n      0x20\n        /* \"#utility.yul\":10995:10998   */\n      dup3\n        /* \"#utility.yul\":10991:11005   */\n      add\n        /* \"#utility.yul\":10976:11005   */\n      swap1\n      pop\n        /* \"#utility.yul\":10797:11011   */\n      swap3\n      swap2\n      pop\n      pop\n      jump\t// out\n        /* \"#utility.yul\":11017:11186   */\n    tag_164:\n        /* \"#utility.yul\":11101:11112   */\n      0x00\n        /* \"#utility.yul\":11135:11141   */\n      dup3\n        /* \"#utility.yul\":11130:11133   */\n      dup3\n        /* \"#utility.yul\":11123:11142   */\n      mstore\n        /* \"#utility.yul\":11175:11179   */\n      0x20\n        /* \"#utility.yul\":11170:11173   */\n      dup3\n        /* \"#utility.yul\":11166:11180   */\n      add\n        /* \"#utility.yul\":11151:11180   */\n      swap1\n      pop\n        /* \"#utility.yul\":11017:11186   */\n      swap3\n      swap2\n      pop\n      pop\n      jump\t// out\n        /* \"#utility.yul\":11192:11497   */\n    tag_93:\n        /* \"#utility.yul\":11232:11235   */\n      0x00\n        /* \"#utility.yul\":11251:11271   */\n      tag_226\n        /* \"#utility.yul\":11269:11270   */\n      dup3\n        /* \"#utility.yul\":11251:11271   */\n      tag_194\n      jump\t// in\n    tag_226:\n        /* \"#utility.yul\":11246:11271   */\n      swap2\n      pop\n        /* \"#utility.yul\":11285:11305   */\n      tag_227\n        /* \"#utility.yul\":11303:11304   */\n      dup4\n        /* \"#utility.yul\":11285:11305   */\n      tag_194\n      jump\t// in\n    tag_227:\n        /* \"#utility.yul\":11280:11305   */\n      swap3\n      pop\n        /* \"#utility.yul\":11439:11440   */\n      dup3\n        /* \"#utility.yul\":11371:11437   */\n      0xffffffffffffffffffffffffffffffffffffffffffffffffffffffffffffffff\n        /* \"#utility.yul\":11367:11441   */\n      sub\n        /* \"#utility.yul\":11364:11365   */\n      dup3\n        /* \"#utility.yul\":11361:11442   */\n      gt\n        /* \"#utility.yul\":11358:11465   */\n      iszero\n      tag_228\n      jumpi\n        /* \"#utility.yul\":11445:11463   */\n      tag_229\n      tag_230\n      jump\t// in\n    tag_229:\n        /* \"#utility.yul\":11358:11465   */\n    tag_228:\n        /* \"#utility.yul\":11489:11490   */\n      dup3\n        /* \"#utility.yul\":11486:11487   */\n      dup3\n        /* \"#utility.yul\":11482:11491   */\n      add\n        /* \"#utility.yul\":11475:11491   */\n      swap1\n      pop\n        /* \"#utility.yul\":11192:11497   */\n      swap3\n      swap2\n      pop\n      pop\n      jump\t// out\n        /* \"#utility.yul\":11503:11599   */\n    tag_142:\n        /* \"#utility.yul\":11540:11547   */\n      0x00\n        /* \"#utility.yul\":11569:11593   */\n      tag_232\n        /* \"#utility.yul\":11587:11592   */\n      dup3\n        /* \"#utility.yul\":11569:11593   */\n      tag_233\n      jump\t// in\n    tag_232:\n        /* \"#utility.yul\":11558:11593   */\n      swap1\n      pop\n        /* \"#utility.yul\":11503:11599   */\n      swap2\n      swap1\n      pop\n      jump\t// out\n        /* \"#utility.yul\":11605:11682   */\n    tag_160:\n        /* \"#utility.yul\":11642:11649   */\n      0x00\n        /* \"#utility.yul\":11671:11676   */\n      dup2\n        /* \"#utility.yul\":11660:11676   */\n      swap1\n      pop\n        /* \"#utility.yul\":11605:11682   */\n      swap2\n      swap1\n      pop\n      jump\t// out\n        /* \"#utility.yul\":11688:11814   */\n    tag_233:\n        /* \"#utility.yul\":11725:11732   */\n      0x00\n        /* \"#utility.yul\":11765:11807   */\n      0xffffffffffffffffffffffffffffffffffffffff\n        /* \"#utility.yul\":11758:11763   */\n      dup3\n        /* \"#utility.yul\":11754:11808   */\n      and\n        /* \"#utility.yul\":11743:11808   */\n      swap1\n      pop\n        /* \"#utility.yul\":11688:11814   */\n      swap2\n      swap1\n      pop\n      jump\t// out\n        /* \"#utility.yul\":11820:11897   */\n    tag_194:\n        /* \"#utility.yul\":11857:11864   */\n      0x00\n        /* \"#utility.yul\":11886:11891   */\n      dup2\n        /* \"#utility.yul\":11875:11891   */\n      swap1\n      pop\n        /* \"#utility.yul\":11820:11897   */\n      swap2\n      swap1\n      pop\n      jump\t// out\n        /* \"#utility.yul\":11903:12184   */\n    tag_218:\n        /* \"#utility.yul\":11986:12013   */\n      tag_238\n        /* \"#utility.yul\":12008:12012   */\n      dup3\n        /* \"#utility.yul\":11986:12013   */\n      tag_239\n      jump\t// in\n    tag_238:\n        /* \"#utility.yul\":11978:11984   */\n      dup2\n        /* \"#utility.yul\":11974:12014   */\n      add\n        /* \"#utility.yul\":12116:12122   */\n      dup2\n        /* \"#utility.yul\":12104:12114   */\n      dup2\n        /* \"#utility.yul\":12101:12123   */\n      lt\n        /* \"#utility.yul\":12080:12098   */\n      0xffffffffffffffff\n        /* \"#utility.yul\":12068:12078   */\n      dup3\n        /* \"#utility.yul\":12065:12099   */\n      gt\n        /* \"#utility.yul\":12062:12124   */\n      or\n        /* \"#utility.yul\":12059:12147   */\n      iszero\n      tag_240\n      jumpi\n        /* \"#utility.yul\":12127:12145   */\n      tag_241\n      tag_242\n      jump\t// in\n    tag_241:\n        /* \"#utility.yul\":12059:12147   */\n    tag_240:\n        /* \"#utility.yul\":12167:12177   */\n      dup1\n        /* \"#utility.yul\":12163:12165   */\n      0x40\n        /* \"#utility.yul\":12156:12178   */\n      mstore\n        /* \"#utility.yul\":11946:12184   */\n      pop\n        /* \"#utility.yul\":11903:12184   */\n      pop\n      pop\n      jump\t// out\n        /* \"#utility.yul\":12190:12370   */\n    tag_230:\n        /* \"#utility.yul\":12238:12315   */\n      0x4e487b7100000000000000000000000000000000000000000000000000000000\n        /* \"#utility.yul\":12235:12236   */\n      0x00\n        /* \"#utility.yul\":12228:12316   */\n      mstore\n        /* \"#utility.yul\":12335:12339   */\n      0x11\n        /* \"#utility.yul\":12332:12333   */\n      0x04\n        /* \"#utility.yul\":12325:12340   */\n      mstore\n        /* \"#utility.yul\":12359:12363   */\n      0x24\n        /* \"#utility.yul\":12356:12357   */\n      0x00\n        /* \"#utility.yul\":12349:12364   */\n      revert\n        /* \"#utility.yul\":12376:12556   */\n    tag_242:\n        /* \"#utility.yul\":12424:12501   */\n      0x4e487b7100000000000000000000000000000000000000000000000000000000\n        /* \"#utility.yul\":12421:12422   */\n      0x00\n        /* \"#utility.yul\":12414:12502   */\n      mstore\n        /* \"#utility.yul\":12521:12525   */\n      0x41\n        /* \"#utility.yul\":12518:12519   */\n      0x04\n        /* \"#utility.yul\":12511:12526   */\n      mstore\n        /* \"#utility.yul\":12545:12549   */\n      0x24\n        /* \"#utility.yul\":12542:12543   */\n      0x00\n        /* \"#utility.yul\":12535:12550   */\n      revert\n        /* \"#utility.yul\":12562:12679   */\n    tag_112:\n        /* \"#utility.yul\":12671:12672   */\n      0x00\n        /* \"#utility.yul\":12668:12669   */\n      dup1\n        /* \"#utility.yul\":12661:12673   */\n      revert\n        /* \"#utility.yul\":12931:13048   */\n    tag_125:\n        /* \"#utility.yul\":13040:13041   */\n      0x00\n        /* \"#utility.yul\":13037:13038   */\n      dup1\n        /* \"#utility.yul\":13030:13042   */\n      revert\n        /* \"#utility.yul\":13054:13156   */\n    tag_239:\n        /* \"#utility.yul\":13095:13101   */\n      0x00\n        /* \"#utility.yul\":13146:13148   */\n      0x1f\n        /* \"#utility.yul\":13142:13149   */\n      not\n        /* \"#utility.yul\":13137:13139   */\n      0x1f\n        /* \"#utility.yul\":13130:13135   */\n      dup4\n        /* \"#utility.yul\":13126:13140   */\n      add\n        /* \"#utility.yul\":13122:13150   */\n      and\n        /* \"#utility.yul\":13112:13150   */\n      swap1\n      pop\n        /* \"#utility.yul\":13054:13156   */\n      swap2\n      swap1\n      pop\n      jump\t// out\n        /* \"#utility.yul\":13162:13384   */\n    tag_166:\n        /* \"#utility.yul\":13302:13336   */\n      0x4f6e6c79206d617374657220636f6e74726163742063616e2063616c6c207468\n        /* \"#utility.yul\":13298:13299   */\n      0x00\n        /* \"#utility.yul\":13290:13296   */\n      dup3\n        /* \"#utility.yul\":13286:13300   */\n      add\n        /* \"#utility.yul\":13279:13337   */\n      mstore\n        /* \"#utility.yul\":13371:13376   */\n      0x69732e0000000000000000000000000000000000000000000000000000000000\n        /* \"#utility.yul\":13366:13368   */\n      0x20\n        /* \"#utility.yul\":13358:13364   */\n      dup3\n        /* \"#utility.yul\":13354:13369   */\n      add\n        /* \"#utility.yul\":13347:13377   */\n      mstore\n        /* \"#utility.yul\":13162:13384   */\n      pop\n      jump\t// out\n        /* \"#utility.yul\":13390:13557   */\n    tag_171:\n        /* \"#utility.yul\":13530:13549   */\n      0x4578656375746f72206e6f74207365742e000000000000000000000000000000\n        /* \"#utility.yul\":13526:13527   */\n      0x00\n        /* \"#utility.yul\":13518:13524   */\n      dup3\n        /* \"#utility.yul\":13514:13528   */\n      add\n        /* \"#utility.yul\":13507:13550   */\n      mstore\n        /* \"#utility.yul\":13390:13557   */\n      pop\n      jump\t// out\n        /* \"#utility.yul\":13563:13734   */\n    tag_176:\n        /* \"#utility.yul\":13703:13726   */\n      0x4578656375746f7220616c7265616479207365742e0000000000000000000000\n        /* \"#utility.yul\":13699:13700   */\n      0x00\n        /* \"#utility.yul\":13691:13697   */\n      dup3\n        /* \"#utility.yul\":13687:13701   */\n      add\n        /* \"#utility.yul\":13680:13727   */\n      mstore\n        /* \"#utility.yul\":13563:13734   */\n      pop\n      jump\t// out\n        /* \"#utility.yul\":13740:13917   */\n    tag_181:\n        /* \"#utility.yul\":13880:13909   */\n      0x596f75277265206e6f7420636f6e7472616374206d656d6265722e0000000000\n        /* \"#utility.yul\":13876:13877   */\n      0x00\n        /* \"#utility.yul\":13868:13874   */\n      dup3\n        /* \"#utility.yul\":13864:13878   */\n      add\n        /* \"#utility.yul\":13857:13910   */\n      mstore\n        /* \"#utility.yul\":13740:13917   */\n      pop\n      jump\t// out\n        /* \"#utility.yul\":13923:14045   */\n    tag_103:\n        /* \"#utility.yul\":13996:14020   */\n      tag_257\n        /* \"#utility.yul\":14014:14019   */\n      dup2\n        /* \"#utility.yul\":13996:14020   */\n      tag_142\n      jump\t// in\n    tag_257:\n        /* \"#utility.yul\":13989:13994   */\n      dup2\n        /* \"#utility.yul\":13986:14021   */\n      eq\n        /* \"#utility.yul\":13976:14039   */\n      tag_258\n      jumpi\n        /* \"#utility.yul\":14035:14036   */\n      0x00\n        /* \"#utility.yul\":14032:14033   */\n      dup1\n        /* \"#utility.yul\":14025:14037   */\n      revert\n        /* \"#utility.yul\":13976:14039   */\n    tag_258:\n        /* \"#utility.yul\":13923:14045   */\n      pop\n      jump\t// out\n        /* \"#utility.yul\":14051:14173   */\n    tag_107:\n        /* \"#utility.yul\":14124:14148   */\n      tag_260\n        /* \"#utility.yul\":14142:14147   */\n      dup2\n        /* \"#utility.yul\":14124:14148   */\n      tag_160\n      jump\t// in\n    tag_260:\n        /* \"#utility.yul\":14117:14122   */\n      dup2\n        /* \"#utility.yul\":14114:14149   */\n      eq\n        /* \"#utility.yul\":14104:14167   */\n      tag_261\n      jumpi\n        /* \"#utility.yul\":14163:14164   */\n      0x00\n        /* \"#utility.yul\":14160:14161   */\n      dup1\n        /* \"#utility.yul\":14153:14165   */\n      revert\n        /* \"#utility.yul\":14104:14167   */\n    tag_261:\n        /* \"#utility.yul\":14051:14173   */\n      pop\n      jump\t// out\n        /* \"#utility.yul\":14179:14301   */\n    tag_121:\n        /* \"#utility.yul\":14252:14276   */\n      tag_263\n        /* \"#utility.yul\":14270:14275   */\n      dup2\n        /* \"#utility.yul\":14252:14276   */\n      tag_194\n      jump\t// in\n    tag_263:\n        /* \"#utility.yul\":14245:14250   */\n      dup2\n        /* \"#utility.yul\":14242:14277   */\n      eq\n        /* \"#utility.yul\":14232:14295   */\n      tag_264\n      jumpi\n        /* \"#utility.yul\":14291:14292   */\n      0x00\n        /* \"#utility.yul\":14288:14289   */\n      dup1\n        /* \"#utility.yul\":14281:14293   */\n      revert\n        /* \"#utility.yul\":14232:14295   */\n    tag_264:\n        /* \"#utility.yul\":14179:14301   */\n      pop\n      jump\t// out\n\n    auxdata: 0xa2646970667358221220189a222e45d8e422b36d5e4b7df35e9bb01a7501e16a93eb598ef0b9310af1a664736f6c63430008070033\n}\n",
				"bytecode": {
					"linkReferences": {},
					"object": "60806040526000600860006101000a81548173ffffffffffffffffffffffffffffffffffffffff021916908373ffffffffffffffffffffffffffffffffffffffff1602179055506000600a60006101000a81548160ff0219169083151502179055503480156200006e57600080fd5b50604051620011f5380380620011f583398181016040528101906200009491906200020d565b336000806101000a81548173ffffffffffffffffffffffffffffffffffffffff021916908373ffffffffffffffffffffffffffffffffffffffff16021790555084600160006101000a81548173ffffffffffffffffffffffffffffffffffffffff021916908373ffffffffffffffffffffffffffffffffffffffff1602179055508360026000820151816000015560208201518160010155604082015181600201559050508260058190555081600681905550806007819055505050505050620003d4565b6000815190506200016a8162000386565b92915050565b6000815190506200018181620003a0565b92915050565b600060608284031215620001a0576200019f6200036b565b5b620001ac606062000295565b90506000620001be84828501620001f6565b6000830152506020620001d48482850162000170565b6020830152506040620001ea84828501620001f6565b60408301525092915050565b6000815190506200020781620003ba565b92915050565b600080600080600060e086880312156200022c576200022b62000370565b5b60006200023c8882890162000159565b95505060206200024f8882890162000187565b94505060806200026288828901620001f6565b93505060a06200027588828901620001f6565b92505060c06200028888828901620001f6565b9150509295509295909350565b6000620002a1620002b4565b9050620002af828262000306565b919050565b6000604051905090565b6000620002cb82620002dc565b9050919050565b6000819050919050565b600073ffffffffffffffffffffffffffffffffffffffff82169050919050565b6000819050919050565b620003118262000375565b810181811067ffffffffffffffff821117156200033357620003326200033c565b5b80604052505050565b7f4e487b7100000000000000000000000000000000000000000000000000000000600052604160045260246000fd5b600080fd5b600080fd5b6000601f19601f8301169050919050565b6200039181620002be565b81146200039d57600080fd5b50565b620003ab81620002d2565b8114620003b757600080fd5b50565b620003c581620002fc565b8114620003d157600080fd5b50565b610e1180620003e46000396000f3fe608060405234801561001057600080fd5b50600436106100b45760003560e01c806373b0eb751161007157806373b0eb751461016957806391051e801461018557806398d5fdca146101a3578063a5bfa746146101c1578063db48ce0b146101cb578063ffea0ef4146101e9576100b4565b80631c3c0ea8146100b95780633d5e0515146100d557806350592adf146100f157806364a406421461010f578063650d993b1461012d5780636c1032af1461014b575b600080fd5b6100d360048036038101906100ce91906107db565b610205565b005b6100ef60048036038101906100ea9190610808565b6102e2565b005b6100f9610339565b6040516101069190610a3f565b60405180910390f35b61011761049e565b6040516101249190610afc565b60405180910390f35b6101356104a8565b6040516101429190610a24565b60405180910390f35b6101536104d2565b6040516101609190610a24565b60405180910390f35b610183600480360381019061017e91906107db565b61058d565b005b61018d6105d8565b60405161019a9190610afc565b60405180910390f35b6101ab6105e2565b6040516101b89190610afc565b60405180910390f35b6101c96105ec565b005b6101d3610611565b6040516101e09190610ae1565b60405180910390f35b61020360048036038101906101fe9190610835565b610649565b005b61020d61066d565b600073ffffffffffffffffffffffffffffffffffffffff16600860009054906101000a900473ffffffffffffffffffffffffffffffffffffffff1673ffffffffffffffffffffffffffffffffffffffff161461029e576040517f08c379a000000000000000000000000000000000000000000000000000000000815260040161029590610aa1565b60405180910390fd5b80600860006101000a81548173ffffffffffffffffffffffffffffffffffffffff021916908373ffffffffffffffffffffffffffffffffffffffff16021790555050565b6102ea61066d565b6009819080600181540180825580915050600190039060005260206000209060030201600090919091909150600082015181600001556020820151816001015560408201518160020155505050565b6060600160009054906101000a900473ffffffffffffffffffffffffffffffffffffffff1673ffffffffffffffffffffffffffffffffffffffff163273ffffffffffffffffffffffffffffffffffffffff1614806103e45750600860009054906101000a900473ffffffffffffffffffffffffffffffffffffffff1673ffffffffffffffffffffffffffffffffffffffff163273ffffffffffffffffffffffffffffffffffffffff16145b610423576040517f08c379a000000000000000000000000000000000000000000000000000000000815260040161041a90610ac1565b60405180910390fd5b6009805480602002602001604051908101604052809291908181526020016000905b828210156104955783829060005260206000209060030201604051806060016040529081600082015481526020016001820154815260200160028201548152505081526020019060010190610445565b50505050905090565b6000600754905090565b6000600160009054906101000a900473ffffffffffffffffffffffffffffffffffffffff16905090565b60008073ffffffffffffffffffffffffffffffffffffffff16600860009054906101000a900473ffffffffffffffffffffffffffffffffffffffff1673ffffffffffffffffffffffffffffffffffffffff161415610565576040517f08c379a000000000000000000000000000000000000000000000000000000000815260040161055c90610a81565b60405180910390fd5b600860009054906101000a900473ffffffffffffffffffffffffffffffffffffffff16905090565b61059561066d565b806000806101000a81548173ffffffffffffffffffffffffffffffffffffffff021916908373ffffffffffffffffffffffffffffffffffffffff16021790555050565b6000600554905090565b6000600654905090565b6105f461066d565b6001600a60006101000a81548160ff021916908315150217905550565b610619610714565b60026040518060600160405290816000820154815260200160018201548152602001600282015481525050905090565b61065161066d565b80600560008282546106639190610b86565b9250508190555050565b60008054906101000a900473ffffffffffffffffffffffffffffffffffffffff1673ffffffffffffffffffffffffffffffffffffffff163373ffffffffffffffffffffffffffffffffffffffff1614806106d35750600a60009054906101000a900460ff165b610712576040517f08c379a000000000000000000000000000000000000000000000000000000000815260040161070990610a61565b60405180910390fd5b565b60405180606001604052806000815260200160008019168152602001600081525090565b60008135905061074781610d96565b92915050565b60008135905061075c81610dad565b92915050565b60006060828403121561077857610777610cb1565b5b6107826060610b17565b90506000610792848285016107c6565b60008301525060206107a68482850161074d565b60208301525060406107ba848285016107c6565b60408301525092915050565b6000813590506107d581610dc4565b92915050565b6000602082840312156107f1576107f0610cb6565b5b60006107ff84828501610738565b91505092915050565b60006060828403121561081e5761081d610cb6565b5b600061082c84828501610762565b91505092915050565b60006020828403121561084b5761084a610cb6565b5b6000610859848285016107c6565b91505092915050565b600061086e8383610982565b60608301905092915050565b61088381610bdc565b82525050565b600061089482610b4c565b61089e8185610b64565b93506108a983610b3c565b8060005b838110156108da5781516108c18882610862565b97506108cc83610b57565b9250506001810190506108ad565b5085935050505092915050565b6108f081610bee565b82525050565b6000610903602383610b75565b915061090e82610ccc565b604082019050919050565b6000610926601183610b75565b915061093182610d1b565b602082019050919050565b6000610949601583610b75565b915061095482610d44565b602082019050919050565b600061096c601b83610b75565b915061097782610d6d565b602082019050919050565b6060820160008201516109986000850182610a06565b5060208201516109ab60208501826108e7565b5060408201516109be6040850182610a06565b50505050565b6060820160008201516109da6000850182610a06565b5060208201516109ed60208501826108e7565b506040820151610a006040850182610a06565b50505050565b610a0f81610c18565b82525050565b610a1e81610c18565b82525050565b6000602082019050610a39600083018461087a565b92915050565b60006020820190508181036000830152610a598184610889565b905092915050565b60006020820190508181036000830152610a7a816108f6565b9050919050565b60006020820190508181036000830152610a9a81610919565b9050919050565b60006020820190508181036000830152610aba8161093c565b9050919050565b60006020820190508181036000830152610ada8161095f565b9050919050565b6000606082019050610af660008301846109c4565b92915050565b6000602082019050610b116000830184610a15565b92915050565b6000610b21610b32565b9050610b2d8282610c22565b919050565b6000604051905090565b6000819050602082019050919050565b600081519050919050565b6000602082019050919050565b600082825260208201905092915050565b600082825260208201905092915050565b6000610b9182610c18565b9150610b9c83610c18565b9250827fffffffffffffffffffffffffffffffffffffffffffffffffffffffffffffffff03821115610bd157610bd0610c53565b5b828201905092915050565b6000610be782610bf8565b9050919050565b6000819050919050565b600073ffffffffffffffffffffffffffffffffffffffff82169050919050565b6000819050919050565b610c2b82610cbb565b810181811067ffffffffffffffff82111715610c4a57610c49610c82565b5b80604052505050565b7f4e487b7100000000000000000000000000000000000000000000000000000000600052601160045260246000fd5b7f4e487b7100000000000000000000000000000000000000000000000000000000600052604160045260246000fd5b600080fd5b600080fd5b6000601f19601f8301169050919050565b7f4f6e6c79206d617374657220636f6e74726163742063616e2063616c6c20746860008201527f69732e0000000000000000000000000000000000000000000000000000000000602082015250565b7f4578656375746f72206e6f74207365742e000000000000000000000000000000600082015250565b7f4578656375746f7220616c7265616479207365742e0000000000000000000000600082015250565b7f596f75277265206e6f7420636f6e7472616374206d656d6265722e0000000000600082015250565b610d9f81610bdc565b8114610daa57600080fd5b50565b610db681610bee565b8114610dc157600080fd5b50565b610dcd81610c18565b8114610dd857600080fd5b5056fea2646970667358221220189a222e45d8e422b36d5e4b7df35e9bb01a7501e16a93eb598ef0b9310af1a664736f6c63430008070033",
					"opcodes": "PUSH1 0x80 PUSH1 0x40 MSTORE PUSH1 0x0 PUSH1 0x8 PUSH1 0x0 PUSH2 0x100 EXP DUP2 SLOAD DUP2 PUSH20 0xFFFFFFFFFFFFFFFFFFFFFFFFFFFFFFFFFFFFFFFF MUL NOT AND SWAP1 DUP4 PUSH20 0xFFFFFFFFFFFFFFFFFFFFFFFFFFFFFFFFFFFFFFFF AND MUL OR SWAP1 SSTORE POP PUSH1 0x0 PUSH1 0xA PUSH1 0x0 PUSH2 0x100 EXP DUP2 SLOAD DUP2 PUSH1 0xFF MUL NOT AND SWAP1 DUP4 ISZERO ISZERO MUL OR SWAP1 SSTORE POP CALLVALUE DUP1 ISZERO PUSH3 0x6E JUMPI PUSH1 0x0 DUP1 REVERT JUMPDEST POP PUSH1 0x40 MLOAD PUSH3 0x11F5 CODESIZE SUB DUP1 PUSH3 0x11F5 DUP4 CODECOPY DUP2 DUP2 ADD PUSH1 0x40 MSTORE DUP2 ADD SWAP1 PUSH3 0x94 SWAP2 SWAP1 PUSH3 0x20D JUMP JUMPDEST CALLER PUSH1 0x0 DUP1 PUSH2 0x100 EXP DUP2 SLOAD DUP2 PUSH20 0xFFFFFFFFFFFFFFFFFFFFFFFFFFFFFFFFFFFFFFFF MUL NOT AND SWAP1 DUP4 PUSH20 0xFFFFFFFFFFFFFFFFFFFFFFFFFFFFFFFFFFFFFFFF AND MUL OR SWAP1 SSTORE POP DUP5 PUSH1 0x1 PUSH1 0x0 PUSH2 0x100 EXP DUP2 SLOAD DUP2 PUSH20 0xFFFFFFFFFFFFFFFFFFFFFFFFFFFFFFFFFFFFFFFF MUL NOT AND SWAP1 DUP4 PUSH20 0xFFFFFFFFFFFFFFFFFFFFFFFFFFFFFFFFFFFFFFFF AND MUL OR SWAP1 SSTORE POP DUP4 PUSH1 0x2 PUSH1 0x0 DUP3 ADD MLOAD DUP2 PUSH1 0x0 ADD SSTORE PUSH1 0x20 DUP3 ADD MLOAD DUP2 PUSH1 0x1 ADD SSTORE PUSH1 0x40 DUP3 ADD MLOAD DUP2 PUSH1 0x2 ADD SSTORE SWAP1 POP POP DUP3 PUSH1 0x5 DUP2 SWAP1 SSTORE POP DUP2 PUSH1 0x6 DUP2 SWAP1 SSTORE POP DUP1 PUSH1 0x7 DUP2 SWAP1 SSTORE POP POP POP POP POP POP PUSH3 0x3D4 JUMP JUMPDEST PUSH1 0x0 DUP2 MLOAD SWAP1 POP PUSH3 0x16A DUP2 PUSH3 0x386 JUMP JUMPDEST SWAP3 SWAP2 POP POP JUMP JUMPDEST PUSH1 0x0 DUP2 MLOAD SWAP1 POP PUSH3 0x181 DUP2 PUSH3 0x3A0 JUMP JUMPDEST SWAP3 SWAP2 POP POP JUMP JUMPDEST PUSH1 0x0 PUSH1 0x60 DUP3 DUP5 SUB SLT ISZERO PUSH3 0x1A0 JUMPI PUSH3 0x19F PUSH3 0x36B JUMP JUMPDEST JUMPDEST PUSH3 0x1AC PUSH1 0x60 PUSH3 0x295 JUMP JUMPDEST SWAP1 POP PUSH1 0x0 PUSH3 0x1BE DUP5 DUP3 DUP6 ADD PUSH3 0x1F6 JUMP JUMPDEST PUSH1 0x0 DUP4 ADD MSTORE POP PUSH1 0x20 PUSH3 0x1D4 DUP5 DUP3 DUP6 ADD PUSH3 0x170 JUMP JUMPDEST PUSH1 0x20 DUP4 ADD MSTORE POP PUSH1 0x40 PUSH3 0x1EA DUP5 DUP3 DUP6 ADD PUSH3 0x1F6 JUMP JUMPDEST PUSH1 0x40 DUP4 ADD MSTORE POP SWAP3 SWAP2 POP POP JUMP JUMPDEST PUSH1 0x0 DUP2 MLOAD SWAP1 POP PUSH3 0x207 DUP2 PUSH3 0x3BA JUMP JUMPDEST SWAP3 SWAP2 POP POP JUMP JUMPDEST PUSH1 0x0 DUP1 PUSH1 0x0 DUP1 PUSH1 0x0 PUSH1 0xE0 DUP7 DUP9 SUB SLT ISZERO PUSH3 0x22C JUMPI PUSH3 0x22B PUSH3 0x370 JUMP JUMPDEST JUMPDEST PUSH1 0x0 PUSH3 0x23C DUP9 DUP3 DUP10 ADD PUSH3 0x159 JUMP JUMPDEST SWAP6 POP POP PUSH1 0x20 PUSH3 0x24F DUP9 DUP3 DUP10 ADD PUSH3 0x187 JUMP JUMPDEST SWAP5 POP POP PUSH1 0x80 PUSH3 0x262 DUP9 DUP3 DUP10 ADD PUSH3 0x1F6 JUMP JUMPDEST SWAP4 POP POP PUSH1 0xA0 PUSH3 0x275 DUP9 DUP3 DUP10 ADD PUSH3 0x1F6 JUMP JUMPDEST SWAP3 POP POP PUSH1 0xC0 PUSH3 0x288 DUP9 DUP3 DUP10 ADD PUSH3 0x1F6 JUMP JUMPDEST SWAP2 POP POP SWAP3 SWAP6 POP SWAP3 SWAP6 SWAP1 SWAP4 POP JUMP JUMPDEST PUSH1 0x0 PUSH3 0x2A1 PUSH3 0x2B4 JUMP JUMPDEST SWAP1 POP PUSH3 0x2AF DUP3 DUP3 PUSH3 0x306 JUMP JUMPDEST SWAP2 SWAP1 POP JUMP JUMPDEST PUSH1 0x0 PUSH1 0x40 MLOAD SWAP1 POP SWAP1 JUMP JUMPDEST PUSH1 0x0 PUSH3 0x2CB DUP3 PUSH3 0x2DC JUMP JUMPDEST SWAP1 POP SWAP2 SWAP1 POP JUMP JUMPDEST PUSH1 0x0 DUP2 SWAP1 POP SWAP2 SWAP1 POP JUMP JUMPDEST PUSH1 0x0 PUSH20 0xFFFFFFFFFFFFFFFFFFFFFFFFFFFFFFFFFFFFFFFF DUP3 AND SWAP1 POP SWAP2 SWAP1 POP JUMP JUMPDEST PUSH1 0x0 DUP2 SWAP1 POP SWAP2 SWAP1 POP JUMP JUMPDEST PUSH3 0x311 DUP3 PUSH3 0x375 JUMP JUMPDEST DUP2 ADD DUP2 DUP2 LT PUSH8 0xFFFFFFFFFFFFFFFF DUP3 GT OR ISZERO PUSH3 0x333 JUMPI PUSH3 0x332 PUSH3 0x33C JUMP JUMPDEST JUMPDEST DUP1 PUSH1 0x40 MSTORE POP POP POP JUMP JUMPDEST PUSH32 0x4E487B7100000000000000000000000000000000000000000000000000000000 PUSH1 0x0 MSTORE PUSH1 0x41 PUSH1 0x4 MSTORE PUSH1 0x24 PUSH1 0x0 REVERT JUMPDEST PUSH1 0x0 DUP1 REVERT JUMPDEST PUSH1 0x0 DUP1 REVERT JUMPDEST PUSH1 0x0 PUSH1 0x1F NOT PUSH1 0x1F DUP4 ADD AND SWAP1 POP SWAP2 SWAP1 POP JUMP JUMPDEST PUSH3 0x391 DUP2 PUSH3 0x2BE JUMP JUMPDEST DUP2 EQ PUSH3 0x39D JUMPI PUSH1 0x0 DUP1 REVERT JUMPDEST POP JUMP JUMPDEST PUSH3 0x3AB DUP2 PUSH3 0x2D2 JUMP JUMPDEST DUP2 EQ PUSH3 0x3B7 JUMPI PUSH1 0x0 DUP1 REVERT JUMPDEST POP JUMP JUMPDEST PUSH3 0x3C5 DUP2 PUSH3 0x2FC JUMP JUMPDEST DUP2 EQ PUSH3 0x3D1 JUMPI PUSH1 0x0 DUP1 REVERT JUMPDEST POP JUMP JUMPDEST PUSH2 0xE11 DUP1 PUSH3 0x3E4 PUSH1 0x0 CODECOPY PUSH1 0x0 RETURN INVALID PUSH1 0x80 PUSH1 0x40 MSTORE CALLVALUE DUP1 ISZERO PUSH2 0x10 JUMPI PUSH1 0x0 DUP1 REVERT JUMPDEST POP PUSH1 0x4 CALLDATASIZE LT PUSH2 0xB4 JUMPI PUSH1 0x0 CALLDATALOAD PUSH1 0xE0 SHR DUP1 PUSH4 0x73B0EB75 GT PUSH2 0x71 JUMPI DUP1 PUSH4 0x73B0EB75 EQ PUSH2 0x169 JUMPI DUP1 PUSH4 0x91051E80 EQ PUSH2 0x185 JUMPI DUP1 PUSH4 0x98D5FDCA EQ PUSH2 0x1A3 JUMPI DUP1 PUSH4 0xA5BFA746 EQ PUSH2 0x1C1 JUMPI DUP1 PUSH4 0xDB48CE0B EQ PUSH2 0x1CB JUMPI DUP1 PUSH4 0xFFEA0EF4 EQ PUSH2 0x1E9 JUMPI PUSH2 0xB4 JUMP JUMPDEST DUP1 PUSH4 0x1C3C0EA8 EQ PUSH2 0xB9 JUMPI DUP1 PUSH4 0x3D5E0515 EQ PUSH2 0xD5 JUMPI DUP1 PUSH4 0x50592ADF EQ PUSH2 0xF1 JUMPI DUP1 PUSH4 0x64A40642 EQ PUSH2 0x10F JUMPI DUP1 PUSH4 0x650D993B EQ PUSH2 0x12D JUMPI DUP1 PUSH4 0x6C1032AF EQ PUSH2 0x14B JUMPI JUMPDEST PUSH1 0x0 DUP1 REVERT JUMPDEST PUSH2 0xD3 PUSH1 0x4 DUP1 CALLDATASIZE SUB DUP2 ADD SWAP1 PUSH2 0xCE SWAP2 SWAP1 PUSH2 0x7DB JUMP JUMPDEST PUSH2 0x205 JUMP JUMPDEST STOP JUMPDEST PUSH2 0xEF PUSH1 0x4 DUP1 CALLDATASIZE SUB DUP2 ADD SWAP1 PUSH2 0xEA SWAP2 SWAP1 PUSH2 0x808 JUMP JUMPDEST PUSH2 0x2E2 JUMP JUMPDEST STOP JUMPDEST PUSH2 0xF9 PUSH2 0x339 JUMP JUMPDEST PUSH1 0x40 MLOAD PUSH2 0x106 SWAP2 SWAP1 PUSH2 0xA3F JUMP JUMPDEST PUSH1 0x40 MLOAD DUP1 SWAP2 SUB SWAP1 RETURN JUMPDEST PUSH2 0x117 PUSH2 0x49E JUMP JUMPDEST PUSH1 0x40 MLOAD PUSH2 0x124 SWAP2 SWAP1 PUSH2 0xAFC JUMP JUMPDEST PUSH1 0x40 MLOAD DUP1 SWAP2 SUB SWAP1 RETURN JUMPDEST PUSH2 0x135 PUSH2 0x4A8 JUMP JUMPDEST PUSH1 0x40 MLOAD PUSH2 0x142 SWAP2 SWAP1 PUSH2 0xA24 JUMP JUMPDEST PUSH1 0x40 MLOAD DUP1 SWAP2 SUB SWAP1 RETURN JUMPDEST PUSH2 0x153 PUSH2 0x4D2 JUMP JUMPDEST PUSH1 0x40 MLOAD PUSH2 0x160 SWAP2 SWAP1 PUSH2 0xA24 JUMP JUMPDEST PUSH1 0x40 MLOAD DUP1 SWAP2 SUB SWAP1 RETURN JUMPDEST PUSH2 0x183 PUSH1 0x4 DUP1 CALLDATASIZE SUB DUP2 ADD SWAP1 PUSH2 0x17E SWAP2 SWAP1 PUSH2 0x7DB JUMP JUMPDEST PUSH2 0x58D JUMP JUMPDEST STOP JUMPDEST PUSH2 0x18D PUSH2 0x5D8 JUMP JUMPDEST PUSH1 0x40 MLOAD PUSH2 0x19A SWAP2 SWAP1 PUSH2 0xAFC JUMP JUMPDEST PUSH1 0x40 MLOAD DUP1 SWAP2 SUB SWAP1 RETURN JUMPDEST PUSH2 0x1AB PUSH2 0x5E2 JUMP JUMPDEST PUSH1 0x40 MLOAD PUSH2 0x1B8 SWAP2 SWAP1 PUSH2 0xAFC JUMP JUMPDEST PUSH1 0x40 MLOAD DUP1 SWAP2 SUB SWAP1 RETURN JUMPDEST PUSH2 0x1C9 PUSH2 0x5EC JUMP JUMPDEST STOP JUMPDEST PUSH2 0x1D3 PUSH2 0x611 JUMP JUMPDEST PUSH1 0x40 MLOAD PUSH2 0x1E0 SWAP2 SWAP1 PUSH2 0xAE1 JUMP JUMPDEST PUSH1 0x40 MLOAD DUP1 SWAP2 SUB SWAP1 RETURN JUMPDEST PUSH2 0x203 PUSH1 0x4 DUP1 CALLDATASIZE SUB DUP2 ADD SWAP1 PUSH2 0x1FE SWAP2 SWAP1 PUSH2 0x835 JUMP JUMPDEST PUSH2 0x649 JUMP JUMPDEST STOP JUMPDEST PUSH2 0x20D PUSH2 0x66D JUMP JUMPDEST PUSH1 0x0 PUSH20 0xFFFFFFFFFFFFFFFFFFFFFFFFFFFFFFFFFFFFFFFF AND PUSH1 0x8 PUSH1 0x0 SWAP1 SLOAD SWAP1 PUSH2 0x100 EXP SWAP1 DIV PUSH20 0xFFFFFFFFFFFFFFFFFFFFFFFFFFFFFFFFFFFFFFFF AND PUSH20 0xFFFFFFFFFFFFFFFFFFFFFFFFFFFFFFFFFFFFFFFF AND EQ PUSH2 0x29E JUMPI PUSH1 0x40 MLOAD PUSH32 0x8C379A000000000000000000000000000000000000000000000000000000000 DUP2 MSTORE PUSH1 0x4 ADD PUSH2 0x295 SWAP1 PUSH2 0xAA1 JUMP JUMPDEST PUSH1 0x40 MLOAD DUP1 SWAP2 SUB SWAP1 REVERT JUMPDEST DUP1 PUSH1 0x8 PUSH1 0x0 PUSH2 0x100 EXP DUP2 SLOAD DUP2 PUSH20 0xFFFFFFFFFFFFFFFFFFFFFFFFFFFFFFFFFFFFFFFF MUL NOT AND SWAP1 DUP4 PUSH20 0xFFFFFFFFFFFFFFFFFFFFFFFFFFFFFFFFFFFFFFFF AND MUL OR SWAP1 SSTORE POP POP JUMP JUMPDEST PUSH2 0x2EA PUSH2 0x66D JUMP JUMPDEST PUSH1 0x9 DUP2 SWAP1 DUP1 PUSH1 0x1 DUP2 SLOAD ADD DUP1 DUP3 SSTORE DUP1 SWAP2 POP POP PUSH1 0x1 SWAP1 SUB SWAP1 PUSH1 0x0 MSTORE PUSH1 0x20 PUSH1 0x0 KECCAK256 SWAP1 PUSH1 0x3 MUL ADD PUSH1 0x0 SWAP1 SWAP2 SWAP1 SWAP2 SWAP1 SWAP2 POP PUSH1 0x0 DUP3 ADD MLOAD DUP2 PUSH1 0x0 ADD SSTORE PUSH1 0x20 DUP3 ADD MLOAD DUP2 PUSH1 0x1 ADD SSTORE PUSH1 0x40 DUP3 ADD MLOAD DUP2 PUSH1 0x2 ADD SSTORE POP POP POP JUMP JUMPDEST PUSH1 0x60 PUSH1 0x1 PUSH1 0x0 SWAP1 SLOAD SWAP1 PUSH2 0x100 EXP SWAP1 DIV PUSH20 0xFFFFFFFFFFFFFFFFFFFFFFFFFFFFFFFFFFFFFFFF AND PUSH20 0xFFFFFFFFFFFFFFFFFFFFFFFFFFFFFFFFFFFFFFFF AND ORIGIN PUSH20 0xFFFFFFFFFFFFFFFFFFFFFFFFFFFFFFFFFFFFFFFF AND EQ DUP1 PUSH2 0x3E4 JUMPI POP PUSH1 0x8 PUSH1 0x0 SWAP1 SLOAD SWAP1 PUSH2 0x100 EXP SWAP1 DIV PUSH20 0xFFFFFFFFFFFFFFFFFFFFFFFFFFFFFFFFFFFFFFFF AND PUSH20 0xFFFFFFFFFFFFFFFFFFFFFFFFFFFFFFFFFFFFFFFF AND ORIGIN PUSH20 0xFFFFFFFFFFFFFFFFFFFFFFFFFFFFFFFFFFFFFFFF AND EQ JUMPDEST PUSH2 0x423 JUMPI PUSH1 0x40 MLOAD PUSH32 0x8C379A000000000000000000000000000000000000000000000000000000000 DUP2 MSTORE PUSH1 0x4 ADD PUSH2 0x41A SWAP1 PUSH2 0xAC1 JUMP JUMPDEST PUSH1 0x40 MLOAD DUP1 SWAP2 SUB SWAP1 REVERT JUMPDEST PUSH1 0x9 DUP1 SLOAD DUP1 PUSH1 0x20 MUL PUSH1 0x20 ADD PUSH1 0x40 MLOAD SWAP1 DUP2 ADD PUSH1 0x40 MSTORE DUP1 SWAP3 SWAP2 SWAP1 DUP2 DUP2 MSTORE PUSH1 0x20 ADD PUSH1 0x0 SWAP1 JUMPDEST DUP3 DUP3 LT ISZERO PUSH2 0x495 JUMPI DUP4 DUP3 SWAP1 PUSH1 0x0 MSTORE PUSH1 0x20 PUSH1 0x0 KECCAK256 SWAP1 PUSH1 0x3 MUL ADD PUSH1 0x40 MLOAD DUP1 PUSH1 0x60 ADD PUSH1 0x40 MSTORE SWAP1 DUP2 PUSH1 0x0 DUP3 ADD SLOAD DUP2 MSTORE PUSH1 0x20 ADD PUSH1 0x1 DUP3 ADD SLOAD DUP2 MSTORE PUSH1 0x20 ADD PUSH1 0x2 DUP3 ADD SLOAD DUP2 MSTORE POP POP DUP2 MSTORE PUSH1 0x20 ADD SWAP1 PUSH1 0x1 ADD SWAP1 PUSH2 0x445 JUMP JUMPDEST POP POP POP POP SWAP1 POP SWAP1 JUMP JUMPDEST PUSH1 0x0 PUSH1 0x7 SLOAD SWAP1 POP SWAP1 JUMP JUMPDEST PUSH1 0x0 PUSH1 0x1 PUSH1 0x0 SWAP1 SLOAD SWAP1 PUSH2 0x100 EXP SWAP1 DIV PUSH20 0xFFFFFFFFFFFFFFFFFFFFFFFFFFFFFFFFFFFFFFFF AND SWAP1 POP SWAP1 JUMP JUMPDEST PUSH1 0x0 DUP1 PUSH20 0xFFFFFFFFFFFFFFFFFFFFFFFFFFFFFFFFFFFFFFFF AND PUSH1 0x8 PUSH1 0x0 SWAP1 SLOAD SWAP1 PUSH2 0x100 EXP SWAP1 DIV PUSH20 0xFFFFFFFFFFFFFFFFFFFFFFFFFFFFFFFFFFFFFFFF AND PUSH20 0xFFFFFFFFFFFFFFFFFFFFFFFFFFFFFFFFFFFFFFFF AND EQ ISZERO PUSH2 0x565 JUMPI PUSH1 0x40 MLOAD PUSH32 0x8C379A000000000000000000000000000000000000000000000000000000000 DUP2 MSTORE PUSH1 0x4 ADD PUSH2 0x55C SWAP1 PUSH2 0xA81 JUMP JUMPDEST PUSH1 0x40 MLOAD DUP1 SWAP2 SUB SWAP1 REVERT JUMPDEST PUSH1 0x8 PUSH1 0x0 SWAP1 SLOAD SWAP1 PUSH2 0x100 EXP SWAP1 DIV PUSH20 0xFFFFFFFFFFFFFFFFFFFFFFFFFFFFFFFFFFFFFFFF AND SWAP1 POP SWAP1 JUMP JUMPDEST PUSH2 0x595 PUSH2 0x66D JUMP JUMPDEST DUP1 PUSH1 0x0 DUP1 PUSH2 0x100 EXP DUP2 SLOAD DUP2 PUSH20 0xFFFFFFFFFFFFFFFFFFFFFFFFFFFFFFFFFFFFFFFF MUL NOT AND SWAP1 DUP4 PUSH20 0xFFFFFFFFFFFFFFFFFFFFFFFFFFFFFFFFFFFFFFFF AND MUL OR SWAP1 SSTORE POP POP JUMP JUMPDEST PUSH1 0x0 PUSH1 0x5 SLOAD SWAP1 POP SWAP1 JUMP JUMPDEST PUSH1 0x0 PUSH1 0x6 SLOAD SWAP1 POP SWAP1 JUMP JUMPDEST PUSH2 0x5F4 PUSH2 0x66D JUMP JUMPDEST PUSH1 0x1 PUSH1 0xA PUSH1 0x0 PUSH2 0x100 EXP DUP2 SLOAD DUP2 PUSH1 0xFF MUL NOT AND SWAP1 DUP4 ISZERO ISZERO MUL OR SWAP1 SSTORE POP JUMP JUMPDEST PUSH2 0x619 PUSH2 0x714 JUMP JUMPDEST PUSH1 0x2 PUSH1 0x40 MLOAD DUP1 PUSH1 0x60 ADD PUSH1 0x40 MSTORE SWAP1 DUP2 PUSH1 0x0 DUP3 ADD SLOAD DUP2 MSTORE PUSH1 0x20 ADD PUSH1 0x1 DUP3 ADD SLOAD DUP2 MSTORE PUSH1 0x20 ADD PUSH1 0x2 DUP3 ADD SLOAD DUP2 MSTORE POP POP SWAP1 POP SWAP1 JUMP JUMPDEST PUSH2 0x651 PUSH2 0x66D JUMP JUMPDEST DUP1 PUSH1 0x5 PUSH1 0x0 DUP3 DUP3 SLOAD PUSH2 0x663 SWAP2 SWAP1 PUSH2 0xB86 JUMP JUMPDEST SWAP3 POP POP DUP2 SWAP1 SSTORE POP POP JUMP JUMPDEST PUSH1 0x0 DUP1 SLOAD SWAP1 PUSH2 0x100 EXP SWAP1 DIV PUSH20 0xFFFFFFFFFFFFFFFFFFFFFFFFFFFFFFFFFFFFFFFF AND PUSH20 0xFFFFFFFFFFFFFFFFFFFFFFFFFFFFFFFFFFFFFFFF AND CALLER PUSH20 0xFFFFFFFFFFFFFFFFFFFFFFFFFFFFFFFFFFFFFFFF AND EQ DUP1 PUSH2 0x6D3 JUMPI POP PUSH1 0xA PUSH1 0x0 SWAP1 SLOAD SWAP1 PUSH2 0x100 EXP SWAP1 DIV PUSH1 0xFF AND JUMPDEST PUSH2 0x712 JUMPI PUSH1 0x40 MLOAD PUSH32 0x8C379A000000000000000000000000000000000000000000000000000000000 DUP2 MSTORE PUSH1 0x4 ADD PUSH2 0x709 SWAP1 PUSH2 0xA61 JUMP JUMPDEST PUSH1 0x40 MLOAD DUP1 SWAP2 SUB SWAP1 REVERT JUMPDEST JUMP JUMPDEST PUSH1 0x40 MLOAD DUP1 PUSH1 0x60 ADD PUSH1 0x40 MSTORE DUP1 PUSH1 0x0 DUP2 MSTORE PUSH1 0x20 ADD PUSH1 0x0 DUP1 NOT AND DUP2 MSTORE PUSH1 0x20 ADD PUSH1 0x0 DUP2 MSTORE POP SWAP1 JUMP JUMPDEST PUSH1 0x0 DUP2 CALLDATALOAD SWAP1 POP PUSH2 0x747 DUP2 PUSH2 0xD96 JUMP JUMPDEST SWAP3 SWAP2 POP POP JUMP JUMPDEST PUSH1 0x0 DUP2 CALLDATALOAD SWAP1 POP PUSH2 0x75C DUP2 PUSH2 0xDAD JUMP JUMPDEST SWAP3 SWAP2 POP POP JUMP JUMPDEST PUSH1 0x0 PUSH1 0x60 DUP3 DUP5 SUB SLT ISZERO PUSH2 0x778 JUMPI PUSH2 0x777 PUSH2 0xCB1 JUMP JUMPDEST JUMPDEST PUSH2 0x782 PUSH1 0x60 PUSH2 0xB17 JUMP JUMPDEST SWAP1 POP PUSH1 0x0 PUSH2 0x792 DUP5 DUP3 DUP6 ADD PUSH2 0x7C6 JUMP JUMPDEST PUSH1 0x0 DUP4 ADD MSTORE POP PUSH1 0x20 PUSH2 0x7A6 DUP5 DUP3 DUP6 ADD PUSH2 0x74D JUMP JUMPDEST PUSH1 0x20 DUP4 ADD MSTORE POP PUSH1 0x40 PUSH2 0x7BA DUP5 DUP3 DUP6 ADD PUSH2 0x7C6 JUMP JUMPDEST PUSH1 0x40 DUP4 ADD MSTORE POP SWAP3 SWAP2 POP POP JUMP JUMPDEST PUSH1 0x0 DUP2 CALLDATALOAD SWAP1 POP PUSH2 0x7D5 DUP2 PUSH2 0xDC4 JUMP JUMPDEST SWAP3 SWAP2 POP POP JUMP JUMPDEST PUSH1 0x0 PUSH1 0x20 DUP3 DUP5 SUB SLT ISZERO PUSH2 0x7F1 JUMPI PUSH2 0x7F0 PUSH2 0xCB6 JUMP JUMPDEST JUMPDEST PUSH1 0x0 PUSH2 0x7FF DUP5 DUP3 DUP6 ADD PUSH2 0x738 JUMP JUMPDEST SWAP2 POP POP SWAP3 SWAP2 POP POP JUMP JUMPDEST PUSH1 0x0 PUSH1 0x60 DUP3 DUP5 SUB SLT ISZERO PUSH2 0x81E JUMPI PUSH2 0x81D PUSH2 0xCB6 JUMP JUMPDEST JUMPDEST PUSH1 0x0 PUSH2 0x82C DUP5 DUP3 DUP6 ADD PUSH2 0x762 JUMP JUMPDEST SWAP2 POP POP SWAP3 SWAP2 POP POP JUMP JUMPDEST PUSH1 0x0 PUSH1 0x20 DUP3 DUP5 SUB SLT ISZERO PUSH2 0x84B JUMPI PUSH2 0x84A PUSH2 0xCB6 JUMP JUMPDEST JUMPDEST PUSH1 0x0 PUSH2 0x859 DUP5 DUP3 DUP6 ADD PUSH2 0x7C6 JUMP JUMPDEST SWAP2 POP POP SWAP3 SWAP2 POP POP JUMP JUMPDEST PUSH1 0x0 PUSH2 0x86E DUP4 DUP4 PUSH2 0x982 JUMP JUMPDEST PUSH1 0x60 DUP4 ADD SWAP1 POP SWAP3 SWAP2 POP POP JUMP JUMPDEST PUSH2 0x883 DUP2 PUSH2 0xBDC JUMP JUMPDEST DUP3 MSTORE POP POP JUMP JUMPDEST PUSH1 0x0 PUSH2 0x894 DUP3 PUSH2 0xB4C JUMP JUMPDEST PUSH2 0x89E DUP2 DUP6 PUSH2 0xB64 JUMP JUMPDEST SWAP4 POP PUSH2 0x8A9 DUP4 PUSH2 0xB3C JUMP JUMPDEST DUP1 PUSH1 0x0 JUMPDEST DUP4 DUP2 LT ISZERO PUSH2 0x8DA JUMPI DUP2 MLOAD PUSH2 0x8C1 DUP9 DUP3 PUSH2 0x862 JUMP JUMPDEST SWAP8 POP PUSH2 0x8CC DUP4 PUSH2 0xB57 JUMP JUMPDEST SWAP3 POP POP PUSH1 0x1 DUP2 ADD SWAP1 POP PUSH2 0x8AD JUMP JUMPDEST POP DUP6 SWAP4 POP POP POP POP SWAP3 SWAP2 POP POP JUMP JUMPDEST PUSH2 0x8F0 DUP2 PUSH2 0xBEE JUMP JUMPDEST DUP3 MSTORE POP POP JUMP JUMPDEST PUSH1 0x0 PUSH2 0x903 PUSH1 0x23 DUP4 PUSH2 0xB75 JUMP JUMPDEST SWAP2 POP PUSH2 0x90E DUP3 PUSH2 0xCCC JUMP JUMPDEST PUSH1 0x40 DUP3 ADD SWAP1 POP SWAP2 SWAP1 POP JUMP JUMPDEST PUSH1 0x0 PUSH2 0x926 PUSH1 0x11 DUP4 PUSH2 0xB75 JUMP JUMPDEST SWAP2 POP PUSH2 0x931 DUP3 PUSH2 0xD1B JUMP JUMPDEST PUSH1 0x20 DUP3 ADD SWAP1 POP SWAP2 SWAP1 POP JUMP JUMPDEST PUSH1 0x0 PUSH2 0x949 PUSH1 0x15 DUP4 PUSH2 0xB75 JUMP JUMPDEST SWAP2 POP PUSH2 0x954 DUP3 PUSH2 0xD44 JUMP JUMPDEST PUSH1 0x20 DUP3 ADD SWAP1 POP SWAP2 SWAP1 POP JUMP JUMPDEST PUSH1 0x0 PUSH2 0x96C PUSH1 0x1B DUP4 PUSH2 0xB75 JUMP JUMPDEST SWAP2 POP PUSH2 0x977 DUP3 PUSH2 0xD6D JUMP JUMPDEST PUSH1 0x20 DUP3 ADD SWAP1 POP SWAP2 SWAP1 POP JUMP JUMPDEST PUSH1 0x60 DUP3 ADD PUSH1 0x0 DUP3 ADD MLOAD PUSH2 0x998 PUSH1 0x0 DUP6 ADD DUP3 PUSH2 0xA06 JUMP JUMPDEST POP PUSH1 0x20 DUP3 ADD MLOAD PUSH2 0x9AB PUSH1 0x20 DUP6 ADD DUP3 PUSH2 0x8E7 JUMP JUMPDEST POP PUSH1 0x40 DUP3 ADD MLOAD PUSH2 0x9BE PUSH1 0x40 DUP6 ADD DUP3 PUSH2 0xA06 JUMP JUMPDEST POP POP POP POP JUMP JUMPDEST PUSH1 0x60 DUP3 ADD PUSH1 0x0 DUP3 ADD MLOAD PUSH2 0x9DA PUSH1 0x0 DUP6 ADD DUP3 PUSH2 0xA06 JUMP JUMPDEST POP PUSH1 0x20 DUP3 ADD MLOAD PUSH2 0x9ED PUSH1 0x20 DUP6 ADD DUP3 PUSH2 0x8E7 JUMP JUMPDEST POP PUSH1 0x40 DUP3 ADD MLOAD PUSH2 0xA00 PUSH1 0x40 DUP6 ADD DUP3 PUSH2 0xA06 JUMP JUMPDEST POP POP POP POP JUMP JUMPDEST PUSH2 0xA0F DUP2 PUSH2 0xC18 JUMP JUMPDEST DUP3 MSTORE POP POP JUMP JUMPDEST PUSH2 0xA1E DUP2 PUSH2 0xC18 JUMP JUMPDEST DUP3 MSTORE POP POP JUMP JUMPDEST PUSH1 0x0 PUSH1 0x20 DUP3 ADD SWAP1 POP PUSH2 0xA39 PUSH1 0x0 DUP4 ADD DUP5 PUSH2 0x87A JUMP JUMPDEST SWAP3 SWAP2 POP POP JUMP JUMPDEST PUSH1 0x0 PUSH1 0x20 DUP3 ADD SWAP1 POP DUP2 DUP2 SUB PUSH1 0x0 DUP4 ADD MSTORE PUSH2 0xA59 DUP2 DUP5 PUSH2 0x889 JUMP JUMPDEST SWAP1 POP SWAP3 SWAP2 POP POP JUMP JUMPDEST PUSH1 0x0 PUSH1 0x20 DUP3 ADD SWAP1 POP DUP2 DUP2 SUB PUSH1 0x0 DUP4 ADD MSTORE PUSH2 0xA7A DUP2 PUSH2 0x8F6 JUMP JUMPDEST SWAP1 POP SWAP2 SWAP1 POP JUMP JUMPDEST PUSH1 0x0 PUSH1 0x20 DUP3 ADD SWAP1 POP DUP2 DUP2 SUB PUSH1 0x0 DUP4 ADD MSTORE PUSH2 0xA9A DUP2 PUSH2 0x919 JUMP JUMPDEST SWAP1 POP SWAP2 SWAP1 POP JUMP JUMPDEST PUSH1 0x0 PUSH1 0x20 DUP3 ADD SWAP1 POP DUP2 DUP2 SUB PUSH1 0x0 DUP4 ADD MSTORE PUSH2 0xABA DUP2 PUSH2 0x93C JUMP JUMPDEST SWAP1 POP SWAP2 SWAP1 POP JUMP JUMPDEST PUSH1 0x0 PUSH1 0x20 DUP3 ADD SWAP1 POP DUP2 DUP2 SUB PUSH1 0x0 DUP4 ADD MSTORE PUSH2 0xADA DUP2 PUSH2 0x95F JUMP JUMPDEST SWAP1 POP SWAP2 SWAP1 POP JUMP JUMPDEST PUSH1 0x0 PUSH1 0x60 DUP3 ADD SWAP1 POP PUSH2 0xAF6 PUSH1 0x0 DUP4 ADD DUP5 PUSH2 0x9C4 JUMP JUMPDEST SWAP3 SWAP2 POP POP JUMP JUMPDEST PUSH1 0x0 PUSH1 0x20 DUP3 ADD SWAP1 POP PUSH2 0xB11 PUSH1 0x0 DUP4 ADD DUP5 PUSH2 0xA15 JUMP JUMPDEST SWAP3 SWAP2 POP POP JUMP JUMPDEST PUSH1 0x0 PUSH2 0xB21 PUSH2 0xB32 JUMP JUMPDEST SWAP1 POP PUSH2 0xB2D DUP3 DUP3 PUSH2 0xC22 JUMP JUMPDEST SWAP2 SWAP1 POP JUMP JUMPDEST PUSH1 0x0 PUSH1 0x40 MLOAD SWAP1 POP SWAP1 JUMP JUMPDEST PUSH1 0x0 DUP2 SWAP1 POP PUSH1 0x20 DUP3 ADD SWAP1 POP SWAP2 SWAP1 POP JUMP JUMPDEST PUSH1 0x0 DUP2 MLOAD SWAP1 POP SWAP2 SWAP1 POP JUMP JUMPDEST PUSH1 0x0 PUSH1 0x20 DUP3 ADD SWAP1 POP SWAP2 SWAP1 POP JUMP JUMPDEST PUSH1 0x0 DUP3 DUP3 MSTORE PUSH1 0x20 DUP3 ADD SWAP1 POP SWAP3 SWAP2 POP POP JUMP JUMPDEST PUSH1 0x0 DUP3 DUP3 MSTORE PUSH1 0x20 DUP3 ADD SWAP1 POP SWAP3 SWAP2 POP POP JUMP JUMPDEST PUSH1 0x0 PUSH2 0xB91 DUP3 PUSH2 0xC18 JUMP JUMPDEST SWAP2 POP PUSH2 0xB9C DUP4 PUSH2 0xC18 JUMP JUMPDEST SWAP3 POP DUP3 PUSH32 0xFFFFFFFFFFFFFFFFFFFFFFFFFFFFFFFFFFFFFFFFFFFFFFFFFFFFFFFFFFFFFFFF SUB DUP3 GT ISZERO PUSH2 0xBD1 JUMPI PUSH2 0xBD0 PUSH2 0xC53 JUMP JUMPDEST JUMPDEST DUP3 DUP3 ADD SWAP1 POP SWAP3 SWAP2 POP POP JUMP JUMPDEST PUSH1 0x0 PUSH2 0xBE7 DUP3 PUSH2 0xBF8 JUMP JUMPDEST SWAP1 POP SWAP2 SWAP1 POP JUMP JUMPDEST PUSH1 0x0 DUP2 SWAP1 POP SWAP2 SWAP1 POP JUMP JUMPDEST PUSH1 0x0 PUSH20 0xFFFFFFFFFFFFFFFFFFFFFFFFFFFFFFFFFFFFFFFF DUP3 AND SWAP1 POP SWAP2 SWAP1 POP JUMP JUMPDEST PUSH1 0x0 DUP2 SWAP1 POP SWAP2 SWAP1 POP JUMP JUMPDEST PUSH2 0xC2B DUP3 PUSH2 0xCBB JUMP JUMPDEST DUP2 ADD DUP2 DUP2 LT PUSH8 0xFFFFFFFFFFFFFFFF DUP3 GT OR ISZERO PUSH2 0xC4A JUMPI PUSH2 0xC49 PUSH2 0xC82 JUMP JUMPDEST JUMPDEST DUP1 PUSH1 0x40 MSTORE POP POP POP JUMP JUMPDEST PUSH32 0x4E487B7100000000000000000000000000000000000000000000000000000000 PUSH1 0x0 MSTORE PUSH1 0x11 PUSH1 0x4 MSTORE PUSH1 0x24 PUSH1 0x0 REVERT JUMPDEST PUSH32 0x4E487B7100000000000000000000000000000000000000000000000000000000 PUSH1 0x0 MSTORE PUSH1 0x41 PUSH1 0x4 MSTORE PUSH1 0x24 PUSH1 0x0 REVERT JUMPDEST PUSH1 0x0 DUP1 REVERT JUMPDEST PUSH1 0x0 DUP1 REVERT JUMPDEST PUSH1 0x0 PUSH1 0x1F NOT PUSH1 0x1F DUP4 ADD AND SWAP1 POP SWAP2 SWAP1 POP JUMP JUMPDEST PUSH32 0x4F6E6C79206D617374657220636F6E74726163742063616E2063616C6C207468 PUSH1 0x0 DUP3 ADD MSTORE PUSH32 0x69732E0000000000000000000000000000000000000000000000000000000000 PUSH1 0x20 DUP3 ADD MSTORE POP JUMP JUMPDEST PUSH32 0x4578656375746F72206E6F74207365742E000000000000000000000000000000 PUSH1 0x0 DUP3 ADD MSTORE POP JUMP JUMPDEST PUSH32 0x4578656375746F7220616C7265616479207365742E0000000000000000000000 PUSH1 0x0 DUP3 ADD MSTORE POP JUMP JUMPDEST PUSH32 0x596F75277265206E6F7420636F6E7472616374206D656D6265722E0000000000 PUSH1 0x0 DUP3 ADD MSTORE POP JUMP JUMPDEST PUSH2 0xD9F DUP2 PUSH2 0xBDC JUMP JUMPDEST DUP2 EQ PUSH2 0xDAA JUMPI PUSH1 0x0 DUP1 REVERT JUMPDEST POP JUMP JUMPDEST PUSH2 0xDB6 DUP2 PUSH2 0xBEE JUMP JUMPDEST DUP2 EQ PUSH2 0xDC1 JUMPI PUSH1 0x0 DUP1 REVERT JUMPDEST POP JUMP JUMPDEST PUSH2 0xDCD DUP2 PUSH2 0xC18 JUMP JUMPDEST DUP2 EQ PUSH2 0xDD8 JUMPI PUSH1 0x0 DUP1 REVERT JUMPDEST POP JUMP INVALID LOG2 PUSH5 0x6970667358 0x22 SLT KECCAK256 XOR SWAP11 0x22 0x2E GASLIMIT 0xD8 0xE4 0x22 0xB3 PUSH14 0x5E4B7DF35E9BB01A7501E16A93EB MSIZE DUP15 CREATE 0xB9 BALANCE EXP CALL 0xA6 PUSH5 0x736F6C6343 STOP ADDMOD SMOD STOP CALLER "
				},
				"gasEstimates": {
					"creation": {
						"codeDepositCost": "720200",
						"executionCost": "infinite",
						"totalCost": "infinite"
					},
					"external": {
						"addSolution((uint256,bytes32,uint256))": "infinite",
						"addTaskExecutionTime(uint256)": "infinite",
						"getCustomer()": "2611",
						"getExecutor()": "4807",
						"getPrice()": "2481",
						"getSecurityDeposit()": "2504",
						"getSolution()": "infinite",
						"getTaskData()": "infinite",
						"getTaskExecutionTime()": "2459",
						"grantPublicAccess()": "28826",
						"setExecutor(address)": "31243",
						"setNewMasterSmartContract(address)": "29071"
					},
					"internal": {
						"checkSender()": "infinite"
					}
				},
				"methodIdentifiers": {
					"addSolution((uint256,bytes32,uint256))": "3d5e0515",
					"addTaskExecutionTime(uint256)": "ffea0ef4",
					"getCustomer()": "650d993b",
					"getExecutor()": "6c1032af",
					"getPrice()": "98d5fdca",
					"getSecurityDeposit()": "64a40642",
					"getSolution()": "50592adf",
					"getTaskData()": "db48ce0b",
					"getTaskExecutionTime()": "91051e80",
					"grantPublicAccess()": "a5bfa746",
					"setExecutor(address)": "1c3c0ea8",
					"setNewMasterSmartContract(address)": "73b0eb75"
				}
			},
			"storageLayout": {
				"storage": [
					{
						"astId": 868,
						"contract": "contracts_new/TaskInfo.sol:TaskInfo",
						"label": "masterSmartContractAddress",
						"offset": 0,
						"slot": "0",
						"type": "t_address"
					},
					{
						"astId": 870,
						"contract": "contracts_new/TaskInfo.sol:TaskInfo",
						"label": "customer",
						"offset": 0,
						"slot": "1",
						"type": "t_address"
					},
					{
						"astId": 873,
						"contract": "contracts_new/TaskInfo.sol:TaskInfo",
						"label": "taskData",
						"offset": 0,
						"slot": "2",
						"type": "t_struct(TaskData)1162_storage"
					},
					{
						"astId": 875,
						"contract": "contracts_new/TaskInfo.sol:TaskInfo",
						"label": "taskExecutionTime",
						"offset": 0,
						"slot": "5",
						"type": "t_uint256"
					},
					{
						"astId": 877,
						"contract": "contracts_new/TaskInfo.sol:TaskInfo",
						"label": "price",
						"offset": 0,
						"slot": "6",
						"type": "t_uint256"
					},
					{
						"astId": 879,
						"contract": "contracts_new/TaskInfo.sol:TaskInfo",
						"label": "securityDeposit",
						"offset": 0,
						"slot": "7",
						"type": "t_uint256"
					},
					{
						"astId": 885,
						"contract": "contracts_new/TaskInfo.sol:TaskInfo",
						"label": "executor",
						"offset": 0,
						"slot": "8",
						"type": "t_address"
					},
					{
						"astId": 889,
						"contract": "contracts_new/TaskInfo.sol:TaskInfo",
						"label": "solution",
						"offset": 0,
						"slot": "9",
						"type": "t_array(t_struct(SolutionData)1169_storage)dyn_storage"
					},
					{
						"astId": 892,
						"contract": "contracts_new/TaskInfo.sol:TaskInfo",
						"label": "publicAccess",
						"offset": 0,
						"slot": "10",
						"type": "t_bool"
					}
				],
				"types": {
					"t_address": {
						"encoding": "inplace",
						"label": "address",
						"numberOfBytes": "20"
					},
					"t_array(t_struct(SolutionData)1169_storage)dyn_storage": {
						"base": "t_struct(SolutionData)1169_storage",
						"encoding": "dynamic_array",
						"label": "struct utils.SolutionData[]",
						"numberOfBytes": "32"
					},
					"t_bool": {
						"encoding": "inplace",
						"label": "bool",
						"numberOfBytes": "1"
					},
					"t_bytes32": {
						"encoding": "inplace",
						"label": "bytes32",
						"numberOfBytes": "32"
					},
					"t_struct(SolutionData)1169_storage": {
						"encoding": "inplace",
						"label": "struct utils.SolutionData",
						"members": [
							{
								"astId": 1164,
								"contract": "contracts_new/TaskInfo.sol:TaskInfo",
								"label": "id",
								"offset": 0,
								"slot": "0",
								"type": "t_uint256"
							},
							{
								"astId": 1166,
								"contract": "contracts_new/TaskInfo.sol:TaskInfo",
								"label": "sha256hashsum",
								"offset": 0,
								"slot": "1",
								"type": "t_bytes32"
							},
							{
								"astId": 1168,
								"contract": "contracts_new/TaskInfo.sol:TaskInfo",
								"label": "timestamp",
								"offset": 0,
								"slot": "2",
								"type": "t_uint256"
							}
						],
						"numberOfBytes": "96"
					},
					"t_struct(TaskData)1162_storage": {
						"encoding": "inplace",
						"label": "struct utils.TaskData",
						"members": [
							{
								"astId": 1157,
								"contract": "contracts_new/TaskInfo.sol:TaskInfo",
								"label": "id",
								"offset": 0,
								"slot": "0",
								"type": "t_uint256"
							},
							{
								"astId": 1159,
								"contract": "contracts_new/TaskInfo.sol:TaskInfo",
								"label": "sha256hashsum",
								"offset": 0,
								"slot": "1",
								"type": "t_bytes32"
							},
							{
								"astId": 1161,
								"contract": "contracts_new/TaskInfo.sol:TaskInfo",
								"label": "timestamp",
								"offset": 0,
								"slot": "2",
								"type": "t_uint256"
							}
						],
						"numberOfBytes": "96"
					},
					"t_uint256": {
						"encoding": "inplace",
						"label": "uint256",
						"numberOfBytes": "32"
					}
				}
			},
			"userdoc": {
				"kind": "user",
				"methods": {},
				"version": 1
			}
		}
	}
}