{
	"contracts_new/Judgment.sol": {
		"Judgment": {
			"abi": [
				{
					"inputs": [
						{
							"internalType": "address",
							"name": "task_info_contract_address",
							"type": "address"
						},
						{
							"internalType": "uint256",
							"name": "judgment_time",
							"type": "uint256"
						}
					],
					"stateMutability": "nonpayable",
					"type": "constructor"
				},
				{
					"anonymous": false,
					"inputs": [
						{
							"indexed": false,
							"internalType": "address",
							"name": "from",
							"type": "address"
						},
						{
							"indexed": false,
							"internalType": "uint256",
							"name": "timestamp",
							"type": "uint256"
						}
					],
					"name": "ArgumentAdded",
					"type": "event"
				},
				{
					"anonymous": false,
					"inputs": [
						{
							"indexed": false,
							"internalType": "address",
							"name": "judge",
							"type": "address"
						},
						{
							"indexed": false,
							"internalType": "uint256",
							"name": "timestamp",
							"type": "uint256"
						}
					],
					"name": "Voted",
					"type": "event"
				},
				{
					"inputs": [
						{
							"internalType": "uint256",
							"name": "argument_id",
							"type": "uint256"
						},
						{
							"internalType": "bytes32",
							"name": "argument_sha256sum",
							"type": "bytes32"
						}
					],
					"name": "addArgument",
					"outputs": [],
					"stateMutability": "nonpayable",
					"type": "function"
				},
				{
					"inputs": [],
					"name": "close",
					"outputs": [],
					"stateMutability": "nonpayable",
					"type": "function"
				},
				{
					"inputs": [],
					"name": "getCustomerArguments",
					"outputs": [
						{
							"components": [
								{
									"internalType": "uint256",
									"name": "id",
									"type": "uint256"
								},
								{
									"internalType": "bytes32",
									"name": "sha256hashsum",
									"type": "bytes32"
								},
								{
									"internalType": "uint256",
									"name": "timestamp",
									"type": "uint256"
								}
							],
							"internalType": "struct utils.Argument[]",
							"name": "",
							"type": "tuple[]"
						}
					],
					"stateMutability": "view",
					"type": "function"
				},
				{
					"inputs": [],
					"name": "getExecutionContractAddress",
					"outputs": [
						{
							"internalType": "address",
							"name": "",
							"type": "address"
						}
					],
					"stateMutability": "view",
					"type": "function"
				},
				{
					"inputs": [],
					"name": "getExecutorArguments",
					"outputs": [
						{
							"components": [
								{
									"internalType": "uint256",
									"name": "id",
									"type": "uint256"
								},
								{
									"internalType": "bytes32",
									"name": "sha256hashsum",
									"type": "bytes32"
								},
								{
									"internalType": "uint256",
									"name": "timestamp",
									"type": "uint256"
								}
							],
							"internalType": "struct utils.Argument[]",
							"name": "",
							"type": "tuple[]"
						}
					],
					"stateMutability": "view",
					"type": "function"
				},
				{
					"inputs": [],
					"name": "getJudgmentTimeEnd",
					"outputs": [
						{
							"internalType": "uint256",
							"name": "",
							"type": "uint256"
						}
					],
					"stateMutability": "view",
					"type": "function"
				},
				{
					"inputs": [],
					"name": "getNumVotes",
					"outputs": [
						{
							"internalType": "uint256",
							"name": "",
							"type": "uint256"
						}
					],
					"stateMutability": "view",
					"type": "function"
				},
				{
					"inputs": [],
					"name": "getTaskInfoContractAddress",
					"outputs": [
						{
							"internalType": "address",
							"name": "",
							"type": "address"
						}
					],
					"stateMutability": "view",
					"type": "function"
				},
				{
					"inputs": [],
					"name": "getVotes",
					"outputs": [
						{
							"components": [
								{
									"internalType": "uint256",
									"name": "id",
									"type": "uint256"
								},
								{
									"internalType": "bytes32",
									"name": "sha256hashsum",
									"type": "bytes32"
								},
								{
									"internalType": "uint256",
									"name": "timestamp",
									"type": "uint256"
								},
								{
									"internalType": "bool",
									"name": "verdict",
									"type": "bool"
								},
								{
									"internalType": "address",
									"name": "judgeAddress",
									"type": "address"
								}
							],
							"internalType": "struct utils.JudgeVote[]",
							"name": "",
							"type": "tuple[]"
						}
					],
					"stateMutability": "view",
					"type": "function"
				},
				{
					"inputs": [
						{
							"internalType": "bool",
							"name": "verdict",
							"type": "bool"
						},
						{
							"internalType": "uint256",
							"name": "vote_id",
							"type": "uint256"
						},
						{
							"internalType": "bytes32",
							"name": "vote_sha256hashsum",
							"type": "bytes32"
						}
					],
					"name": "vote",
					"outputs": [],
					"stateMutability": "nonpayable",
					"type": "function"
				}
			],
			"devdoc": {
				"kind": "dev",
				"methods": {},
				"version": 1
			},
			"evm": {
				"assembly": "    /* \"contracts_new/Judgment.sol\":408:10192  contract Judgment {\r... */\n  mstore(0x40, 0x80)\n    /* \"contracts_new/Judgment.sol\":838:843  false */\n  0x00\n    /* \"contracts_new/Judgment.sol\":818:843  bool rewardsPayed = false */\n  0x06\n  exp(0x0100, 0x00)\n  dup2\n  sload\n  dup2\n  0xff\n  mul\n  not\n  and\n  swap1\n  dup4\n  iszero\n  iszero\n  mul\n  or\n  swap1\n  sstore\n  pop\n    /* \"contracts_new/Judgment.sol\":900:1286  constructor(\r... */\n  callvalue\n  dup1\n  iszero\n  tag_1\n  jumpi\n  0x00\n  dup1\n  revert\ntag_1:\n  pop\n  mload(0x40)\n  sub(codesize, bytecodeSize)\n  dup1\n  bytecodeSize\n  dup4\n  codecopy\n  dup2\n  dup2\n  add\n  0x40\n  mstore\n  dup2\n  add\n  swap1\n  tag_2\n  swap2\n  swap1\n  tag_3\n  jump\t// in\ntag_2:\n    /* \"contracts_new/utils.sol\":457:470  1 minutes - 1 */\n  0x3b\n    /* \"contracts_new/Judgment.sol\":1012:1025  judgment_time */\n  dup2\n    /* \"contracts_new/Judgment.sol\":1012:1052  judgment_time >= utils.MIN_JUDGMENT_TIME */\n  lt\n  iszero\n    /* \"contracts_new/Judgment.sol\":1004:1060  require(judgment_time >= utils.MIN_JUDGMENT_TIME, \"0x1\") */\n  tag_6\n  jumpi\n  mload(0x40)\n  0x08c379a000000000000000000000000000000000000000000000000000000000\n  dup2\n  mstore\n  0x04\n  add\n  tag_7\n  swap1\n  tag_8\n  jump\t// in\ntag_7:\n  mload(0x40)\n  dup1\n  swap2\n  sub\n  swap1\n  revert\ntag_6:\n    /* \"contracts_new/Judgment.sol\":1143:1153  msg.sender */\n  caller\n    /* \"contracts_new/Judgment.sol\":1116:1140  executionContractAddress */\n  0x00\n  dup1\n    /* \"contracts_new/Judgment.sol\":1116:1153  executionContractAddress = msg.sender */\n  0x0100\n  exp\n  dup2\n  sload\n  dup2\n  0xffffffffffffffffffffffffffffffffffffffff\n  mul\n  not\n  and\n  swap1\n  dup4\n  0xffffffffffffffffffffffffffffffffffffffff\n  and\n  mul\n  or\n  swap1\n  sstore\n  pop\n    /* \"contracts_new/Judgment.sol\":1190:1216  task_info_contract_address */\n  dup2\n    /* \"contracts_new/Judgment.sol\":1164:1187  taskInfoContractAddress */\n  0x01\n  0x00\n    /* \"contracts_new/Judgment.sol\":1164:1216  taskInfoContractAddress = task_info_contract_address */\n  0x0100\n  exp\n  dup2\n  sload\n  dup2\n  0xffffffffffffffffffffffffffffffffffffffff\n  mul\n  not\n  and\n  swap1\n  dup4\n  0xffffffffffffffffffffffffffffffffffffffff\n  and\n  mul\n  or\n  swap1\n  sstore\n  pop\n    /* \"contracts_new/Judgment.sol\":1265:1278  judgment_time */\n  dup1\n    /* \"contracts_new/Judgment.sol\":1247:1262  block.timestamp */\n  timestamp\n    /* \"contracts_new/Judgment.sol\":1247:1278  block.timestamp + judgment_time */\n  tag_9\n  swap2\n  swap1\n  tag_10\n  jump\t// in\ntag_9:\n    /* \"contracts_new/Judgment.sol\":1229:1244  judgmentTimeEnd */\n  0x05\n    /* \"contracts_new/Judgment.sol\":1229:1278  judgmentTimeEnd = block.timestamp + judgment_time */\n  dup2\n  swap1\n  sstore\n  pop\n    /* \"contracts_new/Judgment.sol\":900:1286  constructor(\r... */\n  pop\n  pop\n    /* \"contracts_new/Judgment.sol\":408:10192  contract Judgment {\r... */\n  jump(tag_11)\n    /* \"#utility.yul\":7:150   */\ntag_13:\n    /* \"#utility.yul\":64:69   */\n  0x00\n    /* \"#utility.yul\":95:101   */\n  dup2\n    /* \"#utility.yul\":89:102   */\n  mload\n    /* \"#utility.yul\":80:102   */\n  swap1\n  pop\n    /* \"#utility.yul\":111:144   */\n  tag_15\n    /* \"#utility.yul\":138:143   */\n  dup2\n    /* \"#utility.yul\":111:144   */\n  tag_16\n  jump\t// in\ntag_15:\n    /* \"#utility.yul\":7:150   */\n  swap3\n  swap2\n  pop\n  pop\n  jump\t// out\n    /* \"#utility.yul\":156:299   */\ntag_17:\n    /* \"#utility.yul\":213:218   */\n  0x00\n    /* \"#utility.yul\":244:250   */\n  dup2\n    /* \"#utility.yul\":238:251   */\n  mload\n    /* \"#utility.yul\":229:251   */\n  swap1\n  pop\n    /* \"#utility.yul\":260:293   */\n  tag_19\n    /* \"#utility.yul\":287:292   */\n  dup2\n    /* \"#utility.yul\":260:293   */\n  tag_20\n  jump\t// in\ntag_19:\n    /* \"#utility.yul\":156:299   */\n  swap3\n  swap2\n  pop\n  pop\n  jump\t// out\n    /* \"#utility.yul\":305:812   */\ntag_3:\n    /* \"#utility.yul\":384:390   */\n  0x00\n    /* \"#utility.yul\":392:398   */\n  dup1\n    /* \"#utility.yul\":441:443   */\n  0x40\n    /* \"#utility.yul\":429:438   */\n  dup4\n    /* \"#utility.yul\":420:427   */\n  dup6\n    /* \"#utility.yul\":416:439   */\n  sub\n    /* \"#utility.yul\":412:444   */\n  slt\n    /* \"#utility.yul\":409:528   */\n  iszero\n  tag_22\n  jumpi\n    /* \"#utility.yul\":447:526   */\n  tag_23\n  tag_24\n  jump\t// in\ntag_23:\n    /* \"#utility.yul\":409:528   */\ntag_22:\n    /* \"#utility.yul\":567:568   */\n  0x00\n    /* \"#utility.yul\":592:656   */\n  tag_25\n    /* \"#utility.yul\":648:655   */\n  dup6\n    /* \"#utility.yul\":639:645   */\n  dup3\n    /* \"#utility.yul\":628:637   */\n  dup7\n    /* \"#utility.yul\":624:646   */\n  add\n    /* \"#utility.yul\":592:656   */\n  tag_13\n  jump\t// in\ntag_25:\n    /* \"#utility.yul\":582:656   */\n  swap3\n  pop\n    /* \"#utility.yul\":538:666   */\n  pop\n    /* \"#utility.yul\":705:707   */\n  0x20\n    /* \"#utility.yul\":731:795   */\n  tag_26\n    /* \"#utility.yul\":787:794   */\n  dup6\n    /* \"#utility.yul\":778:784   */\n  dup3\n    /* \"#utility.yul\":767:776   */\n  dup7\n    /* \"#utility.yul\":763:785   */\n  add\n    /* \"#utility.yul\":731:795   */\n  tag_17\n  jump\t// in\ntag_26:\n    /* \"#utility.yul\":721:795   */\n  swap2\n  pop\n    /* \"#utility.yul\":676:805   */\n  pop\n    /* \"#utility.yul\":305:812   */\n  swap3\n  pop\n  swap3\n  swap1\n  pop\n  jump\t// out\n    /* \"#utility.yul\":818:1183   */\ntag_27:\n    /* \"#utility.yul\":960:963   */\n  0x00\n    /* \"#utility.yul\":981:1047   */\n  tag_29\n    /* \"#utility.yul\":1045:1046   */\n  0x03\n    /* \"#utility.yul\":1040:1043   */\n  dup4\n    /* \"#utility.yul\":981:1047   */\n  tag_30\n  jump\t// in\ntag_29:\n    /* \"#utility.yul\":974:1047   */\n  swap2\n  pop\n    /* \"#utility.yul\":1056:1149   */\n  tag_31\n    /* \"#utility.yul\":1145:1148   */\n  dup3\n    /* \"#utility.yul\":1056:1149   */\n  tag_32\n  jump\t// in\ntag_31:\n    /* \"#utility.yul\":1174:1176   */\n  0x20\n    /* \"#utility.yul\":1169:1172   */\n  dup3\n    /* \"#utility.yul\":1165:1177   */\n  add\n    /* \"#utility.yul\":1158:1177   */\n  swap1\n  pop\n    /* \"#utility.yul\":818:1183   */\n  swap2\n  swap1\n  pop\n  jump\t// out\n    /* \"#utility.yul\":1189:1608   */\ntag_8:\n    /* \"#utility.yul\":1355:1359   */\n  0x00\n    /* \"#utility.yul\":1393:1395   */\n  0x20\n    /* \"#utility.yul\":1382:1391   */\n  dup3\n    /* \"#utility.yul\":1378:1396   */\n  add\n    /* \"#utility.yul\":1370:1396   */\n  swap1\n  pop\n    /* \"#utility.yul\":1442:1451   */\n  dup2\n    /* \"#utility.yul\":1436:1440   */\n  dup2\n    /* \"#utility.yul\":1432:1452   */\n  sub\n    /* \"#utility.yul\":1428:1429   */\n  0x00\n    /* \"#utility.yul\":1417:1426   */\n  dup4\n    /* \"#utility.yul\":1413:1430   */\n  add\n    /* \"#utility.yul\":1406:1453   */\n  mstore\n    /* \"#utility.yul\":1470:1601   */\n  tag_34\n    /* \"#utility.yul\":1596:1600   */\n  dup2\n    /* \"#utility.yul\":1470:1601   */\n  tag_27\n  jump\t// in\ntag_34:\n    /* \"#utility.yul\":1462:1601   */\n  swap1\n  pop\n    /* \"#utility.yul\":1189:1608   */\n  swap2\n  swap1\n  pop\n  jump\t// out\n    /* \"#utility.yul\":1695:1864   */\ntag_30:\n    /* \"#utility.yul\":1779:1790   */\n  0x00\n    /* \"#utility.yul\":1813:1819   */\n  dup3\n    /* \"#utility.yul\":1808:1811   */\n  dup3\n    /* \"#utility.yul\":1801:1820   */\n  mstore\n    /* \"#utility.yul\":1853:1857   */\n  0x20\n    /* \"#utility.yul\":1848:1851   */\n  dup3\n    /* \"#utility.yul\":1844:1858   */\n  add\n    /* \"#utility.yul\":1829:1858   */\n  swap1\n  pop\n    /* \"#utility.yul\":1695:1864   */\n  swap3\n  swap2\n  pop\n  pop\n  jump\t// out\n    /* \"#utility.yul\":1870:2175   */\ntag_10:\n    /* \"#utility.yul\":1910:1913   */\n  0x00\n    /* \"#utility.yul\":1929:1949   */\n  tag_39\n    /* \"#utility.yul\":1947:1948   */\n  dup3\n    /* \"#utility.yul\":1929:1949   */\n  tag_40\n  jump\t// in\ntag_39:\n    /* \"#utility.yul\":1924:1949   */\n  swap2\n  pop\n    /* \"#utility.yul\":1963:1983   */\n  tag_41\n    /* \"#utility.yul\":1981:1982   */\n  dup4\n    /* \"#utility.yul\":1963:1983   */\n  tag_40\n  jump\t// in\ntag_41:\n    /* \"#utility.yul\":1958:1983   */\n  swap3\n  pop\n    /* \"#utility.yul\":2117:2118   */\n  dup3\n    /* \"#utility.yul\":2049:2115   */\n  0xffffffffffffffffffffffffffffffffffffffffffffffffffffffffffffffff\n    /* \"#utility.yul\":2045:2119   */\n  sub\n    /* \"#utility.yul\":2042:2043   */\n  dup3\n    /* \"#utility.yul\":2039:2120   */\n  gt\n    /* \"#utility.yul\":2036:2143   */\n  iszero\n  tag_42\n  jumpi\n    /* \"#utility.yul\":2123:2141   */\n  tag_43\n  tag_44\n  jump\t// in\ntag_43:\n    /* \"#utility.yul\":2036:2143   */\ntag_42:\n    /* \"#utility.yul\":2167:2168   */\n  dup3\n    /* \"#utility.yul\":2164:2165   */\n  dup3\n    /* \"#utility.yul\":2160:2169   */\n  add\n    /* \"#utility.yul\":2153:2169   */\n  swap1\n  pop\n    /* \"#utility.yul\":1870:2175   */\n  swap3\n  swap2\n  pop\n  pop\n  jump\t// out\n    /* \"#utility.yul\":2181:2277   */\ntag_45:\n    /* \"#utility.yul\":2218:2225   */\n  0x00\n    /* \"#utility.yul\":2247:2271   */\n  tag_47\n    /* \"#utility.yul\":2265:2270   */\n  dup3\n    /* \"#utility.yul\":2247:2271   */\n  tag_48\n  jump\t// in\ntag_47:\n    /* \"#utility.yul\":2236:2271   */\n  swap1\n  pop\n    /* \"#utility.yul\":2181:2277   */\n  swap2\n  swap1\n  pop\n  jump\t// out\n    /* \"#utility.yul\":2283:2409   */\ntag_48:\n    /* \"#utility.yul\":2320:2327   */\n  0x00\n    /* \"#utility.yul\":2360:2402   */\n  0xffffffffffffffffffffffffffffffffffffffff\n    /* \"#utility.yul\":2353:2358   */\n  dup3\n    /* \"#utility.yul\":2349:2403   */\n  and\n    /* \"#utility.yul\":2338:2403   */\n  swap1\n  pop\n    /* \"#utility.yul\":2283:2409   */\n  swap2\n  swap1\n  pop\n  jump\t// out\n    /* \"#utility.yul\":2415:2492   */\ntag_40:\n    /* \"#utility.yul\":2452:2459   */\n  0x00\n    /* \"#utility.yul\":2481:2486   */\n  dup2\n    /* \"#utility.yul\":2470:2486   */\n  swap1\n  pop\n    /* \"#utility.yul\":2415:2492   */\n  swap2\n  swap1\n  pop\n  jump\t// out\n    /* \"#utility.yul\":2498:2678   */\ntag_44:\n    /* \"#utility.yul\":2546:2623   */\n  0x4e487b7100000000000000000000000000000000000000000000000000000000\n    /* \"#utility.yul\":2543:2544   */\n  0x00\n    /* \"#utility.yul\":2536:2624   */\n  mstore\n    /* \"#utility.yul\":2643:2647   */\n  0x11\n    /* \"#utility.yul\":2640:2641   */\n  0x04\n    /* \"#utility.yul\":2633:2648   */\n  mstore\n    /* \"#utility.yul\":2667:2671   */\n  0x24\n    /* \"#utility.yul\":2664:2665   */\n  0x00\n    /* \"#utility.yul\":2657:2672   */\n  revert\n    /* \"#utility.yul\":2807:2924   */\ntag_24:\n    /* \"#utility.yul\":2916:2917   */\n  0x00\n    /* \"#utility.yul\":2913:2914   */\n  dup1\n    /* \"#utility.yul\":2906:2918   */\n  revert\n    /* \"#utility.yul\":2930:3083   */\ntag_32:\n    /* \"#utility.yul\":3070:3075   */\n  0x3078310000000000000000000000000000000000000000000000000000000000\n    /* \"#utility.yul\":3066:3067   */\n  0x00\n    /* \"#utility.yul\":3058:3064   */\n  dup3\n    /* \"#utility.yul\":3054:3068   */\n  add\n    /* \"#utility.yul\":3047:3076   */\n  mstore\n    /* \"#utility.yul\":2930:3083   */\n  pop\n  jump\t// out\n    /* \"#utility.yul\":3089:3211   */\ntag_16:\n    /* \"#utility.yul\":3162:3186   */\n  tag_57\n    /* \"#utility.yul\":3180:3185   */\n  dup2\n    /* \"#utility.yul\":3162:3186   */\n  tag_45\n  jump\t// in\ntag_57:\n    /* \"#utility.yul\":3155:3160   */\n  dup2\n    /* \"#utility.yul\":3152:3187   */\n  eq\n    /* \"#utility.yul\":3142:3205   */\n  tag_58\n  jumpi\n    /* \"#utility.yul\":3201:3202   */\n  0x00\n    /* \"#utility.yul\":3198:3199   */\n  dup1\n    /* \"#utility.yul\":3191:3203   */\n  revert\n    /* \"#utility.yul\":3142:3205   */\ntag_58:\n    /* \"#utility.yul\":3089:3211   */\n  pop\n  jump\t// out\n    /* \"#utility.yul\":3217:3339   */\ntag_20:\n    /* \"#utility.yul\":3290:3314   */\n  tag_60\n    /* \"#utility.yul\":3308:3313   */\n  dup2\n    /* \"#utility.yul\":3290:3314   */\n  tag_40\n  jump\t// in\ntag_60:\n    /* \"#utility.yul\":3283:3288   */\n  dup2\n    /* \"#utility.yul\":3280:3315   */\n  eq\n    /* \"#utility.yul\":3270:3333   */\n  tag_61\n  jumpi\n    /* \"#utility.yul\":3329:3330   */\n  0x00\n    /* \"#utility.yul\":3326:3327   */\n  dup1\n    /* \"#utility.yul\":3319:3331   */\n  revert\n    /* \"#utility.yul\":3270:3333   */\ntag_61:\n    /* \"#utility.yul\":3217:3339   */\n  pop\n  jump\t// out\n    /* \"contracts_new/Judgment.sol\":408:10192  contract Judgment {\r... */\ntag_11:\n  dataSize(sub_0)\n  dup1\n  dataOffset(sub_0)\n  0x00\n  codecopy\n  0x00\n  return\nstop\n\nsub_0: assembly {\n        /* \"contracts_new/Judgment.sol\":408:10192  contract Judgment {\r... */\n      mstore(0x40, 0x80)\n      callvalue\n      dup1\n      iszero\n      tag_1\n      jumpi\n      0x00\n      dup1\n      revert\n    tag_1:\n      pop\n      jumpi(tag_2, lt(calldatasize, 0x04))\n      shr(0xe0, calldataload(0x00))\n      dup1\n      0xd48fe222\n      gt\n      tag_13\n      jumpi\n      dup1\n      0xd48fe222\n      eq\n      tag_8\n      jumpi\n      dup1\n      0xd9416762\n      eq\n      tag_9\n      jumpi\n      dup1\n      0xe556dcb2\n      eq\n      tag_10\n      jumpi\n      dup1\n      0xe90f4e7c\n      eq\n      tag_11\n      jumpi\n      dup1\n      0xec1abd7f\n      eq\n      tag_12\n      jumpi\n      jump(tag_2)\n    tag_13:\n      dup1\n      0x079402c1\n      eq\n      tag_3\n      jumpi\n      dup1\n      0x09f82a8a\n      eq\n      tag_4\n      jumpi\n      dup1\n      0x0dc96015\n      eq\n      tag_5\n      jumpi\n      dup1\n      0x43d726d6\n      eq\n      tag_6\n      jumpi\n      dup1\n      0x8b5a8db2\n      eq\n      tag_7\n      jumpi\n    tag_2:\n      0x00\n      dup1\n      revert\n        /* \"contracts_new/Judgment.sol\":1675:1796  function getExecutorArguments() public view returns (utils.Argument[] memory) {\r... */\n    tag_3:\n      tag_14\n      tag_15\n      jump\t// in\n    tag_14:\n      mload(0x40)\n      tag_16\n      swap2\n      swap1\n      tag_17\n      jump\t// in\n    tag_16:\n      mload(0x40)\n      dup1\n      swap2\n      sub\n      swap1\n      return\n        /* \"contracts_new/Judgment.sol\":1421:1538  function getTaskInfoContractAddress() public view returns (address) {\r... */\n    tag_4:\n      tag_18\n      tag_19\n      jump\t// in\n    tag_18:\n      mload(0x40)\n      tag_20\n      swap2\n      swap1\n      tag_21\n      jump\t// in\n    tag_20:\n      mload(0x40)\n      dup1\n      swap2\n      sub\n      swap1\n      return\n        /* \"contracts_new/Judgment.sol\":2012:2193  function getVotes() public view returns (utils.JudgeVote[] memory) {\r... */\n    tag_5:\n      tag_22\n      tag_23\n      jump\t// in\n    tag_22:\n      mload(0x40)\n      tag_24\n      swap2\n      swap1\n      tag_25\n      jump\t// in\n    tag_24:\n      mload(0x40)\n      dup1\n      swap2\n      sub\n      swap1\n      return\n        /* \"contracts_new/Judgment.sol\":4883:5142  function close() public {\r... */\n    tag_6:\n      tag_26\n      tag_27\n      jump\t// in\n    tag_26:\n      stop\n        /* \"contracts_new/Judgment.sol\":1910:2004  function getNumVotes() public view returns (uint) {\r... */\n    tag_7:\n      tag_28\n      tag_29\n      jump\t// in\n    tag_28:\n      mload(0x40)\n      tag_30\n      swap2\n      swap1\n      tag_31\n      jump\t// in\n    tag_30:\n      mload(0x40)\n      dup1\n      swap2\n      sub\n      swap1\n      return\n        /* \"contracts_new/Judgment.sol\":1546:1667  function getCustomerArguments() public view returns (utils.Argument[] memory) {\r... */\n    tag_8:\n      tag_32\n      tag_33\n      jump\t// in\n    tag_32:\n      mload(0x40)\n      tag_34\n      swap2\n      swap1\n      tag_17\n      jump\t// in\n    tag_34:\n      mload(0x40)\n      dup1\n      swap2\n      sub\n      swap1\n      return\n        /* \"contracts_new/Judgment.sol\":3308:4184  function vote(\r... */\n    tag_9:\n      tag_35\n      0x04\n      dup1\n      calldatasize\n      sub\n      dup2\n      add\n      swap1\n      tag_36\n      swap2\n      swap1\n      tag_37\n      jump\t// in\n    tag_36:\n      tag_38\n      jump\t// in\n    tag_35:\n      stop\n        /* \"contracts_new/Judgment.sol\":1804:1902  function getJudgmentTimeEnd() public view returns (uint) {\r... */\n    tag_10:\n      tag_39\n      tag_40\n      jump\t// in\n    tag_39:\n      mload(0x40)\n      tag_41\n      swap2\n      swap1\n      tag_31\n      jump\t// in\n    tag_41:\n      mload(0x40)\n      dup1\n      swap2\n      sub\n      swap1\n      return\n        /* \"contracts_new/Judgment.sol\":2201:2985  function addArgument(\r... */\n    tag_11:\n      tag_42\n      0x04\n      dup1\n      calldatasize\n      sub\n      dup2\n      add\n      swap1\n      tag_43\n      swap2\n      swap1\n      tag_44\n      jump\t// in\n    tag_43:\n      tag_45\n      jump\t// in\n    tag_42:\n      stop\n        /* \"contracts_new/Judgment.sol\":1294:1413  function getExecutionContractAddress() public view returns (address) {\r... */\n    tag_12:\n      tag_46\n      tag_47\n      jump\t// in\n    tag_46:\n      mload(0x40)\n      tag_48\n      swap2\n      swap1\n      tag_21\n      jump\t// in\n    tag_48:\n      mload(0x40)\n      dup1\n      swap2\n      sub\n      swap1\n      return\n        /* \"contracts_new/Judgment.sol\":1675:1796  function getExecutorArguments() public view returns (utils.Argument[] memory) {\r... */\n    tag_15:\n        /* \"contracts_new/Judgment.sol\":1728:1751  utils.Argument[] memory */\n      0x60\n        /* \"contracts_new/Judgment.sol\":1771:1788  executorArguments */\n      0x03\n        /* \"contracts_new/Judgment.sol\":1764:1788  return executorArguments */\n      dup1\n      sload\n      dup1\n      0x20\n      mul\n      0x20\n      add\n      mload(0x40)\n      swap1\n      dup2\n      add\n      0x40\n      mstore\n      dup1\n      swap3\n      swap2\n      swap1\n      dup2\n      dup2\n      mstore\n      0x20\n      add\n      0x00\n      swap1\n    tag_50:\n      dup3\n      dup3\n      lt\n      iszero\n      tag_51\n      jumpi\n      dup4\n      dup3\n      swap1\n      0x00\n      mstore\n      keccak256(0x00, 0x20)\n      swap1\n      0x03\n      mul\n      add\n      mload(0x40)\n      dup1\n      0x60\n      add\n      0x40\n      mstore\n      swap1\n      dup2\n      0x00\n      dup3\n      add\n      sload\n      dup2\n      mstore\n      0x20\n      add\n      0x01\n      dup3\n      add\n      sload\n      dup2\n      mstore\n      0x20\n      add\n      0x02\n      dup3\n      add\n      sload\n      dup2\n      mstore\n      pop\n      pop\n      dup2\n      mstore\n      0x20\n      add\n      swap1\n      0x01\n      add\n      swap1\n      jump(tag_50)\n    tag_51:\n      pop\n      pop\n      pop\n      pop\n      swap1\n      pop\n        /* \"contracts_new/Judgment.sol\":1675:1796  function getExecutorArguments() public view returns (utils.Argument[] memory) {\r... */\n      swap1\n      jump\t// out\n        /* \"contracts_new/Judgment.sol\":1421:1538  function getTaskInfoContractAddress() public view returns (address) {\r... */\n    tag_19:\n        /* \"contracts_new/Judgment.sol\":1480:1487  address */\n      0x00\n        /* \"contracts_new/Judgment.sol\":1507:1530  taskInfoContractAddress */\n      0x01\n      0x00\n      swap1\n      sload\n      swap1\n      0x0100\n      exp\n      swap1\n      div\n      0xffffffffffffffffffffffffffffffffffffffff\n      and\n        /* \"contracts_new/Judgment.sol\":1500:1530  return taskInfoContractAddress */\n      swap1\n      pop\n        /* \"contracts_new/Judgment.sol\":1421:1538  function getTaskInfoContractAddress() public view returns (address) {\r... */\n      swap1\n      jump\t// out\n        /* \"contracts_new/Judgment.sol\":2012:2193  function getVotes() public view returns (utils.JudgeVote[] memory) {\r... */\n    tag_23:\n        /* \"contracts_new/Judgment.sol\":2053:2077  utils.JudgeVote[] memory */\n      0x60\n        /* \"contracts_new/Judgment.sol\":2098:2110  rewardsPayed */\n      0x06\n      0x00\n      swap1\n      sload\n      swap1\n      0x0100\n      exp\n      swap1\n      div\n      0xff\n      and\n        /* \"contracts_new/Judgment.sol\":2090:2118  require(rewardsPayed, \"0x2\") */\n      tag_55\n      jumpi\n      mload(0x40)\n      0x08c379a000000000000000000000000000000000000000000000000000000000\n      dup2\n      mstore\n      0x04\n      add\n      tag_56\n      swap1\n      tag_57\n      jump\t// in\n    tag_56:\n      mload(0x40)\n      dup1\n      swap2\n      sub\n      swap1\n      revert\n    tag_55:\n        /* \"contracts_new/Judgment.sol\":2174:2185  judge_votes */\n      0x04\n        /* \"contracts_new/Judgment.sol\":2167:2185  return judge_votes */\n      dup1\n      sload\n      dup1\n      0x20\n      mul\n      0x20\n      add\n      mload(0x40)\n      swap1\n      dup2\n      add\n      0x40\n      mstore\n      dup1\n      swap3\n      swap2\n      swap1\n      dup2\n      dup2\n      mstore\n      0x20\n      add\n      0x00\n      swap1\n    tag_58:\n      dup3\n      dup3\n      lt\n      iszero\n      tag_59\n      jumpi\n      dup4\n      dup3\n      swap1\n      0x00\n      mstore\n      keccak256(0x00, 0x20)\n      swap1\n      0x04\n      mul\n      add\n      mload(0x40)\n      dup1\n      0xa0\n      add\n      0x40\n      mstore\n      swap1\n      dup2\n      0x00\n      dup3\n      add\n      sload\n      dup2\n      mstore\n      0x20\n      add\n      0x01\n      dup3\n      add\n      sload\n      dup2\n      mstore\n      0x20\n      add\n      0x02\n      dup3\n      add\n      sload\n      dup2\n      mstore\n      0x20\n      add\n      0x03\n      dup3\n      add\n      0x00\n      swap1\n      sload\n      swap1\n      0x0100\n      exp\n      swap1\n      div\n      0xff\n      and\n      iszero\n      iszero\n      iszero\n      iszero\n      dup2\n      mstore\n      0x20\n      add\n      0x03\n      dup3\n      add\n      0x01\n      swap1\n      sload\n      swap1\n      0x0100\n      exp\n      swap1\n      div\n      0xffffffffffffffffffffffffffffffffffffffff\n      and\n      0xffffffffffffffffffffffffffffffffffffffff\n      and\n      0xffffffffffffffffffffffffffffffffffffffff\n      and\n      dup2\n      mstore\n      pop\n      pop\n      dup2\n      mstore\n      0x20\n      add\n      swap1\n      0x01\n      add\n      swap1\n      jump(tag_58)\n    tag_59:\n      pop\n      pop\n      pop\n      pop\n      swap1\n      pop\n        /* \"contracts_new/Judgment.sol\":2012:2193  function getVotes() public view returns (utils.JudgeVote[] memory) {\r... */\n      swap1\n      jump\t// out\n        /* \"contracts_new/Judgment.sol\":4883:5142  function close() public {\r... */\n    tag_27:\n        /* \"contracts_new/Judgment.sol\":4918:4949  checkIsContractShouldBeClosed() */\n      tag_62\n        /* \"contracts_new/Judgment.sol\":4918:4947  checkIsContractShouldBeClosed */\n      tag_63\n        /* \"contracts_new/Judgment.sol\":4918:4949  checkIsContractShouldBeClosed() */\n      jump\t// in\n    tag_62:\n        /* \"contracts_new/Judgment.sol\":4977:4981  true */\n      0x01\n        /* \"contracts_new/Judgment.sol\":4962:4974  rewardsPayed */\n      0x06\n      0x00\n        /* \"contracts_new/Judgment.sol\":4962:4981  rewardsPayed = true */\n      0x0100\n      exp\n      dup2\n      sload\n      dup2\n      0xff\n      mul\n      not\n      and\n      swap1\n      dup4\n      iszero\n      iszero\n      mul\n      or\n      swap1\n      sstore\n      pop\n        /* \"contracts_new/Judgment.sol\":4992:5006  uint votes_for */\n      0x00\n        /* \"contracts_new/Judgment.sol\":5017:5035  uint votes_against */\n      dup1\n        /* \"contracts_new/Judgment.sol\":5075:5087  countVotes() */\n      tag_64\n        /* \"contracts_new/Judgment.sol\":5075:5085  countVotes */\n      tag_65\n        /* \"contracts_new/Judgment.sol\":5075:5087  countVotes() */\n      jump\t// in\n    tag_64:\n        /* \"contracts_new/Judgment.sol\":5046:5087  (votes_for, votes_against) = countVotes() */\n      dup1\n      swap3\n      pop\n      dup2\n      swap4\n      pop\n      pop\n      pop\n        /* \"contracts_new/Judgment.sol\":5098:5134  payRewards(votes_for, votes_against) */\n      tag_66\n        /* \"contracts_new/Judgment.sol\":5109:5118  votes_for */\n      dup3\n        /* \"contracts_new/Judgment.sol\":5120:5133  votes_against */\n      dup3\n        /* \"contracts_new/Judgment.sol\":5098:5108  payRewards */\n      tag_67\n        /* \"contracts_new/Judgment.sol\":5098:5134  payRewards(votes_for, votes_against) */\n      jump\t// in\n    tag_66:\n        /* \"contracts_new/Judgment.sol\":4907:5142  {\r... */\n      pop\n      pop\n        /* \"contracts_new/Judgment.sol\":4883:5142  function close() public {\r... */\n      jump\t// out\n        /* \"contracts_new/Judgment.sol\":1910:2004  function getNumVotes() public view returns (uint) {\r... */\n    tag_29:\n        /* \"contracts_new/Judgment.sol\":1954:1958  uint */\n      0x00\n        /* \"contracts_new/Judgment.sol\":1978:1989  judge_votes */\n      0x04\n        /* \"contracts_new/Judgment.sol\":1978:1996  judge_votes.length */\n      dup1\n      sload\n      swap1\n      pop\n        /* \"contracts_new/Judgment.sol\":1971:1996  return judge_votes.length */\n      swap1\n      pop\n        /* \"contracts_new/Judgment.sol\":1910:2004  function getNumVotes() public view returns (uint) {\r... */\n      swap1\n      jump\t// out\n        /* \"contracts_new/Judgment.sol\":1546:1667  function getCustomerArguments() public view returns (utils.Argument[] memory) {\r... */\n    tag_33:\n        /* \"contracts_new/Judgment.sol\":1599:1622  utils.Argument[] memory */\n      0x60\n        /* \"contracts_new/Judgment.sol\":1642:1659  customerArguments */\n      0x02\n        /* \"contracts_new/Judgment.sol\":1635:1659  return customerArguments */\n      dup1\n      sload\n      dup1\n      0x20\n      mul\n      0x20\n      add\n      mload(0x40)\n      swap1\n      dup2\n      add\n      0x40\n      mstore\n      dup1\n      swap3\n      swap2\n      swap1\n      dup2\n      dup2\n      mstore\n      0x20\n      add\n      0x00\n      swap1\n    tag_70:\n      dup3\n      dup3\n      lt\n      iszero\n      tag_71\n      jumpi\n      dup4\n      dup3\n      swap1\n      0x00\n      mstore\n      keccak256(0x00, 0x20)\n      swap1\n      0x03\n      mul\n      add\n      mload(0x40)\n      dup1\n      0x60\n      add\n      0x40\n      mstore\n      swap1\n      dup2\n      0x00\n      dup3\n      add\n      sload\n      dup2\n      mstore\n      0x20\n      add\n      0x01\n      dup3\n      add\n      sload\n      dup2\n      mstore\n      0x20\n      add\n      0x02\n      dup3\n      add\n      sload\n      dup2\n      mstore\n      pop\n      pop\n      dup2\n      mstore\n      0x20\n      add\n      swap1\n      0x01\n      add\n      swap1\n      jump(tag_70)\n    tag_71:\n      pop\n      pop\n      pop\n      pop\n      swap1\n      pop\n        /* \"contracts_new/Judgment.sol\":1546:1667  function getCustomerArguments() public view returns (utils.Argument[] memory) {\r... */\n      swap1\n      jump\t// out\n        /* \"contracts_new/Judgment.sol\":3308:4184  function vote(\r... */\n    tag_38:\n        /* \"contracts_new/Judgment.sol\":3433:3459  checkIsContractNotClosed() */\n      tag_74\n        /* \"contracts_new/Judgment.sol\":3433:3457  checkIsContractNotClosed */\n      tag_75\n        /* \"contracts_new/Judgment.sol\":3433:3459  checkIsContractNotClosed() */\n      jump\t// in\n    tag_74:\n        /* \"contracts_new/Judgment.sol\":3470:3500  checkCanSenderVote(msg.sender) */\n      tag_76\n        /* \"contracts_new/Judgment.sol\":3489:3499  msg.sender */\n      caller\n        /* \"contracts_new/Judgment.sol\":3470:3488  checkCanSenderVote */\n      tag_77\n        /* \"contracts_new/Judgment.sol\":3470:3500  checkCanSenderVote(msg.sender) */\n      jump\t// in\n    tag_76:\n        /* \"contracts_new/Judgment.sol\":3513:3537  uint256 security_deposit */\n      0x00\n        /* \"contracts_new/Judgment.sol\":3550:3573  taskInfoContractAddress */\n      0x01\n      0x00\n      swap1\n      sload\n      swap1\n      0x0100\n      exp\n      swap1\n      div\n      0xffffffffffffffffffffffffffffffffffffffff\n      and\n        /* \"contracts_new/Judgment.sol\":3540:3593  ITaskInfo(taskInfoContractAddress).getSecurityDeposit */\n      0xffffffffffffffffffffffffffffffffffffffff\n      and\n      0x64a40642\n        /* \"contracts_new/Judgment.sol\":3540:3595  ITaskInfo(taskInfoContractAddress).getSecurityDeposit() */\n      mload(0x40)\n      dup2\n      0xffffffff\n      and\n      0xe0\n      shl\n      dup2\n      mstore\n      0x04\n      add\n      0x20\n      mload(0x40)\n      dup1\n      dup4\n      sub\n      dup2\n      dup7\n      dup1\n      extcodesize\n      iszero\n      dup1\n      iszero\n      tag_78\n      jumpi\n      0x00\n      dup1\n      revert\n    tag_78:\n      pop\n      gas\n      staticcall\n      iszero\n      dup1\n      iszero\n      tag_80\n      jumpi\n      returndatasize\n      0x00\n      dup1\n      returndatacopy\n      revert(0x00, returndatasize)\n    tag_80:\n      pop\n      pop\n      pop\n      pop\n      mload(0x40)\n      returndatasize\n      not(0x1f)\n      0x1f\n      dup3\n      add\n      and\n      dup3\n      add\n      dup1\n      0x40\n      mstore\n      pop\n      dup2\n      add\n      swap1\n      tag_81\n      swap2\n      swap1\n      tag_82\n      jump\t// in\n    tag_81:\n        /* \"contracts_new/Judgment.sol\":3513:3595  uint256 security_deposit = ITaskInfo(taskInfoContractAddress).getSecurityDeposit() */\n      swap1\n      pop\n        /* \"contracts_new/Judgment.sol\":3606:3630  uint256 sender_allowance */\n      0x00\n        /* \"contracts_new/utils.sol\":189:190  0 */\n      dup1\n        /* \"contracts_new/Judgment.sol\":3633:3654  utils.TOKEN.allowance */\n      0xffffffffffffffffffffffffffffffffffffffff\n      and\n      0xdd62ed3e\n        /* \"contracts_new/Judgment.sol\":3655:3665  msg.sender */\n      caller\n        /* \"contracts_new/Judgment.sol\":3675:3679  this */\n      address\n        /* \"contracts_new/Judgment.sol\":3633:3681  utils.TOKEN.allowance(msg.sender, address(this)) */\n      mload(0x40)\n      dup4\n      0xffffffff\n      and\n      0xe0\n      shl\n      dup2\n      mstore\n      0x04\n      add\n      tag_83\n      swap3\n      swap2\n      swap1\n      tag_84\n      jump\t// in\n    tag_83:\n      0x20\n      mload(0x40)\n      dup1\n      dup4\n      sub\n      dup2\n      dup7\n      dup1\n      extcodesize\n      iszero\n      dup1\n      iszero\n      tag_85\n      jumpi\n      0x00\n      dup1\n      revert\n    tag_85:\n      pop\n      gas\n      staticcall\n      iszero\n      dup1\n      iszero\n      tag_87\n      jumpi\n      returndatasize\n      0x00\n      dup1\n      returndatacopy\n      revert(0x00, returndatasize)\n    tag_87:\n      pop\n      pop\n      pop\n      pop\n      mload(0x40)\n      returndatasize\n      not(0x1f)\n      0x1f\n      dup3\n      add\n      and\n      dup3\n      add\n      dup1\n      0x40\n      mstore\n      pop\n      dup2\n      add\n      swap1\n      tag_88\n      swap2\n      swap1\n      tag_82\n      jump\t// in\n    tag_88:\n        /* \"contracts_new/Judgment.sol\":3606:3681  uint256 sender_allowance = utils.TOKEN.allowance(msg.sender, address(this)) */\n      swap1\n      pop\n        /* \"contracts_new/Judgment.sol\":3720:3736  security_deposit */\n      dup2\n        /* \"contracts_new/Judgment.sol\":3700:3716  sender_allowance */\n      dup2\n        /* \"contracts_new/Judgment.sol\":3700:3736  sender_allowance >= security_deposit */\n      lt\n      iszero\n        /* \"contracts_new/Judgment.sol\":3692:3744  require(sender_allowance >= security_deposit, \"0x4\") */\n      tag_89\n      jumpi\n      mload(0x40)\n      0x08c379a000000000000000000000000000000000000000000000000000000000\n      dup2\n      mstore\n      0x04\n      add\n      tag_90\n      swap1\n      tag_91\n      jump\t// in\n    tag_90:\n      mload(0x40)\n      dup1\n      swap2\n      sub\n      swap1\n      revert\n    tag_89:\n        /* \"contracts_new/utils.sol\":189:190  0 */\n      0x00\n        /* \"contracts_new/Judgment.sol\":3819:3843  utils.TOKEN.transferFrom */\n      0xffffffffffffffffffffffffffffffffffffffff\n      and\n      0x23b872dd\n        /* \"contracts_new/Judgment.sol\":3844:3854  msg.sender */\n      caller\n        /* \"contracts_new/Judgment.sol\":3864:3868  this */\n      address\n        /* \"contracts_new/Judgment.sol\":3871:3887  security_deposit */\n      dup6\n        /* \"contracts_new/Judgment.sol\":3819:3888  utils.TOKEN.transferFrom(msg.sender, address(this), security_deposit) */\n      mload(0x40)\n      dup5\n      0xffffffff\n      and\n      0xe0\n      shl\n      dup2\n      mstore\n      0x04\n      add\n      tag_92\n      swap4\n      swap3\n      swap2\n      swap1\n      tag_93\n      jump\t// in\n    tag_92:\n      0x20\n      mload(0x40)\n      dup1\n      dup4\n      sub\n      dup2\n      0x00\n      dup8\n      dup1\n      extcodesize\n      iszero\n      dup1\n      iszero\n      tag_94\n      jumpi\n      0x00\n      dup1\n      revert\n    tag_94:\n      pop\n      gas\n      call\n      iszero\n      dup1\n      iszero\n      tag_96\n      jumpi\n      returndatasize\n      0x00\n      dup1\n      returndatacopy\n      revert(0x00, returndatasize)\n    tag_96:\n      pop\n      pop\n      pop\n      pop\n      mload(0x40)\n      returndatasize\n      not(0x1f)\n      0x1f\n      dup3\n      add\n      and\n      dup3\n      add\n      dup1\n      0x40\n      mstore\n      pop\n      dup2\n      add\n      swap1\n      tag_97\n      swap2\n      swap1\n      tag_98\n      jump\t// in\n    tag_97:\n      pop\n        /* \"contracts_new/Judgment.sol\":3901:3929  utils.JudgeVote memory vote_ */\n      0x00\n        /* \"contracts_new/Judgment.sol\":3932:4090  utils.JudgeVote(\r... */\n      mload(0x40)\n      dup1\n      0xa0\n      add\n      0x40\n      mstore\n      dup1\n        /* \"contracts_new/Judgment.sol\":3962:3969  vote_id */\n      dup7\n        /* \"contracts_new/Judgment.sol\":3932:4090  utils.JudgeVote(\r... */\n      dup2\n      mstore\n      0x20\n      add\n        /* \"contracts_new/Judgment.sol\":3984:4002  vote_sha256hashsum */\n      dup6\n        /* \"contracts_new/Judgment.sol\":3932:4090  utils.JudgeVote(\r... */\n      dup2\n      mstore\n      0x20\n      add\n        /* \"contracts_new/Judgment.sol\":4017:4032  block.timestamp */\n      timestamp\n        /* \"contracts_new/Judgment.sol\":3932:4090  utils.JudgeVote(\r... */\n      dup2\n      mstore\n      0x20\n      add\n        /* \"contracts_new/Judgment.sol\":4047:4054  verdict */\n      dup8\n        /* \"contracts_new/Judgment.sol\":3932:4090  utils.JudgeVote(\r... */\n      iszero\n      iszero\n      dup2\n      mstore\n      0x20\n      add\n        /* \"contracts_new/Judgment.sol\":4069:4079  msg.sender */\n      caller\n        /* \"contracts_new/Judgment.sol\":3932:4090  utils.JudgeVote(\r... */\n      0xffffffffffffffffffffffffffffffffffffffff\n      and\n      dup2\n      mstore\n      pop\n        /* \"contracts_new/Judgment.sol\":3901:4090  utils.JudgeVote memory vote_ = utils.JudgeVote(\r... */\n      swap1\n      pop\n        /* \"contracts_new/Judgment.sol\":4101:4112  judge_votes */\n      0x04\n        /* \"contracts_new/Judgment.sol\":4118:4123  vote_ */\n      dup2\n        /* \"contracts_new/Judgment.sol\":4101:4124  judge_votes.push(vote_) */\n      swap1\n      dup1\n      0x01\n      dup2\n      sload\n      add\n      dup1\n      dup3\n      sstore\n      dup1\n      swap2\n      pop\n      pop\n      0x01\n      swap1\n      sub\n      swap1\n      0x00\n      mstore\n      keccak256(0x00, 0x20)\n      swap1\n      0x04\n      mul\n      add\n      0x00\n      swap1\n      swap2\n      swap1\n      swap2\n      swap1\n      swap2\n      pop\n      0x00\n      dup3\n      add\n      mload\n      dup2\n      0x00\n      add\n      sstore\n      0x20\n      dup3\n      add\n      mload\n      dup2\n      0x01\n      add\n      sstore\n      0x40\n      dup3\n      add\n      mload\n      dup2\n      0x02\n      add\n      sstore\n      0x60\n      dup3\n      add\n      mload\n      dup2\n      0x03\n      add\n      exp(0x0100, 0x00)\n      dup2\n      sload\n      dup2\n      0xff\n      mul\n      not\n      and\n      swap1\n      dup4\n      iszero\n      iszero\n      mul\n      or\n      swap1\n      sstore\n      pop\n      0x80\n      dup3\n      add\n      mload\n      dup2\n      0x03\n      add\n      exp(0x0100, 0x01)\n      dup2\n      sload\n      dup2\n      0xffffffffffffffffffffffffffffffffffffffff\n      mul\n      not\n      and\n      swap1\n      dup4\n      0xffffffffffffffffffffffffffffffffffffffff\n      and\n      mul\n      or\n      swap1\n      sstore\n      pop\n      pop\n      pop\n        /* \"contracts_new/Judgment.sol\":4142:4176  Voted(msg.sender, block.timestamp) */\n      0x4d99b957a2bc29a30ebd96a7be8e68fe50a3c701db28a91436490b7d53870ca4\n        /* \"contracts_new/Judgment.sol\":4148:4158  msg.sender */\n      caller\n        /* \"contracts_new/Judgment.sol\":4160:4175  block.timestamp */\n      timestamp\n        /* \"contracts_new/Judgment.sol\":4142:4176  Voted(msg.sender, block.timestamp) */\n      mload(0x40)\n      tag_100\n      swap3\n      swap2\n      swap1\n      tag_101\n      jump\t// in\n    tag_100:\n      mload(0x40)\n      dup1\n      swap2\n      sub\n      swap1\n      log1\n        /* \"contracts_new/Judgment.sol\":3422:4184  {\r... */\n      pop\n      pop\n      pop\n        /* \"contracts_new/Judgment.sol\":3308:4184  function vote(\r... */\n      pop\n      pop\n      pop\n      jump\t// out\n        /* \"contracts_new/Judgment.sol\":1804:1902  function getJudgmentTimeEnd() public view returns (uint) {\r... */\n    tag_40:\n        /* \"contracts_new/Judgment.sol\":1855:1859  uint */\n      0x00\n        /* \"contracts_new/Judgment.sol\":1879:1894  judgmentTimeEnd */\n      sload(0x05)\n        /* \"contracts_new/Judgment.sol\":1872:1894  return judgmentTimeEnd */\n      swap1\n      pop\n        /* \"contracts_new/Judgment.sol\":1804:1902  function getJudgmentTimeEnd() public view returns (uint) {\r... */\n      swap1\n      jump\t// out\n        /* \"contracts_new/Judgment.sol\":2201:2985  function addArgument(\r... */\n    tag_45:\n        /* \"contracts_new/Judgment.sol\":2314:2340  checkIsContractNotClosed() */\n      tag_104\n        /* \"contracts_new/Judgment.sol\":2314:2338  checkIsContractNotClosed */\n      tag_75\n        /* \"contracts_new/Judgment.sol\":2314:2340  checkIsContractNotClosed() */\n      jump\t// in\n    tag_104:\n        /* \"contracts_new/Judgment.sol\":2351:2389  checkCanSenderAddArguments(msg.sender) */\n      tag_105\n        /* \"contracts_new/Judgment.sol\":2378:2388  msg.sender */\n      caller\n        /* \"contracts_new/Judgment.sol\":2351:2377  checkCanSenderAddArguments */\n      tag_106\n        /* \"contracts_new/Judgment.sol\":2351:2389  checkCanSenderAddArguments(msg.sender) */\n      jump\t// in\n    tag_105:\n        /* \"contracts_new/Judgment.sol\":2402:2432  utils.Argument memory argument */\n      0x00\n        /* \"contracts_new/Judgment.sol\":2435:2549  utils.Argument(\r... */\n      mload(0x40)\n      dup1\n      0x60\n      add\n      0x40\n      mstore\n      dup1\n        /* \"contracts_new/Judgment.sol\":2464:2475  argument_id */\n      dup5\n        /* \"contracts_new/Judgment.sol\":2435:2549  utils.Argument(\r... */\n      dup2\n      mstore\n      0x20\n      add\n        /* \"contracts_new/Judgment.sol\":2490:2508  argument_sha256sum */\n      dup4\n        /* \"contracts_new/Judgment.sol\":2435:2549  utils.Argument(\r... */\n      dup2\n      mstore\n      0x20\n      add\n        /* \"contracts_new/Judgment.sol\":2523:2538  block.timestamp */\n      timestamp\n        /* \"contracts_new/Judgment.sol\":2435:2549  utils.Argument(\r... */\n      dup2\n      mstore\n      pop\n        /* \"contracts_new/Judgment.sol\":2402:2549  utils.Argument memory argument = utils.Argument(\r... */\n      swap1\n      pop\n        /* \"contracts_new/Judgment.sol\":2562:2574  address from */\n      0x00\n        /* \"contracts_new/Judgment.sol\":2613:2636  taskInfoContractAddress */\n      0x01\n      0x00\n      swap1\n      sload\n      swap1\n      0x0100\n      exp\n      swap1\n      div\n      0xffffffffffffffffffffffffffffffffffffffff\n      and\n        /* \"contracts_new/Judgment.sol\":2603:2649  ITaskInfo(taskInfoContractAddress).getCustomer */\n      0xffffffffffffffffffffffffffffffffffffffff\n      and\n      0x650d993b\n        /* \"contracts_new/Judgment.sol\":2603:2651  ITaskInfo(taskInfoContractAddress).getCustomer() */\n      mload(0x40)\n      dup2\n      0xffffffff\n      and\n      0xe0\n      shl\n      dup2\n      mstore\n      0x04\n      add\n      0x20\n      mload(0x40)\n      dup1\n      dup4\n      sub\n      dup2\n      dup7\n      dup1\n      extcodesize\n      iszero\n      dup1\n      iszero\n      tag_107\n      jumpi\n      0x00\n      dup1\n      revert\n    tag_107:\n      pop\n      gas\n      staticcall\n      iszero\n      dup1\n      iszero\n      tag_109\n      jumpi\n      returndatasize\n      0x00\n      dup1\n      returndatacopy\n      revert(0x00, returndatasize)\n    tag_109:\n      pop\n      pop\n      pop\n      pop\n      mload(0x40)\n      returndatasize\n      not(0x1f)\n      0x1f\n      dup3\n      add\n      and\n      dup3\n      add\n      dup1\n      0x40\n      mstore\n      pop\n      dup2\n      add\n      swap1\n      tag_110\n      swap2\n      swap1\n      tag_111\n      jump\t// in\n    tag_110:\n        /* \"contracts_new/Judgment.sol\":2589:2651  msg.sender == ITaskInfo(taskInfoContractAddress).getCustomer() */\n      0xffffffffffffffffffffffffffffffffffffffff\n      and\n        /* \"contracts_new/Judgment.sol\":2589:2599  msg.sender */\n      caller\n        /* \"contracts_new/Judgment.sol\":2589:2651  msg.sender == ITaskInfo(taskInfoContractAddress).getCustomer() */\n      0xffffffffffffffffffffffffffffffffffffffff\n      and\n      eq\n        /* \"contracts_new/Judgment.sol\":2585:2926  if (msg.sender == ITaskInfo(taskInfoContractAddress).getCustomer()) {\r... */\n      iszero\n      tag_112\n      jumpi\n        /* \"contracts_new/Judgment.sol\":2668:2685  customerArguments */\n      0x02\n        /* \"contracts_new/Judgment.sol\":2691:2699  argument */\n      dup3\n        /* \"contracts_new/Judgment.sol\":2668:2700  customerArguments.push(argument) */\n      swap1\n      dup1\n      0x01\n      dup2\n      sload\n      add\n      dup1\n      dup3\n      sstore\n      dup1\n      swap2\n      pop\n      pop\n      0x01\n      swap1\n      sub\n      swap1\n      0x00\n      mstore\n      keccak256(0x00, 0x20)\n      swap1\n      0x03\n      mul\n      add\n      0x00\n      swap1\n      swap2\n      swap1\n      swap2\n      swap1\n      swap2\n      pop\n      0x00\n      dup3\n      add\n      mload\n      dup2\n      0x00\n      add\n      sstore\n      0x20\n      dup3\n      add\n      mload\n      dup2\n      0x01\n      add\n      sstore\n      0x40\n      dup3\n      add\n      mload\n      dup2\n      0x02\n      add\n      sstore\n      pop\n      pop\n        /* \"contracts_new/Judgment.sol\":2732:2755  taskInfoContractAddress */\n      0x01\n      0x00\n      swap1\n      sload\n      swap1\n      0x0100\n      exp\n      swap1\n      div\n      0xffffffffffffffffffffffffffffffffffffffff\n      and\n        /* \"contracts_new/Judgment.sol\":2722:2768  ITaskInfo(taskInfoContractAddress).getCustomer */\n      0xffffffffffffffffffffffffffffffffffffffff\n      and\n      0x650d993b\n        /* \"contracts_new/Judgment.sol\":2722:2770  ITaskInfo(taskInfoContractAddress).getCustomer() */\n      mload(0x40)\n      dup2\n      0xffffffff\n      and\n      0xe0\n      shl\n      dup2\n      mstore\n      0x04\n      add\n      0x20\n      mload(0x40)\n      dup1\n      dup4\n      sub\n      dup2\n      dup7\n      dup1\n      extcodesize\n      iszero\n      dup1\n      iszero\n      tag_114\n      jumpi\n      0x00\n      dup1\n      revert\n    tag_114:\n      pop\n      gas\n      staticcall\n      iszero\n      dup1\n      iszero\n      tag_116\n      jumpi\n      returndatasize\n      0x00\n      dup1\n      returndatacopy\n      revert(0x00, returndatasize)\n    tag_116:\n      pop\n      pop\n      pop\n      pop\n      mload(0x40)\n      returndatasize\n      not(0x1f)\n      0x1f\n      dup3\n      add\n      and\n      dup3\n      add\n      dup1\n      0x40\n      mstore\n      pop\n      dup2\n      add\n      swap1\n      tag_117\n      swap2\n      swap1\n      tag_111\n      jump\t// in\n    tag_117:\n        /* \"contracts_new/Judgment.sol\":2715:2770  from = ITaskInfo(taskInfoContractAddress).getCustomer() */\n      swap1\n      pop\n        /* \"contracts_new/Judgment.sol\":2585:2926  if (msg.sender == ITaskInfo(taskInfoContractAddress).getCustomer()) {\r... */\n      jump(tag_118)\n    tag_112:\n        /* \"contracts_new/Judgment.sol\":2812:2829  executorArguments */\n      0x03\n        /* \"contracts_new/Judgment.sol\":2835:2843  argument */\n      dup3\n        /* \"contracts_new/Judgment.sol\":2812:2844  executorArguments.push(argument) */\n      swap1\n      dup1\n      0x01\n      dup2\n      sload\n      add\n      dup1\n      dup3\n      sstore\n      dup1\n      swap2\n      pop\n      pop\n      0x01\n      swap1\n      sub\n      swap1\n      0x00\n      mstore\n      keccak256(0x00, 0x20)\n      swap1\n      0x03\n      mul\n      add\n      0x00\n      swap1\n      swap2\n      swap1\n      swap2\n      swap1\n      swap2\n      pop\n      0x00\n      dup3\n      add\n      mload\n      dup2\n      0x00\n      add\n      sstore\n      0x20\n      dup3\n      add\n      mload\n      dup2\n      0x01\n      add\n      sstore\n      0x40\n      dup3\n      add\n      mload\n      dup2\n      0x02\n      add\n      sstore\n      pop\n      pop\n        /* \"contracts_new/Judgment.sol\":2876:2899  taskInfoContractAddress */\n      0x01\n      0x00\n      swap1\n      sload\n      swap1\n      0x0100\n      exp\n      swap1\n      div\n      0xffffffffffffffffffffffffffffffffffffffff\n      and\n        /* \"contracts_new/Judgment.sol\":2866:2912  ITaskInfo(taskInfoContractAddress).getExecutor */\n      0xffffffffffffffffffffffffffffffffffffffff\n      and\n      0x6c1032af\n        /* \"contracts_new/Judgment.sol\":2866:2914  ITaskInfo(taskInfoContractAddress).getExecutor() */\n      mload(0x40)\n      dup2\n      0xffffffff\n      and\n      0xe0\n      shl\n      dup2\n      mstore\n      0x04\n      add\n      0x20\n      mload(0x40)\n      dup1\n      dup4\n      sub\n      dup2\n      dup7\n      dup1\n      extcodesize\n      iszero\n      dup1\n      iszero\n      tag_120\n      jumpi\n      0x00\n      dup1\n      revert\n    tag_120:\n      pop\n      gas\n      staticcall\n      iszero\n      dup1\n      iszero\n      tag_122\n      jumpi\n      returndatasize\n      0x00\n      dup1\n      returndatacopy\n      revert(0x00, returndatasize)\n    tag_122:\n      pop\n      pop\n      pop\n      pop\n      mload(0x40)\n      returndatasize\n      not(0x1f)\n      0x1f\n      dup3\n      add\n      and\n      dup3\n      add\n      dup1\n      0x40\n      mstore\n      pop\n      dup2\n      add\n      swap1\n      tag_123\n      swap2\n      swap1\n      tag_111\n      jump\t// in\n    tag_123:\n        /* \"contracts_new/Judgment.sol\":2859:2914  from = ITaskInfo(taskInfoContractAddress).getExecutor() */\n      swap1\n      pop\n        /* \"contracts_new/Judgment.sol\":2585:2926  if (msg.sender == ITaskInfo(taskInfoContractAddress).getCustomer()) {\r... */\n    tag_118:\n        /* \"contracts_new/Judgment.sol\":2941:2977  ArgumentAdded(from, block.timestamp) */\n      0xddd8b0b68b851797d2db498006cb2642afefe53623db382ff4994d443938da83\n        /* \"contracts_new/Judgment.sol\":2955:2959  from */\n      dup2\n        /* \"contracts_new/Judgment.sol\":2961:2976  block.timestamp */\n      timestamp\n        /* \"contracts_new/Judgment.sol\":2941:2977  ArgumentAdded(from, block.timestamp) */\n      mload(0x40)\n      tag_124\n      swap3\n      swap2\n      swap1\n      tag_101\n      jump\t// in\n    tag_124:\n      mload(0x40)\n      dup1\n      swap2\n      sub\n      swap1\n      log1\n        /* \"contracts_new/Judgment.sol\":2303:2985  {\r... */\n      pop\n      pop\n        /* \"contracts_new/Judgment.sol\":2201:2985  function addArgument(\r... */\n      pop\n      pop\n      jump\t// out\n        /* \"contracts_new/Judgment.sol\":1294:1413  function getExecutionContractAddress() public view returns (address) {\r... */\n    tag_47:\n        /* \"contracts_new/Judgment.sol\":1354:1361  address */\n      0x00\n        /* \"contracts_new/Judgment.sol\":1381:1405  executionContractAddress */\n      dup1\n      0x00\n      swap1\n      sload\n      swap1\n      0x0100\n      exp\n      swap1\n      div\n      0xffffffffffffffffffffffffffffffffffffffff\n      and\n        /* \"contracts_new/Judgment.sol\":1374:1405  return executionContractAddress */\n      swap1\n      pop\n        /* \"contracts_new/Judgment.sol\":1294:1413  function getExecutionContractAddress() public view returns (address) {\r... */\n      swap1\n      jump\t// out\n        /* \"contracts_new/Judgment.sol\":5150:5337  function checkIsContractShouldBeClosed() private view {\r... */\n    tag_63:\n        /* \"contracts_new/Judgment.sol\":5224:5236  rewardsPayed */\n      0x06\n      0x00\n      swap1\n      sload\n      swap1\n      0x0100\n      exp\n      swap1\n      div\n      0xff\n      and\n        /* \"contracts_new/Judgment.sol\":5223:5236  !rewardsPayed */\n      iszero\n        /* \"contracts_new/Judgment.sol\":5223:5274  !rewardsPayed && block.timestamp >= judgmentTimeEnd */\n      dup1\n      iszero\n      tag_127\n      jumpi\n      pop\n        /* \"contracts_new/Judgment.sol\":5259:5274  judgmentTimeEnd */\n      sload(0x05)\n        /* \"contracts_new/Judgment.sol\":5240:5255  block.timestamp */\n      timestamp\n        /* \"contracts_new/Judgment.sol\":5240:5274  block.timestamp >= judgmentTimeEnd */\n      lt\n      iszero\n        /* \"contracts_new/Judgment.sol\":5223:5274  !rewardsPayed && block.timestamp >= judgmentTimeEnd */\n    tag_127:\n        /* \"contracts_new/Judgment.sol\":5215:5282  require(!rewardsPayed && block.timestamp >= judgmentTimeEnd, \"0x8\") */\n      tag_128\n      jumpi\n      mload(0x40)\n      0x08c379a000000000000000000000000000000000000000000000000000000000\n      dup2\n      mstore\n      0x04\n      add\n      tag_129\n      swap1\n      tag_130\n      jump\t// in\n    tag_129:\n      mload(0x40)\n      dup1\n      swap2\n      sub\n      swap1\n      revert\n    tag_128:\n        /* \"contracts_new/Judgment.sol\":5150:5337  function checkIsContractShouldBeClosed() private view {\r... */\n      jump\t// out\n        /* \"contracts_new/Judgment.sol\":5345:5742  function countVotes() private view returns (uint, uint) {\r... */\n    tag_65:\n        /* \"contracts_new/Judgment.sol\":5389:5393  uint */\n      0x00\n        /* \"contracts_new/Judgment.sol\":5395:5399  uint */\n      dup1\n        /* \"contracts_new/Judgment.sol\":5412:5426  uint votes_for */\n      0x00\n        /* \"contracts_new/Judgment.sol\":5441:5459  uint votes_against */\n      dup1\n        /* \"contracts_new/Judgment.sol\":5481:5487  uint i */\n      0x00\n        /* \"contracts_new/Judgment.sol\":5476:5691  for (uint i = 0; i < judge_votes.length; ++i) {\r... */\n    tag_132:\n        /* \"contracts_new/Judgment.sol\":5497:5508  judge_votes */\n      0x04\n        /* \"contracts_new/Judgment.sol\":5497:5515  judge_votes.length */\n      dup1\n      sload\n      swap1\n      pop\n        /* \"contracts_new/Judgment.sol\":5493:5494  i */\n      dup2\n        /* \"contracts_new/Judgment.sol\":5493:5515  i < judge_votes.length */\n      lt\n        /* \"contracts_new/Judgment.sol\":5476:5691  for (uint i = 0; i < judge_votes.length; ++i) {\r... */\n      iszero\n      tag_133\n      jumpi\n        /* \"contracts_new/Judgment.sol\":5541:5552  judge_votes */\n      0x04\n        /* \"contracts_new/Judgment.sol\":5553:5554  i */\n      dup2\n        /* \"contracts_new/Judgment.sol\":5541:5555  judge_votes[i] */\n      dup2\n      sload\n      dup2\n      lt\n      tag_135\n      jumpi\n      tag_136\n      tag_137\n      jump\t// in\n    tag_136:\n    tag_135:\n      swap1\n      0x00\n      mstore\n      keccak256(0x00, 0x20)\n      swap1\n      0x04\n      mul\n      add\n        /* \"contracts_new/Judgment.sol\":5541:5563  judge_votes[i].verdict */\n      0x03\n      add\n      0x00\n      swap1\n      sload\n      swap1\n      0x0100\n      exp\n      swap1\n      div\n      0xff\n      and\n        /* \"contracts_new/Judgment.sol\":5537:5680  if (judge_votes[i].verdict) {\r... */\n      iszero\n      tag_139\n      jumpi\n        /* \"contracts_new/Judgment.sol\":5584:5595  ++votes_for */\n      dup3\n      tag_140\n      swap1\n      tag_141\n      jump\t// in\n    tag_140:\n      swap3\n      pop\n        /* \"contracts_new/Judgment.sol\":5537:5680  if (judge_votes[i].verdict) {\r... */\n      jump(tag_142)\n    tag_139:\n        /* \"contracts_new/Judgment.sol\":5649:5664  ++votes_against */\n      dup2\n      tag_143\n      swap1\n      tag_141\n      jump\t// in\n    tag_143:\n      swap2\n      pop\n        /* \"contracts_new/Judgment.sol\":5537:5680  if (judge_votes[i].verdict) {\r... */\n    tag_142:\n        /* \"contracts_new/Judgment.sol\":5517:5520  ++i */\n      dup1\n      tag_144\n      swap1\n      tag_141\n      jump\t// in\n    tag_144:\n      swap1\n      pop\n        /* \"contracts_new/Judgment.sol\":5476:5691  for (uint i = 0; i < judge_votes.length; ++i) {\r... */\n      jump(tag_132)\n    tag_133:\n      pop\n        /* \"contracts_new/Judgment.sol\":5709:5718  votes_for */\n      dup2\n        /* \"contracts_new/Judgment.sol\":5720:5733  votes_against */\n      dup2\n        /* \"contracts_new/Judgment.sol\":5701:5734  return (votes_for, votes_against) */\n      swap4\n      pop\n      swap4\n      pop\n      pop\n      pop\n        /* \"contracts_new/Judgment.sol\":5345:5742  function countVotes() private view returns (uint, uint) {\r... */\n      swap1\n      swap2\n      jump\t// out\n        /* \"contracts_new/Judgment.sol\":5750:6025  function payRewards(uint votes_for, uint votes_against) private {\r... */\n    tag_67:\n        /* \"contracts_new/Judgment.sol\":5825:5841  bool winner_vote */\n      0x00\n        /* \"contracts_new/Judgment.sol\":5844:5879  getWinner(votes_for, votes_against) */\n      tag_146\n        /* \"contracts_new/Judgment.sol\":5854:5863  votes_for */\n      dup4\n        /* \"contracts_new/Judgment.sol\":5865:5878  votes_against */\n      dup4\n        /* \"contracts_new/Judgment.sol\":5844:5853  getWinner */\n      tag_147\n        /* \"contracts_new/Judgment.sol\":5844:5879  getWinner(votes_for, votes_against) */\n      jump\t// in\n    tag_146:\n        /* \"contracts_new/Judgment.sol\":5825:5879  bool winner_vote = getWinner(votes_for, votes_against) */\n      swap1\n      pop\n        /* \"contracts_new/Judgment.sol\":5890:5920  payRewardToWinner(winner_vote) */\n      tag_148\n        /* \"contracts_new/Judgment.sol\":5908:5919  winner_vote */\n      dup2\n        /* \"contracts_new/Judgment.sol\":5890:5907  payRewardToWinner */\n      tag_149\n        /* \"contracts_new/Judgment.sol\":5890:5920  payRewardToWinner(winner_vote) */\n      jump\t// in\n    tag_148:\n        /* \"contracts_new/Judgment.sol\":5931:5985  payRewardByVote(votes_for, votes_against, winner_vote) */\n      tag_150\n        /* \"contracts_new/Judgment.sol\":5947:5956  votes_for */\n      dup4\n        /* \"contracts_new/Judgment.sol\":5958:5971  votes_against */\n      dup4\n        /* \"contracts_new/Judgment.sol\":5973:5984  winner_vote */\n      dup4\n        /* \"contracts_new/Judgment.sol\":5931:5946  payRewardByVote */\n      tag_151\n        /* \"contracts_new/Judgment.sol\":5931:5985  payRewardByVote(votes_for, votes_against, winner_vote) */\n      jump\t// in\n    tag_150:\n        /* \"contracts_new/Judgment.sol\":5996:6017  payBalanceToCompany() */\n      tag_152\n        /* \"contracts_new/Judgment.sol\":5996:6015  payBalanceToCompany */\n      tag_153\n        /* \"contracts_new/Judgment.sol\":5996:6017  payBalanceToCompany() */\n      jump\t// in\n    tag_152:\n        /* \"contracts_new/Judgment.sol\":5814:6025  {\r... */\n      pop\n        /* \"contracts_new/Judgment.sol\":5750:6025  function payRewards(uint votes_for, uint votes_against) private {\r... */\n      pop\n      pop\n      jump\t// out\n        /* \"contracts_new/Judgment.sol\":4707:4875  function checkIsContractNotClosed() private view {\r... */\n    tag_75:\n        /* \"contracts_new/Judgment.sol\":4776:4788  rewardsPayed */\n      0x06\n      0x00\n      swap1\n      sload\n      swap1\n      0x0100\n      exp\n      swap1\n      div\n      0xff\n      and\n        /* \"contracts_new/Judgment.sol\":4775:4788  !rewardsPayed */\n      iszero\n        /* \"contracts_new/Judgment.sol\":4775:4825  !rewardsPayed && block.timestamp < judgmentTimeEnd */\n      dup1\n      iszero\n      tag_155\n      jumpi\n      pop\n        /* \"contracts_new/Judgment.sol\":4810:4825  judgmentTimeEnd */\n      sload(0x05)\n        /* \"contracts_new/Judgment.sol\":4792:4807  block.timestamp */\n      timestamp\n        /* \"contracts_new/Judgment.sol\":4792:4825  block.timestamp < judgmentTimeEnd */\n      lt\n        /* \"contracts_new/Judgment.sol\":4775:4825  !rewardsPayed && block.timestamp < judgmentTimeEnd */\n    tag_155:\n        /* \"contracts_new/Judgment.sol\":4767:4833  require(!rewardsPayed && block.timestamp < judgmentTimeEnd, \"0x7\") */\n      tag_156\n      jumpi\n      mload(0x40)\n      0x08c379a000000000000000000000000000000000000000000000000000000000\n      dup2\n      mstore\n      0x04\n      add\n      tag_157\n      swap1\n      tag_158\n      jump\t// in\n    tag_157:\n      mload(0x40)\n      dup1\n      swap2\n      sub\n      swap1\n      revert\n    tag_156:\n        /* \"contracts_new/Judgment.sol\":4707:4875  function checkIsContractNotClosed() private view {\r... */\n      jump\t// out\n        /* \"contracts_new/Judgment.sol\":4192:4699  function checkCanSenderVote(address sender) private view {\r... */\n    tag_77:\n        /* \"contracts_new/Judgment.sol\":4288:4311  taskInfoContractAddress */\n      0x01\n      0x00\n      swap1\n      sload\n      swap1\n      0x0100\n      exp\n      swap1\n      div\n      0xffffffffffffffffffffffffffffffffffffffff\n      and\n        /* \"contracts_new/Judgment.sol\":4278:4324  ITaskInfo(taskInfoContractAddress).getCustomer */\n      0xffffffffffffffffffffffffffffffffffffffff\n      and\n      0x650d993b\n        /* \"contracts_new/Judgment.sol\":4278:4326  ITaskInfo(taskInfoContractAddress).getCustomer() */\n      mload(0x40)\n      dup2\n      0xffffffff\n      and\n      0xe0\n      shl\n      dup2\n      mstore\n      0x04\n      add\n      0x20\n      mload(0x40)\n      dup1\n      dup4\n      sub\n      dup2\n      dup7\n      dup1\n      extcodesize\n      iszero\n      dup1\n      iszero\n      tag_160\n      jumpi\n      0x00\n      dup1\n      revert\n    tag_160:\n      pop\n      gas\n      staticcall\n      iszero\n      dup1\n      iszero\n      tag_162\n      jumpi\n      returndatasize\n      0x00\n      dup1\n      returndatacopy\n      revert(0x00, returndatasize)\n    tag_162:\n      pop\n      pop\n      pop\n      pop\n      mload(0x40)\n      returndatasize\n      not(0x1f)\n      0x1f\n      dup3\n      add\n      and\n      dup3\n      add\n      dup1\n      0x40\n      mstore\n      pop\n      dup2\n      add\n      swap1\n      tag_163\n      swap2\n      swap1\n      tag_111\n      jump\t// in\n    tag_163:\n        /* \"contracts_new/Judgment.sol\":4268:4326  sender != ITaskInfo(taskInfoContractAddress).getCustomer() */\n      0xffffffffffffffffffffffffffffffffffffffff\n      and\n        /* \"contracts_new/Judgment.sol\":4268:4274  sender */\n      dup2\n        /* \"contracts_new/Judgment.sol\":4268:4326  sender != ITaskInfo(taskInfoContractAddress).getCustomer() */\n      0xffffffffffffffffffffffffffffffffffffffff\n      and\n      eq\n      iszero\n        /* \"contracts_new/Judgment.sol\":4268:4401  sender != ITaskInfo(taskInfoContractAddress).getCustomer() &&\r... */\n      dup1\n      iszero\n      tag_164\n      jumpi\n      pop\n        /* \"contracts_new/Judgment.sol\":4363:4386  taskInfoContractAddress */\n      0x01\n      0x00\n      swap1\n      sload\n      swap1\n      0x0100\n      exp\n      swap1\n      div\n      0xffffffffffffffffffffffffffffffffffffffff\n      and\n        /* \"contracts_new/Judgment.sol\":4353:4399  ITaskInfo(taskInfoContractAddress).getExecutor */\n      0xffffffffffffffffffffffffffffffffffffffff\n      and\n      0x6c1032af\n        /* \"contracts_new/Judgment.sol\":4353:4401  ITaskInfo(taskInfoContractAddress).getExecutor() */\n      mload(0x40)\n      dup2\n      0xffffffff\n      and\n      0xe0\n      shl\n      dup2\n      mstore\n      0x04\n      add\n      0x20\n      mload(0x40)\n      dup1\n      dup4\n      sub\n      dup2\n      dup7\n      dup1\n      extcodesize\n      iszero\n      dup1\n      iszero\n      tag_165\n      jumpi\n      0x00\n      dup1\n      revert\n    tag_165:\n      pop\n      gas\n      staticcall\n      iszero\n      dup1\n      iszero\n      tag_167\n      jumpi\n      returndatasize\n      0x00\n      dup1\n      returndatacopy\n      revert(0x00, returndatasize)\n    tag_167:\n      pop\n      pop\n      pop\n      pop\n      mload(0x40)\n      returndatasize\n      not(0x1f)\n      0x1f\n      dup3\n      add\n      and\n      dup3\n      add\n      dup1\n      0x40\n      mstore\n      pop\n      dup2\n      add\n      swap1\n      tag_168\n      swap2\n      swap1\n      tag_111\n      jump\t// in\n    tag_168:\n        /* \"contracts_new/Judgment.sol\":4343:4401  sender != ITaskInfo(taskInfoContractAddress).getExecutor() */\n      0xffffffffffffffffffffffffffffffffffffffff\n      and\n        /* \"contracts_new/Judgment.sol\":4343:4349  sender */\n      dup2\n        /* \"contracts_new/Judgment.sol\":4343:4401  sender != ITaskInfo(taskInfoContractAddress).getExecutor() */\n      0xffffffffffffffffffffffffffffffffffffffff\n      and\n      eq\n      iszero\n        /* \"contracts_new/Judgment.sol\":4268:4401  sender != ITaskInfo(taskInfoContractAddress).getCustomer() &&\r... */\n    tag_164:\n        /* \"contracts_new/Judgment.sol\":4260:4466  require(sender != ITaskInfo(taskInfoContractAddress).getCustomer() &&\r... */\n      tag_169\n      jumpi\n      mload(0x40)\n      0x08c379a000000000000000000000000000000000000000000000000000000000\n      dup2\n      mstore\n      0x04\n      add\n      tag_170\n      swap1\n      tag_171\n      jump\t// in\n    tag_170:\n      mload(0x40)\n      dup1\n      swap2\n      sub\n      swap1\n      revert\n    tag_169:\n        /* \"contracts_new/Judgment.sol\":4484:4490  uint i */\n      0x00\n        /* \"contracts_new/Judgment.sol\":4479:4692  for (uint i = 0; i < judge_votes.length; ++i) {\r... */\n    tag_172:\n        /* \"contracts_new/Judgment.sol\":4500:4511  judge_votes */\n      0x04\n        /* \"contracts_new/Judgment.sol\":4500:4518  judge_votes.length */\n      dup1\n      sload\n      swap1\n      pop\n        /* \"contracts_new/Judgment.sol\":4496:4497  i */\n      dup2\n        /* \"contracts_new/Judgment.sol\":4496:4518  i < judge_votes.length */\n      lt\n        /* \"contracts_new/Judgment.sol\":4479:4692  for (uint i = 0; i < judge_votes.length; ++i) {\r... */\n      iszero\n      tag_173\n      jumpi\n        /* \"contracts_new/Judgment.sol\":4575:4581  sender */\n      dup2\n        /* \"contracts_new/Judgment.sol\":4544:4581  judge_votes[i].judgeAddress == sender */\n      0xffffffffffffffffffffffffffffffffffffffff\n      and\n        /* \"contracts_new/Judgment.sol\":4544:4555  judge_votes */\n      0x04\n        /* \"contracts_new/Judgment.sol\":4556:4557  i */\n      dup3\n        /* \"contracts_new/Judgment.sol\":4544:4558  judge_votes[i] */\n      dup2\n      sload\n      dup2\n      lt\n      tag_175\n      jumpi\n      tag_176\n      tag_137\n      jump\t// in\n    tag_176:\n    tag_175:\n      swap1\n      0x00\n      mstore\n      keccak256(0x00, 0x20)\n      swap1\n      0x04\n      mul\n      add\n        /* \"contracts_new/Judgment.sol\":4544:4571  judge_votes[i].judgeAddress */\n      0x03\n      add\n      0x01\n      swap1\n      sload\n      swap1\n      0x0100\n      exp\n      swap1\n      div\n      0xffffffffffffffffffffffffffffffffffffffff\n      and\n        /* \"contracts_new/Judgment.sol\":4544:4581  judge_votes[i].judgeAddress == sender */\n      0xffffffffffffffffffffffffffffffffffffffff\n      and\n      eq\n        /* \"contracts_new/Judgment.sol\":4540:4681  if (judge_votes[i].judgeAddress == sender) {\r... */\n      iszero\n      tag_178\n      jumpi\n        /* \"contracts_new/Judgment.sol\":4652:4665  revert(\"0x6\") */\n      mload(0x40)\n      0x08c379a000000000000000000000000000000000000000000000000000000000\n      dup2\n      mstore\n      0x04\n      add\n      tag_179\n      swap1\n      tag_180\n      jump\t// in\n    tag_179:\n      mload(0x40)\n      dup1\n      swap2\n      sub\n      swap1\n      revert\n        /* \"contracts_new/Judgment.sol\":4540:4681  if (judge_votes[i].judgeAddress == sender) {\r... */\n    tag_178:\n        /* \"contracts_new/Judgment.sol\":4520:4523  ++i */\n      dup1\n      tag_181\n      swap1\n      tag_141\n      jump\t// in\n    tag_181:\n      swap1\n      pop\n        /* \"contracts_new/Judgment.sol\":4479:4692  for (uint i = 0; i < judge_votes.length; ++i) {\r... */\n      jump(tag_172)\n    tag_173:\n      pop\n        /* \"contracts_new/Judgment.sol\":4192:4699  function checkCanSenderVote(address sender) private view {\r... */\n      pop\n      jump\t// out\n        /* \"contracts_new/Judgment.sol\":2993:3300  function checkCanSenderAddArguments(address sender) private view {\r... */\n    tag_106:\n        /* \"contracts_new/Judgment.sol\":3097:3120  taskInfoContractAddress */\n      0x01\n      0x00\n      swap1\n      sload\n      swap1\n      0x0100\n      exp\n      swap1\n      div\n      0xffffffffffffffffffffffffffffffffffffffff\n      and\n        /* \"contracts_new/Judgment.sol\":3087:3133  ITaskInfo(taskInfoContractAddress).getCustomer */\n      0xffffffffffffffffffffffffffffffffffffffff\n      and\n      0x650d993b\n        /* \"contracts_new/Judgment.sol\":3087:3135  ITaskInfo(taskInfoContractAddress).getCustomer() */\n      mload(0x40)\n      dup2\n      0xffffffff\n      and\n      0xe0\n      shl\n      dup2\n      mstore\n      0x04\n      add\n      0x20\n      mload(0x40)\n      dup1\n      dup4\n      sub\n      dup2\n      dup7\n      dup1\n      extcodesize\n      iszero\n      dup1\n      iszero\n      tag_183\n      jumpi\n      0x00\n      dup1\n      revert\n    tag_183:\n      pop\n      gas\n      staticcall\n      iszero\n      dup1\n      iszero\n      tag_185\n      jumpi\n      returndatasize\n      0x00\n      dup1\n      returndatacopy\n      revert(0x00, returndatasize)\n    tag_185:\n      pop\n      pop\n      pop\n      pop\n      mload(0x40)\n      returndatasize\n      not(0x1f)\n      0x1f\n      dup3\n      add\n      and\n      dup3\n      add\n      dup1\n      0x40\n      mstore\n      pop\n      dup2\n      add\n      swap1\n      tag_186\n      swap2\n      swap1\n      tag_111\n      jump\t// in\n    tag_186:\n        /* \"contracts_new/Judgment.sol\":3077:3135  sender == ITaskInfo(taskInfoContractAddress).getCustomer() */\n      0xffffffffffffffffffffffffffffffffffffffff\n      and\n        /* \"contracts_new/Judgment.sol\":3077:3083  sender */\n      dup2\n        /* \"contracts_new/Judgment.sol\":3077:3135  sender == ITaskInfo(taskInfoContractAddress).getCustomer() */\n      0xffffffffffffffffffffffffffffffffffffffff\n      and\n      eq\n        /* \"contracts_new/Judgment.sol\":3077:3210  sender == ITaskInfo(taskInfoContractAddress).getCustomer() ||\r... */\n      dup1\n      tag_187\n      jumpi\n      pop\n        /* \"contracts_new/Judgment.sol\":3172:3195  taskInfoContractAddress */\n      0x01\n      0x00\n      swap1\n      sload\n      swap1\n      0x0100\n      exp\n      swap1\n      div\n      0xffffffffffffffffffffffffffffffffffffffff\n      and\n        /* \"contracts_new/Judgment.sol\":3162:3208  ITaskInfo(taskInfoContractAddress).getExecutor */\n      0xffffffffffffffffffffffffffffffffffffffff\n      and\n      0x6c1032af\n        /* \"contracts_new/Judgment.sol\":3162:3210  ITaskInfo(taskInfoContractAddress).getExecutor() */\n      mload(0x40)\n      dup2\n      0xffffffff\n      and\n      0xe0\n      shl\n      dup2\n      mstore\n      0x04\n      add\n      0x20\n      mload(0x40)\n      dup1\n      dup4\n      sub\n      dup2\n      dup7\n      dup1\n      extcodesize\n      iszero\n      dup1\n      iszero\n      tag_188\n      jumpi\n      0x00\n      dup1\n      revert\n    tag_188:\n      pop\n      gas\n      staticcall\n      iszero\n      dup1\n      iszero\n      tag_190\n      jumpi\n      returndatasize\n      0x00\n      dup1\n      returndatacopy\n      revert(0x00, returndatasize)\n    tag_190:\n      pop\n      pop\n      pop\n      pop\n      mload(0x40)\n      returndatasize\n      not(0x1f)\n      0x1f\n      dup3\n      add\n      and\n      dup3\n      add\n      dup1\n      0x40\n      mstore\n      pop\n      dup2\n      add\n      swap1\n      tag_191\n      swap2\n      swap1\n      tag_111\n      jump\t// in\n    tag_191:\n        /* \"contracts_new/Judgment.sol\":3152:3210  sender == ITaskInfo(taskInfoContractAddress).getExecutor() */\n      0xffffffffffffffffffffffffffffffffffffffff\n      and\n        /* \"contracts_new/Judgment.sol\":3152:3158  sender */\n      dup2\n        /* \"contracts_new/Judgment.sol\":3152:3210  sender == ITaskInfo(taskInfoContractAddress).getExecutor() */\n      0xffffffffffffffffffffffffffffffffffffffff\n      and\n      eq\n        /* \"contracts_new/Judgment.sol\":3077:3210  sender == ITaskInfo(taskInfoContractAddress).getCustomer() ||\r... */\n    tag_187:\n        /* \"contracts_new/Judgment.sol\":3069:3292  require(sender == ITaskInfo(taskInfoContractAddress).getCustomer() ||\r... */\n      tag_192\n      jumpi\n      mload(0x40)\n      0x08c379a000000000000000000000000000000000000000000000000000000000\n      dup2\n      mstore\n      0x04\n      add\n      tag_193\n      swap1\n      tag_194\n      jump\t// in\n    tag_193:\n      mload(0x40)\n      dup1\n      swap2\n      sub\n      swap1\n      revert\n    tag_192:\n        /* \"contracts_new/Judgment.sol\":2993:3300  function checkCanSenderAddArguments(address sender) private view {\r... */\n      pop\n      jump\t// out\n        /* \"contracts_new/Judgment.sol\":6033:6635  function getWinner(uint votes_for, uint votes_against) private pure returns (bool) {\r... */\n    tag_147:\n        /* \"contracts_new/Judgment.sol\":6110:6114  bool */\n      0x00\n        /* \"contracts_new/Judgment.sol\":6502:6511  votes_for */\n      dup3\n        /* \"contracts_new/Judgment.sol\":6485:6498  votes_against */\n      dup3\n        /* \"contracts_new/Judgment.sol\":6485:6511  votes_against >= votes_for */\n      lt\n        /* \"contracts_new/Judgment.sol\":6481:6606  if (votes_against >= votes_for) {\r... */\n      tag_196\n      jumpi\n        /* \"contracts_new/Judgment.sol\":6535:6540  false */\n      0x00\n        /* \"contracts_new/Judgment.sol\":6528:6540  return false */\n      swap1\n      pop\n      jump(tag_195)\n        /* \"contracts_new/Judgment.sol\":6481:6606  if (votes_against >= votes_for) {\r... */\n    tag_196:\n        /* \"contracts_new/Judgment.sol\":6623:6627  true */\n      0x01\n        /* \"contracts_new/Judgment.sol\":6616:6627  return true */\n      swap1\n      pop\n        /* \"contracts_new/Judgment.sol\":6033:6635  function getWinner(uint votes_for, uint votes_against) private pure returns (bool) {\r... */\n    tag_195:\n      swap3\n      swap2\n      pop\n      pop\n      jump\t// out\n        /* \"contracts_new/Judgment.sol\":6643:7089  function payRewardToWinner(bool winner_vote) private {\r... */\n    tag_149:\n        /* \"contracts_new/Judgment.sol\":6707:6729  address winner_address */\n      0x00\n        /* \"contracts_new/Judgment.sol\":6744:6755  winner_vote */\n      dup2\n        /* \"contracts_new/Judgment.sol\":6740:6956  if (winner_vote) {\r... */\n      iszero\n      tag_198\n      jumpi\n        /* \"contracts_new/Judgment.sol\":6799:6822  taskInfoContractAddress */\n      0x01\n      0x00\n      swap1\n      sload\n      swap1\n      0x0100\n      exp\n      swap1\n      div\n      0xffffffffffffffffffffffffffffffffffffffff\n      and\n        /* \"contracts_new/Judgment.sol\":6789:6835  ITaskInfo(taskInfoContractAddress).getCustomer */\n      0xffffffffffffffffffffffffffffffffffffffff\n      and\n      0x650d993b\n        /* \"contracts_new/Judgment.sol\":6789:6837  ITaskInfo(taskInfoContractAddress).getCustomer() */\n      mload(0x40)\n      dup2\n      0xffffffff\n      and\n      0xe0\n      shl\n      dup2\n      mstore\n      0x04\n      add\n      0x20\n      mload(0x40)\n      dup1\n      dup4\n      sub\n      dup2\n      dup7\n      dup1\n      extcodesize\n      iszero\n      dup1\n      iszero\n      tag_199\n      jumpi\n      0x00\n      dup1\n      revert\n    tag_199:\n      pop\n      gas\n      staticcall\n      iszero\n      dup1\n      iszero\n      tag_201\n      jumpi\n      returndatasize\n      0x00\n      dup1\n      returndatacopy\n      revert(0x00, returndatasize)\n    tag_201:\n      pop\n      pop\n      pop\n      pop\n      mload(0x40)\n      returndatasize\n      not(0x1f)\n      0x1f\n      dup3\n      add\n      and\n      dup3\n      add\n      dup1\n      0x40\n      mstore\n      pop\n      dup2\n      add\n      swap1\n      tag_202\n      swap2\n      swap1\n      tag_111\n      jump\t// in\n    tag_202:\n        /* \"contracts_new/Judgment.sol\":6772:6837  winner_address = ITaskInfo(taskInfoContractAddress).getCustomer() */\n      swap1\n      pop\n        /* \"contracts_new/Judgment.sol\":6740:6956  if (winner_vote) {\r... */\n      jump(tag_203)\n    tag_198:\n        /* \"contracts_new/Judgment.sol\":6906:6929  taskInfoContractAddress */\n      0x01\n      0x00\n      swap1\n      sload\n      swap1\n      0x0100\n      exp\n      swap1\n      div\n      0xffffffffffffffffffffffffffffffffffffffff\n      and\n        /* \"contracts_new/Judgment.sol\":6896:6942  ITaskInfo(taskInfoContractAddress).getExecutor */\n      0xffffffffffffffffffffffffffffffffffffffff\n      and\n      0x6c1032af\n        /* \"contracts_new/Judgment.sol\":6896:6944  ITaskInfo(taskInfoContractAddress).getExecutor() */\n      mload(0x40)\n      dup2\n      0xffffffff\n      and\n      0xe0\n      shl\n      dup2\n      mstore\n      0x04\n      add\n      0x20\n      mload(0x40)\n      dup1\n      dup4\n      sub\n      dup2\n      dup7\n      dup1\n      extcodesize\n      iszero\n      dup1\n      iszero\n      tag_204\n      jumpi\n      0x00\n      dup1\n      revert\n    tag_204:\n      pop\n      gas\n      staticcall\n      iszero\n      dup1\n      iszero\n      tag_206\n      jumpi\n      returndatasize\n      0x00\n      dup1\n      returndatacopy\n      revert(0x00, returndatasize)\n    tag_206:\n      pop\n      pop\n      pop\n      pop\n      mload(0x40)\n      returndatasize\n      not(0x1f)\n      0x1f\n      dup3\n      add\n      and\n      dup3\n      add\n      dup1\n      0x40\n      mstore\n      pop\n      dup2\n      add\n      swap1\n      tag_207\n      swap2\n      swap1\n      tag_111\n      jump\t// in\n    tag_207:\n        /* \"contracts_new/Judgment.sol\":6879:6944  winner_address = ITaskInfo(taskInfoContractAddress).getExecutor() */\n      swap1\n      pop\n        /* \"contracts_new/Judgment.sol\":6740:6956  if (winner_vote) {\r... */\n    tag_203:\n        /* \"contracts_new/Judgment.sol\":6966:6979  uint256 price */\n      0x00\n        /* \"contracts_new/Judgment.sol\":6992:7015  taskInfoContractAddress */\n      0x01\n      0x00\n      swap1\n      sload\n      swap1\n      0x0100\n      exp\n      swap1\n      div\n      0xffffffffffffffffffffffffffffffffffffffff\n      and\n        /* \"contracts_new/Judgment.sol\":6982:7025  ITaskInfo(taskInfoContractAddress).getPrice */\n      0xffffffffffffffffffffffffffffffffffffffff\n      and\n      0x98d5fdca\n        /* \"contracts_new/Judgment.sol\":6982:7027  ITaskInfo(taskInfoContractAddress).getPrice() */\n      mload(0x40)\n      dup2\n      0xffffffff\n      and\n      0xe0\n      shl\n      dup2\n      mstore\n      0x04\n      add\n      0x20\n      mload(0x40)\n      dup1\n      dup4\n      sub\n      dup2\n      dup7\n      dup1\n      extcodesize\n      iszero\n      dup1\n      iszero\n      tag_208\n      jumpi\n      0x00\n      dup1\n      revert\n    tag_208:\n      pop\n      gas\n      staticcall\n      iszero\n      dup1\n      iszero\n      tag_210\n      jumpi\n      returndatasize\n      0x00\n      dup1\n      returndatacopy\n      revert(0x00, returndatasize)\n    tag_210:\n      pop\n      pop\n      pop\n      pop\n      mload(0x40)\n      returndatasize\n      not(0x1f)\n      0x1f\n      dup3\n      add\n      and\n      dup3\n      add\n      dup1\n      0x40\n      mstore\n      pop\n      dup2\n      add\n      swap1\n      tag_211\n      swap2\n      swap1\n      tag_82\n      jump\t// in\n    tag_211:\n        /* \"contracts_new/Judgment.sol\":6966:7027  uint256 price = ITaskInfo(taskInfoContractAddress).getPrice() */\n      swap1\n      pop\n        /* \"contracts_new/utils.sol\":189:190  0 */\n      0x00\n        /* \"contracts_new/Judgment.sol\":7038:7058  utils.TOKEN.transfer */\n      0xffffffffffffffffffffffffffffffffffffffff\n      and\n      0xa9059cbb\n        /* \"contracts_new/Judgment.sol\":7059:7073  winner_address */\n      dup4\n        /* \"contracts_new/Judgment.sol\":7075:7080  price */\n      dup4\n        /* \"contracts_new/Judgment.sol\":7038:7081  utils.TOKEN.transfer(winner_address, price) */\n      mload(0x40)\n      dup4\n      0xffffffff\n      and\n      0xe0\n      shl\n      dup2\n      mstore\n      0x04\n      add\n      tag_212\n      swap3\n      swap2\n      swap1\n      tag_101\n      jump\t// in\n    tag_212:\n      0x20\n      mload(0x40)\n      dup1\n      dup4\n      sub\n      dup2\n      0x00\n      dup8\n      dup1\n      extcodesize\n      iszero\n      dup1\n      iszero\n      tag_213\n      jumpi\n      0x00\n      dup1\n      revert\n    tag_213:\n      pop\n      gas\n      call\n      iszero\n      dup1\n      iszero\n      tag_215\n      jumpi\n      returndatasize\n      0x00\n      dup1\n      returndatacopy\n      revert(0x00, returndatasize)\n    tag_215:\n      pop\n      pop\n      pop\n      pop\n      mload(0x40)\n      returndatasize\n      not(0x1f)\n      0x1f\n      dup3\n      add\n      and\n      dup3\n      add\n      dup1\n      0x40\n      mstore\n      pop\n      dup2\n      add\n      swap1\n      tag_216\n      swap2\n      swap1\n      tag_98\n      jump\t// in\n    tag_216:\n      pop\n        /* \"contracts_new/Judgment.sol\":6696:7089  {\r... */\n      pop\n      pop\n        /* \"contracts_new/Judgment.sol\":6643:7089  function payRewardToWinner(bool winner_vote) private {\r... */\n      pop\n      jump\t// out\n        /* \"contracts_new/Judgment.sol\":7097:8156  function payRewardByVote(uint votes_for, uint votes_against, bool winner_vote) private {\r... */\n    tag_151:\n        /* \"contracts_new/Judgment.sol\":7843:7863  uint256 judge_reward */\n      0x00\n        /* \"contracts_new/Judgment.sol\":7866:7925  calculateJudgeReward(votes_for, votes_against, winner_vote) */\n      tag_218\n        /* \"contracts_new/Judgment.sol\":7887:7896  votes_for */\n      dup5\n        /* \"contracts_new/Judgment.sol\":7898:7911  votes_against */\n      dup5\n        /* \"contracts_new/Judgment.sol\":7913:7924  winner_vote */\n      dup5\n        /* \"contracts_new/Judgment.sol\":7866:7886  calculateJudgeReward */\n      tag_219\n        /* \"contracts_new/Judgment.sol\":7866:7925  calculateJudgeReward(votes_for, votes_against, winner_vote) */\n      jump\t// in\n    tag_218:\n        /* \"contracts_new/Judgment.sol\":7843:7925  uint256 judge_reward = calculateJudgeReward(votes_for, votes_against, winner_vote) */\n      swap1\n      pop\n        /* \"contracts_new/Judgment.sol\":7941:7947  uint i */\n      0x00\n        /* \"contracts_new/Judgment.sol\":7936:8149  for (uint i = 0; i < judge_votes.length; ++i) {\r... */\n    tag_220:\n        /* \"contracts_new/Judgment.sol\":7957:7968  judge_votes */\n      0x04\n        /* \"contracts_new/Judgment.sol\":7957:7975  judge_votes.length */\n      dup1\n      sload\n      swap1\n      pop\n        /* \"contracts_new/Judgment.sol\":7953:7954  i */\n      dup2\n        /* \"contracts_new/Judgment.sol\":7953:7975  i < judge_votes.length */\n      lt\n        /* \"contracts_new/Judgment.sol\":7936:8149  for (uint i = 0; i < judge_votes.length; ++i) {\r... */\n      iszero\n      tag_221\n      jumpi\n        /* \"contracts_new/Judgment.sol\":8027:8038  winner_vote */\n      dup3\n        /* \"contracts_new/Judgment.sol\":8001:8038  judge_votes[i].verdict == winner_vote */\n      iszero\n      iszero\n        /* \"contracts_new/Judgment.sol\":8001:8012  judge_votes */\n      0x04\n        /* \"contracts_new/Judgment.sol\":8013:8014  i */\n      dup3\n        /* \"contracts_new/Judgment.sol\":8001:8015  judge_votes[i] */\n      dup2\n      sload\n      dup2\n      lt\n      tag_223\n      jumpi\n      tag_224\n      tag_137\n      jump\t// in\n    tag_224:\n    tag_223:\n      swap1\n      0x00\n      mstore\n      keccak256(0x00, 0x20)\n      swap1\n      0x04\n      mul\n      add\n        /* \"contracts_new/Judgment.sol\":8001:8023  judge_votes[i].verdict */\n      0x03\n      add\n      0x00\n      swap1\n      sload\n      swap1\n      0x0100\n      exp\n      swap1\n      div\n      0xff\n      and\n        /* \"contracts_new/Judgment.sol\":8001:8038  judge_votes[i].verdict == winner_vote */\n      iszero\n      iszero\n      eq\n        /* \"contracts_new/Judgment.sol\":7997:8138  if (judge_votes[i].verdict == winner_vote) {\r... */\n      iszero\n      tag_226\n      jumpi\n        /* \"contracts_new/utils.sol\":189:190  0 */\n      0x00\n        /* \"contracts_new/Judgment.sol\":8059:8079  utils.TOKEN.transfer */\n      0xffffffffffffffffffffffffffffffffffffffff\n      and\n      0xa9059cbb\n        /* \"contracts_new/Judgment.sol\":8080:8091  judge_votes */\n      0x04\n        /* \"contracts_new/Judgment.sol\":8092:8093  i */\n      dup4\n        /* \"contracts_new/Judgment.sol\":8080:8094  judge_votes[i] */\n      dup2\n      sload\n      dup2\n      lt\n      tag_227\n      jumpi\n      tag_228\n      tag_137\n      jump\t// in\n    tag_228:\n    tag_227:\n      swap1\n      0x00\n      mstore\n      keccak256(0x00, 0x20)\n      swap1\n      0x04\n      mul\n      add\n        /* \"contracts_new/Judgment.sol\":8080:8107  judge_votes[i].judgeAddress */\n      0x03\n      add\n      0x01\n      swap1\n      sload\n      swap1\n      0x0100\n      exp\n      swap1\n      div\n      0xffffffffffffffffffffffffffffffffffffffff\n      and\n        /* \"contracts_new/Judgment.sol\":8109:8121  judge_reward */\n      dup5\n        /* \"contracts_new/Judgment.sol\":8059:8122  utils.TOKEN.transfer(judge_votes[i].judgeAddress, judge_reward) */\n      mload(0x40)\n      dup4\n      0xffffffff\n      and\n      0xe0\n      shl\n      dup2\n      mstore\n      0x04\n      add\n      tag_230\n      swap3\n      swap2\n      swap1\n      tag_101\n      jump\t// in\n    tag_230:\n      0x20\n      mload(0x40)\n      dup1\n      dup4\n      sub\n      dup2\n      0x00\n      dup8\n      dup1\n      extcodesize\n      iszero\n      dup1\n      iszero\n      tag_231\n      jumpi\n      0x00\n      dup1\n      revert\n    tag_231:\n      pop\n      gas\n      call\n      iszero\n      dup1\n      iszero\n      tag_233\n      jumpi\n      returndatasize\n      0x00\n      dup1\n      returndatacopy\n      revert(0x00, returndatasize)\n    tag_233:\n      pop\n      pop\n      pop\n      pop\n      mload(0x40)\n      returndatasize\n      not(0x1f)\n      0x1f\n      dup3\n      add\n      and\n      dup3\n      add\n      dup1\n      0x40\n      mstore\n      pop\n      dup2\n      add\n      swap1\n      tag_234\n      swap2\n      swap1\n      tag_98\n      jump\t// in\n    tag_234:\n      pop\n        /* \"contracts_new/Judgment.sol\":7997:8138  if (judge_votes[i].verdict == winner_vote) {\r... */\n    tag_226:\n        /* \"contracts_new/Judgment.sol\":7977:7980  ++i */\n      dup1\n      tag_235\n      swap1\n      tag_141\n      jump\t// in\n    tag_235:\n      swap1\n      pop\n        /* \"contracts_new/Judgment.sol\":7936:8149  for (uint i = 0; i < judge_votes.length; ++i) {\r... */\n      jump(tag_220)\n    tag_221:\n      pop\n        /* \"contracts_new/Judgment.sol\":7184:8156  {\r... */\n      pop\n        /* \"contracts_new/Judgment.sol\":7097:8156  function payRewardByVote(uint votes_for, uint votes_against, bool winner_vote) private {\r... */\n      pop\n      pop\n      pop\n      jump\t// out\n        /* \"contracts_new/Judgment.sol\":9666:10189  function payBalanceToCompany() private {\r... */\n    tag_153:\n        /* \"contracts_new/Judgment.sol\":10008:10027  uint256 all_balance */\n      0x00\n        /* \"contracts_new/utils.sol\":189:190  0 */\n      dup1\n        /* \"contracts_new/Judgment.sol\":10030:10051  utils.TOKEN.balanceOf */\n      0xffffffffffffffffffffffffffffffffffffffff\n      and\n      0x70a08231\n        /* \"contracts_new/Judgment.sol\":10060:10064  this */\n      address\n        /* \"contracts_new/Judgment.sol\":10030:10066  utils.TOKEN.balanceOf(address(this)) */\n      mload(0x40)\n      dup3\n      0xffffffff\n      and\n      0xe0\n      shl\n      dup2\n      mstore\n      0x04\n      add\n      tag_237\n      swap2\n      swap1\n      tag_21\n      jump\t// in\n    tag_237:\n      0x20\n      mload(0x40)\n      dup1\n      dup4\n      sub\n      dup2\n      dup7\n      dup1\n      extcodesize\n      iszero\n      dup1\n      iszero\n      tag_238\n      jumpi\n      0x00\n      dup1\n      revert\n    tag_238:\n      pop\n      gas\n      staticcall\n      iszero\n      dup1\n      iszero\n      tag_240\n      jumpi\n      returndatasize\n      0x00\n      dup1\n      returndatacopy\n      revert(0x00, returndatasize)\n    tag_240:\n      pop\n      pop\n      pop\n      pop\n      mload(0x40)\n      returndatasize\n      not(0x1f)\n      0x1f\n      dup3\n      add\n      and\n      dup3\n      add\n      dup1\n      0x40\n      mstore\n      pop\n      dup2\n      add\n      swap1\n      tag_241\n      swap2\n      swap1\n      tag_82\n      jump\t// in\n    tag_241:\n        /* \"contracts_new/Judgment.sol\":10008:10066  uint256 all_balance = utils.TOKEN.balanceOf(address(this)) */\n      swap1\n      pop\n        /* \"contracts_new/Judgment.sol\":10096:10097  0 */\n      0x00\n        /* \"contracts_new/Judgment.sol\":10081:10092  all_balance */\n      dup2\n        /* \"contracts_new/Judgment.sol\":10081:10097  all_balance != 0 */\n      eq\n        /* \"contracts_new/Judgment.sol\":10077:10182  if (all_balance != 0) {\r... */\n      tag_242\n      jumpi\n        /* \"contracts_new/utils.sol\":189:190  0 */\n      0x00\n        /* \"contracts_new/Judgment.sol\":10114:10134  utils.TOKEN.transfer */\n      0xffffffffffffffffffffffffffffffffffffffff\n      and\n      0xa9059cbb\n        /* \"contracts_new/utils.sol\":249:291  0x604e7E66c0C2897325375dC85Aa7686e432236a1 */\n      0x604e7e66c0c2897325375dc85aa7686e432236a1\n        /* \"contracts_new/Judgment.sol\":10158:10169  all_balance */\n      dup4\n        /* \"contracts_new/Judgment.sol\":10114:10170  utils.TOKEN.transfer(utils.COMPANY_ADDRESS, all_balance) */\n      mload(0x40)\n      dup4\n      0xffffffff\n      and\n      0xe0\n      shl\n      dup2\n      mstore\n      0x04\n      add\n      tag_243\n      swap3\n      swap2\n      swap1\n      tag_101\n      jump\t// in\n    tag_243:\n      0x20\n      mload(0x40)\n      dup1\n      dup4\n      sub\n      dup2\n      0x00\n      dup8\n      dup1\n      extcodesize\n      iszero\n      dup1\n      iszero\n      tag_244\n      jumpi\n      0x00\n      dup1\n      revert\n    tag_244:\n      pop\n      gas\n      call\n      iszero\n      dup1\n      iszero\n      tag_246\n      jumpi\n      returndatasize\n      0x00\n      dup1\n      returndatacopy\n      revert(0x00, returndatasize)\n    tag_246:\n      pop\n      pop\n      pop\n      pop\n      mload(0x40)\n      returndatasize\n      not(0x1f)\n      0x1f\n      dup3\n      add\n      and\n      dup3\n      add\n      dup1\n      0x40\n      mstore\n      pop\n      dup2\n      add\n      swap1\n      tag_247\n      swap2\n      swap1\n      tag_98\n      jump\t// in\n    tag_247:\n      pop\n        /* \"contracts_new/Judgment.sol\":10077:10182  if (all_balance != 0) {\r... */\n    tag_242:\n        /* \"contracts_new/Judgment.sol\":9705:10189  {\r... */\n      pop\n        /* \"contracts_new/Judgment.sol\":9666:10189  function payBalanceToCompany() private {\r... */\n      jump\t// out\n        /* \"contracts_new/Judgment.sol\":8164:9658  function calculateJudgeReward(\r... */\n    tag_219:\n        /* \"contracts_new/Judgment.sol\":8304:8311  uint256 */\n      0x00\n        /* \"contracts_new/Judgment.sol\":9268:9292  uint256 security_deposit */\n      dup1\n        /* \"contracts_new/Judgment.sol\":9305:9328  taskInfoContractAddress */\n      0x01\n      0x00\n      swap1\n      sload\n      swap1\n      0x0100\n      exp\n      swap1\n      div\n      0xffffffffffffffffffffffffffffffffffffffff\n      and\n        /* \"contracts_new/Judgment.sol\":9295:9348  ITaskInfo(taskInfoContractAddress).getSecurityDeposit */\n      0xffffffffffffffffffffffffffffffffffffffff\n      and\n      0x64a40642\n        /* \"contracts_new/Judgment.sol\":9295:9350  ITaskInfo(taskInfoContractAddress).getSecurityDeposit() */\n      mload(0x40)\n      dup2\n      0xffffffff\n      and\n      0xe0\n      shl\n      dup2\n      mstore\n      0x04\n      add\n      0x20\n      mload(0x40)\n      dup1\n      dup4\n      sub\n      dup2\n      dup7\n      dup1\n      extcodesize\n      iszero\n      dup1\n      iszero\n      tag_249\n      jumpi\n      0x00\n      dup1\n      revert\n    tag_249:\n      pop\n      gas\n      staticcall\n      iszero\n      dup1\n      iszero\n      tag_251\n      jumpi\n      returndatasize\n      0x00\n      dup1\n      returndatacopy\n      revert(0x00, returndatasize)\n    tag_251:\n      pop\n      pop\n      pop\n      pop\n      mload(0x40)\n      returndatasize\n      not(0x1f)\n      0x1f\n      dup3\n      add\n      and\n      dup3\n      add\n      dup1\n      0x40\n      mstore\n      pop\n      dup2\n      add\n      swap1\n      tag_252\n      swap2\n      swap1\n      tag_82\n      jump\t// in\n    tag_252:\n        /* \"contracts_new/Judgment.sol\":9268:9350  uint256 security_deposit = ITaskInfo(taskInfoContractAddress).getSecurityDeposit() */\n      swap1\n      pop\n        /* \"contracts_new/Judgment.sol\":9361:9375  uint256 reward */\n      0x00\n        /* \"contracts_new/Judgment.sol\":9390:9401  winner_vote */\n      dup4\n        /* \"contracts_new/Judgment.sol\":9386:9590  if (winner_vote) {\r... */\n      iszero\n      tag_253\n      jumpi\n        /* \"contracts_new/Judgment.sol\":9468:9477  votes_for */\n      dup6\n        /* \"contracts_new/Judgment.sol\":9449:9465  security_deposit */\n      dup3\n        /* \"contracts_new/Judgment.sol\":9444:9445  1 */\n      0x01\n        /* \"contracts_new/Judgment.sol\":9428:9441  votes_against */\n      dup8\n        /* \"contracts_new/Judgment.sol\":9428:9445  votes_against + 1 */\n      tag_254\n      swap2\n      swap1\n      tag_255\n      jump\t// in\n    tag_254:\n        /* \"contracts_new/Judgment.sol\":9427:9465  (votes_against + 1) * security_deposit */\n      tag_256\n      swap2\n      swap1\n      tag_257\n      jump\t// in\n    tag_256:\n        /* \"contracts_new/Judgment.sol\":9427:9477  (votes_against + 1) * security_deposit / votes_for */\n      tag_258\n      swap2\n      swap1\n      tag_259\n      jump\t// in\n    tag_258:\n        /* \"contracts_new/Judgment.sol\":9418:9477  reward = (votes_against + 1) * security_deposit / votes_for */\n      swap1\n      pop\n        /* \"contracts_new/Judgment.sol\":9386:9590  if (winner_vote) {\r... */\n      jump(tag_260)\n    tag_253:\n        /* \"contracts_new/Judgment.sol\":9565:9578  votes_against */\n      dup5\n        /* \"contracts_new/Judgment.sol\":9546:9562  security_deposit */\n      dup3\n        /* \"contracts_new/Judgment.sol\":9541:9542  1 */\n      0x01\n        /* \"contracts_new/Judgment.sol\":9529:9538  votes_for */\n      dup9\n        /* \"contracts_new/Judgment.sol\":9529:9542  votes_for + 1 */\n      tag_261\n      swap2\n      swap1\n      tag_255\n      jump\t// in\n    tag_261:\n        /* \"contracts_new/Judgment.sol\":9528:9562  (votes_for + 1) * security_deposit */\n      tag_262\n      swap2\n      swap1\n      tag_257\n      jump\t// in\n    tag_262:\n        /* \"contracts_new/Judgment.sol\":9528:9578  (votes_for + 1) * security_deposit / votes_against */\n      tag_263\n      swap2\n      swap1\n      tag_259\n      jump\t// in\n    tag_263:\n        /* \"contracts_new/Judgment.sol\":9519:9578  reward = (votes_for + 1) * security_deposit / votes_against */\n      swap1\n      pop\n        /* \"contracts_new/Judgment.sol\":9386:9590  if (winner_vote) {\r... */\n    tag_260:\n        /* \"contracts_new/Judgment.sol\":9610:9626  security_deposit */\n      dup2\n        /* \"contracts_new/Judgment.sol\":9600:9626  reward += security_deposit */\n      dup2\n      tag_264\n      swap2\n      swap1\n      tag_255\n      jump\t// in\n    tag_264:\n      swap1\n      pop\n        /* \"contracts_new/Judgment.sol\":9644:9650  reward */\n      dup1\n        /* \"contracts_new/Judgment.sol\":9637:9650  return reward */\n      swap3\n      pop\n      pop\n      pop\n        /* \"contracts_new/Judgment.sol\":8164:9658  function calculateJudgeReward(\r... */\n      swap4\n      swap3\n      pop\n      pop\n      pop\n      jump\t// out\n        /* \"#utility.yul\":7:150   */\n    tag_266:\n        /* \"#utility.yul\":64:69   */\n      0x00\n        /* \"#utility.yul\":95:101   */\n      dup2\n        /* \"#utility.yul\":89:102   */\n      mload\n        /* \"#utility.yul\":80:102   */\n      swap1\n      pop\n        /* \"#utility.yul\":111:144   */\n      tag_268\n        /* \"#utility.yul\":138:143   */\n      dup2\n        /* \"#utility.yul\":111:144   */\n      tag_269\n      jump\t// in\n    tag_268:\n        /* \"#utility.yul\":7:150   */\n      swap3\n      swap2\n      pop\n      pop\n      jump\t// out\n        /* \"#utility.yul\":156:289   */\n    tag_270:\n        /* \"#utility.yul\":199:204   */\n      0x00\n        /* \"#utility.yul\":237:243   */\n      dup2\n        /* \"#utility.yul\":224:244   */\n      calldataload\n        /* \"#utility.yul\":215:244   */\n      swap1\n      pop\n        /* \"#utility.yul\":253:283   */\n      tag_272\n        /* \"#utility.yul\":277:282   */\n      dup2\n        /* \"#utility.yul\":253:283   */\n      tag_273\n      jump\t// in\n    tag_272:\n        /* \"#utility.yul\":156:289   */\n      swap3\n      swap2\n      pop\n      pop\n      jump\t// out\n        /* \"#utility.yul\":295:432   */\n    tag_274:\n        /* \"#utility.yul\":349:354   */\n      0x00\n        /* \"#utility.yul\":380:386   */\n      dup2\n        /* \"#utility.yul\":374:387   */\n      mload\n        /* \"#utility.yul\":365:387   */\n      swap1\n      pop\n        /* \"#utility.yul\":396:426   */\n      tag_276\n        /* \"#utility.yul\":420:425   */\n      dup2\n        /* \"#utility.yul\":396:426   */\n      tag_273\n      jump\t// in\n    tag_276:\n        /* \"#utility.yul\":295:432   */\n      swap3\n      swap2\n      pop\n      pop\n      jump\t// out\n        /* \"#utility.yul\":438:577   */\n    tag_277:\n        /* \"#utility.yul\":484:489   */\n      0x00\n        /* \"#utility.yul\":522:528   */\n      dup2\n        /* \"#utility.yul\":509:529   */\n      calldataload\n        /* \"#utility.yul\":500:529   */\n      swap1\n      pop\n        /* \"#utility.yul\":538:571   */\n      tag_279\n        /* \"#utility.yul\":565:570   */\n      dup2\n        /* \"#utility.yul\":538:571   */\n      tag_280\n      jump\t// in\n    tag_279:\n        /* \"#utility.yul\":438:577   */\n      swap3\n      swap2\n      pop\n      pop\n      jump\t// out\n        /* \"#utility.yul\":583:722   */\n    tag_281:\n        /* \"#utility.yul\":629:634   */\n      0x00\n        /* \"#utility.yul\":667:673   */\n      dup2\n        /* \"#utility.yul\":654:674   */\n      calldataload\n        /* \"#utility.yul\":645:674   */\n      swap1\n      pop\n        /* \"#utility.yul\":683:716   */\n      tag_283\n        /* \"#utility.yul\":710:715   */\n      dup2\n        /* \"#utility.yul\":683:716   */\n      tag_284\n      jump\t// in\n    tag_283:\n        /* \"#utility.yul\":583:722   */\n      swap3\n      swap2\n      pop\n      pop\n      jump\t// out\n        /* \"#utility.yul\":728:871   */\n    tag_285:\n        /* \"#utility.yul\":785:790   */\n      0x00\n        /* \"#utility.yul\":816:822   */\n      dup2\n        /* \"#utility.yul\":810:823   */\n      mload\n        /* \"#utility.yul\":801:823   */\n      swap1\n      pop\n        /* \"#utility.yul\":832:865   */\n      tag_287\n        /* \"#utility.yul\":859:864   */\n      dup2\n        /* \"#utility.yul\":832:865   */\n      tag_284\n      jump\t// in\n    tag_287:\n        /* \"#utility.yul\":728:871   */\n      swap3\n      swap2\n      pop\n      pop\n      jump\t// out\n        /* \"#utility.yul\":877:1228   */\n    tag_111:\n        /* \"#utility.yul\":947:953   */\n      0x00\n        /* \"#utility.yul\":996:998   */\n      0x20\n        /* \"#utility.yul\":984:993   */\n      dup3\n        /* \"#utility.yul\":975:982   */\n      dup5\n        /* \"#utility.yul\":971:994   */\n      sub\n        /* \"#utility.yul\":967:999   */\n      slt\n        /* \"#utility.yul\":964:1083   */\n      iszero\n      tag_289\n      jumpi\n        /* \"#utility.yul\":1002:1081   */\n      tag_290\n      tag_291\n      jump\t// in\n    tag_290:\n        /* \"#utility.yul\":964:1083   */\n    tag_289:\n        /* \"#utility.yul\":1122:1123   */\n      0x00\n        /* \"#utility.yul\":1147:1211   */\n      tag_292\n        /* \"#utility.yul\":1203:1210   */\n      dup5\n        /* \"#utility.yul\":1194:1200   */\n      dup3\n        /* \"#utility.yul\":1183:1192   */\n      dup6\n        /* \"#utility.yul\":1179:1201   */\n      add\n        /* \"#utility.yul\":1147:1211   */\n      tag_266\n      jump\t// in\n    tag_292:\n        /* \"#utility.yul\":1137:1211   */\n      swap2\n      pop\n        /* \"#utility.yul\":1093:1221   */\n      pop\n        /* \"#utility.yul\":877:1228   */\n      swap3\n      swap2\n      pop\n      pop\n      jump\t// out\n        /* \"#utility.yul\":1234:1579   */\n    tag_98:\n        /* \"#utility.yul\":1301:1307   */\n      0x00\n        /* \"#utility.yul\":1350:1352   */\n      0x20\n        /* \"#utility.yul\":1338:1347   */\n      dup3\n        /* \"#utility.yul\":1329:1336   */\n      dup5\n        /* \"#utility.yul\":1325:1348   */\n      sub\n        /* \"#utility.yul\":1321:1353   */\n      slt\n        /* \"#utility.yul\":1318:1437   */\n      iszero\n      tag_294\n      jumpi\n        /* \"#utility.yul\":1356:1435   */\n      tag_295\n      tag_291\n      jump\t// in\n    tag_295:\n        /* \"#utility.yul\":1318:1437   */\n    tag_294:\n        /* \"#utility.yul\":1476:1477   */\n      0x00\n        /* \"#utility.yul\":1501:1562   */\n      tag_296\n        /* \"#utility.yul\":1554:1561   */\n      dup5\n        /* \"#utility.yul\":1545:1551   */\n      dup3\n        /* \"#utility.yul\":1534:1543   */\n      dup6\n        /* \"#utility.yul\":1530:1552   */\n      add\n        /* \"#utility.yul\":1501:1562   */\n      tag_274\n      jump\t// in\n    tag_296:\n        /* \"#utility.yul\":1491:1562   */\n      swap2\n      pop\n        /* \"#utility.yul\":1447:1572   */\n      pop\n        /* \"#utility.yul\":1234:1579   */\n      swap3\n      swap2\n      pop\n      pop\n      jump\t// out\n        /* \"#utility.yul\":1585:2198   */\n    tag_37:\n        /* \"#utility.yul\":1659:1665   */\n      0x00\n        /* \"#utility.yul\":1667:1673   */\n      dup1\n        /* \"#utility.yul\":1675:1681   */\n      0x00\n        /* \"#utility.yul\":1724:1726   */\n      0x60\n        /* \"#utility.yul\":1712:1721   */\n      dup5\n        /* \"#utility.yul\":1703:1710   */\n      dup7\n        /* \"#utility.yul\":1699:1722   */\n      sub\n        /* \"#utility.yul\":1695:1727   */\n      slt\n        /* \"#utility.yul\":1692:1811   */\n      iszero\n      tag_298\n      jumpi\n        /* \"#utility.yul\":1730:1809   */\n      tag_299\n      tag_291\n      jump\t// in\n    tag_299:\n        /* \"#utility.yul\":1692:1811   */\n    tag_298:\n        /* \"#utility.yul\":1850:1851   */\n      0x00\n        /* \"#utility.yul\":1875:1925   */\n      tag_300\n        /* \"#utility.yul\":1917:1924   */\n      dup7\n        /* \"#utility.yul\":1908:1914   */\n      dup3\n        /* \"#utility.yul\":1897:1906   */\n      dup8\n        /* \"#utility.yul\":1893:1915   */\n      add\n        /* \"#utility.yul\":1875:1925   */\n      tag_270\n      jump\t// in\n    tag_300:\n        /* \"#utility.yul\":1865:1925   */\n      swap4\n      pop\n        /* \"#utility.yul\":1821:1935   */\n      pop\n        /* \"#utility.yul\":1974:1976   */\n      0x20\n        /* \"#utility.yul\":2000:2053   */\n      tag_301\n        /* \"#utility.yul\":2045:2052   */\n      dup7\n        /* \"#utility.yul\":2036:2042   */\n      dup3\n        /* \"#utility.yul\":2025:2034   */\n      dup8\n        /* \"#utility.yul\":2021:2043   */\n      add\n        /* \"#utility.yul\":2000:2053   */\n      tag_281\n      jump\t// in\n    tag_301:\n        /* \"#utility.yul\":1990:2053   */\n      swap3\n      pop\n        /* \"#utility.yul\":1945:2063   */\n      pop\n        /* \"#utility.yul\":2102:2104   */\n      0x40\n        /* \"#utility.yul\":2128:2181   */\n      tag_302\n        /* \"#utility.yul\":2173:2180   */\n      dup7\n        /* \"#utility.yul\":2164:2170   */\n      dup3\n        /* \"#utility.yul\":2153:2162   */\n      dup8\n        /* \"#utility.yul\":2149:2171   */\n      add\n        /* \"#utility.yul\":2128:2181   */\n      tag_277\n      jump\t// in\n    tag_302:\n        /* \"#utility.yul\":2118:2181   */\n      swap2\n      pop\n        /* \"#utility.yul\":2073:2191   */\n      pop\n        /* \"#utility.yul\":1585:2198   */\n      swap3\n      pop\n      swap3\n      pop\n      swap3\n      jump\t// out\n        /* \"#utility.yul\":2204:2555   */\n    tag_82:\n        /* \"#utility.yul\":2274:2280   */\n      0x00\n        /* \"#utility.yul\":2323:2325   */\n      0x20\n        /* \"#utility.yul\":2311:2320   */\n      dup3\n        /* \"#utility.yul\":2302:2309   */\n      dup5\n        /* \"#utility.yul\":2298:2321   */\n      sub\n        /* \"#utility.yul\":2294:2326   */\n      slt\n        /* \"#utility.yul\":2291:2410   */\n      iszero\n      tag_304\n      jumpi\n        /* \"#utility.yul\":2329:2408   */\n      tag_305\n      tag_291\n      jump\t// in\n    tag_305:\n        /* \"#utility.yul\":2291:2410   */\n    tag_304:\n        /* \"#utility.yul\":2449:2450   */\n      0x00\n        /* \"#utility.yul\":2474:2538   */\n      tag_306\n        /* \"#utility.yul\":2530:2537   */\n      dup5\n        /* \"#utility.yul\":2521:2527   */\n      dup3\n        /* \"#utility.yul\":2510:2519   */\n      dup6\n        /* \"#utility.yul\":2506:2528   */\n      add\n        /* \"#utility.yul\":2474:2538   */\n      tag_285\n      jump\t// in\n    tag_306:\n        /* \"#utility.yul\":2464:2538   */\n      swap2\n      pop\n        /* \"#utility.yul\":2420:2548   */\n      pop\n        /* \"#utility.yul\":2204:2555   */\n      swap3\n      swap2\n      pop\n      pop\n      jump\t// out\n        /* \"#utility.yul\":2561:3035   */\n    tag_44:\n        /* \"#utility.yul\":2629:2635   */\n      0x00\n        /* \"#utility.yul\":2637:2643   */\n      dup1\n        /* \"#utility.yul\":2686:2688   */\n      0x40\n        /* \"#utility.yul\":2674:2683   */\n      dup4\n        /* \"#utility.yul\":2665:2672   */\n      dup6\n        /* \"#utility.yul\":2661:2684   */\n      sub\n        /* \"#utility.yul\":2657:2689   */\n      slt\n        /* \"#utility.yul\":2654:2773   */\n      iszero\n      tag_308\n      jumpi\n        /* \"#utility.yul\":2692:2771   */\n      tag_309\n      tag_291\n      jump\t// in\n    tag_309:\n        /* \"#utility.yul\":2654:2773   */\n    tag_308:\n        /* \"#utility.yul\":2812:2813   */\n      0x00\n        /* \"#utility.yul\":2837:2890   */\n      tag_310\n        /* \"#utility.yul\":2882:2889   */\n      dup6\n        /* \"#utility.yul\":2873:2879   */\n      dup3\n        /* \"#utility.yul\":2862:2871   */\n      dup7\n        /* \"#utility.yul\":2858:2880   */\n      add\n        /* \"#utility.yul\":2837:2890   */\n      tag_281\n      jump\t// in\n    tag_310:\n        /* \"#utility.yul\":2827:2890   */\n      swap3\n      pop\n        /* \"#utility.yul\":2783:2900   */\n      pop\n        /* \"#utility.yul\":2939:2941   */\n      0x20\n        /* \"#utility.yul\":2965:3018   */\n      tag_311\n        /* \"#utility.yul\":3010:3017   */\n      dup6\n        /* \"#utility.yul\":3001:3007   */\n      dup3\n        /* \"#utility.yul\":2990:2999   */\n      dup7\n        /* \"#utility.yul\":2986:3008   */\n      add\n        /* \"#utility.yul\":2965:3018   */\n      tag_277\n      jump\t// in\n    tag_311:\n        /* \"#utility.yul\":2955:3018   */\n      swap2\n      pop\n        /* \"#utility.yul\":2910:3028   */\n      pop\n        /* \"#utility.yul\":2561:3035   */\n      swap3\n      pop\n      swap3\n      swap1\n      pop\n      jump\t// out\n        /* \"#utility.yul\":3041:3324   */\n    tag_312:\n        /* \"#utility.yul\":3162:3172   */\n      0x00\n        /* \"#utility.yul\":3183:3281   */\n      tag_314\n        /* \"#utility.yul\":3277:3280   */\n      dup4\n        /* \"#utility.yul\":3269:3275   */\n      dup4\n        /* \"#utility.yul\":3183:3281   */\n      tag_315\n      jump\t// in\n    tag_314:\n        /* \"#utility.yul\":3313:3317   */\n      0x60\n        /* \"#utility.yul\":3308:3311   */\n      dup4\n        /* \"#utility.yul\":3304:3318   */\n      add\n        /* \"#utility.yul\":3290:3318   */\n      swap1\n      pop\n        /* \"#utility.yul\":3041:3324   */\n      swap3\n      swap2\n      pop\n      pop\n      jump\t// out\n        /* \"#utility.yul\":3330:3617   */\n    tag_316:\n        /* \"#utility.yul\":3453:3463   */\n      0x00\n        /* \"#utility.yul\":3474:3574   */\n      tag_318\n        /* \"#utility.yul\":3570:3573   */\n      dup4\n        /* \"#utility.yul\":3562:3568   */\n      dup4\n        /* \"#utility.yul\":3474:3574   */\n      tag_319\n      jump\t// in\n    tag_318:\n        /* \"#utility.yul\":3606:3610   */\n      0xa0\n        /* \"#utility.yul\":3601:3604   */\n      dup4\n        /* \"#utility.yul\":3597:3611   */\n      add\n        /* \"#utility.yul\":3583:3611   */\n      swap1\n      pop\n        /* \"#utility.yul\":3330:3617   */\n      swap3\n      swap2\n      pop\n      pop\n      jump\t// out\n        /* \"#utility.yul\":3623:3731   */\n    tag_320:\n        /* \"#utility.yul\":3700:3724   */\n      tag_322\n        /* \"#utility.yul\":3718:3723   */\n      dup2\n        /* \"#utility.yul\":3700:3724   */\n      tag_323\n      jump\t// in\n    tag_322:\n        /* \"#utility.yul\":3695:3698   */\n      dup3\n        /* \"#utility.yul\":3688:3725   */\n      mstore\n        /* \"#utility.yul\":3623:3731   */\n      pop\n      pop\n      jump\t// out\n        /* \"#utility.yul\":3737:3855   */\n    tag_324:\n        /* \"#utility.yul\":3824:3848   */\n      tag_326\n        /* \"#utility.yul\":3842:3847   */\n      dup2\n        /* \"#utility.yul\":3824:3848   */\n      tag_323\n      jump\t// in\n    tag_326:\n        /* \"#utility.yul\":3819:3822   */\n      dup3\n        /* \"#utility.yul\":3812:3849   */\n      mstore\n        /* \"#utility.yul\":3737:3855   */\n      pop\n      pop\n      jump\t// out\n        /* \"#utility.yul\":3919:4859   */\n    tag_327:\n        /* \"#utility.yul\":4090:4093   */\n      0x00\n        /* \"#utility.yul\":4119:4199   */\n      tag_329\n        /* \"#utility.yul\":4193:4198   */\n      dup3\n        /* \"#utility.yul\":4119:4199   */\n      tag_330\n      jump\t// in\n    tag_329:\n        /* \"#utility.yul\":4215:4327   */\n      tag_331\n        /* \"#utility.yul\":4320:4326   */\n      dup2\n        /* \"#utility.yul\":4315:4318   */\n      dup6\n        /* \"#utility.yul\":4215:4327   */\n      tag_332\n      jump\t// in\n    tag_331:\n        /* \"#utility.yul\":4208:4327   */\n      swap4\n      pop\n        /* \"#utility.yul\":4351:4433   */\n      tag_333\n        /* \"#utility.yul\":4427:4432   */\n      dup4\n        /* \"#utility.yul\":4351:4433   */\n      tag_334\n      jump\t// in\n    tag_333:\n        /* \"#utility.yul\":4456:4463   */\n      dup1\n        /* \"#utility.yul\":4487:4488   */\n      0x00\n        /* \"#utility.yul\":4472:4834   */\n    tag_335:\n        /* \"#utility.yul\":4497:4503   */\n      dup4\n        /* \"#utility.yul\":4494:4495   */\n      dup2\n        /* \"#utility.yul\":4491:4504   */\n      lt\n        /* \"#utility.yul\":4472:4834   */\n      iszero\n      tag_337\n      jumpi\n        /* \"#utility.yul\":4573:4579   */\n      dup2\n        /* \"#utility.yul\":4567:4580   */\n      mload\n        /* \"#utility.yul\":4600:4715   */\n      tag_338\n        /* \"#utility.yul\":4711:4714   */\n      dup9\n        /* \"#utility.yul\":4696:4709   */\n      dup3\n        /* \"#utility.yul\":4600:4715   */\n      tag_312\n      jump\t// in\n    tag_338:\n        /* \"#utility.yul\":4593:4715   */\n      swap8\n      pop\n        /* \"#utility.yul\":4738:4824   */\n      tag_339\n        /* \"#utility.yul\":4817:4823   */\n      dup4\n        /* \"#utility.yul\":4738:4824   */\n      tag_340\n      jump\t// in\n    tag_339:\n        /* \"#utility.yul\":4728:4824   */\n      swap3\n      pop\n        /* \"#utility.yul\":4532:4834   */\n      pop\n        /* \"#utility.yul\":4519:4520   */\n      0x01\n        /* \"#utility.yul\":4516:4517   */\n      dup2\n        /* \"#utility.yul\":4512:4521   */\n      add\n        /* \"#utility.yul\":4507:4521   */\n      swap1\n      pop\n        /* \"#utility.yul\":4472:4834   */\n      jump(tag_335)\n    tag_337:\n        /* \"#utility.yul\":4476:4490   */\n      pop\n        /* \"#utility.yul\":4850:4853   */\n      dup6\n        /* \"#utility.yul\":4843:4853   */\n      swap4\n      pop\n        /* \"#utility.yul\":4095:4859   */\n      pop\n      pop\n      pop\n        /* \"#utility.yul\":3919:4859   */\n      swap3\n      swap2\n      pop\n      pop\n      jump\t// out\n        /* \"#utility.yul\":4925:5873   */\n    tag_341:\n        /* \"#utility.yul\":5098:5101   */\n      0x00\n        /* \"#utility.yul\":5127:5208   */\n      tag_343\n        /* \"#utility.yul\":5202:5207   */\n      dup3\n        /* \"#utility.yul\":5127:5208   */\n      tag_344\n      jump\t// in\n    tag_343:\n        /* \"#utility.yul\":5224:5337   */\n      tag_345\n        /* \"#utility.yul\":5330:5336   */\n      dup2\n        /* \"#utility.yul\":5325:5328   */\n      dup6\n        /* \"#utility.yul\":5224:5337   */\n      tag_346\n      jump\t// in\n    tag_345:\n        /* \"#utility.yul\":5217:5337   */\n      swap4\n      pop\n        /* \"#utility.yul\":5361:5444   */\n      tag_347\n        /* \"#utility.yul\":5438:5443   */\n      dup4\n        /* \"#utility.yul\":5361:5444   */\n      tag_348\n      jump\t// in\n    tag_347:\n        /* \"#utility.yul\":5467:5474   */\n      dup1\n        /* \"#utility.yul\":5498:5499   */\n      0x00\n        /* \"#utility.yul\":5483:5848   */\n    tag_349:\n        /* \"#utility.yul\":5508:5514   */\n      dup4\n        /* \"#utility.yul\":5505:5506   */\n      dup2\n        /* \"#utility.yul\":5502:5515   */\n      lt\n        /* \"#utility.yul\":5483:5848   */\n      iszero\n      tag_351\n      jumpi\n        /* \"#utility.yul\":5584:5590   */\n      dup2\n        /* \"#utility.yul\":5578:5591   */\n      mload\n        /* \"#utility.yul\":5611:5728   */\n      tag_352\n        /* \"#utility.yul\":5724:5727   */\n      dup9\n        /* \"#utility.yul\":5709:5722   */\n      dup3\n        /* \"#utility.yul\":5611:5728   */\n      tag_316\n      jump\t// in\n    tag_352:\n        /* \"#utility.yul\":5604:5728   */\n      swap8\n      pop\n        /* \"#utility.yul\":5751:5838   */\n      tag_353\n        /* \"#utility.yul\":5831:5837   */\n      dup4\n        /* \"#utility.yul\":5751:5838   */\n      tag_354\n      jump\t// in\n    tag_353:\n        /* \"#utility.yul\":5741:5838   */\n      swap3\n      pop\n        /* \"#utility.yul\":5543:5848   */\n      pop\n        /* \"#utility.yul\":5530:5531   */\n      0x01\n        /* \"#utility.yul\":5527:5528   */\n      dup2\n        /* \"#utility.yul\":5523:5532   */\n      add\n        /* \"#utility.yul\":5518:5532   */\n      swap1\n      pop\n        /* \"#utility.yul\":5483:5848   */\n      jump(tag_349)\n    tag_351:\n        /* \"#utility.yul\":5487:5501   */\n      pop\n        /* \"#utility.yul\":5864:5867   */\n      dup6\n        /* \"#utility.yul\":5857:5867   */\n      swap4\n      pop\n        /* \"#utility.yul\":5103:5873   */\n      pop\n      pop\n      pop\n        /* \"#utility.yul\":4925:5873   */\n      swap3\n      swap2\n      pop\n      pop\n      jump\t// out\n        /* \"#utility.yul\":5879:5978   */\n    tag_355:\n        /* \"#utility.yul\":5950:5971   */\n      tag_357\n        /* \"#utility.yul\":5965:5970   */\n      dup2\n        /* \"#utility.yul\":5950:5971   */\n      tag_358\n      jump\t// in\n    tag_357:\n        /* \"#utility.yul\":5945:5948   */\n      dup3\n        /* \"#utility.yul\":5938:5972   */\n      mstore\n        /* \"#utility.yul\":5879:5978   */\n      pop\n      pop\n      jump\t// out\n        /* \"#utility.yul\":5984:6092   */\n    tag_359:\n        /* \"#utility.yul\":6061:6085   */\n      tag_361\n        /* \"#utility.yul\":6079:6084   */\n      dup2\n        /* \"#utility.yul\":6061:6085   */\n      tag_362\n      jump\t// in\n    tag_361:\n        /* \"#utility.yul\":6056:6059   */\n      dup3\n        /* \"#utility.yul\":6049:6086   */\n      mstore\n        /* \"#utility.yul\":5984:6092   */\n      pop\n      pop\n      jump\t// out\n        /* \"#utility.yul\":6098:6463   */\n    tag_363:\n        /* \"#utility.yul\":6240:6243   */\n      0x00\n        /* \"#utility.yul\":6261:6327   */\n      tag_365\n        /* \"#utility.yul\":6325:6326   */\n      0x03\n        /* \"#utility.yul\":6320:6323   */\n      dup4\n        /* \"#utility.yul\":6261:6327   */\n      tag_366\n      jump\t// in\n    tag_365:\n        /* \"#utility.yul\":6254:6327   */\n      swap2\n      pop\n        /* \"#utility.yul\":6336:6429   */\n      tag_367\n        /* \"#utility.yul\":6425:6428   */\n      dup3\n        /* \"#utility.yul\":6336:6429   */\n      tag_368\n      jump\t// in\n    tag_367:\n        /* \"#utility.yul\":6454:6456   */\n      0x20\n        /* \"#utility.yul\":6449:6452   */\n      dup3\n        /* \"#utility.yul\":6445:6457   */\n      add\n        /* \"#utility.yul\":6438:6457   */\n      swap1\n      pop\n        /* \"#utility.yul\":6098:6463   */\n      swap2\n      swap1\n      pop\n      jump\t// out\n        /* \"#utility.yul\":6469:6834   */\n    tag_369:\n        /* \"#utility.yul\":6611:6614   */\n      0x00\n        /* \"#utility.yul\":6632:6698   */\n      tag_371\n        /* \"#utility.yul\":6696:6697   */\n      0x03\n        /* \"#utility.yul\":6691:6694   */\n      dup4\n        /* \"#utility.yul\":6632:6698   */\n      tag_366\n      jump\t// in\n    tag_371:\n        /* \"#utility.yul\":6625:6698   */\n      swap2\n      pop\n        /* \"#utility.yul\":6707:6800   */\n      tag_372\n        /* \"#utility.yul\":6796:6799   */\n      dup3\n        /* \"#utility.yul\":6707:6800   */\n      tag_373\n      jump\t// in\n    tag_372:\n        /* \"#utility.yul\":6825:6827   */\n      0x20\n        /* \"#utility.yul\":6820:6823   */\n      dup3\n        /* \"#utility.yul\":6816:6828   */\n      add\n        /* \"#utility.yul\":6809:6828   */\n      swap1\n      pop\n        /* \"#utility.yul\":6469:6834   */\n      swap2\n      swap1\n      pop\n      jump\t// out\n        /* \"#utility.yul\":6840:7205   */\n    tag_374:\n        /* \"#utility.yul\":6982:6985   */\n      0x00\n        /* \"#utility.yul\":7003:7069   */\n      tag_376\n        /* \"#utility.yul\":7067:7068   */\n      0x03\n        /* \"#utility.yul\":7062:7065   */\n      dup4\n        /* \"#utility.yul\":7003:7069   */\n      tag_366\n      jump\t// in\n    tag_376:\n        /* \"#utility.yul\":6996:7069   */\n      swap2\n      pop\n        /* \"#utility.yul\":7078:7171   */\n      tag_377\n        /* \"#utility.yul\":7167:7170   */\n      dup3\n        /* \"#utility.yul\":7078:7171   */\n      tag_378\n      jump\t// in\n    tag_377:\n        /* \"#utility.yul\":7196:7198   */\n      0x20\n        /* \"#utility.yul\":7191:7194   */\n      dup3\n        /* \"#utility.yul\":7187:7199   */\n      add\n        /* \"#utility.yul\":7180:7199   */\n      swap1\n      pop\n        /* \"#utility.yul\":6840:7205   */\n      swap2\n      swap1\n      pop\n      jump\t// out\n        /* \"#utility.yul\":7211:7576   */\n    tag_379:\n        /* \"#utility.yul\":7353:7356   */\n      0x00\n        /* \"#utility.yul\":7374:7440   */\n      tag_381\n        /* \"#utility.yul\":7438:7439   */\n      0x03\n        /* \"#utility.yul\":7433:7436   */\n      dup4\n        /* \"#utility.yul\":7374:7440   */\n      tag_366\n      jump\t// in\n    tag_381:\n        /* \"#utility.yul\":7367:7440   */\n      swap2\n      pop\n        /* \"#utility.yul\":7449:7542   */\n      tag_382\n        /* \"#utility.yul\":7538:7541   */\n      dup3\n        /* \"#utility.yul\":7449:7542   */\n      tag_383\n      jump\t// in\n    tag_382:\n        /* \"#utility.yul\":7567:7569   */\n      0x20\n        /* \"#utility.yul\":7562:7565   */\n      dup3\n        /* \"#utility.yul\":7558:7570   */\n      add\n        /* \"#utility.yul\":7551:7570   */\n      swap1\n      pop\n        /* \"#utility.yul\":7211:7576   */\n      swap2\n      swap1\n      pop\n      jump\t// out\n        /* \"#utility.yul\":7582:7947   */\n    tag_384:\n        /* \"#utility.yul\":7724:7727   */\n      0x00\n        /* \"#utility.yul\":7745:7811   */\n      tag_386\n        /* \"#utility.yul\":7809:7810   */\n      0x03\n        /* \"#utility.yul\":7804:7807   */\n      dup4\n        /* \"#utility.yul\":7745:7811   */\n      tag_366\n      jump\t// in\n    tag_386:\n        /* \"#utility.yul\":7738:7811   */\n      swap2\n      pop\n        /* \"#utility.yul\":7820:7913   */\n      tag_387\n        /* \"#utility.yul\":7909:7912   */\n      dup3\n        /* \"#utility.yul\":7820:7913   */\n      tag_388\n      jump\t// in\n    tag_387:\n        /* \"#utility.yul\":7938:7940   */\n      0x20\n        /* \"#utility.yul\":7933:7936   */\n      dup3\n        /* \"#utility.yul\":7929:7941   */\n      add\n        /* \"#utility.yul\":7922:7941   */\n      swap1\n      pop\n        /* \"#utility.yul\":7582:7947   */\n      swap2\n      swap1\n      pop\n      jump\t// out\n        /* \"#utility.yul\":7953:8318   */\n    tag_389:\n        /* \"#utility.yul\":8095:8098   */\n      0x00\n        /* \"#utility.yul\":8116:8182   */\n      tag_391\n        /* \"#utility.yul\":8180:8181   */\n      0x03\n        /* \"#utility.yul\":8175:8178   */\n      dup4\n        /* \"#utility.yul\":8116:8182   */\n      tag_366\n      jump\t// in\n    tag_391:\n        /* \"#utility.yul\":8109:8182   */\n      swap2\n      pop\n        /* \"#utility.yul\":8191:8284   */\n      tag_392\n        /* \"#utility.yul\":8280:8283   */\n      dup3\n        /* \"#utility.yul\":8191:8284   */\n      tag_393\n      jump\t// in\n    tag_392:\n        /* \"#utility.yul\":8309:8311   */\n      0x20\n        /* \"#utility.yul\":8304:8307   */\n      dup3\n        /* \"#utility.yul\":8300:8312   */\n      add\n        /* \"#utility.yul\":8293:8312   */\n      swap1\n      pop\n        /* \"#utility.yul\":7953:8318   */\n      swap2\n      swap1\n      pop\n      jump\t// out\n        /* \"#utility.yul\":8324:8689   */\n    tag_394:\n        /* \"#utility.yul\":8466:8469   */\n      0x00\n        /* \"#utility.yul\":8487:8553   */\n      tag_396\n        /* \"#utility.yul\":8551:8552   */\n      0x03\n        /* \"#utility.yul\":8546:8549   */\n      dup4\n        /* \"#utility.yul\":8487:8553   */\n      tag_366\n      jump\t// in\n    tag_396:\n        /* \"#utility.yul\":8480:8553   */\n      swap2\n      pop\n        /* \"#utility.yul\":8562:8655   */\n      tag_397\n        /* \"#utility.yul\":8651:8654   */\n      dup3\n        /* \"#utility.yul\":8562:8655   */\n      tag_398\n      jump\t// in\n    tag_397:\n        /* \"#utility.yul\":8680:8682   */\n      0x20\n        /* \"#utility.yul\":8675:8678   */\n      dup3\n        /* \"#utility.yul\":8671:8683   */\n      add\n        /* \"#utility.yul\":8664:8683   */\n      swap1\n      pop\n        /* \"#utility.yul\":8324:8689   */\n      swap2\n      swap1\n      pop\n      jump\t// out\n        /* \"#utility.yul\":8749:9434   */\n    tag_315:\n        /* \"#utility.yul\":8888:8892   */\n      0x60\n        /* \"#utility.yul\":8883:8886   */\n      dup3\n        /* \"#utility.yul\":8879:8893   */\n      add\n        /* \"#utility.yul\":8973:8977   */\n      0x00\n        /* \"#utility.yul\":8966:8971   */\n      dup3\n        /* \"#utility.yul\":8962:8978   */\n      add\n        /* \"#utility.yul\":8956:8979   */\n      mload\n        /* \"#utility.yul\":8992:9055   */\n      tag_400\n        /* \"#utility.yul\":9049:9053   */\n      0x00\n        /* \"#utility.yul\":9044:9047   */\n      dup6\n        /* \"#utility.yul\":9040:9054   */\n      add\n        /* \"#utility.yul\":9026:9038   */\n      dup3\n        /* \"#utility.yul\":8992:9055   */\n      tag_401\n      jump\t// in\n    tag_400:\n        /* \"#utility.yul\":8903:9065   */\n      pop\n        /* \"#utility.yul\":9156:9160   */\n      0x20\n        /* \"#utility.yul\":9149:9154   */\n      dup3\n        /* \"#utility.yul\":9145:9161   */\n      add\n        /* \"#utility.yul\":9139:9162   */\n      mload\n        /* \"#utility.yul\":9175:9238   */\n      tag_402\n        /* \"#utility.yul\":9232:9236   */\n      0x20\n        /* \"#utility.yul\":9227:9230   */\n      dup6\n        /* \"#utility.yul\":9223:9237   */\n      add\n        /* \"#utility.yul\":9209:9221   */\n      dup3\n        /* \"#utility.yul\":9175:9238   */\n      tag_359\n      jump\t// in\n    tag_402:\n        /* \"#utility.yul\":9075:9248   */\n      pop\n        /* \"#utility.yul\":9335:9339   */\n      0x40\n        /* \"#utility.yul\":9328:9333   */\n      dup3\n        /* \"#utility.yul\":9324:9340   */\n      add\n        /* \"#utility.yul\":9318:9341   */\n      mload\n        /* \"#utility.yul\":9354:9417   */\n      tag_403\n        /* \"#utility.yul\":9411:9415   */\n      0x40\n        /* \"#utility.yul\":9406:9409   */\n      dup6\n        /* \"#utility.yul\":9402:9416   */\n      add\n        /* \"#utility.yul\":9388:9400   */\n      dup3\n        /* \"#utility.yul\":9354:9417   */\n      tag_401\n      jump\t// in\n    tag_403:\n        /* \"#utility.yul\":9258:9427   */\n      pop\n        /* \"#utility.yul\":8857:9434   */\n      pop\n        /* \"#utility.yul\":8749:9434   */\n      pop\n      pop\n      jump\t// out\n        /* \"#utility.yul\":9496:10536   */\n    tag_319:\n        /* \"#utility.yul\":9637:9641   */\n      0xa0\n        /* \"#utility.yul\":9632:9635   */\n      dup3\n        /* \"#utility.yul\":9628:9642   */\n      add\n        /* \"#utility.yul\":9722:9726   */\n      0x00\n        /* \"#utility.yul\":9715:9720   */\n      dup3\n        /* \"#utility.yul\":9711:9727   */\n      add\n        /* \"#utility.yul\":9705:9728   */\n      mload\n        /* \"#utility.yul\":9741:9804   */\n      tag_405\n        /* \"#utility.yul\":9798:9802   */\n      0x00\n        /* \"#utility.yul\":9793:9796   */\n      dup6\n        /* \"#utility.yul\":9789:9803   */\n      add\n        /* \"#utility.yul\":9775:9787   */\n      dup3\n        /* \"#utility.yul\":9741:9804   */\n      tag_401\n      jump\t// in\n    tag_405:\n        /* \"#utility.yul\":9652:9814   */\n      pop\n        /* \"#utility.yul\":9905:9909   */\n      0x20\n        /* \"#utility.yul\":9898:9903   */\n      dup3\n        /* \"#utility.yul\":9894:9910   */\n      add\n        /* \"#utility.yul\":9888:9911   */\n      mload\n        /* \"#utility.yul\":9924:9987   */\n      tag_406\n        /* \"#utility.yul\":9981:9985   */\n      0x20\n        /* \"#utility.yul\":9976:9979   */\n      dup6\n        /* \"#utility.yul\":9972:9986   */\n      add\n        /* \"#utility.yul\":9958:9970   */\n      dup3\n        /* \"#utility.yul\":9924:9987   */\n      tag_359\n      jump\t// in\n    tag_406:\n        /* \"#utility.yul\":9824:9997   */\n      pop\n        /* \"#utility.yul\":10084:10088   */\n      0x40\n        /* \"#utility.yul\":10077:10082   */\n      dup3\n        /* \"#utility.yul\":10073:10089   */\n      add\n        /* \"#utility.yul\":10067:10090   */\n      mload\n        /* \"#utility.yul\":10103:10166   */\n      tag_407\n        /* \"#utility.yul\":10160:10164   */\n      0x40\n        /* \"#utility.yul\":10155:10158   */\n      dup6\n        /* \"#utility.yul\":10151:10165   */\n      add\n        /* \"#utility.yul\":10137:10149   */\n      dup3\n        /* \"#utility.yul\":10103:10166   */\n      tag_401\n      jump\t// in\n    tag_407:\n        /* \"#utility.yul\":10007:10176   */\n      pop\n        /* \"#utility.yul\":10261:10265   */\n      0x60\n        /* \"#utility.yul\":10254:10259   */\n      dup3\n        /* \"#utility.yul\":10250:10266   */\n      add\n        /* \"#utility.yul\":10244:10267   */\n      mload\n        /* \"#utility.yul\":10280:10337   */\n      tag_408\n        /* \"#utility.yul\":10331:10335   */\n      0x60\n        /* \"#utility.yul\":10326:10329   */\n      dup6\n        /* \"#utility.yul\":10322:10336   */\n      add\n        /* \"#utility.yul\":10308:10320   */\n      dup3\n        /* \"#utility.yul\":10280:10337   */\n      tag_355\n      jump\t// in\n    tag_408:\n        /* \"#utility.yul\":10186:10347   */\n      pop\n        /* \"#utility.yul\":10437:10441   */\n      0x80\n        /* \"#utility.yul\":10430:10435   */\n      dup3\n        /* \"#utility.yul\":10426:10442   */\n      add\n        /* \"#utility.yul\":10420:10443   */\n      mload\n        /* \"#utility.yul\":10456:10519   */\n      tag_409\n        /* \"#utility.yul\":10513:10517   */\n      0x80\n        /* \"#utility.yul\":10508:10511   */\n      dup6\n        /* \"#utility.yul\":10504:10518   */\n      add\n        /* \"#utility.yul\":10490:10502   */\n      dup3\n        /* \"#utility.yul\":10456:10519   */\n      tag_320\n      jump\t// in\n    tag_409:\n        /* \"#utility.yul\":10357:10529   */\n      pop\n        /* \"#utility.yul\":9606:10536   */\n      pop\n        /* \"#utility.yul\":9496:10536   */\n      pop\n      pop\n      jump\t// out\n        /* \"#utility.yul\":10542:10650   */\n    tag_401:\n        /* \"#utility.yul\":10619:10643   */\n      tag_411\n        /* \"#utility.yul\":10637:10642   */\n      dup2\n        /* \"#utility.yul\":10619:10643   */\n      tag_412\n      jump\t// in\n    tag_411:\n        /* \"#utility.yul\":10614:10617   */\n      dup3\n        /* \"#utility.yul\":10607:10644   */\n      mstore\n        /* \"#utility.yul\":10542:10650   */\n      pop\n      pop\n      jump\t// out\n        /* \"#utility.yul\":10656:10774   */\n    tag_413:\n        /* \"#utility.yul\":10743:10767   */\n      tag_415\n        /* \"#utility.yul\":10761:10766   */\n      dup2\n        /* \"#utility.yul\":10743:10767   */\n      tag_412\n      jump\t// in\n    tag_415:\n        /* \"#utility.yul\":10738:10741   */\n      dup3\n        /* \"#utility.yul\":10731:10768   */\n      mstore\n        /* \"#utility.yul\":10656:10774   */\n      pop\n      pop\n      jump\t// out\n        /* \"#utility.yul\":10780:11002   */\n    tag_21:\n        /* \"#utility.yul\":10873:10877   */\n      0x00\n        /* \"#utility.yul\":10911:10913   */\n      0x20\n        /* \"#utility.yul\":10900:10909   */\n      dup3\n        /* \"#utility.yul\":10896:10914   */\n      add\n        /* \"#utility.yul\":10888:10914   */\n      swap1\n      pop\n        /* \"#utility.yul\":10924:10995   */\n      tag_417\n        /* \"#utility.yul\":10992:10993   */\n      0x00\n        /* \"#utility.yul\":10981:10990   */\n      dup4\n        /* \"#utility.yul\":10977:10994   */\n      add\n        /* \"#utility.yul\":10968:10974   */\n      dup5\n        /* \"#utility.yul\":10924:10995   */\n      tag_324\n      jump\t// in\n    tag_417:\n        /* \"#utility.yul\":10780:11002   */\n      swap3\n      swap2\n      pop\n      pop\n      jump\t// out\n        /* \"#utility.yul\":11008:11340   */\n    tag_84:\n        /* \"#utility.yul\":11129:11133   */\n      0x00\n        /* \"#utility.yul\":11167:11169   */\n      0x40\n        /* \"#utility.yul\":11156:11165   */\n      dup3\n        /* \"#utility.yul\":11152:11170   */\n      add\n        /* \"#utility.yul\":11144:11170   */\n      swap1\n      pop\n        /* \"#utility.yul\":11180:11251   */\n      tag_419\n        /* \"#utility.yul\":11248:11249   */\n      0x00\n        /* \"#utility.yul\":11237:11246   */\n      dup4\n        /* \"#utility.yul\":11233:11250   */\n      add\n        /* \"#utility.yul\":11224:11230   */\n      dup6\n        /* \"#utility.yul\":11180:11251   */\n      tag_324\n      jump\t// in\n    tag_419:\n        /* \"#utility.yul\":11261:11333   */\n      tag_420\n        /* \"#utility.yul\":11329:11331   */\n      0x20\n        /* \"#utility.yul\":11318:11327   */\n      dup4\n        /* \"#utility.yul\":11314:11332   */\n      add\n        /* \"#utility.yul\":11305:11311   */\n      dup5\n        /* \"#utility.yul\":11261:11333   */\n      tag_324\n      jump\t// in\n    tag_420:\n        /* \"#utility.yul\":11008:11340   */\n      swap4\n      swap3\n      pop\n      pop\n      pop\n      jump\t// out\n        /* \"#utility.yul\":11346:11788   */\n    tag_93:\n        /* \"#utility.yul\":11495:11499   */\n      0x00\n        /* \"#utility.yul\":11533:11535   */\n      0x60\n        /* \"#utility.yul\":11522:11531   */\n      dup3\n        /* \"#utility.yul\":11518:11536   */\n      add\n        /* \"#utility.yul\":11510:11536   */\n      swap1\n      pop\n        /* \"#utility.yul\":11546:11617   */\n      tag_422\n        /* \"#utility.yul\":11614:11615   */\n      0x00\n        /* \"#utility.yul\":11603:11612   */\n      dup4\n        /* \"#utility.yul\":11599:11616   */\n      add\n        /* \"#utility.yul\":11590:11596   */\n      dup7\n        /* \"#utility.yul\":11546:11617   */\n      tag_324\n      jump\t// in\n    tag_422:\n        /* \"#utility.yul\":11627:11699   */\n      tag_423\n        /* \"#utility.yul\":11695:11697   */\n      0x20\n        /* \"#utility.yul\":11684:11693   */\n      dup4\n        /* \"#utility.yul\":11680:11698   */\n      add\n        /* \"#utility.yul\":11671:11677   */\n      dup6\n        /* \"#utility.yul\":11627:11699   */\n      tag_324\n      jump\t// in\n    tag_423:\n        /* \"#utility.yul\":11709:11781   */\n      tag_424\n        /* \"#utility.yul\":11777:11779   */\n      0x40\n        /* \"#utility.yul\":11766:11775   */\n      dup4\n        /* \"#utility.yul\":11762:11780   */\n      add\n        /* \"#utility.yul\":11753:11759   */\n      dup5\n        /* \"#utility.yul\":11709:11781   */\n      tag_413\n      jump\t// in\n    tag_424:\n        /* \"#utility.yul\":11346:11788   */\n      swap5\n      swap4\n      pop\n      pop\n      pop\n      pop\n      jump\t// out\n        /* \"#utility.yul\":11794:12126   */\n    tag_101:\n        /* \"#utility.yul\":11915:11919   */\n      0x00\n        /* \"#utility.yul\":11953:11955   */\n      0x40\n        /* \"#utility.yul\":11942:11951   */\n      dup3\n        /* \"#utility.yul\":11938:11956   */\n      add\n        /* \"#utility.yul\":11930:11956   */\n      swap1\n      pop\n        /* \"#utility.yul\":11966:12037   */\n      tag_426\n        /* \"#utility.yul\":12034:12035   */\n      0x00\n        /* \"#utility.yul\":12023:12032   */\n      dup4\n        /* \"#utility.yul\":12019:12036   */\n      add\n        /* \"#utility.yul\":12010:12016   */\n      dup6\n        /* \"#utility.yul\":11966:12037   */\n      tag_324\n      jump\t// in\n    tag_426:\n        /* \"#utility.yul\":12047:12119   */\n      tag_427\n        /* \"#utility.yul\":12115:12117   */\n      0x20\n        /* \"#utility.yul\":12104:12113   */\n      dup4\n        /* \"#utility.yul\":12100:12118   */\n      add\n        /* \"#utility.yul\":12091:12097   */\n      dup5\n        /* \"#utility.yul\":12047:12119   */\n      tag_413\n      jump\t// in\n    tag_427:\n        /* \"#utility.yul\":11794:12126   */\n      swap4\n      swap3\n      pop\n      pop\n      pop\n      jump\t// out\n        /* \"#utility.yul\":12132:12609   */\n    tag_17:\n        /* \"#utility.yul\":12327:12331   */\n      0x00\n        /* \"#utility.yul\":12365:12367   */\n      0x20\n        /* \"#utility.yul\":12354:12363   */\n      dup3\n        /* \"#utility.yul\":12350:12368   */\n      add\n        /* \"#utility.yul\":12342:12368   */\n      swap1\n      pop\n        /* \"#utility.yul\":12414:12423   */\n      dup2\n        /* \"#utility.yul\":12408:12412   */\n      dup2\n        /* \"#utility.yul\":12404:12424   */\n      sub\n        /* \"#utility.yul\":12400:12401   */\n      0x00\n        /* \"#utility.yul\":12389:12398   */\n      dup4\n        /* \"#utility.yul\":12385:12402   */\n      add\n        /* \"#utility.yul\":12378:12425   */\n      mstore\n        /* \"#utility.yul\":12442:12602   */\n      tag_429\n        /* \"#utility.yul\":12597:12601   */\n      dup2\n        /* \"#utility.yul\":12588:12594   */\n      dup5\n        /* \"#utility.yul\":12442:12602   */\n      tag_327\n      jump\t// in\n    tag_429:\n        /* \"#utility.yul\":12434:12602   */\n      swap1\n      pop\n        /* \"#utility.yul\":12132:12609   */\n      swap3\n      swap2\n      pop\n      pop\n      jump\t// out\n        /* \"#utility.yul\":12615:13096   */\n    tag_25:\n        /* \"#utility.yul\":12812:12816   */\n      0x00\n        /* \"#utility.yul\":12850:12852   */\n      0x20\n        /* \"#utility.yul\":12839:12848   */\n      dup3\n        /* \"#utility.yul\":12835:12853   */\n      add\n        /* \"#utility.yul\":12827:12853   */\n      swap1\n      pop\n        /* \"#utility.yul\":12899:12908   */\n      dup2\n        /* \"#utility.yul\":12893:12897   */\n      dup2\n        /* \"#utility.yul\":12889:12909   */\n      sub\n        /* \"#utility.yul\":12885:12886   */\n      0x00\n        /* \"#utility.yul\":12874:12883   */\n      dup4\n        /* \"#utility.yul\":12870:12887   */\n      add\n        /* \"#utility.yul\":12863:12910   */\n      mstore\n        /* \"#utility.yul\":12927:13089   */\n      tag_431\n        /* \"#utility.yul\":13084:13088   */\n      dup2\n        /* \"#utility.yul\":13075:13081   */\n      dup5\n        /* \"#utility.yul\":12927:13089   */\n      tag_341\n      jump\t// in\n    tag_431:\n        /* \"#utility.yul\":12919:13089   */\n      swap1\n      pop\n        /* \"#utility.yul\":12615:13096   */\n      swap3\n      swap2\n      pop\n      pop\n      jump\t// out\n        /* \"#utility.yul\":13102:13521   */\n    tag_194:\n        /* \"#utility.yul\":13268:13272   */\n      0x00\n        /* \"#utility.yul\":13306:13308   */\n      0x20\n        /* \"#utility.yul\":13295:13304   */\n      dup3\n        /* \"#utility.yul\":13291:13309   */\n      add\n        /* \"#utility.yul\":13283:13309   */\n      swap1\n      pop\n        /* \"#utility.yul\":13355:13364   */\n      dup2\n        /* \"#utility.yul\":13349:13353   */\n      dup2\n        /* \"#utility.yul\":13345:13365   */\n      sub\n        /* \"#utility.yul\":13341:13342   */\n      0x00\n        /* \"#utility.yul\":13330:13339   */\n      dup4\n        /* \"#utility.yul\":13326:13343   */\n      add\n        /* \"#utility.yul\":13319:13366   */\n      mstore\n        /* \"#utility.yul\":13383:13514   */\n      tag_433\n        /* \"#utility.yul\":13509:13513   */\n      dup2\n        /* \"#utility.yul\":13383:13514   */\n      tag_363\n      jump\t// in\n    tag_433:\n        /* \"#utility.yul\":13375:13514   */\n      swap1\n      pop\n        /* \"#utility.yul\":13102:13521   */\n      swap2\n      swap1\n      pop\n      jump\t// out\n        /* \"#utility.yul\":13527:13946   */\n    tag_158:\n        /* \"#utility.yul\":13693:13697   */\n      0x00\n        /* \"#utility.yul\":13731:13733   */\n      0x20\n        /* \"#utility.yul\":13720:13729   */\n      dup3\n        /* \"#utility.yul\":13716:13734   */\n      add\n        /* \"#utility.yul\":13708:13734   */\n      swap1\n      pop\n        /* \"#utility.yul\":13780:13789   */\n      dup2\n        /* \"#utility.yul\":13774:13778   */\n      dup2\n        /* \"#utility.yul\":13770:13790   */\n      sub\n        /* \"#utility.yul\":13766:13767   */\n      0x00\n        /* \"#utility.yul\":13755:13764   */\n      dup4\n        /* \"#utility.yul\":13751:13768   */\n      add\n        /* \"#utility.yul\":13744:13791   */\n      mstore\n        /* \"#utility.yul\":13808:13939   */\n      tag_435\n        /* \"#utility.yul\":13934:13938   */\n      dup2\n        /* \"#utility.yul\":13808:13939   */\n      tag_369\n      jump\t// in\n    tag_435:\n        /* \"#utility.yul\":13800:13939   */\n      swap1\n      pop\n        /* \"#utility.yul\":13527:13946   */\n      swap2\n      swap1\n      pop\n      jump\t// out\n        /* \"#utility.yul\":13952:14371   */\n    tag_91:\n        /* \"#utility.yul\":14118:14122   */\n      0x00\n        /* \"#utility.yul\":14156:14158   */\n      0x20\n        /* \"#utility.yul\":14145:14154   */\n      dup3\n        /* \"#utility.yul\":14141:14159   */\n      add\n        /* \"#utility.yul\":14133:14159   */\n      swap1\n      pop\n        /* \"#utility.yul\":14205:14214   */\n      dup2\n        /* \"#utility.yul\":14199:14203   */\n      dup2\n        /* \"#utility.yul\":14195:14215   */\n      sub\n        /* \"#utility.yul\":14191:14192   */\n      0x00\n        /* \"#utility.yul\":14180:14189   */\n      dup4\n        /* \"#utility.yul\":14176:14193   */\n      add\n        /* \"#utility.yul\":14169:14216   */\n      mstore\n        /* \"#utility.yul\":14233:14364   */\n      tag_437\n        /* \"#utility.yul\":14359:14363   */\n      dup2\n        /* \"#utility.yul\":14233:14364   */\n      tag_374\n      jump\t// in\n    tag_437:\n        /* \"#utility.yul\":14225:14364   */\n      swap1\n      pop\n        /* \"#utility.yul\":13952:14371   */\n      swap2\n      swap1\n      pop\n      jump\t// out\n        /* \"#utility.yul\":14377:14796   */\n    tag_130:\n        /* \"#utility.yul\":14543:14547   */\n      0x00\n        /* \"#utility.yul\":14581:14583   */\n      0x20\n        /* \"#utility.yul\":14570:14579   */\n      dup3\n        /* \"#utility.yul\":14566:14584   */\n      add\n        /* \"#utility.yul\":14558:14584   */\n      swap1\n      pop\n        /* \"#utility.yul\":14630:14639   */\n      dup2\n        /* \"#utility.yul\":14624:14628   */\n      dup2\n        /* \"#utility.yul\":14620:14640   */\n      sub\n        /* \"#utility.yul\":14616:14617   */\n      0x00\n        /* \"#utility.yul\":14605:14614   */\n      dup4\n        /* \"#utility.yul\":14601:14618   */\n      add\n        /* \"#utility.yul\":14594:14641   */\n      mstore\n        /* \"#utility.yul\":14658:14789   */\n      tag_439\n        /* \"#utility.yul\":14784:14788   */\n      dup2\n        /* \"#utility.yul\":14658:14789   */\n      tag_379\n      jump\t// in\n    tag_439:\n        /* \"#utility.yul\":14650:14789   */\n      swap1\n      pop\n        /* \"#utility.yul\":14377:14796   */\n      swap2\n      swap1\n      pop\n      jump\t// out\n        /* \"#utility.yul\":14802:15221   */\n    tag_171:\n        /* \"#utility.yul\":14968:14972   */\n      0x00\n        /* \"#utility.yul\":15006:15008   */\n      0x20\n        /* \"#utility.yul\":14995:15004   */\n      dup3\n        /* \"#utility.yul\":14991:15009   */\n      add\n        /* \"#utility.yul\":14983:15009   */\n      swap1\n      pop\n        /* \"#utility.yul\":15055:15064   */\n      dup2\n        /* \"#utility.yul\":15049:15053   */\n      dup2\n        /* \"#utility.yul\":15045:15065   */\n      sub\n        /* \"#utility.yul\":15041:15042   */\n      0x00\n        /* \"#utility.yul\":15030:15039   */\n      dup4\n        /* \"#utility.yul\":15026:15043   */\n      add\n        /* \"#utility.yul\":15019:15066   */\n      mstore\n        /* \"#utility.yul\":15083:15214   */\n      tag_441\n        /* \"#utility.yul\":15209:15213   */\n      dup2\n        /* \"#utility.yul\":15083:15214   */\n      tag_384\n      jump\t// in\n    tag_441:\n        /* \"#utility.yul\":15075:15214   */\n      swap1\n      pop\n        /* \"#utility.yul\":14802:15221   */\n      swap2\n      swap1\n      pop\n      jump\t// out\n        /* \"#utility.yul\":15227:15646   */\n    tag_57:\n        /* \"#utility.yul\":15393:15397   */\n      0x00\n        /* \"#utility.yul\":15431:15433   */\n      0x20\n        /* \"#utility.yul\":15420:15429   */\n      dup3\n        /* \"#utility.yul\":15416:15434   */\n      add\n        /* \"#utility.yul\":15408:15434   */\n      swap1\n      pop\n        /* \"#utility.yul\":15480:15489   */\n      dup2\n        /* \"#utility.yul\":15474:15478   */\n      dup2\n        /* \"#utility.yul\":15470:15490   */\n      sub\n        /* \"#utility.yul\":15466:15467   */\n      0x00\n        /* \"#utility.yul\":15455:15464   */\n      dup4\n        /* \"#utility.yul\":15451:15468   */\n      add\n        /* \"#utility.yul\":15444:15491   */\n      mstore\n        /* \"#utility.yul\":15508:15639   */\n      tag_443\n        /* \"#utility.yul\":15634:15638   */\n      dup2\n        /* \"#utility.yul\":15508:15639   */\n      tag_389\n      jump\t// in\n    tag_443:\n        /* \"#utility.yul\":15500:15639   */\n      swap1\n      pop\n        /* \"#utility.yul\":15227:15646   */\n      swap2\n      swap1\n      pop\n      jump\t// out\n        /* \"#utility.yul\":15652:16071   */\n    tag_180:\n        /* \"#utility.yul\":15818:15822   */\n      0x00\n        /* \"#utility.yul\":15856:15858   */\n      0x20\n        /* \"#utility.yul\":15845:15854   */\n      dup3\n        /* \"#utility.yul\":15841:15859   */\n      add\n        /* \"#utility.yul\":15833:15859   */\n      swap1\n      pop\n        /* \"#utility.yul\":15905:15914   */\n      dup2\n        /* \"#utility.yul\":15899:15903   */\n      dup2\n        /* \"#utility.yul\":15895:15915   */\n      sub\n        /* \"#utility.yul\":15891:15892   */\n      0x00\n        /* \"#utility.yul\":15880:15889   */\n      dup4\n        /* \"#utility.yul\":15876:15893   */\n      add\n        /* \"#utility.yul\":15869:15916   */\n      mstore\n        /* \"#utility.yul\":15933:16064   */\n      tag_445\n        /* \"#utility.yul\":16059:16063   */\n      dup2\n        /* \"#utility.yul\":15933:16064   */\n      tag_394\n      jump\t// in\n    tag_445:\n        /* \"#utility.yul\":15925:16064   */\n      swap1\n      pop\n        /* \"#utility.yul\":15652:16071   */\n      swap2\n      swap1\n      pop\n      jump\t// out\n        /* \"#utility.yul\":16077:16299   */\n    tag_31:\n        /* \"#utility.yul\":16170:16174   */\n      0x00\n        /* \"#utility.yul\":16208:16210   */\n      0x20\n        /* \"#utility.yul\":16197:16206   */\n      dup3\n        /* \"#utility.yul\":16193:16211   */\n      add\n        /* \"#utility.yul\":16185:16211   */\n      swap1\n      pop\n        /* \"#utility.yul\":16221:16292   */\n      tag_447\n        /* \"#utility.yul\":16289:16290   */\n      0x00\n        /* \"#utility.yul\":16278:16287   */\n      dup4\n        /* \"#utility.yul\":16274:16291   */\n      add\n        /* \"#utility.yul\":16265:16271   */\n      dup5\n        /* \"#utility.yul\":16221:16292   */\n      tag_413\n      jump\t// in\n    tag_447:\n        /* \"#utility.yul\":16077:16299   */\n      swap3\n      swap2\n      pop\n      pop\n      jump\t// out\n        /* \"#utility.yul\":16386:16544   */\n    tag_334:\n        /* \"#utility.yul\":16479:16483   */\n      0x00\n        /* \"#utility.yul\":16502:16505   */\n      dup2\n        /* \"#utility.yul\":16494:16505   */\n      swap1\n      pop\n        /* \"#utility.yul\":16532:16536   */\n      0x20\n        /* \"#utility.yul\":16527:16530   */\n      dup3\n        /* \"#utility.yul\":16523:16537   */\n      add\n        /* \"#utility.yul\":16515:16537   */\n      swap1\n      pop\n        /* \"#utility.yul\":16386:16544   */\n      swap2\n      swap1\n      pop\n      jump\t// out\n        /* \"#utility.yul\":16550:16709   */\n    tag_348:\n        /* \"#utility.yul\":16644:16648   */\n      0x00\n        /* \"#utility.yul\":16667:16670   */\n      dup2\n        /* \"#utility.yul\":16659:16670   */\n      swap1\n      pop\n        /* \"#utility.yul\":16697:16701   */\n      0x20\n        /* \"#utility.yul\":16692:16695   */\n      dup3\n        /* \"#utility.yul\":16688:16702   */\n      add\n        /* \"#utility.yul\":16680:16702   */\n      swap1\n      pop\n        /* \"#utility.yul\":16550:16709   */\n      swap2\n      swap1\n      pop\n      jump\t// out\n        /* \"#utility.yul\":16715:16855   */\n    tag_330:\n        /* \"#utility.yul\":16808:16814   */\n      0x00\n        /* \"#utility.yul\":16842:16847   */\n      dup2\n        /* \"#utility.yul\":16836:16848   */\n      mload\n        /* \"#utility.yul\":16826:16848   */\n      swap1\n      pop\n        /* \"#utility.yul\":16715:16855   */\n      swap2\n      swap1\n      pop\n      jump\t// out\n        /* \"#utility.yul\":16861:17002   */\n    tag_344:\n        /* \"#utility.yul\":16955:16961   */\n      0x00\n        /* \"#utility.yul\":16989:16994   */\n      dup2\n        /* \"#utility.yul\":16983:16995   */\n      mload\n        /* \"#utility.yul\":16973:16995   */\n      swap1\n      pop\n        /* \"#utility.yul\":16861:17002   */\n      swap2\n      swap1\n      pop\n      jump\t// out\n        /* \"#utility.yul\":17008:17147   */\n    tag_340:\n        /* \"#utility.yul\":17104:17108   */\n      0x00\n        /* \"#utility.yul\":17136:17140   */\n      0x20\n        /* \"#utility.yul\":17131:17134   */\n      dup3\n        /* \"#utility.yul\":17127:17141   */\n      add\n        /* \"#utility.yul\":17119:17141   */\n      swap1\n      pop\n        /* \"#utility.yul\":17008:17147   */\n      swap2\n      swap1\n      pop\n      jump\t// out\n        /* \"#utility.yul\":17153:17293   */\n    tag_354:\n        /* \"#utility.yul\":17250:17254   */\n      0x00\n        /* \"#utility.yul\":17282:17286   */\n      0x20\n        /* \"#utility.yul\":17277:17280   */\n      dup3\n        /* \"#utility.yul\":17273:17287   */\n      add\n        /* \"#utility.yul\":17265:17287   */\n      swap1\n      pop\n        /* \"#utility.yul\":17153:17293   */\n      swap2\n      swap1\n      pop\n      jump\t// out\n        /* \"#utility.yul\":17299:17509   */\n    tag_332:\n        /* \"#utility.yul\":17424:17435   */\n      0x00\n        /* \"#utility.yul\":17458:17464   */\n      dup3\n        /* \"#utility.yul\":17453:17456   */\n      dup3\n        /* \"#utility.yul\":17446:17465   */\n      mstore\n        /* \"#utility.yul\":17498:17502   */\n      0x20\n        /* \"#utility.yul\":17493:17496   */\n      dup3\n        /* \"#utility.yul\":17489:17503   */\n      add\n        /* \"#utility.yul\":17474:17503   */\n      swap1\n      pop\n        /* \"#utility.yul\":17299:17509   */\n      swap3\n      swap2\n      pop\n      pop\n      jump\t// out\n        /* \"#utility.yul\":17515:17726   */\n    tag_346:\n        /* \"#utility.yul\":17641:17652   */\n      0x00\n        /* \"#utility.yul\":17675:17681   */\n      dup3\n        /* \"#utility.yul\":17670:17673   */\n      dup3\n        /* \"#utility.yul\":17663:17682   */\n      mstore\n        /* \"#utility.yul\":17715:17719   */\n      0x20\n        /* \"#utility.yul\":17710:17713   */\n      dup3\n        /* \"#utility.yul\":17706:17720   */\n      add\n        /* \"#utility.yul\":17691:17720   */\n      swap1\n      pop\n        /* \"#utility.yul\":17515:17726   */\n      swap3\n      swap2\n      pop\n      pop\n      jump\t// out\n        /* \"#utility.yul\":17732:17901   */\n    tag_366:\n        /* \"#utility.yul\":17816:17827   */\n      0x00\n        /* \"#utility.yul\":17850:17856   */\n      dup3\n        /* \"#utility.yul\":17845:17848   */\n      dup3\n        /* \"#utility.yul\":17838:17857   */\n      mstore\n        /* \"#utility.yul\":17890:17894   */\n      0x20\n        /* \"#utility.yul\":17885:17888   */\n      dup3\n        /* \"#utility.yul\":17881:17895   */\n      add\n        /* \"#utility.yul\":17866:17895   */\n      swap1\n      pop\n        /* \"#utility.yul\":17732:17901   */\n      swap3\n      swap2\n      pop\n      pop\n      jump\t// out\n        /* \"#utility.yul\":17907:18212   */\n    tag_255:\n        /* \"#utility.yul\":17947:17950   */\n      0x00\n        /* \"#utility.yul\":17966:17986   */\n      tag_460\n        /* \"#utility.yul\":17984:17985   */\n      dup3\n        /* \"#utility.yul\":17966:17986   */\n      tag_412\n      jump\t// in\n    tag_460:\n        /* \"#utility.yul\":17961:17986   */\n      swap2\n      pop\n        /* \"#utility.yul\":18000:18020   */\n      tag_461\n        /* \"#utility.yul\":18018:18019   */\n      dup4\n        /* \"#utility.yul\":18000:18020   */\n      tag_412\n      jump\t// in\n    tag_461:\n        /* \"#utility.yul\":17995:18020   */\n      swap3\n      pop\n        /* \"#utility.yul\":18154:18155   */\n      dup3\n        /* \"#utility.yul\":18086:18152   */\n      0xffffffffffffffffffffffffffffffffffffffffffffffffffffffffffffffff\n        /* \"#utility.yul\":18082:18156   */\n      sub\n        /* \"#utility.yul\":18079:18080   */\n      dup3\n        /* \"#utility.yul\":18076:18157   */\n      gt\n        /* \"#utility.yul\":18073:18180   */\n      iszero\n      tag_462\n      jumpi\n        /* \"#utility.yul\":18160:18178   */\n      tag_463\n      tag_464\n      jump\t// in\n    tag_463:\n        /* \"#utility.yul\":18073:18180   */\n    tag_462:\n        /* \"#utility.yul\":18204:18205   */\n      dup3\n        /* \"#utility.yul\":18201:18202   */\n      dup3\n        /* \"#utility.yul\":18197:18206   */\n      add\n        /* \"#utility.yul\":18190:18206   */\n      swap1\n      pop\n        /* \"#utility.yul\":17907:18212   */\n      swap3\n      swap2\n      pop\n      pop\n      jump\t// out\n        /* \"#utility.yul\":18218:18403   */\n    tag_259:\n        /* \"#utility.yul\":18258:18259   */\n      0x00\n        /* \"#utility.yul\":18275:18295   */\n      tag_466\n        /* \"#utility.yul\":18293:18294   */\n      dup3\n        /* \"#utility.yul\":18275:18295   */\n      tag_412\n      jump\t// in\n    tag_466:\n        /* \"#utility.yul\":18270:18295   */\n      swap2\n      pop\n        /* \"#utility.yul\":18309:18329   */\n      tag_467\n        /* \"#utility.yul\":18327:18328   */\n      dup4\n        /* \"#utility.yul\":18309:18329   */\n      tag_412\n      jump\t// in\n    tag_467:\n        /* \"#utility.yul\":18304:18329   */\n      swap3\n      pop\n        /* \"#utility.yul\":18348:18349   */\n      dup3\n        /* \"#utility.yul\":18338:18373   */\n      tag_468\n      jumpi\n        /* \"#utility.yul\":18353:18371   */\n      tag_469\n      tag_470\n      jump\t// in\n    tag_469:\n        /* \"#utility.yul\":18338:18373   */\n    tag_468:\n        /* \"#utility.yul\":18395:18396   */\n      dup3\n        /* \"#utility.yul\":18392:18393   */\n      dup3\n        /* \"#utility.yul\":18388:18397   */\n      div\n        /* \"#utility.yul\":18383:18397   */\n      swap1\n      pop\n        /* \"#utility.yul\":18218:18403   */\n      swap3\n      swap2\n      pop\n      pop\n      jump\t// out\n        /* \"#utility.yul\":18409:18757   */\n    tag_257:\n        /* \"#utility.yul\":18449:18456   */\n      0x00\n        /* \"#utility.yul\":18472:18492   */\n      tag_472\n        /* \"#utility.yul\":18490:18491   */\n      dup3\n        /* \"#utility.yul\":18472:18492   */\n      tag_412\n      jump\t// in\n    tag_472:\n        /* \"#utility.yul\":18467:18492   */\n      swap2\n      pop\n        /* \"#utility.yul\":18506:18526   */\n      tag_473\n        /* \"#utility.yul\":18524:18525   */\n      dup4\n        /* \"#utility.yul\":18506:18526   */\n      tag_412\n      jump\t// in\n    tag_473:\n        /* \"#utility.yul\":18501:18526   */\n      swap3\n      pop\n        /* \"#utility.yul\":18694:18695   */\n      dup2\n        /* \"#utility.yul\":18626:18692   */\n      0xffffffffffffffffffffffffffffffffffffffffffffffffffffffffffffffff\n        /* \"#utility.yul\":18622:18696   */\n      div\n        /* \"#utility.yul\":18619:18620   */\n      dup4\n        /* \"#utility.yul\":18616:18697   */\n      gt\n        /* \"#utility.yul\":18611:18612   */\n      dup3\n        /* \"#utility.yul\":18604:18613   */\n      iszero\n        /* \"#utility.yul\":18597:18614   */\n      iszero\n        /* \"#utility.yul\":18593:18698   */\n      and\n        /* \"#utility.yul\":18590:18721   */\n      iszero\n      tag_474\n      jumpi\n        /* \"#utility.yul\":18701:18719   */\n      tag_475\n      tag_464\n      jump\t// in\n    tag_475:\n        /* \"#utility.yul\":18590:18721   */\n    tag_474:\n        /* \"#utility.yul\":18749:18750   */\n      dup3\n        /* \"#utility.yul\":18746:18747   */\n      dup3\n        /* \"#utility.yul\":18742:18751   */\n      mul\n        /* \"#utility.yul\":18731:18751   */\n      swap1\n      pop\n        /* \"#utility.yul\":18409:18757   */\n      swap3\n      swap2\n      pop\n      pop\n      jump\t// out\n        /* \"#utility.yul\":18763:18859   */\n    tag_323:\n        /* \"#utility.yul\":18800:18807   */\n      0x00\n        /* \"#utility.yul\":18829:18853   */\n      tag_477\n        /* \"#utility.yul\":18847:18852   */\n      dup3\n        /* \"#utility.yul\":18829:18853   */\n      tag_478\n      jump\t// in\n    tag_477:\n        /* \"#utility.yul\":18818:18853   */\n      swap1\n      pop\n        /* \"#utility.yul\":18763:18859   */\n      swap2\n      swap1\n      pop\n      jump\t// out\n        /* \"#utility.yul\":18865:18955   */\n    tag_358:\n        /* \"#utility.yul\":18899:18906   */\n      0x00\n        /* \"#utility.yul\":18942:18947   */\n      dup2\n        /* \"#utility.yul\":18935:18948   */\n      iszero\n        /* \"#utility.yul\":18928:18949   */\n      iszero\n        /* \"#utility.yul\":18917:18949   */\n      swap1\n      pop\n        /* \"#utility.yul\":18865:18955   */\n      swap2\n      swap1\n      pop\n      jump\t// out\n        /* \"#utility.yul\":18961:19038   */\n    tag_362:\n        /* \"#utility.yul\":18998:19005   */\n      0x00\n        /* \"#utility.yul\":19027:19032   */\n      dup2\n        /* \"#utility.yul\":19016:19032   */\n      swap1\n      pop\n        /* \"#utility.yul\":18961:19038   */\n      swap2\n      swap1\n      pop\n      jump\t// out\n        /* \"#utility.yul\":19044:19170   */\n    tag_478:\n        /* \"#utility.yul\":19081:19088   */\n      0x00\n        /* \"#utility.yul\":19121:19163   */\n      0xffffffffffffffffffffffffffffffffffffffff\n        /* \"#utility.yul\":19114:19119   */\n      dup3\n        /* \"#utility.yul\":19110:19164   */\n      and\n        /* \"#utility.yul\":19099:19164   */\n      swap1\n      pop\n        /* \"#utility.yul\":19044:19170   */\n      swap2\n      swap1\n      pop\n      jump\t// out\n        /* \"#utility.yul\":19176:19253   */\n    tag_412:\n        /* \"#utility.yul\":19213:19220   */\n      0x00\n        /* \"#utility.yul\":19242:19247   */\n      dup2\n        /* \"#utility.yul\":19231:19247   */\n      swap1\n      pop\n        /* \"#utility.yul\":19176:19253   */\n      swap2\n      swap1\n      pop\n      jump\t// out\n        /* \"#utility.yul\":19259:19492   */\n    tag_141:\n        /* \"#utility.yul\":19298:19301   */\n      0x00\n        /* \"#utility.yul\":19321:19345   */\n      tag_484\n        /* \"#utility.yul\":19339:19344   */\n      dup3\n        /* \"#utility.yul\":19321:19345   */\n      tag_412\n      jump\t// in\n    tag_484:\n        /* \"#utility.yul\":19312:19345   */\n      swap2\n      pop\n        /* \"#utility.yul\":19367:19433   */\n      0xffffffffffffffffffffffffffffffffffffffffffffffffffffffffffffffff\n        /* \"#utility.yul\":19360:19365   */\n      dup3\n        /* \"#utility.yul\":19357:19434   */\n      eq\n        /* \"#utility.yul\":19354:19457   */\n      iszero\n      tag_485\n      jumpi\n        /* \"#utility.yul\":19437:19455   */\n      tag_486\n      tag_464\n      jump\t// in\n    tag_486:\n        /* \"#utility.yul\":19354:19457   */\n    tag_485:\n        /* \"#utility.yul\":19484:19485   */\n      0x01\n        /* \"#utility.yul\":19477:19482   */\n      dup3\n        /* \"#utility.yul\":19473:19486   */\n      add\n        /* \"#utility.yul\":19466:19486   */\n      swap1\n      pop\n        /* \"#utility.yul\":19259:19492   */\n      swap2\n      swap1\n      pop\n      jump\t// out\n        /* \"#utility.yul\":19498:19678   */\n    tag_464:\n        /* \"#utility.yul\":19546:19623   */\n      0x4e487b7100000000000000000000000000000000000000000000000000000000\n        /* \"#utility.yul\":19543:19544   */\n      0x00\n        /* \"#utility.yul\":19536:19624   */\n      mstore\n        /* \"#utility.yul\":19643:19647   */\n      0x11\n        /* \"#utility.yul\":19640:19641   */\n      0x04\n        /* \"#utility.yul\":19633:19648   */\n      mstore\n        /* \"#utility.yul\":19667:19671   */\n      0x24\n        /* \"#utility.yul\":19664:19665   */\n      0x00\n        /* \"#utility.yul\":19657:19672   */\n      revert\n        /* \"#utility.yul\":19684:19864   */\n    tag_470:\n        /* \"#utility.yul\":19732:19809   */\n      0x4e487b7100000000000000000000000000000000000000000000000000000000\n        /* \"#utility.yul\":19729:19730   */\n      0x00\n        /* \"#utility.yul\":19722:19810   */\n      mstore\n        /* \"#utility.yul\":19829:19833   */\n      0x12\n        /* \"#utility.yul\":19826:19827   */\n      0x04\n        /* \"#utility.yul\":19819:19834   */\n      mstore\n        /* \"#utility.yul\":19853:19857   */\n      0x24\n        /* \"#utility.yul\":19850:19851   */\n      0x00\n        /* \"#utility.yul\":19843:19858   */\n      revert\n        /* \"#utility.yul\":19870:20050   */\n    tag_137:\n        /* \"#utility.yul\":19918:19995   */\n      0x4e487b7100000000000000000000000000000000000000000000000000000000\n        /* \"#utility.yul\":19915:19916   */\n      0x00\n        /* \"#utility.yul\":19908:19996   */\n      mstore\n        /* \"#utility.yul\":20015:20019   */\n      0x32\n        /* \"#utility.yul\":20012:20013   */\n      0x04\n        /* \"#utility.yul\":20005:20020   */\n      mstore\n        /* \"#utility.yul\":20039:20043   */\n      0x24\n        /* \"#utility.yul\":20036:20037   */\n      0x00\n        /* \"#utility.yul\":20029:20044   */\n      revert\n        /* \"#utility.yul\":20179:20296   */\n    tag_291:\n        /* \"#utility.yul\":20288:20289   */\n      0x00\n        /* \"#utility.yul\":20285:20286   */\n      dup1\n        /* \"#utility.yul\":20278:20290   */\n      revert\n        /* \"#utility.yul\":20302:20455   */\n    tag_368:\n        /* \"#utility.yul\":20442:20447   */\n      0x3078330000000000000000000000000000000000000000000000000000000000\n        /* \"#utility.yul\":20438:20439   */\n      0x00\n        /* \"#utility.yul\":20430:20436   */\n      dup3\n        /* \"#utility.yul\":20426:20440   */\n      add\n        /* \"#utility.yul\":20419:20448   */\n      mstore\n        /* \"#utility.yul\":20302:20455   */\n      pop\n      jump\t// out\n        /* \"#utility.yul\":20461:20614   */\n    tag_373:\n        /* \"#utility.yul\":20601:20606   */\n      0x3078370000000000000000000000000000000000000000000000000000000000\n        /* \"#utility.yul\":20597:20598   */\n      0x00\n        /* \"#utility.yul\":20589:20595   */\n      dup3\n        /* \"#utility.yul\":20585:20599   */\n      add\n        /* \"#utility.yul\":20578:20607   */\n      mstore\n        /* \"#utility.yul\":20461:20614   */\n      pop\n      jump\t// out\n        /* \"#utility.yul\":20620:20773   */\n    tag_378:\n        /* \"#utility.yul\":20760:20765   */\n      0x3078340000000000000000000000000000000000000000000000000000000000\n        /* \"#utility.yul\":20756:20757   */\n      0x00\n        /* \"#utility.yul\":20748:20754   */\n      dup3\n        /* \"#utility.yul\":20744:20758   */\n      add\n        /* \"#utility.yul\":20737:20766   */\n      mstore\n        /* \"#utility.yul\":20620:20773   */\n      pop\n      jump\t// out\n        /* \"#utility.yul\":20779:20932   */\n    tag_383:\n        /* \"#utility.yul\":20919:20924   */\n      0x3078380000000000000000000000000000000000000000000000000000000000\n        /* \"#utility.yul\":20915:20916   */\n      0x00\n        /* \"#utility.yul\":20907:20913   */\n      dup3\n        /* \"#utility.yul\":20903:20917   */\n      add\n        /* \"#utility.yul\":20896:20925   */\n      mstore\n        /* \"#utility.yul\":20779:20932   */\n      pop\n      jump\t// out\n        /* \"#utility.yul\":20938:21091   */\n    tag_388:\n        /* \"#utility.yul\":21078:21083   */\n      0x3078350000000000000000000000000000000000000000000000000000000000\n        /* \"#utility.yul\":21074:21075   */\n      0x00\n        /* \"#utility.yul\":21066:21072   */\n      dup3\n        /* \"#utility.yul\":21062:21076   */\n      add\n        /* \"#utility.yul\":21055:21084   */\n      mstore\n        /* \"#utility.yul\":20938:21091   */\n      pop\n      jump\t// out\n        /* \"#utility.yul\":21097:21250   */\n    tag_393:\n        /* \"#utility.yul\":21237:21242   */\n      0x3078320000000000000000000000000000000000000000000000000000000000\n        /* \"#utility.yul\":21233:21234   */\n      0x00\n        /* \"#utility.yul\":21225:21231   */\n      dup3\n        /* \"#utility.yul\":21221:21235   */\n      add\n        /* \"#utility.yul\":21214:21243   */\n      mstore\n        /* \"#utility.yul\":21097:21250   */\n      pop\n      jump\t// out\n        /* \"#utility.yul\":21256:21409   */\n    tag_398:\n        /* \"#utility.yul\":21396:21401   */\n      0x3078360000000000000000000000000000000000000000000000000000000000\n        /* \"#utility.yul\":21392:21393   */\n      0x00\n        /* \"#utility.yul\":21384:21390   */\n      dup3\n        /* \"#utility.yul\":21380:21394   */\n      add\n        /* \"#utility.yul\":21373:21402   */\n      mstore\n        /* \"#utility.yul\":21256:21409   */\n      pop\n      jump\t// out\n        /* \"#utility.yul\":21415:21537   */\n    tag_269:\n        /* \"#utility.yul\":21488:21512   */\n      tag_501\n        /* \"#utility.yul\":21506:21511   */\n      dup2\n        /* \"#utility.yul\":21488:21512   */\n      tag_323\n      jump\t// in\n    tag_501:\n        /* \"#utility.yul\":21481:21486   */\n      dup2\n        /* \"#utility.yul\":21478:21513   */\n      eq\n        /* \"#utility.yul\":21468:21531   */\n      tag_502\n      jumpi\n        /* \"#utility.yul\":21527:21528   */\n      0x00\n        /* \"#utility.yul\":21524:21525   */\n      dup1\n        /* \"#utility.yul\":21517:21529   */\n      revert\n        /* \"#utility.yul\":21468:21531   */\n    tag_502:\n        /* \"#utility.yul\":21415:21537   */\n      pop\n      jump\t// out\n        /* \"#utility.yul\":21543:21659   */\n    tag_273:\n        /* \"#utility.yul\":21613:21634   */\n      tag_504\n        /* \"#utility.yul\":21628:21633   */\n      dup2\n        /* \"#utility.yul\":21613:21634   */\n      tag_358\n      jump\t// in\n    tag_504:\n        /* \"#utility.yul\":21606:21611   */\n      dup2\n        /* \"#utility.yul\":21603:21635   */\n      eq\n        /* \"#utility.yul\":21593:21653   */\n      tag_505\n      jumpi\n        /* \"#utility.yul\":21649:21650   */\n      0x00\n        /* \"#utility.yul\":21646:21647   */\n      dup1\n        /* \"#utility.yul\":21639:21651   */\n      revert\n        /* \"#utility.yul\":21593:21653   */\n    tag_505:\n        /* \"#utility.yul\":21543:21659   */\n      pop\n      jump\t// out\n        /* \"#utility.yul\":21665:21787   */\n    tag_280:\n        /* \"#utility.yul\":21738:21762   */\n      tag_507\n        /* \"#utility.yul\":21756:21761   */\n      dup2\n        /* \"#utility.yul\":21738:21762   */\n      tag_362\n      jump\t// in\n    tag_507:\n        /* \"#utility.yul\":21731:21736   */\n      dup2\n        /* \"#utility.yul\":21728:21763   */\n      eq\n        /* \"#utility.yul\":21718:21781   */\n      tag_508\n      jumpi\n        /* \"#utility.yul\":21777:21778   */\n      0x00\n        /* \"#utility.yul\":21774:21775   */\n      dup1\n        /* \"#utility.yul\":21767:21779   */\n      revert\n        /* \"#utility.yul\":21718:21781   */\n    tag_508:\n        /* \"#utility.yul\":21665:21787   */\n      pop\n      jump\t// out\n        /* \"#utility.yul\":21793:21915   */\n    tag_284:\n        /* \"#utility.yul\":21866:21890   */\n      tag_510\n        /* \"#utility.yul\":21884:21889   */\n      dup2\n        /* \"#utility.yul\":21866:21890   */\n      tag_412\n      jump\t// in\n    tag_510:\n        /* \"#utility.yul\":21859:21864   */\n      dup2\n        /* \"#utility.yul\":21856:21891   */\n      eq\n        /* \"#utility.yul\":21846:21909   */\n      tag_511\n      jumpi\n        /* \"#utility.yul\":21905:21906   */\n      0x00\n        /* \"#utility.yul\":21902:21903   */\n      dup1\n        /* \"#utility.yul\":21895:21907   */\n      revert\n        /* \"#utility.yul\":21846:21909   */\n    tag_511:\n        /* \"#utility.yul\":21793:21915   */\n      pop\n      jump\t// out\n\n    auxdata: 0xa2646970667358221220c829cc31cbacf822e5183072ae7c3c0c83e15d5d36423ae34ae919fa2b354a8564736f6c63430008070033\n}\n",
				"bytecode": {
					"linkReferences": {},
					"object": "60806040526000600660006101000a81548160ff0219169083151502179055503480156200002c57600080fd5b506040516200255338038062002553833981810160405281019062000052919062000164565b603b81101562000099576040517f08c379a00000000000000000000000000000000000000000000000000000000081526004016200009090620001d2565b60405180910390fd5b336000806101000a81548173ffffffffffffffffffffffffffffffffffffffff021916908373ffffffffffffffffffffffffffffffffffffffff16021790555081600160006101000a81548173ffffffffffffffffffffffffffffffffffffffff021916908373ffffffffffffffffffffffffffffffffffffffff160217905550804262000128919062000205565b600581905550505062000331565b6000815190506200014781620002fd565b92915050565b6000815190506200015e8162000317565b92915050565b600080604083850312156200017e576200017d620002cf565b5b60006200018e8582860162000136565b9250506020620001a1858286016200014d565b9150509250929050565b6000620001ba600383620001f4565b9150620001c782620002d4565b602082019050919050565b60006020820190508181036000830152620001ed81620001ab565b9050919050565b600082825260208201905092915050565b6000620002128262000296565b91506200021f8362000296565b9250827fffffffffffffffffffffffffffffffffffffffffffffffffffffffffffffffff03821115620002575762000256620002a0565b5b828201905092915050565b60006200026f8262000276565b9050919050565b600073ffffffffffffffffffffffffffffffffffffffff82169050919050565b6000819050919050565b7f4e487b7100000000000000000000000000000000000000000000000000000000600052601160045260246000fd5b600080fd5b7f3078310000000000000000000000000000000000000000000000000000000000600082015250565b620003088162000262565b81146200031457600080fd5b50565b620003228162000296565b81146200032e57600080fd5b50565b61221280620003416000396000f3fe608060405234801561001057600080fd5b506004361061009e5760003560e01c8063d48fe22211610066578063d48fe22214610125578063d941676214610143578063e556dcb21461015f578063e90f4e7c1461017d578063ec1abd7f146101995761009e565b8063079402c1146100a357806309f82a8a146100c15780630dc96015146100df57806343d726d6146100fd5780638b5a8db214610107575b600080fd5b6100ab6101b7565b6040516100b89190611c91565b60405180910390f35b6100c9610234565b6040516100d69190611bed565b60405180910390f35b6100e761025e565b6040516100f49190611cb3565b60405180910390f35b61010561039b565b005b61010f6103df565b60405161011c9190611db5565b60405180910390f35b61012d6103ec565b60405161013a9190611c91565b60405180910390f35b61015d60048036038101906101589190611848565b610469565b005b6101676107b8565b6040516101749190611db5565b60405180910390f35b610197600480360381019061019291906118c8565b6107c2565b005b6101a1610ae8565b6040516101ae9190611bed565b60405180910390f35b60606003805480602002602001604051908101604052809291908181526020016000905b8282101561022b57838290600052602060002090600302016040518060600160405290816000820154815260200160018201548152602001600282015481525050815260200190600101906101db565b50505050905090565b6000600160009054906101000a900473ffffffffffffffffffffffffffffffffffffffff16905090565b6060600660009054906101000a900460ff166102af576040517f08c379a00000000000000000000000000000000000000000000000000000000081526004016102a690611d75565b60405180910390fd5b6004805480602002602001604051908101604052809291908181526020016000905b8282101561039257838290600052602060002090600402016040518060a00160405290816000820154815260200160018201548152602001600282015481526020016003820160009054906101000a900460ff161515151581526020016003820160019054906101000a900473ffffffffffffffffffffffffffffffffffffffff1673ffffffffffffffffffffffffffffffffffffffff1673ffffffffffffffffffffffffffffffffffffffff1681525050815260200190600101906102d1565b50505050905090565b6103a3610b11565b6001600660006101000a81548160ff0219169083151502179055506000806103c9610b71565b80925081935050506103db8282610bfb565b5050565b6000600480549050905090565b60606002805480602002602001604051908101604052809291908181526020016000905b828210156104605783829060005260206000209060030201604051806060016040529081600082015481526020016001820154815260200160028201548152505081526020019060010190610410565b50505050905090565b610471610c2a565b61047a33610c89565b6000600160009054906101000a900473ffffffffffffffffffffffffffffffffffffffff1673ffffffffffffffffffffffffffffffffffffffff166364a406426040518163ffffffff1660e01b815260040160206040518083038186803b1580156104e457600080fd5b505afa1580156104f8573d6000803e3d6000fd5b505050506040513d601f19601f8201168201806040525081019061051c919061189b565b905060008073ffffffffffffffffffffffffffffffffffffffff1663dd62ed3e33306040518363ffffffff1660e01b815260040161055b929190611c08565b60206040518083038186803b15801561057357600080fd5b505afa158015610587573d6000803e3d6000fd5b505050506040513d601f19601f820116820180604052508101906105ab919061189b565b9050818110156105f0576040517f08c379a00000000000000000000000000000000000000000000000000000000081526004016105e790611d15565b60405180910390fd5b600073ffffffffffffffffffffffffffffffffffffffff166323b872dd3330856040518463ffffffff1660e01b815260040161062e93929190611c31565b602060405180830381600087803b15801561064857600080fd5b505af115801561065c573d6000803e3d6000fd5b505050506040513d601f19601f82011682018060405250810190610680919061181b565b5060006040518060a0016040528086815260200185815260200142815260200187151581526020013373ffffffffffffffffffffffffffffffffffffffff168152509050600481908060018154018082558091505060019003906000526020600020906004020160009091909190915060008201518160000155602082015181600101556040820151816002015560608201518160030160006101000a81548160ff02191690831515021790555060808201518160030160016101000a81548173ffffffffffffffffffffffffffffffffffffffff021916908373ffffffffffffffffffffffffffffffffffffffff16021790555050507f4d99b957a2bc29a30ebd96a7be8e68fe50a3c701db28a91436490b7d53870ca433426040516107a8929190611c68565b60405180910390a1505050505050565b6000600554905090565b6107ca610c2a565b6107d333610f47565b600060405180606001604052808481526020018381526020014281525090506000600160009054906101000a900473ffffffffffffffffffffffffffffffffffffffff1673ffffffffffffffffffffffffffffffffffffffff1663650d993b6040518163ffffffff1660e01b815260040160206040518083038186803b15801561085c57600080fd5b505afa158015610870573d6000803e3d6000fd5b505050506040513d601f19601f8201168201806040525081019061089491906117ee565b73ffffffffffffffffffffffffffffffffffffffff163373ffffffffffffffffffffffffffffffffffffffff1614156109ba5760028290806001815401808255809150506001900390600052602060002090600302016000909190919091506000820151816000015560208201518160010155604082015181600201555050600160009054906101000a900473ffffffffffffffffffffffffffffffffffffffff1673ffffffffffffffffffffffffffffffffffffffff1663650d993b6040518163ffffffff1660e01b815260040160206040518083038186803b15801561097b57600080fd5b505afa15801561098f573d6000803e3d6000fd5b505050506040513d601f19601f820116820180604052508101906109b391906117ee565b9050610aa9565b60038290806001815401808255809150506001900390600052602060002090600302016000909190919091506000820151816000015560208201518160010155604082015181600201555050600160009054906101000a900473ffffffffffffffffffffffffffffffffffffffff1673ffffffffffffffffffffffffffffffffffffffff16636c1032af6040518163ffffffff1660e01b815260040160206040518083038186803b158015610a6e57600080fd5b505afa158015610a82573d6000803e3d6000fd5b505050506040513d601f19601f82011682018060405250810190610aa691906117ee565b90505b7fddd8b0b68b851797d2db498006cb2642afefe53623db382ff4994d443938da838142604051610ada929190611c68565b60405180910390a150505050565b60008060009054906101000a900473ffffffffffffffffffffffffffffffffffffffff16905090565b600660009054906101000a900460ff16158015610b3057506005544210155b610b6f576040517f08c379a0000000000000000000000000000000000000000000000000000000008152600401610b6690611d35565b60405180910390fd5b565b60008060008060005b600480549050811015610bee5760048181548110610b9b57610b9a61202d565b5b906000526020600020906004020160030160009054906101000a900460ff1615610bd05782610bc990611f86565b9250610bdd565b81610bda90611f86565b91505b80610be790611f86565b9050610b7a565b5081819350935050509091565b6000610c07838361112c565b9050610c1281611149565b610c1d8383836113d3565b610c2561151d565b505050565b600660009054906101000a900460ff16158015610c48575060055442105b610c87576040517f08c379a0000000000000000000000000000000000000000000000000000000008152600401610c7e90611cf5565b60405180910390fd5b565b600160009054906101000a900473ffffffffffffffffffffffffffffffffffffffff1673ffffffffffffffffffffffffffffffffffffffff1663650d993b6040518163ffffffff1660e01b815260040160206040518083038186803b158015610cf157600080fd5b505afa158015610d05573d6000803e3d6000fd5b505050506040513d601f19601f82011682018060405250810190610d2991906117ee565b73ffffffffffffffffffffffffffffffffffffffff168173ffffffffffffffffffffffffffffffffffffffff1614158015610e2f5750600160009054906101000a900473ffffffffffffffffffffffffffffffffffffffff1673ffffffffffffffffffffffffffffffffffffffff16636c1032af6040518163ffffffff1660e01b815260040160206040518083038186803b158015610dc757600080fd5b505afa158015610ddb573d6000803e3d6000fd5b505050506040513d601f19601f82011682018060405250810190610dff91906117ee565b73ffffffffffffffffffffffffffffffffffffffff168173ffffffffffffffffffffffffffffffffffffffff1614155b610e6e576040517f08c379a0000000000000000000000000000000000000000000000000000000008152600401610e6590611d55565b60405180910390fd5b60005b600480549050811015610f43578173ffffffffffffffffffffffffffffffffffffffff1660048281548110610ea957610ea861202d565b5b906000526020600020906004020160030160019054906101000a900473ffffffffffffffffffffffffffffffffffffffff1673ffffffffffffffffffffffffffffffffffffffff161415610f32576040517f08c379a0000000000000000000000000000000000000000000000000000000008152600401610f2990611d95565b60405180910390fd5b80610f3c90611f86565b9050610e71565b5050565b600160009054906101000a900473ffffffffffffffffffffffffffffffffffffffff1673ffffffffffffffffffffffffffffffffffffffff1663650d993b6040518163ffffffff1660e01b815260040160206040518083038186803b158015610faf57600080fd5b505afa158015610fc3573d6000803e3d6000fd5b505050506040513d601f19601f82011682018060405250810190610fe791906117ee565b73ffffffffffffffffffffffffffffffffffffffff168173ffffffffffffffffffffffffffffffffffffffff1614806110ea5750600160009054906101000a900473ffffffffffffffffffffffffffffffffffffffff1673ffffffffffffffffffffffffffffffffffffffff16636c1032af6040518163ffffffff1660e01b815260040160206040518083038186803b15801561108357600080fd5b505afa158015611097573d6000803e3d6000fd5b505050506040513d601f19601f820116820180604052508101906110bb91906117ee565b73ffffffffffffffffffffffffffffffffffffffff168173ffffffffffffffffffffffffffffffffffffffff16145b611129576040517f08c379a000000000000000000000000000000000000000000000000000000000815260040161112090611cd5565b60405180910390fd5b50565b600082821061113e5760009050611143565b600190505b92915050565b600081156111f857600160009054906101000a900473ffffffffffffffffffffffffffffffffffffffff1673ffffffffffffffffffffffffffffffffffffffff1663650d993b6040518163ffffffff1660e01b815260040160206040518083038186803b1580156111b957600080fd5b505afa1580156111cd573d6000803e3d6000fd5b505050506040513d601f19601f820116820180604052508101906111f191906117ee565b905061129b565b600160009054906101000a900473ffffffffffffffffffffffffffffffffffffffff1673ffffffffffffffffffffffffffffffffffffffff16636c1032af6040518163ffffffff1660e01b815260040160206040518083038186803b15801561126057600080fd5b505afa158015611274573d6000803e3d6000fd5b505050506040513d601f19601f8201168201806040525081019061129891906117ee565b90505b6000600160009054906101000a900473ffffffffffffffffffffffffffffffffffffffff1673ffffffffffffffffffffffffffffffffffffffff166398d5fdca6040518163ffffffff1660e01b815260040160206040518083038186803b15801561130557600080fd5b505afa158015611319573d6000803e3d6000fd5b505050506040513d601f19601f8201168201806040525081019061133d919061189b565b9050600073ffffffffffffffffffffffffffffffffffffffff1663a9059cbb83836040518363ffffffff1660e01b815260040161137b929190611c68565b602060405180830381600087803b15801561139557600080fd5b505af11580156113a9573d6000803e3d6000fd5b505050506040513d601f19601f820116820180604052508101906113cd919061181b565b50505050565b60006113e0848484611659565b905060005b60048054905081101561151657821515600482815481106114095761140861202d565b5b906000526020600020906004020160030160009054906101000a900460ff161515141561150557600073ffffffffffffffffffffffffffffffffffffffff1663a9059cbb600483815481106114615761146061202d565b5b906000526020600020906004020160030160019054906101000a900473ffffffffffffffffffffffffffffffffffffffff16846040518363ffffffff1660e01b81526004016114b1929190611c68565b602060405180830381600087803b1580156114cb57600080fd5b505af11580156114df573d6000803e3d6000fd5b505050506040513d601f19601f82011682018060405250810190611503919061181b565b505b8061150f90611f86565b90506113e5565b5050505050565b60008073ffffffffffffffffffffffffffffffffffffffff166370a08231306040518263ffffffff1660e01b81526004016115589190611bed565b60206040518083038186803b15801561157057600080fd5b505afa158015611584573d6000803e3d6000fd5b505050506040513d601f19601f820116820180604052508101906115a8919061189b565b90506000811461165657600073ffffffffffffffffffffffffffffffffffffffff1663a9059cbb73604e7e66c0c2897325375dc85aa7686e432236a1836040518363ffffffff1660e01b8152600401611602929190611c68565b602060405180830381600087803b15801561161c57600080fd5b505af1158015611630573d6000803e3d6000fd5b505050506040513d601f19601f82011682018060405250810190611654919061181b565b505b50565b600080600160009054906101000a900473ffffffffffffffffffffffffffffffffffffffff1673ffffffffffffffffffffffffffffffffffffffff166364a406426040518163ffffffff1660e01b815260040160206040518083038186803b1580156116c457600080fd5b505afa1580156116d8573d6000803e3d6000fd5b505050506040513d601f19601f820116820180604052508101906116fc919061189b565b9050600083156117305785826001876117159190611e53565b61171f9190611eda565b6117299190611ea9565b9050611756565b848260018861173f9190611e53565b6117499190611eda565b6117539190611ea9565b90505b81816117629190611e53565b905080925050509392505050565b60008151905061177f81612180565b92915050565b60008135905061179481612197565b92915050565b6000815190506117a981612197565b92915050565b6000813590506117be816121ae565b92915050565b6000813590506117d3816121c5565b92915050565b6000815190506117e8816121c5565b92915050565b6000602082840312156118045761180361205c565b5b600061181284828501611770565b91505092915050565b6000602082840312156118315761183061205c565b5b600061183f8482850161179a565b91505092915050565b6000806000606084860312156118615761186061205c565b5b600061186f86828701611785565b9350506020611880868287016117c4565b9250506040611891868287016117af565b9150509250925092565b6000602082840312156118b1576118b061205c565b5b60006118bf848285016117d9565b91505092915050565b600080604083850312156118df576118de61205c565b5b60006118ed858286016117c4565b92505060206118fe858286016117af565b9150509250929050565b60006119148383611b25565b60608301905092915050565b600061192c8383611b67565b60a08301905092915050565b61194181611f34565b82525050565b61195081611f34565b82525050565b600061196182611df0565b61196b8185611e20565b935061197683611dd0565b8060005b838110156119a757815161198e8882611908565b975061199983611e06565b92505060018101905061197a565b5085935050505092915050565b60006119bf82611dfb565b6119c98185611e31565b93506119d483611de0565b8060005b83811015611a055781516119ec8882611920565b97506119f783611e13565b9250506001810190506119d8565b5085935050505092915050565b611a1b81611f46565b82525050565b611a2a81611f52565b82525050565b6000611a3d600383611e42565b9150611a4882612061565b602082019050919050565b6000611a60600383611e42565b9150611a6b8261208a565b602082019050919050565b6000611a83600383611e42565b9150611a8e826120b3565b602082019050919050565b6000611aa6600383611e42565b9150611ab1826120dc565b602082019050919050565b6000611ac9600383611e42565b9150611ad482612105565b602082019050919050565b6000611aec600383611e42565b9150611af78261212e565b602082019050919050565b6000611b0f600383611e42565b9150611b1a82612157565b602082019050919050565b606082016000820151611b3b6000850182611bcf565b506020820151611b4e6020850182611a21565b506040820151611b616040850182611bcf565b50505050565b60a082016000820151611b7d6000850182611bcf565b506020820151611b906020850182611a21565b506040820151611ba36040850182611bcf565b506060820151611bb66060850182611a12565b506080820151611bc96080850182611938565b50505050565b611bd881611f7c565b82525050565b611be781611f7c565b82525050565b6000602082019050611c026000830184611947565b92915050565b6000604082019050611c1d6000830185611947565b611c2a6020830184611947565b9392505050565b6000606082019050611c466000830186611947565b611c536020830185611947565b611c606040830184611bde565b949350505050565b6000604082019050611c7d6000830185611947565b611c8a6020830184611bde565b9392505050565b60006020820190508181036000830152611cab8184611956565b905092915050565b60006020820190508181036000830152611ccd81846119b4565b905092915050565b60006020820190508181036000830152611cee81611a30565b9050919050565b60006020820190508181036000830152611d0e81611a53565b9050919050565b60006020820190508181036000830152611d2e81611a76565b9050919050565b60006020820190508181036000830152611d4e81611a99565b9050919050565b60006020820190508181036000830152611d6e81611abc565b9050919050565b60006020820190508181036000830152611d8e81611adf565b9050919050565b60006020820190508181036000830152611dae81611b02565b9050919050565b6000602082019050611dca6000830184611bde565b92915050565b6000819050602082019050919050565b6000819050602082019050919050565b600081519050919050565b600081519050919050565b6000602082019050919050565b6000602082019050919050565b600082825260208201905092915050565b600082825260208201905092915050565b600082825260208201905092915050565b6000611e5e82611f7c565b9150611e6983611f7c565b9250827fffffffffffffffffffffffffffffffffffffffffffffffffffffffffffffffff03821115611e9e57611e9d611fcf565b5b828201905092915050565b6000611eb482611f7c565b9150611ebf83611f7c565b925082611ecf57611ece611ffe565b5b828204905092915050565b6000611ee582611f7c565b9150611ef083611f7c565b9250817fffffffffffffffffffffffffffffffffffffffffffffffffffffffffffffffff0483118215151615611f2957611f28611fcf565b5b828202905092915050565b6000611f3f82611f5c565b9050919050565b60008115159050919050565b6000819050919050565b600073ffffffffffffffffffffffffffffffffffffffff82169050919050565b6000819050919050565b6000611f9182611f7c565b91507fffffffffffffffffffffffffffffffffffffffffffffffffffffffffffffffff821415611fc457611fc3611fcf565b5b600182019050919050565b7f4e487b7100000000000000000000000000000000000000000000000000000000600052601160045260246000fd5b7f4e487b7100000000000000000000000000000000000000000000000000000000600052601260045260246000fd5b7f4e487b7100000000000000000000000000000000000000000000000000000000600052603260045260246000fd5b600080fd5b7f3078330000000000000000000000000000000000000000000000000000000000600082015250565b7f3078370000000000000000000000000000000000000000000000000000000000600082015250565b7f3078340000000000000000000000000000000000000000000000000000000000600082015250565b7f3078380000000000000000000000000000000000000000000000000000000000600082015250565b7f3078350000000000000000000000000000000000000000000000000000000000600082015250565b7f3078320000000000000000000000000000000000000000000000000000000000600082015250565b7f3078360000000000000000000000000000000000000000000000000000000000600082015250565b61218981611f34565b811461219457600080fd5b50565b6121a081611f46565b81146121ab57600080fd5b50565b6121b781611f52565b81146121c257600080fd5b50565b6121ce81611f7c565b81146121d957600080fd5b5056fea2646970667358221220c829cc31cbacf822e5183072ae7c3c0c83e15d5d36423ae34ae919fa2b354a8564736f6c63430008070033",
					"opcodes": "PUSH1 0x80 PUSH1 0x40 MSTORE PUSH1 0x0 PUSH1 0x6 PUSH1 0x0 PUSH2 0x100 EXP DUP2 SLOAD DUP2 PUSH1 0xFF MUL NOT AND SWAP1 DUP4 ISZERO ISZERO MUL OR SWAP1 SSTORE POP CALLVALUE DUP1 ISZERO PUSH3 0x2C JUMPI PUSH1 0x0 DUP1 REVERT JUMPDEST POP PUSH1 0x40 MLOAD PUSH3 0x2553 CODESIZE SUB DUP1 PUSH3 0x2553 DUP4 CODECOPY DUP2 DUP2 ADD PUSH1 0x40 MSTORE DUP2 ADD SWAP1 PUSH3 0x52 SWAP2 SWAP1 PUSH3 0x164 JUMP JUMPDEST PUSH1 0x3B DUP2 LT ISZERO PUSH3 0x99 JUMPI PUSH1 0x40 MLOAD PUSH32 0x8C379A000000000000000000000000000000000000000000000000000000000 DUP2 MSTORE PUSH1 0x4 ADD PUSH3 0x90 SWAP1 PUSH3 0x1D2 JUMP JUMPDEST PUSH1 0x40 MLOAD DUP1 SWAP2 SUB SWAP1 REVERT JUMPDEST CALLER PUSH1 0x0 DUP1 PUSH2 0x100 EXP DUP2 SLOAD DUP2 PUSH20 0xFFFFFFFFFFFFFFFFFFFFFFFFFFFFFFFFFFFFFFFF MUL NOT AND SWAP1 DUP4 PUSH20 0xFFFFFFFFFFFFFFFFFFFFFFFFFFFFFFFFFFFFFFFF AND MUL OR SWAP1 SSTORE POP DUP2 PUSH1 0x1 PUSH1 0x0 PUSH2 0x100 EXP DUP2 SLOAD DUP2 PUSH20 0xFFFFFFFFFFFFFFFFFFFFFFFFFFFFFFFFFFFFFFFF MUL NOT AND SWAP1 DUP4 PUSH20 0xFFFFFFFFFFFFFFFFFFFFFFFFFFFFFFFFFFFFFFFF AND MUL OR SWAP1 SSTORE POP DUP1 TIMESTAMP PUSH3 0x128 SWAP2 SWAP1 PUSH3 0x205 JUMP JUMPDEST PUSH1 0x5 DUP2 SWAP1 SSTORE POP POP POP PUSH3 0x331 JUMP JUMPDEST PUSH1 0x0 DUP2 MLOAD SWAP1 POP PUSH3 0x147 DUP2 PUSH3 0x2FD JUMP JUMPDEST SWAP3 SWAP2 POP POP JUMP JUMPDEST PUSH1 0x0 DUP2 MLOAD SWAP1 POP PUSH3 0x15E DUP2 PUSH3 0x317 JUMP JUMPDEST SWAP3 SWAP2 POP POP JUMP JUMPDEST PUSH1 0x0 DUP1 PUSH1 0x40 DUP4 DUP6 SUB SLT ISZERO PUSH3 0x17E JUMPI PUSH3 0x17D PUSH3 0x2CF JUMP JUMPDEST JUMPDEST PUSH1 0x0 PUSH3 0x18E DUP6 DUP3 DUP7 ADD PUSH3 0x136 JUMP JUMPDEST SWAP3 POP POP PUSH1 0x20 PUSH3 0x1A1 DUP6 DUP3 DUP7 ADD PUSH3 0x14D JUMP JUMPDEST SWAP2 POP POP SWAP3 POP SWAP3 SWAP1 POP JUMP JUMPDEST PUSH1 0x0 PUSH3 0x1BA PUSH1 0x3 DUP4 PUSH3 0x1F4 JUMP JUMPDEST SWAP2 POP PUSH3 0x1C7 DUP3 PUSH3 0x2D4 JUMP JUMPDEST PUSH1 0x20 DUP3 ADD SWAP1 POP SWAP2 SWAP1 POP JUMP JUMPDEST PUSH1 0x0 PUSH1 0x20 DUP3 ADD SWAP1 POP DUP2 DUP2 SUB PUSH1 0x0 DUP4 ADD MSTORE PUSH3 0x1ED DUP2 PUSH3 0x1AB JUMP JUMPDEST SWAP1 POP SWAP2 SWAP1 POP JUMP JUMPDEST PUSH1 0x0 DUP3 DUP3 MSTORE PUSH1 0x20 DUP3 ADD SWAP1 POP SWAP3 SWAP2 POP POP JUMP JUMPDEST PUSH1 0x0 PUSH3 0x212 DUP3 PUSH3 0x296 JUMP JUMPDEST SWAP2 POP PUSH3 0x21F DUP4 PUSH3 0x296 JUMP JUMPDEST SWAP3 POP DUP3 PUSH32 0xFFFFFFFFFFFFFFFFFFFFFFFFFFFFFFFFFFFFFFFFFFFFFFFFFFFFFFFFFFFFFFFF SUB DUP3 GT ISZERO PUSH3 0x257 JUMPI PUSH3 0x256 PUSH3 0x2A0 JUMP JUMPDEST JUMPDEST DUP3 DUP3 ADD SWAP1 POP SWAP3 SWAP2 POP POP JUMP JUMPDEST PUSH1 0x0 PUSH3 0x26F DUP3 PUSH3 0x276 JUMP JUMPDEST SWAP1 POP SWAP2 SWAP1 POP JUMP JUMPDEST PUSH1 0x0 PUSH20 0xFFFFFFFFFFFFFFFFFFFFFFFFFFFFFFFFFFFFFFFF DUP3 AND SWAP1 POP SWAP2 SWAP1 POP JUMP JUMPDEST PUSH1 0x0 DUP2 SWAP1 POP SWAP2 SWAP1 POP JUMP JUMPDEST PUSH32 0x4E487B7100000000000000000000000000000000000000000000000000000000 PUSH1 0x0 MSTORE PUSH1 0x11 PUSH1 0x4 MSTORE PUSH1 0x24 PUSH1 0x0 REVERT JUMPDEST PUSH1 0x0 DUP1 REVERT JUMPDEST PUSH32 0x3078310000000000000000000000000000000000000000000000000000000000 PUSH1 0x0 DUP3 ADD MSTORE POP JUMP JUMPDEST PUSH3 0x308 DUP2 PUSH3 0x262 JUMP JUMPDEST DUP2 EQ PUSH3 0x314 JUMPI PUSH1 0x0 DUP1 REVERT JUMPDEST POP JUMP JUMPDEST PUSH3 0x322 DUP2 PUSH3 0x296 JUMP JUMPDEST DUP2 EQ PUSH3 0x32E JUMPI PUSH1 0x0 DUP1 REVERT JUMPDEST POP JUMP JUMPDEST PUSH2 0x2212 DUP1 PUSH3 0x341 PUSH1 0x0 CODECOPY PUSH1 0x0 RETURN INVALID PUSH1 0x80 PUSH1 0x40 MSTORE CALLVALUE DUP1 ISZERO PUSH2 0x10 JUMPI PUSH1 0x0 DUP1 REVERT JUMPDEST POP PUSH1 0x4 CALLDATASIZE LT PUSH2 0x9E JUMPI PUSH1 0x0 CALLDATALOAD PUSH1 0xE0 SHR DUP1 PUSH4 0xD48FE222 GT PUSH2 0x66 JUMPI DUP1 PUSH4 0xD48FE222 EQ PUSH2 0x125 JUMPI DUP1 PUSH4 0xD9416762 EQ PUSH2 0x143 JUMPI DUP1 PUSH4 0xE556DCB2 EQ PUSH2 0x15F JUMPI DUP1 PUSH4 0xE90F4E7C EQ PUSH2 0x17D JUMPI DUP1 PUSH4 0xEC1ABD7F EQ PUSH2 0x199 JUMPI PUSH2 0x9E JUMP JUMPDEST DUP1 PUSH4 0x79402C1 EQ PUSH2 0xA3 JUMPI DUP1 PUSH4 0x9F82A8A EQ PUSH2 0xC1 JUMPI DUP1 PUSH4 0xDC96015 EQ PUSH2 0xDF JUMPI DUP1 PUSH4 0x43D726D6 EQ PUSH2 0xFD JUMPI DUP1 PUSH4 0x8B5A8DB2 EQ PUSH2 0x107 JUMPI JUMPDEST PUSH1 0x0 DUP1 REVERT JUMPDEST PUSH2 0xAB PUSH2 0x1B7 JUMP JUMPDEST PUSH1 0x40 MLOAD PUSH2 0xB8 SWAP2 SWAP1 PUSH2 0x1C91 JUMP JUMPDEST PUSH1 0x40 MLOAD DUP1 SWAP2 SUB SWAP1 RETURN JUMPDEST PUSH2 0xC9 PUSH2 0x234 JUMP JUMPDEST PUSH1 0x40 MLOAD PUSH2 0xD6 SWAP2 SWAP1 PUSH2 0x1BED JUMP JUMPDEST PUSH1 0x40 MLOAD DUP1 SWAP2 SUB SWAP1 RETURN JUMPDEST PUSH2 0xE7 PUSH2 0x25E JUMP JUMPDEST PUSH1 0x40 MLOAD PUSH2 0xF4 SWAP2 SWAP1 PUSH2 0x1CB3 JUMP JUMPDEST PUSH1 0x40 MLOAD DUP1 SWAP2 SUB SWAP1 RETURN JUMPDEST PUSH2 0x105 PUSH2 0x39B JUMP JUMPDEST STOP JUMPDEST PUSH2 0x10F PUSH2 0x3DF JUMP JUMPDEST PUSH1 0x40 MLOAD PUSH2 0x11C SWAP2 SWAP1 PUSH2 0x1DB5 JUMP JUMPDEST PUSH1 0x40 MLOAD DUP1 SWAP2 SUB SWAP1 RETURN JUMPDEST PUSH2 0x12D PUSH2 0x3EC JUMP JUMPDEST PUSH1 0x40 MLOAD PUSH2 0x13A SWAP2 SWAP1 PUSH2 0x1C91 JUMP JUMPDEST PUSH1 0x40 MLOAD DUP1 SWAP2 SUB SWAP1 RETURN JUMPDEST PUSH2 0x15D PUSH1 0x4 DUP1 CALLDATASIZE SUB DUP2 ADD SWAP1 PUSH2 0x158 SWAP2 SWAP1 PUSH2 0x1848 JUMP JUMPDEST PUSH2 0x469 JUMP JUMPDEST STOP JUMPDEST PUSH2 0x167 PUSH2 0x7B8 JUMP JUMPDEST PUSH1 0x40 MLOAD PUSH2 0x174 SWAP2 SWAP1 PUSH2 0x1DB5 JUMP JUMPDEST PUSH1 0x40 MLOAD DUP1 SWAP2 SUB SWAP1 RETURN JUMPDEST PUSH2 0x197 PUSH1 0x4 DUP1 CALLDATASIZE SUB DUP2 ADD SWAP1 PUSH2 0x192 SWAP2 SWAP1 PUSH2 0x18C8 JUMP JUMPDEST PUSH2 0x7C2 JUMP JUMPDEST STOP JUMPDEST PUSH2 0x1A1 PUSH2 0xAE8 JUMP JUMPDEST PUSH1 0x40 MLOAD PUSH2 0x1AE SWAP2 SWAP1 PUSH2 0x1BED JUMP JUMPDEST PUSH1 0x40 MLOAD DUP1 SWAP2 SUB SWAP1 RETURN JUMPDEST PUSH1 0x60 PUSH1 0x3 DUP1 SLOAD DUP1 PUSH1 0x20 MUL PUSH1 0x20 ADD PUSH1 0x40 MLOAD SWAP1 DUP2 ADD PUSH1 0x40 MSTORE DUP1 SWAP3 SWAP2 SWAP1 DUP2 DUP2 MSTORE PUSH1 0x20 ADD PUSH1 0x0 SWAP1 JUMPDEST DUP3 DUP3 LT ISZERO PUSH2 0x22B JUMPI DUP4 DUP3 SWAP1 PUSH1 0x0 MSTORE PUSH1 0x20 PUSH1 0x0 KECCAK256 SWAP1 PUSH1 0x3 MUL ADD PUSH1 0x40 MLOAD DUP1 PUSH1 0x60 ADD PUSH1 0x40 MSTORE SWAP1 DUP2 PUSH1 0x0 DUP3 ADD SLOAD DUP2 MSTORE PUSH1 0x20 ADD PUSH1 0x1 DUP3 ADD SLOAD DUP2 MSTORE PUSH1 0x20 ADD PUSH1 0x2 DUP3 ADD SLOAD DUP2 MSTORE POP POP DUP2 MSTORE PUSH1 0x20 ADD SWAP1 PUSH1 0x1 ADD SWAP1 PUSH2 0x1DB JUMP JUMPDEST POP POP POP POP SWAP1 POP SWAP1 JUMP JUMPDEST PUSH1 0x0 PUSH1 0x1 PUSH1 0x0 SWAP1 SLOAD SWAP1 PUSH2 0x100 EXP SWAP1 DIV PUSH20 0xFFFFFFFFFFFFFFFFFFFFFFFFFFFFFFFFFFFFFFFF AND SWAP1 POP SWAP1 JUMP JUMPDEST PUSH1 0x60 PUSH1 0x6 PUSH1 0x0 SWAP1 SLOAD SWAP1 PUSH2 0x100 EXP SWAP1 DIV PUSH1 0xFF AND PUSH2 0x2AF JUMPI PUSH1 0x40 MLOAD PUSH32 0x8C379A000000000000000000000000000000000000000000000000000000000 DUP2 MSTORE PUSH1 0x4 ADD PUSH2 0x2A6 SWAP1 PUSH2 0x1D75 JUMP JUMPDEST PUSH1 0x40 MLOAD DUP1 SWAP2 SUB SWAP1 REVERT JUMPDEST PUSH1 0x4 DUP1 SLOAD DUP1 PUSH1 0x20 MUL PUSH1 0x20 ADD PUSH1 0x40 MLOAD SWAP1 DUP2 ADD PUSH1 0x40 MSTORE DUP1 SWAP3 SWAP2 SWAP1 DUP2 DUP2 MSTORE PUSH1 0x20 ADD PUSH1 0x0 SWAP1 JUMPDEST DUP3 DUP3 LT ISZERO PUSH2 0x392 JUMPI DUP4 DUP3 SWAP1 PUSH1 0x0 MSTORE PUSH1 0x20 PUSH1 0x0 KECCAK256 SWAP1 PUSH1 0x4 MUL ADD PUSH1 0x40 MLOAD DUP1 PUSH1 0xA0 ADD PUSH1 0x40 MSTORE SWAP1 DUP2 PUSH1 0x0 DUP3 ADD SLOAD DUP2 MSTORE PUSH1 0x20 ADD PUSH1 0x1 DUP3 ADD SLOAD DUP2 MSTORE PUSH1 0x20 ADD PUSH1 0x2 DUP3 ADD SLOAD DUP2 MSTORE PUSH1 0x20 ADD PUSH1 0x3 DUP3 ADD PUSH1 0x0 SWAP1 SLOAD SWAP1 PUSH2 0x100 EXP SWAP1 DIV PUSH1 0xFF AND ISZERO ISZERO ISZERO ISZERO DUP2 MSTORE PUSH1 0x20 ADD PUSH1 0x3 DUP3 ADD PUSH1 0x1 SWAP1 SLOAD SWAP1 PUSH2 0x100 EXP SWAP1 DIV PUSH20 0xFFFFFFFFFFFFFFFFFFFFFFFFFFFFFFFFFFFFFFFF AND PUSH20 0xFFFFFFFFFFFFFFFFFFFFFFFFFFFFFFFFFFFFFFFF AND PUSH20 0xFFFFFFFFFFFFFFFFFFFFFFFFFFFFFFFFFFFFFFFF AND DUP2 MSTORE POP POP DUP2 MSTORE PUSH1 0x20 ADD SWAP1 PUSH1 0x1 ADD SWAP1 PUSH2 0x2D1 JUMP JUMPDEST POP POP POP POP SWAP1 POP SWAP1 JUMP JUMPDEST PUSH2 0x3A3 PUSH2 0xB11 JUMP JUMPDEST PUSH1 0x1 PUSH1 0x6 PUSH1 0x0 PUSH2 0x100 EXP DUP2 SLOAD DUP2 PUSH1 0xFF MUL NOT AND SWAP1 DUP4 ISZERO ISZERO MUL OR SWAP1 SSTORE POP PUSH1 0x0 DUP1 PUSH2 0x3C9 PUSH2 0xB71 JUMP JUMPDEST DUP1 SWAP3 POP DUP2 SWAP4 POP POP POP PUSH2 0x3DB DUP3 DUP3 PUSH2 0xBFB JUMP JUMPDEST POP POP JUMP JUMPDEST PUSH1 0x0 PUSH1 0x4 DUP1 SLOAD SWAP1 POP SWAP1 POP SWAP1 JUMP JUMPDEST PUSH1 0x60 PUSH1 0x2 DUP1 SLOAD DUP1 PUSH1 0x20 MUL PUSH1 0x20 ADD PUSH1 0x40 MLOAD SWAP1 DUP2 ADD PUSH1 0x40 MSTORE DUP1 SWAP3 SWAP2 SWAP1 DUP2 DUP2 MSTORE PUSH1 0x20 ADD PUSH1 0x0 SWAP1 JUMPDEST DUP3 DUP3 LT ISZERO PUSH2 0x460 JUMPI DUP4 DUP3 SWAP1 PUSH1 0x0 MSTORE PUSH1 0x20 PUSH1 0x0 KECCAK256 SWAP1 PUSH1 0x3 MUL ADD PUSH1 0x40 MLOAD DUP1 PUSH1 0x60 ADD PUSH1 0x40 MSTORE SWAP1 DUP2 PUSH1 0x0 DUP3 ADD SLOAD DUP2 MSTORE PUSH1 0x20 ADD PUSH1 0x1 DUP3 ADD SLOAD DUP2 MSTORE PUSH1 0x20 ADD PUSH1 0x2 DUP3 ADD SLOAD DUP2 MSTORE POP POP DUP2 MSTORE PUSH1 0x20 ADD SWAP1 PUSH1 0x1 ADD SWAP1 PUSH2 0x410 JUMP JUMPDEST POP POP POP POP SWAP1 POP SWAP1 JUMP JUMPDEST PUSH2 0x471 PUSH2 0xC2A JUMP JUMPDEST PUSH2 0x47A CALLER PUSH2 0xC89 JUMP JUMPDEST PUSH1 0x0 PUSH1 0x1 PUSH1 0x0 SWAP1 SLOAD SWAP1 PUSH2 0x100 EXP SWAP1 DIV PUSH20 0xFFFFFFFFFFFFFFFFFFFFFFFFFFFFFFFFFFFFFFFF AND PUSH20 0xFFFFFFFFFFFFFFFFFFFFFFFFFFFFFFFFFFFFFFFF AND PUSH4 0x64A40642 PUSH1 0x40 MLOAD DUP2 PUSH4 0xFFFFFFFF AND PUSH1 0xE0 SHL DUP2 MSTORE PUSH1 0x4 ADD PUSH1 0x20 PUSH1 0x40 MLOAD DUP1 DUP4 SUB DUP2 DUP7 DUP1 EXTCODESIZE ISZERO DUP1 ISZERO PUSH2 0x4E4 JUMPI PUSH1 0x0 DUP1 REVERT JUMPDEST POP GAS STATICCALL ISZERO DUP1 ISZERO PUSH2 0x4F8 JUMPI RETURNDATASIZE PUSH1 0x0 DUP1 RETURNDATACOPY RETURNDATASIZE PUSH1 0x0 REVERT JUMPDEST POP POP POP POP PUSH1 0x40 MLOAD RETURNDATASIZE PUSH1 0x1F NOT PUSH1 0x1F DUP3 ADD AND DUP3 ADD DUP1 PUSH1 0x40 MSTORE POP DUP2 ADD SWAP1 PUSH2 0x51C SWAP2 SWAP1 PUSH2 0x189B JUMP JUMPDEST SWAP1 POP PUSH1 0x0 DUP1 PUSH20 0xFFFFFFFFFFFFFFFFFFFFFFFFFFFFFFFFFFFFFFFF AND PUSH4 0xDD62ED3E CALLER ADDRESS PUSH1 0x40 MLOAD DUP4 PUSH4 0xFFFFFFFF AND PUSH1 0xE0 SHL DUP2 MSTORE PUSH1 0x4 ADD PUSH2 0x55B SWAP3 SWAP2 SWAP1 PUSH2 0x1C08 JUMP JUMPDEST PUSH1 0x20 PUSH1 0x40 MLOAD DUP1 DUP4 SUB DUP2 DUP7 DUP1 EXTCODESIZE ISZERO DUP1 ISZERO PUSH2 0x573 JUMPI PUSH1 0x0 DUP1 REVERT JUMPDEST POP GAS STATICCALL ISZERO DUP1 ISZERO PUSH2 0x587 JUMPI RETURNDATASIZE PUSH1 0x0 DUP1 RETURNDATACOPY RETURNDATASIZE PUSH1 0x0 REVERT JUMPDEST POP POP POP POP PUSH1 0x40 MLOAD RETURNDATASIZE PUSH1 0x1F NOT PUSH1 0x1F DUP3 ADD AND DUP3 ADD DUP1 PUSH1 0x40 MSTORE POP DUP2 ADD SWAP1 PUSH2 0x5AB SWAP2 SWAP1 PUSH2 0x189B JUMP JUMPDEST SWAP1 POP DUP2 DUP2 LT ISZERO PUSH2 0x5F0 JUMPI PUSH1 0x40 MLOAD PUSH32 0x8C379A000000000000000000000000000000000000000000000000000000000 DUP2 MSTORE PUSH1 0x4 ADD PUSH2 0x5E7 SWAP1 PUSH2 0x1D15 JUMP JUMPDEST PUSH1 0x40 MLOAD DUP1 SWAP2 SUB SWAP1 REVERT JUMPDEST PUSH1 0x0 PUSH20 0xFFFFFFFFFFFFFFFFFFFFFFFFFFFFFFFFFFFFFFFF AND PUSH4 0x23B872DD CALLER ADDRESS DUP6 PUSH1 0x40 MLOAD DUP5 PUSH4 0xFFFFFFFF AND PUSH1 0xE0 SHL DUP2 MSTORE PUSH1 0x4 ADD PUSH2 0x62E SWAP4 SWAP3 SWAP2 SWAP1 PUSH2 0x1C31 JUMP JUMPDEST PUSH1 0x20 PUSH1 0x40 MLOAD DUP1 DUP4 SUB DUP2 PUSH1 0x0 DUP8 DUP1 EXTCODESIZE ISZERO DUP1 ISZERO PUSH2 0x648 JUMPI PUSH1 0x0 DUP1 REVERT JUMPDEST POP GAS CALL ISZERO DUP1 ISZERO PUSH2 0x65C JUMPI RETURNDATASIZE PUSH1 0x0 DUP1 RETURNDATACOPY RETURNDATASIZE PUSH1 0x0 REVERT JUMPDEST POP POP POP POP PUSH1 0x40 MLOAD RETURNDATASIZE PUSH1 0x1F NOT PUSH1 0x1F DUP3 ADD AND DUP3 ADD DUP1 PUSH1 0x40 MSTORE POP DUP2 ADD SWAP1 PUSH2 0x680 SWAP2 SWAP1 PUSH2 0x181B JUMP JUMPDEST POP PUSH1 0x0 PUSH1 0x40 MLOAD DUP1 PUSH1 0xA0 ADD PUSH1 0x40 MSTORE DUP1 DUP7 DUP2 MSTORE PUSH1 0x20 ADD DUP6 DUP2 MSTORE PUSH1 0x20 ADD TIMESTAMP DUP2 MSTORE PUSH1 0x20 ADD DUP8 ISZERO ISZERO DUP2 MSTORE PUSH1 0x20 ADD CALLER PUSH20 0xFFFFFFFFFFFFFFFFFFFFFFFFFFFFFFFFFFFFFFFF AND DUP2 MSTORE POP SWAP1 POP PUSH1 0x4 DUP2 SWAP1 DUP1 PUSH1 0x1 DUP2 SLOAD ADD DUP1 DUP3 SSTORE DUP1 SWAP2 POP POP PUSH1 0x1 SWAP1 SUB SWAP1 PUSH1 0x0 MSTORE PUSH1 0x20 PUSH1 0x0 KECCAK256 SWAP1 PUSH1 0x4 MUL ADD PUSH1 0x0 SWAP1 SWAP2 SWAP1 SWAP2 SWAP1 SWAP2 POP PUSH1 0x0 DUP3 ADD MLOAD DUP2 PUSH1 0x0 ADD SSTORE PUSH1 0x20 DUP3 ADD MLOAD DUP2 PUSH1 0x1 ADD SSTORE PUSH1 0x40 DUP3 ADD MLOAD DUP2 PUSH1 0x2 ADD SSTORE PUSH1 0x60 DUP3 ADD MLOAD DUP2 PUSH1 0x3 ADD PUSH1 0x0 PUSH2 0x100 EXP DUP2 SLOAD DUP2 PUSH1 0xFF MUL NOT AND SWAP1 DUP4 ISZERO ISZERO MUL OR SWAP1 SSTORE POP PUSH1 0x80 DUP3 ADD MLOAD DUP2 PUSH1 0x3 ADD PUSH1 0x1 PUSH2 0x100 EXP DUP2 SLOAD DUP2 PUSH20 0xFFFFFFFFFFFFFFFFFFFFFFFFFFFFFFFFFFFFFFFF MUL NOT AND SWAP1 DUP4 PUSH20 0xFFFFFFFFFFFFFFFFFFFFFFFFFFFFFFFFFFFFFFFF AND MUL OR SWAP1 SSTORE POP POP POP PUSH32 0x4D99B957A2BC29A30EBD96A7BE8E68FE50A3C701DB28A91436490B7D53870CA4 CALLER TIMESTAMP PUSH1 0x40 MLOAD PUSH2 0x7A8 SWAP3 SWAP2 SWAP1 PUSH2 0x1C68 JUMP JUMPDEST PUSH1 0x40 MLOAD DUP1 SWAP2 SUB SWAP1 LOG1 POP POP POP POP POP POP JUMP JUMPDEST PUSH1 0x0 PUSH1 0x5 SLOAD SWAP1 POP SWAP1 JUMP JUMPDEST PUSH2 0x7CA PUSH2 0xC2A JUMP JUMPDEST PUSH2 0x7D3 CALLER PUSH2 0xF47 JUMP JUMPDEST PUSH1 0x0 PUSH1 0x40 MLOAD DUP1 PUSH1 0x60 ADD PUSH1 0x40 MSTORE DUP1 DUP5 DUP2 MSTORE PUSH1 0x20 ADD DUP4 DUP2 MSTORE PUSH1 0x20 ADD TIMESTAMP DUP2 MSTORE POP SWAP1 POP PUSH1 0x0 PUSH1 0x1 PUSH1 0x0 SWAP1 SLOAD SWAP1 PUSH2 0x100 EXP SWAP1 DIV PUSH20 0xFFFFFFFFFFFFFFFFFFFFFFFFFFFFFFFFFFFFFFFF AND PUSH20 0xFFFFFFFFFFFFFFFFFFFFFFFFFFFFFFFFFFFFFFFF AND PUSH4 0x650D993B PUSH1 0x40 MLOAD DUP2 PUSH4 0xFFFFFFFF AND PUSH1 0xE0 SHL DUP2 MSTORE PUSH1 0x4 ADD PUSH1 0x20 PUSH1 0x40 MLOAD DUP1 DUP4 SUB DUP2 DUP7 DUP1 EXTCODESIZE ISZERO DUP1 ISZERO PUSH2 0x85C JUMPI PUSH1 0x0 DUP1 REVERT JUMPDEST POP GAS STATICCALL ISZERO DUP1 ISZERO PUSH2 0x870 JUMPI RETURNDATASIZE PUSH1 0x0 DUP1 RETURNDATACOPY RETURNDATASIZE PUSH1 0x0 REVERT JUMPDEST POP POP POP POP PUSH1 0x40 MLOAD RETURNDATASIZE PUSH1 0x1F NOT PUSH1 0x1F DUP3 ADD AND DUP3 ADD DUP1 PUSH1 0x40 MSTORE POP DUP2 ADD SWAP1 PUSH2 0x894 SWAP2 SWAP1 PUSH2 0x17EE JUMP JUMPDEST PUSH20 0xFFFFFFFFFFFFFFFFFFFFFFFFFFFFFFFFFFFFFFFF AND CALLER PUSH20 0xFFFFFFFFFFFFFFFFFFFFFFFFFFFFFFFFFFFFFFFF AND EQ ISZERO PUSH2 0x9BA JUMPI PUSH1 0x2 DUP3 SWAP1 DUP1 PUSH1 0x1 DUP2 SLOAD ADD DUP1 DUP3 SSTORE DUP1 SWAP2 POP POP PUSH1 0x1 SWAP1 SUB SWAP1 PUSH1 0x0 MSTORE PUSH1 0x20 PUSH1 0x0 KECCAK256 SWAP1 PUSH1 0x3 MUL ADD PUSH1 0x0 SWAP1 SWAP2 SWAP1 SWAP2 SWAP1 SWAP2 POP PUSH1 0x0 DUP3 ADD MLOAD DUP2 PUSH1 0x0 ADD SSTORE PUSH1 0x20 DUP3 ADD MLOAD DUP2 PUSH1 0x1 ADD SSTORE PUSH1 0x40 DUP3 ADD MLOAD DUP2 PUSH1 0x2 ADD SSTORE POP POP PUSH1 0x1 PUSH1 0x0 SWAP1 SLOAD SWAP1 PUSH2 0x100 EXP SWAP1 DIV PUSH20 0xFFFFFFFFFFFFFFFFFFFFFFFFFFFFFFFFFFFFFFFF AND PUSH20 0xFFFFFFFFFFFFFFFFFFFFFFFFFFFFFFFFFFFFFFFF AND PUSH4 0x650D993B PUSH1 0x40 MLOAD DUP2 PUSH4 0xFFFFFFFF AND PUSH1 0xE0 SHL DUP2 MSTORE PUSH1 0x4 ADD PUSH1 0x20 PUSH1 0x40 MLOAD DUP1 DUP4 SUB DUP2 DUP7 DUP1 EXTCODESIZE ISZERO DUP1 ISZERO PUSH2 0x97B JUMPI PUSH1 0x0 DUP1 REVERT JUMPDEST POP GAS STATICCALL ISZERO DUP1 ISZERO PUSH2 0x98F JUMPI RETURNDATASIZE PUSH1 0x0 DUP1 RETURNDATACOPY RETURNDATASIZE PUSH1 0x0 REVERT JUMPDEST POP POP POP POP PUSH1 0x40 MLOAD RETURNDATASIZE PUSH1 0x1F NOT PUSH1 0x1F DUP3 ADD AND DUP3 ADD DUP1 PUSH1 0x40 MSTORE POP DUP2 ADD SWAP1 PUSH2 0x9B3 SWAP2 SWAP1 PUSH2 0x17EE JUMP JUMPDEST SWAP1 POP PUSH2 0xAA9 JUMP JUMPDEST PUSH1 0x3 DUP3 SWAP1 DUP1 PUSH1 0x1 DUP2 SLOAD ADD DUP1 DUP3 SSTORE DUP1 SWAP2 POP POP PUSH1 0x1 SWAP1 SUB SWAP1 PUSH1 0x0 MSTORE PUSH1 0x20 PUSH1 0x0 KECCAK256 SWAP1 PUSH1 0x3 MUL ADD PUSH1 0x0 SWAP1 SWAP2 SWAP1 SWAP2 SWAP1 SWAP2 POP PUSH1 0x0 DUP3 ADD MLOAD DUP2 PUSH1 0x0 ADD SSTORE PUSH1 0x20 DUP3 ADD MLOAD DUP2 PUSH1 0x1 ADD SSTORE PUSH1 0x40 DUP3 ADD MLOAD DUP2 PUSH1 0x2 ADD SSTORE POP POP PUSH1 0x1 PUSH1 0x0 SWAP1 SLOAD SWAP1 PUSH2 0x100 EXP SWAP1 DIV PUSH20 0xFFFFFFFFFFFFFFFFFFFFFFFFFFFFFFFFFFFFFFFF AND PUSH20 0xFFFFFFFFFFFFFFFFFFFFFFFFFFFFFFFFFFFFFFFF AND PUSH4 0x6C1032AF PUSH1 0x40 MLOAD DUP2 PUSH4 0xFFFFFFFF AND PUSH1 0xE0 SHL DUP2 MSTORE PUSH1 0x4 ADD PUSH1 0x20 PUSH1 0x40 MLOAD DUP1 DUP4 SUB DUP2 DUP7 DUP1 EXTCODESIZE ISZERO DUP1 ISZERO PUSH2 0xA6E JUMPI PUSH1 0x0 DUP1 REVERT JUMPDEST POP GAS STATICCALL ISZERO DUP1 ISZERO PUSH2 0xA82 JUMPI RETURNDATASIZE PUSH1 0x0 DUP1 RETURNDATACOPY RETURNDATASIZE PUSH1 0x0 REVERT JUMPDEST POP POP POP POP PUSH1 0x40 MLOAD RETURNDATASIZE PUSH1 0x1F NOT PUSH1 0x1F DUP3 ADD AND DUP3 ADD DUP1 PUSH1 0x40 MSTORE POP DUP2 ADD SWAP1 PUSH2 0xAA6 SWAP2 SWAP1 PUSH2 0x17EE JUMP JUMPDEST SWAP1 POP JUMPDEST PUSH32 0xDDD8B0B68B851797D2DB498006CB2642AFEFE53623DB382FF4994D443938DA83 DUP2 TIMESTAMP PUSH1 0x40 MLOAD PUSH2 0xADA SWAP3 SWAP2 SWAP1 PUSH2 0x1C68 JUMP JUMPDEST PUSH1 0x40 MLOAD DUP1 SWAP2 SUB SWAP1 LOG1 POP POP POP POP JUMP JUMPDEST PUSH1 0x0 DUP1 PUSH1 0x0 SWAP1 SLOAD SWAP1 PUSH2 0x100 EXP SWAP1 DIV PUSH20 0xFFFFFFFFFFFFFFFFFFFFFFFFFFFFFFFFFFFFFFFF AND SWAP1 POP SWAP1 JUMP JUMPDEST PUSH1 0x6 PUSH1 0x0 SWAP1 SLOAD SWAP1 PUSH2 0x100 EXP SWAP1 DIV PUSH1 0xFF AND ISZERO DUP1 ISZERO PUSH2 0xB30 JUMPI POP PUSH1 0x5 SLOAD TIMESTAMP LT ISZERO JUMPDEST PUSH2 0xB6F JUMPI PUSH1 0x40 MLOAD PUSH32 0x8C379A000000000000000000000000000000000000000000000000000000000 DUP2 MSTORE PUSH1 0x4 ADD PUSH2 0xB66 SWAP1 PUSH2 0x1D35 JUMP JUMPDEST PUSH1 0x40 MLOAD DUP1 SWAP2 SUB SWAP1 REVERT JUMPDEST JUMP JUMPDEST PUSH1 0x0 DUP1 PUSH1 0x0 DUP1 PUSH1 0x0 JUMPDEST PUSH1 0x4 DUP1 SLOAD SWAP1 POP DUP2 LT ISZERO PUSH2 0xBEE JUMPI PUSH1 0x4 DUP2 DUP2 SLOAD DUP2 LT PUSH2 0xB9B JUMPI PUSH2 0xB9A PUSH2 0x202D JUMP JUMPDEST JUMPDEST SWAP1 PUSH1 0x0 MSTORE PUSH1 0x20 PUSH1 0x0 KECCAK256 SWAP1 PUSH1 0x4 MUL ADD PUSH1 0x3 ADD PUSH1 0x0 SWAP1 SLOAD SWAP1 PUSH2 0x100 EXP SWAP1 DIV PUSH1 0xFF AND ISZERO PUSH2 0xBD0 JUMPI DUP3 PUSH2 0xBC9 SWAP1 PUSH2 0x1F86 JUMP JUMPDEST SWAP3 POP PUSH2 0xBDD JUMP JUMPDEST DUP2 PUSH2 0xBDA SWAP1 PUSH2 0x1F86 JUMP JUMPDEST SWAP2 POP JUMPDEST DUP1 PUSH2 0xBE7 SWAP1 PUSH2 0x1F86 JUMP JUMPDEST SWAP1 POP PUSH2 0xB7A JUMP JUMPDEST POP DUP2 DUP2 SWAP4 POP SWAP4 POP POP POP SWAP1 SWAP2 JUMP JUMPDEST PUSH1 0x0 PUSH2 0xC07 DUP4 DUP4 PUSH2 0x112C JUMP JUMPDEST SWAP1 POP PUSH2 0xC12 DUP2 PUSH2 0x1149 JUMP JUMPDEST PUSH2 0xC1D DUP4 DUP4 DUP4 PUSH2 0x13D3 JUMP JUMPDEST PUSH2 0xC25 PUSH2 0x151D JUMP JUMPDEST POP POP POP JUMP JUMPDEST PUSH1 0x6 PUSH1 0x0 SWAP1 SLOAD SWAP1 PUSH2 0x100 EXP SWAP1 DIV PUSH1 0xFF AND ISZERO DUP1 ISZERO PUSH2 0xC48 JUMPI POP PUSH1 0x5 SLOAD TIMESTAMP LT JUMPDEST PUSH2 0xC87 JUMPI PUSH1 0x40 MLOAD PUSH32 0x8C379A000000000000000000000000000000000000000000000000000000000 DUP2 MSTORE PUSH1 0x4 ADD PUSH2 0xC7E SWAP1 PUSH2 0x1CF5 JUMP JUMPDEST PUSH1 0x40 MLOAD DUP1 SWAP2 SUB SWAP1 REVERT JUMPDEST JUMP JUMPDEST PUSH1 0x1 PUSH1 0x0 SWAP1 SLOAD SWAP1 PUSH2 0x100 EXP SWAP1 DIV PUSH20 0xFFFFFFFFFFFFFFFFFFFFFFFFFFFFFFFFFFFFFFFF AND PUSH20 0xFFFFFFFFFFFFFFFFFFFFFFFFFFFFFFFFFFFFFFFF AND PUSH4 0x650D993B PUSH1 0x40 MLOAD DUP2 PUSH4 0xFFFFFFFF AND PUSH1 0xE0 SHL DUP2 MSTORE PUSH1 0x4 ADD PUSH1 0x20 PUSH1 0x40 MLOAD DUP1 DUP4 SUB DUP2 DUP7 DUP1 EXTCODESIZE ISZERO DUP1 ISZERO PUSH2 0xCF1 JUMPI PUSH1 0x0 DUP1 REVERT JUMPDEST POP GAS STATICCALL ISZERO DUP1 ISZERO PUSH2 0xD05 JUMPI RETURNDATASIZE PUSH1 0x0 DUP1 RETURNDATACOPY RETURNDATASIZE PUSH1 0x0 REVERT JUMPDEST POP POP POP POP PUSH1 0x40 MLOAD RETURNDATASIZE PUSH1 0x1F NOT PUSH1 0x1F DUP3 ADD AND DUP3 ADD DUP1 PUSH1 0x40 MSTORE POP DUP2 ADD SWAP1 PUSH2 0xD29 SWAP2 SWAP1 PUSH2 0x17EE JUMP JUMPDEST PUSH20 0xFFFFFFFFFFFFFFFFFFFFFFFFFFFFFFFFFFFFFFFF AND DUP2 PUSH20 0xFFFFFFFFFFFFFFFFFFFFFFFFFFFFFFFFFFFFFFFF AND EQ ISZERO DUP1 ISZERO PUSH2 0xE2F JUMPI POP PUSH1 0x1 PUSH1 0x0 SWAP1 SLOAD SWAP1 PUSH2 0x100 EXP SWAP1 DIV PUSH20 0xFFFFFFFFFFFFFFFFFFFFFFFFFFFFFFFFFFFFFFFF AND PUSH20 0xFFFFFFFFFFFFFFFFFFFFFFFFFFFFFFFFFFFFFFFF AND PUSH4 0x6C1032AF PUSH1 0x40 MLOAD DUP2 PUSH4 0xFFFFFFFF AND PUSH1 0xE0 SHL DUP2 MSTORE PUSH1 0x4 ADD PUSH1 0x20 PUSH1 0x40 MLOAD DUP1 DUP4 SUB DUP2 DUP7 DUP1 EXTCODESIZE ISZERO DUP1 ISZERO PUSH2 0xDC7 JUMPI PUSH1 0x0 DUP1 REVERT JUMPDEST POP GAS STATICCALL ISZERO DUP1 ISZERO PUSH2 0xDDB JUMPI RETURNDATASIZE PUSH1 0x0 DUP1 RETURNDATACOPY RETURNDATASIZE PUSH1 0x0 REVERT JUMPDEST POP POP POP POP PUSH1 0x40 MLOAD RETURNDATASIZE PUSH1 0x1F NOT PUSH1 0x1F DUP3 ADD AND DUP3 ADD DUP1 PUSH1 0x40 MSTORE POP DUP2 ADD SWAP1 PUSH2 0xDFF SWAP2 SWAP1 PUSH2 0x17EE JUMP JUMPDEST PUSH20 0xFFFFFFFFFFFFFFFFFFFFFFFFFFFFFFFFFFFFFFFF AND DUP2 PUSH20 0xFFFFFFFFFFFFFFFFFFFFFFFFFFFFFFFFFFFFFFFF AND EQ ISZERO JUMPDEST PUSH2 0xE6E JUMPI PUSH1 0x40 MLOAD PUSH32 0x8C379A000000000000000000000000000000000000000000000000000000000 DUP2 MSTORE PUSH1 0x4 ADD PUSH2 0xE65 SWAP1 PUSH2 0x1D55 JUMP JUMPDEST PUSH1 0x40 MLOAD DUP1 SWAP2 SUB SWAP1 REVERT JUMPDEST PUSH1 0x0 JUMPDEST PUSH1 0x4 DUP1 SLOAD SWAP1 POP DUP2 LT ISZERO PUSH2 0xF43 JUMPI DUP2 PUSH20 0xFFFFFFFFFFFFFFFFFFFFFFFFFFFFFFFFFFFFFFFF AND PUSH1 0x4 DUP3 DUP2 SLOAD DUP2 LT PUSH2 0xEA9 JUMPI PUSH2 0xEA8 PUSH2 0x202D JUMP JUMPDEST JUMPDEST SWAP1 PUSH1 0x0 MSTORE PUSH1 0x20 PUSH1 0x0 KECCAK256 SWAP1 PUSH1 0x4 MUL ADD PUSH1 0x3 ADD PUSH1 0x1 SWAP1 SLOAD SWAP1 PUSH2 0x100 EXP SWAP1 DIV PUSH20 0xFFFFFFFFFFFFFFFFFFFFFFFFFFFFFFFFFFFFFFFF AND PUSH20 0xFFFFFFFFFFFFFFFFFFFFFFFFFFFFFFFFFFFFFFFF AND EQ ISZERO PUSH2 0xF32 JUMPI PUSH1 0x40 MLOAD PUSH32 0x8C379A000000000000000000000000000000000000000000000000000000000 DUP2 MSTORE PUSH1 0x4 ADD PUSH2 0xF29 SWAP1 PUSH2 0x1D95 JUMP JUMPDEST PUSH1 0x40 MLOAD DUP1 SWAP2 SUB SWAP1 REVERT JUMPDEST DUP1 PUSH2 0xF3C SWAP1 PUSH2 0x1F86 JUMP JUMPDEST SWAP1 POP PUSH2 0xE71 JUMP JUMPDEST POP POP JUMP JUMPDEST PUSH1 0x1 PUSH1 0x0 SWAP1 SLOAD SWAP1 PUSH2 0x100 EXP SWAP1 DIV PUSH20 0xFFFFFFFFFFFFFFFFFFFFFFFFFFFFFFFFFFFFFFFF AND PUSH20 0xFFFFFFFFFFFFFFFFFFFFFFFFFFFFFFFFFFFFFFFF AND PUSH4 0x650D993B PUSH1 0x40 MLOAD DUP2 PUSH4 0xFFFFFFFF AND PUSH1 0xE0 SHL DUP2 MSTORE PUSH1 0x4 ADD PUSH1 0x20 PUSH1 0x40 MLOAD DUP1 DUP4 SUB DUP2 DUP7 DUP1 EXTCODESIZE ISZERO DUP1 ISZERO PUSH2 0xFAF JUMPI PUSH1 0x0 DUP1 REVERT JUMPDEST POP GAS STATICCALL ISZERO DUP1 ISZERO PUSH2 0xFC3 JUMPI RETURNDATASIZE PUSH1 0x0 DUP1 RETURNDATACOPY RETURNDATASIZE PUSH1 0x0 REVERT JUMPDEST POP POP POP POP PUSH1 0x40 MLOAD RETURNDATASIZE PUSH1 0x1F NOT PUSH1 0x1F DUP3 ADD AND DUP3 ADD DUP1 PUSH1 0x40 MSTORE POP DUP2 ADD SWAP1 PUSH2 0xFE7 SWAP2 SWAP1 PUSH2 0x17EE JUMP JUMPDEST PUSH20 0xFFFFFFFFFFFFFFFFFFFFFFFFFFFFFFFFFFFFFFFF AND DUP2 PUSH20 0xFFFFFFFFFFFFFFFFFFFFFFFFFFFFFFFFFFFFFFFF AND EQ DUP1 PUSH2 0x10EA JUMPI POP PUSH1 0x1 PUSH1 0x0 SWAP1 SLOAD SWAP1 PUSH2 0x100 EXP SWAP1 DIV PUSH20 0xFFFFFFFFFFFFFFFFFFFFFFFFFFFFFFFFFFFFFFFF AND PUSH20 0xFFFFFFFFFFFFFFFFFFFFFFFFFFFFFFFFFFFFFFFF AND PUSH4 0x6C1032AF PUSH1 0x40 MLOAD DUP2 PUSH4 0xFFFFFFFF AND PUSH1 0xE0 SHL DUP2 MSTORE PUSH1 0x4 ADD PUSH1 0x20 PUSH1 0x40 MLOAD DUP1 DUP4 SUB DUP2 DUP7 DUP1 EXTCODESIZE ISZERO DUP1 ISZERO PUSH2 0x1083 JUMPI PUSH1 0x0 DUP1 REVERT JUMPDEST POP GAS STATICCALL ISZERO DUP1 ISZERO PUSH2 0x1097 JUMPI RETURNDATASIZE PUSH1 0x0 DUP1 RETURNDATACOPY RETURNDATASIZE PUSH1 0x0 REVERT JUMPDEST POP POP POP POP PUSH1 0x40 MLOAD RETURNDATASIZE PUSH1 0x1F NOT PUSH1 0x1F DUP3 ADD AND DUP3 ADD DUP1 PUSH1 0x40 MSTORE POP DUP2 ADD SWAP1 PUSH2 0x10BB SWAP2 SWAP1 PUSH2 0x17EE JUMP JUMPDEST PUSH20 0xFFFFFFFFFFFFFFFFFFFFFFFFFFFFFFFFFFFFFFFF AND DUP2 PUSH20 0xFFFFFFFFFFFFFFFFFFFFFFFFFFFFFFFFFFFFFFFF AND EQ JUMPDEST PUSH2 0x1129 JUMPI PUSH1 0x40 MLOAD PUSH32 0x8C379A000000000000000000000000000000000000000000000000000000000 DUP2 MSTORE PUSH1 0x4 ADD PUSH2 0x1120 SWAP1 PUSH2 0x1CD5 JUMP JUMPDEST PUSH1 0x40 MLOAD DUP1 SWAP2 SUB SWAP1 REVERT JUMPDEST POP JUMP JUMPDEST PUSH1 0x0 DUP3 DUP3 LT PUSH2 0x113E JUMPI PUSH1 0x0 SWAP1 POP PUSH2 0x1143 JUMP JUMPDEST PUSH1 0x1 SWAP1 POP JUMPDEST SWAP3 SWAP2 POP POP JUMP JUMPDEST PUSH1 0x0 DUP2 ISZERO PUSH2 0x11F8 JUMPI PUSH1 0x1 PUSH1 0x0 SWAP1 SLOAD SWAP1 PUSH2 0x100 EXP SWAP1 DIV PUSH20 0xFFFFFFFFFFFFFFFFFFFFFFFFFFFFFFFFFFFFFFFF AND PUSH20 0xFFFFFFFFFFFFFFFFFFFFFFFFFFFFFFFFFFFFFFFF AND PUSH4 0x650D993B PUSH1 0x40 MLOAD DUP2 PUSH4 0xFFFFFFFF AND PUSH1 0xE0 SHL DUP2 MSTORE PUSH1 0x4 ADD PUSH1 0x20 PUSH1 0x40 MLOAD DUP1 DUP4 SUB DUP2 DUP7 DUP1 EXTCODESIZE ISZERO DUP1 ISZERO PUSH2 0x11B9 JUMPI PUSH1 0x0 DUP1 REVERT JUMPDEST POP GAS STATICCALL ISZERO DUP1 ISZERO PUSH2 0x11CD JUMPI RETURNDATASIZE PUSH1 0x0 DUP1 RETURNDATACOPY RETURNDATASIZE PUSH1 0x0 REVERT JUMPDEST POP POP POP POP PUSH1 0x40 MLOAD RETURNDATASIZE PUSH1 0x1F NOT PUSH1 0x1F DUP3 ADD AND DUP3 ADD DUP1 PUSH1 0x40 MSTORE POP DUP2 ADD SWAP1 PUSH2 0x11F1 SWAP2 SWAP1 PUSH2 0x17EE JUMP JUMPDEST SWAP1 POP PUSH2 0x129B JUMP JUMPDEST PUSH1 0x1 PUSH1 0x0 SWAP1 SLOAD SWAP1 PUSH2 0x100 EXP SWAP1 DIV PUSH20 0xFFFFFFFFFFFFFFFFFFFFFFFFFFFFFFFFFFFFFFFF AND PUSH20 0xFFFFFFFFFFFFFFFFFFFFFFFFFFFFFFFFFFFFFFFF AND PUSH4 0x6C1032AF PUSH1 0x40 MLOAD DUP2 PUSH4 0xFFFFFFFF AND PUSH1 0xE0 SHL DUP2 MSTORE PUSH1 0x4 ADD PUSH1 0x20 PUSH1 0x40 MLOAD DUP1 DUP4 SUB DUP2 DUP7 DUP1 EXTCODESIZE ISZERO DUP1 ISZERO PUSH2 0x1260 JUMPI PUSH1 0x0 DUP1 REVERT JUMPDEST POP GAS STATICCALL ISZERO DUP1 ISZERO PUSH2 0x1274 JUMPI RETURNDATASIZE PUSH1 0x0 DUP1 RETURNDATACOPY RETURNDATASIZE PUSH1 0x0 REVERT JUMPDEST POP POP POP POP PUSH1 0x40 MLOAD RETURNDATASIZE PUSH1 0x1F NOT PUSH1 0x1F DUP3 ADD AND DUP3 ADD DUP1 PUSH1 0x40 MSTORE POP DUP2 ADD SWAP1 PUSH2 0x1298 SWAP2 SWAP1 PUSH2 0x17EE JUMP JUMPDEST SWAP1 POP JUMPDEST PUSH1 0x0 PUSH1 0x1 PUSH1 0x0 SWAP1 SLOAD SWAP1 PUSH2 0x100 EXP SWAP1 DIV PUSH20 0xFFFFFFFFFFFFFFFFFFFFFFFFFFFFFFFFFFFFFFFF AND PUSH20 0xFFFFFFFFFFFFFFFFFFFFFFFFFFFFFFFFFFFFFFFF AND PUSH4 0x98D5FDCA PUSH1 0x40 MLOAD DUP2 PUSH4 0xFFFFFFFF AND PUSH1 0xE0 SHL DUP2 MSTORE PUSH1 0x4 ADD PUSH1 0x20 PUSH1 0x40 MLOAD DUP1 DUP4 SUB DUP2 DUP7 DUP1 EXTCODESIZE ISZERO DUP1 ISZERO PUSH2 0x1305 JUMPI PUSH1 0x0 DUP1 REVERT JUMPDEST POP GAS STATICCALL ISZERO DUP1 ISZERO PUSH2 0x1319 JUMPI RETURNDATASIZE PUSH1 0x0 DUP1 RETURNDATACOPY RETURNDATASIZE PUSH1 0x0 REVERT JUMPDEST POP POP POP POP PUSH1 0x40 MLOAD RETURNDATASIZE PUSH1 0x1F NOT PUSH1 0x1F DUP3 ADD AND DUP3 ADD DUP1 PUSH1 0x40 MSTORE POP DUP2 ADD SWAP1 PUSH2 0x133D SWAP2 SWAP1 PUSH2 0x189B JUMP JUMPDEST SWAP1 POP PUSH1 0x0 PUSH20 0xFFFFFFFFFFFFFFFFFFFFFFFFFFFFFFFFFFFFFFFF AND PUSH4 0xA9059CBB DUP4 DUP4 PUSH1 0x40 MLOAD DUP4 PUSH4 0xFFFFFFFF AND PUSH1 0xE0 SHL DUP2 MSTORE PUSH1 0x4 ADD PUSH2 0x137B SWAP3 SWAP2 SWAP1 PUSH2 0x1C68 JUMP JUMPDEST PUSH1 0x20 PUSH1 0x40 MLOAD DUP1 DUP4 SUB DUP2 PUSH1 0x0 DUP8 DUP1 EXTCODESIZE ISZERO DUP1 ISZERO PUSH2 0x1395 JUMPI PUSH1 0x0 DUP1 REVERT JUMPDEST POP GAS CALL ISZERO DUP1 ISZERO PUSH2 0x13A9 JUMPI RETURNDATASIZE PUSH1 0x0 DUP1 RETURNDATACOPY RETURNDATASIZE PUSH1 0x0 REVERT JUMPDEST POP POP POP POP PUSH1 0x40 MLOAD RETURNDATASIZE PUSH1 0x1F NOT PUSH1 0x1F DUP3 ADD AND DUP3 ADD DUP1 PUSH1 0x40 MSTORE POP DUP2 ADD SWAP1 PUSH2 0x13CD SWAP2 SWAP1 PUSH2 0x181B JUMP JUMPDEST POP POP POP POP JUMP JUMPDEST PUSH1 0x0 PUSH2 0x13E0 DUP5 DUP5 DUP5 PUSH2 0x1659 JUMP JUMPDEST SWAP1 POP PUSH1 0x0 JUMPDEST PUSH1 0x4 DUP1 SLOAD SWAP1 POP DUP2 LT ISZERO PUSH2 0x1516 JUMPI DUP3 ISZERO ISZERO PUSH1 0x4 DUP3 DUP2 SLOAD DUP2 LT PUSH2 0x1409 JUMPI PUSH2 0x1408 PUSH2 0x202D JUMP JUMPDEST JUMPDEST SWAP1 PUSH1 0x0 MSTORE PUSH1 0x20 PUSH1 0x0 KECCAK256 SWAP1 PUSH1 0x4 MUL ADD PUSH1 0x3 ADD PUSH1 0x0 SWAP1 SLOAD SWAP1 PUSH2 0x100 EXP SWAP1 DIV PUSH1 0xFF AND ISZERO ISZERO EQ ISZERO PUSH2 0x1505 JUMPI PUSH1 0x0 PUSH20 0xFFFFFFFFFFFFFFFFFFFFFFFFFFFFFFFFFFFFFFFF AND PUSH4 0xA9059CBB PUSH1 0x4 DUP4 DUP2 SLOAD DUP2 LT PUSH2 0x1461 JUMPI PUSH2 0x1460 PUSH2 0x202D JUMP JUMPDEST JUMPDEST SWAP1 PUSH1 0x0 MSTORE PUSH1 0x20 PUSH1 0x0 KECCAK256 SWAP1 PUSH1 0x4 MUL ADD PUSH1 0x3 ADD PUSH1 0x1 SWAP1 SLOAD SWAP1 PUSH2 0x100 EXP SWAP1 DIV PUSH20 0xFFFFFFFFFFFFFFFFFFFFFFFFFFFFFFFFFFFFFFFF AND DUP5 PUSH1 0x40 MLOAD DUP4 PUSH4 0xFFFFFFFF AND PUSH1 0xE0 SHL DUP2 MSTORE PUSH1 0x4 ADD PUSH2 0x14B1 SWAP3 SWAP2 SWAP1 PUSH2 0x1C68 JUMP JUMPDEST PUSH1 0x20 PUSH1 0x40 MLOAD DUP1 DUP4 SUB DUP2 PUSH1 0x0 DUP8 DUP1 EXTCODESIZE ISZERO DUP1 ISZERO PUSH2 0x14CB JUMPI PUSH1 0x0 DUP1 REVERT JUMPDEST POP GAS CALL ISZERO DUP1 ISZERO PUSH2 0x14DF JUMPI RETURNDATASIZE PUSH1 0x0 DUP1 RETURNDATACOPY RETURNDATASIZE PUSH1 0x0 REVERT JUMPDEST POP POP POP POP PUSH1 0x40 MLOAD RETURNDATASIZE PUSH1 0x1F NOT PUSH1 0x1F DUP3 ADD AND DUP3 ADD DUP1 PUSH1 0x40 MSTORE POP DUP2 ADD SWAP1 PUSH2 0x1503 SWAP2 SWAP1 PUSH2 0x181B JUMP JUMPDEST POP JUMPDEST DUP1 PUSH2 0x150F SWAP1 PUSH2 0x1F86 JUMP JUMPDEST SWAP1 POP PUSH2 0x13E5 JUMP JUMPDEST POP POP POP POP POP JUMP JUMPDEST PUSH1 0x0 DUP1 PUSH20 0xFFFFFFFFFFFFFFFFFFFFFFFFFFFFFFFFFFFFFFFF AND PUSH4 0x70A08231 ADDRESS PUSH1 0x40 MLOAD DUP3 PUSH4 0xFFFFFFFF AND PUSH1 0xE0 SHL DUP2 MSTORE PUSH1 0x4 ADD PUSH2 0x1558 SWAP2 SWAP1 PUSH2 0x1BED JUMP JUMPDEST PUSH1 0x20 PUSH1 0x40 MLOAD DUP1 DUP4 SUB DUP2 DUP7 DUP1 EXTCODESIZE ISZERO DUP1 ISZERO PUSH2 0x1570 JUMPI PUSH1 0x0 DUP1 REVERT JUMPDEST POP GAS STATICCALL ISZERO DUP1 ISZERO PUSH2 0x1584 JUMPI RETURNDATASIZE PUSH1 0x0 DUP1 RETURNDATACOPY RETURNDATASIZE PUSH1 0x0 REVERT JUMPDEST POP POP POP POP PUSH1 0x40 MLOAD RETURNDATASIZE PUSH1 0x1F NOT PUSH1 0x1F DUP3 ADD AND DUP3 ADD DUP1 PUSH1 0x40 MSTORE POP DUP2 ADD SWAP1 PUSH2 0x15A8 SWAP2 SWAP1 PUSH2 0x189B JUMP JUMPDEST SWAP1 POP PUSH1 0x0 DUP2 EQ PUSH2 0x1656 JUMPI PUSH1 0x0 PUSH20 0xFFFFFFFFFFFFFFFFFFFFFFFFFFFFFFFFFFFFFFFF AND PUSH4 0xA9059CBB PUSH20 0x604E7E66C0C2897325375DC85AA7686E432236A1 DUP4 PUSH1 0x40 MLOAD DUP4 PUSH4 0xFFFFFFFF AND PUSH1 0xE0 SHL DUP2 MSTORE PUSH1 0x4 ADD PUSH2 0x1602 SWAP3 SWAP2 SWAP1 PUSH2 0x1C68 JUMP JUMPDEST PUSH1 0x20 PUSH1 0x40 MLOAD DUP1 DUP4 SUB DUP2 PUSH1 0x0 DUP8 DUP1 EXTCODESIZE ISZERO DUP1 ISZERO PUSH2 0x161C JUMPI PUSH1 0x0 DUP1 REVERT JUMPDEST POP GAS CALL ISZERO DUP1 ISZERO PUSH2 0x1630 JUMPI RETURNDATASIZE PUSH1 0x0 DUP1 RETURNDATACOPY RETURNDATASIZE PUSH1 0x0 REVERT JUMPDEST POP POP POP POP PUSH1 0x40 MLOAD RETURNDATASIZE PUSH1 0x1F NOT PUSH1 0x1F DUP3 ADD AND DUP3 ADD DUP1 PUSH1 0x40 MSTORE POP DUP2 ADD SWAP1 PUSH2 0x1654 SWAP2 SWAP1 PUSH2 0x181B JUMP JUMPDEST POP JUMPDEST POP JUMP JUMPDEST PUSH1 0x0 DUP1 PUSH1 0x1 PUSH1 0x0 SWAP1 SLOAD SWAP1 PUSH2 0x100 EXP SWAP1 DIV PUSH20 0xFFFFFFFFFFFFFFFFFFFFFFFFFFFFFFFFFFFFFFFF AND PUSH20 0xFFFFFFFFFFFFFFFFFFFFFFFFFFFFFFFFFFFFFFFF AND PUSH4 0x64A40642 PUSH1 0x40 MLOAD DUP2 PUSH4 0xFFFFFFFF AND PUSH1 0xE0 SHL DUP2 MSTORE PUSH1 0x4 ADD PUSH1 0x20 PUSH1 0x40 MLOAD DUP1 DUP4 SUB DUP2 DUP7 DUP1 EXTCODESIZE ISZERO DUP1 ISZERO PUSH2 0x16C4 JUMPI PUSH1 0x0 DUP1 REVERT JUMPDEST POP GAS STATICCALL ISZERO DUP1 ISZERO PUSH2 0x16D8 JUMPI RETURNDATASIZE PUSH1 0x0 DUP1 RETURNDATACOPY RETURNDATASIZE PUSH1 0x0 REVERT JUMPDEST POP POP POP POP PUSH1 0x40 MLOAD RETURNDATASIZE PUSH1 0x1F NOT PUSH1 0x1F DUP3 ADD AND DUP3 ADD DUP1 PUSH1 0x40 MSTORE POP DUP2 ADD SWAP1 PUSH2 0x16FC SWAP2 SWAP1 PUSH2 0x189B JUMP JUMPDEST SWAP1 POP PUSH1 0x0 DUP4 ISZERO PUSH2 0x1730 JUMPI DUP6 DUP3 PUSH1 0x1 DUP8 PUSH2 0x1715 SWAP2 SWAP1 PUSH2 0x1E53 JUMP JUMPDEST PUSH2 0x171F SWAP2 SWAP1 PUSH2 0x1EDA JUMP JUMPDEST PUSH2 0x1729 SWAP2 SWAP1 PUSH2 0x1EA9 JUMP JUMPDEST SWAP1 POP PUSH2 0x1756 JUMP JUMPDEST DUP5 DUP3 PUSH1 0x1 DUP9 PUSH2 0x173F SWAP2 SWAP1 PUSH2 0x1E53 JUMP JUMPDEST PUSH2 0x1749 SWAP2 SWAP1 PUSH2 0x1EDA JUMP JUMPDEST PUSH2 0x1753 SWAP2 SWAP1 PUSH2 0x1EA9 JUMP JUMPDEST SWAP1 POP JUMPDEST DUP2 DUP2 PUSH2 0x1762 SWAP2 SWAP1 PUSH2 0x1E53 JUMP JUMPDEST SWAP1 POP DUP1 SWAP3 POP POP POP SWAP4 SWAP3 POP POP POP JUMP JUMPDEST PUSH1 0x0 DUP2 MLOAD SWAP1 POP PUSH2 0x177F DUP2 PUSH2 0x2180 JUMP JUMPDEST SWAP3 SWAP2 POP POP JUMP JUMPDEST PUSH1 0x0 DUP2 CALLDATALOAD SWAP1 POP PUSH2 0x1794 DUP2 PUSH2 0x2197 JUMP JUMPDEST SWAP3 SWAP2 POP POP JUMP JUMPDEST PUSH1 0x0 DUP2 MLOAD SWAP1 POP PUSH2 0x17A9 DUP2 PUSH2 0x2197 JUMP JUMPDEST SWAP3 SWAP2 POP POP JUMP JUMPDEST PUSH1 0x0 DUP2 CALLDATALOAD SWAP1 POP PUSH2 0x17BE DUP2 PUSH2 0x21AE JUMP JUMPDEST SWAP3 SWAP2 POP POP JUMP JUMPDEST PUSH1 0x0 DUP2 CALLDATALOAD SWAP1 POP PUSH2 0x17D3 DUP2 PUSH2 0x21C5 JUMP JUMPDEST SWAP3 SWAP2 POP POP JUMP JUMPDEST PUSH1 0x0 DUP2 MLOAD SWAP1 POP PUSH2 0x17E8 DUP2 PUSH2 0x21C5 JUMP JUMPDEST SWAP3 SWAP2 POP POP JUMP JUMPDEST PUSH1 0x0 PUSH1 0x20 DUP3 DUP5 SUB SLT ISZERO PUSH2 0x1804 JUMPI PUSH2 0x1803 PUSH2 0x205C JUMP JUMPDEST JUMPDEST PUSH1 0x0 PUSH2 0x1812 DUP5 DUP3 DUP6 ADD PUSH2 0x1770 JUMP JUMPDEST SWAP2 POP POP SWAP3 SWAP2 POP POP JUMP JUMPDEST PUSH1 0x0 PUSH1 0x20 DUP3 DUP5 SUB SLT ISZERO PUSH2 0x1831 JUMPI PUSH2 0x1830 PUSH2 0x205C JUMP JUMPDEST JUMPDEST PUSH1 0x0 PUSH2 0x183F DUP5 DUP3 DUP6 ADD PUSH2 0x179A JUMP JUMPDEST SWAP2 POP POP SWAP3 SWAP2 POP POP JUMP JUMPDEST PUSH1 0x0 DUP1 PUSH1 0x0 PUSH1 0x60 DUP5 DUP7 SUB SLT ISZERO PUSH2 0x1861 JUMPI PUSH2 0x1860 PUSH2 0x205C JUMP JUMPDEST JUMPDEST PUSH1 0x0 PUSH2 0x186F DUP7 DUP3 DUP8 ADD PUSH2 0x1785 JUMP JUMPDEST SWAP4 POP POP PUSH1 0x20 PUSH2 0x1880 DUP7 DUP3 DUP8 ADD PUSH2 0x17C4 JUMP JUMPDEST SWAP3 POP POP PUSH1 0x40 PUSH2 0x1891 DUP7 DUP3 DUP8 ADD PUSH2 0x17AF JUMP JUMPDEST SWAP2 POP POP SWAP3 POP SWAP3 POP SWAP3 JUMP JUMPDEST PUSH1 0x0 PUSH1 0x20 DUP3 DUP5 SUB SLT ISZERO PUSH2 0x18B1 JUMPI PUSH2 0x18B0 PUSH2 0x205C JUMP JUMPDEST JUMPDEST PUSH1 0x0 PUSH2 0x18BF DUP5 DUP3 DUP6 ADD PUSH2 0x17D9 JUMP JUMPDEST SWAP2 POP POP SWAP3 SWAP2 POP POP JUMP JUMPDEST PUSH1 0x0 DUP1 PUSH1 0x40 DUP4 DUP6 SUB SLT ISZERO PUSH2 0x18DF JUMPI PUSH2 0x18DE PUSH2 0x205C JUMP JUMPDEST JUMPDEST PUSH1 0x0 PUSH2 0x18ED DUP6 DUP3 DUP7 ADD PUSH2 0x17C4 JUMP JUMPDEST SWAP3 POP POP PUSH1 0x20 PUSH2 0x18FE DUP6 DUP3 DUP7 ADD PUSH2 0x17AF JUMP JUMPDEST SWAP2 POP POP SWAP3 POP SWAP3 SWAP1 POP JUMP JUMPDEST PUSH1 0x0 PUSH2 0x1914 DUP4 DUP4 PUSH2 0x1B25 JUMP JUMPDEST PUSH1 0x60 DUP4 ADD SWAP1 POP SWAP3 SWAP2 POP POP JUMP JUMPDEST PUSH1 0x0 PUSH2 0x192C DUP4 DUP4 PUSH2 0x1B67 JUMP JUMPDEST PUSH1 0xA0 DUP4 ADD SWAP1 POP SWAP3 SWAP2 POP POP JUMP JUMPDEST PUSH2 0x1941 DUP2 PUSH2 0x1F34 JUMP JUMPDEST DUP3 MSTORE POP POP JUMP JUMPDEST PUSH2 0x1950 DUP2 PUSH2 0x1F34 JUMP JUMPDEST DUP3 MSTORE POP POP JUMP JUMPDEST PUSH1 0x0 PUSH2 0x1961 DUP3 PUSH2 0x1DF0 JUMP JUMPDEST PUSH2 0x196B DUP2 DUP6 PUSH2 0x1E20 JUMP JUMPDEST SWAP4 POP PUSH2 0x1976 DUP4 PUSH2 0x1DD0 JUMP JUMPDEST DUP1 PUSH1 0x0 JUMPDEST DUP4 DUP2 LT ISZERO PUSH2 0x19A7 JUMPI DUP2 MLOAD PUSH2 0x198E DUP9 DUP3 PUSH2 0x1908 JUMP JUMPDEST SWAP8 POP PUSH2 0x1999 DUP4 PUSH2 0x1E06 JUMP JUMPDEST SWAP3 POP POP PUSH1 0x1 DUP2 ADD SWAP1 POP PUSH2 0x197A JUMP JUMPDEST POP DUP6 SWAP4 POP POP POP POP SWAP3 SWAP2 POP POP JUMP JUMPDEST PUSH1 0x0 PUSH2 0x19BF DUP3 PUSH2 0x1DFB JUMP JUMPDEST PUSH2 0x19C9 DUP2 DUP6 PUSH2 0x1E31 JUMP JUMPDEST SWAP4 POP PUSH2 0x19D4 DUP4 PUSH2 0x1DE0 JUMP JUMPDEST DUP1 PUSH1 0x0 JUMPDEST DUP4 DUP2 LT ISZERO PUSH2 0x1A05 JUMPI DUP2 MLOAD PUSH2 0x19EC DUP9 DUP3 PUSH2 0x1920 JUMP JUMPDEST SWAP8 POP PUSH2 0x19F7 DUP4 PUSH2 0x1E13 JUMP JUMPDEST SWAP3 POP POP PUSH1 0x1 DUP2 ADD SWAP1 POP PUSH2 0x19D8 JUMP JUMPDEST POP DUP6 SWAP4 POP POP POP POP SWAP3 SWAP2 POP POP JUMP JUMPDEST PUSH2 0x1A1B DUP2 PUSH2 0x1F46 JUMP JUMPDEST DUP3 MSTORE POP POP JUMP JUMPDEST PUSH2 0x1A2A DUP2 PUSH2 0x1F52 JUMP JUMPDEST DUP3 MSTORE POP POP JUMP JUMPDEST PUSH1 0x0 PUSH2 0x1A3D PUSH1 0x3 DUP4 PUSH2 0x1E42 JUMP JUMPDEST SWAP2 POP PUSH2 0x1A48 DUP3 PUSH2 0x2061 JUMP JUMPDEST PUSH1 0x20 DUP3 ADD SWAP1 POP SWAP2 SWAP1 POP JUMP JUMPDEST PUSH1 0x0 PUSH2 0x1A60 PUSH1 0x3 DUP4 PUSH2 0x1E42 JUMP JUMPDEST SWAP2 POP PUSH2 0x1A6B DUP3 PUSH2 0x208A JUMP JUMPDEST PUSH1 0x20 DUP3 ADD SWAP1 POP SWAP2 SWAP1 POP JUMP JUMPDEST PUSH1 0x0 PUSH2 0x1A83 PUSH1 0x3 DUP4 PUSH2 0x1E42 JUMP JUMPDEST SWAP2 POP PUSH2 0x1A8E DUP3 PUSH2 0x20B3 JUMP JUMPDEST PUSH1 0x20 DUP3 ADD SWAP1 POP SWAP2 SWAP1 POP JUMP JUMPDEST PUSH1 0x0 PUSH2 0x1AA6 PUSH1 0x3 DUP4 PUSH2 0x1E42 JUMP JUMPDEST SWAP2 POP PUSH2 0x1AB1 DUP3 PUSH2 0x20DC JUMP JUMPDEST PUSH1 0x20 DUP3 ADD SWAP1 POP SWAP2 SWAP1 POP JUMP JUMPDEST PUSH1 0x0 PUSH2 0x1AC9 PUSH1 0x3 DUP4 PUSH2 0x1E42 JUMP JUMPDEST SWAP2 POP PUSH2 0x1AD4 DUP3 PUSH2 0x2105 JUMP JUMPDEST PUSH1 0x20 DUP3 ADD SWAP1 POP SWAP2 SWAP1 POP JUMP JUMPDEST PUSH1 0x0 PUSH2 0x1AEC PUSH1 0x3 DUP4 PUSH2 0x1E42 JUMP JUMPDEST SWAP2 POP PUSH2 0x1AF7 DUP3 PUSH2 0x212E JUMP JUMPDEST PUSH1 0x20 DUP3 ADD SWAP1 POP SWAP2 SWAP1 POP JUMP JUMPDEST PUSH1 0x0 PUSH2 0x1B0F PUSH1 0x3 DUP4 PUSH2 0x1E42 JUMP JUMPDEST SWAP2 POP PUSH2 0x1B1A DUP3 PUSH2 0x2157 JUMP JUMPDEST PUSH1 0x20 DUP3 ADD SWAP1 POP SWAP2 SWAP1 POP JUMP JUMPDEST PUSH1 0x60 DUP3 ADD PUSH1 0x0 DUP3 ADD MLOAD PUSH2 0x1B3B PUSH1 0x0 DUP6 ADD DUP3 PUSH2 0x1BCF JUMP JUMPDEST POP PUSH1 0x20 DUP3 ADD MLOAD PUSH2 0x1B4E PUSH1 0x20 DUP6 ADD DUP3 PUSH2 0x1A21 JUMP JUMPDEST POP PUSH1 0x40 DUP3 ADD MLOAD PUSH2 0x1B61 PUSH1 0x40 DUP6 ADD DUP3 PUSH2 0x1BCF JUMP JUMPDEST POP POP POP POP JUMP JUMPDEST PUSH1 0xA0 DUP3 ADD PUSH1 0x0 DUP3 ADD MLOAD PUSH2 0x1B7D PUSH1 0x0 DUP6 ADD DUP3 PUSH2 0x1BCF JUMP JUMPDEST POP PUSH1 0x20 DUP3 ADD MLOAD PUSH2 0x1B90 PUSH1 0x20 DUP6 ADD DUP3 PUSH2 0x1A21 JUMP JUMPDEST POP PUSH1 0x40 DUP3 ADD MLOAD PUSH2 0x1BA3 PUSH1 0x40 DUP6 ADD DUP3 PUSH2 0x1BCF JUMP JUMPDEST POP PUSH1 0x60 DUP3 ADD MLOAD PUSH2 0x1BB6 PUSH1 0x60 DUP6 ADD DUP3 PUSH2 0x1A12 JUMP JUMPDEST POP PUSH1 0x80 DUP3 ADD MLOAD PUSH2 0x1BC9 PUSH1 0x80 DUP6 ADD DUP3 PUSH2 0x1938 JUMP JUMPDEST POP POP POP POP JUMP JUMPDEST PUSH2 0x1BD8 DUP2 PUSH2 0x1F7C JUMP JUMPDEST DUP3 MSTORE POP POP JUMP JUMPDEST PUSH2 0x1BE7 DUP2 PUSH2 0x1F7C JUMP JUMPDEST DUP3 MSTORE POP POP JUMP JUMPDEST PUSH1 0x0 PUSH1 0x20 DUP3 ADD SWAP1 POP PUSH2 0x1C02 PUSH1 0x0 DUP4 ADD DUP5 PUSH2 0x1947 JUMP JUMPDEST SWAP3 SWAP2 POP POP JUMP JUMPDEST PUSH1 0x0 PUSH1 0x40 DUP3 ADD SWAP1 POP PUSH2 0x1C1D PUSH1 0x0 DUP4 ADD DUP6 PUSH2 0x1947 JUMP JUMPDEST PUSH2 0x1C2A PUSH1 0x20 DUP4 ADD DUP5 PUSH2 0x1947 JUMP JUMPDEST SWAP4 SWAP3 POP POP POP JUMP JUMPDEST PUSH1 0x0 PUSH1 0x60 DUP3 ADD SWAP1 POP PUSH2 0x1C46 PUSH1 0x0 DUP4 ADD DUP7 PUSH2 0x1947 JUMP JUMPDEST PUSH2 0x1C53 PUSH1 0x20 DUP4 ADD DUP6 PUSH2 0x1947 JUMP JUMPDEST PUSH2 0x1C60 PUSH1 0x40 DUP4 ADD DUP5 PUSH2 0x1BDE JUMP JUMPDEST SWAP5 SWAP4 POP POP POP POP JUMP JUMPDEST PUSH1 0x0 PUSH1 0x40 DUP3 ADD SWAP1 POP PUSH2 0x1C7D PUSH1 0x0 DUP4 ADD DUP6 PUSH2 0x1947 JUMP JUMPDEST PUSH2 0x1C8A PUSH1 0x20 DUP4 ADD DUP5 PUSH2 0x1BDE JUMP JUMPDEST SWAP4 SWAP3 POP POP POP JUMP JUMPDEST PUSH1 0x0 PUSH1 0x20 DUP3 ADD SWAP1 POP DUP2 DUP2 SUB PUSH1 0x0 DUP4 ADD MSTORE PUSH2 0x1CAB DUP2 DUP5 PUSH2 0x1956 JUMP JUMPDEST SWAP1 POP SWAP3 SWAP2 POP POP JUMP JUMPDEST PUSH1 0x0 PUSH1 0x20 DUP3 ADD SWAP1 POP DUP2 DUP2 SUB PUSH1 0x0 DUP4 ADD MSTORE PUSH2 0x1CCD DUP2 DUP5 PUSH2 0x19B4 JUMP JUMPDEST SWAP1 POP SWAP3 SWAP2 POP POP JUMP JUMPDEST PUSH1 0x0 PUSH1 0x20 DUP3 ADD SWAP1 POP DUP2 DUP2 SUB PUSH1 0x0 DUP4 ADD MSTORE PUSH2 0x1CEE DUP2 PUSH2 0x1A30 JUMP JUMPDEST SWAP1 POP SWAP2 SWAP1 POP JUMP JUMPDEST PUSH1 0x0 PUSH1 0x20 DUP3 ADD SWAP1 POP DUP2 DUP2 SUB PUSH1 0x0 DUP4 ADD MSTORE PUSH2 0x1D0E DUP2 PUSH2 0x1A53 JUMP JUMPDEST SWAP1 POP SWAP2 SWAP1 POP JUMP JUMPDEST PUSH1 0x0 PUSH1 0x20 DUP3 ADD SWAP1 POP DUP2 DUP2 SUB PUSH1 0x0 DUP4 ADD MSTORE PUSH2 0x1D2E DUP2 PUSH2 0x1A76 JUMP JUMPDEST SWAP1 POP SWAP2 SWAP1 POP JUMP JUMPDEST PUSH1 0x0 PUSH1 0x20 DUP3 ADD SWAP1 POP DUP2 DUP2 SUB PUSH1 0x0 DUP4 ADD MSTORE PUSH2 0x1D4E DUP2 PUSH2 0x1A99 JUMP JUMPDEST SWAP1 POP SWAP2 SWAP1 POP JUMP JUMPDEST PUSH1 0x0 PUSH1 0x20 DUP3 ADD SWAP1 POP DUP2 DUP2 SUB PUSH1 0x0 DUP4 ADD MSTORE PUSH2 0x1D6E DUP2 PUSH2 0x1ABC JUMP JUMPDEST SWAP1 POP SWAP2 SWAP1 POP JUMP JUMPDEST PUSH1 0x0 PUSH1 0x20 DUP3 ADD SWAP1 POP DUP2 DUP2 SUB PUSH1 0x0 DUP4 ADD MSTORE PUSH2 0x1D8E DUP2 PUSH2 0x1ADF JUMP JUMPDEST SWAP1 POP SWAP2 SWAP1 POP JUMP JUMPDEST PUSH1 0x0 PUSH1 0x20 DUP3 ADD SWAP1 POP DUP2 DUP2 SUB PUSH1 0x0 DUP4 ADD MSTORE PUSH2 0x1DAE DUP2 PUSH2 0x1B02 JUMP JUMPDEST SWAP1 POP SWAP2 SWAP1 POP JUMP JUMPDEST PUSH1 0x0 PUSH1 0x20 DUP3 ADD SWAP1 POP PUSH2 0x1DCA PUSH1 0x0 DUP4 ADD DUP5 PUSH2 0x1BDE JUMP JUMPDEST SWAP3 SWAP2 POP POP JUMP JUMPDEST PUSH1 0x0 DUP2 SWAP1 POP PUSH1 0x20 DUP3 ADD SWAP1 POP SWAP2 SWAP1 POP JUMP JUMPDEST PUSH1 0x0 DUP2 SWAP1 POP PUSH1 0x20 DUP3 ADD SWAP1 POP SWAP2 SWAP1 POP JUMP JUMPDEST PUSH1 0x0 DUP2 MLOAD SWAP1 POP SWAP2 SWAP1 POP JUMP JUMPDEST PUSH1 0x0 DUP2 MLOAD SWAP1 POP SWAP2 SWAP1 POP JUMP JUMPDEST PUSH1 0x0 PUSH1 0x20 DUP3 ADD SWAP1 POP SWAP2 SWAP1 POP JUMP JUMPDEST PUSH1 0x0 PUSH1 0x20 DUP3 ADD SWAP1 POP SWAP2 SWAP1 POP JUMP JUMPDEST PUSH1 0x0 DUP3 DUP3 MSTORE PUSH1 0x20 DUP3 ADD SWAP1 POP SWAP3 SWAP2 POP POP JUMP JUMPDEST PUSH1 0x0 DUP3 DUP3 MSTORE PUSH1 0x20 DUP3 ADD SWAP1 POP SWAP3 SWAP2 POP POP JUMP JUMPDEST PUSH1 0x0 DUP3 DUP3 MSTORE PUSH1 0x20 DUP3 ADD SWAP1 POP SWAP3 SWAP2 POP POP JUMP JUMPDEST PUSH1 0x0 PUSH2 0x1E5E DUP3 PUSH2 0x1F7C JUMP JUMPDEST SWAP2 POP PUSH2 0x1E69 DUP4 PUSH2 0x1F7C JUMP JUMPDEST SWAP3 POP DUP3 PUSH32 0xFFFFFFFFFFFFFFFFFFFFFFFFFFFFFFFFFFFFFFFFFFFFFFFFFFFFFFFFFFFFFFFF SUB DUP3 GT ISZERO PUSH2 0x1E9E JUMPI PUSH2 0x1E9D PUSH2 0x1FCF JUMP JUMPDEST JUMPDEST DUP3 DUP3 ADD SWAP1 POP SWAP3 SWAP2 POP POP JUMP JUMPDEST PUSH1 0x0 PUSH2 0x1EB4 DUP3 PUSH2 0x1F7C JUMP JUMPDEST SWAP2 POP PUSH2 0x1EBF DUP4 PUSH2 0x1F7C JUMP JUMPDEST SWAP3 POP DUP3 PUSH2 0x1ECF JUMPI PUSH2 0x1ECE PUSH2 0x1FFE JUMP JUMPDEST JUMPDEST DUP3 DUP3 DIV SWAP1 POP SWAP3 SWAP2 POP POP JUMP JUMPDEST PUSH1 0x0 PUSH2 0x1EE5 DUP3 PUSH2 0x1F7C JUMP JUMPDEST SWAP2 POP PUSH2 0x1EF0 DUP4 PUSH2 0x1F7C JUMP JUMPDEST SWAP3 POP DUP2 PUSH32 0xFFFFFFFFFFFFFFFFFFFFFFFFFFFFFFFFFFFFFFFFFFFFFFFFFFFFFFFFFFFFFFFF DIV DUP4 GT DUP3 ISZERO ISZERO AND ISZERO PUSH2 0x1F29 JUMPI PUSH2 0x1F28 PUSH2 0x1FCF JUMP JUMPDEST JUMPDEST DUP3 DUP3 MUL SWAP1 POP SWAP3 SWAP2 POP POP JUMP JUMPDEST PUSH1 0x0 PUSH2 0x1F3F DUP3 PUSH2 0x1F5C JUMP JUMPDEST SWAP1 POP SWAP2 SWAP1 POP JUMP JUMPDEST PUSH1 0x0 DUP2 ISZERO ISZERO SWAP1 POP SWAP2 SWAP1 POP JUMP JUMPDEST PUSH1 0x0 DUP2 SWAP1 POP SWAP2 SWAP1 POP JUMP JUMPDEST PUSH1 0x0 PUSH20 0xFFFFFFFFFFFFFFFFFFFFFFFFFFFFFFFFFFFFFFFF DUP3 AND SWAP1 POP SWAP2 SWAP1 POP JUMP JUMPDEST PUSH1 0x0 DUP2 SWAP1 POP SWAP2 SWAP1 POP JUMP JUMPDEST PUSH1 0x0 PUSH2 0x1F91 DUP3 PUSH2 0x1F7C JUMP JUMPDEST SWAP2 POP PUSH32 0xFFFFFFFFFFFFFFFFFFFFFFFFFFFFFFFFFFFFFFFFFFFFFFFFFFFFFFFFFFFFFFFF DUP3 EQ ISZERO PUSH2 0x1FC4 JUMPI PUSH2 0x1FC3 PUSH2 0x1FCF JUMP JUMPDEST JUMPDEST PUSH1 0x1 DUP3 ADD SWAP1 POP SWAP2 SWAP1 POP JUMP JUMPDEST PUSH32 0x4E487B7100000000000000000000000000000000000000000000000000000000 PUSH1 0x0 MSTORE PUSH1 0x11 PUSH1 0x4 MSTORE PUSH1 0x24 PUSH1 0x0 REVERT JUMPDEST PUSH32 0x4E487B7100000000000000000000000000000000000000000000000000000000 PUSH1 0x0 MSTORE PUSH1 0x12 PUSH1 0x4 MSTORE PUSH1 0x24 PUSH1 0x0 REVERT JUMPDEST PUSH32 0x4E487B7100000000000000000000000000000000000000000000000000000000 PUSH1 0x0 MSTORE PUSH1 0x32 PUSH1 0x4 MSTORE PUSH1 0x24 PUSH1 0x0 REVERT JUMPDEST PUSH1 0x0 DUP1 REVERT JUMPDEST PUSH32 0x3078330000000000000000000000000000000000000000000000000000000000 PUSH1 0x0 DUP3 ADD MSTORE POP JUMP JUMPDEST PUSH32 0x3078370000000000000000000000000000000000000000000000000000000000 PUSH1 0x0 DUP3 ADD MSTORE POP JUMP JUMPDEST PUSH32 0x3078340000000000000000000000000000000000000000000000000000000000 PUSH1 0x0 DUP3 ADD MSTORE POP JUMP JUMPDEST PUSH32 0x3078380000000000000000000000000000000000000000000000000000000000 PUSH1 0x0 DUP3 ADD MSTORE POP JUMP JUMPDEST PUSH32 0x3078350000000000000000000000000000000000000000000000000000000000 PUSH1 0x0 DUP3 ADD MSTORE POP JUMP JUMPDEST PUSH32 0x3078320000000000000000000000000000000000000000000000000000000000 PUSH1 0x0 DUP3 ADD MSTORE POP JUMP JUMPDEST PUSH32 0x3078360000000000000000000000000000000000000000000000000000000000 PUSH1 0x0 DUP3 ADD MSTORE POP JUMP JUMPDEST PUSH2 0x2189 DUP2 PUSH2 0x1F34 JUMP JUMPDEST DUP2 EQ PUSH2 0x2194 JUMPI PUSH1 0x0 DUP1 REVERT JUMPDEST POP JUMP JUMPDEST PUSH2 0x21A0 DUP2 PUSH2 0x1F46 JUMP JUMPDEST DUP2 EQ PUSH2 0x21AB JUMPI PUSH1 0x0 DUP1 REVERT JUMPDEST POP JUMP JUMPDEST PUSH2 0x21B7 DUP2 PUSH2 0x1F52 JUMP JUMPDEST DUP2 EQ PUSH2 0x21C2 JUMPI PUSH1 0x0 DUP1 REVERT JUMPDEST POP JUMP JUMPDEST PUSH2 0x21CE DUP2 PUSH2 0x1F7C JUMP JUMPDEST DUP2 EQ PUSH2 0x21D9 JUMPI PUSH1 0x0 DUP1 REVERT JUMPDEST POP JUMP INVALID LOG2 PUSH5 0x6970667358 0x22 SLT KECCAK256 0xC8 0x29 0xCC BALANCE 0xCB 0xAC 0xF8 0x22 0xE5 XOR ADDRESS PUSH19 0xAE7C3C0C83E15D5D36423AE34AE919FA2B354A DUP6 PUSH5 0x736F6C6343 STOP ADDMOD SMOD STOP CALLER "
				},
				"gasEstimates": {
					"creation": {
						"codeDepositCost": "1744400",
						"executionCost": "infinite",
						"totalCost": "infinite"
					},
					"external": {
						"addArgument(uint256,bytes32)": "infinite",
						"close()": "infinite",
						"getCustomerArguments()": "infinite",
						"getExecutionContractAddress()": "2610",
						"getExecutorArguments()": "infinite",
						"getJudgmentTimeEnd()": "2481",
						"getNumVotes()": "2534",
						"getTaskInfoContractAddress()": "2545",
						"getVotes()": "infinite",
						"vote(bool,uint256,bytes32)": "infinite"
					},
					"internal": {
						"calculateJudgeReward(uint256,uint256,bool)": "infinite",
						"checkCanSenderAddArguments(address)": "infinite",
						"checkCanSenderVote(address)": "infinite",
						"checkIsContractNotClosed()": "infinite",
						"checkIsContractShouldBeClosed()": "infinite",
						"countVotes()": "infinite",
						"getWinner(uint256,uint256)": "64",
						"payBalanceToCompany()": "infinite",
						"payRewardByVote(uint256,uint256,bool)": "infinite",
						"payRewardToWinner(bool)": "infinite",
						"payRewards(uint256,uint256)": "infinite"
					}
				},
				"methodIdentifiers": {
					"addArgument(uint256,bytes32)": "e90f4e7c",
					"close()": "43d726d6",
					"getCustomerArguments()": "d48fe222",
					"getExecutionContractAddress()": "ec1abd7f",
					"getExecutorArguments()": "079402c1",
					"getJudgmentTimeEnd()": "e556dcb2",
					"getNumVotes()": "8b5a8db2",
					"getTaskInfoContractAddress()": "09f82a8a",
					"getVotes()": "0dc96015",
					"vote(bool,uint256,bytes32)": "d9416762"
				}
			},
			"storageLayout": {
				"storage": [
					{
						"astId": 103,
						"contract": "contracts_new/Judgment.sol:Judgment",
						"label": "executionContractAddress",
						"offset": 0,
						"slot": "0",
						"type": "t_address"
					},
					{
						"astId": 105,
						"contract": "contracts_new/Judgment.sol:Judgment",
						"label": "taskInfoContractAddress",
						"offset": 0,
						"slot": "1",
						"type": "t_address"
					},
					{
						"astId": 109,
						"contract": "contracts_new/Judgment.sol:Judgment",
						"label": "customerArguments",
						"offset": 0,
						"slot": "2",
						"type": "t_array(t_struct(Argument)1187_storage)dyn_storage"
					},
					{
						"astId": 113,
						"contract": "contracts_new/Judgment.sol:Judgment",
						"label": "executorArguments",
						"offset": 0,
						"slot": "3",
						"type": "t_array(t_struct(Argument)1187_storage)dyn_storage"
					},
					{
						"astId": 117,
						"contract": "contracts_new/Judgment.sol:Judgment",
						"label": "judge_votes",
						"offset": 0,
						"slot": "4",
						"type": "t_array(t_struct(JudgeVote)1180_storage)dyn_storage"
					},
					{
						"astId": 119,
						"contract": "contracts_new/Judgment.sol:Judgment",
						"label": "judgmentTimeEnd",
						"offset": 0,
						"slot": "5",
						"type": "t_uint256"
					},
					{
						"astId": 122,
						"contract": "contracts_new/Judgment.sol:Judgment",
						"label": "rewardsPayed",
						"offset": 0,
						"slot": "6",
						"type": "t_bool"
					}
				],
				"types": {
					"t_address": {
						"encoding": "inplace",
						"label": "address",
						"numberOfBytes": "20"
					},
					"t_array(t_struct(Argument)1187_storage)dyn_storage": {
						"base": "t_struct(Argument)1187_storage",
						"encoding": "dynamic_array",
						"label": "struct utils.Argument[]",
						"numberOfBytes": "32"
					},
					"t_array(t_struct(JudgeVote)1180_storage)dyn_storage": {
						"base": "t_struct(JudgeVote)1180_storage",
						"encoding": "dynamic_array",
						"label": "struct utils.JudgeVote[]",
						"numberOfBytes": "32"
					},
					"t_bool": {
						"encoding": "inplace",
						"label": "bool",
						"numberOfBytes": "1"
					},
					"t_bytes32": {
						"encoding": "inplace",
						"label": "bytes32",
						"numberOfBytes": "32"
					},
					"t_struct(Argument)1187_storage": {
						"encoding": "inplace",
						"label": "struct utils.Argument",
						"members": [
							{
								"astId": 1182,
								"contract": "contracts_new/Judgment.sol:Judgment",
								"label": "id",
								"offset": 0,
								"slot": "0",
								"type": "t_uint256"
							},
							{
								"astId": 1184,
								"contract": "contracts_new/Judgment.sol:Judgment",
								"label": "sha256hashsum",
								"offset": 0,
								"slot": "1",
								"type": "t_bytes32"
							},
							{
								"astId": 1186,
								"contract": "contracts_new/Judgment.sol:Judgment",
								"label": "timestamp",
								"offset": 0,
								"slot": "2",
								"type": "t_uint256"
							}
						],
						"numberOfBytes": "96"
					},
					"t_struct(JudgeVote)1180_storage": {
						"encoding": "inplace",
						"label": "struct utils.JudgeVote",
						"members": [
							{
								"astId": 1171,
								"contract": "contracts_new/Judgment.sol:Judgment",
								"label": "id",
								"offset": 0,
								"slot": "0",
								"type": "t_uint256"
							},
							{
								"astId": 1173,
								"contract": "contracts_new/Judgment.sol:Judgment",
								"label": "sha256hashsum",
								"offset": 0,
								"slot": "1",
								"type": "t_bytes32"
							},
							{
								"astId": 1175,
								"contract": "contracts_new/Judgment.sol:Judgment",
								"label": "timestamp",
								"offset": 0,
								"slot": "2",
								"type": "t_uint256"
							},
							{
								"astId": 1177,
								"contract": "contracts_new/Judgment.sol:Judgment",
								"label": "verdict",
								"offset": 0,
								"slot": "3",
								"type": "t_bool"
							},
							{
								"astId": 1179,
								"contract": "contracts_new/Judgment.sol:Judgment",
								"label": "judgeAddress",
								"offset": 1,
								"slot": "3",
								"type": "t_address"
							}
						],
						"numberOfBytes": "128"
					},
					"t_uint256": {
						"encoding": "inplace",
						"label": "uint256",
						"numberOfBytes": "32"
					}
				}
			},
			"userdoc": {
				"kind": "user",
				"methods": {},
				"version": 1
			}
		}
	}
}