{
	"Judgment.sol": {
		"Judgment": {
			"abi": [
				{
					"inputs": [
						{
							"internalType": "address",
							"name": "task_info_contract_address",
							"type": "address"
						},
						{
							"internalType": "uint256",
							"name": "judgment_time",
							"type": "uint256"
						}
					],
					"stateMutability": "nonpayable",
					"type": "constructor"
				},
				{
					"anonymous": false,
					"inputs": [
						{
							"indexed": false,
							"internalType": "address",
							"name": "from",
							"type": "address"
						},
						{
							"indexed": false,
							"internalType": "uint256",
							"name": "timestamp",
							"type": "uint256"
						}
					],
					"name": "ArgumentAdded",
					"type": "event"
				},
				{
					"anonymous": false,
					"inputs": [
						{
							"indexed": false,
							"internalType": "address",
							"name": "judge",
							"type": "address"
						},
						{
							"indexed": false,
							"internalType": "uint256",
							"name": "timestamp",
							"type": "uint256"
						}
					],
					"name": "Voted",
					"type": "event"
				},
				{
					"inputs": [
						{
							"internalType": "uint256",
							"name": "argument_id",
							"type": "uint256"
						},
						{
							"internalType": "bytes32",
							"name": "argument_sha256sum",
							"type": "bytes32"
						}
					],
					"name": "addArgument",
					"outputs": [],
					"stateMutability": "nonpayable",
					"type": "function"
				},
				{
					"inputs": [
						{
							"internalType": "address",
							"name": "sender",
							"type": "address"
						}
					],
					"name": "checkCanSenderVote",
					"outputs": [],
					"stateMutability": "view",
					"type": "function"
				},
				{
					"inputs": [],
					"name": "close",
					"outputs": [],
					"stateMutability": "nonpayable",
					"type": "function"
				},
				{
					"inputs": [],
					"name": "getCustomerArguments",
					"outputs": [
						{
							"components": [
								{
									"internalType": "uint256",
									"name": "id",
									"type": "uint256"
								},
								{
									"internalType": "bytes32",
									"name": "sha256hashsum",
									"type": "bytes32"
								},
								{
									"internalType": "uint256",
									"name": "timestamp",
									"type": "uint256"
								}
							],
							"internalType": "struct utils.Argument[]",
							"name": "",
							"type": "tuple[]"
						}
					],
					"stateMutability": "view",
					"type": "function"
				},
				{
					"inputs": [],
					"name": "getExecutionContractAddress",
					"outputs": [
						{
							"internalType": "address",
							"name": "",
							"type": "address"
						}
					],
					"stateMutability": "view",
					"type": "function"
				},
				{
					"inputs": [],
					"name": "getExecutorArguments",
					"outputs": [
						{
							"components": [
								{
									"internalType": "uint256",
									"name": "id",
									"type": "uint256"
								},
								{
									"internalType": "bytes32",
									"name": "sha256hashsum",
									"type": "bytes32"
								},
								{
									"internalType": "uint256",
									"name": "timestamp",
									"type": "uint256"
								}
							],
							"internalType": "struct utils.Argument[]",
							"name": "",
							"type": "tuple[]"
						}
					],
					"stateMutability": "view",
					"type": "function"
				},
				{
					"inputs": [],
					"name": "getJudgmentTimeEnd",
					"outputs": [
						{
							"internalType": "uint256",
							"name": "",
							"type": "uint256"
						}
					],
					"stateMutability": "view",
					"type": "function"
				},
				{
					"inputs": [],
					"name": "getNumVotes",
					"outputs": [
						{
							"internalType": "uint256",
							"name": "",
							"type": "uint256"
						}
					],
					"stateMutability": "view",
					"type": "function"
				},
				{
					"inputs": [],
					"name": "getTaskInfoContractAddress",
					"outputs": [
						{
							"internalType": "address",
							"name": "",
							"type": "address"
						}
					],
					"stateMutability": "view",
					"type": "function"
				},
				{
					"inputs": [],
					"name": "getVotes",
					"outputs": [
						{
							"components": [
								{
									"internalType": "uint256",
									"name": "id",
									"type": "uint256"
								},
								{
									"internalType": "bytes32",
									"name": "sha256hashsum",
									"type": "bytes32"
								},
								{
									"internalType": "uint256",
									"name": "timestamp",
									"type": "uint256"
								},
								{
									"internalType": "bool",
									"name": "verdict",
									"type": "bool"
								},
								{
									"internalType": "address",
									"name": "judgeAddress",
									"type": "address"
								}
							],
							"internalType": "struct utils.JudgeVote[]",
							"name": "",
							"type": "tuple[]"
						}
					],
					"stateMutability": "view",
					"type": "function"
				},
				{
					"inputs": [],
					"name": "isClosed",
					"outputs": [
						{
							"internalType": "bool",
							"name": "",
							"type": "bool"
						}
					],
					"stateMutability": "view",
					"type": "function"
				},
				{
					"inputs": [
						{
							"internalType": "bool",
							"name": "verdict",
							"type": "bool"
						},
						{
							"internalType": "uint256",
							"name": "vote_id",
							"type": "uint256"
						},
						{
							"internalType": "bytes32",
							"name": "vote_sha256hashsum",
							"type": "bytes32"
						}
					],
					"name": "vote",
					"outputs": [],
					"stateMutability": "nonpayable",
					"type": "function"
				}
			],
			"devdoc": {
				"kind": "dev",
				"methods": {},
				"version": 1
			},
			"evm": {
				"assembly": "    /* \"Judgment.sol\":387:10580  contract Judgment {... */\n  mstore(0x40, 0x80)\n    /* \"Judgment.sol\":783:808  bool rewardsPayed = false */\n  0x06\n  dup1\n  sload\n  not(0xff)\n  and\n  swap1\n  sstore\n    /* \"Judgment.sol\":803:808  false */\n  0x00\n    /* \"Judgment.sol\":862:880  uint votes_for = 0 */\n  0x07\n  dup2\n  swap1\n  sstore\n    /* \"Judgment.sol\":886:908  uint votes_against = 0 */\n  0x08\n  sstore\n    /* \"Judgment.sol\":915:1290  constructor(... */\n  callvalue\n  dup1\n  iszero\n  tag_1\n  jumpi\n  0x00\n  dup1\n  revert\ntag_1:\n  pop\n  mload(0x40)\n  sub(codesize, bytecodeSize)\n  dup1\n  bytecodeSize\n  dup4\n  codecopy\n  dup2\n  add\n  0x40\n  dup2\n  swap1\n  mstore\n  tag_2\n  swap2\n  tag_3\n  jump\t// in\ntag_2:\n    /* \"utils.sol\":490:503  1 minutes - 1 */\n  0x3b\n    /* \"Judgment.sol\":1023:1036  judgment_time */\n  dup2\n    /* \"Judgment.sol\":1023:1063  judgment_time >= utils.MIN_JUDGMENT_TIME */\n  lt\n  iszero\n    /* \"Judgment.sol\":1015:1071  require(judgment_time >= utils.MIN_JUDGMENT_TIME, \"0x1\") */\n  tag_6\n  jumpi\n  mload(0x40)\n  shl(0xe5, 0x461bcd)\n  dup2\n  mstore\n    /* \"#utility.yul\":572:574   */\n  0x20\n    /* \"Judgment.sol\":1015:1071  require(judgment_time >= utils.MIN_JUDGMENT_TIME, \"0x1\") */\n  0x04\n  dup3\n  add\n    /* \"#utility.yul\":554:575   */\n  mstore\n    /* \"#utility.yul\":611:612   */\n  0x03\n    /* \"#utility.yul\":591:609   */\n  0x24\n  dup3\n  add\n    /* \"#utility.yul\":584:613   */\n  mstore\n  shl(0xe8, 0x307831)\n    /* \"#utility.yul\":629:647   */\n  0x44\n  dup3\n  add\n    /* \"#utility.yul\":622:655   */\n  mstore\n    /* \"#utility.yul\":672:690   */\n  0x64\n  add\n    /* \"Judgment.sol\":1015:1071  require(judgment_time >= utils.MIN_JUDGMENT_TIME, \"0x1\") */\n  mload(0x40)\n  dup1\n  swap2\n  sub\n  swap1\n  revert\ntag_6:\n    /* \"Judgment.sol\":1124:1148  executionContractAddress */\n  0x00\n    /* \"Judgment.sol\":1124:1161  executionContractAddress = msg.sender */\n  dup1\n  sload\n    /* \"Judgment.sol\":1151:1161  msg.sender */\n  caller\n  not(sub(shl(0xa0, 0x01), 0x01))\n    /* \"Judgment.sol\":1124:1161  executionContractAddress = msg.sender */\n  swap2\n  dup3\n  and\n  or\n  swap1\n  swap2\n  sstore\n  0x01\n    /* \"Judgment.sol\":1171:1223  taskInfoContractAddress = task_info_contract_address */\n  dup1\n  sload\n  swap1\n  swap2\n  and\n  sub(shl(0xa0, 0x01), 0x01)\n  dup5\n  and\n  or\n  swap1\n  sstore\n    /* \"Judgment.sol\":1252:1283  block.timestamp + judgment_time */\n  tag_9\n    /* \"Judgment.sol\":1270:1283  judgment_time */\n  dup2\n    /* \"Judgment.sol\":1252:1267  block.timestamp */\n  timestamp\n    /* \"Judgment.sol\":1252:1283  block.timestamp + judgment_time */\n  tag_10\n  jump\t// in\ntag_9:\n    /* \"Judgment.sol\":1234:1249  judgmentTimeEnd */\n  0x05\n    /* \"Judgment.sol\":1234:1283  judgmentTimeEnd = block.timestamp + judgment_time */\n  sstore\n  pop\n    /* \"Judgment.sol\":387:10580  contract Judgment {... */\n  tag_12\n  swap1\n  pop\n  jump\n    /* \"#utility.yul\":14:365   */\ntag_3:\n    /* \"#utility.yul\":93:99   */\n  0x00\n    /* \"#utility.yul\":101:107   */\n  dup1\n    /* \"#utility.yul\":154:156   */\n  0x40\n    /* \"#utility.yul\":142:151   */\n  dup4\n    /* \"#utility.yul\":133:140   */\n  dup6\n    /* \"#utility.yul\":129:152   */\n  sub\n    /* \"#utility.yul\":125:157   */\n  slt\n    /* \"#utility.yul\":122:174   */\n  iszero\n  tag_14\n  jumpi\n    /* \"#utility.yul\":170:171   */\n  0x00\n    /* \"#utility.yul\":167:168   */\n  dup1\n    /* \"#utility.yul\":160:172   */\n  revert\n    /* \"#utility.yul\":122:174   */\ntag_14:\n    /* \"#utility.yul\":196:212   */\n  dup3\n  mload\n  sub(shl(0xa0, 0x01), 0x01)\n    /* \"#utility.yul\":241:272   */\n  dup2\n  and\n    /* \"#utility.yul\":231:273   */\n  dup2\n  eq\n    /* \"#utility.yul\":221:291   */\n  tag_15\n  jumpi\n    /* \"#utility.yul\":287:288   */\n  0x00\n    /* \"#utility.yul\":284:285   */\n  dup1\n    /* \"#utility.yul\":277:289   */\n  revert\n    /* \"#utility.yul\":221:291   */\ntag_15:\n    /* \"#utility.yul\":355:357   */\n  0x20\n    /* \"#utility.yul\":340:358   */\n  swap4\n  swap1\n  swap4\n  add\n    /* \"#utility.yul\":334:359   */\n  mload\n    /* \"#utility.yul\":310:315   */\n  swap3\n  swap5\n    /* \"#utility.yul\":334:359   */\n  swap3\n  swap4\n  pop\n  pop\n  pop\n    /* \"#utility.yul\":14:365   */\n  jump\t// out\n    /* \"#utility.yul\":701:923   */\ntag_10:\n    /* \"#utility.yul\":766:775   */\n  dup1\n  dup3\n  add\n    /* \"#utility.yul\":787:797   */\n  dup1\n  dup3\n  gt\n    /* \"#utility.yul\":784:917   */\n  iszero\n  tag_18\n  jumpi\n    /* \"#utility.yul\":839:849   */\n  0x4e487b71\n    /* \"#utility.yul\":834:837   */\n  0xe0\n    /* \"#utility.yul\":830:850   */\n  shl\n    /* \"#utility.yul\":827:828   */\n  0x00\n    /* \"#utility.yul\":820:851   */\n  mstore\n    /* \"#utility.yul\":874:878   */\n  0x11\n    /* \"#utility.yul\":871:872   */\n  0x04\n    /* \"#utility.yul\":864:879   */\n  mstore\n    /* \"#utility.yul\":902:906   */\n  0x24\n    /* \"#utility.yul\":899:900   */\n  0x00\n    /* \"#utility.yul\":892:907   */\n  revert\n    /* \"#utility.yul\":784:917   */\ntag_18:\n    /* \"#utility.yul\":701:923   */\n  swap3\n  swap2\n  pop\n  pop\n  jump\t// out\ntag_12:\n    /* \"Judgment.sol\":387:10580  contract Judgment {... */\n  dataSize(sub_0)\n  dup1\n  dataOffset(sub_0)\n  0x00\n  codecopy\n  0x00\n  return\nstop\n\nsub_0: assembly {\n        /* \"Judgment.sol\":387:10580  contract Judgment {... */\n      mstore(0x40, 0x80)\n      callvalue\n      dup1\n      iszero\n      tag_1\n      jumpi\n      0x00\n      dup1\n      revert\n    tag_1:\n      pop\n      jumpi(tag_2, lt(calldatasize, 0x04))\n      shr(0xe0, calldataload(0x00))\n      dup1\n      0xc2b6b58c\n      gt\n      tag_15\n      jumpi\n      dup1\n      0xc2b6b58c\n      eq\n      tag_9\n      jumpi\n      dup1\n      0xd48fe222\n      eq\n      tag_10\n      jumpi\n      dup1\n      0xd9416762\n      eq\n      tag_11\n      jumpi\n      dup1\n      0xe556dcb2\n      eq\n      tag_12\n      jumpi\n      dup1\n      0xe90f4e7c\n      eq\n      tag_13\n      jumpi\n      dup1\n      0xec1abd7f\n      eq\n      tag_14\n      jumpi\n      0x00\n      dup1\n      revert\n    tag_15:\n      dup1\n      0x079402c1\n      eq\n      tag_3\n      jumpi\n      dup1\n      0x09f82a8a\n      eq\n      tag_4\n      jumpi\n      dup1\n      0x0dc96015\n      eq\n      tag_5\n      jumpi\n      dup1\n      0x1d20a341\n      eq\n      tag_6\n      jumpi\n      dup1\n      0x43d726d6\n      eq\n      tag_7\n      jumpi\n      dup1\n      0x8b5a8db2\n      eq\n      tag_8\n      jumpi\n    tag_2:\n      0x00\n      dup1\n      revert\n        /* \"Judgment.sol\":1665:1784  function getExecutorArguments() public view returns (utils.Argument[] memory) {... */\n    tag_3:\n      tag_16\n      tag_17\n      jump\t// in\n    tag_16:\n      mload(0x40)\n      tag_18\n      swap2\n      swap1\n      tag_19\n      jump\t// in\n    tag_18:\n      mload(0x40)\n      dup1\n      swap2\n      sub\n      swap1\n      return\n        /* \"Judgment.sol\":1419:1534  function getTaskInfoContractAddress() public view returns (address) {... */\n    tag_4:\n        /* \"Judgment.sol\":1504:1527  taskInfoContractAddress */\n      and(sub(shl(0xa0, 0x01), 0x01), sload(0x01))\n        /* \"Judgment.sol\":1419:1534  function getTaskInfoContractAddress() public view returns (address) {... */\n    tag_20:\n      mload(0x40)\n      sub(shl(0xa0, 0x01), 0x01)\n        /* \"#utility.yul\":1026:1058   */\n      swap1\n      swap2\n      and\n        /* \"#utility.yul\":1008:1059   */\n      dup2\n      mstore\n        /* \"#utility.yul\":996:998   */\n      0x20\n        /* \"#utility.yul\":981:999   */\n      add\n        /* \"Judgment.sol\":1419:1534  function getTaskInfoContractAddress() public view returns (address) {... */\n      tag_18\n        /* \"#utility.yul\":862:1065   */\n      jump\n        /* \"Judgment.sol\":2079:2256  function getVotes() public view returns (utils.JudgeVote[] memory) {... */\n    tag_5:\n      tag_24\n      tag_25\n      jump\t// in\n    tag_24:\n      mload(0x40)\n      tag_18\n      swap2\n      swap1\n      tag_27\n      jump\t// in\n        /* \"Judgment.sol\":4326:4815  function checkCanSenderVote(address sender) public view {... */\n    tag_6:\n      tag_28\n      tag_29\n      calldatasize\n      0x04\n      tag_30\n      jump\t// in\n    tag_29:\n      tag_31\n      jump\t// in\n    tag_28:\n      stop\n        /* \"Judgment.sol\":4992:5328  function close() public {... */\n    tag_7:\n      tag_28\n      tag_33\n      jump\t// in\n        /* \"Judgment.sol\":1892:1984  function getNumVotes() public view returns (uint) {... */\n    tag_8:\n        /* \"Judgment.sol\":1959:1970  judge_votes */\n      0x04\n        /* \"Judgment.sol\":1959:1977  judge_votes.length */\n      sload\n        /* \"Judgment.sol\":1892:1984  function getNumVotes() public view returns (uint) {... */\n    tag_34:\n      mload(0x40)\n        /* \"#utility.yul\":2656:2681   */\n      swap1\n      dup2\n      mstore\n        /* \"#utility.yul\":2644:2646   */\n      0x20\n        /* \"#utility.yul\":2629:2647   */\n      add\n        /* \"Judgment.sol\":1892:1984  function getNumVotes() public view returns (uint) {... */\n      tag_18\n        /* \"#utility.yul\":2510:2687   */\n      jump\n        /* \"Judgment.sol\":1990:2073  function isClosed() public view returns (bool) {... */\n    tag_9:\n        /* \"Judgment.sol\":2054:2066  rewardsPayed */\n      and(0xff, sload(0x06))\n        /* \"Judgment.sol\":1990:2073  function isClosed() public view returns (bool) {... */\n      mload(0x40)\n        /* \"#utility.yul\":2857:2871   */\n      swap1\n      iszero\n        /* \"#utility.yul\":2850:2872   */\n      iszero\n        /* \"#utility.yul\":2832:2873   */\n      dup2\n      mstore\n        /* \"#utility.yul\":2820:2822   */\n      0x20\n        /* \"#utility.yul\":2805:2823   */\n      add\n        /* \"Judgment.sol\":1990:2073  function isClosed() public view returns (bool) {... */\n      tag_18\n        /* \"#utility.yul\":2692:2879   */\n      jump\n        /* \"Judgment.sol\":1540:1659  function getCustomerArguments() public view returns (utils.Argument[] memory) {... */\n    tag_10:\n      tag_16\n      tag_43\n      jump\t// in\n        /* \"Judgment.sol\":3332:4320  function vote(... */\n    tag_11:\n      tag_28\n      tag_46\n      calldatasize\n      0x04\n      tag_47\n      jump\t// in\n    tag_46:\n      tag_48\n      jump\t// in\n        /* \"Judgment.sol\":1790:1886  function getJudgmentTimeEnd() public view returns (uint) {... */\n    tag_12:\n        /* \"Judgment.sol\":1864:1879  judgmentTimeEnd */\n      sload(0x05)\n        /* \"Judgment.sol\":1790:1886  function getJudgmentTimeEnd() public view returns (uint) {... */\n      jump(tag_34)\n        /* \"Judgment.sol\":2262:3023  function addArgument(... */\n    tag_13:\n      tag_28\n      tag_53\n      calldatasize\n      0x04\n      tag_54\n      jump\t// in\n    tag_53:\n      tag_55\n      jump\t// in\n        /* \"Judgment.sol\":1296:1413  function getExecutionContractAddress() public view returns (address) {... */\n    tag_14:\n        /* \"Judgment.sol\":1356:1363  address */\n      0x00\n        /* \"Judgment.sol\":1382:1406  executionContractAddress */\n      sload\n      sub(shl(0xa0, 0x01), 0x01)\n      and\n        /* \"Judgment.sol\":1296:1413  function getExecutionContractAddress() public view returns (address) {... */\n      jump(tag_20)\n        /* \"Judgment.sol\":1665:1784  function getExecutorArguments() public view returns (utils.Argument[] memory) {... */\n    tag_17:\n        /* \"Judgment.sol\":1718:1741  utils.Argument[] memory */\n      0x60\n        /* \"Judgment.sol\":1760:1777  executorArguments */\n      0x03\n        /* \"Judgment.sol\":1753:1777  return executorArguments */\n      dup1\n      sload\n      dup1\n      0x20\n      mul\n      0x20\n      add\n      mload(0x40)\n      swap1\n      dup2\n      add\n      0x40\n      mstore\n      dup1\n      swap3\n      swap2\n      swap1\n      dup2\n      dup2\n      mstore\n      0x20\n      add\n      0x00\n      swap1\n    tag_60:\n      dup3\n      dup3\n      lt\n      iszero\n      tag_61\n      jumpi\n      dup4\n      dup3\n      swap1\n      0x00\n      mstore\n      keccak256(0x00, 0x20)\n      swap1\n      0x03\n      mul\n      add\n      mload(0x40)\n      dup1\n      0x60\n      add\n      0x40\n      mstore\n      swap1\n      dup2\n      0x00\n      dup3\n      add\n      sload\n      dup2\n      mstore\n      0x20\n      add\n      0x01\n      dup3\n      add\n      sload\n      dup2\n      mstore\n      0x20\n      add\n      0x02\n      dup3\n      add\n      sload\n      dup2\n      mstore\n      pop\n      pop\n      dup2\n      mstore\n      0x20\n      add\n      swap1\n      0x01\n      add\n      swap1\n      jump(tag_60)\n    tag_61:\n      pop\n      pop\n      pop\n      pop\n      swap1\n      pop\n        /* \"Judgment.sol\":1665:1784  function getExecutorArguments() public view returns (utils.Argument[] memory) {... */\n      swap1\n      jump\t// out\n        /* \"Judgment.sol\":2079:2256  function getVotes() public view returns (utils.JudgeVote[] memory) {... */\n    tag_25:\n        /* \"Judgment.sol\":2164:2176  rewardsPayed */\n      sload(0x06)\n        /* \"Judgment.sol\":2120:2144  utils.JudgeVote[] memory */\n      0x60\n      swap1\n        /* \"Judgment.sol\":2164:2176  rewardsPayed */\n      0xff\n      and\n        /* \"Judgment.sol\":2156:2184  require(rewardsPayed, \"0x2\") */\n      tag_65\n      jumpi\n      mload(0x40)\n      shl(0xe5, 0x461bcd)\n      dup2\n      mstore\n        /* \"#utility.yul\":3844:3846   */\n      0x20\n        /* \"Judgment.sol\":2156:2184  require(rewardsPayed, \"0x2\") */\n      0x04\n      dup3\n      add\n        /* \"#utility.yul\":3826:3847   */\n      mstore\n        /* \"#utility.yul\":3883:3884   */\n      0x03\n        /* \"#utility.yul\":3863:3881   */\n      0x24\n      dup3\n      add\n        /* \"#utility.yul\":3856:3885   */\n      mstore\n      shl(0xe9, 0x183c19)\n        /* \"#utility.yul\":3901:3919   */\n      0x44\n      dup3\n      add\n        /* \"#utility.yul\":3894:3927   */\n      mstore\n        /* \"#utility.yul\":3944:3962   */\n      0x64\n      add\n        /* \"Judgment.sol\":2156:2184  require(rewardsPayed, \"0x2\") */\n    tag_66:\n      mload(0x40)\n      dup1\n      swap2\n      sub\n      swap1\n      revert\n    tag_65:\n        /* \"Judgment.sol\":2238:2249  judge_votes */\n      0x04\n        /* \"Judgment.sol\":2231:2249  return judge_votes */\n      dup1\n      sload\n      dup1\n      0x20\n      mul\n      0x20\n      add\n      mload(0x40)\n      swap1\n      dup2\n      add\n      0x40\n      mstore\n      dup1\n      swap3\n      swap2\n      swap1\n      dup2\n      dup2\n      mstore\n      0x20\n      add\n      0x00\n      swap1\n    tag_68:\n      dup3\n      dup3\n      lt\n      iszero\n      tag_61\n      jumpi\n      0x00\n      dup5\n      dup2\n      mstore\n      0x20\n      swap1\n      dup2\n      swap1\n      keccak256\n      0x40\n      dup1\n      mload\n      0xa0\n      dup2\n      add\n      dup3\n      mstore\n      0x04\n      dup7\n      mul\n      swap1\n      swap3\n      add\n      dup1\n      sload\n      dup4\n      mstore\n      0x01\n      dup1\n      dup3\n      add\n      sload\n      dup5\n      dup7\n      add\n      mstore\n      0x02\n      dup3\n      add\n      sload\n      swap3\n      dup5\n      add\n      swap3\n      swap1\n      swap3\n      mstore\n      0x03\n      add\n      sload\n      0xff\n      dup2\n      and\n      iszero\n      iszero\n      0x60\n      dup5\n      add\n      mstore\n      0x0100\n      swap1\n      div\n      sub(shl(0xa0, 0x01), 0x01)\n      and\n      0x80\n      dup4\n      add\n      mstore\n      swap1\n      dup4\n      mstore\n      swap1\n      swap3\n      add\n      swap2\n      add\n      jump(tag_68)\n        /* \"Judgment.sol\":4326:4815  function checkCanSenderVote(address sender) public view {... */\n    tag_31:\n        /* \"Judgment.sol\":4420:4443  taskInfoContractAddress */\n      0x01\n      0x00\n      swap1\n      sload\n      swap1\n      0x0100\n      exp\n      swap1\n      div\n      sub(shl(0xa0, 0x01), 0x01)\n      and\n      sub(shl(0xa0, 0x01), 0x01)\n        /* \"Judgment.sol\":4410:4456  ITaskInfo(taskInfoContractAddress).getCustomer */\n      and\n      0x650d993b\n        /* \"Judgment.sol\":4410:4458  ITaskInfo(taskInfoContractAddress).getCustomer() */\n      mload(0x40)\n      dup2\n      0xffffffff\n      and\n      0xe0\n      shl\n      dup2\n      mstore\n      0x04\n      add\n      0x20\n      mload(0x40)\n      dup1\n      dup4\n      sub\n      dup2\n      dup7\n      gas\n      staticcall\n      iszero\n      dup1\n      iszero\n      tag_73\n      jumpi\n      returndatasize\n      0x00\n      dup1\n      returndatacopy\n      revert(0x00, returndatasize)\n    tag_73:\n      pop\n      pop\n      pop\n      pop\n      mload(0x40)\n      returndatasize\n      not(0x1f)\n      0x1f\n      dup3\n      add\n      and\n      dup3\n      add\n      dup1\n      0x40\n      mstore\n      pop\n      dup2\n      add\n      swap1\n      tag_74\n      swap2\n      swap1\n      tag_75\n      jump\t// in\n    tag_74:\n      sub(shl(0xa0, 0x01), 0x01)\n        /* \"Judgment.sol\":4400:4458  sender != ITaskInfo(taskInfoContractAddress).getCustomer() */\n      and\n        /* \"Judgment.sol\":4400:4406  sender */\n      dup2\n      sub(shl(0xa0, 0x01), 0x01)\n        /* \"Judgment.sol\":4400:4458  sender != ITaskInfo(taskInfoContractAddress).getCustomer() */\n      and\n      eq\n      iszero\n        /* \"Judgment.sol\":4400:4528  sender != ITaskInfo(taskInfoContractAddress).getCustomer() &&... */\n      dup1\n      iszero\n      tag_76\n      jumpi\n      pop\n        /* \"Judgment.sol\":4490:4513  taskInfoContractAddress */\n      0x01\n      0x00\n      swap1\n      sload\n      swap1\n      0x0100\n      exp\n      swap1\n      div\n      sub(shl(0xa0, 0x01), 0x01)\n      and\n      sub(shl(0xa0, 0x01), 0x01)\n        /* \"Judgment.sol\":4480:4526  ITaskInfo(taskInfoContractAddress).getExecutor */\n      and\n      0x6c1032af\n        /* \"Judgment.sol\":4480:4528  ITaskInfo(taskInfoContractAddress).getExecutor() */\n      mload(0x40)\n      dup2\n      0xffffffff\n      and\n      0xe0\n      shl\n      dup2\n      mstore\n      0x04\n      add\n      0x20\n      mload(0x40)\n      dup1\n      dup4\n      sub\n      dup2\n      dup7\n      gas\n      staticcall\n      iszero\n      dup1\n      iszero\n      tag_78\n      jumpi\n      returndatasize\n      0x00\n      dup1\n      returndatacopy\n      revert(0x00, returndatasize)\n    tag_78:\n      pop\n      pop\n      pop\n      pop\n      mload(0x40)\n      returndatasize\n      not(0x1f)\n      0x1f\n      dup3\n      add\n      and\n      dup3\n      add\n      dup1\n      0x40\n      mstore\n      pop\n      dup2\n      add\n      swap1\n      tag_79\n      swap2\n      swap1\n      tag_75\n      jump\t// in\n    tag_79:\n      sub(shl(0xa0, 0x01), 0x01)\n        /* \"Judgment.sol\":4470:4528  sender != ITaskInfo(taskInfoContractAddress).getExecutor() */\n      and\n        /* \"Judgment.sol\":4470:4476  sender */\n      dup2\n      sub(shl(0xa0, 0x01), 0x01)\n        /* \"Judgment.sol\":4470:4528  sender != ITaskInfo(taskInfoContractAddress).getExecutor() */\n      and\n      eq\n      iszero\n        /* \"Judgment.sol\":4400:4528  sender != ITaskInfo(taskInfoContractAddress).getCustomer() &&... */\n    tag_76:\n        /* \"Judgment.sol\":4392:4590  require(sender != ITaskInfo(taskInfoContractAddress).getCustomer() &&... */\n      tag_80\n      jumpi\n      mload(0x40)\n      shl(0xe5, 0x461bcd)\n      dup2\n      mstore\n        /* \"#utility.yul\":4431:4433   */\n      0x20\n        /* \"Judgment.sol\":4392:4590  require(sender != ITaskInfo(taskInfoContractAddress).getCustomer() &&... */\n      0x04\n      dup3\n      add\n        /* \"#utility.yul\":4413:4434   */\n      mstore\n        /* \"#utility.yul\":4470:4471   */\n      0x03\n        /* \"#utility.yul\":4450:4468   */\n      0x24\n      dup3\n      add\n        /* \"#utility.yul\":4443:4472   */\n      mstore\n      shl(0xe8, 0x307835)\n        /* \"#utility.yul\":4488:4506   */\n      0x44\n      dup3\n      add\n        /* \"#utility.yul\":4481:4514   */\n      mstore\n        /* \"#utility.yul\":4531:4549   */\n      0x64\n      add\n        /* \"Judgment.sol\":4392:4590  require(sender != ITaskInfo(taskInfoContractAddress).getCustomer() &&... */\n      tag_66\n        /* \"#utility.yul\":4229:4555   */\n      jump\n        /* \"Judgment.sol\":4392:4590  require(sender != ITaskInfo(taskInfoContractAddress).getCustomer() &&... */\n    tag_80:\n        /* \"Judgment.sol\":4606:4612  uint i */\n      0x00\n        /* \"Judgment.sol\":4601:4809  for (uint i = 0; i < judge_votes.length; ++i) {... */\n    tag_83:\n        /* \"Judgment.sol\":4622:4633  judge_votes */\n      0x04\n        /* \"Judgment.sol\":4622:4640  judge_votes.length */\n      sload\n        /* \"Judgment.sol\":4618:4640  i < judge_votes.length */\n      dup2\n      lt\n        /* \"Judgment.sol\":4601:4809  for (uint i = 0; i < judge_votes.length; ++i) {... */\n      iszero\n      tag_84\n      jumpi\n        /* \"Judgment.sol\":4696:4702  sender */\n      dup2\n      sub(shl(0xa0, 0x01), 0x01)\n        /* \"Judgment.sol\":4665:4702  judge_votes[i].judgeAddress == sender */\n      and\n        /* \"Judgment.sol\":4665:4676  judge_votes */\n      0x04\n        /* \"Judgment.sol\":4677:4678  i */\n      dup3\n        /* \"Judgment.sol\":4665:4679  judge_votes[i] */\n      dup2\n      sload\n      dup2\n      lt\n      tag_87\n      jumpi\n      tag_87\n      tag_88\n      jump\t// in\n    tag_87:\n      0x00\n      swap2\n      dup3\n      mstore\n      0x20\n      swap1\n      swap2\n      keccak256\n      0x04\n      swap1\n      swap2\n      mul\n      add\n        /* \"Judgment.sol\":4665:4692  judge_votes[i].judgeAddress */\n      0x03\n      add\n      sload\n      0x0100\n      swap1\n      div\n      sub(shl(0xa0, 0x01), 0x01)\n      and\n        /* \"Judgment.sol\":4665:4702  judge_votes[i].judgeAddress == sender */\n      sub\n        /* \"Judgment.sol\":4661:4799  if (judge_votes[i].judgeAddress == sender) {... */\n      tag_90\n      jumpi\n        /* \"Judgment.sol\":4771:4784  revert(\"0x6\") */\n      mload(0x40)\n      shl(0xe5, 0x461bcd)\n      dup2\n      mstore\n        /* \"#utility.yul\":4894:4896   */\n      0x20\n        /* \"Judgment.sol\":4771:4784  revert(\"0x6\") */\n      0x04\n      dup3\n      add\n        /* \"#utility.yul\":4876:4897   */\n      mstore\n        /* \"#utility.yul\":4933:4934   */\n      0x03\n        /* \"#utility.yul\":4913:4931   */\n      0x24\n      dup3\n      add\n        /* \"#utility.yul\":4906:4935   */\n      mstore\n      shl(0xe9, 0x183c1b)\n        /* \"#utility.yul\":4951:4969   */\n      0x44\n      dup3\n      add\n        /* \"#utility.yul\":4944:4977   */\n      mstore\n        /* \"#utility.yul\":4994:5012   */\n      0x64\n      add\n        /* \"Judgment.sol\":4771:4784  revert(\"0x6\") */\n      tag_66\n        /* \"#utility.yul\":4692:5018   */\n      jump\n        /* \"Judgment.sol\":4661:4799  if (judge_votes[i].judgeAddress == sender) {... */\n    tag_90:\n        /* \"Judgment.sol\":4642:4645  ++i */\n      tag_93\n      dup2\n      tag_94\n      jump\t// in\n    tag_93:\n      swap1\n      pop\n        /* \"Judgment.sol\":4601:4809  for (uint i = 0; i < judge_votes.length; ++i) {... */\n      jump(tag_83)\n    tag_84:\n      pop\n        /* \"Judgment.sol\":4326:4815  function checkCanSenderVote(address sender) public view {... */\n      pop\n      jump\t// out\n        /* \"Judgment.sol\":4992:5328  function close() public {... */\n    tag_33:\n        /* \"Judgment.sol\":5078:5090  rewardsPayed */\n      and(0xff, sload(0x06))\n        /* \"Judgment.sol\":5077:5090  !rewardsPayed */\n      iszero\n        /* \"Judgment.sol\":5077:5128  !rewardsPayed && block.timestamp >= judgmentTimeEnd */\n      dup1\n      iszero\n      tag_96\n      jumpi\n      pop\n        /* \"Judgment.sol\":5113:5128  judgmentTimeEnd */\n      sload(0x05)\n        /* \"Judgment.sol\":5094:5109  block.timestamp */\n      timestamp\n        /* \"Judgment.sol\":5094:5128  block.timestamp >= judgmentTimeEnd */\n      lt\n      iszero\n        /* \"Judgment.sol\":5077:5128  !rewardsPayed && block.timestamp >= judgmentTimeEnd */\n    tag_96:\n        /* \"Judgment.sol\":5069:5136  require(!rewardsPayed && block.timestamp >= judgmentTimeEnd, \"0x8\") */\n      tag_97\n      jumpi\n      mload(0x40)\n      shl(0xe5, 0x461bcd)\n      dup2\n      mstore\n        /* \"#utility.yul\":5497:5499   */\n      0x20\n        /* \"Judgment.sol\":5069:5136  require(!rewardsPayed && block.timestamp >= judgmentTimeEnd, \"0x8\") */\n      0x04\n      dup3\n      add\n        /* \"#utility.yul\":5479:5500   */\n      mstore\n        /* \"#utility.yul\":5536:5537   */\n      0x03\n        /* \"#utility.yul\":5516:5534   */\n      0x24\n      dup3\n      add\n        /* \"#utility.yul\":5509:5538   */\n      mstore\n      shl(0xeb, 0x060f07)\n        /* \"#utility.yul\":5554:5572   */\n      0x44\n      dup3\n      add\n        /* \"#utility.yul\":5547:5580   */\n      mstore\n        /* \"#utility.yul\":5597:5615   */\n      0x64\n      add\n        /* \"Judgment.sol\":5069:5136  require(!rewardsPayed && block.timestamp >= judgmentTimeEnd, \"0x8\") */\n      tag_66\n        /* \"#utility.yul\":5295:5621   */\n      jump\n        /* \"Judgment.sol\":5069:5136  require(!rewardsPayed && block.timestamp >= judgmentTimeEnd, \"0x8\") */\n    tag_97:\n        /* \"Judgment.sol\":5280:5292  rewardsPayed */\n      0x06\n        /* \"Judgment.sol\":5280:5299  rewardsPayed = true */\n      dup1\n      sload\n      not(0xff)\n      and\n        /* \"Judgment.sol\":5295:5299  true */\n      0x01\n        /* \"Judgment.sol\":5280:5299  rewardsPayed = true */\n      or\n      swap1\n      sstore\n        /* \"Judgment.sol\":5309:5321  payRewards() */\n      tag_100\n        /* \"Judgment.sol\":5309:5319  payRewards */\n      tag_101\n        /* \"Judgment.sol\":5309:5321  payRewards() */\n      jump\t// in\n    tag_100:\n        /* \"Judgment.sol\":4992:5328  function close() public {... */\n      jump\t// out\n        /* \"Judgment.sol\":1540:1659  function getCustomerArguments() public view returns (utils.Argument[] memory) {... */\n    tag_43:\n        /* \"Judgment.sol\":1593:1616  utils.Argument[] memory */\n      0x60\n        /* \"Judgment.sol\":1635:1652  customerArguments */\n      0x02\n        /* \"Judgment.sol\":1628:1652  return customerArguments */\n      dup1\n      sload\n      dup1\n      0x20\n      mul\n      0x20\n      add\n      mload(0x40)\n      swap1\n      dup2\n      add\n      0x40\n      mstore\n      dup1\n      swap3\n      swap2\n      swap1\n      dup2\n      dup2\n      mstore\n      0x20\n      add\n      0x00\n      swap1\n      dup3\n      dup3\n      lt\n      iszero\n      tag_61\n      jumpi\n      dup4\n      dup3\n      swap1\n      0x00\n      mstore\n      keccak256(0x00, 0x20)\n      swap1\n      0x03\n      mul\n      add\n      mload(0x40)\n      dup1\n      0x60\n      add\n      0x40\n      mstore\n      swap1\n      dup2\n      0x00\n      dup3\n      add\n      sload\n      dup2\n      mstore\n      0x20\n      add\n      0x01\n      dup3\n      add\n      sload\n      dup2\n      mstore\n      0x20\n      add\n      0x02\n      dup3\n      add\n      sload\n      dup2\n      mstore\n      pop\n      pop\n      dup2\n      mstore\n      0x20\n      add\n      swap1\n      0x01\n      add\n      swap1\n      jump(tag_60)\n        /* \"Judgment.sol\":3332:4320  function vote(... */\n    tag_48:\n        /* \"Judgment.sol\":3452:3478  checkIsContractNotClosed() */\n      tag_109\n        /* \"Judgment.sol\":3452:3476  checkIsContractNotClosed */\n      tag_110\n        /* \"Judgment.sol\":3452:3478  checkIsContractNotClosed() */\n      jump\t// in\n    tag_109:\n        /* \"Judgment.sol\":3488:3518  checkCanSenderVote(msg.sender) */\n      tag_111\n        /* \"Judgment.sol\":3507:3517  msg.sender */\n      caller\n        /* \"Judgment.sol\":3488:3506  checkCanSenderVote */\n      tag_31\n        /* \"Judgment.sol\":3488:3518  checkCanSenderVote(msg.sender) */\n      jump\t// in\n    tag_111:\n        /* \"Judgment.sol\":3529:3541  IERC20 token */\n      0x00\n        /* \"Judgment.sol\":3544:3554  getToken() */\n      tag_112\n        /* \"Judgment.sol\":3544:3552  getToken */\n      tag_113\n        /* \"Judgment.sol\":3544:3554  getToken() */\n      jump\t// in\n    tag_112:\n        /* \"Judgment.sol\":3529:3554  IERC20 token = getToken() */\n      swap1\n      pop\n        /* \"Judgment.sol\":3565:3589  uint256 security_deposit */\n      0x00\n        /* \"Judgment.sol\":3602:3625  taskInfoContractAddress */\n      0x01\n      0x00\n      swap1\n      sload\n      swap1\n      0x0100\n      exp\n      swap1\n      div\n      sub(shl(0xa0, 0x01), 0x01)\n      and\n      sub(shl(0xa0, 0x01), 0x01)\n        /* \"Judgment.sol\":3592:3645  ITaskInfo(taskInfoContractAddress).getSecurityDeposit */\n      and\n      0x64a40642\n        /* \"Judgment.sol\":3592:3647  ITaskInfo(taskInfoContractAddress).getSecurityDeposit() */\n      mload(0x40)\n      dup2\n      0xffffffff\n      and\n      0xe0\n      shl\n      dup2\n      mstore\n      0x04\n      add\n      0x20\n      mload(0x40)\n      dup1\n      dup4\n      sub\n      dup2\n      dup7\n      gas\n      staticcall\n      iszero\n      dup1\n      iszero\n      tag_115\n      jumpi\n      returndatasize\n      0x00\n      dup1\n      returndatacopy\n      revert(0x00, returndatasize)\n    tag_115:\n      pop\n      pop\n      pop\n      pop\n      mload(0x40)\n      returndatasize\n      not(0x1f)\n      0x1f\n      dup3\n      add\n      and\n      dup3\n      add\n      dup1\n      0x40\n      mstore\n      pop\n      dup2\n      add\n      swap1\n      tag_116\n      swap2\n      swap1\n      tag_117\n      jump\t// in\n    tag_116:\n        /* \"Judgment.sol\":3684:3726  token.allowance(msg.sender, address(this)) */\n      mload(0x40)\n      shl(0xe1, 0x6eb1769f)\n      dup2\n      mstore\n        /* \"Judgment.sol\":3700:3710  msg.sender */\n      caller\n        /* \"Judgment.sol\":3684:3726  token.allowance(msg.sender, address(this)) */\n      0x04\n      dup3\n      add\n        /* \"#utility.yul\":6027:6061   */\n      mstore\n        /* \"Judgment.sol\":3720:3724  this */\n      address\n        /* \"#utility.yul\":6077:6095   */\n      0x24\n      dup3\n      add\n        /* \"#utility.yul\":6070:6113   */\n      mstore\n        /* \"Judgment.sol\":3565:3647  uint256 security_deposit = ITaskInfo(taskInfoContractAddress).getSecurityDeposit() */\n      swap1\n      swap2\n      pop\n        /* \"Judgment.sol\":3657:3681  uint256 sender_allowance */\n      0x00\n      swap1\n      sub(shl(0xa0, 0x01), 0x01)\n        /* \"Judgment.sol\":3684:3699  token.allowance */\n      dup5\n      and\n      swap1\n      0xdd62ed3e\n      swap1\n        /* \"#utility.yul\":5962:5980   */\n      0x44\n      add\n        /* \"Judgment.sol\":3684:3726  token.allowance(msg.sender, address(this)) */\n      0x20\n      mload(0x40)\n      dup1\n      dup4\n      sub\n      dup2\n      dup7\n      gas\n      staticcall\n      iszero\n      dup1\n      iszero\n      tag_121\n      jumpi\n      returndatasize\n      0x00\n      dup1\n      returndatacopy\n      revert(0x00, returndatasize)\n    tag_121:\n      pop\n      pop\n      pop\n      pop\n      mload(0x40)\n      returndatasize\n      not(0x1f)\n      0x1f\n      dup3\n      add\n      and\n      dup3\n      add\n      dup1\n      0x40\n      mstore\n      pop\n      dup2\n      add\n      swap1\n      tag_122\n      swap2\n      swap1\n      tag_117\n      jump\t// in\n    tag_122:\n        /* \"Judgment.sol\":3657:3726  uint256 sender_allowance = token.allowance(msg.sender, address(this)) */\n      swap1\n      pop\n        /* \"Judgment.sol\":3764:3780  security_deposit */\n      dup2\n        /* \"Judgment.sol\":3744:3760  sender_allowance */\n      dup2\n        /* \"Judgment.sol\":3744:3780  sender_allowance >= security_deposit */\n      lt\n      iszero\n        /* \"Judgment.sol\":3736:3788  require(sender_allowance >= security_deposit, \"0x4\") */\n      tag_123\n      jumpi\n      mload(0x40)\n      shl(0xe5, 0x461bcd)\n      dup2\n      mstore\n        /* \"#utility.yul\":6326:6328   */\n      0x20\n        /* \"Judgment.sol\":3736:3788  require(sender_allowance >= security_deposit, \"0x4\") */\n      0x04\n      dup3\n      add\n        /* \"#utility.yul\":6308:6329   */\n      mstore\n        /* \"#utility.yul\":6365:6366   */\n      0x03\n        /* \"#utility.yul\":6345:6363   */\n      0x24\n      dup3\n      add\n        /* \"#utility.yul\":6338:6367   */\n      mstore\n      shl(0xea, 0x0c1e0d)\n        /* \"#utility.yul\":6383:6401   */\n      0x44\n      dup3\n      add\n        /* \"#utility.yul\":6376:6409   */\n      mstore\n        /* \"#utility.yul\":6426:6444   */\n      0x64\n      add\n        /* \"Judgment.sol\":3736:3788  require(sender_allowance >= security_deposit, \"0x4\") */\n      tag_66\n        /* \"#utility.yul\":6124:6450   */\n      jump\n        /* \"Judgment.sol\":3736:3788  require(sender_allowance >= security_deposit, \"0x4\") */\n    tag_123:\n        /* \"Judgment.sol\":3861:3924  token.transferFrom(msg.sender, address(this), security_deposit) */\n      mload(0x40)\n      shl(0xe0, 0x23b872dd)\n      dup2\n      mstore\n        /* \"Judgment.sol\":3880:3890  msg.sender */\n      caller\n        /* \"Judgment.sol\":3861:3924  token.transferFrom(msg.sender, address(this), security_deposit) */\n      0x04\n      dup3\n      add\n        /* \"#utility.yul\":6695:6729   */\n      mstore\n        /* \"Judgment.sol\":3900:3904  this */\n      address\n        /* \"#utility.yul\":6745:6763   */\n      0x24\n      dup3\n      add\n        /* \"#utility.yul\":6738:6781   */\n      mstore\n        /* \"#utility.yul\":6797:6815   */\n      0x44\n      dup2\n      add\n        /* \"#utility.yul\":6790:6824   */\n      dup4\n      swap1\n      mstore\n      sub(shl(0xa0, 0x01), 0x01)\n        /* \"Judgment.sol\":3861:3879  token.transferFrom */\n      dup5\n      and\n      swap1\n      0x23b872dd\n      swap1\n        /* \"#utility.yul\":6630:6648   */\n      0x64\n      add\n        /* \"Judgment.sol\":3861:3924  token.transferFrom(msg.sender, address(this), security_deposit) */\n      0x20\n      mload(0x40)\n      dup1\n      dup4\n      sub\n      dup2\n      0x00\n      dup8\n      gas\n      call\n      iszero\n      dup1\n      iszero\n      tag_129\n      jumpi\n      returndatasize\n      0x00\n      dup1\n      returndatacopy\n      revert(0x00, returndatasize)\n    tag_129:\n      pop\n      pop\n      pop\n      pop\n      mload(0x40)\n      returndatasize\n      not(0x1f)\n      0x1f\n      dup3\n      add\n      and\n      dup3\n      add\n      dup1\n      0x40\n      mstore\n      pop\n      dup2\n      add\n      swap1\n      tag_130\n      swap2\n      swap1\n      tag_131\n      jump\t// in\n    tag_130:\n      pop\n        /* \"Judgment.sol\":3966:4118  utils.JudgeVote(... */\n      0x40\n      dup1\n      mload\n      0xa0\n      dup2\n      add\n      dup3\n      mstore\n      dup7\n      dup2\n      mstore\n      0x20\n      dup2\n      add\n      dup7\n      dup2\n      mstore\n        /* \"Judgment.sol\":4048:4063  block.timestamp */\n      timestamp\n        /* \"Judgment.sol\":3966:4118  utils.JudgeVote(... */\n      swap3\n      dup3\n      add\n      swap3\n      dup4\n      mstore\n      dup9\n      iszero\n      dup1\n      iszero\n      0x60\n      dup5\n      add\n      swap1\n      dup2\n      mstore\n        /* \"Judgment.sol\":4098:4108  msg.sender */\n      caller\n        /* \"Judgment.sol\":3966:4118  utils.JudgeVote(... */\n      0x80\n      dup6\n      add\n      swap1\n      dup2\n      mstore\n        /* \"Judgment.sol\":4128:4139  judge_votes */\n      0x04\n        /* \"Judgment.sol\":4128:4151  judge_votes.push(vote_) */\n      dup1\n      sload\n      0x01\n      dup2\n      add\n      dup3\n      sstore\n        /* \"Judgment.sol\":3935:3963  utils.JudgeVote memory vote_ */\n      0x00\n        /* \"Judgment.sol\":4128:4151  judge_votes.push(vote_) */\n      dup3\n      swap1\n      mstore\n      dup7\n      mload\n      swap2\n      mul\n      0x8a35acfbc15ff81a39ae7d344fd709f28e8600b4aa8c65c6b64bfe7fe36bd19b\n      dup2\n      add\n      swap2\n      swap1\n      swap2\n      sstore\n      swap4\n      mload\n      0x8a35acfbc15ff81a39ae7d344fd709f28e8600b4aa8c65c6b64bfe7fe36bd19c\n      dup6\n      add\n      sstore\n      swap5\n      mload\n      0x8a35acfbc15ff81a39ae7d344fd709f28e8600b4aa8c65c6b64bfe7fe36bd19d\n      dup5\n      add\n      sstore\n      mload\n      0x8a35acfbc15ff81a39ae7d344fd709f28e8600b4aa8c65c6b64bfe7fe36bd19e\n      swap1\n      swap3\n      add\n      dup1\n      sload\n      swap5\n      mload\n      sub(shl(0xa0, 0x01), 0x01)\n      and\n      0x0100\n      mul\n      not(sub(shl(0xa8, 0x01), 0x0100))\n      swap4\n      iszero\n      iszero\n      swap4\n      swap1\n      swap4\n      and\n      not(sub(shl(0xa8, 0x01), 0x01))\n      swap1\n      swap6\n      and\n      swap5\n      swap1\n      swap5\n      or\n      swap2\n      swap1\n      swap2\n      or\n      swap1\n      swap3\n      sstore\n        /* \"Judgment.sol\":3966:4118  utils.JudgeVote(... */\n      swap1\n        /* \"Judgment.sol\":4161:4264  if (verdict) {... */\n      tag_133\n      jumpi\n        /* \"Judgment.sol\":4190:4199  votes_for */\n      0x07\n      0x00\n        /* \"Judgment.sol\":4188:4199  ++votes_for */\n      dup2\n      sload\n      tag_134\n      swap1\n      tag_94\n      jump\t// in\n    tag_134:\n      swap1\n      swap2\n      sstore\n      pop\n        /* \"Judgment.sol\":4161:4264  if (verdict) {... */\n      jump(tag_135)\n    tag_133:\n        /* \"Judgment.sol\":4240:4253  votes_against */\n      0x08\n      0x00\n        /* \"Judgment.sol\":4238:4253  ++votes_against */\n      dup2\n      sload\n      tag_136\n      swap1\n      tag_94\n      jump\t// in\n    tag_136:\n      swap1\n      swap2\n      sstore\n      pop\n        /* \"Judgment.sol\":4161:4264  if (verdict) {... */\n    tag_135:\n        /* \"Judgment.sol\":4279:4313  Voted(msg.sender, block.timestamp) */\n      0x40\n      dup1\n      mload\n        /* \"Judgment.sol\":4285:4295  msg.sender */\n      caller\n        /* \"#utility.yul\":7259:7310   */\n      dup2\n      mstore\n        /* \"Judgment.sol\":4297:4312  block.timestamp */\n      timestamp\n        /* \"#utility.yul\":7341:7343   */\n      0x20\n        /* \"#utility.yul\":7326:7344   */\n      dup3\n      add\n        /* \"#utility.yul\":7319:7353   */\n      mstore\n        /* \"Judgment.sol\":4279:4313  Voted(msg.sender, block.timestamp) */\n      0x4d99b957a2bc29a30ebd96a7be8e68fe50a3c701db28a91436490b7d53870ca4\n      swap2\n        /* \"#utility.yul\":7232:7250   */\n      add\n        /* \"Judgment.sol\":4279:4313  Voted(msg.sender, block.timestamp) */\n      mload(0x40)\n      dup1\n      swap2\n      sub\n      swap1\n      log1\n        /* \"Judgment.sol\":3442:4320  {... */\n      pop\n      pop\n      pop\n      pop\n        /* \"Judgment.sol\":3332:4320  function vote(... */\n      pop\n      pop\n      pop\n      jump\t// out\n        /* \"Judgment.sol\":2262:3023  function addArgument(... */\n    tag_55:\n        /* \"Judgment.sol\":2371:2397  checkIsContractNotClosed() */\n      tag_141\n        /* \"Judgment.sol\":2371:2395  checkIsContractNotClosed */\n      tag_110\n        /* \"Judgment.sol\":2371:2397  checkIsContractNotClosed() */\n      jump\t// in\n    tag_141:\n        /* \"Judgment.sol\":2407:2445  checkCanSenderAddArguments(msg.sender) */\n      tag_142\n        /* \"Judgment.sol\":2434:2444  msg.sender */\n      caller\n        /* \"Judgment.sol\":2407:2433  checkCanSenderAddArguments */\n      tag_143\n        /* \"Judgment.sol\":2407:2445  checkCanSenderAddArguments(msg.sender) */\n      jump\t// in\n    tag_142:\n        /* \"Judgment.sol\":2489:2599  utils.Argument(... */\n      0x40\n      dup1\n      mload\n      0x60\n      dup2\n      add\n      dup3\n      mstore\n      dup4\n      dup2\n      mstore\n      0x20\n      dup1\n      dup3\n      add\n      dup5\n      swap1\n      mstore\n        /* \"Judgment.sol\":2574:2589  block.timestamp */\n      timestamp\n        /* \"Judgment.sol\":2489:2599  utils.Argument(... */\n      dup3\n      dup5\n      add\n      mstore\n        /* \"Judgment.sol\":2660:2683  taskInfoContractAddress */\n      sload(0x01)\n        /* \"Judgment.sol\":2650:2698  ITaskInfo(taskInfoContractAddress).getCustomer() */\n      dup4\n      mload\n      shl(0xe0, 0x650d993b)\n      dup2\n      mstore\n      swap4\n      mload\n        /* \"Judgment.sol\":2489:2599  utils.Argument(... */\n      swap3\n      swap4\n        /* \"Judgment.sol\":2456:2486  utils.Argument memory argument */\n      0x00\n      swap4\n      sub(shl(0xa0, 0x01), 0x01)\n        /* \"Judgment.sol\":2660:2683  taskInfoContractAddress */\n      swap1\n      swap3\n      and\n      swap3\n        /* \"Judgment.sol\":2650:2696  ITaskInfo(taskInfoContractAddress).getCustomer */\n      0x650d993b\n      swap3\n        /* \"Judgment.sol\":2650:2698  ITaskInfo(taskInfoContractAddress).getCustomer() */\n      0x04\n      dup1\n      dup5\n      add\n      swap4\n      dup3\n      swap1\n      sub\n      add\n      dup2\n        /* \"Judgment.sol\":2660:2683  taskInfoContractAddress */\n      dup7\n        /* \"Judgment.sol\":2650:2698  ITaskInfo(taskInfoContractAddress).getCustomer() */\n      gas\n      staticcall\n      iszero\n      dup1\n      iszero\n      tag_145\n      jumpi\n      returndatasize\n      0x00\n      dup1\n      returndatacopy\n      revert(0x00, returndatasize)\n    tag_145:\n      pop\n      pop\n      pop\n      pop\n      mload(0x40)\n      returndatasize\n      not(0x1f)\n      0x1f\n      dup3\n      add\n      and\n      dup3\n      add\n      dup1\n      0x40\n      mstore\n      pop\n      dup2\n      add\n      swap1\n      tag_146\n      swap2\n      swap1\n      tag_75\n      jump\t// in\n    tag_146:\n      sub(shl(0xa0, 0x01), 0x01)\n        /* \"Judgment.sol\":2636:2698  msg.sender == ITaskInfo(taskInfoContractAddress).getCustomer() */\n      and\n        /* \"Judgment.sol\":2636:2646  msg.sender */\n      caller\n        /* \"Judgment.sol\":2636:2698  msg.sender == ITaskInfo(taskInfoContractAddress).getCustomer() */\n      sub\n        /* \"Judgment.sol\":2632:2966  if (msg.sender == ITaskInfo(taskInfoContractAddress).getCustomer()) {... */\n      tag_147\n      jumpi\n        /* \"Judgment.sol\":2714:2731  customerArguments */\n      0x02\n        /* \"Judgment.sol\":2714:2746  customerArguments.push(argument) */\n      dup1\n      sload\n      0x01\n      dup1\n      dup3\n      add\n      dup4\n      sstore\n      0x00\n      swap3\n      swap1\n      swap3\n      mstore\n      dup4\n      mload\n      0x405787fa12a823e0f2b7631cc41b3ba8828b3321ca811111fa75cd3aa3bb5ace\n      0x03\n      swap1\n      swap3\n      mul\n      swap2\n      dup3\n      add\n      sstore\n      0x20\n      dup1\n      dup6\n      add\n      mload\n      0x405787fa12a823e0f2b7631cc41b3ba8828b3321ca811111fa75cd3aa3bb5acf\n      dup4\n      add\n      sstore\n      0x40\n      dup1\n      dup7\n      add\n      mload\n      0x405787fa12a823e0f2b7631cc41b3ba8828b3321ca811111fa75cd3aa3bb5ad0\n      swap1\n      swap4\n      add\n      swap3\n      swap1\n      swap3\n      sstore\n        /* \"Judgment.sol\":2777:2800  taskInfoContractAddress */\n      swap2\n      sload\n        /* \"Judgment.sol\":2767:2815  ITaskInfo(taskInfoContractAddress).getCustomer() */\n      dup2\n      mload\n      shl(0xe0, 0x650d993b)\n      dup2\n      mstore\n      swap2\n      mload\n      sub(shl(0xa0, 0x01), 0x01)\n        /* \"Judgment.sol\":2777:2800  taskInfoContractAddress */\n      swap1\n      swap2\n      and\n      swap3\n        /* \"Judgment.sol\":2767:2813  ITaskInfo(taskInfoContractAddress).getCustomer */\n      0x650d993b\n      swap3\n        /* \"Judgment.sol\":2767:2815  ITaskInfo(taskInfoContractAddress).getCustomer() */\n      0x04\n      dup1\n      dup3\n      add\n      swap4\n      swap2\n      dup3\n      swap1\n      sub\n      add\n      dup2\n        /* \"Judgment.sol\":2777:2800  taskInfoContractAddress */\n      dup7\n        /* \"Judgment.sol\":2767:2815  ITaskInfo(taskInfoContractAddress).getCustomer() */\n      gas\n      staticcall\n      iszero\n      dup1\n      iszero\n      tag_150\n      jumpi\n      returndatasize\n      0x00\n      dup1\n      returndatacopy\n      revert(0x00, returndatasize)\n    tag_150:\n      pop\n      pop\n      pop\n      pop\n      mload(0x40)\n      returndatasize\n      not(0x1f)\n      0x1f\n      dup3\n      add\n      and\n      dup3\n      add\n      dup1\n      0x40\n      mstore\n      pop\n      dup2\n      add\n      swap1\n      tag_151\n      swap2\n      swap1\n      tag_75\n      jump\t// in\n    tag_151:\n        /* \"Judgment.sol\":2760:2815  from = ITaskInfo(taskInfoContractAddress).getCustomer() */\n      swap1\n      pop\n        /* \"Judgment.sol\":2632:2966  if (msg.sender == ITaskInfo(taskInfoContractAddress).getCustomer()) {... */\n      jump(tag_152)\n    tag_147:\n        /* \"Judgment.sol\":2854:2871  executorArguments */\n      0x03\n        /* \"Judgment.sol\":2854:2886  executorArguments.push(argument) */\n      dup1\n      sload\n      0x01\n      dup2\n      dup2\n      add\n      dup4\n      sstore\n      0x00\n      dup4\n      swap1\n      mstore\n      dup5\n      mload\n      swap2\n      swap1\n      swap3\n      mul\n      0xc2575a0e9e593c00f959f8c92f12db2869c3395a3b0502d05e2516446f71f85b\n      dup2\n      add\n      swap2\n      swap1\n      swap2\n      sstore\n      0x20\n      dup1\n      dup6\n      add\n      mload\n      0xc2575a0e9e593c00f959f8c92f12db2869c3395a3b0502d05e2516446f71f85c\n      dup4\n      add\n      sstore\n      0x40\n      dup1\n      dup7\n      add\n      mload\n      0xc2575a0e9e593c00f959f8c92f12db2869c3395a3b0502d05e2516446f71f85d\n      swap1\n      swap4\n      add\n      swap3\n      swap1\n      swap3\n      sstore\n        /* \"Judgment.sol\":2917:2940  taskInfoContractAddress */\n      swap2\n      sload\n        /* \"Judgment.sol\":2907:2955  ITaskInfo(taskInfoContractAddress).getExecutor() */\n      dup2\n      mload\n      shl(0xe0, 0x6c1032af)\n      dup2\n      mstore\n      swap2\n      mload\n      sub(shl(0xa0, 0x01), 0x01)\n        /* \"Judgment.sol\":2917:2940  taskInfoContractAddress */\n      swap1\n      swap2\n      and\n      swap3\n        /* \"Judgment.sol\":2907:2953  ITaskInfo(taskInfoContractAddress).getExecutor */\n      0x6c1032af\n      swap3\n        /* \"Judgment.sol\":2907:2955  ITaskInfo(taskInfoContractAddress).getExecutor() */\n      0x04\n      dup1\n      dup3\n      add\n      swap4\n      swap2\n      dup3\n      swap1\n      sub\n      add\n      dup2\n        /* \"Judgment.sol\":2917:2940  taskInfoContractAddress */\n      dup7\n        /* \"Judgment.sol\":2907:2955  ITaskInfo(taskInfoContractAddress).getExecutor() */\n      gas\n      staticcall\n      iszero\n      dup1\n      iszero\n      tag_155\n      jumpi\n      returndatasize\n      0x00\n      dup1\n      returndatacopy\n      revert(0x00, returndatasize)\n    tag_155:\n      pop\n      pop\n      pop\n      pop\n      mload(0x40)\n      returndatasize\n      not(0x1f)\n      0x1f\n      dup3\n      add\n      and\n      dup3\n      add\n      dup1\n      0x40\n      mstore\n      pop\n      dup2\n      add\n      swap1\n      tag_156\n      swap2\n      swap1\n      tag_75\n      jump\t// in\n    tag_156:\n        /* \"Judgment.sol\":2900:2955  from = ITaskInfo(taskInfoContractAddress).getExecutor() */\n      swap1\n      pop\n        /* \"Judgment.sol\":2632:2966  if (msg.sender == ITaskInfo(taskInfoContractAddress).getCustomer()) {... */\n    tag_152:\n        /* \"Judgment.sol\":2980:3016  ArgumentAdded(from, block.timestamp) */\n      0x40\n      dup1\n      mload\n      sub(shl(0xa0, 0x01), 0x01)\n        /* \"#utility.yul\":7277:7309   */\n      dup4\n      and\n        /* \"#utility.yul\":7259:7310   */\n      dup2\n      mstore\n        /* \"Judgment.sol\":3000:3015  block.timestamp */\n      timestamp\n        /* \"#utility.yul\":7341:7343   */\n      0x20\n        /* \"#utility.yul\":7326:7344   */\n      dup3\n      add\n        /* \"#utility.yul\":7319:7353   */\n      mstore\n        /* \"Judgment.sol\":2980:3016  ArgumentAdded(from, block.timestamp) */\n      0xddd8b0b68b851797d2db498006cb2642afefe53623db382ff4994d443938da83\n      swap2\n        /* \"#utility.yul\":7232:7250   */\n      add\n        /* \"Judgment.sol\":2980:3016  ArgumentAdded(from, block.timestamp) */\n      mload(0x40)\n      dup1\n      swap2\n      sub\n      swap1\n      log1\n        /* \"Judgment.sol\":2361:3023  {... */\n      pop\n      pop\n        /* \"Judgment.sol\":2262:3023  function addArgument(... */\n      pop\n      pop\n      jump\t// out\n        /* \"Judgment.sol\":6006:6344  function payRewards() private {... */\n    tag_101:\n        /* \"Judgment.sol\":6174:6183  votes_for */\n      sload(0x07)\n        /* \"Judgment.sol\":6157:6170  votes_against */\n      sload(0x08)\n        /* \"Judgment.sol\":6139:6143  true */\n      0x01\n      swap2\n      gt\n        /* \"Judgment.sol\":6153:6229  if (votes_against >= votes_for) {... */\n      tag_160\n      jumpi\n      pop\n        /* \"Judgment.sol\":6213:6218  false */\n      0x00\n        /* \"Judgment.sol\":6153:6229  if (votes_against >= votes_for) {... */\n    tag_160:\n        /* \"Judgment.sol\":6238:6268  payRewardToWinner(winner_vote) */\n      tag_161\n        /* \"Judgment.sol\":6256:6267  winner_vote */\n      dup2\n        /* \"Judgment.sol\":6238:6255  payRewardToWinner */\n      tag_162\n        /* \"Judgment.sol\":6238:6268  payRewardToWinner(winner_vote) */\n      jump\t// in\n    tag_161:\n        /* \"Judgment.sol\":6278:6306  payRewardByVote(winner_vote) */\n      tag_163\n        /* \"Judgment.sol\":6294:6305  winner_vote */\n      dup2\n        /* \"Judgment.sol\":6278:6293  payRewardByVote */\n      tag_164\n        /* \"Judgment.sol\":6278:6306  payRewardByVote(winner_vote) */\n      jump\t// in\n    tag_163:\n        /* \"Judgment.sol\":6316:6337  payBalanceToCompany() */\n      tag_165\n        /* \"Judgment.sol\":6316:6335  payBalanceToCompany */\n      tag_166\n        /* \"Judgment.sol\":6316:6337  payBalanceToCompany() */\n      jump\t// in\n    tag_165:\n        /* \"Judgment.sol\":6036:6344  {... */\n      pop\n        /* \"Judgment.sol\":6006:6344  function payRewards() private {... */\n      jump\t// out\n        /* \"Judgment.sol\":4821:4986  function checkIsContractNotClosed() private view {... */\n    tag_110:\n        /* \"Judgment.sol\":4889:4901  rewardsPayed */\n      and(0xff, sload(0x06))\n        /* \"Judgment.sol\":4888:4901  !rewardsPayed */\n      iszero\n        /* \"Judgment.sol\":4888:4938  !rewardsPayed && block.timestamp < judgmentTimeEnd */\n      dup1\n      iszero\n      tag_168\n      jumpi\n      pop\n        /* \"Judgment.sol\":4923:4938  judgmentTimeEnd */\n      sload(0x05)\n        /* \"Judgment.sol\":4905:4920  block.timestamp */\n      timestamp\n        /* \"Judgment.sol\":4905:4938  block.timestamp < judgmentTimeEnd */\n      lt\n        /* \"Judgment.sol\":4888:4938  !rewardsPayed && block.timestamp < judgmentTimeEnd */\n    tag_168:\n        /* \"Judgment.sol\":4880:4946  require(!rewardsPayed && block.timestamp < judgmentTimeEnd, \"0x7\") */\n      tag_100\n      jumpi\n      mload(0x40)\n      shl(0xe5, 0x461bcd)\n      dup2\n      mstore\n        /* \"#utility.yul\":7566:7568   */\n      0x20\n        /* \"Judgment.sol\":4880:4946  require(!rewardsPayed && block.timestamp < judgmentTimeEnd, \"0x7\") */\n      0x04\n      dup3\n      add\n        /* \"#utility.yul\":7548:7569   */\n      mstore\n        /* \"#utility.yul\":7605:7606   */\n      0x03\n        /* \"#utility.yul\":7585:7603   */\n      0x24\n      dup3\n      add\n        /* \"#utility.yul\":7578:7607   */\n      mstore\n      shl(0xe8, 0x307837)\n        /* \"#utility.yul\":7623:7641   */\n      0x44\n      dup3\n      add\n        /* \"#utility.yul\":7616:7649   */\n      mstore\n        /* \"#utility.yul\":7666:7684   */\n      0x64\n      add\n        /* \"Judgment.sol\":4880:4946  require(!rewardsPayed && block.timestamp < judgmentTimeEnd, \"0x7\") */\n      tag_66\n        /* \"#utility.yul\":7364:7690   */\n      jump\n        /* \"Judgment.sol\":10459:10578  function getToken() private view returns (IERC20) {... */\n    tag_113:\n        /* \"Judgment.sol\":10536:10559  taskInfoContractAddress */\n      sload(0x01)\n        /* \"Judgment.sol\":10526:10571  ITaskInfo(taskInfoContractAddress).getToken() */\n      0x40\n      dup1\n      mload\n      shl(0xe0, 0x21df0da7)\n      dup2\n      mstore\n      swap1\n      mload\n        /* \"Judgment.sol\":10501:10507  IERC20 */\n      0x00\n      swap3\n      sub(shl(0xa0, 0x01), 0x01)\n        /* \"Judgment.sol\":10536:10559  taskInfoContractAddress */\n      and\n      swap2\n        /* \"Judgment.sol\":10526:10569  ITaskInfo(taskInfoContractAddress).getToken */\n      0x21df0da7\n      swap2\n        /* \"Judgment.sol\":10526:10571  ITaskInfo(taskInfoContractAddress).getToken() */\n      0x04\n      dup1\n      dup4\n      add\n      swap3\n      0x20\n      swap3\n      swap2\n      swap1\n      dup3\n      swap1\n      sub\n      add\n      dup2\n        /* \"Judgment.sol\":10536:10559  taskInfoContractAddress */\n      dup7\n        /* \"Judgment.sol\":10526:10571  ITaskInfo(taskInfoContractAddress).getToken() */\n      gas\n      staticcall\n      iszero\n      dup1\n      iszero\n      tag_174\n      jumpi\n      returndatasize\n      0x00\n      dup1\n      returndatacopy\n      revert(0x00, returndatasize)\n    tag_174:\n      pop\n      pop\n      pop\n      pop\n      mload(0x40)\n      returndatasize\n      not(0x1f)\n      0x1f\n      dup3\n      add\n      and\n      dup3\n      add\n      dup1\n      0x40\n      mstore\n      pop\n      dup2\n      add\n      swap1\n      tag_175\n      swap2\n      swap1\n      tag_75\n      jump\t// in\n    tag_175:\n        /* \"Judgment.sol\":10519:10571  return ITaskInfo(taskInfoContractAddress).getToken() */\n      swap1\n      pop\n        /* \"Judgment.sol\":10459:10578  function getToken() private view returns (IERC20) {... */\n      swap1\n      jump\t// out\n        /* \"Judgment.sol\":3029:3326  function checkCanSenderAddArguments(address sender) private view {... */\n    tag_143:\n        /* \"Judgment.sol\":3132:3155  taskInfoContractAddress */\n      0x01\n      0x00\n      swap1\n      sload\n      swap1\n      0x0100\n      exp\n      swap1\n      div\n      sub(shl(0xa0, 0x01), 0x01)\n      and\n      sub(shl(0xa0, 0x01), 0x01)\n        /* \"Judgment.sol\":3122:3168  ITaskInfo(taskInfoContractAddress).getCustomer */\n      and\n      0x650d993b\n        /* \"Judgment.sol\":3122:3170  ITaskInfo(taskInfoContractAddress).getCustomer() */\n      mload(0x40)\n      dup2\n      0xffffffff\n      and\n      0xe0\n      shl\n      dup2\n      mstore\n      0x04\n      add\n      0x20\n      mload(0x40)\n      dup1\n      dup4\n      sub\n      dup2\n      dup7\n      gas\n      staticcall\n      iszero\n      dup1\n      iszero\n      tag_179\n      jumpi\n      returndatasize\n      0x00\n      dup1\n      returndatacopy\n      revert(0x00, returndatasize)\n    tag_179:\n      pop\n      pop\n      pop\n      pop\n      mload(0x40)\n      returndatasize\n      not(0x1f)\n      0x1f\n      dup3\n      add\n      and\n      dup3\n      add\n      dup1\n      0x40\n      mstore\n      pop\n      dup2\n      add\n      swap1\n      tag_180\n      swap2\n      swap1\n      tag_75\n      jump\t// in\n    tag_180:\n      sub(shl(0xa0, 0x01), 0x01)\n        /* \"Judgment.sol\":3112:3170  sender == ITaskInfo(taskInfoContractAddress).getCustomer() */\n      and\n        /* \"Judgment.sol\":3112:3118  sender */\n      dup2\n      sub(shl(0xa0, 0x01), 0x01)\n        /* \"Judgment.sol\":3112:3170  sender == ITaskInfo(taskInfoContractAddress).getCustomer() */\n      and\n      eq\n        /* \"Judgment.sol\":3112:3240  sender == ITaskInfo(taskInfoContractAddress).getCustomer() ||... */\n      dup1\n      tag_181\n      jumpi\n      pop\n        /* \"Judgment.sol\":3202:3225  taskInfoContractAddress */\n      0x01\n      0x00\n      swap1\n      sload\n      swap1\n      0x0100\n      exp\n      swap1\n      div\n      sub(shl(0xa0, 0x01), 0x01)\n      and\n      sub(shl(0xa0, 0x01), 0x01)\n        /* \"Judgment.sol\":3192:3238  ITaskInfo(taskInfoContractAddress).getExecutor */\n      and\n      0x6c1032af\n        /* \"Judgment.sol\":3192:3240  ITaskInfo(taskInfoContractAddress).getExecutor() */\n      mload(0x40)\n      dup2\n      0xffffffff\n      and\n      0xe0\n      shl\n      dup2\n      mstore\n      0x04\n      add\n      0x20\n      mload(0x40)\n      dup1\n      dup4\n      sub\n      dup2\n      dup7\n      gas\n      staticcall\n      iszero\n      dup1\n      iszero\n      tag_183\n      jumpi\n      returndatasize\n      0x00\n      dup1\n      returndatacopy\n      revert(0x00, returndatasize)\n    tag_183:\n      pop\n      pop\n      pop\n      pop\n      mload(0x40)\n      returndatasize\n      not(0x1f)\n      0x1f\n      dup3\n      add\n      and\n      dup3\n      add\n      dup1\n      0x40\n      mstore\n      pop\n      dup2\n      add\n      swap1\n      tag_184\n      swap2\n      swap1\n      tag_75\n      jump\t// in\n    tag_184:\n      sub(shl(0xa0, 0x01), 0x01)\n        /* \"Judgment.sol\":3182:3240  sender == ITaskInfo(taskInfoContractAddress).getExecutor() */\n      and\n        /* \"Judgment.sol\":3182:3188  sender */\n      dup2\n      sub(shl(0xa0, 0x01), 0x01)\n        /* \"Judgment.sol\":3182:3240  sender == ITaskInfo(taskInfoContractAddress).getExecutor() */\n      and\n      eq\n        /* \"Judgment.sol\":3112:3240  sender == ITaskInfo(taskInfoContractAddress).getCustomer() ||... */\n    tag_181:\n        /* \"Judgment.sol\":3104:3319  require(sender == ITaskInfo(taskInfoContractAddress).getCustomer() ||... */\n      tag_165\n      jumpi\n      mload(0x40)\n      shl(0xe5, 0x461bcd)\n      dup2\n      mstore\n        /* \"#utility.yul\":8166:8168   */\n      0x20\n        /* \"Judgment.sol\":3104:3319  require(sender == ITaskInfo(taskInfoContractAddress).getCustomer() ||... */\n      0x04\n      dup3\n      add\n        /* \"#utility.yul\":8148:8169   */\n      mstore\n        /* \"#utility.yul\":8205:8206   */\n      0x03\n        /* \"#utility.yul\":8185:8203   */\n      0x24\n      dup3\n      add\n        /* \"#utility.yul\":8178:8207   */\n      mstore\n      shl(0xe8, 0x307833)\n        /* \"#utility.yul\":8223:8241   */\n      0x44\n      dup3\n      add\n        /* \"#utility.yul\":8216:8249   */\n      mstore\n        /* \"#utility.yul\":8266:8284   */\n      0x64\n      add\n        /* \"Judgment.sol\":3104:3319  require(sender == ITaskInfo(taskInfoContractAddress).getCustomer() ||... */\n      tag_66\n        /* \"#utility.yul\":7964:8290   */\n      jump\n        /* \"Judgment.sol\":7011:7446  function payRewardToWinner(bool winner_vote) private {... */\n    tag_162:\n        /* \"Judgment.sol\":7074:7096  address winner_address */\n      0x00\n        /* \"Judgment.sol\":7110:7121  winner_vote */\n      dup2\n        /* \"Judgment.sol\":7106:7317  if (winner_vote) {... */\n      iszero\n      tag_189\n      jumpi\n        /* \"Judgment.sol\":7164:7187  taskInfoContractAddress */\n      0x01\n      0x00\n      swap1\n      sload\n      swap1\n      0x0100\n      exp\n      swap1\n      div\n      sub(shl(0xa0, 0x01), 0x01)\n      and\n      sub(shl(0xa0, 0x01), 0x01)\n        /* \"Judgment.sol\":7154:7200  ITaskInfo(taskInfoContractAddress).getCustomer */\n      and\n      0x650d993b\n        /* \"Judgment.sol\":7154:7202  ITaskInfo(taskInfoContractAddress).getCustomer() */\n      mload(0x40)\n      dup2\n      0xffffffff\n      and\n      0xe0\n      shl\n      dup2\n      mstore\n      0x04\n      add\n      0x20\n      mload(0x40)\n      dup1\n      dup4\n      sub\n      dup2\n      dup7\n      gas\n      staticcall\n      iszero\n      dup1\n      iszero\n      tag_191\n      jumpi\n      returndatasize\n      0x00\n      dup1\n      returndatacopy\n      revert(0x00, returndatasize)\n    tag_191:\n      pop\n      pop\n      pop\n      pop\n      mload(0x40)\n      returndatasize\n      not(0x1f)\n      0x1f\n      dup3\n      add\n      and\n      dup3\n      add\n      dup1\n      0x40\n      mstore\n      pop\n      dup2\n      add\n      swap1\n      tag_192\n      swap2\n      swap1\n      tag_75\n      jump\t// in\n    tag_192:\n        /* \"Judgment.sol\":7137:7202  winner_address = ITaskInfo(taskInfoContractAddress).getCustomer() */\n      swap1\n      pop\n        /* \"Judgment.sol\":7106:7317  if (winner_vote) {... */\n      jump(tag_193)\n    tag_189:\n        /* \"Judgment.sol\":7268:7291  taskInfoContractAddress */\n      0x01\n      0x00\n      swap1\n      sload\n      swap1\n      0x0100\n      exp\n      swap1\n      div\n      sub(shl(0xa0, 0x01), 0x01)\n      and\n      sub(shl(0xa0, 0x01), 0x01)\n        /* \"Judgment.sol\":7258:7304  ITaskInfo(taskInfoContractAddress).getExecutor */\n      and\n      0x6c1032af\n        /* \"Judgment.sol\":7258:7306  ITaskInfo(taskInfoContractAddress).getExecutor() */\n      mload(0x40)\n      dup2\n      0xffffffff\n      and\n      0xe0\n      shl\n      dup2\n      mstore\n      0x04\n      add\n      0x20\n      mload(0x40)\n      dup1\n      dup4\n      sub\n      dup2\n      dup7\n      gas\n      staticcall\n      iszero\n      dup1\n      iszero\n      tag_195\n      jumpi\n      returndatasize\n      0x00\n      dup1\n      returndatacopy\n      revert(0x00, returndatasize)\n    tag_195:\n      pop\n      pop\n      pop\n      pop\n      mload(0x40)\n      returndatasize\n      not(0x1f)\n      0x1f\n      dup3\n      add\n      and\n      dup3\n      add\n      dup1\n      0x40\n      mstore\n      pop\n      dup2\n      add\n      swap1\n      tag_196\n      swap2\n      swap1\n      tag_75\n      jump\t// in\n    tag_196:\n        /* \"Judgment.sol\":7241:7306  winner_address = ITaskInfo(taskInfoContractAddress).getExecutor() */\n      swap1\n      pop\n        /* \"Judgment.sol\":7106:7317  if (winner_vote) {... */\n    tag_193:\n        /* \"Judgment.sol\":7352:7375  taskInfoContractAddress */\n      sload(0x01)\n        /* \"Judgment.sol\":7342:7387  ITaskInfo(taskInfoContractAddress).getPrice() */\n      0x40\n      dup1\n      mload\n      shl(0xe1, 0x4c6afee5)\n      dup2\n      mstore\n      swap1\n      mload\n        /* \"Judgment.sol\":7326:7339  uint256 price */\n      0x00\n      swap3\n      sub(shl(0xa0, 0x01), 0x01)\n        /* \"Judgment.sol\":7352:7375  taskInfoContractAddress */\n      and\n      swap2\n        /* \"Judgment.sol\":7342:7385  ITaskInfo(taskInfoContractAddress).getPrice */\n      0x98d5fdca\n      swap2\n        /* \"Judgment.sol\":7342:7387  ITaskInfo(taskInfoContractAddress).getPrice() */\n      0x04\n      dup1\n      dup4\n      add\n      swap3\n      0x20\n      swap3\n      swap2\n      swap1\n      dup3\n      swap1\n      sub\n      add\n      dup2\n        /* \"Judgment.sol\":7352:7375  taskInfoContractAddress */\n      dup7\n        /* \"Judgment.sol\":7342:7387  ITaskInfo(taskInfoContractAddress).getPrice() */\n      gas\n      staticcall\n      iszero\n      dup1\n      iszero\n      tag_198\n      jumpi\n      returndatasize\n      0x00\n      dup1\n      returndatacopy\n      revert(0x00, returndatasize)\n    tag_198:\n      pop\n      pop\n      pop\n      pop\n      mload(0x40)\n      returndatasize\n      not(0x1f)\n      0x1f\n      dup3\n      add\n      and\n      dup3\n      add\n      dup1\n      0x40\n      mstore\n      pop\n      dup2\n      add\n      swap1\n      tag_199\n      swap2\n      swap1\n      tag_117\n      jump\t// in\n    tag_199:\n        /* \"Judgment.sol\":7326:7387  uint256 price = ITaskInfo(taskInfoContractAddress).getPrice() */\n      swap1\n      pop\n        /* \"Judgment.sol\":7397:7407  getToken() */\n      tag_200\n        /* \"Judgment.sol\":7397:7405  getToken */\n      tag_113\n        /* \"Judgment.sol\":7397:7407  getToken() */\n      jump\t// in\n    tag_200:\n        /* \"Judgment.sol\":7397:7439  getToken().transfer(winner_address, price) */\n      mload(0x40)\n      shl(0xe0, 0xa9059cbb)\n      dup2\n      mstore\n      sub(shl(0xa0, 0x01), 0x01)\n        /* \"#utility.yul\":7277:7309   */\n      dup5\n      dup2\n      and\n        /* \"Judgment.sol\":7397:7439  getToken().transfer(winner_address, price) */\n      0x04\n      dup4\n      add\n        /* \"#utility.yul\":7259:7310   */\n      mstore\n        /* \"#utility.yul\":7326:7344   */\n      0x24\n      dup3\n      add\n        /* \"#utility.yul\":7319:7353   */\n      dup5\n      swap1\n      mstore\n        /* \"Judgment.sol\":7397:7416  getToken().transfer */\n      swap2\n      swap1\n      swap2\n      and\n      swap1\n      0xa9059cbb\n      swap1\n        /* \"#utility.yul\":7232:7250   */\n      0x44\n      add\n        /* \"Judgment.sol\":7397:7439  getToken().transfer(winner_address, price) */\n      0x20\n      mload(0x40)\n      dup1\n      dup4\n      sub\n      dup2\n      0x00\n      dup8\n      gas\n      call\n      iszero\n      dup1\n      iszero\n      tag_203\n      jumpi\n      returndatasize\n      0x00\n      dup1\n      returndatacopy\n      revert(0x00, returndatasize)\n    tag_203:\n      pop\n      pop\n      pop\n      pop\n      mload(0x40)\n      returndatasize\n      not(0x1f)\n      0x1f\n      dup3\n      add\n      and\n      dup3\n      add\n      dup1\n      0x40\n      mstore\n      pop\n      dup2\n      add\n      swap1\n      tag_204\n      swap2\n      swap1\n      tag_131\n      jump\t// in\n    tag_204:\n      pop\n        /* \"Judgment.sol\":7064:7446  {... */\n      pop\n      pop\n        /* \"Judgment.sol\":7011:7446  function payRewardToWinner(bool winner_vote) private {... */\n      pop\n      jump\t// out\n        /* \"Judgment.sol\":7452:8436  function payRewardByVote(bool winner_vote) private {... */\n    tag_164:\n        /* \"Judgment.sol\":8156:8176  uint256 judge_reward */\n      0x00\n        /* \"Judgment.sol\":8179:8212  calculateJudgeReward(winner_vote) */\n      tag_206\n        /* \"Judgment.sol\":8200:8211  winner_vote */\n      dup3\n        /* \"Judgment.sol\":8179:8199  calculateJudgeReward */\n      tag_207\n        /* \"Judgment.sol\":8179:8212  calculateJudgeReward(winner_vote) */\n      jump\t// in\n    tag_206:\n        /* \"Judgment.sol\":8156:8212  uint256 judge_reward = calculateJudgeReward(winner_vote) */\n      swap1\n      pop\n        /* \"Judgment.sol\":8227:8233  uint i */\n      0x00\n        /* \"Judgment.sol\":8222:8430  for (uint i = 0; i < judge_votes.length; ++i) {... */\n    tag_208:\n        /* \"Judgment.sol\":8243:8254  judge_votes */\n      0x04\n        /* \"Judgment.sol\":8243:8261  judge_votes.length */\n      sload\n        /* \"Judgment.sol\":8239:8261  i < judge_votes.length */\n      dup2\n      lt\n        /* \"Judgment.sol\":8222:8430  for (uint i = 0; i < judge_votes.length; ++i) {... */\n      iszero\n      tag_209\n      jumpi\n        /* \"Judgment.sol\":8312:8323  winner_vote */\n      dup3\n        /* \"Judgment.sol\":8286:8323  judge_votes[i].verdict == winner_vote */\n      iszero\n      iszero\n        /* \"Judgment.sol\":8286:8297  judge_votes */\n      0x04\n        /* \"Judgment.sol\":8298:8299  i */\n      dup3\n        /* \"Judgment.sol\":8286:8300  judge_votes[i] */\n      dup2\n      sload\n      dup2\n      lt\n      tag_212\n      jumpi\n      tag_212\n      tag_88\n      jump\t// in\n    tag_212:\n      0x00\n      swap2\n      dup3\n      mstore\n      0x20\n      swap1\n      swap2\n      keccak256\n        /* \"Judgment.sol\":8286:8308  judge_votes[i].verdict */\n      0x03\n        /* \"Judgment.sol\":8286:8300  judge_votes[i] */\n      0x04\n      swap1\n      swap3\n      mul\n      add\n        /* \"Judgment.sol\":8286:8308  judge_votes[i].verdict */\n      add\n      sload\n      0xff\n      and\n        /* \"Judgment.sol\":8286:8323  judge_votes[i].verdict == winner_vote */\n      iszero\n      iszero\n      sub\n        /* \"Judgment.sol\":8282:8420  if (judge_votes[i].verdict == winner_vote) {... */\n      tag_214\n      jumpi\n        /* \"Judgment.sol\":8343:8353  getToken() */\n      tag_215\n        /* \"Judgment.sol\":8343:8351  getToken */\n      tag_113\n        /* \"Judgment.sol\":8343:8353  getToken() */\n      jump\t// in\n    tag_215:\n      sub(shl(0xa0, 0x01), 0x01)\n        /* \"Judgment.sol\":8343:8362  getToken().transfer */\n      and\n      0xa9059cbb\n        /* \"Judgment.sol\":8363:8374  judge_votes */\n      0x04\n        /* \"Judgment.sol\":8375:8376  i */\n      dup4\n        /* \"Judgment.sol\":8363:8377  judge_votes[i] */\n      dup2\n      sload\n      dup2\n      lt\n      tag_217\n      jumpi\n      tag_217\n      tag_88\n      jump\t// in\n    tag_217:\n      swap1\n      0x00\n      mstore\n      keccak256(0x00, 0x20)\n      swap1\n      0x04\n      mul\n      add\n        /* \"Judgment.sol\":8363:8390  judge_votes[i].judgeAddress */\n      0x03\n      add\n      0x01\n      swap1\n      sload\n      swap1\n      0x0100\n      exp\n      swap1\n      div\n      sub(shl(0xa0, 0x01), 0x01)\n      and\n        /* \"Judgment.sol\":8392:8404  judge_reward */\n      dup5\n        /* \"Judgment.sol\":8343:8405  getToken().transfer(judge_votes[i].judgeAddress, judge_reward) */\n      mload(0x40)\n      dup4\n      0xffffffff\n      and\n      0xe0\n      shl\n      dup2\n      mstore\n      0x04\n      add\n      tag_219\n      swap3\n      swap2\n      swap1\n      sub(shl(0xa0, 0x01), 0x01)\n        /* \"#utility.yul\":7277:7309   */\n      swap3\n      swap1\n      swap3\n      and\n        /* \"#utility.yul\":7259:7310   */\n      dup3\n      mstore\n        /* \"#utility.yul\":7341:7343   */\n      0x20\n        /* \"#utility.yul\":7326:7344   */\n      dup3\n      add\n        /* \"#utility.yul\":7319:7353   */\n      mstore\n        /* \"#utility.yul\":7247:7249   */\n      0x40\n        /* \"#utility.yul\":7232:7250   */\n      add\n      swap1\n        /* \"#utility.yul\":7085:7359   */\n      jump\n        /* \"Judgment.sol\":8343:8405  getToken().transfer(judge_votes[i].judgeAddress, judge_reward) */\n    tag_219:\n      0x20\n      mload(0x40)\n      dup1\n      dup4\n      sub\n      dup2\n      0x00\n      dup8\n      gas\n      call\n      iszero\n      dup1\n      iszero\n      tag_221\n      jumpi\n      returndatasize\n      0x00\n      dup1\n      returndatacopy\n      revert(0x00, returndatasize)\n    tag_221:\n      pop\n      pop\n      pop\n      pop\n      mload(0x40)\n      returndatasize\n      not(0x1f)\n      0x1f\n      dup3\n      add\n      and\n      dup3\n      add\n      dup1\n      0x40\n      mstore\n      pop\n      dup2\n      add\n      swap1\n      tag_222\n      swap2\n      swap1\n      tag_131\n      jump\t// in\n    tag_222:\n      pop\n        /* \"Judgment.sol\":8282:8420  if (judge_votes[i].verdict == winner_vote) {... */\n    tag_214:\n        /* \"Judgment.sol\":8263:8266  ++i */\n      tag_223\n      dup2\n      tag_94\n      jump\t// in\n    tag_223:\n      swap1\n      pop\n        /* \"Judgment.sol\":8222:8430  for (uint i = 0; i < judge_votes.length; ++i) {... */\n      jump(tag_208)\n    tag_209:\n      pop\n        /* \"Judgment.sol\":7503:8436  {... */\n      pop\n        /* \"Judgment.sol\":7452:8436  function payRewardByVote(bool winner_vote) private {... */\n      pop\n      jump\t// out\n        /* \"Judgment.sol\":9914:10453  function payBalanceToCompany() private {... */\n    tag_166:\n        /* \"Judgment.sol\":10252:10264  IERC20 token */\n      0x00\n        /* \"Judgment.sol\":10267:10277  getToken() */\n      tag_225\n        /* \"Judgment.sol\":10267:10275  getToken */\n      tag_113\n        /* \"Judgment.sol\":10267:10277  getToken() */\n      jump\t// in\n    tag_225:\n        /* \"Judgment.sol\":10310:10340  token.balanceOf(address(this)) */\n      mload(0x40)\n      shl(0xe0, 0x70a08231)\n      dup2\n      mstore\n        /* \"Judgment.sol\":10334:10338  this */\n      address\n        /* \"Judgment.sol\":10310:10340  token.balanceOf(address(this)) */\n      0x04\n      dup3\n      add\n        /* \"#utility.yul\":1008:1059   */\n      mstore\n        /* \"Judgment.sol\":10252:10277  IERC20 token = getToken() */\n      swap1\n      swap2\n      pop\n        /* \"Judgment.sol\":10288:10307  uint256 all_balance */\n      0x00\n      swap1\n      sub(shl(0xa0, 0x01), 0x01)\n        /* \"Judgment.sol\":10310:10325  token.balanceOf */\n      dup4\n      and\n      swap1\n      0x70a08231\n      swap1\n        /* \"#utility.yul\":981:999   */\n      0x24\n      add\n        /* \"Judgment.sol\":10310:10340  token.balanceOf(address(this)) */\n      0x20\n      mload(0x40)\n      dup1\n      dup4\n      sub\n      dup2\n      dup7\n      gas\n      staticcall\n      iszero\n      dup1\n      iszero\n      tag_228\n      jumpi\n      returndatasize\n      0x00\n      dup1\n      returndatacopy\n      revert(0x00, returndatasize)\n    tag_228:\n      pop\n      pop\n      pop\n      pop\n      mload(0x40)\n      returndatasize\n      not(0x1f)\n      0x1f\n      dup3\n      add\n      and\n      dup3\n      add\n      dup1\n      0x40\n      mstore\n      pop\n      dup2\n      add\n      swap1\n      tag_229\n      swap2\n      swap1\n      tag_117\n      jump\t// in\n    tag_229:\n        /* \"Judgment.sol\":10288:10340  uint256 all_balance = token.balanceOf(address(this)) */\n      swap1\n      pop\n        /* \"Judgment.sol\":10354:10370  all_balance != 0 */\n      dup1\n      iszero\n        /* \"Judgment.sol\":10350:10447  if (all_balance != 0) {... */\n      tag_84\n      jumpi\n        /* \"Judgment.sol\":10386:10436  token.transfer(utils.COMPANY_ADDRESS, all_balance) */\n      mload(0x40)\n      shl(0xe0, 0xa9059cbb)\n      dup2\n      mstore\n        /* \"utils.sol\":284:326  0x1dF62f291b2E969fB0849d99D9Ce41e2F137006e */\n      0x1df62f291b2e969fb0849d99d9ce41e2f137006e\n        /* \"Judgment.sol\":10386:10436  token.transfer(utils.COMPANY_ADDRESS, all_balance) */\n      0x04\n      dup3\n      add\n        /* \"#utility.yul\":7259:7310   */\n      mstore\n        /* \"#utility.yul\":7326:7344   */\n      0x24\n      dup2\n      add\n        /* \"#utility.yul\":7319:7353   */\n      dup3\n      swap1\n      mstore\n      sub(shl(0xa0, 0x01), 0x01)\n        /* \"Judgment.sol\":10386:10400  token.transfer */\n      dup4\n      and\n      swap1\n      0xa9059cbb\n      swap1\n        /* \"#utility.yul\":7232:7250   */\n      0x44\n      add\n        /* \"Judgment.sol\":10386:10436  token.transfer(utils.COMPANY_ADDRESS, all_balance) */\n      0x20\n      mload(0x40)\n      dup1\n      dup4\n      sub\n      dup2\n      0x00\n      dup8\n      gas\n      call\n      iszero\n      dup1\n      iszero\n      tag_233\n      jumpi\n      returndatasize\n      0x00\n      dup1\n      returndatacopy\n      revert(0x00, returndatasize)\n    tag_233:\n      pop\n      pop\n      pop\n      pop\n      mload(0x40)\n      returndatasize\n      not(0x1f)\n      0x1f\n      dup3\n      add\n      and\n      dup3\n      add\n      dup1\n      0x40\n      mstore\n      pop\n      dup2\n      add\n      swap1\n      tag_209\n      swap2\n      swap1\n      tag_131\n      jump\t// in\n        /* \"Judgment.sol\":8442:9908  function calculateJudgeReward(bool winner_vote) private view returns (uint256) {... */\n    tag_207:\n        /* \"Judgment.sol\":8512:8519  uint256 */\n      0x00\n        /* \"Judgment.sol\":9466:9490  uint256 security_deposit */\n      dup1\n        /* \"Judgment.sol\":9503:9526  taskInfoContractAddress */\n      0x01\n      0x00\n      swap1\n      sload\n      swap1\n      0x0100\n      exp\n      swap1\n      div\n      sub(shl(0xa0, 0x01), 0x01)\n      and\n      sub(shl(0xa0, 0x01), 0x01)\n        /* \"Judgment.sol\":9493:9546  ITaskInfo(taskInfoContractAddress).getSecurityDeposit */\n      and\n      0x64a40642\n        /* \"Judgment.sol\":9493:9548  ITaskInfo(taskInfoContractAddress).getSecurityDeposit() */\n      mload(0x40)\n      dup2\n      0xffffffff\n      and\n      0xe0\n      shl\n      dup2\n      mstore\n      0x04\n      add\n      0x20\n      mload(0x40)\n      dup1\n      dup4\n      sub\n      dup2\n      dup7\n      gas\n      staticcall\n      iszero\n      dup1\n      iszero\n      tag_237\n      jumpi\n      returndatasize\n      0x00\n      dup1\n      returndatacopy\n      revert(0x00, returndatasize)\n    tag_237:\n      pop\n      pop\n      pop\n      pop\n      mload(0x40)\n      returndatasize\n      not(0x1f)\n      0x1f\n      dup3\n      add\n      and\n      dup3\n      add\n      dup1\n      0x40\n      mstore\n      pop\n      dup2\n      add\n      swap1\n      tag_238\n      swap2\n      swap1\n      tag_117\n      jump\t// in\n    tag_238:\n        /* \"Judgment.sol\":9466:9548  uint256 security_deposit = ITaskInfo(taskInfoContractAddress).getSecurityDeposit() */\n      swap1\n      pop\n        /* \"Judgment.sol\":9558:9572  uint256 reward */\n      0x00\n        /* \"Judgment.sol\":9590:9601  winner_vote */\n      dup4\n        /* \"Judgment.sol\":9590:9619  winner_vote && votes_for != 0 */\n      dup1\n      iszero\n      tag_239\n      jumpi\n      pop\n        /* \"Judgment.sol\":9605:9614  votes_for */\n      sload(0x07)\n        /* \"Judgment.sol\":9605:9619  votes_for != 0 */\n      iszero\n      iszero\n        /* \"Judgment.sol\":9590:9619  winner_vote && votes_for != 0 */\n    tag_239:\n        /* \"Judgment.sol\":9586:9843  if (winner_vote && votes_for != 0) {... */\n      iszero\n      tag_240\n      jumpi\n        /* \"Judgment.sol\":9685:9694  votes_for */\n      sload(0x07)\n        /* \"Judgment.sol\":9666:9682  security_deposit */\n      dup3\n        /* \"Judgment.sol\":9645:9658  votes_against */\n      sload(0x08)\n        /* \"Judgment.sol\":9661:9662  1 */\n      0x01\n        /* \"Judgment.sol\":9645:9662  votes_against + 1 */\n      tag_241\n      swap2\n      swap1\n      tag_242\n      jump\t// in\n    tag_241:\n        /* \"Judgment.sol\":9644:9682  (votes_against + 1) * security_deposit */\n      tag_243\n      swap2\n      swap1\n      tag_244\n      jump\t// in\n    tag_243:\n        /* \"Judgment.sol\":9644:9694  (votes_against + 1) * security_deposit / votes_for */\n      tag_245\n      swap2\n      swap1\n      tag_246\n      jump\t// in\n    tag_245:\n        /* \"Judgment.sol\":9635:9694  reward = (votes_against + 1) * security_deposit / votes_for */\n      swap1\n      pop\n        /* \"Judgment.sol\":9586:9843  if (winner_vote && votes_for != 0) {... */\n      jump(tag_249)\n    tag_240:\n        /* \"Judgment.sol\":9724:9735  winner_vote */\n      dup4\n        /* \"Judgment.sol\":9723:9735  !winner_vote */\n      iszero\n        /* \"Judgment.sol\":9723:9757  !winner_vote && votes_against != 0 */\n      dup1\n      iszero\n      tag_248\n      jumpi\n      pop\n        /* \"Judgment.sol\":9739:9752  votes_against */\n      sload(0x08)\n        /* \"Judgment.sol\":9739:9757  votes_against != 0 */\n      iszero\n      iszero\n        /* \"Judgment.sol\":9723:9757  !winner_vote && votes_against != 0 */\n    tag_248:\n        /* \"Judgment.sol\":9719:9843  if (!winner_vote && votes_against != 0) {... */\n      iszero\n      tag_249\n      jumpi\n        /* \"Judgment.sol\":9819:9832  votes_against */\n      sload(0x08)\n        /* \"Judgment.sol\":9800:9816  security_deposit */\n      dup3\n        /* \"Judgment.sol\":9783:9792  votes_for */\n      sload(0x07)\n        /* \"Judgment.sol\":9795:9796  1 */\n      0x01\n        /* \"Judgment.sol\":9783:9796  votes_for + 1 */\n      tag_250\n      swap2\n      swap1\n      tag_242\n      jump\t// in\n    tag_250:\n        /* \"Judgment.sol\":9782:9816  (votes_for + 1) * security_deposit */\n      tag_251\n      swap2\n      swap1\n      tag_244\n      jump\t// in\n    tag_251:\n        /* \"Judgment.sol\":9782:9832  (votes_for + 1) * security_deposit / votes_against */\n      tag_252\n      swap2\n      swap1\n      tag_246\n      jump\t// in\n    tag_252:\n        /* \"Judgment.sol\":9773:9832  reward = (votes_for + 1) * security_deposit / votes_against */\n      swap1\n      pop\n        /* \"Judgment.sol\":9719:9843  if (!winner_vote && votes_against != 0) {... */\n    tag_249:\n        /* \"Judgment.sol\":9852:9878  reward += security_deposit */\n      tag_253\n        /* \"Judgment.sol\":9862:9878  security_deposit */\n      dup3\n        /* \"Judgment.sol\":9852:9878  reward += security_deposit */\n      dup3\n      tag_242\n      jump\t// in\n    tag_253:\n      swap5\n        /* \"Judgment.sol\":8442:9908  function calculateJudgeReward(bool winner_vote) private view returns (uint256) {... */\n      swap4\n      pop\n      pop\n      pop\n      pop\n      jump\t// out\n        /* \"#utility.yul\":14:857   */\n    tag_19:\n        /* \"#utility.yul\":235:237   */\n      0x20\n        /* \"#utility.yul\":287:308   */\n      dup1\n      dup3\n      mstore\n        /* \"#utility.yul\":357:370   */\n      dup3\n      mload\n        /* \"#utility.yul\":260:278   */\n      dup3\n      dup3\n      add\n        /* \"#utility.yul\":379:401   */\n      dup2\n      swap1\n      mstore\n        /* \"#utility.yul\":206:210   */\n      0x00\n      swap2\n        /* \"#utility.yul\":235:237   */\n      swap1\n        /* \"#utility.yul\":420:422   */\n      0x40\n      swap1\n        /* \"#utility.yul\":438:456   */\n      dup2\n      dup6\n      add\n      swap1\n        /* \"#utility.yul\":479:494   */\n      dup7\n      dup5\n      add\n        /* \"#utility.yul\":206:210   */\n      dup6\n        /* \"#utility.yul\":522:831   */\n    tag_259:\n        /* \"#utility.yul\":536:542   */\n      dup3\n        /* \"#utility.yul\":533:534   */\n      dup2\n        /* \"#utility.yul\":530:543   */\n      lt\n        /* \"#utility.yul\":522:831   */\n      iszero\n      tag_261\n      jumpi\n        /* \"#utility.yul\":595:608   */\n      dup2\n      mload\n        /* \"#utility.yul\":633:642   */\n      dup1\n      mload\n        /* \"#utility.yul\":621:643   */\n      dup6\n      mstore\n        /* \"#utility.yul\":683:694   */\n      dup7\n      dup2\n      add\n        /* \"#utility.yul\":677:695   */\n      mload\n        /* \"#utility.yul\":663:675   */\n      dup8\n      dup7\n      add\n        /* \"#utility.yul\":656:696   */\n      mstore\n        /* \"#utility.yul\":736:747   */\n      dup6\n      add\n        /* \"#utility.yul\":730:748   */\n      mload\n        /* \"#utility.yul\":716:728   */\n      dup6\n      dup6\n      add\n        /* \"#utility.yul\":709:749   */\n      mstore\n        /* \"#utility.yul\":778:782   */\n      0x60\n        /* \"#utility.yul\":769:783   */\n      swap1\n      swap4\n      add\n      swap3\n        /* \"#utility.yul\":806:821   */\n      swap1\n      dup6\n      add\n      swap1\n        /* \"#utility.yul\":558:559   */\n      0x01\n        /* \"#utility.yul\":551:560   */\n      add\n        /* \"#utility.yul\":522:831   */\n      jump(tag_259)\n    tag_261:\n      pop\n        /* \"#utility.yul\":848:851   */\n      swap2\n      swap8\n        /* \"#utility.yul\":14:857   */\n      swap7\n      pop\n      pop\n      pop\n      pop\n      pop\n      pop\n      pop\n      jump\t// out\n        /* \"#utility.yul\":1070:2117   */\n    tag_27:\n        /* \"#utility.yul\":1293:1295   */\n      0x20\n        /* \"#utility.yul\":1345:1366   */\n      dup1\n      dup3\n      mstore\n        /* \"#utility.yul\":1415:1428   */\n      dup3\n      mload\n        /* \"#utility.yul\":1318:1336   */\n      dup3\n      dup3\n      add\n        /* \"#utility.yul\":1437:1459   */\n      dup2\n      swap1\n      mstore\n        /* \"#utility.yul\":1264:1268   */\n      0x00\n      swap2\n        /* \"#utility.yul\":1293:1295   */\n      swap1\n        /* \"#utility.yul\":1478:1480   */\n      0x40\n      swap1\n        /* \"#utility.yul\":1496:1514   */\n      dup2\n      dup6\n      add\n      swap1\n        /* \"#utility.yul\":1537:1552   */\n      dup7\n      dup5\n      add\n        /* \"#utility.yul\":1264:1268   */\n      dup6\n        /* \"#utility.yul\":1580:2091   */\n    tag_264:\n        /* \"#utility.yul\":1594:1600   */\n      dup3\n        /* \"#utility.yul\":1591:1592   */\n      dup2\n        /* \"#utility.yul\":1588:1601   */\n      lt\n        /* \"#utility.yul\":1580:2091   */\n      iszero\n      tag_261\n      jumpi\n        /* \"#utility.yul\":1653:1666   */\n      dup2\n      mload\n        /* \"#utility.yul\":1691:1700   */\n      dup1\n      mload\n        /* \"#utility.yul\":1679:1701   */\n      dup6\n      mstore\n        /* \"#utility.yul\":1741:1752   */\n      dup7\n      dup2\n      add\n        /* \"#utility.yul\":1735:1753   */\n      mload\n        /* \"#utility.yul\":1721:1733   */\n      dup8\n      dup7\n      add\n        /* \"#utility.yul\":1714:1754   */\n      mstore\n        /* \"#utility.yul\":1794:1805   */\n      dup6\n      dup2\n      add\n        /* \"#utility.yul\":1788:1806   */\n      mload\n        /* \"#utility.yul\":1774:1786   */\n      dup7\n      dup7\n      add\n        /* \"#utility.yul\":1767:1807   */\n      mstore\n        /* \"#utility.yul\":1830:1834   */\n      0x60\n        /* \"#utility.yul\":1888:1899   */\n      dup1\n      dup3\n      add\n        /* \"#utility.yul\":1882:1900   */\n      mload\n        /* \"#utility.yul\":1875:1901   */\n      iszero\n        /* \"#utility.yul\":1868:1902   */\n      iszero\n        /* \"#utility.yul\":1854:1866   */\n      swap1\n      dup7\n      add\n        /* \"#utility.yul\":1847:1903   */\n      mstore\n        /* \"#utility.yul\":1926:1930   */\n      0x80\n        /* \"#utility.yul\":1974:1985   */\n      swap1\n      dup2\n      add\n        /* \"#utility.yul\":1968:1986   */\n      mload\n      sub(shl(0xa0, 0x01), 0x01)\n        /* \"#utility.yul\":1964:2008   */\n      and\n        /* \"#utility.yul\":1950:1962   */\n      swap1\n      dup6\n      add\n        /* \"#utility.yul\":1943:2009   */\n      mstore\n        /* \"#utility.yul\":1996:1999   */\n      0xa0\n        /* \"#utility.yul\":2029:2043   */\n      swap1\n      swap4\n      add\n      swap3\n        /* \"#utility.yul\":2066:2081   */\n      swap1\n      dup6\n      add\n      swap1\n        /* \"#utility.yul\":2005:2006   */\n      0x01\n        /* \"#utility.yul\":1609:1618   */\n      add\n        /* \"#utility.yul\":1580:2091   */\n      jump(tag_264)\n        /* \"#utility.yul\":2122:2253   */\n    tag_254:\n      sub(shl(0xa0, 0x01), 0x01)\n        /* \"#utility.yul\":2197:2228   */\n      dup2\n      and\n        /* \"#utility.yul\":2187:2229   */\n      dup2\n      eq\n        /* \"#utility.yul\":2177:2247   */\n      tag_165\n      jumpi\n        /* \"#utility.yul\":2243:2244   */\n      0x00\n        /* \"#utility.yul\":2240:2241   */\n      dup1\n        /* \"#utility.yul\":2233:2245   */\n      revert\n        /* \"#utility.yul\":2258:2505   */\n    tag_30:\n        /* \"#utility.yul\":2317:2323   */\n      0x00\n        /* \"#utility.yul\":2370:2372   */\n      0x20\n        /* \"#utility.yul\":2358:2367   */\n      dup3\n        /* \"#utility.yul\":2349:2356   */\n      dup5\n        /* \"#utility.yul\":2345:2368   */\n      sub\n        /* \"#utility.yul\":2341:2373   */\n      slt\n        /* \"#utility.yul\":2338:2390   */\n      iszero\n      tag_270\n      jumpi\n        /* \"#utility.yul\":2386:2387   */\n      0x00\n        /* \"#utility.yul\":2383:2384   */\n      dup1\n        /* \"#utility.yul\":2376:2388   */\n      revert\n        /* \"#utility.yul\":2338:2390   */\n    tag_270:\n        /* \"#utility.yul\":2425:2434   */\n      dup2\n        /* \"#utility.yul\":2412:2435   */\n      calldataload\n        /* \"#utility.yul\":2444:2475   */\n      tag_271\n        /* \"#utility.yul\":2469:2474   */\n      dup2\n        /* \"#utility.yul\":2444:2475   */\n      tag_254\n      jump\t// in\n    tag_271:\n        /* \"#utility.yul\":2494:2499   */\n      swap4\n        /* \"#utility.yul\":2258:2505   */\n      swap3\n      pop\n      pop\n      pop\n      jump\t// out\n        /* \"#utility.yul\":2884:3002   */\n    tag_255:\n        /* \"#utility.yul\":2970:2975   */\n      dup1\n        /* \"#utility.yul\":2963:2976   */\n      iszero\n        /* \"#utility.yul\":2956:2977   */\n      iszero\n        /* \"#utility.yul\":2949:2954   */\n      dup2\n        /* \"#utility.yul\":2946:2978   */\n      eq\n        /* \"#utility.yul\":2936:2996   */\n      tag_165\n      jumpi\n        /* \"#utility.yul\":2992:2993   */\n      0x00\n        /* \"#utility.yul\":2989:2990   */\n      dup1\n        /* \"#utility.yul\":2982:2994   */\n      revert\n        /* \"#utility.yul\":3007:3384   */\n    tag_47:\n        /* \"#utility.yul\":3081:3087   */\n      0x00\n        /* \"#utility.yul\":3089:3095   */\n      dup1\n        /* \"#utility.yul\":3097:3103   */\n      0x00\n        /* \"#utility.yul\":3150:3152   */\n      0x60\n        /* \"#utility.yul\":3138:3147   */\n      dup5\n        /* \"#utility.yul\":3129:3136   */\n      dup7\n        /* \"#utility.yul\":3125:3148   */\n      sub\n        /* \"#utility.yul\":3121:3153   */\n      slt\n        /* \"#utility.yul\":3118:3170   */\n      iszero\n      tag_277\n      jumpi\n        /* \"#utility.yul\":3166:3167   */\n      0x00\n        /* \"#utility.yul\":3163:3164   */\n      dup1\n        /* \"#utility.yul\":3156:3168   */\n      revert\n        /* \"#utility.yul\":3118:3170   */\n    tag_277:\n        /* \"#utility.yul\":3205:3214   */\n      dup4\n        /* \"#utility.yul\":3192:3215   */\n      calldataload\n        /* \"#utility.yul\":3224:3252   */\n      tag_278\n        /* \"#utility.yul\":3246:3251   */\n      dup2\n        /* \"#utility.yul\":3224:3252   */\n      tag_255\n      jump\t// in\n    tag_278:\n        /* \"#utility.yul\":3271:3276   */\n      swap6\n        /* \"#utility.yul\":3323:3325   */\n      0x20\n        /* \"#utility.yul\":3308:3326   */\n      dup6\n      add\n        /* \"#utility.yul\":3295:3327   */\n      calldataload\n      swap6\n      pop\n        /* \"#utility.yul\":3374:3376   */\n      0x40\n        /* \"#utility.yul\":3359:3377   */\n      swap1\n      swap5\n      add\n        /* \"#utility.yul\":3346:3378   */\n      calldataload\n      swap4\n        /* \"#utility.yul\":3007:3384   */\n      swap3\n      pop\n      pop\n      pop\n      jump\t// out\n        /* \"#utility.yul\":3389:3637   */\n    tag_54:\n        /* \"#utility.yul\":3457:3463   */\n      0x00\n        /* \"#utility.yul\":3465:3471   */\n      dup1\n        /* \"#utility.yul\":3518:3520   */\n      0x40\n        /* \"#utility.yul\":3506:3515   */\n      dup4\n        /* \"#utility.yul\":3497:3504   */\n      dup6\n        /* \"#utility.yul\":3493:3516   */\n      sub\n        /* \"#utility.yul\":3489:3521   */\n      slt\n        /* \"#utility.yul\":3486:3538   */\n      iszero\n      tag_280\n      jumpi\n        /* \"#utility.yul\":3534:3535   */\n      0x00\n        /* \"#utility.yul\":3531:3532   */\n      dup1\n        /* \"#utility.yul\":3524:3536   */\n      revert\n        /* \"#utility.yul\":3486:3538   */\n    tag_280:\n      pop\n      pop\n        /* \"#utility.yul\":3557:3580   */\n      dup1\n      calldataload\n      swap3\n        /* \"#utility.yul\":3627:3629   */\n      0x20\n        /* \"#utility.yul\":3612:3630   */\n      swap1\n      swap2\n      add\n        /* \"#utility.yul\":3599:3631   */\n      calldataload\n      swap2\n      pop\n        /* \"#utility.yul\":3389:3637   */\n      jump\t// out\n        /* \"#utility.yul\":3973:4224   */\n    tag_75:\n        /* \"#utility.yul\":4043:4049   */\n      0x00\n        /* \"#utility.yul\":4096:4098   */\n      0x20\n        /* \"#utility.yul\":4084:4093   */\n      dup3\n        /* \"#utility.yul\":4075:4082   */\n      dup5\n        /* \"#utility.yul\":4071:4094   */\n      sub\n        /* \"#utility.yul\":4067:4099   */\n      slt\n        /* \"#utility.yul\":4064:4116   */\n      iszero\n      tag_283\n      jumpi\n        /* \"#utility.yul\":4112:4113   */\n      0x00\n        /* \"#utility.yul\":4109:4110   */\n      dup1\n        /* \"#utility.yul\":4102:4114   */\n      revert\n        /* \"#utility.yul\":4064:4116   */\n    tag_283:\n        /* \"#utility.yul\":4144:4153   */\n      dup2\n        /* \"#utility.yul\":4138:4154   */\n      mload\n        /* \"#utility.yul\":4163:4194   */\n      tag_271\n        /* \"#utility.yul\":4188:4193   */\n      dup2\n        /* \"#utility.yul\":4163:4194   */\n      tag_254\n      jump\t// in\n        /* \"#utility.yul\":4560:4687   */\n    tag_88:\n        /* \"#utility.yul\":4621:4631   */\n      0x4e487b71\n        /* \"#utility.yul\":4616:4619   */\n      0xe0\n        /* \"#utility.yul\":4612:4632   */\n      shl\n        /* \"#utility.yul\":4609:4610   */\n      0x00\n        /* \"#utility.yul\":4602:4633   */\n      mstore\n        /* \"#utility.yul\":4652:4656   */\n      0x32\n        /* \"#utility.yul\":4649:4650   */\n      0x04\n        /* \"#utility.yul\":4642:4657   */\n      mstore\n        /* \"#utility.yul\":4676:4680   */\n      0x24\n        /* \"#utility.yul\":4673:4674   */\n      0x00\n        /* \"#utility.yul\":4666:4681   */\n      revert\n        /* \"#utility.yul\":5023:5150   */\n    tag_256:\n        /* \"#utility.yul\":5084:5094   */\n      0x4e487b71\n        /* \"#utility.yul\":5079:5082   */\n      0xe0\n        /* \"#utility.yul\":5075:5095   */\n      shl\n        /* \"#utility.yul\":5072:5073   */\n      0x00\n        /* \"#utility.yul\":5065:5096   */\n      mstore\n        /* \"#utility.yul\":5115:5119   */\n      0x11\n        /* \"#utility.yul\":5112:5113   */\n      0x04\n        /* \"#utility.yul\":5105:5120   */\n      mstore\n        /* \"#utility.yul\":5139:5143   */\n      0x24\n        /* \"#utility.yul\":5136:5137   */\n      0x00\n        /* \"#utility.yul\":5129:5144   */\n      revert\n        /* \"#utility.yul\":5155:5290   */\n    tag_94:\n        /* \"#utility.yul\":5194:5197   */\n      0x00\n        /* \"#utility.yul\":5215:5232   */\n      0x01\n      dup3\n      add\n        /* \"#utility.yul\":5212:5255   */\n      tag_291\n      jumpi\n        /* \"#utility.yul\":5235:5253   */\n      tag_291\n      tag_256\n      jump\t// in\n    tag_291:\n      pop\n        /* \"#utility.yul\":5282:5283   */\n      0x01\n        /* \"#utility.yul\":5271:5284   */\n      add\n      swap1\n        /* \"#utility.yul\":5155:5290   */\n      jump\t// out\n        /* \"#utility.yul\":5626:5810   */\n    tag_117:\n        /* \"#utility.yul\":5696:5702   */\n      0x00\n        /* \"#utility.yul\":5749:5751   */\n      0x20\n        /* \"#utility.yul\":5737:5746   */\n      dup3\n        /* \"#utility.yul\":5728:5735   */\n      dup5\n        /* \"#utility.yul\":5724:5747   */\n      sub\n        /* \"#utility.yul\":5720:5752   */\n      slt\n        /* \"#utility.yul\":5717:5769   */\n      iszero\n      tag_294\n      jumpi\n        /* \"#utility.yul\":5765:5766   */\n      0x00\n        /* \"#utility.yul\":5762:5763   */\n      dup1\n        /* \"#utility.yul\":5755:5767   */\n      revert\n        /* \"#utility.yul\":5717:5769   */\n    tag_294:\n      pop\n        /* \"#utility.yul\":5788:5804   */\n      mload\n      swap2\n        /* \"#utility.yul\":5626:5810   */\n      swap1\n      pop\n      jump\t// out\n        /* \"#utility.yul\":6835:7080   */\n    tag_131:\n        /* \"#utility.yul\":6902:6908   */\n      0x00\n        /* \"#utility.yul\":6955:6957   */\n      0x20\n        /* \"#utility.yul\":6943:6952   */\n      dup3\n        /* \"#utility.yul\":6934:6941   */\n      dup5\n        /* \"#utility.yul\":6930:6953   */\n      sub\n        /* \"#utility.yul\":6926:6958   */\n      slt\n        /* \"#utility.yul\":6923:6975   */\n      iszero\n      tag_299\n      jumpi\n        /* \"#utility.yul\":6971:6972   */\n      0x00\n        /* \"#utility.yul\":6968:6969   */\n      dup1\n        /* \"#utility.yul\":6961:6973   */\n      revert\n        /* \"#utility.yul\":6923:6975   */\n    tag_299:\n        /* \"#utility.yul\":7003:7012   */\n      dup2\n        /* \"#utility.yul\":6997:7013   */\n      mload\n        /* \"#utility.yul\":7022:7050   */\n      tag_271\n        /* \"#utility.yul\":7044:7049   */\n      dup2\n        /* \"#utility.yul\":7022:7050   */\n      tag_255\n      jump\t// in\n        /* \"#utility.yul\":8295:8420   */\n    tag_242:\n        /* \"#utility.yul\":8360:8369   */\n      dup1\n      dup3\n      add\n        /* \"#utility.yul\":8381:8391   */\n      dup1\n      dup3\n      gt\n        /* \"#utility.yul\":8378:8414   */\n      iszero\n      tag_309\n      jumpi\n        /* \"#utility.yul\":8394:8412   */\n      tag_309\n      tag_256\n      jump\t// in\n    tag_309:\n        /* \"#utility.yul\":8295:8420   */\n      swap3\n      swap2\n      pop\n      pop\n      jump\t// out\n        /* \"#utility.yul\":8425:8593   */\n    tag_244:\n        /* \"#utility.yul\":8498:8507   */\n      dup1\n      dup3\n      mul\n        /* \"#utility.yul\":8529:8538   */\n      dup2\n      iszero\n        /* \"#utility.yul\":8546:8561   */\n      dup3\n      dup3\n      div\n        /* \"#utility.yul\":8540:8562   */\n      dup5\n      eq\n        /* \"#utility.yul\":8526:8563   */\n      or\n        /* \"#utility.yul\":8516:8587   */\n      tag_309\n      jumpi\n        /* \"#utility.yul\":8567:8585   */\n      tag_309\n      tag_256\n      jump\t// in\n        /* \"#utility.yul\":8598:8815   */\n    tag_246:\n        /* \"#utility.yul\":8638:8639   */\n      0x00\n        /* \"#utility.yul\":8664:8665   */\n      dup3\n        /* \"#utility.yul\":8654:8786   */\n      tag_314\n      jumpi\n        /* \"#utility.yul\":8708:8718   */\n      0x4e487b71\n        /* \"#utility.yul\":8703:8706   */\n      0xe0\n        /* \"#utility.yul\":8699:8719   */\n      shl\n        /* \"#utility.yul\":8696:8697   */\n      0x00\n        /* \"#utility.yul\":8689:8720   */\n      mstore\n        /* \"#utility.yul\":8743:8747   */\n      0x12\n        /* \"#utility.yul\":8740:8741   */\n      0x04\n        /* \"#utility.yul\":8733:8748   */\n      mstore\n        /* \"#utility.yul\":8771:8775   */\n      0x24\n        /* \"#utility.yul\":8768:8769   */\n      0x00\n        /* \"#utility.yul\":8761:8776   */\n      revert\n        /* \"#utility.yul\":8654:8786   */\n    tag_314:\n      pop\n        /* \"#utility.yul\":8800:8809   */\n      div\n      swap1\n        /* \"#utility.yul\":8598:8815   */\n      jump\t// out\n\n    auxdata: 0xa26469706673582212209391d85cd88e1c1b3afceb027b0a5560b5bf32522e7ad00b05c973d422f5c97964736f6c63430008120033\n}\n",
				"bytecode": {
					"linkReferences": {},
					"object": "60806040526006805460ff191690556000600781905560085534801561002457600080fd5b50604051620016e1380380620016e1833981016040819052610045916100be565b603b8110156100805760405162461bcd60e51b815260206004820152600360248201526230783160e81b604482015260640160405180910390fd5b60008054336001600160a01b031991821617909155600180549091166001600160a01b0384161790556100b381426100f8565b6005555061011f9050565b600080604083850312156100d157600080fd5b82516001600160a01b03811681146100e857600080fd5b6020939093015192949293505050565b8082018082111561011957634e487b7160e01b600052601160045260246000fd5b92915050565b6115b2806200012f6000396000f3fe608060405234801561001057600080fd5b50600436106100b45760003560e01c8063c2b6b58c11610071578063c2b6b58c14610140578063d48fe22214610156578063d94167621461015e578063e556dcb214610171578063e90f4e7c14610179578063ec1abd7f1461018c57600080fd5b8063079402c1146100b957806309f82a8a146100d75780630dc96015146100fc5780631d20a3411461011157806343d726d6146101265780638b5a8db21461012e575b600080fd5b6100c161019d565b6040516100ce919061132f565b60405180910390f35b6001546001600160a01b03165b6040516001600160a01b0390911681526020016100ce565b61010461021a565b6040516100ce9190611388565b61012461011f366004611409565b6102e9565b005b6101246104ce565b6004545b6040519081526020016100ce565b60065460ff1660405190151581526020016100ce565b6100c161052c565b61012461016c36600461143b565b61059f565b600554610132565b610124610187366004611470565b6108dd565b6000546001600160a01b03166100e4565b60606003805480602002602001604051908101604052809291908181526020016000905b8282101561021157838290600052602060002090600302016040518060600160405290816000820154815260200160018201548152602001600282015481525050815260200190600101906101c1565b50505050905090565b60065460609060ff1661025a5760405162461bcd60e51b8152602060048201526003602482015262183c1960e91b60448201526064015b60405180910390fd5b6004805480602002602001604051908101604052809291908181526020016000905b828210156102115760008481526020908190206040805160a0810182526004860290920180548352600180820154848601526002820154928401929092526003015460ff81161515606084015261010090046001600160a01b03166080830152908352909201910161027c565b600160009054906101000a90046001600160a01b03166001600160a01b031663650d993b6040518163ffffffff1660e01b8152600401602060405180830381865afa15801561033c573d6000803e3d6000fd5b505050506040513d601f19601f820116820180604052508101906103609190611492565b6001600160a01b0316816001600160a01b0316141580156104095750600160009054906101000a90046001600160a01b03166001600160a01b0316636c1032af6040518163ffffffff1660e01b8152600401602060405180830381865afa1580156103cf573d6000803e3d6000fd5b505050506040513d601f19601f820116820180604052508101906103f39190611492565b6001600160a01b0316816001600160a01b031614155b61043b5760405162461bcd60e51b815260206004820152600360248201526230783560e81b6044820152606401610251565b60005b6004548110156104ca57816001600160a01b031660048281548110610465576104656114af565b600091825260209091206004909102016003015461010090046001600160a01b0316036104ba5760405162461bcd60e51b8152602060048201526003602482015262183c1b60e91b6044820152606401610251565b6104c3816114db565b905061043e565b5050565b60065460ff161580156104e357506005544210155b6105155760405162461bcd60e51b8152602060048201526003602482015262060f0760eb1b6044820152606401610251565b6006805460ff1916600117905561052a610bc9565b565b60606002805480602002602001604051908101604052809291908181526020016000908282101561021157838290600052602060002090600302016040518060600160405290816000820154815260200160018201548152602001600282015481525050815260200190600101906101c1565b6105a7610bf8565b6105b0336102e9565b60006105ba610c3e565b90506000600160009054906101000a90046001600160a01b03166001600160a01b03166364a406426040518163ffffffff1660e01b8152600401602060405180830381865afa158015610611573d6000803e3d6000fd5b505050506040513d601f19601f8201168201806040525081019061063591906114f4565b604051636eb1769f60e11b81523360048201523060248201529091506000906001600160a01b0384169063dd62ed3e90604401602060405180830381865afa158015610685573d6000803e3d6000fd5b505050506040513d601f19601f820116820180604052508101906106a991906114f4565b9050818110156106e15760405162461bcd60e51b81526020600482015260036024820152620c1e0d60ea1b6044820152606401610251565b6040516323b872dd60e01b8152336004820152306024820152604481018390526001600160a01b038416906323b872dd906064016020604051808303816000875af1158015610734573d6000803e3d6000fd5b505050506040513d601f19601f82011682018060405250810190610758919061150d565b506040805160a081018252868152602081018681524292820192835288158015606084019081523360808501908152600480546001810182556000829052865191027f8a35acfbc15ff81a39ae7d344fd709f28e8600b4aa8c65c6b64bfe7fe36bd19b81019190915593517f8a35acfbc15ff81a39ae7d344fd709f28e8600b4aa8c65c6b64bfe7fe36bd19c85015594517f8a35acfbc15ff81a39ae7d344fd709f28e8600b4aa8c65c6b64bfe7fe36bd19d840155517f8a35acfbc15ff81a39ae7d344fd709f28e8600b4aa8c65c6b64bfe7fe36bd19e909201805494516001600160a01b031661010002610100600160a81b0319931515939093166001600160a81b03199095169490941791909117909255906108885760076000815461087f906114db565b9091555061089c565b600860008154610897906114db565b909155505b604080513381524260208201527f4d99b957a2bc29a30ebd96a7be8e68fe50a3c701db28a91436490b7d53870ca4910160405180910390a150505050505050565b6108e5610bf8565b6108ee33610cb1565b6040805160608101825283815260208082018490524282840152600154835163650d993b60e01b8152935192936000936001600160a01b039092169263650d993b926004808401938290030181865afa15801561094f573d6000803e3d6000fd5b505050506040513d601f19601f820116820180604052508101906109739190611492565b6001600160a01b03163303610a8457600280546001808201835560009290925283517f405787fa12a823e0f2b7631cc41b3ba8828b3321ca811111fa75cd3aa3bb5ace6003909202918201556020808501517f405787fa12a823e0f2b7631cc41b3ba8828b3321ca811111fa75cd3aa3bb5acf8301556040808601517f405787fa12a823e0f2b7631cc41b3ba8828b3321ca811111fa75cd3aa3bb5ad0909301929092559154815163650d993b60e01b815291516001600160a01b039091169263650d993b92600480820193918290030181865afa158015610a59573d6000803e3d6000fd5b505050506040513d601f19601f82011682018060405250810190610a7d9190611492565b9050610b82565b600380546001818101835560008390528451919092027fc2575a0e9e593c00f959f8c92f12db2869c3395a3b0502d05e2516446f71f85b8101919091556020808501517fc2575a0e9e593c00f959f8c92f12db2869c3395a3b0502d05e2516446f71f85c8301556040808601517fc2575a0e9e593c00f959f8c92f12db2869c3395a3b0502d05e2516446f71f85d9093019290925591548151636c1032af60e01b815291516001600160a01b0390911692636c1032af92600480820193918290030181865afa158015610b5b573d6000803e3d6000fd5b505050506040513d601f19601f82011682018060405250810190610b7f9190611492565b90505b604080516001600160a01b03831681524260208201527fddd8b0b68b851797d2db498006cb2642afefe53623db382ff4994d443938da83910160405180910390a150505050565b60075460085460019111610bdb575060005b610be481610e00565b610bed81610ff3565b610bf561111b565b50565b60065460ff16158015610c0c575060055442105b61052a5760405162461bcd60e51b815260206004820152600360248201526230783760e81b6044820152606401610251565b600154604080516321df0da760e01b815290516000926001600160a01b0316916321df0da79160048083019260209291908290030181865afa158015610c88573d6000803e3d6000fd5b505050506040513d601f19601f82011682018060405250810190610cac9190611492565b905090565b600160009054906101000a90046001600160a01b03166001600160a01b031663650d993b6040518163ffffffff1660e01b8152600401602060405180830381865afa158015610d04573d6000803e3d6000fd5b505050506040513d601f19601f82011682018060405250810190610d289190611492565b6001600160a01b0316816001600160a01b03161480610dce5750600160009054906101000a90046001600160a01b03166001600160a01b0316636c1032af6040518163ffffffff1660e01b8152600401602060405180830381865afa158015610d95573d6000803e3d6000fd5b505050506040513d601f19601f82011682018060405250810190610db99190611492565b6001600160a01b0316816001600160a01b0316145b610bf55760405162461bcd60e51b815260206004820152600360248201526230783360e81b6044820152606401610251565b60008115610e8657600160009054906101000a90046001600160a01b03166001600160a01b031663650d993b6040518163ffffffff1660e01b8152600401602060405180830381865afa158015610e5b573d6000803e3d6000fd5b505050506040513d601f19601f82011682018060405250810190610e7f9190611492565b9050610f00565b600160009054906101000a90046001600160a01b03166001600160a01b0316636c1032af6040518163ffffffff1660e01b8152600401602060405180830381865afa158015610ed9573d6000803e3d6000fd5b505050506040513d601f19601f82011682018060405250810190610efd9190611492565b90505b60015460408051634c6afee560e11b815290516000926001600160a01b0316916398d5fdca9160048083019260209291908290030181865afa158015610f4a573d6000803e3d6000fd5b505050506040513d601f19601f82011682018060405250810190610f6e91906114f4565b9050610f78610c3e565b60405163a9059cbb60e01b81526001600160a01b03848116600483015260248201849052919091169063a9059cbb906044016020604051808303816000875af1158015610fc9573d6000803e3d6000fd5b505050506040513d601f19601f82011682018060405250810190610fed919061150d565b50505050565b6000610ffe82611220565b905060005b6004548110156111165782151560048281548110611023576110236114af565b600091825260209091206003600490920201015460ff1615150361110657611049610c3e565b6001600160a01b031663a9059cbb6004838154811061106a5761106a6114af565b906000526020600020906004020160030160019054906101000a90046001600160a01b0316846040518363ffffffff1660e01b81526004016110c19291906001600160a01b03929092168252602082015260400190565b6020604051808303816000875af11580156110e0573d6000803e3d6000fd5b505050506040513d601f19601f82011682018060405250810190611104919061150d565b505b61110f816114db565b9050611003565b505050565b6000611125610c3e565b6040516370a0823160e01b81523060048201529091506000906001600160a01b038316906370a0823190602401602060405180830381865afa15801561116f573d6000803e3d6000fd5b505050506040513d601f19601f8201168201806040525081019061119391906114f4565b905080156104ca5760405163a9059cbb60e01b8152731df62f291b2e969fb0849d99d9ce41e2f137006e6004820152602481018290526001600160a01b0383169063a9059cbb906044016020604051808303816000875af11580156111fc573d6000803e3d6000fd5b505050506040513d601f19601f82011682018060405250810190611116919061150d565b600080600160009054906101000a90046001600160a01b03166001600160a01b03166364a406426040518163ffffffff1660e01b8152600401602060405180830381865afa158015611276573d6000803e3d6000fd5b505050506040513d601f19601f8201168201806040525081019061129a91906114f4565b905060008380156112ac575060075415155b156112df576007548260085460016112c4919061152a565b6112ce9190611543565b6112d8919061155a565b905061131d565b831580156112ee575060085415155b1561131d57600854826007546001611306919061152a565b6113109190611543565b61131a919061155a565b90505b611327828261152a565b949350505050565b602080825282518282018190526000919060409081850190868401855b8281101561137b578151805185528681015187860152850151858501526060909301929085019060010161134c565b5091979650505050505050565b602080825282518282018190526000919060409081850190868401855b8281101561137b57815180518552868101518786015285810151868601526060808201511515908601526080908101516001600160a01b03169085015260a090930192908501906001016113a5565b6001600160a01b0381168114610bf557600080fd5b60006020828403121561141b57600080fd5b8135611426816113f4565b9392505050565b8015158114610bf557600080fd5b60008060006060848603121561145057600080fd5b833561145b8161142d565b95602085013595506040909401359392505050565b6000806040838503121561148357600080fd5b50508035926020909101359150565b6000602082840312156114a457600080fd5b8151611426816113f4565b634e487b7160e01b600052603260045260246000fd5b634e487b7160e01b600052601160045260246000fd5b6000600182016114ed576114ed6114c5565b5060010190565b60006020828403121561150657600080fd5b5051919050565b60006020828403121561151f57600080fd5b81516114268161142d565b8082018082111561153d5761153d6114c5565b92915050565b808202811582820484141761153d5761153d6114c5565b60008261157757634e487b7160e01b600052601260045260246000fd5b50049056fea26469706673582212209391d85cd88e1c1b3afceb027b0a5560b5bf32522e7ad00b05c973d422f5c97964736f6c63430008120033",
					"opcodes": "PUSH1 0x80 PUSH1 0x40 MSTORE PUSH1 0x6 DUP1 SLOAD PUSH1 0xFF NOT AND SWAP1 SSTORE PUSH1 0x0 PUSH1 0x7 DUP2 SWAP1 SSTORE PUSH1 0x8 SSTORE CALLVALUE DUP1 ISZERO PUSH2 0x24 JUMPI PUSH1 0x0 DUP1 REVERT JUMPDEST POP PUSH1 0x40 MLOAD PUSH3 0x16E1 CODESIZE SUB DUP1 PUSH3 0x16E1 DUP4 CODECOPY DUP2 ADD PUSH1 0x40 DUP2 SWAP1 MSTORE PUSH2 0x45 SWAP2 PUSH2 0xBE JUMP JUMPDEST PUSH1 0x3B DUP2 LT ISZERO PUSH2 0x80 JUMPI PUSH1 0x40 MLOAD PUSH3 0x461BCD PUSH1 0xE5 SHL DUP2 MSTORE PUSH1 0x20 PUSH1 0x4 DUP3 ADD MSTORE PUSH1 0x3 PUSH1 0x24 DUP3 ADD MSTORE PUSH3 0x307831 PUSH1 0xE8 SHL PUSH1 0x44 DUP3 ADD MSTORE PUSH1 0x64 ADD PUSH1 0x40 MLOAD DUP1 SWAP2 SUB SWAP1 REVERT JUMPDEST PUSH1 0x0 DUP1 SLOAD CALLER PUSH1 0x1 PUSH1 0x1 PUSH1 0xA0 SHL SUB NOT SWAP2 DUP3 AND OR SWAP1 SWAP2 SSTORE PUSH1 0x1 DUP1 SLOAD SWAP1 SWAP2 AND PUSH1 0x1 PUSH1 0x1 PUSH1 0xA0 SHL SUB DUP5 AND OR SWAP1 SSTORE PUSH2 0xB3 DUP2 TIMESTAMP PUSH2 0xF8 JUMP JUMPDEST PUSH1 0x5 SSTORE POP PUSH2 0x11F SWAP1 POP JUMP JUMPDEST PUSH1 0x0 DUP1 PUSH1 0x40 DUP4 DUP6 SUB SLT ISZERO PUSH2 0xD1 JUMPI PUSH1 0x0 DUP1 REVERT JUMPDEST DUP3 MLOAD PUSH1 0x1 PUSH1 0x1 PUSH1 0xA0 SHL SUB DUP2 AND DUP2 EQ PUSH2 0xE8 JUMPI PUSH1 0x0 DUP1 REVERT JUMPDEST PUSH1 0x20 SWAP4 SWAP1 SWAP4 ADD MLOAD SWAP3 SWAP5 SWAP3 SWAP4 POP POP POP JUMP JUMPDEST DUP1 DUP3 ADD DUP1 DUP3 GT ISZERO PUSH2 0x119 JUMPI PUSH4 0x4E487B71 PUSH1 0xE0 SHL PUSH1 0x0 MSTORE PUSH1 0x11 PUSH1 0x4 MSTORE PUSH1 0x24 PUSH1 0x0 REVERT JUMPDEST SWAP3 SWAP2 POP POP JUMP JUMPDEST PUSH2 0x15B2 DUP1 PUSH3 0x12F PUSH1 0x0 CODECOPY PUSH1 0x0 RETURN INVALID PUSH1 0x80 PUSH1 0x40 MSTORE CALLVALUE DUP1 ISZERO PUSH2 0x10 JUMPI PUSH1 0x0 DUP1 REVERT JUMPDEST POP PUSH1 0x4 CALLDATASIZE LT PUSH2 0xB4 JUMPI PUSH1 0x0 CALLDATALOAD PUSH1 0xE0 SHR DUP1 PUSH4 0xC2B6B58C GT PUSH2 0x71 JUMPI DUP1 PUSH4 0xC2B6B58C EQ PUSH2 0x140 JUMPI DUP1 PUSH4 0xD48FE222 EQ PUSH2 0x156 JUMPI DUP1 PUSH4 0xD9416762 EQ PUSH2 0x15E JUMPI DUP1 PUSH4 0xE556DCB2 EQ PUSH2 0x171 JUMPI DUP1 PUSH4 0xE90F4E7C EQ PUSH2 0x179 JUMPI DUP1 PUSH4 0xEC1ABD7F EQ PUSH2 0x18C JUMPI PUSH1 0x0 DUP1 REVERT JUMPDEST DUP1 PUSH4 0x79402C1 EQ PUSH2 0xB9 JUMPI DUP1 PUSH4 0x9F82A8A EQ PUSH2 0xD7 JUMPI DUP1 PUSH4 0xDC96015 EQ PUSH2 0xFC JUMPI DUP1 PUSH4 0x1D20A341 EQ PUSH2 0x111 JUMPI DUP1 PUSH4 0x43D726D6 EQ PUSH2 0x126 JUMPI DUP1 PUSH4 0x8B5A8DB2 EQ PUSH2 0x12E JUMPI JUMPDEST PUSH1 0x0 DUP1 REVERT JUMPDEST PUSH2 0xC1 PUSH2 0x19D JUMP JUMPDEST PUSH1 0x40 MLOAD PUSH2 0xCE SWAP2 SWAP1 PUSH2 0x132F JUMP JUMPDEST PUSH1 0x40 MLOAD DUP1 SWAP2 SUB SWAP1 RETURN JUMPDEST PUSH1 0x1 SLOAD PUSH1 0x1 PUSH1 0x1 PUSH1 0xA0 SHL SUB AND JUMPDEST PUSH1 0x40 MLOAD PUSH1 0x1 PUSH1 0x1 PUSH1 0xA0 SHL SUB SWAP1 SWAP2 AND DUP2 MSTORE PUSH1 0x20 ADD PUSH2 0xCE JUMP JUMPDEST PUSH2 0x104 PUSH2 0x21A JUMP JUMPDEST PUSH1 0x40 MLOAD PUSH2 0xCE SWAP2 SWAP1 PUSH2 0x1388 JUMP JUMPDEST PUSH2 0x124 PUSH2 0x11F CALLDATASIZE PUSH1 0x4 PUSH2 0x1409 JUMP JUMPDEST PUSH2 0x2E9 JUMP JUMPDEST STOP JUMPDEST PUSH2 0x124 PUSH2 0x4CE JUMP JUMPDEST PUSH1 0x4 SLOAD JUMPDEST PUSH1 0x40 MLOAD SWAP1 DUP2 MSTORE PUSH1 0x20 ADD PUSH2 0xCE JUMP JUMPDEST PUSH1 0x6 SLOAD PUSH1 0xFF AND PUSH1 0x40 MLOAD SWAP1 ISZERO ISZERO DUP2 MSTORE PUSH1 0x20 ADD PUSH2 0xCE JUMP JUMPDEST PUSH2 0xC1 PUSH2 0x52C JUMP JUMPDEST PUSH2 0x124 PUSH2 0x16C CALLDATASIZE PUSH1 0x4 PUSH2 0x143B JUMP JUMPDEST PUSH2 0x59F JUMP JUMPDEST PUSH1 0x5 SLOAD PUSH2 0x132 JUMP JUMPDEST PUSH2 0x124 PUSH2 0x187 CALLDATASIZE PUSH1 0x4 PUSH2 0x1470 JUMP JUMPDEST PUSH2 0x8DD JUMP JUMPDEST PUSH1 0x0 SLOAD PUSH1 0x1 PUSH1 0x1 PUSH1 0xA0 SHL SUB AND PUSH2 0xE4 JUMP JUMPDEST PUSH1 0x60 PUSH1 0x3 DUP1 SLOAD DUP1 PUSH1 0x20 MUL PUSH1 0x20 ADD PUSH1 0x40 MLOAD SWAP1 DUP2 ADD PUSH1 0x40 MSTORE DUP1 SWAP3 SWAP2 SWAP1 DUP2 DUP2 MSTORE PUSH1 0x20 ADD PUSH1 0x0 SWAP1 JUMPDEST DUP3 DUP3 LT ISZERO PUSH2 0x211 JUMPI DUP4 DUP3 SWAP1 PUSH1 0x0 MSTORE PUSH1 0x20 PUSH1 0x0 KECCAK256 SWAP1 PUSH1 0x3 MUL ADD PUSH1 0x40 MLOAD DUP1 PUSH1 0x60 ADD PUSH1 0x40 MSTORE SWAP1 DUP2 PUSH1 0x0 DUP3 ADD SLOAD DUP2 MSTORE PUSH1 0x20 ADD PUSH1 0x1 DUP3 ADD SLOAD DUP2 MSTORE PUSH1 0x20 ADD PUSH1 0x2 DUP3 ADD SLOAD DUP2 MSTORE POP POP DUP2 MSTORE PUSH1 0x20 ADD SWAP1 PUSH1 0x1 ADD SWAP1 PUSH2 0x1C1 JUMP JUMPDEST POP POP POP POP SWAP1 POP SWAP1 JUMP JUMPDEST PUSH1 0x6 SLOAD PUSH1 0x60 SWAP1 PUSH1 0xFF AND PUSH2 0x25A JUMPI PUSH1 0x40 MLOAD PUSH3 0x461BCD PUSH1 0xE5 SHL DUP2 MSTORE PUSH1 0x20 PUSH1 0x4 DUP3 ADD MSTORE PUSH1 0x3 PUSH1 0x24 DUP3 ADD MSTORE PUSH3 0x183C19 PUSH1 0xE9 SHL PUSH1 0x44 DUP3 ADD MSTORE PUSH1 0x64 ADD JUMPDEST PUSH1 0x40 MLOAD DUP1 SWAP2 SUB SWAP1 REVERT JUMPDEST PUSH1 0x4 DUP1 SLOAD DUP1 PUSH1 0x20 MUL PUSH1 0x20 ADD PUSH1 0x40 MLOAD SWAP1 DUP2 ADD PUSH1 0x40 MSTORE DUP1 SWAP3 SWAP2 SWAP1 DUP2 DUP2 MSTORE PUSH1 0x20 ADD PUSH1 0x0 SWAP1 JUMPDEST DUP3 DUP3 LT ISZERO PUSH2 0x211 JUMPI PUSH1 0x0 DUP5 DUP2 MSTORE PUSH1 0x20 SWAP1 DUP2 SWAP1 KECCAK256 PUSH1 0x40 DUP1 MLOAD PUSH1 0xA0 DUP2 ADD DUP3 MSTORE PUSH1 0x4 DUP7 MUL SWAP1 SWAP3 ADD DUP1 SLOAD DUP4 MSTORE PUSH1 0x1 DUP1 DUP3 ADD SLOAD DUP5 DUP7 ADD MSTORE PUSH1 0x2 DUP3 ADD SLOAD SWAP3 DUP5 ADD SWAP3 SWAP1 SWAP3 MSTORE PUSH1 0x3 ADD SLOAD PUSH1 0xFF DUP2 AND ISZERO ISZERO PUSH1 0x60 DUP5 ADD MSTORE PUSH2 0x100 SWAP1 DIV PUSH1 0x1 PUSH1 0x1 PUSH1 0xA0 SHL SUB AND PUSH1 0x80 DUP4 ADD MSTORE SWAP1 DUP4 MSTORE SWAP1 SWAP3 ADD SWAP2 ADD PUSH2 0x27C JUMP JUMPDEST PUSH1 0x1 PUSH1 0x0 SWAP1 SLOAD SWAP1 PUSH2 0x100 EXP SWAP1 DIV PUSH1 0x1 PUSH1 0x1 PUSH1 0xA0 SHL SUB AND PUSH1 0x1 PUSH1 0x1 PUSH1 0xA0 SHL SUB AND PUSH4 0x650D993B PUSH1 0x40 MLOAD DUP2 PUSH4 0xFFFFFFFF AND PUSH1 0xE0 SHL DUP2 MSTORE PUSH1 0x4 ADD PUSH1 0x20 PUSH1 0x40 MLOAD DUP1 DUP4 SUB DUP2 DUP7 GAS STATICCALL ISZERO DUP1 ISZERO PUSH2 0x33C JUMPI RETURNDATASIZE PUSH1 0x0 DUP1 RETURNDATACOPY RETURNDATASIZE PUSH1 0x0 REVERT JUMPDEST POP POP POP POP PUSH1 0x40 MLOAD RETURNDATASIZE PUSH1 0x1F NOT PUSH1 0x1F DUP3 ADD AND DUP3 ADD DUP1 PUSH1 0x40 MSTORE POP DUP2 ADD SWAP1 PUSH2 0x360 SWAP2 SWAP1 PUSH2 0x1492 JUMP JUMPDEST PUSH1 0x1 PUSH1 0x1 PUSH1 0xA0 SHL SUB AND DUP2 PUSH1 0x1 PUSH1 0x1 PUSH1 0xA0 SHL SUB AND EQ ISZERO DUP1 ISZERO PUSH2 0x409 JUMPI POP PUSH1 0x1 PUSH1 0x0 SWAP1 SLOAD SWAP1 PUSH2 0x100 EXP SWAP1 DIV PUSH1 0x1 PUSH1 0x1 PUSH1 0xA0 SHL SUB AND PUSH1 0x1 PUSH1 0x1 PUSH1 0xA0 SHL SUB AND PUSH4 0x6C1032AF PUSH1 0x40 MLOAD DUP2 PUSH4 0xFFFFFFFF AND PUSH1 0xE0 SHL DUP2 MSTORE PUSH1 0x4 ADD PUSH1 0x20 PUSH1 0x40 MLOAD DUP1 DUP4 SUB DUP2 DUP7 GAS STATICCALL ISZERO DUP1 ISZERO PUSH2 0x3CF JUMPI RETURNDATASIZE PUSH1 0x0 DUP1 RETURNDATACOPY RETURNDATASIZE PUSH1 0x0 REVERT JUMPDEST POP POP POP POP PUSH1 0x40 MLOAD RETURNDATASIZE PUSH1 0x1F NOT PUSH1 0x1F DUP3 ADD AND DUP3 ADD DUP1 PUSH1 0x40 MSTORE POP DUP2 ADD SWAP1 PUSH2 0x3F3 SWAP2 SWAP1 PUSH2 0x1492 JUMP JUMPDEST PUSH1 0x1 PUSH1 0x1 PUSH1 0xA0 SHL SUB AND DUP2 PUSH1 0x1 PUSH1 0x1 PUSH1 0xA0 SHL SUB AND EQ ISZERO JUMPDEST PUSH2 0x43B JUMPI PUSH1 0x40 MLOAD PUSH3 0x461BCD PUSH1 0xE5 SHL DUP2 MSTORE PUSH1 0x20 PUSH1 0x4 DUP3 ADD MSTORE PUSH1 0x3 PUSH1 0x24 DUP3 ADD MSTORE PUSH3 0x307835 PUSH1 0xE8 SHL PUSH1 0x44 DUP3 ADD MSTORE PUSH1 0x64 ADD PUSH2 0x251 JUMP JUMPDEST PUSH1 0x0 JUMPDEST PUSH1 0x4 SLOAD DUP2 LT ISZERO PUSH2 0x4CA JUMPI DUP2 PUSH1 0x1 PUSH1 0x1 PUSH1 0xA0 SHL SUB AND PUSH1 0x4 DUP3 DUP2 SLOAD DUP2 LT PUSH2 0x465 JUMPI PUSH2 0x465 PUSH2 0x14AF JUMP JUMPDEST PUSH1 0x0 SWAP2 DUP3 MSTORE PUSH1 0x20 SWAP1 SWAP2 KECCAK256 PUSH1 0x4 SWAP1 SWAP2 MUL ADD PUSH1 0x3 ADD SLOAD PUSH2 0x100 SWAP1 DIV PUSH1 0x1 PUSH1 0x1 PUSH1 0xA0 SHL SUB AND SUB PUSH2 0x4BA JUMPI PUSH1 0x40 MLOAD PUSH3 0x461BCD PUSH1 0xE5 SHL DUP2 MSTORE PUSH1 0x20 PUSH1 0x4 DUP3 ADD MSTORE PUSH1 0x3 PUSH1 0x24 DUP3 ADD MSTORE PUSH3 0x183C1B PUSH1 0xE9 SHL PUSH1 0x44 DUP3 ADD MSTORE PUSH1 0x64 ADD PUSH2 0x251 JUMP JUMPDEST PUSH2 0x4C3 DUP2 PUSH2 0x14DB JUMP JUMPDEST SWAP1 POP PUSH2 0x43E JUMP JUMPDEST POP POP JUMP JUMPDEST PUSH1 0x6 SLOAD PUSH1 0xFF AND ISZERO DUP1 ISZERO PUSH2 0x4E3 JUMPI POP PUSH1 0x5 SLOAD TIMESTAMP LT ISZERO JUMPDEST PUSH2 0x515 JUMPI PUSH1 0x40 MLOAD PUSH3 0x461BCD PUSH1 0xE5 SHL DUP2 MSTORE PUSH1 0x20 PUSH1 0x4 DUP3 ADD MSTORE PUSH1 0x3 PUSH1 0x24 DUP3 ADD MSTORE PUSH3 0x60F07 PUSH1 0xEB SHL PUSH1 0x44 DUP3 ADD MSTORE PUSH1 0x64 ADD PUSH2 0x251 JUMP JUMPDEST PUSH1 0x6 DUP1 SLOAD PUSH1 0xFF NOT AND PUSH1 0x1 OR SWAP1 SSTORE PUSH2 0x52A PUSH2 0xBC9 JUMP JUMPDEST JUMP JUMPDEST PUSH1 0x60 PUSH1 0x2 DUP1 SLOAD DUP1 PUSH1 0x20 MUL PUSH1 0x20 ADD PUSH1 0x40 MLOAD SWAP1 DUP2 ADD PUSH1 0x40 MSTORE DUP1 SWAP3 SWAP2 SWAP1 DUP2 DUP2 MSTORE PUSH1 0x20 ADD PUSH1 0x0 SWAP1 DUP3 DUP3 LT ISZERO PUSH2 0x211 JUMPI DUP4 DUP3 SWAP1 PUSH1 0x0 MSTORE PUSH1 0x20 PUSH1 0x0 KECCAK256 SWAP1 PUSH1 0x3 MUL ADD PUSH1 0x40 MLOAD DUP1 PUSH1 0x60 ADD PUSH1 0x40 MSTORE SWAP1 DUP2 PUSH1 0x0 DUP3 ADD SLOAD DUP2 MSTORE PUSH1 0x20 ADD PUSH1 0x1 DUP3 ADD SLOAD DUP2 MSTORE PUSH1 0x20 ADD PUSH1 0x2 DUP3 ADD SLOAD DUP2 MSTORE POP POP DUP2 MSTORE PUSH1 0x20 ADD SWAP1 PUSH1 0x1 ADD SWAP1 PUSH2 0x1C1 JUMP JUMPDEST PUSH2 0x5A7 PUSH2 0xBF8 JUMP JUMPDEST PUSH2 0x5B0 CALLER PUSH2 0x2E9 JUMP JUMPDEST PUSH1 0x0 PUSH2 0x5BA PUSH2 0xC3E JUMP JUMPDEST SWAP1 POP PUSH1 0x0 PUSH1 0x1 PUSH1 0x0 SWAP1 SLOAD SWAP1 PUSH2 0x100 EXP SWAP1 DIV PUSH1 0x1 PUSH1 0x1 PUSH1 0xA0 SHL SUB AND PUSH1 0x1 PUSH1 0x1 PUSH1 0xA0 SHL SUB AND PUSH4 0x64A40642 PUSH1 0x40 MLOAD DUP2 PUSH4 0xFFFFFFFF AND PUSH1 0xE0 SHL DUP2 MSTORE PUSH1 0x4 ADD PUSH1 0x20 PUSH1 0x40 MLOAD DUP1 DUP4 SUB DUP2 DUP7 GAS STATICCALL ISZERO DUP1 ISZERO PUSH2 0x611 JUMPI RETURNDATASIZE PUSH1 0x0 DUP1 RETURNDATACOPY RETURNDATASIZE PUSH1 0x0 REVERT JUMPDEST POP POP POP POP PUSH1 0x40 MLOAD RETURNDATASIZE PUSH1 0x1F NOT PUSH1 0x1F DUP3 ADD AND DUP3 ADD DUP1 PUSH1 0x40 MSTORE POP DUP2 ADD SWAP1 PUSH2 0x635 SWAP2 SWAP1 PUSH2 0x14F4 JUMP JUMPDEST PUSH1 0x40 MLOAD PUSH4 0x6EB1769F PUSH1 0xE1 SHL DUP2 MSTORE CALLER PUSH1 0x4 DUP3 ADD MSTORE ADDRESS PUSH1 0x24 DUP3 ADD MSTORE SWAP1 SWAP2 POP PUSH1 0x0 SWAP1 PUSH1 0x1 PUSH1 0x1 PUSH1 0xA0 SHL SUB DUP5 AND SWAP1 PUSH4 0xDD62ED3E SWAP1 PUSH1 0x44 ADD PUSH1 0x20 PUSH1 0x40 MLOAD DUP1 DUP4 SUB DUP2 DUP7 GAS STATICCALL ISZERO DUP1 ISZERO PUSH2 0x685 JUMPI RETURNDATASIZE PUSH1 0x0 DUP1 RETURNDATACOPY RETURNDATASIZE PUSH1 0x0 REVERT JUMPDEST POP POP POP POP PUSH1 0x40 MLOAD RETURNDATASIZE PUSH1 0x1F NOT PUSH1 0x1F DUP3 ADD AND DUP3 ADD DUP1 PUSH1 0x40 MSTORE POP DUP2 ADD SWAP1 PUSH2 0x6A9 SWAP2 SWAP1 PUSH2 0x14F4 JUMP JUMPDEST SWAP1 POP DUP2 DUP2 LT ISZERO PUSH2 0x6E1 JUMPI PUSH1 0x40 MLOAD PUSH3 0x461BCD PUSH1 0xE5 SHL DUP2 MSTORE PUSH1 0x20 PUSH1 0x4 DUP3 ADD MSTORE PUSH1 0x3 PUSH1 0x24 DUP3 ADD MSTORE PUSH3 0xC1E0D PUSH1 0xEA SHL PUSH1 0x44 DUP3 ADD MSTORE PUSH1 0x64 ADD PUSH2 0x251 JUMP JUMPDEST PUSH1 0x40 MLOAD PUSH4 0x23B872DD PUSH1 0xE0 SHL DUP2 MSTORE CALLER PUSH1 0x4 DUP3 ADD MSTORE ADDRESS PUSH1 0x24 DUP3 ADD MSTORE PUSH1 0x44 DUP2 ADD DUP4 SWAP1 MSTORE PUSH1 0x1 PUSH1 0x1 PUSH1 0xA0 SHL SUB DUP5 AND SWAP1 PUSH4 0x23B872DD SWAP1 PUSH1 0x64 ADD PUSH1 0x20 PUSH1 0x40 MLOAD DUP1 DUP4 SUB DUP2 PUSH1 0x0 DUP8 GAS CALL ISZERO DUP1 ISZERO PUSH2 0x734 JUMPI RETURNDATASIZE PUSH1 0x0 DUP1 RETURNDATACOPY RETURNDATASIZE PUSH1 0x0 REVERT JUMPDEST POP POP POP POP PUSH1 0x40 MLOAD RETURNDATASIZE PUSH1 0x1F NOT PUSH1 0x1F DUP3 ADD AND DUP3 ADD DUP1 PUSH1 0x40 MSTORE POP DUP2 ADD SWAP1 PUSH2 0x758 SWAP2 SWAP1 PUSH2 0x150D JUMP JUMPDEST POP PUSH1 0x40 DUP1 MLOAD PUSH1 0xA0 DUP2 ADD DUP3 MSTORE DUP7 DUP2 MSTORE PUSH1 0x20 DUP2 ADD DUP7 DUP2 MSTORE TIMESTAMP SWAP3 DUP3 ADD SWAP3 DUP4 MSTORE DUP9 ISZERO DUP1 ISZERO PUSH1 0x60 DUP5 ADD SWAP1 DUP2 MSTORE CALLER PUSH1 0x80 DUP6 ADD SWAP1 DUP2 MSTORE PUSH1 0x4 DUP1 SLOAD PUSH1 0x1 DUP2 ADD DUP3 SSTORE PUSH1 0x0 DUP3 SWAP1 MSTORE DUP7 MLOAD SWAP2 MUL PUSH32 0x8A35ACFBC15FF81A39AE7D344FD709F28E8600B4AA8C65C6B64BFE7FE36BD19B DUP2 ADD SWAP2 SWAP1 SWAP2 SSTORE SWAP4 MLOAD PUSH32 0x8A35ACFBC15FF81A39AE7D344FD709F28E8600B4AA8C65C6B64BFE7FE36BD19C DUP6 ADD SSTORE SWAP5 MLOAD PUSH32 0x8A35ACFBC15FF81A39AE7D344FD709F28E8600B4AA8C65C6B64BFE7FE36BD19D DUP5 ADD SSTORE MLOAD PUSH32 0x8A35ACFBC15FF81A39AE7D344FD709F28E8600B4AA8C65C6B64BFE7FE36BD19E SWAP1 SWAP3 ADD DUP1 SLOAD SWAP5 MLOAD PUSH1 0x1 PUSH1 0x1 PUSH1 0xA0 SHL SUB AND PUSH2 0x100 MUL PUSH2 0x100 PUSH1 0x1 PUSH1 0xA8 SHL SUB NOT SWAP4 ISZERO ISZERO SWAP4 SWAP1 SWAP4 AND PUSH1 0x1 PUSH1 0x1 PUSH1 0xA8 SHL SUB NOT SWAP1 SWAP6 AND SWAP5 SWAP1 SWAP5 OR SWAP2 SWAP1 SWAP2 OR SWAP1 SWAP3 SSTORE SWAP1 PUSH2 0x888 JUMPI PUSH1 0x7 PUSH1 0x0 DUP2 SLOAD PUSH2 0x87F SWAP1 PUSH2 0x14DB JUMP JUMPDEST SWAP1 SWAP2 SSTORE POP PUSH2 0x89C JUMP JUMPDEST PUSH1 0x8 PUSH1 0x0 DUP2 SLOAD PUSH2 0x897 SWAP1 PUSH2 0x14DB JUMP JUMPDEST SWAP1 SWAP2 SSTORE POP JUMPDEST PUSH1 0x40 DUP1 MLOAD CALLER DUP2 MSTORE TIMESTAMP PUSH1 0x20 DUP3 ADD MSTORE PUSH32 0x4D99B957A2BC29A30EBD96A7BE8E68FE50A3C701DB28A91436490B7D53870CA4 SWAP2 ADD PUSH1 0x40 MLOAD DUP1 SWAP2 SUB SWAP1 LOG1 POP POP POP POP POP POP POP JUMP JUMPDEST PUSH2 0x8E5 PUSH2 0xBF8 JUMP JUMPDEST PUSH2 0x8EE CALLER PUSH2 0xCB1 JUMP JUMPDEST PUSH1 0x40 DUP1 MLOAD PUSH1 0x60 DUP2 ADD DUP3 MSTORE DUP4 DUP2 MSTORE PUSH1 0x20 DUP1 DUP3 ADD DUP5 SWAP1 MSTORE TIMESTAMP DUP3 DUP5 ADD MSTORE PUSH1 0x1 SLOAD DUP4 MLOAD PUSH4 0x650D993B PUSH1 0xE0 SHL DUP2 MSTORE SWAP4 MLOAD SWAP3 SWAP4 PUSH1 0x0 SWAP4 PUSH1 0x1 PUSH1 0x1 PUSH1 0xA0 SHL SUB SWAP1 SWAP3 AND SWAP3 PUSH4 0x650D993B SWAP3 PUSH1 0x4 DUP1 DUP5 ADD SWAP4 DUP3 SWAP1 SUB ADD DUP2 DUP7 GAS STATICCALL ISZERO DUP1 ISZERO PUSH2 0x94F JUMPI RETURNDATASIZE PUSH1 0x0 DUP1 RETURNDATACOPY RETURNDATASIZE PUSH1 0x0 REVERT JUMPDEST POP POP POP POP PUSH1 0x40 MLOAD RETURNDATASIZE PUSH1 0x1F NOT PUSH1 0x1F DUP3 ADD AND DUP3 ADD DUP1 PUSH1 0x40 MSTORE POP DUP2 ADD SWAP1 PUSH2 0x973 SWAP2 SWAP1 PUSH2 0x1492 JUMP JUMPDEST PUSH1 0x1 PUSH1 0x1 PUSH1 0xA0 SHL SUB AND CALLER SUB PUSH2 0xA84 JUMPI PUSH1 0x2 DUP1 SLOAD PUSH1 0x1 DUP1 DUP3 ADD DUP4 SSTORE PUSH1 0x0 SWAP3 SWAP1 SWAP3 MSTORE DUP4 MLOAD PUSH32 0x405787FA12A823E0F2B7631CC41B3BA8828B3321CA811111FA75CD3AA3BB5ACE PUSH1 0x3 SWAP1 SWAP3 MUL SWAP2 DUP3 ADD SSTORE PUSH1 0x20 DUP1 DUP6 ADD MLOAD PUSH32 0x405787FA12A823E0F2B7631CC41B3BA8828B3321CA811111FA75CD3AA3BB5ACF DUP4 ADD SSTORE PUSH1 0x40 DUP1 DUP7 ADD MLOAD PUSH32 0x405787FA12A823E0F2B7631CC41B3BA8828B3321CA811111FA75CD3AA3BB5AD0 SWAP1 SWAP4 ADD SWAP3 SWAP1 SWAP3 SSTORE SWAP2 SLOAD DUP2 MLOAD PUSH4 0x650D993B PUSH1 0xE0 SHL DUP2 MSTORE SWAP2 MLOAD PUSH1 0x1 PUSH1 0x1 PUSH1 0xA0 SHL SUB SWAP1 SWAP2 AND SWAP3 PUSH4 0x650D993B SWAP3 PUSH1 0x4 DUP1 DUP3 ADD SWAP4 SWAP2 DUP3 SWAP1 SUB ADD DUP2 DUP7 GAS STATICCALL ISZERO DUP1 ISZERO PUSH2 0xA59 JUMPI RETURNDATASIZE PUSH1 0x0 DUP1 RETURNDATACOPY RETURNDATASIZE PUSH1 0x0 REVERT JUMPDEST POP POP POP POP PUSH1 0x40 MLOAD RETURNDATASIZE PUSH1 0x1F NOT PUSH1 0x1F DUP3 ADD AND DUP3 ADD DUP1 PUSH1 0x40 MSTORE POP DUP2 ADD SWAP1 PUSH2 0xA7D SWAP2 SWAP1 PUSH2 0x1492 JUMP JUMPDEST SWAP1 POP PUSH2 0xB82 JUMP JUMPDEST PUSH1 0x3 DUP1 SLOAD PUSH1 0x1 DUP2 DUP2 ADD DUP4 SSTORE PUSH1 0x0 DUP4 SWAP1 MSTORE DUP5 MLOAD SWAP2 SWAP1 SWAP3 MUL PUSH32 0xC2575A0E9E593C00F959F8C92F12DB2869C3395A3B0502D05E2516446F71F85B DUP2 ADD SWAP2 SWAP1 SWAP2 SSTORE PUSH1 0x20 DUP1 DUP6 ADD MLOAD PUSH32 0xC2575A0E9E593C00F959F8C92F12DB2869C3395A3B0502D05E2516446F71F85C DUP4 ADD SSTORE PUSH1 0x40 DUP1 DUP7 ADD MLOAD PUSH32 0xC2575A0E9E593C00F959F8C92F12DB2869C3395A3B0502D05E2516446F71F85D SWAP1 SWAP4 ADD SWAP3 SWAP1 SWAP3 SSTORE SWAP2 SLOAD DUP2 MLOAD PUSH4 0x6C1032AF PUSH1 0xE0 SHL DUP2 MSTORE SWAP2 MLOAD PUSH1 0x1 PUSH1 0x1 PUSH1 0xA0 SHL SUB SWAP1 SWAP2 AND SWAP3 PUSH4 0x6C1032AF SWAP3 PUSH1 0x4 DUP1 DUP3 ADD SWAP4 SWAP2 DUP3 SWAP1 SUB ADD DUP2 DUP7 GAS STATICCALL ISZERO DUP1 ISZERO PUSH2 0xB5B JUMPI RETURNDATASIZE PUSH1 0x0 DUP1 RETURNDATACOPY RETURNDATASIZE PUSH1 0x0 REVERT JUMPDEST POP POP POP POP PUSH1 0x40 MLOAD RETURNDATASIZE PUSH1 0x1F NOT PUSH1 0x1F DUP3 ADD AND DUP3 ADD DUP1 PUSH1 0x40 MSTORE POP DUP2 ADD SWAP1 PUSH2 0xB7F SWAP2 SWAP1 PUSH2 0x1492 JUMP JUMPDEST SWAP1 POP JUMPDEST PUSH1 0x40 DUP1 MLOAD PUSH1 0x1 PUSH1 0x1 PUSH1 0xA0 SHL SUB DUP4 AND DUP2 MSTORE TIMESTAMP PUSH1 0x20 DUP3 ADD MSTORE PUSH32 0xDDD8B0B68B851797D2DB498006CB2642AFEFE53623DB382FF4994D443938DA83 SWAP2 ADD PUSH1 0x40 MLOAD DUP1 SWAP2 SUB SWAP1 LOG1 POP POP POP POP JUMP JUMPDEST PUSH1 0x7 SLOAD PUSH1 0x8 SLOAD PUSH1 0x1 SWAP2 GT PUSH2 0xBDB JUMPI POP PUSH1 0x0 JUMPDEST PUSH2 0xBE4 DUP2 PUSH2 0xE00 JUMP JUMPDEST PUSH2 0xBED DUP2 PUSH2 0xFF3 JUMP JUMPDEST PUSH2 0xBF5 PUSH2 0x111B JUMP JUMPDEST POP JUMP JUMPDEST PUSH1 0x6 SLOAD PUSH1 0xFF AND ISZERO DUP1 ISZERO PUSH2 0xC0C JUMPI POP PUSH1 0x5 SLOAD TIMESTAMP LT JUMPDEST PUSH2 0x52A JUMPI PUSH1 0x40 MLOAD PUSH3 0x461BCD PUSH1 0xE5 SHL DUP2 MSTORE PUSH1 0x20 PUSH1 0x4 DUP3 ADD MSTORE PUSH1 0x3 PUSH1 0x24 DUP3 ADD MSTORE PUSH3 0x307837 PUSH1 0xE8 SHL PUSH1 0x44 DUP3 ADD MSTORE PUSH1 0x64 ADD PUSH2 0x251 JUMP JUMPDEST PUSH1 0x1 SLOAD PUSH1 0x40 DUP1 MLOAD PUSH4 0x21DF0DA7 PUSH1 0xE0 SHL DUP2 MSTORE SWAP1 MLOAD PUSH1 0x0 SWAP3 PUSH1 0x1 PUSH1 0x1 PUSH1 0xA0 SHL SUB AND SWAP2 PUSH4 0x21DF0DA7 SWAP2 PUSH1 0x4 DUP1 DUP4 ADD SWAP3 PUSH1 0x20 SWAP3 SWAP2 SWAP1 DUP3 SWAP1 SUB ADD DUP2 DUP7 GAS STATICCALL ISZERO DUP1 ISZERO PUSH2 0xC88 JUMPI RETURNDATASIZE PUSH1 0x0 DUP1 RETURNDATACOPY RETURNDATASIZE PUSH1 0x0 REVERT JUMPDEST POP POP POP POP PUSH1 0x40 MLOAD RETURNDATASIZE PUSH1 0x1F NOT PUSH1 0x1F DUP3 ADD AND DUP3 ADD DUP1 PUSH1 0x40 MSTORE POP DUP2 ADD SWAP1 PUSH2 0xCAC SWAP2 SWAP1 PUSH2 0x1492 JUMP JUMPDEST SWAP1 POP SWAP1 JUMP JUMPDEST PUSH1 0x1 PUSH1 0x0 SWAP1 SLOAD SWAP1 PUSH2 0x100 EXP SWAP1 DIV PUSH1 0x1 PUSH1 0x1 PUSH1 0xA0 SHL SUB AND PUSH1 0x1 PUSH1 0x1 PUSH1 0xA0 SHL SUB AND PUSH4 0x650D993B PUSH1 0x40 MLOAD DUP2 PUSH4 0xFFFFFFFF AND PUSH1 0xE0 SHL DUP2 MSTORE PUSH1 0x4 ADD PUSH1 0x20 PUSH1 0x40 MLOAD DUP1 DUP4 SUB DUP2 DUP7 GAS STATICCALL ISZERO DUP1 ISZERO PUSH2 0xD04 JUMPI RETURNDATASIZE PUSH1 0x0 DUP1 RETURNDATACOPY RETURNDATASIZE PUSH1 0x0 REVERT JUMPDEST POP POP POP POP PUSH1 0x40 MLOAD RETURNDATASIZE PUSH1 0x1F NOT PUSH1 0x1F DUP3 ADD AND DUP3 ADD DUP1 PUSH1 0x40 MSTORE POP DUP2 ADD SWAP1 PUSH2 0xD28 SWAP2 SWAP1 PUSH2 0x1492 JUMP JUMPDEST PUSH1 0x1 PUSH1 0x1 PUSH1 0xA0 SHL SUB AND DUP2 PUSH1 0x1 PUSH1 0x1 PUSH1 0xA0 SHL SUB AND EQ DUP1 PUSH2 0xDCE JUMPI POP PUSH1 0x1 PUSH1 0x0 SWAP1 SLOAD SWAP1 PUSH2 0x100 EXP SWAP1 DIV PUSH1 0x1 PUSH1 0x1 PUSH1 0xA0 SHL SUB AND PUSH1 0x1 PUSH1 0x1 PUSH1 0xA0 SHL SUB AND PUSH4 0x6C1032AF PUSH1 0x40 MLOAD DUP2 PUSH4 0xFFFFFFFF AND PUSH1 0xE0 SHL DUP2 MSTORE PUSH1 0x4 ADD PUSH1 0x20 PUSH1 0x40 MLOAD DUP1 DUP4 SUB DUP2 DUP7 GAS STATICCALL ISZERO DUP1 ISZERO PUSH2 0xD95 JUMPI RETURNDATASIZE PUSH1 0x0 DUP1 RETURNDATACOPY RETURNDATASIZE PUSH1 0x0 REVERT JUMPDEST POP POP POP POP PUSH1 0x40 MLOAD RETURNDATASIZE PUSH1 0x1F NOT PUSH1 0x1F DUP3 ADD AND DUP3 ADD DUP1 PUSH1 0x40 MSTORE POP DUP2 ADD SWAP1 PUSH2 0xDB9 SWAP2 SWAP1 PUSH2 0x1492 JUMP JUMPDEST PUSH1 0x1 PUSH1 0x1 PUSH1 0xA0 SHL SUB AND DUP2 PUSH1 0x1 PUSH1 0x1 PUSH1 0xA0 SHL SUB AND EQ JUMPDEST PUSH2 0xBF5 JUMPI PUSH1 0x40 MLOAD PUSH3 0x461BCD PUSH1 0xE5 SHL DUP2 MSTORE PUSH1 0x20 PUSH1 0x4 DUP3 ADD MSTORE PUSH1 0x3 PUSH1 0x24 DUP3 ADD MSTORE PUSH3 0x307833 PUSH1 0xE8 SHL PUSH1 0x44 DUP3 ADD MSTORE PUSH1 0x64 ADD PUSH2 0x251 JUMP JUMPDEST PUSH1 0x0 DUP2 ISZERO PUSH2 0xE86 JUMPI PUSH1 0x1 PUSH1 0x0 SWAP1 SLOAD SWAP1 PUSH2 0x100 EXP SWAP1 DIV PUSH1 0x1 PUSH1 0x1 PUSH1 0xA0 SHL SUB AND PUSH1 0x1 PUSH1 0x1 PUSH1 0xA0 SHL SUB AND PUSH4 0x650D993B PUSH1 0x40 MLOAD DUP2 PUSH4 0xFFFFFFFF AND PUSH1 0xE0 SHL DUP2 MSTORE PUSH1 0x4 ADD PUSH1 0x20 PUSH1 0x40 MLOAD DUP1 DUP4 SUB DUP2 DUP7 GAS STATICCALL ISZERO DUP1 ISZERO PUSH2 0xE5B JUMPI RETURNDATASIZE PUSH1 0x0 DUP1 RETURNDATACOPY RETURNDATASIZE PUSH1 0x0 REVERT JUMPDEST POP POP POP POP PUSH1 0x40 MLOAD RETURNDATASIZE PUSH1 0x1F NOT PUSH1 0x1F DUP3 ADD AND DUP3 ADD DUP1 PUSH1 0x40 MSTORE POP DUP2 ADD SWAP1 PUSH2 0xE7F SWAP2 SWAP1 PUSH2 0x1492 JUMP JUMPDEST SWAP1 POP PUSH2 0xF00 JUMP JUMPDEST PUSH1 0x1 PUSH1 0x0 SWAP1 SLOAD SWAP1 PUSH2 0x100 EXP SWAP1 DIV PUSH1 0x1 PUSH1 0x1 PUSH1 0xA0 SHL SUB AND PUSH1 0x1 PUSH1 0x1 PUSH1 0xA0 SHL SUB AND PUSH4 0x6C1032AF PUSH1 0x40 MLOAD DUP2 PUSH4 0xFFFFFFFF AND PUSH1 0xE0 SHL DUP2 MSTORE PUSH1 0x4 ADD PUSH1 0x20 PUSH1 0x40 MLOAD DUP1 DUP4 SUB DUP2 DUP7 GAS STATICCALL ISZERO DUP1 ISZERO PUSH2 0xED9 JUMPI RETURNDATASIZE PUSH1 0x0 DUP1 RETURNDATACOPY RETURNDATASIZE PUSH1 0x0 REVERT JUMPDEST POP POP POP POP PUSH1 0x40 MLOAD RETURNDATASIZE PUSH1 0x1F NOT PUSH1 0x1F DUP3 ADD AND DUP3 ADD DUP1 PUSH1 0x40 MSTORE POP DUP2 ADD SWAP1 PUSH2 0xEFD SWAP2 SWAP1 PUSH2 0x1492 JUMP JUMPDEST SWAP1 POP JUMPDEST PUSH1 0x1 SLOAD PUSH1 0x40 DUP1 MLOAD PUSH4 0x4C6AFEE5 PUSH1 0xE1 SHL DUP2 MSTORE SWAP1 MLOAD PUSH1 0x0 SWAP3 PUSH1 0x1 PUSH1 0x1 PUSH1 0xA0 SHL SUB AND SWAP2 PUSH4 0x98D5FDCA SWAP2 PUSH1 0x4 DUP1 DUP4 ADD SWAP3 PUSH1 0x20 SWAP3 SWAP2 SWAP1 DUP3 SWAP1 SUB ADD DUP2 DUP7 GAS STATICCALL ISZERO DUP1 ISZERO PUSH2 0xF4A JUMPI RETURNDATASIZE PUSH1 0x0 DUP1 RETURNDATACOPY RETURNDATASIZE PUSH1 0x0 REVERT JUMPDEST POP POP POP POP PUSH1 0x40 MLOAD RETURNDATASIZE PUSH1 0x1F NOT PUSH1 0x1F DUP3 ADD AND DUP3 ADD DUP1 PUSH1 0x40 MSTORE POP DUP2 ADD SWAP1 PUSH2 0xF6E SWAP2 SWAP1 PUSH2 0x14F4 JUMP JUMPDEST SWAP1 POP PUSH2 0xF78 PUSH2 0xC3E JUMP JUMPDEST PUSH1 0x40 MLOAD PUSH4 0xA9059CBB PUSH1 0xE0 SHL DUP2 MSTORE PUSH1 0x1 PUSH1 0x1 PUSH1 0xA0 SHL SUB DUP5 DUP2 AND PUSH1 0x4 DUP4 ADD MSTORE PUSH1 0x24 DUP3 ADD DUP5 SWAP1 MSTORE SWAP2 SWAP1 SWAP2 AND SWAP1 PUSH4 0xA9059CBB SWAP1 PUSH1 0x44 ADD PUSH1 0x20 PUSH1 0x40 MLOAD DUP1 DUP4 SUB DUP2 PUSH1 0x0 DUP8 GAS CALL ISZERO DUP1 ISZERO PUSH2 0xFC9 JUMPI RETURNDATASIZE PUSH1 0x0 DUP1 RETURNDATACOPY RETURNDATASIZE PUSH1 0x0 REVERT JUMPDEST POP POP POP POP PUSH1 0x40 MLOAD RETURNDATASIZE PUSH1 0x1F NOT PUSH1 0x1F DUP3 ADD AND DUP3 ADD DUP1 PUSH1 0x40 MSTORE POP DUP2 ADD SWAP1 PUSH2 0xFED SWAP2 SWAP1 PUSH2 0x150D JUMP JUMPDEST POP POP POP POP JUMP JUMPDEST PUSH1 0x0 PUSH2 0xFFE DUP3 PUSH2 0x1220 JUMP JUMPDEST SWAP1 POP PUSH1 0x0 JUMPDEST PUSH1 0x4 SLOAD DUP2 LT ISZERO PUSH2 0x1116 JUMPI DUP3 ISZERO ISZERO PUSH1 0x4 DUP3 DUP2 SLOAD DUP2 LT PUSH2 0x1023 JUMPI PUSH2 0x1023 PUSH2 0x14AF JUMP JUMPDEST PUSH1 0x0 SWAP2 DUP3 MSTORE PUSH1 0x20 SWAP1 SWAP2 KECCAK256 PUSH1 0x3 PUSH1 0x4 SWAP1 SWAP3 MUL ADD ADD SLOAD PUSH1 0xFF AND ISZERO ISZERO SUB PUSH2 0x1106 JUMPI PUSH2 0x1049 PUSH2 0xC3E JUMP JUMPDEST PUSH1 0x1 PUSH1 0x1 PUSH1 0xA0 SHL SUB AND PUSH4 0xA9059CBB PUSH1 0x4 DUP4 DUP2 SLOAD DUP2 LT PUSH2 0x106A JUMPI PUSH2 0x106A PUSH2 0x14AF JUMP JUMPDEST SWAP1 PUSH1 0x0 MSTORE PUSH1 0x20 PUSH1 0x0 KECCAK256 SWAP1 PUSH1 0x4 MUL ADD PUSH1 0x3 ADD PUSH1 0x1 SWAP1 SLOAD SWAP1 PUSH2 0x100 EXP SWAP1 DIV PUSH1 0x1 PUSH1 0x1 PUSH1 0xA0 SHL SUB AND DUP5 PUSH1 0x40 MLOAD DUP4 PUSH4 0xFFFFFFFF AND PUSH1 0xE0 SHL DUP2 MSTORE PUSH1 0x4 ADD PUSH2 0x10C1 SWAP3 SWAP2 SWAP1 PUSH1 0x1 PUSH1 0x1 PUSH1 0xA0 SHL SUB SWAP3 SWAP1 SWAP3 AND DUP3 MSTORE PUSH1 0x20 DUP3 ADD MSTORE PUSH1 0x40 ADD SWAP1 JUMP JUMPDEST PUSH1 0x20 PUSH1 0x40 MLOAD DUP1 DUP4 SUB DUP2 PUSH1 0x0 DUP8 GAS CALL ISZERO DUP1 ISZERO PUSH2 0x10E0 JUMPI RETURNDATASIZE PUSH1 0x0 DUP1 RETURNDATACOPY RETURNDATASIZE PUSH1 0x0 REVERT JUMPDEST POP POP POP POP PUSH1 0x40 MLOAD RETURNDATASIZE PUSH1 0x1F NOT PUSH1 0x1F DUP3 ADD AND DUP3 ADD DUP1 PUSH1 0x40 MSTORE POP DUP2 ADD SWAP1 PUSH2 0x1104 SWAP2 SWAP1 PUSH2 0x150D JUMP JUMPDEST POP JUMPDEST PUSH2 0x110F DUP2 PUSH2 0x14DB JUMP JUMPDEST SWAP1 POP PUSH2 0x1003 JUMP JUMPDEST POP POP POP JUMP JUMPDEST PUSH1 0x0 PUSH2 0x1125 PUSH2 0xC3E JUMP JUMPDEST PUSH1 0x40 MLOAD PUSH4 0x70A08231 PUSH1 0xE0 SHL DUP2 MSTORE ADDRESS PUSH1 0x4 DUP3 ADD MSTORE SWAP1 SWAP2 POP PUSH1 0x0 SWAP1 PUSH1 0x1 PUSH1 0x1 PUSH1 0xA0 SHL SUB DUP4 AND SWAP1 PUSH4 0x70A08231 SWAP1 PUSH1 0x24 ADD PUSH1 0x20 PUSH1 0x40 MLOAD DUP1 DUP4 SUB DUP2 DUP7 GAS STATICCALL ISZERO DUP1 ISZERO PUSH2 0x116F JUMPI RETURNDATASIZE PUSH1 0x0 DUP1 RETURNDATACOPY RETURNDATASIZE PUSH1 0x0 REVERT JUMPDEST POP POP POP POP PUSH1 0x40 MLOAD RETURNDATASIZE PUSH1 0x1F NOT PUSH1 0x1F DUP3 ADD AND DUP3 ADD DUP1 PUSH1 0x40 MSTORE POP DUP2 ADD SWAP1 PUSH2 0x1193 SWAP2 SWAP1 PUSH2 0x14F4 JUMP JUMPDEST SWAP1 POP DUP1 ISZERO PUSH2 0x4CA JUMPI PUSH1 0x40 MLOAD PUSH4 0xA9059CBB PUSH1 0xE0 SHL DUP2 MSTORE PUSH20 0x1DF62F291B2E969FB0849D99D9CE41E2F137006E PUSH1 0x4 DUP3 ADD MSTORE PUSH1 0x24 DUP2 ADD DUP3 SWAP1 MSTORE PUSH1 0x1 PUSH1 0x1 PUSH1 0xA0 SHL SUB DUP4 AND SWAP1 PUSH4 0xA9059CBB SWAP1 PUSH1 0x44 ADD PUSH1 0x20 PUSH1 0x40 MLOAD DUP1 DUP4 SUB DUP2 PUSH1 0x0 DUP8 GAS CALL ISZERO DUP1 ISZERO PUSH2 0x11FC JUMPI RETURNDATASIZE PUSH1 0x0 DUP1 RETURNDATACOPY RETURNDATASIZE PUSH1 0x0 REVERT JUMPDEST POP POP POP POP PUSH1 0x40 MLOAD RETURNDATASIZE PUSH1 0x1F NOT PUSH1 0x1F DUP3 ADD AND DUP3 ADD DUP1 PUSH1 0x40 MSTORE POP DUP2 ADD SWAP1 PUSH2 0x1116 SWAP2 SWAP1 PUSH2 0x150D JUMP JUMPDEST PUSH1 0x0 DUP1 PUSH1 0x1 PUSH1 0x0 SWAP1 SLOAD SWAP1 PUSH2 0x100 EXP SWAP1 DIV PUSH1 0x1 PUSH1 0x1 PUSH1 0xA0 SHL SUB AND PUSH1 0x1 PUSH1 0x1 PUSH1 0xA0 SHL SUB AND PUSH4 0x64A40642 PUSH1 0x40 MLOAD DUP2 PUSH4 0xFFFFFFFF AND PUSH1 0xE0 SHL DUP2 MSTORE PUSH1 0x4 ADD PUSH1 0x20 PUSH1 0x40 MLOAD DUP1 DUP4 SUB DUP2 DUP7 GAS STATICCALL ISZERO DUP1 ISZERO PUSH2 0x1276 JUMPI RETURNDATASIZE PUSH1 0x0 DUP1 RETURNDATACOPY RETURNDATASIZE PUSH1 0x0 REVERT JUMPDEST POP POP POP POP PUSH1 0x40 MLOAD RETURNDATASIZE PUSH1 0x1F NOT PUSH1 0x1F DUP3 ADD AND DUP3 ADD DUP1 PUSH1 0x40 MSTORE POP DUP2 ADD SWAP1 PUSH2 0x129A SWAP2 SWAP1 PUSH2 0x14F4 JUMP JUMPDEST SWAP1 POP PUSH1 0x0 DUP4 DUP1 ISZERO PUSH2 0x12AC JUMPI POP PUSH1 0x7 SLOAD ISZERO ISZERO JUMPDEST ISZERO PUSH2 0x12DF JUMPI PUSH1 0x7 SLOAD DUP3 PUSH1 0x8 SLOAD PUSH1 0x1 PUSH2 0x12C4 SWAP2 SWAP1 PUSH2 0x152A JUMP JUMPDEST PUSH2 0x12CE SWAP2 SWAP1 PUSH2 0x1543 JUMP JUMPDEST PUSH2 0x12D8 SWAP2 SWAP1 PUSH2 0x155A JUMP JUMPDEST SWAP1 POP PUSH2 0x131D JUMP JUMPDEST DUP4 ISZERO DUP1 ISZERO PUSH2 0x12EE JUMPI POP PUSH1 0x8 SLOAD ISZERO ISZERO JUMPDEST ISZERO PUSH2 0x131D JUMPI PUSH1 0x8 SLOAD DUP3 PUSH1 0x7 SLOAD PUSH1 0x1 PUSH2 0x1306 SWAP2 SWAP1 PUSH2 0x152A JUMP JUMPDEST PUSH2 0x1310 SWAP2 SWAP1 PUSH2 0x1543 JUMP JUMPDEST PUSH2 0x131A SWAP2 SWAP1 PUSH2 0x155A JUMP JUMPDEST SWAP1 POP JUMPDEST PUSH2 0x1327 DUP3 DUP3 PUSH2 0x152A JUMP JUMPDEST SWAP5 SWAP4 POP POP POP POP JUMP JUMPDEST PUSH1 0x20 DUP1 DUP3 MSTORE DUP3 MLOAD DUP3 DUP3 ADD DUP2 SWAP1 MSTORE PUSH1 0x0 SWAP2 SWAP1 PUSH1 0x40 SWAP1 DUP2 DUP6 ADD SWAP1 DUP7 DUP5 ADD DUP6 JUMPDEST DUP3 DUP2 LT ISZERO PUSH2 0x137B JUMPI DUP2 MLOAD DUP1 MLOAD DUP6 MSTORE DUP7 DUP2 ADD MLOAD DUP8 DUP7 ADD MSTORE DUP6 ADD MLOAD DUP6 DUP6 ADD MSTORE PUSH1 0x60 SWAP1 SWAP4 ADD SWAP3 SWAP1 DUP6 ADD SWAP1 PUSH1 0x1 ADD PUSH2 0x134C JUMP JUMPDEST POP SWAP2 SWAP8 SWAP7 POP POP POP POP POP POP POP JUMP JUMPDEST PUSH1 0x20 DUP1 DUP3 MSTORE DUP3 MLOAD DUP3 DUP3 ADD DUP2 SWAP1 MSTORE PUSH1 0x0 SWAP2 SWAP1 PUSH1 0x40 SWAP1 DUP2 DUP6 ADD SWAP1 DUP7 DUP5 ADD DUP6 JUMPDEST DUP3 DUP2 LT ISZERO PUSH2 0x137B JUMPI DUP2 MLOAD DUP1 MLOAD DUP6 MSTORE DUP7 DUP2 ADD MLOAD DUP8 DUP7 ADD MSTORE DUP6 DUP2 ADD MLOAD DUP7 DUP7 ADD MSTORE PUSH1 0x60 DUP1 DUP3 ADD MLOAD ISZERO ISZERO SWAP1 DUP7 ADD MSTORE PUSH1 0x80 SWAP1 DUP2 ADD MLOAD PUSH1 0x1 PUSH1 0x1 PUSH1 0xA0 SHL SUB AND SWAP1 DUP6 ADD MSTORE PUSH1 0xA0 SWAP1 SWAP4 ADD SWAP3 SWAP1 DUP6 ADD SWAP1 PUSH1 0x1 ADD PUSH2 0x13A5 JUMP JUMPDEST PUSH1 0x1 PUSH1 0x1 PUSH1 0xA0 SHL SUB DUP2 AND DUP2 EQ PUSH2 0xBF5 JUMPI PUSH1 0x0 DUP1 REVERT JUMPDEST PUSH1 0x0 PUSH1 0x20 DUP3 DUP5 SUB SLT ISZERO PUSH2 0x141B JUMPI PUSH1 0x0 DUP1 REVERT JUMPDEST DUP2 CALLDATALOAD PUSH2 0x1426 DUP2 PUSH2 0x13F4 JUMP JUMPDEST SWAP4 SWAP3 POP POP POP JUMP JUMPDEST DUP1 ISZERO ISZERO DUP2 EQ PUSH2 0xBF5 JUMPI PUSH1 0x0 DUP1 REVERT JUMPDEST PUSH1 0x0 DUP1 PUSH1 0x0 PUSH1 0x60 DUP5 DUP7 SUB SLT ISZERO PUSH2 0x1450 JUMPI PUSH1 0x0 DUP1 REVERT JUMPDEST DUP4 CALLDATALOAD PUSH2 0x145B DUP2 PUSH2 0x142D JUMP JUMPDEST SWAP6 PUSH1 0x20 DUP6 ADD CALLDATALOAD SWAP6 POP PUSH1 0x40 SWAP1 SWAP5 ADD CALLDATALOAD SWAP4 SWAP3 POP POP POP JUMP JUMPDEST PUSH1 0x0 DUP1 PUSH1 0x40 DUP4 DUP6 SUB SLT ISZERO PUSH2 0x1483 JUMPI PUSH1 0x0 DUP1 REVERT JUMPDEST POP POP DUP1 CALLDATALOAD SWAP3 PUSH1 0x20 SWAP1 SWAP2 ADD CALLDATALOAD SWAP2 POP JUMP JUMPDEST PUSH1 0x0 PUSH1 0x20 DUP3 DUP5 SUB SLT ISZERO PUSH2 0x14A4 JUMPI PUSH1 0x0 DUP1 REVERT JUMPDEST DUP2 MLOAD PUSH2 0x1426 DUP2 PUSH2 0x13F4 JUMP JUMPDEST PUSH4 0x4E487B71 PUSH1 0xE0 SHL PUSH1 0x0 MSTORE PUSH1 0x32 PUSH1 0x4 MSTORE PUSH1 0x24 PUSH1 0x0 REVERT JUMPDEST PUSH4 0x4E487B71 PUSH1 0xE0 SHL PUSH1 0x0 MSTORE PUSH1 0x11 PUSH1 0x4 MSTORE PUSH1 0x24 PUSH1 0x0 REVERT JUMPDEST PUSH1 0x0 PUSH1 0x1 DUP3 ADD PUSH2 0x14ED JUMPI PUSH2 0x14ED PUSH2 0x14C5 JUMP JUMPDEST POP PUSH1 0x1 ADD SWAP1 JUMP JUMPDEST PUSH1 0x0 PUSH1 0x20 DUP3 DUP5 SUB SLT ISZERO PUSH2 0x1506 JUMPI PUSH1 0x0 DUP1 REVERT JUMPDEST POP MLOAD SWAP2 SWAP1 POP JUMP JUMPDEST PUSH1 0x0 PUSH1 0x20 DUP3 DUP5 SUB SLT ISZERO PUSH2 0x151F JUMPI PUSH1 0x0 DUP1 REVERT JUMPDEST DUP2 MLOAD PUSH2 0x1426 DUP2 PUSH2 0x142D JUMP JUMPDEST DUP1 DUP3 ADD DUP1 DUP3 GT ISZERO PUSH2 0x153D JUMPI PUSH2 0x153D PUSH2 0x14C5 JUMP JUMPDEST SWAP3 SWAP2 POP POP JUMP JUMPDEST DUP1 DUP3 MUL DUP2 ISZERO DUP3 DUP3 DIV DUP5 EQ OR PUSH2 0x153D JUMPI PUSH2 0x153D PUSH2 0x14C5 JUMP JUMPDEST PUSH1 0x0 DUP3 PUSH2 0x1577 JUMPI PUSH4 0x4E487B71 PUSH1 0xE0 SHL PUSH1 0x0 MSTORE PUSH1 0x12 PUSH1 0x4 MSTORE PUSH1 0x24 PUSH1 0x0 REVERT JUMPDEST POP DIV SWAP1 JUMP INVALID LOG2 PUSH5 0x6970667358 0x22 SLT KECCAK256 SWAP4 SWAP2 0xD8 0x5C 0xD8 DUP15 SHR SHL GASPRICE 0xFC 0xEB MUL PUSH28 0xA5560B5BF32522E7AD00B05C973D422F5C97964736F6C6343000812 STOP CALLER "
				},
				"gasEstimates": {
					"creation": {
						"codeDepositCost": "1110800",
						"executionCost": "infinite",
						"totalCost": "infinite"
					},
					"external": {
						"addArgument(uint256,bytes32)": "infinite",
						"checkCanSenderVote(address)": "infinite",
						"close()": "infinite",
						"getCustomerArguments()": "infinite",
						"getExecutionContractAddress()": "2441",
						"getExecutorArguments()": "infinite",
						"getJudgmentTimeEnd()": "2358",
						"getNumVotes()": "2392",
						"getTaskInfoContractAddress()": "2343",
						"getVotes()": "infinite",
						"isClosed()": "2292",
						"vote(bool,uint256,bytes32)": "infinite"
					},
					"internal": {
						"calculateJudgeReward(bool)": "infinite",
						"checkCanSenderAddArguments(address)": "infinite",
						"checkIsContractNotClosed()": "infinite",
						"getToken()": "infinite",
						"payBalanceToCompany()": "infinite",
						"payRewardByVote(bool)": "infinite",
						"payRewardToWinner(bool)": "infinite",
						"payRewards()": "infinite"
					}
				},
				"methodIdentifiers": {
					"addArgument(uint256,bytes32)": "e90f4e7c",
					"checkCanSenderVote(address)": "1d20a341",
					"close()": "43d726d6",
					"getCustomerArguments()": "d48fe222",
					"getExecutionContractAddress()": "ec1abd7f",
					"getExecutorArguments()": "079402c1",
					"getJudgmentTimeEnd()": "e556dcb2",
					"getNumVotes()": "8b5a8db2",
					"getTaskInfoContractAddress()": "09f82a8a",
					"getVotes()": "0dc96015",
					"isClosed()": "c2b6b58c",
					"vote(bool,uint256,bytes32)": "d9416762"
				}
			},
			"storageLayout": {
				"storage": [
					{
						"astId": 185,
						"contract": "Judgment.sol:Judgment",
						"label": "executionContractAddress",
						"offset": 0,
						"slot": "0",
						"type": "t_address"
					},
					{
						"astId": 187,
						"contract": "Judgment.sol:Judgment",
						"label": "taskInfoContractAddress",
						"offset": 0,
						"slot": "1",
						"type": "t_address"
					},
					{
						"astId": 191,
						"contract": "Judgment.sol:Judgment",
						"label": "customerArguments",
						"offset": 0,
						"slot": "2",
						"type": "t_array(t_struct(Argument)891_storage)dyn_storage"
					},
					{
						"astId": 195,
						"contract": "Judgment.sol:Judgment",
						"label": "executorArguments",
						"offset": 0,
						"slot": "3",
						"type": "t_array(t_struct(Argument)891_storage)dyn_storage"
					},
					{
						"astId": 199,
						"contract": "Judgment.sol:Judgment",
						"label": "judge_votes",
						"offset": 0,
						"slot": "4",
						"type": "t_array(t_struct(JudgeVote)884_storage)dyn_storage"
					},
					{
						"astId": 201,
						"contract": "Judgment.sol:Judgment",
						"label": "judgmentTimeEnd",
						"offset": 0,
						"slot": "5",
						"type": "t_uint256"
					},
					{
						"astId": 204,
						"contract": "Judgment.sol:Judgment",
						"label": "rewardsPayed",
						"offset": 0,
						"slot": "6",
						"type": "t_bool"
					},
					{
						"astId": 207,
						"contract": "Judgment.sol:Judgment",
						"label": "votes_for",
						"offset": 0,
						"slot": "7",
						"type": "t_uint256"
					},
					{
						"astId": 210,
						"contract": "Judgment.sol:Judgment",
						"label": "votes_against",
						"offset": 0,
						"slot": "8",
						"type": "t_uint256"
					}
				],
				"types": {
					"t_address": {
						"encoding": "inplace",
						"label": "address",
						"numberOfBytes": "20"
					},
					"t_array(t_struct(Argument)891_storage)dyn_storage": {
						"base": "t_struct(Argument)891_storage",
						"encoding": "dynamic_array",
						"label": "struct utils.Argument[]",
						"numberOfBytes": "32"
					},
					"t_array(t_struct(JudgeVote)884_storage)dyn_storage": {
						"base": "t_struct(JudgeVote)884_storage",
						"encoding": "dynamic_array",
						"label": "struct utils.JudgeVote[]",
						"numberOfBytes": "32"
					},
					"t_bool": {
						"encoding": "inplace",
						"label": "bool",
						"numberOfBytes": "1"
					},
					"t_bytes32": {
						"encoding": "inplace",
						"label": "bytes32",
						"numberOfBytes": "32"
					},
					"t_struct(Argument)891_storage": {
						"encoding": "inplace",
						"label": "struct utils.Argument",
						"members": [
							{
								"astId": 886,
								"contract": "Judgment.sol:Judgment",
								"label": "id",
								"offset": 0,
								"slot": "0",
								"type": "t_uint256"
							},
							{
								"astId": 888,
								"contract": "Judgment.sol:Judgment",
								"label": "sha256hashsum",
								"offset": 0,
								"slot": "1",
								"type": "t_bytes32"
							},
							{
								"astId": 890,
								"contract": "Judgment.sol:Judgment",
								"label": "timestamp",
								"offset": 0,
								"slot": "2",
								"type": "t_uint256"
							}
						],
						"numberOfBytes": "96"
					},
					"t_struct(JudgeVote)884_storage": {
						"encoding": "inplace",
						"label": "struct utils.JudgeVote",
						"members": [
							{
								"astId": 875,
								"contract": "Judgment.sol:Judgment",
								"label": "id",
								"offset": 0,
								"slot": "0",
								"type": "t_uint256"
							},
							{
								"astId": 877,
								"contract": "Judgment.sol:Judgment",
								"label": "sha256hashsum",
								"offset": 0,
								"slot": "1",
								"type": "t_bytes32"
							},
							{
								"astId": 879,
								"contract": "Judgment.sol:Judgment",
								"label": "timestamp",
								"offset": 0,
								"slot": "2",
								"type": "t_uint256"
							},
							{
								"astId": 881,
								"contract": "Judgment.sol:Judgment",
								"label": "verdict",
								"offset": 0,
								"slot": "3",
								"type": "t_bool"
							},
							{
								"astId": 883,
								"contract": "Judgment.sol:Judgment",
								"label": "judgeAddress",
								"offset": 1,
								"slot": "3",
								"type": "t_address"
							}
						],
						"numberOfBytes": "128"
					},
					"t_uint256": {
						"encoding": "inplace",
						"label": "uint256",
						"numberOfBytes": "32"
					}
				}
			},
			"userdoc": {
				"kind": "user",
				"methods": {},
				"version": 1
			}
		}
	}
}