{
	"utils.sol": {
		"utils": {
			"abi": [
				{
					"inputs": [],
					"name": "COMPANY_ADDRESS",
					"outputs": [
						{
							"internalType": "address",
							"name": "",
							"type": "address"
						}
					],
					"stateMutability": "view",
					"type": "function"
				},
				{
					"inputs": [],
					"name": "COMPANY_FEE_PERCENT",
					"outputs": [
						{
							"internalType": "uint8",
							"name": "",
							"type": "uint8"
						}
					],
					"stateMutability": "view",
					"type": "function"
				},
				{
					"inputs": [],
					"name": "MIN_JUDGMENT_TIME",
					"outputs": [
						{
							"internalType": "uint256",
							"name": "",
							"type": "uint256"
						}
					],
					"stateMutability": "view",
					"type": "function"
				},
				{
					"inputs": [],
					"name": "PRICE_THRESHOLD",
					"outputs": [
						{
							"internalType": "uint256",
							"name": "",
							"type": "uint256"
						}
					],
					"stateMutability": "view",
					"type": "function"
				}
			],
			"devdoc": {
				"kind": "dev",
				"methods": {},
				"version": 1
			},
			"evm": {
				"assembly": "    /* \"utils.sol\":116:1147  library utils {... */\n  dataSize(sub_0)\n  dataOffset(sub_0)\n  0x0b\n  dup3\n  dup3\n  dup3\n  codecopy\n  dup1\n  mload\n  0x00\n  byte\n  0x73\n  eq\n  tag_1\n  jumpi\n  mstore(0x00, shl(0xe0, 0x4e487b71))\n  mstore(0x04, 0x00)\n  revert(0x00, 0x24)\ntag_1:\n  mstore(0x00, address)\n  0x73\n  dup2\n  mstore8\n  dup3\n  dup2\n  return\nstop\n\nsub_0: assembly {\n        /* \"utils.sol\":116:1147  library utils {... */\n      eq(address, deployTimeAddress())\n      mstore(0x40, 0x80)\n      jumpi(tag_1, lt(calldatasize, 0x04))\n      shr(0xe0, calldataload(0x00))\n      dup1\n      0x34379814\n      eq\n      tag_2\n      jumpi\n      dup1\n      0x4258c880\n      eq\n      tag_3\n      jumpi\n      dup1\n      0x5ed4c4dd\n      eq\n      tag_4\n      jumpi\n      dup1\n      0xbb8e5012\n      eq\n      tag_5\n      jumpi\n    tag_1:\n      0x00\n      dup1\n      revert\n        /* \"utils.sol\":449:503  uint constant public MIN_JUDGMENT_TIME = 1 minutes - 1 */\n    tag_2:\n      tag_6\n        /* \"utils.sol\":490:503  1 minutes - 1 */\n      0x3b\n        /* \"utils.sol\":449:503  uint constant public MIN_JUDGMENT_TIME = 1 minutes - 1 */\n      dup2\n      jump\n    tag_6:\n      mload(0x40)\n        /* \"#utility.yul\":168:193   */\n      swap1\n      dup2\n      mstore\n        /* \"#utility.yul\":156:158   */\n      0x20\n        /* \"#utility.yul\":141:159   */\n      add\n        /* \"utils.sol\":449:503  uint constant public MIN_JUDGMENT_TIME = 1 minutes - 1 */\n    tag_8:\n      mload(0x40)\n      dup1\n      swap2\n      sub\n      swap1\n      return\n        /* \"utils.sol\":333:378  uint8 constant public COMPANY_FEE_PERCENT = 1 */\n    tag_3:\n      tag_10\n        /* \"utils.sol\":377:378  1 */\n      0x01\n        /* \"utils.sol\":333:378  uint8 constant public COMPANY_FEE_PERCENT = 1 */\n      dup2\n      jump\n    tag_10:\n      mload(0x40)\n        /* \"#utility.yul\":384:388   */\n      0xff\n        /* \"#utility.yul\":372:389   */\n      swap1\n      swap2\n      and\n        /* \"#utility.yul\":354:390   */\n      dup2\n      mstore\n        /* \"#utility.yul\":342:344   */\n      0x20\n        /* \"#utility.yul\":327:345   */\n      add\n        /* \"utils.sol\":333:378  uint8 constant public COMPANY_FEE_PERCENT = 1 */\n      tag_8\n        /* \"#utility.yul\":204:396   */\n      jump\n        /* \"utils.sol\":384:431  uint256 constant public PRICE_THRESHOLD = 10000 */\n    tag_4:\n      tag_6\n        /* \"utils.sol\":426:431  10000 */\n      0x2710\n        /* \"utils.sol\":384:431  uint256 constant public PRICE_THRESHOLD = 10000 */\n      dup2\n      jump\n        /* \"utils.sol\":234:327  address constant public COMPANY_ADDRESS = address(0x1dF62f291b2E969fB0849d99D9Ce41e2F137006e) */\n    tag_5:\n      tag_17\n        /* \"utils.sol\":284:326  0x1dF62f291b2E969fB0849d99D9Ce41e2F137006e */\n      0x1df62f291b2e969fb0849d99d9ce41e2f137006e\n        /* \"utils.sol\":234:327  address constant public COMPANY_ADDRESS = address(0x1dF62f291b2E969fB0849d99D9Ce41e2F137006e) */\n      dup2\n      jump\n    tag_17:\n      mload(0x40)\n      sub(shl(0xa0, 0x01), 0x01)\n        /* \"#utility.yul\":573:605   */\n      swap1\n      swap2\n      and\n        /* \"#utility.yul\":555:606   */\n      dup2\n      mstore\n        /* \"#utility.yul\":543:545   */\n      0x20\n        /* \"#utility.yul\":528:546   */\n      add\n        /* \"utils.sol\":234:327  address constant public COMPANY_ADDRESS = address(0x1dF62f291b2E969fB0849d99D9Ce41e2F137006e) */\n      tag_8\n        /* \"#utility.yul\":401:612   */\n      jump\n\n    auxdata: 0xa2646970667358221220d0f69e23f11a429bfd9c497ea873be0a572854da94a5035d728b02437bc81de564736f6c63430008120033\n}\n",
				"bytecode": {
					"linkReferences": {},
					"object": "60f7610039600b82828239805160001a60731461002c57634e487b7160e01b600052600060045260246000fd5b30600052607381538281f3fe730000000000000000000000000000000000000000301460806040526004361060515760003560e01c8063343798141460565780634258c8801460705780635ed4c4dd146088578063bb8e5012146090575b600080fd5b605d603b81565b6040519081526020015b60405180910390f35b6077600181565b60405160ff90911681526020016067565b605d61271081565b60aa731df62f291b2e969fb0849d99d9ce41e2f137006e81565b6040516001600160a01b039091168152602001606756fea2646970667358221220d0f69e23f11a429bfd9c497ea873be0a572854da94a5035d728b02437bc81de564736f6c63430008120033",
					"opcodes": "PUSH1 0xF7 PUSH2 0x39 PUSH1 0xB DUP3 DUP3 DUP3 CODECOPY DUP1 MLOAD PUSH1 0x0 BYTE PUSH1 0x73 EQ PUSH2 0x2C JUMPI PUSH4 0x4E487B71 PUSH1 0xE0 SHL PUSH1 0x0 MSTORE PUSH1 0x0 PUSH1 0x4 MSTORE PUSH1 0x24 PUSH1 0x0 REVERT JUMPDEST ADDRESS PUSH1 0x0 MSTORE PUSH1 0x73 DUP2 MSTORE8 DUP3 DUP2 RETURN INVALID PUSH20 0x0 ADDRESS EQ PUSH1 0x80 PUSH1 0x40 MSTORE PUSH1 0x4 CALLDATASIZE LT PUSH1 0x51 JUMPI PUSH1 0x0 CALLDATALOAD PUSH1 0xE0 SHR DUP1 PUSH4 0x34379814 EQ PUSH1 0x56 JUMPI DUP1 PUSH4 0x4258C880 EQ PUSH1 0x70 JUMPI DUP1 PUSH4 0x5ED4C4DD EQ PUSH1 0x88 JUMPI DUP1 PUSH4 0xBB8E5012 EQ PUSH1 0x90 JUMPI JUMPDEST PUSH1 0x0 DUP1 REVERT JUMPDEST PUSH1 0x5D PUSH1 0x3B DUP2 JUMP JUMPDEST PUSH1 0x40 MLOAD SWAP1 DUP2 MSTORE PUSH1 0x20 ADD JUMPDEST PUSH1 0x40 MLOAD DUP1 SWAP2 SUB SWAP1 RETURN JUMPDEST PUSH1 0x77 PUSH1 0x1 DUP2 JUMP JUMPDEST PUSH1 0x40 MLOAD PUSH1 0xFF SWAP1 SWAP2 AND DUP2 MSTORE PUSH1 0x20 ADD PUSH1 0x67 JUMP JUMPDEST PUSH1 0x5D PUSH2 0x2710 DUP2 JUMP JUMPDEST PUSH1 0xAA PUSH20 0x1DF62F291B2E969FB0849D99D9CE41E2F137006E DUP2 JUMP JUMPDEST PUSH1 0x40 MLOAD PUSH1 0x1 PUSH1 0x1 PUSH1 0xA0 SHL SUB SWAP1 SWAP2 AND DUP2 MSTORE PUSH1 0x20 ADD PUSH1 0x67 JUMP INVALID LOG2 PUSH5 0x6970667358 0x22 SLT KECCAK256 0xD0 0xF6 SWAP15 0x23 CALL BYTE TIMESTAMP SWAP12 REVERT SWAP13 0x49 PUSH31 0xA873BE0A572854DA94A5035D728B02437BC81DE564736F6C63430008120033 "
				},
				"gasEstimates": {
					"creation": {
						"codeDepositCost": "49400",
						"executionCost": "133",
						"totalCost": "49533"
					},
					"external": {
						"COMPANY_ADDRESS()": "244",
						"COMPANY_FEE_PERCENT()": "188",
						"MIN_JUDGMENT_TIME()": "146",
						"PRICE_THRESHOLD()": "190"
					}
				},
				"methodIdentifiers": {
					"COMPANY_ADDRESS()": "bb8e5012",
					"COMPANY_FEE_PERCENT()": "4258c880",
					"MIN_JUDGMENT_TIME()": "34379814",
					"PRICE_THRESHOLD()": "5ed4c4dd"
				}
			},
			"storageLayout": {
				"storage": [],
				"types": null
			},
			"userdoc": {
				"kind": "user",
				"methods": {},
				"version": 1
			}
		}
	}
}